{
	"contracts/event.sol": {
		"Event": {
			"abi": [
				{
					"anonymous": false,
					"inputs": [
						{
							"indexed": false,
							"internalType": "address",
							"name": "addrContract",
							"type": "address"
						},
						{
							"indexed": false,
							"internalType": "address",
							"name": "owner",
							"type": "address"
						},
						{
							"indexed": false,
							"internalType": "uint256",
							"name": "a",
							"type": "uint256"
						},
						{
							"indexed": false,
							"internalType": "uint256",
							"name": "b",
							"type": "uint256"
						}
					],
					"name": "Increment",
					"type": "event"
				},
				{
					"anonymous": false,
					"inputs": [
						{
							"indexed": false,
							"internalType": "string",
							"name": "s",
							"type": "string"
						}
					],
					"name": "LogString",
					"type": "event"
				},
				{
					"inputs": [
						{
							"internalType": "uint256",
							"name": "_a",
							"type": "uint256"
						},
						{
							"internalType": "uint256",
							"name": "_b",
							"type": "uint256"
						}
					],
					"name": "getValue",
					"outputs": [],
					"stateMutability": "nonpayable",
					"type": "function"
				},
				{
					"inputs": [
						{
							"internalType": "string",
							"name": "_string",
							"type": "string"
						}
					],
					"name": "logString",
					"outputs": [],
					"stateMutability": "nonpayable",
					"type": "function"
				},
				{
					"inputs": [],
					"name": "value",
					"outputs": [
						{
							"internalType": "uint256",
							"name": "",
							"type": "uint256"
						}
					],
					"stateMutability": "view",
					"type": "function"
				}
			],
			"devdoc": {
				"kind": "dev",
				"methods": {},
				"version": 1
			},
			"evm": {
				"assembly": "    /* \"contracts/event.sol\":26:391  contract Event {... */\n  mstore(0x40, 0x80)\n    /* \"contracts/event.sol\":70:71  0 */\n  0x00\n    /* \"contracts/event.sol\":47:71  uint256 public value = 0 */\n  dup1\n  sstore\n    /* \"contracts/event.sol\":26:391  contract Event {... */\n  callvalue\n  dup1\n  iszero\n  tag_1\n  jumpi\n  0x00\n  dup1\n  revert\ntag_1:\n  pop\n  dataSize(sub_0)\n  dup1\n  dataOffset(sub_0)\n  0x00\n  codecopy\n  0x00\n  return\nstop\n\nsub_0: assembly {\n        /* \"contracts/event.sol\":26:391  contract Event {... */\n      mstore(0x40, 0x80)\n      callvalue\n      dup1\n      iszero\n      tag_1\n      jumpi\n      0x00\n      dup1\n      revert\n    tag_1:\n      pop\n      jumpi(tag_2, lt(calldatasize, 0x04))\n      shr(0xe0, calldataload(0x00))\n      dup1\n      0x0bb563d6\n      eq\n      tag_3\n      jumpi\n      dup1\n      0x3fa4f245\n      eq\n      tag_4\n      jumpi\n      dup1\n      0x6a19e6de\n      eq\n      tag_5\n      jumpi\n    tag_2:\n      0x00\n      dup1\n      revert\n        /* \"contracts/event.sol\":324:389  function logString(string memory _string) public {... */\n    tag_3:\n      tag_6\n      0x04\n      dup1\n      calldatasize\n      sub\n      dup2\n      add\n      swap1\n      tag_7\n      swap2\n      swap1\n      tag_8\n      jump\t// in\n    tag_7:\n      tag_9\n      jump\t// in\n    tag_6:\n      stop\n        /* \"contracts/event.sol\":47:71  uint256 public value = 0 */\n    tag_4:\n      tag_10\n      tag_11\n      jump\t// in\n    tag_10:\n      mload(0x40)\n      tag_12\n      swap2\n      swap1\n      tag_13\n      jump\t// in\n    tag_12:\n      mload(0x40)\n      dup1\n      swap2\n      sub\n      swap1\n      return\n        /* \"contracts/event.sol\":184:318  function getValue(uint _a, uint _b) public {... */\n    tag_5:\n      tag_14\n      0x04\n      dup1\n      calldatasize\n      sub\n      dup2\n      add\n      swap1\n      tag_15\n      swap2\n      swap1\n      tag_16\n      jump\t// in\n    tag_15:\n      tag_17\n      jump\t// in\n    tag_14:\n      stop\n        /* \"contracts/event.sol\":324:389  function logString(string memory _string) public {... */\n    tag_9:\n      pop\n      jump\t// out\n        /* \"contracts/event.sol\":47:71  uint256 public value = 0 */\n    tag_11:\n      sload(0x00)\n      dup2\n      jump\t// out\n        /* \"contracts/event.sol\":184:318  function getValue(uint _a, uint _b) public {... */\n    tag_17:\n        /* \"contracts/event.sol\":242:286  Increment(address(this), msg.sender, _a, _b) */\n      0x1aea5ca8758563c9bc60ccb9317e70c09500e291145eef6aa3b15de85a776fe3\n        /* \"contracts/event.sol\":260:264  this */\n      address\n        /* \"contracts/event.sol\":267:277  msg.sender */\n      caller\n        /* \"contracts/event.sol\":279:281  _a */\n      dup5\n        /* \"contracts/event.sol\":283:285  _b */\n      dup5\n        /* \"contracts/event.sol\":242:286  Increment(address(this), msg.sender, _a, _b) */\n      mload(0x40)\n      tag_20\n      swap5\n      swap4\n      swap3\n      swap2\n      swap1\n      tag_21\n      jump\t// in\n    tag_20:\n      mload(0x40)\n      dup1\n      swap2\n      sub\n      swap1\n      log1\n        /* \"contracts/event.sol\":309:311  _b */\n      dup1\n        /* \"contracts/event.sol\":304:306  _a */\n      dup3\n        /* \"contracts/event.sol\":304:311  _a + _b */\n      tag_22\n      swap2\n      swap1\n      tag_23\n      jump\t// in\n    tag_22:\n        /* \"contracts/event.sol\":296:301  value */\n      0x00\n        /* \"contracts/event.sol\":296:311  value = _a + _b */\n      dup2\n      swap1\n      sstore\n      pop\n        /* \"contracts/event.sol\":184:318  function getValue(uint _a, uint _b) public {... */\n      pop\n      pop\n      jump\t// out\n        /* \"#utility.yul\":7:82   */\n    tag_24:\n        /* \"#utility.yul\":40:46   */\n      0x00\n        /* \"#utility.yul\":73:75   */\n      0x40\n        /* \"#utility.yul\":67:76   */\n      mload\n        /* \"#utility.yul\":57:76   */\n      swap1\n      pop\n        /* \"#utility.yul\":7:82   */\n      swap1\n      jump\t// out\n        /* \"#utility.yul\":88:205   */\n    tag_25:\n        /* \"#utility.yul\":197:198   */\n      0x00\n        /* \"#utility.yul\":194:195   */\n      dup1\n        /* \"#utility.yul\":187:199   */\n      revert\n        /* \"#utility.yul\":211:328   */\n    tag_26:\n        /* \"#utility.yul\":320:321   */\n      0x00\n        /* \"#utility.yul\":317:318   */\n      dup1\n        /* \"#utility.yul\":310:322   */\n      revert\n        /* \"#utility.yul\":334:451   */\n    tag_27:\n        /* \"#utility.yul\":443:444   */\n      0x00\n        /* \"#utility.yul\":440:441   */\n      dup1\n        /* \"#utility.yul\":433:445   */\n      revert\n        /* \"#utility.yul\":457:574   */\n    tag_28:\n        /* \"#utility.yul\":566:567   */\n      0x00\n        /* \"#utility.yul\":563:564   */\n      dup1\n        /* \"#utility.yul\":556:568   */\n      revert\n        /* \"#utility.yul\":580:682   */\n    tag_29:\n        /* \"#utility.yul\":621:627   */\n      0x00\n        /* \"#utility.yul\":672:674   */\n      0x1f\n        /* \"#utility.yul\":668:675   */\n      not\n        /* \"#utility.yul\":663:665   */\n      0x1f\n        /* \"#utility.yul\":656:661   */\n      dup4\n        /* \"#utility.yul\":652:666   */\n      add\n        /* \"#utility.yul\":648:676   */\n      and\n        /* \"#utility.yul\":638:676   */\n      swap1\n      pop\n        /* \"#utility.yul\":580:682   */\n      swap2\n      swap1\n      pop\n      jump\t// out\n        /* \"#utility.yul\":688:868   */\n    tag_30:\n        /* \"#utility.yul\":736:813   */\n      0x4e487b7100000000000000000000000000000000000000000000000000000000\n        /* \"#utility.yul\":733:734   */\n      0x00\n        /* \"#utility.yul\":726:814   */\n      mstore\n        /* \"#utility.yul\":833:837   */\n      0x41\n        /* \"#utility.yul\":830:831   */\n      0x04\n        /* \"#utility.yul\":823:838   */\n      mstore\n        /* \"#utility.yul\":857:861   */\n      0x24\n        /* \"#utility.yul\":854:855   */\n      0x00\n        /* \"#utility.yul\":847:862   */\n      revert\n        /* \"#utility.yul\":874:1155   */\n    tag_31:\n        /* \"#utility.yul\":957:984   */\n      tag_54\n        /* \"#utility.yul\":979:983   */\n      dup3\n        /* \"#utility.yul\":957:984   */\n      tag_29\n      jump\t// in\n    tag_54:\n        /* \"#utility.yul\":949:955   */\n      dup2\n        /* \"#utility.yul\":945:985   */\n      add\n        /* \"#utility.yul\":1087:1093   */\n      dup2\n        /* \"#utility.yul\":1075:1085   */\n      dup2\n        /* \"#utility.yul\":1072:1094   */\n      lt\n        /* \"#utility.yul\":1051:1069   */\n      0xffffffffffffffff\n        /* \"#utility.yul\":1039:1049   */\n      dup3\n        /* \"#utility.yul\":1036:1070   */\n      gt\n        /* \"#utility.yul\":1033:1095   */\n      or\n        /* \"#utility.yul\":1030:1118   */\n      iszero\n      tag_55\n      jumpi\n        /* \"#utility.yul\":1098:1116   */\n      tag_56\n      tag_30\n      jump\t// in\n    tag_56:\n        /* \"#utility.yul\":1030:1118   */\n    tag_55:\n        /* \"#utility.yul\":1138:1148   */\n      dup1\n        /* \"#utility.yul\":1134:1136   */\n      0x40\n        /* \"#utility.yul\":1127:1149   */\n      mstore\n        /* \"#utility.yul\":917:1155   */\n      pop\n        /* \"#utility.yul\":874:1155   */\n      pop\n      pop\n      jump\t// out\n        /* \"#utility.yul\":1161:1290   */\n    tag_32:\n        /* \"#utility.yul\":1195:1201   */\n      0x00\n        /* \"#utility.yul\":1222:1242   */\n      tag_58\n      tag_24\n      jump\t// in\n    tag_58:\n        /* \"#utility.yul\":1212:1242   */\n      swap1\n      pop\n        /* \"#utility.yul\":1251:1284   */\n      tag_59\n        /* \"#utility.yul\":1279:1283   */\n      dup3\n        /* \"#utility.yul\":1271:1277   */\n      dup3\n        /* \"#utility.yul\":1251:1284   */\n      tag_31\n      jump\t// in\n    tag_59:\n        /* \"#utility.yul\":1161:1290   */\n      swap2\n      swap1\n      pop\n      jump\t// out\n        /* \"#utility.yul\":1296:1604   */\n    tag_33:\n        /* \"#utility.yul\":1358:1362   */\n      0x00\n        /* \"#utility.yul\":1448:1466   */\n      0xffffffffffffffff\n        /* \"#utility.yul\":1440:1446   */\n      dup3\n        /* \"#utility.yul\":1437:1467   */\n      gt\n        /* \"#utility.yul\":1434:1490   */\n      iszero\n      tag_61\n      jumpi\n        /* \"#utility.yul\":1470:1488   */\n      tag_62\n      tag_30\n      jump\t// in\n    tag_62:\n        /* \"#utility.yul\":1434:1490   */\n    tag_61:\n        /* \"#utility.yul\":1508:1537   */\n      tag_63\n        /* \"#utility.yul\":1530:1536   */\n      dup3\n        /* \"#utility.yul\":1508:1537   */\n      tag_29\n      jump\t// in\n    tag_63:\n        /* \"#utility.yul\":1500:1537   */\n      swap1\n      pop\n        /* \"#utility.yul\":1592:1596   */\n      0x20\n        /* \"#utility.yul\":1586:1590   */\n      dup2\n        /* \"#utility.yul\":1582:1597   */\n      add\n        /* \"#utility.yul\":1574:1597   */\n      swap1\n      pop\n        /* \"#utility.yul\":1296:1604   */\n      swap2\n      swap1\n      pop\n      jump\t// out\n        /* \"#utility.yul\":1610:1764   */\n    tag_34:\n        /* \"#utility.yul\":1694:1700   */\n      dup3\n        /* \"#utility.yul\":1689:1692   */\n      dup2\n        /* \"#utility.yul\":1684:1687   */\n      dup4\n        /* \"#utility.yul\":1671:1701   */\n      calldatacopy\n        /* \"#utility.yul\":1756:1757   */\n      0x00\n        /* \"#utility.yul\":1747:1753   */\n      dup4\n        /* \"#utility.yul\":1742:1745   */\n      dup4\n        /* \"#utility.yul\":1738:1754   */\n      add\n        /* \"#utility.yul\":1731:1758   */\n      mstore\n        /* \"#utility.yul\":1610:1764   */\n      pop\n      pop\n      pop\n      jump\t// out\n        /* \"#utility.yul\":1770:2182   */\n    tag_35:\n        /* \"#utility.yul\":1848:1853   */\n      0x00\n        /* \"#utility.yul\":1873:1939   */\n      tag_66\n        /* \"#utility.yul\":1889:1938   */\n      tag_67\n        /* \"#utility.yul\":1931:1937   */\n      dup5\n        /* \"#utility.yul\":1889:1938   */\n      tag_33\n      jump\t// in\n    tag_67:\n        /* \"#utility.yul\":1873:1939   */\n      tag_32\n      jump\t// in\n    tag_66:\n        /* \"#utility.yul\":1864:1939   */\n      swap1\n      pop\n        /* \"#utility.yul\":1962:1968   */\n      dup3\n        /* \"#utility.yul\":1955:1960   */\n      dup2\n        /* \"#utility.yul\":1948:1969   */\n      mstore\n        /* \"#utility.yul\":2000:2004   */\n      0x20\n        /* \"#utility.yul\":1993:1998   */\n      dup2\n        /* \"#utility.yul\":1989:2005   */\n      add\n        /* \"#utility.yul\":2038:2041   */\n      dup5\n        /* \"#utility.yul\":2029:2035   */\n      dup5\n        /* \"#utility.yul\":2024:2027   */\n      dup5\n        /* \"#utility.yul\":2020:2036   */\n      add\n        /* \"#utility.yul\":2017:2042   */\n      gt\n        /* \"#utility.yul\":2014:2126   */\n      iszero\n      tag_68\n      jumpi\n        /* \"#utility.yul\":2045:2124   */\n      tag_69\n      tag_28\n      jump\t// in\n    tag_69:\n        /* \"#utility.yul\":2014:2126   */\n    tag_68:\n        /* \"#utility.yul\":2135:2176   */\n      tag_70\n        /* \"#utility.yul\":2169:2175   */\n      dup5\n        /* \"#utility.yul\":2164:2167   */\n      dup3\n        /* \"#utility.yul\":2159:2162   */\n      dup6\n        /* \"#utility.yul\":2135:2176   */\n      tag_34\n      jump\t// in\n    tag_70:\n        /* \"#utility.yul\":1854:2182   */\n      pop\n        /* \"#utility.yul\":1770:2182   */\n      swap4\n      swap3\n      pop\n      pop\n      pop\n      jump\t// out\n        /* \"#utility.yul\":2202:2542   */\n    tag_36:\n        /* \"#utility.yul\":2258:2263   */\n      0x00\n        /* \"#utility.yul\":2307:2310   */\n      dup3\n        /* \"#utility.yul\":2300:2304   */\n      0x1f\n        /* \"#utility.yul\":2292:2298   */\n      dup4\n        /* \"#utility.yul\":2288:2305   */\n      add\n        /* \"#utility.yul\":2284:2311   */\n      slt\n        /* \"#utility.yul\":2274:2396   */\n      tag_72\n      jumpi\n        /* \"#utility.yul\":2315:2394   */\n      tag_73\n      tag_27\n      jump\t// in\n    tag_73:\n        /* \"#utility.yul\":2274:2396   */\n    tag_72:\n        /* \"#utility.yul\":2432:2438   */\n      dup2\n        /* \"#utility.yul\":2419:2439   */\n      calldataload\n        /* \"#utility.yul\":2457:2536   */\n      tag_74\n        /* \"#utility.yul\":2532:2535   */\n      dup5\n        /* \"#utility.yul\":2524:2530   */\n      dup3\n        /* \"#utility.yul\":2517:2521   */\n      0x20\n        /* \"#utility.yul\":2509:2515   */\n      dup7\n        /* \"#utility.yul\":2505:2522   */\n      add\n        /* \"#utility.yul\":2457:2536   */\n      tag_35\n      jump\t// in\n    tag_74:\n        /* \"#utility.yul\":2448:2536   */\n      swap2\n      pop\n        /* \"#utility.yul\":2264:2542   */\n      pop\n        /* \"#utility.yul\":2202:2542   */\n      swap3\n      swap2\n      pop\n      pop\n      jump\t// out\n        /* \"#utility.yul\":2548:3057   */\n    tag_8:\n        /* \"#utility.yul\":2617:2623   */\n      0x00\n        /* \"#utility.yul\":2666:2668   */\n      0x20\n        /* \"#utility.yul\":2654:2663   */\n      dup3\n        /* \"#utility.yul\":2645:2652   */\n      dup5\n        /* \"#utility.yul\":2641:2664   */\n      sub\n        /* \"#utility.yul\":2637:2669   */\n      slt\n        /* \"#utility.yul\":2634:2753   */\n      iszero\n      tag_76\n      jumpi\n        /* \"#utility.yul\":2672:2751   */\n      tag_77\n      tag_25\n      jump\t// in\n    tag_77:\n        /* \"#utility.yul\":2634:2753   */\n    tag_76:\n        /* \"#utility.yul\":2820:2821   */\n      0x00\n        /* \"#utility.yul\":2809:2818   */\n      dup3\n        /* \"#utility.yul\":2805:2822   */\n      add\n        /* \"#utility.yul\":2792:2823   */\n      calldataload\n        /* \"#utility.yul\":2850:2868   */\n      0xffffffffffffffff\n        /* \"#utility.yul\":2842:2848   */\n      dup2\n        /* \"#utility.yul\":2839:2869   */\n      gt\n        /* \"#utility.yul\":2836:2953   */\n      iszero\n      tag_78\n      jumpi\n        /* \"#utility.yul\":2872:2951   */\n      tag_79\n      tag_26\n      jump\t// in\n    tag_79:\n        /* \"#utility.yul\":2836:2953   */\n    tag_78:\n        /* \"#utility.yul\":2977:3040   */\n      tag_80\n        /* \"#utility.yul\":3032:3039   */\n      dup5\n        /* \"#utility.yul\":3023:3029   */\n      dup3\n        /* \"#utility.yul\":3012:3021   */\n      dup6\n        /* \"#utility.yul\":3008:3030   */\n      add\n        /* \"#utility.yul\":2977:3040   */\n      tag_36\n      jump\t// in\n    tag_80:\n        /* \"#utility.yul\":2967:3040   */\n      swap2\n      pop\n        /* \"#utility.yul\":2763:3050   */\n      pop\n        /* \"#utility.yul\":2548:3057   */\n      swap3\n      swap2\n      pop\n      pop\n      jump\t// out\n        /* \"#utility.yul\":3063:3140   */\n    tag_37:\n        /* \"#utility.yul\":3100:3107   */\n      0x00\n        /* \"#utility.yul\":3129:3134   */\n      dup2\n        /* \"#utility.yul\":3118:3134   */\n      swap1\n      pop\n        /* \"#utility.yul\":3063:3140   */\n      swap2\n      swap1\n      pop\n      jump\t// out\n        /* \"#utility.yul\":3146:3264   */\n    tag_38:\n        /* \"#utility.yul\":3233:3257   */\n      tag_83\n        /* \"#utility.yul\":3251:3256   */\n      dup2\n        /* \"#utility.yul\":3233:3257   */\n      tag_37\n      jump\t// in\n    tag_83:\n        /* \"#utility.yul\":3228:3231   */\n      dup3\n        /* \"#utility.yul\":3221:3258   */\n      mstore\n        /* \"#utility.yul\":3146:3264   */\n      pop\n      pop\n      jump\t// out\n        /* \"#utility.yul\":3270:3492   */\n    tag_13:\n        /* \"#utility.yul\":3363:3367   */\n      0x00\n        /* \"#utility.yul\":3401:3403   */\n      0x20\n        /* \"#utility.yul\":3390:3399   */\n      dup3\n        /* \"#utility.yul\":3386:3404   */\n      add\n        /* \"#utility.yul\":3378:3404   */\n      swap1\n      pop\n        /* \"#utility.yul\":3414:3485   */\n      tag_85\n        /* \"#utility.yul\":3482:3483   */\n      0x00\n        /* \"#utility.yul\":3471:3480   */\n      dup4\n        /* \"#utility.yul\":3467:3484   */\n      add\n        /* \"#utility.yul\":3458:3464   */\n      dup5\n        /* \"#utility.yul\":3414:3485   */\n      tag_38\n      jump\t// in\n    tag_85:\n        /* \"#utility.yul\":3270:3492   */\n      swap3\n      swap2\n      pop\n      pop\n      jump\t// out\n        /* \"#utility.yul\":3498:3620   */\n    tag_39:\n        /* \"#utility.yul\":3571:3595   */\n      tag_87\n        /* \"#utility.yul\":3589:3594   */\n      dup2\n        /* \"#utility.yul\":3571:3595   */\n      tag_37\n      jump\t// in\n    tag_87:\n        /* \"#utility.yul\":3564:3569   */\n      dup2\n        /* \"#utility.yul\":3561:3596   */\n      eq\n        /* \"#utility.yul\":3551:3614   */\n      tag_88\n      jumpi\n        /* \"#utility.yul\":3610:3611   */\n      0x00\n        /* \"#utility.yul\":3607:3608   */\n      dup1\n        /* \"#utility.yul\":3600:3612   */\n      revert\n        /* \"#utility.yul\":3551:3614   */\n    tag_88:\n        /* \"#utility.yul\":3498:3620   */\n      pop\n      jump\t// out\n        /* \"#utility.yul\":3626:3765   */\n    tag_40:\n        /* \"#utility.yul\":3672:3677   */\n      0x00\n        /* \"#utility.yul\":3710:3716   */\n      dup2\n        /* \"#utility.yul\":3697:3717   */\n      calldataload\n        /* \"#utility.yul\":3688:3717   */\n      swap1\n      pop\n        /* \"#utility.yul\":3726:3759   */\n      tag_90\n        /* \"#utility.yul\":3753:3758   */\n      dup2\n        /* \"#utility.yul\":3726:3759   */\n      tag_39\n      jump\t// in\n    tag_90:\n        /* \"#utility.yul\":3626:3765   */\n      swap3\n      swap2\n      pop\n      pop\n      jump\t// out\n        /* \"#utility.yul\":3771:4245   */\n    tag_16:\n        /* \"#utility.yul\":3839:3845   */\n      0x00\n        /* \"#utility.yul\":3847:3853   */\n      dup1\n        /* \"#utility.yul\":3896:3898   */\n      0x40\n        /* \"#utility.yul\":3884:3893   */\n      dup4\n        /* \"#utility.yul\":3875:3882   */\n      dup6\n        /* \"#utility.yul\":3871:3894   */\n      sub\n        /* \"#utility.yul\":3867:3899   */\n      slt\n        /* \"#utility.yul\":3864:3983   */\n      iszero\n      tag_92\n      jumpi\n        /* \"#utility.yul\":3902:3981   */\n      tag_93\n      tag_25\n      jump\t// in\n    tag_93:\n        /* \"#utility.yul\":3864:3983   */\n    tag_92:\n        /* \"#utility.yul\":4022:4023   */\n      0x00\n        /* \"#utility.yul\":4047:4100   */\n      tag_94\n        /* \"#utility.yul\":4092:4099   */\n      dup6\n        /* \"#utility.yul\":4083:4089   */\n      dup3\n        /* \"#utility.yul\":4072:4081   */\n      dup7\n        /* \"#utility.yul\":4068:4090   */\n      add\n        /* \"#utility.yul\":4047:4100   */\n      tag_40\n      jump\t// in\n    tag_94:\n        /* \"#utility.yul\":4037:4100   */\n      swap3\n      pop\n        /* \"#utility.yul\":3993:4110   */\n      pop\n        /* \"#utility.yul\":4149:4151   */\n      0x20\n        /* \"#utility.yul\":4175:4228   */\n      tag_95\n        /* \"#utility.yul\":4220:4227   */\n      dup6\n        /* \"#utility.yul\":4211:4217   */\n      dup3\n        /* \"#utility.yul\":4200:4209   */\n      dup7\n        /* \"#utility.yul\":4196:4218   */\n      add\n        /* \"#utility.yul\":4175:4228   */\n      tag_40\n      jump\t// in\n    tag_95:\n        /* \"#utility.yul\":4165:4228   */\n      swap2\n      pop\n        /* \"#utility.yul\":4120:4238   */\n      pop\n        /* \"#utility.yul\":3771:4245   */\n      swap3\n      pop\n      swap3\n      swap1\n      pop\n      jump\t// out\n        /* \"#utility.yul\":4251:4377   */\n    tag_41:\n        /* \"#utility.yul\":4288:4295   */\n      0x00\n        /* \"#utility.yul\":4328:4370   */\n      0xffffffffffffffffffffffffffffffffffffffff\n        /* \"#utility.yul\":4321:4326   */\n      dup3\n        /* \"#utility.yul\":4317:4371   */\n      and\n        /* \"#utility.yul\":4306:4371   */\n      swap1\n      pop\n        /* \"#utility.yul\":4251:4377   */\n      swap2\n      swap1\n      pop\n      jump\t// out\n        /* \"#utility.yul\":4383:4479   */\n    tag_42:\n        /* \"#utility.yul\":4420:4427   */\n      0x00\n        /* \"#utility.yul\":4449:4473   */\n      tag_98\n        /* \"#utility.yul\":4467:4472   */\n      dup3\n        /* \"#utility.yul\":4449:4473   */\n      tag_41\n      jump\t// in\n    tag_98:\n        /* \"#utility.yul\":4438:4473   */\n      swap1\n      pop\n        /* \"#utility.yul\":4383:4479   */\n      swap2\n      swap1\n      pop\n      jump\t// out\n        /* \"#utility.yul\":4485:4603   */\n    tag_43:\n        /* \"#utility.yul\":4572:4596   */\n      tag_100\n        /* \"#utility.yul\":4590:4595   */\n      dup2\n        /* \"#utility.yul\":4572:4596   */\n      tag_42\n      jump\t// in\n    tag_100:\n        /* \"#utility.yul\":4567:4570   */\n      dup3\n        /* \"#utility.yul\":4560:4597   */\n      mstore\n        /* \"#utility.yul\":4485:4603   */\n      pop\n      pop\n      jump\t// out\n        /* \"#utility.yul\":4609:5162   */\n    tag_21:\n        /* \"#utility.yul\":4786:4790   */\n      0x00\n        /* \"#utility.yul\":4824:4827   */\n      0x80\n        /* \"#utility.yul\":4813:4822   */\n      dup3\n        /* \"#utility.yul\":4809:4828   */\n      add\n        /* \"#utility.yul\":4801:4828   */\n      swap1\n      pop\n        /* \"#utility.yul\":4838:4909   */\n      tag_102\n        /* \"#utility.yul\":4906:4907   */\n      0x00\n        /* \"#utility.yul\":4895:4904   */\n      dup4\n        /* \"#utility.yul\":4891:4908   */\n      add\n        /* \"#utility.yul\":4882:4888   */\n      dup8\n        /* \"#utility.yul\":4838:4909   */\n      tag_43\n      jump\t// in\n    tag_102:\n        /* \"#utility.yul\":4919:4991   */\n      tag_103\n        /* \"#utility.yul\":4987:4989   */\n      0x20\n        /* \"#utility.yul\":4976:4985   */\n      dup4\n        /* \"#utility.yul\":4972:4990   */\n      add\n        /* \"#utility.yul\":4963:4969   */\n      dup7\n        /* \"#utility.yul\":4919:4991   */\n      tag_43\n      jump\t// in\n    tag_103:\n        /* \"#utility.yul\":5001:5073   */\n      tag_104\n        /* \"#utility.yul\":5069:5071   */\n      0x40\n        /* \"#utility.yul\":5058:5067   */\n      dup4\n        /* \"#utility.yul\":5054:5072   */\n      add\n        /* \"#utility.yul\":5045:5051   */\n      dup6\n        /* \"#utility.yul\":5001:5073   */\n      tag_38\n      jump\t// in\n    tag_104:\n        /* \"#utility.yul\":5083:5155   */\n      tag_105\n        /* \"#utility.yul\":5151:5153   */\n      0x60\n        /* \"#utility.yul\":5140:5149   */\n      dup4\n        /* \"#utility.yul\":5136:5154   */\n      add\n        /* \"#utility.yul\":5127:5133   */\n      dup5\n        /* \"#utility.yul\":5083:5155   */\n      tag_38\n      jump\t// in\n    tag_105:\n        /* \"#utility.yul\":4609:5162   */\n      swap6\n      swap5\n      pop\n      pop\n      pop\n      pop\n      pop\n      jump\t// out\n        /* \"#utility.yul\":5168:5348   */\n    tag_44:\n        /* \"#utility.yul\":5216:5293   */\n      0x4e487b7100000000000000000000000000000000000000000000000000000000\n        /* \"#utility.yul\":5213:5214   */\n      0x00\n        /* \"#utility.yul\":5206:5294   */\n      mstore\n        /* \"#utility.yul\":5313:5317   */\n      0x11\n        /* \"#utility.yul\":5310:5311   */\n      0x04\n        /* \"#utility.yul\":5303:5318   */\n      mstore\n        /* \"#utility.yul\":5337:5341   */\n      0x24\n        /* \"#utility.yul\":5334:5335   */\n      0x00\n        /* \"#utility.yul\":5327:5342   */\n      revert\n        /* \"#utility.yul\":5354:5659   */\n    tag_23:\n        /* \"#utility.yul\":5394:5397   */\n      0x00\n        /* \"#utility.yul\":5413:5433   */\n      tag_108\n        /* \"#utility.yul\":5431:5432   */\n      dup3\n        /* \"#utility.yul\":5413:5433   */\n      tag_37\n      jump\t// in\n    tag_108:\n        /* \"#utility.yul\":5408:5433   */\n      swap2\n      pop\n        /* \"#utility.yul\":5447:5467   */\n      tag_109\n        /* \"#utility.yul\":5465:5466   */\n      dup4\n        /* \"#utility.yul\":5447:5467   */\n      tag_37\n      jump\t// in\n    tag_109:\n        /* \"#utility.yul\":5442:5467   */\n      swap3\n      pop\n        /* \"#utility.yul\":5601:5602   */\n      dup3\n        /* \"#utility.yul\":5533:5599   */\n      0xffffffffffffffffffffffffffffffffffffffffffffffffffffffffffffffff\n        /* \"#utility.yul\":5529:5603   */\n      sub\n        /* \"#utility.yul\":5526:5527   */\n      dup3\n        /* \"#utility.yul\":5523:5604   */\n      gt\n        /* \"#utility.yul\":5520:5627   */\n      iszero\n      tag_110\n      jumpi\n        /* \"#utility.yul\":5607:5625   */\n      tag_111\n      tag_44\n      jump\t// in\n    tag_111:\n        /* \"#utility.yul\":5520:5627   */\n    tag_110:\n        /* \"#utility.yul\":5651:5652   */\n      dup3\n        /* \"#utility.yul\":5648:5649   */\n      dup3\n        /* \"#utility.yul\":5644:5653   */\n      add\n        /* \"#utility.yul\":5637:5653   */\n      swap1\n      pop\n        /* \"#utility.yul\":5354:5659   */\n      swap3\n      swap2\n      pop\n      pop\n      jump\t// out\n\n    auxdata: 0xa2646970667358221220a69d2be06c168bf08ff841b4aa8f3e1b604e2ee8c5dd69bba8aec418b2fc812e64736f6c634300080f0033\n}\n",
				"bytecode": {
					"linkReferences": {},
					"object": "60806040526000805534801561001457600080fd5b5061047c806100246000396000f3fe608060405234801561001057600080fd5b50600436106100415760003560e01c80630bb563d6146100465780633fa4f245146100625780636a19e6de14610080575b600080fd5b610060600480360381019061005b9190610252565b61009c565b005b61006a61009f565b60405161007791906102b4565b60405180910390f35b61009a600480360381019061009591906102fb565b6100a5565b005b50565b60005481565b7f1aea5ca8758563c9bc60ccb9317e70c09500e291145eef6aa3b15de85a776fe3303384846040516100da949392919061037c565b60405180910390a180826100ee91906103f0565b6000819055505050565b6000604051905090565b600080fd5b600080fd5b600080fd5b600080fd5b6000601f19601f8301169050919050565b7f4e487b7100000000000000000000000000000000000000000000000000000000600052604160045260246000fd5b61015f82610116565b810181811067ffffffffffffffff8211171561017e5761017d610127565b5b80604052505050565b60006101916100f8565b905061019d8282610156565b919050565b600067ffffffffffffffff8211156101bd576101bc610127565b5b6101c682610116565b9050602081019050919050565b82818337600083830152505050565b60006101f56101f0846101a2565b610187565b90508281526020810184848401111561021157610210610111565b5b61021c8482856101d3565b509392505050565b600082601f8301126102395761023861010c565b5b81356102498482602086016101e2565b91505092915050565b60006020828403121561026857610267610102565b5b600082013567ffffffffffffffff81111561028657610285610107565b5b61029284828501610224565b91505092915050565b6000819050919050565b6102ae8161029b565b82525050565b60006020820190506102c960008301846102a5565b92915050565b6102d88161029b565b81146102e357600080fd5b50565b6000813590506102f5816102cf565b92915050565b6000806040838503121561031257610311610102565b5b6000610320858286016102e6565b9250506020610331858286016102e6565b9150509250929050565b600073ffffffffffffffffffffffffffffffffffffffff82169050919050565b60006103668261033b565b9050919050565b6103768161035b565b82525050565b6000608082019050610391600083018761036d565b61039e602083018661036d565b6103ab60408301856102a5565b6103b860608301846102a5565b95945050505050565b7f4e487b7100000000000000000000000000000000000000000000000000000000600052601160045260246000fd5b60006103fb8261029b565b91506104068361029b565b9250827fffffffffffffffffffffffffffffffffffffffffffffffffffffffffffffffff0382111561043b5761043a6103c1565b5b82820190509291505056fea2646970667358221220a69d2be06c168bf08ff841b4aa8f3e1b604e2ee8c5dd69bba8aec418b2fc812e64736f6c634300080f0033",
					"opcodes": "PUSH1 0x80 PUSH1 0x40 MSTORE PUSH1 0x0 DUP1 SSTORE CALLVALUE DUP1 ISZERO PUSH2 0x14 JUMPI PUSH1 0x0 DUP1 REVERT JUMPDEST POP PUSH2 0x47C DUP1 PUSH2 0x24 PUSH1 0x0 CODECOPY PUSH1 0x0 RETURN INVALID PUSH1 0x80 PUSH1 0x40 MSTORE CALLVALUE DUP1 ISZERO PUSH2 0x10 JUMPI PUSH1 0x0 DUP1 REVERT JUMPDEST POP PUSH1 0x4 CALLDATASIZE LT PUSH2 0x41 JUMPI PUSH1 0x0 CALLDATALOAD PUSH1 0xE0 SHR DUP1 PUSH4 0xBB563D6 EQ PUSH2 0x46 JUMPI DUP1 PUSH4 0x3FA4F245 EQ PUSH2 0x62 JUMPI DUP1 PUSH4 0x6A19E6DE EQ PUSH2 0x80 JUMPI JUMPDEST PUSH1 0x0 DUP1 REVERT JUMPDEST PUSH2 0x60 PUSH1 0x4 DUP1 CALLDATASIZE SUB DUP2 ADD SWAP1 PUSH2 0x5B SWAP2 SWAP1 PUSH2 0x252 JUMP JUMPDEST PUSH2 0x9C JUMP JUMPDEST STOP JUMPDEST PUSH2 0x6A PUSH2 0x9F JUMP JUMPDEST PUSH1 0x40 MLOAD PUSH2 0x77 SWAP2 SWAP1 PUSH2 0x2B4 JUMP JUMPDEST PUSH1 0x40 MLOAD DUP1 SWAP2 SUB SWAP1 RETURN JUMPDEST PUSH2 0x9A PUSH1 0x4 DUP1 CALLDATASIZE SUB DUP2 ADD SWAP1 PUSH2 0x95 SWAP2 SWAP1 PUSH2 0x2FB JUMP JUMPDEST PUSH2 0xA5 JUMP JUMPDEST STOP JUMPDEST POP JUMP JUMPDEST PUSH1 0x0 SLOAD DUP2 JUMP JUMPDEST PUSH32 0x1AEA5CA8758563C9BC60CCB9317E70C09500E291145EEF6AA3B15DE85A776FE3 ADDRESS CALLER DUP5 DUP5 PUSH1 0x40 MLOAD PUSH2 0xDA SWAP5 SWAP4 SWAP3 SWAP2 SWAP1 PUSH2 0x37C JUMP JUMPDEST PUSH1 0x40 MLOAD DUP1 SWAP2 SUB SWAP1 LOG1 DUP1 DUP3 PUSH2 0xEE SWAP2 SWAP1 PUSH2 0x3F0 JUMP JUMPDEST PUSH1 0x0 DUP2 SWAP1 SSTORE POP POP POP JUMP JUMPDEST PUSH1 0x0 PUSH1 0x40 MLOAD SWAP1 POP SWAP1 JUMP JUMPDEST PUSH1 0x0 DUP1 REVERT JUMPDEST PUSH1 0x0 DUP1 REVERT JUMPDEST PUSH1 0x0 DUP1 REVERT JUMPDEST PUSH1 0x0 DUP1 REVERT JUMPDEST PUSH1 0x0 PUSH1 0x1F NOT PUSH1 0x1F DUP4 ADD AND SWAP1 POP SWAP2 SWAP1 POP JUMP JUMPDEST PUSH32 0x4E487B7100000000000000000000000000000000000000000000000000000000 PUSH1 0x0 MSTORE PUSH1 0x41 PUSH1 0x4 MSTORE PUSH1 0x24 PUSH1 0x0 REVERT JUMPDEST PUSH2 0x15F DUP3 PUSH2 0x116 JUMP JUMPDEST DUP2 ADD DUP2 DUP2 LT PUSH8 0xFFFFFFFFFFFFFFFF DUP3 GT OR ISZERO PUSH2 0x17E JUMPI PUSH2 0x17D PUSH2 0x127 JUMP JUMPDEST JUMPDEST DUP1 PUSH1 0x40 MSTORE POP POP POP JUMP JUMPDEST PUSH1 0x0 PUSH2 0x191 PUSH2 0xF8 JUMP JUMPDEST SWAP1 POP PUSH2 0x19D DUP3 DUP3 PUSH2 0x156 JUMP JUMPDEST SWAP2 SWAP1 POP JUMP JUMPDEST PUSH1 0x0 PUSH8 0xFFFFFFFFFFFFFFFF DUP3 GT ISZERO PUSH2 0x1BD JUMPI PUSH2 0x1BC PUSH2 0x127 JUMP JUMPDEST JUMPDEST PUSH2 0x1C6 DUP3 PUSH2 0x116 JUMP JUMPDEST SWAP1 POP PUSH1 0x20 DUP2 ADD SWAP1 POP SWAP2 SWAP1 POP JUMP JUMPDEST DUP3 DUP2 DUP4 CALLDATACOPY PUSH1 0x0 DUP4 DUP4 ADD MSTORE POP POP POP JUMP JUMPDEST PUSH1 0x0 PUSH2 0x1F5 PUSH2 0x1F0 DUP5 PUSH2 0x1A2 JUMP JUMPDEST PUSH2 0x187 JUMP JUMPDEST SWAP1 POP DUP3 DUP2 MSTORE PUSH1 0x20 DUP2 ADD DUP5 DUP5 DUP5 ADD GT ISZERO PUSH2 0x211 JUMPI PUSH2 0x210 PUSH2 0x111 JUMP JUMPDEST JUMPDEST PUSH2 0x21C DUP5 DUP3 DUP6 PUSH2 0x1D3 JUMP JUMPDEST POP SWAP4 SWAP3 POP POP POP JUMP JUMPDEST PUSH1 0x0 DUP3 PUSH1 0x1F DUP4 ADD SLT PUSH2 0x239 JUMPI PUSH2 0x238 PUSH2 0x10C JUMP JUMPDEST JUMPDEST DUP2 CALLDATALOAD PUSH2 0x249 DUP5 DUP3 PUSH1 0x20 DUP7 ADD PUSH2 0x1E2 JUMP JUMPDEST SWAP2 POP POP SWAP3 SWAP2 POP POP JUMP JUMPDEST PUSH1 0x0 PUSH1 0x20 DUP3 DUP5 SUB SLT ISZERO PUSH2 0x268 JUMPI PUSH2 0x267 PUSH2 0x102 JUMP JUMPDEST JUMPDEST PUSH1 0x0 DUP3 ADD CALLDATALOAD PUSH8 0xFFFFFFFFFFFFFFFF DUP2 GT ISZERO PUSH2 0x286 JUMPI PUSH2 0x285 PUSH2 0x107 JUMP JUMPDEST JUMPDEST PUSH2 0x292 DUP5 DUP3 DUP6 ADD PUSH2 0x224 JUMP JUMPDEST SWAP2 POP POP SWAP3 SWAP2 POP POP JUMP JUMPDEST PUSH1 0x0 DUP2 SWAP1 POP SWAP2 SWAP1 POP JUMP JUMPDEST PUSH2 0x2AE DUP2 PUSH2 0x29B JUMP JUMPDEST DUP3 MSTORE POP POP JUMP JUMPDEST PUSH1 0x0 PUSH1 0x20 DUP3 ADD SWAP1 POP PUSH2 0x2C9 PUSH1 0x0 DUP4 ADD DUP5 PUSH2 0x2A5 JUMP JUMPDEST SWAP3 SWAP2 POP POP JUMP JUMPDEST PUSH2 0x2D8 DUP2 PUSH2 0x29B JUMP JUMPDEST DUP2 EQ PUSH2 0x2E3 JUMPI PUSH1 0x0 DUP1 REVERT JUMPDEST POP JUMP JUMPDEST PUSH1 0x0 DUP2 CALLDATALOAD SWAP1 POP PUSH2 0x2F5 DUP2 PUSH2 0x2CF JUMP JUMPDEST SWAP3 SWAP2 POP POP JUMP JUMPDEST PUSH1 0x0 DUP1 PUSH1 0x40 DUP4 DUP6 SUB SLT ISZERO PUSH2 0x312 JUMPI PUSH2 0x311 PUSH2 0x102 JUMP JUMPDEST JUMPDEST PUSH1 0x0 PUSH2 0x320 DUP6 DUP3 DUP7 ADD PUSH2 0x2E6 JUMP JUMPDEST SWAP3 POP POP PUSH1 0x20 PUSH2 0x331 DUP6 DUP3 DUP7 ADD PUSH2 0x2E6 JUMP JUMPDEST SWAP2 POP POP SWAP3 POP SWAP3 SWAP1 POP JUMP JUMPDEST PUSH1 0x0 PUSH20 0xFFFFFFFFFFFFFFFFFFFFFFFFFFFFFFFFFFFFFFFF DUP3 AND SWAP1 POP SWAP2 SWAP1 POP JUMP JUMPDEST PUSH1 0x0 PUSH2 0x366 DUP3 PUSH2 0x33B JUMP JUMPDEST SWAP1 POP SWAP2 SWAP1 POP JUMP JUMPDEST PUSH2 0x376 DUP2 PUSH2 0x35B JUMP JUMPDEST DUP3 MSTORE POP POP JUMP JUMPDEST PUSH1 0x0 PUSH1 0x80 DUP3 ADD SWAP1 POP PUSH2 0x391 PUSH1 0x0 DUP4 ADD DUP8 PUSH2 0x36D JUMP JUMPDEST PUSH2 0x39E PUSH1 0x20 DUP4 ADD DUP7 PUSH2 0x36D JUMP JUMPDEST PUSH2 0x3AB PUSH1 0x40 DUP4 ADD DUP6 PUSH2 0x2A5 JUMP JUMPDEST PUSH2 0x3B8 PUSH1 0x60 DUP4 ADD DUP5 PUSH2 0x2A5 JUMP JUMPDEST SWAP6 SWAP5 POP POP POP POP POP JUMP JUMPDEST PUSH32 0x4E487B7100000000000000000000000000000000000000000000000000000000 PUSH1 0x0 MSTORE PUSH1 0x11 PUSH1 0x4 MSTORE PUSH1 0x24 PUSH1 0x0 REVERT JUMPDEST PUSH1 0x0 PUSH2 0x3FB DUP3 PUSH2 0x29B JUMP JUMPDEST SWAP2 POP PUSH2 0x406 DUP4 PUSH2 0x29B JUMP JUMPDEST SWAP3 POP DUP3 PUSH32 0xFFFFFFFFFFFFFFFFFFFFFFFFFFFFFFFFFFFFFFFFFFFFFFFFFFFFFFFFFFFFFFFF SUB DUP3 GT ISZERO PUSH2 0x43B JUMPI PUSH2 0x43A PUSH2 0x3C1 JUMP JUMPDEST JUMPDEST DUP3 DUP3 ADD SWAP1 POP SWAP3 SWAP2 POP POP JUMP INVALID LOG2 PUSH5 0x6970667358 0x22 SLT KECCAK256 0xA6 SWAP14 0x2B 0xE0 PUSH13 0x168BF08FF841B4AA8F3E1B604E 0x2E 0xE8 0xC5 0xDD PUSH10 0xBBA8AEC418B2FC812E64 PUSH20 0x6F6C634300080F00330000000000000000000000 "
				},
				"gasEstimates": {
					"creation": {
						"codeDepositCost": "229600",
						"executionCost": "5275",
						"totalCost": "234875"
					},
					"external": {
						"getValue(uint256,uint256)": "infinite",
						"logString(string)": "infinite",
						"value()": "2429"
					}
				},
				"methodIdentifiers": {
					"getValue(uint256,uint256)": "6a19e6de",
					"logString(string)": "0bb563d6",
					"value()": "3fa4f245"
				}
			},
			"storageLayout": {
				"storage": [
					{
						"astId": 4,
						"contract": "contracts/event.sol:Event",
						"label": "value",
						"offset": 0,
						"slot": "0",
						"type": "t_uint256"
					}
				],
				"types": {
					"t_uint256": {
						"encoding": "inplace",
						"label": "uint256",
						"numberOfBytes": "32"
					}
				}
			},
			"userdoc": {
				"kind": "user",
				"methods": {},
				"version": 1
			}
		}
	}
}