{
	"contracts/workshop.sol": {
		"Workshop": {
			"abi": [
				{
					"inputs": [
						{
							"internalType": "string",
							"name": "_name",
							"type": "string"
						},
						{
							"internalType": "string",
							"name": "_symbol",
							"type": "string"
						},
						{
							"internalType": "uint256",
							"name": "_totalSupply",
							"type": "uint256"
						}
					],
					"stateMutability": "nonpayable",
					"type": "constructor"
				},
				{
					"inputs": [
						{
							"internalType": "address",
							"name": "_account",
							"type": "address"
						}
					],
					"name": "balanceOf",
					"outputs": [
						{
							"internalType": "uint256",
							"name": "",
							"type": "uint256"
						}
					],
					"stateMutability": "view",
					"type": "function"
				},
				{
					"inputs": [],
					"name": "getName",
					"outputs": [
						{
							"internalType": "string",
							"name": "",
							"type": "string"
						}
					],
					"stateMutability": "view",
					"type": "function"
				},
				{
					"inputs": [],
					"name": "getSymbol",
					"outputs": [
						{
							"internalType": "string",
							"name": "",
							"type": "string"
						}
					],
					"stateMutability": "view",
					"type": "function"
				},
				{
					"inputs": [],
					"name": "getTotalSupply",
					"outputs": [
						{
							"internalType": "uint256",
							"name": "",
							"type": "uint256"
						}
					],
					"stateMutability": "view",
					"type": "function"
				},
				{
					"inputs": [
						{
							"internalType": "address",
							"name": "_addr",
							"type": "address"
						}
					],
					"name": "getWalletName",
					"outputs": [
						{
							"internalType": "string",
							"name": "",
							"type": "string"
						}
					],
					"stateMutability": "view",
					"type": "function"
				},
				{
					"inputs": [
						{
							"internalType": "string",
							"name": "_name",
							"type": "string"
						}
					],
					"name": "setMyWalletName",
					"outputs": [],
					"stateMutability": "nonpayable",
					"type": "function"
				},
				{
					"inputs": [
						{
							"internalType": "address",
							"name": "_to",
							"type": "address"
						},
						{
							"internalType": "uint256",
							"name": "amount",
							"type": "uint256"
						}
					],
					"name": "transfer",
					"outputs": [],
					"stateMutability": "nonpayable",
					"type": "function"
				}
			],
			"devdoc": {
				"kind": "dev",
				"methods": {},
				"version": 1
			},
			"evm": {
				"assembly": "    /* \"contracts/workshop.sol\":58:1567  contract Workshop {... */\n  mstore(0x40, 0x80)\n    /* \"contracts/workshop.sol\":265:479  constructor(string memory _name, string memory _symbol, uint256 _totalSupply) {... */\n  callvalue\n  dup1\n  iszero\n  tag_1\n  jumpi\n  0x00\n  dup1\n  revert\ntag_1:\n  pop\n  mload(0x40)\n  sub(codesize, bytecodeSize)\n  dup1\n  bytecodeSize\n  dup4\n  codecopy\n  dup2\n  dup2\n  add\n  0x40\n  mstore\n  dup2\n  add\n  swap1\n  tag_2\n  swap2\n  swap1\n  tag_3\n  jump\t// in\ntag_2:\n    /* \"contracts/workshop.sol\":360:365  _name */\n  dup3\n    /* \"contracts/workshop.sol\":353:357  name */\n  0x02\n    /* \"contracts/workshop.sol\":353:365  name = _name */\n  swap1\n  dup1\n  mload\n  swap1\n  0x20\n  add\n  swap1\n  tag_6\n  swap3\n  swap2\n  swap1\n  tag_7\n  jump\t// in\ntag_6:\n  pop\n    /* \"contracts/workshop.sol\":384:391  _symbol */\n  dup2\n    /* \"contracts/workshop.sol\":375:381  symbol */\n  0x03\n    /* \"contracts/workshop.sol\":375:391  symbol = _symbol */\n  swap1\n  dup1\n  mload\n  swap1\n  0x20\n  add\n  swap1\n  tag_8\n  swap3\n  swap2\n  swap1\n  tag_7\n  jump\t// in\ntag_8:\n  pop\n    /* \"contracts/workshop.sol\":415:427  _totalSupply */\n  dup1\n    /* \"contracts/workshop.sol\":401:412  totalSupply */\n  0x04\n    /* \"contracts/workshop.sol\":401:427  totalSupply = _totalSupply */\n  dup2\n  swap1\n  sstore\n  pop\n    /* \"contracts/workshop.sol\":460:472  _totalSupply */\n  dup1\n    /* \"contracts/workshop.sol\":437:445  balances */\n  0x00\n    /* \"contracts/workshop.sol\":437:457  balances[msg.sender] */\n  dup1\n    /* \"contracts/workshop.sol\":446:456  msg.sender */\n  caller\n    /* \"contracts/workshop.sol\":437:457  balances[msg.sender] */\n  0xffffffffffffffffffffffffffffffffffffffff\n  and\n  0xffffffffffffffffffffffffffffffffffffffff\n  and\n  dup2\n  mstore\n  0x20\n  add\n  swap1\n  dup2\n  mstore\n  0x20\n  add\n  0x00\n  keccak256\n    /* \"contracts/workshop.sol\":437:472  balances[msg.sender] = _totalSupply */\n  dup2\n  swap1\n  sstore\n  pop\n    /* \"contracts/workshop.sol\":265:479  constructor(string memory _name, string memory _symbol, uint256 _totalSupply) {... */\n  pop\n  pop\n  pop\n    /* \"contracts/workshop.sol\":58:1567  contract Workshop {... */\n  jump(tag_9)\ntag_7:\n  dup3\n  dup1\n  sload\n  tag_10\n  swap1\n  tag_11\n  jump\t// in\ntag_10:\n  swap1\n  0x00\n  mstore\n  keccak256(0x00, 0x20)\n  swap1\n  0x1f\n  add\n  0x20\n  swap1\n  div\n  dup2\n  add\n  swap3\n  dup3\n  tag_13\n  jumpi\n  0x00\n  dup6\n  sstore\n  jump(tag_12)\ntag_13:\n  dup3\n  0x1f\n  lt\n  tag_14\n  jumpi\n  dup1\n  mload\n  not(0xff)\n  and\n  dup4\n  dup1\n  add\n  or\n  dup6\n  sstore\n  jump(tag_12)\ntag_14:\n  dup3\n  dup1\n  add\n  0x01\n  add\n  dup6\n  sstore\n  dup3\n  iszero\n  tag_12\n  jumpi\n  swap2\n  dup3\n  add\ntag_15:\n  dup3\n  dup2\n  gt\n  iszero\n  tag_16\n  jumpi\n  dup3\n  mload\n  dup3\n  sstore\n  swap2\n  0x20\n  add\n  swap2\n  swap1\n  0x01\n  add\n  swap1\n  jump(tag_15)\ntag_16:\ntag_12:\n  pop\n  swap1\n  pop\n  tag_17\n  swap2\n  swap1\n  tag_18\n  jump\t// in\ntag_17:\n  pop\n  swap1\n  jump\t// out\ntag_18:\ntag_19:\n  dup1\n  dup3\n  gt\n  iszero\n  tag_20\n  jumpi\n  0x00\n  dup2\n  0x00\n  swap1\n  sstore\n  pop\n  0x01\n  add\n  jump(tag_19)\ntag_20:\n  pop\n  swap1\n  jump\t// out\n    /* \"#utility.yul\":7:82   */\ntag_21:\n    /* \"#utility.yul\":40:46   */\n  0x00\n    /* \"#utility.yul\":73:75   */\n  0x40\n    /* \"#utility.yul\":67:76   */\n  mload\n    /* \"#utility.yul\":57:76   */\n  swap1\n  pop\n    /* \"#utility.yul\":7:82   */\n  swap1\n  jump\t// out\n    /* \"#utility.yul\":88:205   */\ntag_22:\n    /* \"#utility.yul\":197:198   */\n  0x00\n    /* \"#utility.yul\":194:195   */\n  dup1\n    /* \"#utility.yul\":187:199   */\n  revert\n    /* \"#utility.yul\":211:328   */\ntag_23:\n    /* \"#utility.yul\":320:321   */\n  0x00\n    /* \"#utility.yul\":317:318   */\n  dup1\n    /* \"#utility.yul\":310:322   */\n  revert\n    /* \"#utility.yul\":334:451   */\ntag_24:\n    /* \"#utility.yul\":443:444   */\n  0x00\n    /* \"#utility.yul\":440:441   */\n  dup1\n    /* \"#utility.yul\":433:445   */\n  revert\n    /* \"#utility.yul\":457:574   */\ntag_25:\n    /* \"#utility.yul\":566:567   */\n  0x00\n    /* \"#utility.yul\":563:564   */\n  dup1\n    /* \"#utility.yul\":556:568   */\n  revert\n    /* \"#utility.yul\":580:682   */\ntag_26:\n    /* \"#utility.yul\":621:627   */\n  0x00\n    /* \"#utility.yul\":672:674   */\n  0x1f\n    /* \"#utility.yul\":668:675   */\n  not\n    /* \"#utility.yul\":663:665   */\n  0x1f\n    /* \"#utility.yul\":656:661   */\n  dup4\n    /* \"#utility.yul\":652:666   */\n  add\n    /* \"#utility.yul\":648:676   */\n  and\n    /* \"#utility.yul\":638:676   */\n  swap1\n  pop\n    /* \"#utility.yul\":580:682   */\n  swap2\n  swap1\n  pop\n  jump\t// out\n    /* \"#utility.yul\":688:868   */\ntag_27:\n    /* \"#utility.yul\":736:813   */\n  0x4e487b7100000000000000000000000000000000000000000000000000000000\n    /* \"#utility.yul\":733:734   */\n  0x00\n    /* \"#utility.yul\":726:814   */\n  mstore\n    /* \"#utility.yul\":833:837   */\n  0x41\n    /* \"#utility.yul\":830:831   */\n  0x04\n    /* \"#utility.yul\":823:838   */\n  mstore\n    /* \"#utility.yul\":857:861   */\n  0x24\n    /* \"#utility.yul\":854:855   */\n  0x00\n    /* \"#utility.yul\":847:862   */\n  revert\n    /* \"#utility.yul\":874:1155   */\ntag_28:\n    /* \"#utility.yul\":957:984   */\n  tag_47\n    /* \"#utility.yul\":979:983   */\n  dup3\n    /* \"#utility.yul\":957:984   */\n  tag_26\n  jump\t// in\ntag_47:\n    /* \"#utility.yul\":949:955   */\n  dup2\n    /* \"#utility.yul\":945:985   */\n  add\n    /* \"#utility.yul\":1087:1093   */\n  dup2\n    /* \"#utility.yul\":1075:1085   */\n  dup2\n    /* \"#utility.yul\":1072:1094   */\n  lt\n    /* \"#utility.yul\":1051:1069   */\n  0xffffffffffffffff\n    /* \"#utility.yul\":1039:1049   */\n  dup3\n    /* \"#utility.yul\":1036:1070   */\n  gt\n    /* \"#utility.yul\":1033:1095   */\n  or\n    /* \"#utility.yul\":1030:1118   */\n  iszero\n  tag_48\n  jumpi\n    /* \"#utility.yul\":1098:1116   */\n  tag_49\n  tag_27\n  jump\t// in\ntag_49:\n    /* \"#utility.yul\":1030:1118   */\ntag_48:\n    /* \"#utility.yul\":1138:1148   */\n  dup1\n    /* \"#utility.yul\":1134:1136   */\n  0x40\n    /* \"#utility.yul\":1127:1149   */\n  mstore\n    /* \"#utility.yul\":917:1155   */\n  pop\n    /* \"#utility.yul\":874:1155   */\n  pop\n  pop\n  jump\t// out\n    /* \"#utility.yul\":1161:1290   */\ntag_29:\n    /* \"#utility.yul\":1195:1201   */\n  0x00\n    /* \"#utility.yul\":1222:1242   */\n  tag_51\n  tag_21\n  jump\t// in\ntag_51:\n    /* \"#utility.yul\":1212:1242   */\n  swap1\n  pop\n    /* \"#utility.yul\":1251:1284   */\n  tag_52\n    /* \"#utility.yul\":1279:1283   */\n  dup3\n    /* \"#utility.yul\":1271:1277   */\n  dup3\n    /* \"#utility.yul\":1251:1284   */\n  tag_28\n  jump\t// in\ntag_52:\n    /* \"#utility.yul\":1161:1290   */\n  swap2\n  swap1\n  pop\n  jump\t// out\n    /* \"#utility.yul\":1296:1604   */\ntag_30:\n    /* \"#utility.yul\":1358:1362   */\n  0x00\n    /* \"#utility.yul\":1448:1466   */\n  0xffffffffffffffff\n    /* \"#utility.yul\":1440:1446   */\n  dup3\n    /* \"#utility.yul\":1437:1467   */\n  gt\n    /* \"#utility.yul\":1434:1490   */\n  iszero\n  tag_54\n  jumpi\n    /* \"#utility.yul\":1470:1488   */\n  tag_55\n  tag_27\n  jump\t// in\ntag_55:\n    /* \"#utility.yul\":1434:1490   */\ntag_54:\n    /* \"#utility.yul\":1508:1537   */\n  tag_56\n    /* \"#utility.yul\":1530:1536   */\n  dup3\n    /* \"#utility.yul\":1508:1537   */\n  tag_26\n  jump\t// in\ntag_56:\n    /* \"#utility.yul\":1500:1537   */\n  swap1\n  pop\n    /* \"#utility.yul\":1592:1596   */\n  0x20\n    /* \"#utility.yul\":1586:1590   */\n  dup2\n    /* \"#utility.yul\":1582:1597   */\n  add\n    /* \"#utility.yul\":1574:1597   */\n  swap1\n  pop\n    /* \"#utility.yul\":1296:1604   */\n  swap2\n  swap1\n  pop\n  jump\t// out\n    /* \"#utility.yul\":1610:1917   */\ntag_31:\n    /* \"#utility.yul\":1678:1679   */\n  0x00\n    /* \"#utility.yul\":1688:1801   */\ntag_58:\n    /* \"#utility.yul\":1702:1708   */\n  dup4\n    /* \"#utility.yul\":1699:1700   */\n  dup2\n    /* \"#utility.yul\":1696:1709   */\n  lt\n    /* \"#utility.yul\":1688:1801   */\n  iszero\n  tag_60\n  jumpi\n    /* \"#utility.yul\":1787:1788   */\n  dup1\n    /* \"#utility.yul\":1782:1785   */\n  dup3\n    /* \"#utility.yul\":1778:1789   */\n  add\n    /* \"#utility.yul\":1772:1790   */\n  mload\n    /* \"#utility.yul\":1768:1769   */\n  dup2\n    /* \"#utility.yul\":1763:1766   */\n  dup5\n    /* \"#utility.yul\":1759:1770   */\n  add\n    /* \"#utility.yul\":1752:1791   */\n  mstore\n    /* \"#utility.yul\":1724:1726   */\n  0x20\n    /* \"#utility.yul\":1721:1722   */\n  dup2\n    /* \"#utility.yul\":1717:1727   */\n  add\n    /* \"#utility.yul\":1712:1727   */\n  swap1\n  pop\n    /* \"#utility.yul\":1688:1801   */\n  jump(tag_58)\ntag_60:\n    /* \"#utility.yul\":1819:1825   */\n  dup4\n    /* \"#utility.yul\":1816:1817   */\n  dup2\n    /* \"#utility.yul\":1813:1826   */\n  gt\n    /* \"#utility.yul\":1810:1911   */\n  iszero\n  tag_61\n  jumpi\n    /* \"#utility.yul\":1899:1900   */\n  0x00\n    /* \"#utility.yul\":1890:1896   */\n  dup5\n    /* \"#utility.yul\":1885:1888   */\n  dup5\n    /* \"#utility.yul\":1881:1897   */\n  add\n    /* \"#utility.yul\":1874:1901   */\n  mstore\n    /* \"#utility.yul\":1810:1911   */\ntag_61:\n    /* \"#utility.yul\":1659:1917   */\n  pop\n    /* \"#utility.yul\":1610:1917   */\n  pop\n  pop\n  pop\n  jump\t// out\n    /* \"#utility.yul\":1923:2344   */\ntag_32:\n    /* \"#utility.yul\":2012:2017   */\n  0x00\n    /* \"#utility.yul\":2037:2103   */\n  tag_63\n    /* \"#utility.yul\":2053:2102   */\n  tag_64\n    /* \"#utility.yul\":2095:2101   */\n  dup5\n    /* \"#utility.yul\":2053:2102   */\n  tag_30\n  jump\t// in\ntag_64:\n    /* \"#utility.yul\":2037:2103   */\n  tag_29\n  jump\t// in\ntag_63:\n    /* \"#utility.yul\":2028:2103   */\n  swap1\n  pop\n    /* \"#utility.yul\":2126:2132   */\n  dup3\n    /* \"#utility.yul\":2119:2124   */\n  dup2\n    /* \"#utility.yul\":2112:2133   */\n  mstore\n    /* \"#utility.yul\":2164:2168   */\n  0x20\n    /* \"#utility.yul\":2157:2162   */\n  dup2\n    /* \"#utility.yul\":2153:2169   */\n  add\n    /* \"#utility.yul\":2202:2205   */\n  dup5\n    /* \"#utility.yul\":2193:2199   */\n  dup5\n    /* \"#utility.yul\":2188:2191   */\n  dup5\n    /* \"#utility.yul\":2184:2200   */\n  add\n    /* \"#utility.yul\":2181:2206   */\n  gt\n    /* \"#utility.yul\":2178:2290   */\n  iszero\n  tag_65\n  jumpi\n    /* \"#utility.yul\":2209:2288   */\n  tag_66\n  tag_25\n  jump\t// in\ntag_66:\n    /* \"#utility.yul\":2178:2290   */\ntag_65:\n    /* \"#utility.yul\":2299:2338   */\n  tag_67\n    /* \"#utility.yul\":2331:2337   */\n  dup5\n    /* \"#utility.yul\":2326:2329   */\n  dup3\n    /* \"#utility.yul\":2321:2324   */\n  dup6\n    /* \"#utility.yul\":2299:2338   */\n  tag_31\n  jump\t// in\ntag_67:\n    /* \"#utility.yul\":2018:2344   */\n  pop\n    /* \"#utility.yul\":1923:2344   */\n  swap4\n  swap3\n  pop\n  pop\n  pop\n  jump\t// out\n    /* \"#utility.yul\":2364:2719   */\ntag_33:\n    /* \"#utility.yul\":2431:2436   */\n  0x00\n    /* \"#utility.yul\":2480:2483   */\n  dup3\n    /* \"#utility.yul\":2473:2477   */\n  0x1f\n    /* \"#utility.yul\":2465:2471   */\n  dup4\n    /* \"#utility.yul\":2461:2478   */\n  add\n    /* \"#utility.yul\":2457:2484   */\n  slt\n    /* \"#utility.yul\":2447:2569   */\n  tag_69\n  jumpi\n    /* \"#utility.yul\":2488:2567   */\n  tag_70\n  tag_24\n  jump\t// in\ntag_70:\n    /* \"#utility.yul\":2447:2569   */\ntag_69:\n    /* \"#utility.yul\":2598:2604   */\n  dup2\n    /* \"#utility.yul\":2592:2605   */\n  mload\n    /* \"#utility.yul\":2623:2713   */\n  tag_71\n    /* \"#utility.yul\":2709:2712   */\n  dup5\n    /* \"#utility.yul\":2701:2707   */\n  dup3\n    /* \"#utility.yul\":2694:2698   */\n  0x20\n    /* \"#utility.yul\":2686:2692   */\n  dup7\n    /* \"#utility.yul\":2682:2699   */\n  add\n    /* \"#utility.yul\":2623:2713   */\n  tag_32\n  jump\t// in\ntag_71:\n    /* \"#utility.yul\":2614:2713   */\n  swap2\n  pop\n    /* \"#utility.yul\":2437:2719   */\n  pop\n    /* \"#utility.yul\":2364:2719   */\n  swap3\n  swap2\n  pop\n  pop\n  jump\t// out\n    /* \"#utility.yul\":2725:2802   */\ntag_34:\n    /* \"#utility.yul\":2762:2769   */\n  0x00\n    /* \"#utility.yul\":2791:2796   */\n  dup2\n    /* \"#utility.yul\":2780:2796   */\n  swap1\n  pop\n    /* \"#utility.yul\":2725:2802   */\n  swap2\n  swap1\n  pop\n  jump\t// out\n    /* \"#utility.yul\":2808:2930   */\ntag_35:\n    /* \"#utility.yul\":2881:2905   */\n  tag_74\n    /* \"#utility.yul\":2899:2904   */\n  dup2\n    /* \"#utility.yul\":2881:2905   */\n  tag_34\n  jump\t// in\ntag_74:\n    /* \"#utility.yul\":2874:2879   */\n  dup2\n    /* \"#utility.yul\":2871:2906   */\n  eq\n    /* \"#utility.yul\":2861:2924   */\n  tag_75\n  jumpi\n    /* \"#utility.yul\":2920:2921   */\n  0x00\n    /* \"#utility.yul\":2917:2918   */\n  dup1\n    /* \"#utility.yul\":2910:2922   */\n  revert\n    /* \"#utility.yul\":2861:2924   */\ntag_75:\n    /* \"#utility.yul\":2808:2930   */\n  pop\n  jump\t// out\n    /* \"#utility.yul\":2936:3079   */\ntag_36:\n    /* \"#utility.yul\":2993:2998   */\n  0x00\n    /* \"#utility.yul\":3024:3030   */\n  dup2\n    /* \"#utility.yul\":3018:3031   */\n  mload\n    /* \"#utility.yul\":3009:3031   */\n  swap1\n  pop\n    /* \"#utility.yul\":3040:3073   */\n  tag_77\n    /* \"#utility.yul\":3067:3072   */\n  dup2\n    /* \"#utility.yul\":3040:3073   */\n  tag_35\n  jump\t// in\ntag_77:\n    /* \"#utility.yul\":2936:3079   */\n  swap3\n  swap2\n  pop\n  pop\n  jump\t// out\n    /* \"#utility.yul\":3085:4094   */\ntag_3:\n    /* \"#utility.yul\":3193:3199   */\n  0x00\n    /* \"#utility.yul\":3201:3207   */\n  dup1\n    /* \"#utility.yul\":3209:3215   */\n  0x00\n    /* \"#utility.yul\":3258:3260   */\n  0x60\n    /* \"#utility.yul\":3246:3255   */\n  dup5\n    /* \"#utility.yul\":3237:3244   */\n  dup7\n    /* \"#utility.yul\":3233:3256   */\n  sub\n    /* \"#utility.yul\":3229:3261   */\n  slt\n    /* \"#utility.yul\":3226:3345   */\n  iszero\n  tag_79\n  jumpi\n    /* \"#utility.yul\":3264:3343   */\n  tag_80\n  tag_22\n  jump\t// in\ntag_80:\n    /* \"#utility.yul\":3226:3345   */\ntag_79:\n    /* \"#utility.yul\":3405:3406   */\n  0x00\n    /* \"#utility.yul\":3394:3403   */\n  dup5\n    /* \"#utility.yul\":3390:3407   */\n  add\n    /* \"#utility.yul\":3384:3408   */\n  mload\n    /* \"#utility.yul\":3435:3453   */\n  0xffffffffffffffff\n    /* \"#utility.yul\":3427:3433   */\n  dup2\n    /* \"#utility.yul\":3424:3454   */\n  gt\n    /* \"#utility.yul\":3421:3538   */\n  iszero\n  tag_81\n  jumpi\n    /* \"#utility.yul\":3457:3536   */\n  tag_82\n  tag_23\n  jump\t// in\ntag_82:\n    /* \"#utility.yul\":3421:3538   */\ntag_81:\n    /* \"#utility.yul\":3562:3636   */\n  tag_83\n    /* \"#utility.yul\":3628:3635   */\n  dup7\n    /* \"#utility.yul\":3619:3625   */\n  dup3\n    /* \"#utility.yul\":3608:3617   */\n  dup8\n    /* \"#utility.yul\":3604:3626   */\n  add\n    /* \"#utility.yul\":3562:3636   */\n  tag_33\n  jump\t// in\ntag_83:\n    /* \"#utility.yul\":3552:3636   */\n  swap4\n  pop\n    /* \"#utility.yul\":3355:3646   */\n  pop\n    /* \"#utility.yul\":3706:3708   */\n  0x20\n    /* \"#utility.yul\":3695:3704   */\n  dup5\n    /* \"#utility.yul\":3691:3709   */\n  add\n    /* \"#utility.yul\":3685:3710   */\n  mload\n    /* \"#utility.yul\":3737:3755   */\n  0xffffffffffffffff\n    /* \"#utility.yul\":3729:3735   */\n  dup2\n    /* \"#utility.yul\":3726:3756   */\n  gt\n    /* \"#utility.yul\":3723:3840   */\n  iszero\n  tag_84\n  jumpi\n    /* \"#utility.yul\":3759:3838   */\n  tag_85\n  tag_23\n  jump\t// in\ntag_85:\n    /* \"#utility.yul\":3723:3840   */\ntag_84:\n    /* \"#utility.yul\":3864:3938   */\n  tag_86\n    /* \"#utility.yul\":3930:3937   */\n  dup7\n    /* \"#utility.yul\":3921:3927   */\n  dup3\n    /* \"#utility.yul\":3910:3919   */\n  dup8\n    /* \"#utility.yul\":3906:3928   */\n  add\n    /* \"#utility.yul\":3864:3938   */\n  tag_33\n  jump\t// in\ntag_86:\n    /* \"#utility.yul\":3854:3938   */\n  swap3\n  pop\n    /* \"#utility.yul\":3656:3948   */\n  pop\n    /* \"#utility.yul\":3987:3989   */\n  0x40\n    /* \"#utility.yul\":4013:4077   */\n  tag_87\n    /* \"#utility.yul\":4069:4076   */\n  dup7\n    /* \"#utility.yul\":4060:4066   */\n  dup3\n    /* \"#utility.yul\":4049:4058   */\n  dup8\n    /* \"#utility.yul\":4045:4067   */\n  add\n    /* \"#utility.yul\":4013:4077   */\n  tag_36\n  jump\t// in\ntag_87:\n    /* \"#utility.yul\":4003:4077   */\n  swap2\n  pop\n    /* \"#utility.yul\":3958:4087   */\n  pop\n    /* \"#utility.yul\":3085:4094   */\n  swap3\n  pop\n  swap3\n  pop\n  swap3\n  jump\t// out\n    /* \"#utility.yul\":4100:4280   */\ntag_37:\n    /* \"#utility.yul\":4148:4225   */\n  0x4e487b7100000000000000000000000000000000000000000000000000000000\n    /* \"#utility.yul\":4145:4146   */\n  0x00\n    /* \"#utility.yul\":4138:4226   */\n  mstore\n    /* \"#utility.yul\":4245:4249   */\n  0x22\n    /* \"#utility.yul\":4242:4243   */\n  0x04\n    /* \"#utility.yul\":4235:4250   */\n  mstore\n    /* \"#utility.yul\":4269:4273   */\n  0x24\n    /* \"#utility.yul\":4266:4267   */\n  0x00\n    /* \"#utility.yul\":4259:4274   */\n  revert\n    /* \"#utility.yul\":4286:4606   */\ntag_11:\n    /* \"#utility.yul\":4330:4336   */\n  0x00\n    /* \"#utility.yul\":4367:4368   */\n  0x02\n    /* \"#utility.yul\":4361:4365   */\n  dup3\n    /* \"#utility.yul\":4357:4369   */\n  div\n    /* \"#utility.yul\":4347:4369   */\n  swap1\n  pop\n    /* \"#utility.yul\":4414:4415   */\n  0x01\n    /* \"#utility.yul\":4408:4412   */\n  dup3\n    /* \"#utility.yul\":4404:4416   */\n  and\n    /* \"#utility.yul\":4435:4453   */\n  dup1\n    /* \"#utility.yul\":4425:4506   */\n  tag_90\n  jumpi\n    /* \"#utility.yul\":4491:4495   */\n  0x7f\n    /* \"#utility.yul\":4483:4489   */\n  dup3\n    /* \"#utility.yul\":4479:4496   */\n  and\n    /* \"#utility.yul\":4469:4496   */\n  swap2\n  pop\n    /* \"#utility.yul\":4425:4506   */\ntag_90:\n    /* \"#utility.yul\":4553:4555   */\n  0x20\n    /* \"#utility.yul\":4545:4551   */\n  dup3\n    /* \"#utility.yul\":4542:4556   */\n  lt\n    /* \"#utility.yul\":4522:4540   */\n  dup2\n    /* \"#utility.yul\":4519:4557   */\n  sub\n    /* \"#utility.yul\":4516:4600   */\n  tag_91\n  jumpi\n    /* \"#utility.yul\":4572:4590   */\n  tag_92\n  tag_37\n  jump\t// in\ntag_92:\n    /* \"#utility.yul\":4516:4600   */\ntag_91:\n    /* \"#utility.yul\":4337:4606   */\n  pop\n    /* \"#utility.yul\":4286:4606   */\n  swap2\n  swap1\n  pop\n  jump\t// out\n    /* \"contracts/workshop.sol\":58:1567  contract Workshop {... */\ntag_9:\n  dataSize(sub_0)\n  dup1\n  dataOffset(sub_0)\n  0x00\n  codecopy\n  0x00\n  return\nstop\n\nsub_0: assembly {\n        /* \"contracts/workshop.sol\":58:1567  contract Workshop {... */\n      mstore(0x40, 0x80)\n      callvalue\n      dup1\n      iszero\n      tag_1\n      jumpi\n      0x00\n      dup1\n      revert\n    tag_1:\n      pop\n      jumpi(tag_2, lt(calldatasize, 0x04))\n      shr(0xe0, calldataload(0x00))\n      dup1\n      0x70a08231\n      gt\n      tag_10\n      jumpi\n      dup1\n      0x70a08231\n      eq\n      tag_6\n      jumpi\n      dup1\n      0xa9059cbb\n      eq\n      tag_7\n      jumpi\n      dup1\n      0xa967028a\n      eq\n      tag_8\n      jumpi\n      dup1\n      0xc4e41b22\n      eq\n      tag_9\n      jumpi\n      jump(tag_2)\n    tag_10:\n      dup1\n      0x0bdfeca5\n      eq\n      tag_3\n      jumpi\n      dup1\n      0x15070401\n      eq\n      tag_4\n      jumpi\n      dup1\n      0x17d7de7c\n      eq\n      tag_5\n      jumpi\n    tag_2:\n      0x00\n      dup1\n      revert\n        /* \"contracts/workshop.sol\":1244:1344  function setMyWalletName(string memory _name) public {... */\n    tag_3:\n      tag_11\n      0x04\n      dup1\n      calldatasize\n      sub\n      dup2\n      add\n      swap1\n      tag_12\n      swap2\n      swap1\n      tag_13\n      jump\t// in\n    tag_12:\n      tag_14\n      jump\t// in\n    tag_11:\n      stop\n        /* \"contracts/workshop.sol\":573:659  function getSymbol() public view returns(string memory) {... */\n    tag_4:\n      tag_15\n      tag_16\n      jump\t// in\n    tag_15:\n      mload(0x40)\n      tag_17\n      swap2\n      swap1\n      tag_18\n      jump\t// in\n    tag_17:\n      mload(0x40)\n      dup1\n      swap2\n      sub\n      swap1\n      return\n        /* \"contracts/workshop.sol\":485:567  function getName() public view returns(string memory) {... */\n    tag_5:\n      tag_19\n      tag_20\n      jump\t// in\n    tag_19:\n      mload(0x40)\n      tag_21\n      swap2\n      swap1\n      tag_18\n      jump\t// in\n    tag_21:\n      mload(0x40)\n      dup1\n      swap2\n      sub\n      swap1\n      return\n        /* \"contracts/workshop.sol\":761:869  function balanceOf(address _account) public view returns(uint256) {... */\n    tag_6:\n      tag_22\n      0x04\n      dup1\n      calldatasize\n      sub\n      dup2\n      add\n      swap1\n      tag_23\n      swap2\n      swap1\n      tag_24\n      jump\t// in\n    tag_23:\n      tag_25\n      jump\t// in\n    tag_22:\n      mload(0x40)\n      tag_26\n      swap2\n      swap1\n      tag_27\n      jump\t// in\n    tag_26:\n      mload(0x40)\n      dup1\n      swap2\n      sub\n      swap1\n      return\n        /* \"contracts/workshop.sol\":875:1238  function transfer(address _to, uint256 amount) public {... */\n    tag_7:\n      tag_28\n      0x04\n      dup1\n      calldatasize\n      sub\n      dup2\n      add\n      swap1\n      tag_29\n      swap2\n      swap1\n      tag_30\n      jump\t// in\n    tag_29:\n      tag_31\n      jump\t// in\n    tag_28:\n      stop\n        /* \"contracts/workshop.sol\":1350:1565  function getWalletName(address _addr) public view returns(string memory) {... */\n    tag_8:\n      tag_32\n      0x04\n      dup1\n      calldatasize\n      sub\n      dup2\n      add\n      swap1\n      tag_33\n      swap2\n      swap1\n      tag_24\n      jump\t// in\n    tag_33:\n      tag_34\n      jump\t// in\n    tag_32:\n      mload(0x40)\n      tag_35\n      swap2\n      swap1\n      tag_18\n      jump\t// in\n    tag_35:\n      mload(0x40)\n      dup1\n      swap2\n      sub\n      swap1\n      return\n        /* \"contracts/workshop.sol\":665:755  function getTotalSupply() public view returns(uint256) {... */\n    tag_9:\n      tag_36\n      tag_37\n      jump\t// in\n    tag_36:\n      mload(0x40)\n      tag_38\n      swap2\n      swap1\n      tag_27\n      jump\t// in\n    tag_38:\n      mload(0x40)\n      dup1\n      swap2\n      sub\n      swap1\n      return\n        /* \"contracts/workshop.sol\":1244:1344  function setMyWalletName(string memory _name) public {... */\n    tag_14:\n        /* \"contracts/workshop.sol\":1332:1337  _name */\n      dup1\n        /* \"contracts/workshop.sol\":1307:1317  walletName */\n      0x01\n        /* \"contracts/workshop.sol\":1307:1329  walletName[msg.sender] */\n      0x00\n        /* \"contracts/workshop.sol\":1318:1328  msg.sender */\n      caller\n        /* \"contracts/workshop.sol\":1307:1329  walletName[msg.sender] */\n      0xffffffffffffffffffffffffffffffffffffffff\n      and\n      0xffffffffffffffffffffffffffffffffffffffff\n      and\n      dup2\n      mstore\n      0x20\n      add\n      swap1\n      dup2\n      mstore\n      0x20\n      add\n      0x00\n      keccak256\n        /* \"contracts/workshop.sol\":1307:1337  walletName[msg.sender] = _name */\n      swap1\n      dup1\n      mload\n      swap1\n      0x20\n      add\n      swap1\n      tag_40\n      swap3\n      swap2\n      swap1\n      tag_41\n      jump\t// in\n    tag_40:\n      pop\n        /* \"contracts/workshop.sol\":1244:1344  function setMyWalletName(string memory _name) public {... */\n      pop\n      jump\t// out\n        /* \"contracts/workshop.sol\":573:659  function getSymbol() public view returns(string memory) {... */\n    tag_16:\n        /* \"contracts/workshop.sol\":614:627  string memory */\n      0x60\n        /* \"contracts/workshop.sol\":646:652  symbol */\n      0x03\n        /* \"contracts/workshop.sol\":639:652  return symbol */\n      dup1\n      sload\n      tag_43\n      swap1\n      tag_44\n      jump\t// in\n    tag_43:\n      dup1\n      0x1f\n      add\n      0x20\n      dup1\n      swap2\n      div\n      mul\n      0x20\n      add\n      mload(0x40)\n      swap1\n      dup2\n      add\n      0x40\n      mstore\n      dup1\n      swap3\n      swap2\n      swap1\n      dup2\n      dup2\n      mstore\n      0x20\n      add\n      dup3\n      dup1\n      sload\n      tag_45\n      swap1\n      tag_44\n      jump\t// in\n    tag_45:\n      dup1\n      iszero\n      tag_46\n      jumpi\n      dup1\n      0x1f\n      lt\n      tag_47\n      jumpi\n      0x0100\n      dup1\n      dup4\n      sload\n      div\n      mul\n      dup4\n      mstore\n      swap2\n      0x20\n      add\n      swap2\n      jump(tag_46)\n    tag_47:\n      dup3\n      add\n      swap2\n      swap1\n      0x00\n      mstore\n      keccak256(0x00, 0x20)\n      swap1\n    tag_48:\n      dup2\n      sload\n      dup2\n      mstore\n      swap1\n      0x01\n      add\n      swap1\n      0x20\n      add\n      dup1\n      dup4\n      gt\n      tag_48\n      jumpi\n      dup3\n      swap1\n      sub\n      0x1f\n      and\n      dup3\n      add\n      swap2\n    tag_46:\n      pop\n      pop\n      pop\n      pop\n      pop\n      swap1\n      pop\n        /* \"contracts/workshop.sol\":573:659  function getSymbol() public view returns(string memory) {... */\n      swap1\n      jump\t// out\n        /* \"contracts/workshop.sol\":485:567  function getName() public view returns(string memory) {... */\n    tag_20:\n        /* \"contracts/workshop.sol\":524:537  string memory */\n      0x60\n        /* \"contracts/workshop.sol\":556:560  name */\n      0x02\n        /* \"contracts/workshop.sol\":549:560  return name */\n      dup1\n      sload\n      tag_50\n      swap1\n      tag_44\n      jump\t// in\n    tag_50:\n      dup1\n      0x1f\n      add\n      0x20\n      dup1\n      swap2\n      div\n      mul\n      0x20\n      add\n      mload(0x40)\n      swap1\n      dup2\n      add\n      0x40\n      mstore\n      dup1\n      swap3\n      swap2\n      swap1\n      dup2\n      dup2\n      mstore\n      0x20\n      add\n      dup3\n      dup1\n      sload\n      tag_51\n      swap1\n      tag_44\n      jump\t// in\n    tag_51:\n      dup1\n      iszero\n      tag_52\n      jumpi\n      dup1\n      0x1f\n      lt\n      tag_53\n      jumpi\n      0x0100\n      dup1\n      dup4\n      sload\n      div\n      mul\n      dup4\n      mstore\n      swap2\n      0x20\n      add\n      swap2\n      jump(tag_52)\n    tag_53:\n      dup3\n      add\n      swap2\n      swap1\n      0x00\n      mstore\n      keccak256(0x00, 0x20)\n      swap1\n    tag_54:\n      dup2\n      sload\n      dup2\n      mstore\n      swap1\n      0x01\n      add\n      swap1\n      0x20\n      add\n      dup1\n      dup4\n      gt\n      tag_54\n      jumpi\n      dup3\n      swap1\n      sub\n      0x1f\n      and\n      dup3\n      add\n      swap2\n    tag_52:\n      pop\n      pop\n      pop\n      pop\n      pop\n      swap1\n      pop\n        /* \"contracts/workshop.sol\":485:567  function getName() public view returns(string memory) {... */\n      swap1\n      jump\t// out\n        /* \"contracts/workshop.sol\":761:869  function balanceOf(address _account) public view returns(uint256) {... */\n    tag_25:\n        /* \"contracts/workshop.sol\":818:825  uint256 */\n      0x00\n        /* \"contracts/workshop.sol\":844:852  balances */\n      dup1\n        /* \"contracts/workshop.sol\":844:862  balances[_account] */\n      0x00\n        /* \"contracts/workshop.sol\":853:861  _account */\n      dup4\n        /* \"contracts/workshop.sol\":844:862  balances[_account] */\n      0xffffffffffffffffffffffffffffffffffffffff\n      and\n      0xffffffffffffffffffffffffffffffffffffffff\n      and\n      dup2\n      mstore\n      0x20\n      add\n      swap1\n      dup2\n      mstore\n      0x20\n      add\n      0x00\n      keccak256\n      sload\n        /* \"contracts/workshop.sol\":837:862  return balances[_account] */\n      swap1\n      pop\n        /* \"contracts/workshop.sol\":761:869  function balanceOf(address _account) public view returns(uint256) {... */\n      swap2\n      swap1\n      pop\n      jump\t// out\n        /* \"contracts/workshop.sol\":875:1238  function transfer(address _to, uint256 amount) public {... */\n    tag_31:\n        /* \"contracts/workshop.sol\":939:952  address owner */\n      0x00\n        /* \"contracts/workshop.sol\":955:965  msg.sender */\n      caller\n        /* \"contracts/workshop.sol\":939:965  address owner = msg.sender */\n      swap1\n      pop\n        /* \"contracts/workshop.sol\":975:995  uint256 ownerBalance */\n      0x00\n        /* \"contracts/workshop.sol\":998:1006  balances */\n      dup1\n        /* \"contracts/workshop.sol\":998:1013  balances[owner] */\n      0x00\n        /* \"contracts/workshop.sol\":1007:1012  owner */\n      dup4\n        /* \"contracts/workshop.sol\":998:1013  balances[owner] */\n      0xffffffffffffffffffffffffffffffffffffffff\n      and\n      0xffffffffffffffffffffffffffffffffffffffff\n      and\n      dup2\n      mstore\n      0x20\n      add\n      swap1\n      dup2\n      mstore\n      0x20\n      add\n      0x00\n      keccak256\n      sload\n        /* \"contracts/workshop.sol\":975:1013  uint256 ownerBalance = balances[owner] */\n      swap1\n      pop\n        /* \"contracts/workshop.sol\":1047:1053  amount */\n      dup3\n        /* \"contracts/workshop.sol\":1031:1043  ownerBalance */\n      dup2\n        /* \"contracts/workshop.sol\":1031:1053  ownerBalance >= amount */\n      lt\n      iszero\n        /* \"contracts/workshop.sol\":1023:1087  require(ownerBalance >= amount, \"Insufficient fund to transfer\") */\n      tag_57\n      jumpi\n      mload(0x40)\n      0x08c379a000000000000000000000000000000000000000000000000000000000\n      dup2\n      mstore\n      0x04\n      add\n      tag_58\n      swap1\n      tag_59\n      jump\t// in\n    tag_58:\n      mload(0x40)\n      dup1\n      swap2\n      sub\n      swap1\n      revert\n    tag_57:\n        /* \"contracts/workshop.sol\":1112:1117  owner */\n      dup2\n        /* \"contracts/workshop.sol\":1105:1117  _to != owner */\n      0xffffffffffffffffffffffffffffffffffffffff\n      and\n        /* \"contracts/workshop.sol\":1105:1108  _to */\n      dup5\n        /* \"contracts/workshop.sol\":1105:1117  _to != owner */\n      0xffffffffffffffffffffffffffffffffffffffff\n      and\n      sub\n        /* \"contracts/workshop.sol\":1097:1149  require(_to != owner, \"You cannot send to yourself\") */\n      tag_60\n      jumpi\n      mload(0x40)\n      0x08c379a000000000000000000000000000000000000000000000000000000000\n      dup2\n      mstore\n      0x04\n      add\n      tag_61\n      swap1\n      tag_62\n      jump\t// in\n    tag_61:\n      mload(0x40)\n      dup1\n      swap2\n      sub\n      swap1\n      revert\n    tag_60:\n        /* \"contracts/workshop.sol\":1192:1198  amount */\n      dup3\n        /* \"contracts/workshop.sol\":1177:1189  ownerBalance */\n      dup2\n        /* \"contracts/workshop.sol\":1177:1198  ownerBalance - amount */\n      tag_63\n      swap2\n      swap1\n      tag_64\n      jump\t// in\n    tag_63:\n        /* \"contracts/workshop.sol\":1159:1167  balances */\n      0x00\n        /* \"contracts/workshop.sol\":1159:1174  balances[owner] */\n      dup1\n        /* \"contracts/workshop.sol\":1168:1173  owner */\n      dup5\n        /* \"contracts/workshop.sol\":1159:1174  balances[owner] */\n      0xffffffffffffffffffffffffffffffffffffffff\n      and\n      0xffffffffffffffffffffffffffffffffffffffff\n      and\n      dup2\n      mstore\n      0x20\n      add\n      swap1\n      dup2\n      mstore\n      0x20\n      add\n      0x00\n      keccak256\n        /* \"contracts/workshop.sol\":1159:1198  balances[owner] = ownerBalance - amount */\n      dup2\n      swap1\n      sstore\n      pop\n        /* \"contracts/workshop.sol\":1225:1231  amount */\n      dup3\n        /* \"contracts/workshop.sol\":1208:1216  balances */\n      0x00\n        /* \"contracts/workshop.sol\":1208:1221  balances[_to] */\n      dup1\n        /* \"contracts/workshop.sol\":1217:1220  _to */\n      dup7\n        /* \"contracts/workshop.sol\":1208:1221  balances[_to] */\n      0xffffffffffffffffffffffffffffffffffffffff\n      and\n      0xffffffffffffffffffffffffffffffffffffffff\n      and\n      dup2\n      mstore\n      0x20\n      add\n      swap1\n      dup2\n      mstore\n      0x20\n      add\n      0x00\n      keccak256\n      0x00\n        /* \"contracts/workshop.sol\":1208:1231  balances[_to] += amount */\n      dup3\n      dup3\n      sload\n      tag_65\n      swap2\n      swap1\n      tag_66\n      jump\t// in\n    tag_65:\n      swap3\n      pop\n      pop\n      dup2\n      swap1\n      sstore\n      pop\n        /* \"contracts/workshop.sol\":929:1238  {... */\n      pop\n      pop\n        /* \"contracts/workshop.sol\":875:1238  function transfer(address _to, uint256 amount) public {... */\n      pop\n      pop\n      jump\t// out\n        /* \"contracts/workshop.sol\":1350:1565  function getWalletName(address _addr) public view returns(string memory) {... */\n    tag_34:\n        /* \"contracts/workshop.sol\":1408:1421  string memory */\n      0x60\n        /* \"contracts/workshop.sol\":1472:1473  0 */\n      0x00\n        /* \"contracts/workshop.sol\":1443:1453  walletName */\n      0x01\n        /* \"contracts/workshop.sol\":1443:1460  walletName[_addr] */\n      0x00\n        /* \"contracts/workshop.sol\":1454:1459  _addr */\n      dup5\n        /* \"contracts/workshop.sol\":1443:1460  walletName[_addr] */\n      0xffffffffffffffffffffffffffffffffffffffff\n      and\n      0xffffffffffffffffffffffffffffffffffffffff\n      and\n      dup2\n      mstore\n      0x20\n      add\n      swap1\n      dup2\n      mstore\n      0x20\n      add\n      0x00\n      keccak256\n        /* \"contracts/workshop.sol\":1437:1468  bytes(walletName[_addr]).length */\n      dup1\n      sload\n      tag_68\n      swap1\n      tag_44\n      jump\t// in\n    tag_68:\n      swap1\n      pop\n        /* \"contracts/workshop.sol\":1437:1473  bytes(walletName[_addr]).length != 0 */\n      eq\n        /* \"contracts/workshop.sol\":1433:1558  if (bytes(walletName[_addr]).length != 0)... */\n      tag_69\n      jumpi\n        /* \"contracts/workshop.sol\":1494:1504  walletName */\n      0x01\n        /* \"contracts/workshop.sol\":1494:1511  walletName[_addr] */\n      0x00\n        /* \"contracts/workshop.sol\":1505:1510  _addr */\n      dup4\n        /* \"contracts/workshop.sol\":1494:1511  walletName[_addr] */\n      0xffffffffffffffffffffffffffffffffffffffff\n      and\n      0xffffffffffffffffffffffffffffffffffffffff\n      and\n      dup2\n      mstore\n      0x20\n      add\n      swap1\n      dup2\n      mstore\n      0x20\n      add\n      0x00\n      keccak256\n        /* \"contracts/workshop.sol\":1487:1511  return walletName[_addr] */\n      dup1\n      sload\n      tag_70\n      swap1\n      tag_44\n      jump\t// in\n    tag_70:\n      dup1\n      0x1f\n      add\n      0x20\n      dup1\n      swap2\n      div\n      mul\n      0x20\n      add\n      mload(0x40)\n      swap1\n      dup2\n      add\n      0x40\n      mstore\n      dup1\n      swap3\n      swap2\n      swap1\n      dup2\n      dup2\n      mstore\n      0x20\n      add\n      dup3\n      dup1\n      sload\n      tag_71\n      swap1\n      tag_44\n      jump\t// in\n    tag_71:\n      dup1\n      iszero\n      tag_72\n      jumpi\n      dup1\n      0x1f\n      lt\n      tag_73\n      jumpi\n      0x0100\n      dup1\n      dup4\n      sload\n      div\n      mul\n      dup4\n      mstore\n      swap2\n      0x20\n      add\n      swap2\n      jump(tag_72)\n    tag_73:\n      dup3\n      add\n      swap2\n      swap1\n      0x00\n      mstore\n      keccak256(0x00, 0x20)\n      swap1\n    tag_74:\n      dup2\n      sload\n      dup2\n      mstore\n      swap1\n      0x01\n      add\n      swap1\n      0x20\n      add\n      dup1\n      dup4\n      gt\n      tag_74\n      jumpi\n      dup3\n      swap1\n      sub\n      0x1f\n      and\n      dup3\n      add\n      swap2\n    tag_72:\n      pop\n      pop\n      pop\n      pop\n      pop\n      swap1\n      pop\n      jump(tag_67)\n        /* \"contracts/workshop.sol\":1433:1558  if (bytes(walletName[_addr]).length != 0)... */\n    tag_69:\n        /* \"contracts/workshop.sol\":1538:1558  return \"No username\" */\n      mload(0x40)\n      dup1\n      0x40\n      add\n      0x40\n      mstore\n      dup1\n      0x0b\n      dup2\n      mstore\n      0x20\n      add\n      0x4e6f20757365726e616d65000000000000000000000000000000000000000000\n      dup2\n      mstore\n      pop\n      swap1\n      pop\n        /* \"contracts/workshop.sol\":1350:1565  function getWalletName(address _addr) public view returns(string memory) {... */\n    tag_67:\n      swap2\n      swap1\n      pop\n      jump\t// out\n        /* \"contracts/workshop.sol\":665:755  function getTotalSupply() public view returns(uint256) {... */\n    tag_37:\n        /* \"contracts/workshop.sol\":711:718  uint256 */\n      0x00\n        /* \"contracts/workshop.sol\":737:748  totalSupply */\n      sload(0x04)\n        /* \"contracts/workshop.sol\":730:748  return totalSupply */\n      swap1\n      pop\n        /* \"contracts/workshop.sol\":665:755  function getTotalSupply() public view returns(uint256) {... */\n      swap1\n      jump\t// out\n    tag_41:\n      dup3\n      dup1\n      sload\n      tag_77\n      swap1\n      tag_44\n      jump\t// in\n    tag_77:\n      swap1\n      0x00\n      mstore\n      keccak256(0x00, 0x20)\n      swap1\n      0x1f\n      add\n      0x20\n      swap1\n      div\n      dup2\n      add\n      swap3\n      dup3\n      tag_79\n      jumpi\n      0x00\n      dup6\n      sstore\n      jump(tag_78)\n    tag_79:\n      dup3\n      0x1f\n      lt\n      tag_80\n      jumpi\n      dup1\n      mload\n      not(0xff)\n      and\n      dup4\n      dup1\n      add\n      or\n      dup6\n      sstore\n      jump(tag_78)\n    tag_80:\n      dup3\n      dup1\n      add\n      0x01\n      add\n      dup6\n      sstore\n      dup3\n      iszero\n      tag_78\n      jumpi\n      swap2\n      dup3\n      add\n    tag_81:\n      dup3\n      dup2\n      gt\n      iszero\n      tag_82\n      jumpi\n      dup3\n      mload\n      dup3\n      sstore\n      swap2\n      0x20\n      add\n      swap2\n      swap1\n      0x01\n      add\n      swap1\n      jump(tag_81)\n    tag_82:\n    tag_78:\n      pop\n      swap1\n      pop\n      tag_83\n      swap2\n      swap1\n      tag_84\n      jump\t// in\n    tag_83:\n      pop\n      swap1\n      jump\t// out\n    tag_84:\n    tag_85:\n      dup1\n      dup3\n      gt\n      iszero\n      tag_86\n      jumpi\n      0x00\n      dup2\n      0x00\n      swap1\n      sstore\n      pop\n      0x01\n      add\n      jump(tag_85)\n    tag_86:\n      pop\n      swap1\n      jump\t// out\n        /* \"#utility.yul\":7:82   */\n    tag_87:\n        /* \"#utility.yul\":40:46   */\n      0x00\n        /* \"#utility.yul\":73:75   */\n      0x40\n        /* \"#utility.yul\":67:76   */\n      mload\n        /* \"#utility.yul\":57:76   */\n      swap1\n      pop\n        /* \"#utility.yul\":7:82   */\n      swap1\n      jump\t// out\n        /* \"#utility.yul\":88:205   */\n    tag_88:\n        /* \"#utility.yul\":197:198   */\n      0x00\n        /* \"#utility.yul\":194:195   */\n      dup1\n        /* \"#utility.yul\":187:199   */\n      revert\n        /* \"#utility.yul\":211:328   */\n    tag_89:\n        /* \"#utility.yul\":320:321   */\n      0x00\n        /* \"#utility.yul\":317:318   */\n      dup1\n        /* \"#utility.yul\":310:322   */\n      revert\n        /* \"#utility.yul\":334:451   */\n    tag_90:\n        /* \"#utility.yul\":443:444   */\n      0x00\n        /* \"#utility.yul\":440:441   */\n      dup1\n        /* \"#utility.yul\":433:445   */\n      revert\n        /* \"#utility.yul\":457:574   */\n    tag_91:\n        /* \"#utility.yul\":566:567   */\n      0x00\n        /* \"#utility.yul\":563:564   */\n      dup1\n        /* \"#utility.yul\":556:568   */\n      revert\n        /* \"#utility.yul\":580:682   */\n    tag_92:\n        /* \"#utility.yul\":621:627   */\n      0x00\n        /* \"#utility.yul\":672:674   */\n      0x1f\n        /* \"#utility.yul\":668:675   */\n      not\n        /* \"#utility.yul\":663:665   */\n      0x1f\n        /* \"#utility.yul\":656:661   */\n      dup4\n        /* \"#utility.yul\":652:666   */\n      add\n        /* \"#utility.yul\":648:676   */\n      and\n        /* \"#utility.yul\":638:676   */\n      swap1\n      pop\n        /* \"#utility.yul\":580:682   */\n      swap2\n      swap1\n      pop\n      jump\t// out\n        /* \"#utility.yul\":688:868   */\n    tag_93:\n        /* \"#utility.yul\":736:813   */\n      0x4e487b7100000000000000000000000000000000000000000000000000000000\n        /* \"#utility.yul\":733:734   */\n      0x00\n        /* \"#utility.yul\":726:814   */\n      mstore\n        /* \"#utility.yul\":833:837   */\n      0x41\n        /* \"#utility.yul\":830:831   */\n      0x04\n        /* \"#utility.yul\":823:838   */\n      mstore\n        /* \"#utility.yul\":857:861   */\n      0x24\n        /* \"#utility.yul\":854:855   */\n      0x00\n        /* \"#utility.yul\":847:862   */\n      revert\n        /* \"#utility.yul\":874:1155   */\n    tag_94:\n        /* \"#utility.yul\":957:984   */\n      tag_127\n        /* \"#utility.yul\":979:983   */\n      dup3\n        /* \"#utility.yul\":957:984   */\n      tag_92\n      jump\t// in\n    tag_127:\n        /* \"#utility.yul\":949:955   */\n      dup2\n        /* \"#utility.yul\":945:985   */\n      add\n        /* \"#utility.yul\":1087:1093   */\n      dup2\n        /* \"#utility.yul\":1075:1085   */\n      dup2\n        /* \"#utility.yul\":1072:1094   */\n      lt\n        /* \"#utility.yul\":1051:1069   */\n      0xffffffffffffffff\n        /* \"#utility.yul\":1039:1049   */\n      dup3\n        /* \"#utility.yul\":1036:1070   */\n      gt\n        /* \"#utility.yul\":1033:1095   */\n      or\n        /* \"#utility.yul\":1030:1118   */\n      iszero\n      tag_128\n      jumpi\n        /* \"#utility.yul\":1098:1116   */\n      tag_129\n      tag_93\n      jump\t// in\n    tag_129:\n        /* \"#utility.yul\":1030:1118   */\n    tag_128:\n        /* \"#utility.yul\":1138:1148   */\n      dup1\n        /* \"#utility.yul\":1134:1136   */\n      0x40\n        /* \"#utility.yul\":1127:1149   */\n      mstore\n        /* \"#utility.yul\":917:1155   */\n      pop\n        /* \"#utility.yul\":874:1155   */\n      pop\n      pop\n      jump\t// out\n        /* \"#utility.yul\":1161:1290   */\n    tag_95:\n        /* \"#utility.yul\":1195:1201   */\n      0x00\n        /* \"#utility.yul\":1222:1242   */\n      tag_131\n      tag_87\n      jump\t// in\n    tag_131:\n        /* \"#utility.yul\":1212:1242   */\n      swap1\n      pop\n        /* \"#utility.yul\":1251:1284   */\n      tag_132\n        /* \"#utility.yul\":1279:1283   */\n      dup3\n        /* \"#utility.yul\":1271:1277   */\n      dup3\n        /* \"#utility.yul\":1251:1284   */\n      tag_94\n      jump\t// in\n    tag_132:\n        /* \"#utility.yul\":1161:1290   */\n      swap2\n      swap1\n      pop\n      jump\t// out\n        /* \"#utility.yul\":1296:1604   */\n    tag_96:\n        /* \"#utility.yul\":1358:1362   */\n      0x00\n        /* \"#utility.yul\":1448:1466   */\n      0xffffffffffffffff\n        /* \"#utility.yul\":1440:1446   */\n      dup3\n        /* \"#utility.yul\":1437:1467   */\n      gt\n        /* \"#utility.yul\":1434:1490   */\n      iszero\n      tag_134\n      jumpi\n        /* \"#utility.yul\":1470:1488   */\n      tag_135\n      tag_93\n      jump\t// in\n    tag_135:\n        /* \"#utility.yul\":1434:1490   */\n    tag_134:\n        /* \"#utility.yul\":1508:1537   */\n      tag_136\n        /* \"#utility.yul\":1530:1536   */\n      dup3\n        /* \"#utility.yul\":1508:1537   */\n      tag_92\n      jump\t// in\n    tag_136:\n        /* \"#utility.yul\":1500:1537   */\n      swap1\n      pop\n        /* \"#utility.yul\":1592:1596   */\n      0x20\n        /* \"#utility.yul\":1586:1590   */\n      dup2\n        /* \"#utility.yul\":1582:1597   */\n      add\n        /* \"#utility.yul\":1574:1597   */\n      swap1\n      pop\n        /* \"#utility.yul\":1296:1604   */\n      swap2\n      swap1\n      pop\n      jump\t// out\n        /* \"#utility.yul\":1610:1764   */\n    tag_97:\n        /* \"#utility.yul\":1694:1700   */\n      dup3\n        /* \"#utility.yul\":1689:1692   */\n      dup2\n        /* \"#utility.yul\":1684:1687   */\n      dup4\n        /* \"#utility.yul\":1671:1701   */\n      calldatacopy\n        /* \"#utility.yul\":1756:1757   */\n      0x00\n        /* \"#utility.yul\":1747:1753   */\n      dup4\n        /* \"#utility.yul\":1742:1745   */\n      dup4\n        /* \"#utility.yul\":1738:1754   */\n      add\n        /* \"#utility.yul\":1731:1758   */\n      mstore\n        /* \"#utility.yul\":1610:1764   */\n      pop\n      pop\n      pop\n      jump\t// out\n        /* \"#utility.yul\":1770:2182   */\n    tag_98:\n        /* \"#utility.yul\":1848:1853   */\n      0x00\n        /* \"#utility.yul\":1873:1939   */\n      tag_139\n        /* \"#utility.yul\":1889:1938   */\n      tag_140\n        /* \"#utility.yul\":1931:1937   */\n      dup5\n        /* \"#utility.yul\":1889:1938   */\n      tag_96\n      jump\t// in\n    tag_140:\n        /* \"#utility.yul\":1873:1939   */\n      tag_95\n      jump\t// in\n    tag_139:\n        /* \"#utility.yul\":1864:1939   */\n      swap1\n      pop\n        /* \"#utility.yul\":1962:1968   */\n      dup3\n        /* \"#utility.yul\":1955:1960   */\n      dup2\n        /* \"#utility.yul\":1948:1969   */\n      mstore\n        /* \"#utility.yul\":2000:2004   */\n      0x20\n        /* \"#utility.yul\":1993:1998   */\n      dup2\n        /* \"#utility.yul\":1989:2005   */\n      add\n        /* \"#utility.yul\":2038:2041   */\n      dup5\n        /* \"#utility.yul\":2029:2035   */\n      dup5\n        /* \"#utility.yul\":2024:2027   */\n      dup5\n        /* \"#utility.yul\":2020:2036   */\n      add\n        /* \"#utility.yul\":2017:2042   */\n      gt\n        /* \"#utility.yul\":2014:2126   */\n      iszero\n      tag_141\n      jumpi\n        /* \"#utility.yul\":2045:2124   */\n      tag_142\n      tag_91\n      jump\t// in\n    tag_142:\n        /* \"#utility.yul\":2014:2126   */\n    tag_141:\n        /* \"#utility.yul\":2135:2176   */\n      tag_143\n        /* \"#utility.yul\":2169:2175   */\n      dup5\n        /* \"#utility.yul\":2164:2167   */\n      dup3\n        /* \"#utility.yul\":2159:2162   */\n      dup6\n        /* \"#utility.yul\":2135:2176   */\n      tag_97\n      jump\t// in\n    tag_143:\n        /* \"#utility.yul\":1854:2182   */\n      pop\n        /* \"#utility.yul\":1770:2182   */\n      swap4\n      swap3\n      pop\n      pop\n      pop\n      jump\t// out\n        /* \"#utility.yul\":2202:2542   */\n    tag_99:\n        /* \"#utility.yul\":2258:2263   */\n      0x00\n        /* \"#utility.yul\":2307:2310   */\n      dup3\n        /* \"#utility.yul\":2300:2304   */\n      0x1f\n        /* \"#utility.yul\":2292:2298   */\n      dup4\n        /* \"#utility.yul\":2288:2305   */\n      add\n        /* \"#utility.yul\":2284:2311   */\n      slt\n        /* \"#utility.yul\":2274:2396   */\n      tag_145\n      jumpi\n        /* \"#utility.yul\":2315:2394   */\n      tag_146\n      tag_90\n      jump\t// in\n    tag_146:\n        /* \"#utility.yul\":2274:2396   */\n    tag_145:\n        /* \"#utility.yul\":2432:2438   */\n      dup2\n        /* \"#utility.yul\":2419:2439   */\n      calldataload\n        /* \"#utility.yul\":2457:2536   */\n      tag_147\n        /* \"#utility.yul\":2532:2535   */\n      dup5\n        /* \"#utility.yul\":2524:2530   */\n      dup3\n        /* \"#utility.yul\":2517:2521   */\n      0x20\n        /* \"#utility.yul\":2509:2515   */\n      dup7\n        /* \"#utility.yul\":2505:2522   */\n      add\n        /* \"#utility.yul\":2457:2536   */\n      tag_98\n      jump\t// in\n    tag_147:\n        /* \"#utility.yul\":2448:2536   */\n      swap2\n      pop\n        /* \"#utility.yul\":2264:2542   */\n      pop\n        /* \"#utility.yul\":2202:2542   */\n      swap3\n      swap2\n      pop\n      pop\n      jump\t// out\n        /* \"#utility.yul\":2548:3057   */\n    tag_13:\n        /* \"#utility.yul\":2617:2623   */\n      0x00\n        /* \"#utility.yul\":2666:2668   */\n      0x20\n        /* \"#utility.yul\":2654:2663   */\n      dup3\n        /* \"#utility.yul\":2645:2652   */\n      dup5\n        /* \"#utility.yul\":2641:2664   */\n      sub\n        /* \"#utility.yul\":2637:2669   */\n      slt\n        /* \"#utility.yul\":2634:2753   */\n      iszero\n      tag_149\n      jumpi\n        /* \"#utility.yul\":2672:2751   */\n      tag_150\n      tag_88\n      jump\t// in\n    tag_150:\n        /* \"#utility.yul\":2634:2753   */\n    tag_149:\n        /* \"#utility.yul\":2820:2821   */\n      0x00\n        /* \"#utility.yul\":2809:2818   */\n      dup3\n        /* \"#utility.yul\":2805:2822   */\n      add\n        /* \"#utility.yul\":2792:2823   */\n      calldataload\n        /* \"#utility.yul\":2850:2868   */\n      0xffffffffffffffff\n        /* \"#utility.yul\":2842:2848   */\n      dup2\n        /* \"#utility.yul\":2839:2869   */\n      gt\n        /* \"#utility.yul\":2836:2953   */\n      iszero\n      tag_151\n      jumpi\n        /* \"#utility.yul\":2872:2951   */\n      tag_152\n      tag_89\n      jump\t// in\n    tag_152:\n        /* \"#utility.yul\":2836:2953   */\n    tag_151:\n        /* \"#utility.yul\":2977:3040   */\n      tag_153\n        /* \"#utility.yul\":3032:3039   */\n      dup5\n        /* \"#utility.yul\":3023:3029   */\n      dup3\n        /* \"#utility.yul\":3012:3021   */\n      dup6\n        /* \"#utility.yul\":3008:3030   */\n      add\n        /* \"#utility.yul\":2977:3040   */\n      tag_99\n      jump\t// in\n    tag_153:\n        /* \"#utility.yul\":2967:3040   */\n      swap2\n      pop\n        /* \"#utility.yul\":2763:3050   */\n      pop\n        /* \"#utility.yul\":2548:3057   */\n      swap3\n      swap2\n      pop\n      pop\n      jump\t// out\n        /* \"#utility.yul\":3063:3162   */\n    tag_100:\n        /* \"#utility.yul\":3115:3121   */\n      0x00\n        /* \"#utility.yul\":3149:3154   */\n      dup2\n        /* \"#utility.yul\":3143:3155   */\n      mload\n        /* \"#utility.yul\":3133:3155   */\n      swap1\n      pop\n        /* \"#utility.yul\":3063:3162   */\n      swap2\n      swap1\n      pop\n      jump\t// out\n        /* \"#utility.yul\":3168:3337   */\n    tag_101:\n        /* \"#utility.yul\":3252:3263   */\n      0x00\n        /* \"#utility.yul\":3286:3292   */\n      dup3\n        /* \"#utility.yul\":3281:3284   */\n      dup3\n        /* \"#utility.yul\":3274:3293   */\n      mstore\n        /* \"#utility.yul\":3326:3330   */\n      0x20\n        /* \"#utility.yul\":3321:3324   */\n      dup3\n        /* \"#utility.yul\":3317:3331   */\n      add\n        /* \"#utility.yul\":3302:3331   */\n      swap1\n      pop\n        /* \"#utility.yul\":3168:3337   */\n      swap3\n      swap2\n      pop\n      pop\n      jump\t// out\n        /* \"#utility.yul\":3343:3650   */\n    tag_102:\n        /* \"#utility.yul\":3411:3412   */\n      0x00\n        /* \"#utility.yul\":3421:3534   */\n    tag_157:\n        /* \"#utility.yul\":3435:3441   */\n      dup4\n        /* \"#utility.yul\":3432:3433   */\n      dup2\n        /* \"#utility.yul\":3429:3442   */\n      lt\n        /* \"#utility.yul\":3421:3534   */\n      iszero\n      tag_159\n      jumpi\n        /* \"#utility.yul\":3520:3521   */\n      dup1\n        /* \"#utility.yul\":3515:3518   */\n      dup3\n        /* \"#utility.yul\":3511:3522   */\n      add\n        /* \"#utility.yul\":3505:3523   */\n      mload\n        /* \"#utility.yul\":3501:3502   */\n      dup2\n        /* \"#utility.yul\":3496:3499   */\n      dup5\n        /* \"#utility.yul\":3492:3503   */\n      add\n        /* \"#utility.yul\":3485:3524   */\n      mstore\n        /* \"#utility.yul\":3457:3459   */\n      0x20\n        /* \"#utility.yul\":3454:3455   */\n      dup2\n        /* \"#utility.yul\":3450:3460   */\n      add\n        /* \"#utility.yul\":3445:3460   */\n      swap1\n      pop\n        /* \"#utility.yul\":3421:3534   */\n      jump(tag_157)\n    tag_159:\n        /* \"#utility.yul\":3552:3558   */\n      dup4\n        /* \"#utility.yul\":3549:3550   */\n      dup2\n        /* \"#utility.yul\":3546:3559   */\n      gt\n        /* \"#utility.yul\":3543:3644   */\n      iszero\n      tag_160\n      jumpi\n        /* \"#utility.yul\":3632:3633   */\n      0x00\n        /* \"#utility.yul\":3623:3629   */\n      dup5\n        /* \"#utility.yul\":3618:3621   */\n      dup5\n        /* \"#utility.yul\":3614:3630   */\n      add\n        /* \"#utility.yul\":3607:3634   */\n      mstore\n        /* \"#utility.yul\":3543:3644   */\n    tag_160:\n        /* \"#utility.yul\":3392:3650   */\n      pop\n        /* \"#utility.yul\":3343:3650   */\n      pop\n      pop\n      pop\n      jump\t// out\n        /* \"#utility.yul\":3656:4020   */\n    tag_103:\n        /* \"#utility.yul\":3744:3747   */\n      0x00\n        /* \"#utility.yul\":3772:3811   */\n      tag_162\n        /* \"#utility.yul\":3805:3810   */\n      dup3\n        /* \"#utility.yul\":3772:3811   */\n      tag_100\n      jump\t// in\n    tag_162:\n        /* \"#utility.yul\":3827:3898   */\n      tag_163\n        /* \"#utility.yul\":3891:3897   */\n      dup2\n        /* \"#utility.yul\":3886:3889   */\n      dup6\n        /* \"#utility.yul\":3827:3898   */\n      tag_101\n      jump\t// in\n    tag_163:\n        /* \"#utility.yul\":3820:3898   */\n      swap4\n      pop\n        /* \"#utility.yul\":3907:3959   */\n      tag_164\n        /* \"#utility.yul\":3952:3958   */\n      dup2\n        /* \"#utility.yul\":3947:3950   */\n      dup6\n        /* \"#utility.yul\":3940:3944   */\n      0x20\n        /* \"#utility.yul\":3933:3938   */\n      dup7\n        /* \"#utility.yul\":3929:3945   */\n      add\n        /* \"#utility.yul\":3907:3959   */\n      tag_102\n      jump\t// in\n    tag_164:\n        /* \"#utility.yul\":3984:4013   */\n      tag_165\n        /* \"#utility.yul\":4006:4012   */\n      dup2\n        /* \"#utility.yul\":3984:4013   */\n      tag_92\n      jump\t// in\n    tag_165:\n        /* \"#utility.yul\":3979:3982   */\n      dup5\n        /* \"#utility.yul\":3975:4014   */\n      add\n        /* \"#utility.yul\":3968:4014   */\n      swap2\n      pop\n        /* \"#utility.yul\":3748:4020   */\n      pop\n        /* \"#utility.yul\":3656:4020   */\n      swap3\n      swap2\n      pop\n      pop\n      jump\t// out\n        /* \"#utility.yul\":4026:4339   */\n    tag_18:\n        /* \"#utility.yul\":4139:4143   */\n      0x00\n        /* \"#utility.yul\":4177:4179   */\n      0x20\n        /* \"#utility.yul\":4166:4175   */\n      dup3\n        /* \"#utility.yul\":4162:4180   */\n      add\n        /* \"#utility.yul\":4154:4180   */\n      swap1\n      pop\n        /* \"#utility.yul\":4226:4235   */\n      dup2\n        /* \"#utility.yul\":4220:4224   */\n      dup2\n        /* \"#utility.yul\":4216:4236   */\n      sub\n        /* \"#utility.yul\":4212:4213   */\n      0x00\n        /* \"#utility.yul\":4201:4210   */\n      dup4\n        /* \"#utility.yul\":4197:4214   */\n      add\n        /* \"#utility.yul\":4190:4237   */\n      mstore\n        /* \"#utility.yul\":4254:4332   */\n      tag_167\n        /* \"#utility.yul\":4327:4331   */\n      dup2\n        /* \"#utility.yul\":4318:4324   */\n      dup5\n        /* \"#utility.yul\":4254:4332   */\n      tag_103\n      jump\t// in\n    tag_167:\n        /* \"#utility.yul\":4246:4332   */\n      swap1\n      pop\n        /* \"#utility.yul\":4026:4339   */\n      swap3\n      swap2\n      pop\n      pop\n      jump\t// out\n        /* \"#utility.yul\":4345:4471   */\n    tag_104:\n        /* \"#utility.yul\":4382:4389   */\n      0x00\n        /* \"#utility.yul\":4422:4464   */\n      0xffffffffffffffffffffffffffffffffffffffff\n        /* \"#utility.yul\":4415:4420   */\n      dup3\n        /* \"#utility.yul\":4411:4465   */\n      and\n        /* \"#utility.yul\":4400:4465   */\n      swap1\n      pop\n        /* \"#utility.yul\":4345:4471   */\n      swap2\n      swap1\n      pop\n      jump\t// out\n        /* \"#utility.yul\":4477:4573   */\n    tag_105:\n        /* \"#utility.yul\":4514:4521   */\n      0x00\n        /* \"#utility.yul\":4543:4567   */\n      tag_170\n        /* \"#utility.yul\":4561:4566   */\n      dup3\n        /* \"#utility.yul\":4543:4567   */\n      tag_104\n      jump\t// in\n    tag_170:\n        /* \"#utility.yul\":4532:4567   */\n      swap1\n      pop\n        /* \"#utility.yul\":4477:4573   */\n      swap2\n      swap1\n      pop\n      jump\t// out\n        /* \"#utility.yul\":4579:4701   */\n    tag_106:\n        /* \"#utility.yul\":4652:4676   */\n      tag_172\n        /* \"#utility.yul\":4670:4675   */\n      dup2\n        /* \"#utility.yul\":4652:4676   */\n      tag_105\n      jump\t// in\n    tag_172:\n        /* \"#utility.yul\":4645:4650   */\n      dup2\n        /* \"#utility.yul\":4642:4677   */\n      eq\n        /* \"#utility.yul\":4632:4695   */\n      tag_173\n      jumpi\n        /* \"#utility.yul\":4691:4692   */\n      0x00\n        /* \"#utility.yul\":4688:4689   */\n      dup1\n        /* \"#utility.yul\":4681:4693   */\n      revert\n        /* \"#utility.yul\":4632:4695   */\n    tag_173:\n        /* \"#utility.yul\":4579:4701   */\n      pop\n      jump\t// out\n        /* \"#utility.yul\":4707:4846   */\n    tag_107:\n        /* \"#utility.yul\":4753:4758   */\n      0x00\n        /* \"#utility.yul\":4791:4797   */\n      dup2\n        /* \"#utility.yul\":4778:4798   */\n      calldataload\n        /* \"#utility.yul\":4769:4798   */\n      swap1\n      pop\n        /* \"#utility.yul\":4807:4840   */\n      tag_175\n        /* \"#utility.yul\":4834:4839   */\n      dup2\n        /* \"#utility.yul\":4807:4840   */\n      tag_106\n      jump\t// in\n    tag_175:\n        /* \"#utility.yul\":4707:4846   */\n      swap3\n      swap2\n      pop\n      pop\n      jump\t// out\n        /* \"#utility.yul\":4852:5181   */\n    tag_24:\n        /* \"#utility.yul\":4911:4917   */\n      0x00\n        /* \"#utility.yul\":4960:4962   */\n      0x20\n        /* \"#utility.yul\":4948:4957   */\n      dup3\n        /* \"#utility.yul\":4939:4946   */\n      dup5\n        /* \"#utility.yul\":4935:4958   */\n      sub\n        /* \"#utility.yul\":4931:4963   */\n      slt\n        /* \"#utility.yul\":4928:5047   */\n      iszero\n      tag_177\n      jumpi\n        /* \"#utility.yul\":4966:5045   */\n      tag_178\n      tag_88\n      jump\t// in\n    tag_178:\n        /* \"#utility.yul\":4928:5047   */\n    tag_177:\n        /* \"#utility.yul\":5086:5087   */\n      0x00\n        /* \"#utility.yul\":5111:5164   */\n      tag_179\n        /* \"#utility.yul\":5156:5163   */\n      dup5\n        /* \"#utility.yul\":5147:5153   */\n      dup3\n        /* \"#utility.yul\":5136:5145   */\n      dup6\n        /* \"#utility.yul\":5132:5154   */\n      add\n        /* \"#utility.yul\":5111:5164   */\n      tag_107\n      jump\t// in\n    tag_179:\n        /* \"#utility.yul\":5101:5164   */\n      swap2\n      pop\n        /* \"#utility.yul\":5057:5174   */\n      pop\n        /* \"#utility.yul\":4852:5181   */\n      swap3\n      swap2\n      pop\n      pop\n      jump\t// out\n        /* \"#utility.yul\":5187:5264   */\n    tag_108:\n        /* \"#utility.yul\":5224:5231   */\n      0x00\n        /* \"#utility.yul\":5253:5258   */\n      dup2\n        /* \"#utility.yul\":5242:5258   */\n      swap1\n      pop\n        /* \"#utility.yul\":5187:5264   */\n      swap2\n      swap1\n      pop\n      jump\t// out\n        /* \"#utility.yul\":5270:5388   */\n    tag_109:\n        /* \"#utility.yul\":5357:5381   */\n      tag_182\n        /* \"#utility.yul\":5375:5380   */\n      dup2\n        /* \"#utility.yul\":5357:5381   */\n      tag_108\n      jump\t// in\n    tag_182:\n        /* \"#utility.yul\":5352:5355   */\n      dup3\n        /* \"#utility.yul\":5345:5382   */\n      mstore\n        /* \"#utility.yul\":5270:5388   */\n      pop\n      pop\n      jump\t// out\n        /* \"#utility.yul\":5394:5616   */\n    tag_27:\n        /* \"#utility.yul\":5487:5491   */\n      0x00\n        /* \"#utility.yul\":5525:5527   */\n      0x20\n        /* \"#utility.yul\":5514:5523   */\n      dup3\n        /* \"#utility.yul\":5510:5528   */\n      add\n        /* \"#utility.yul\":5502:5528   */\n      swap1\n      pop\n        /* \"#utility.yul\":5538:5609   */\n      tag_184\n        /* \"#utility.yul\":5606:5607   */\n      0x00\n        /* \"#utility.yul\":5595:5604   */\n      dup4\n        /* \"#utility.yul\":5591:5608   */\n      add\n        /* \"#utility.yul\":5582:5588   */\n      dup5\n        /* \"#utility.yul\":5538:5609   */\n      tag_109\n      jump\t// in\n    tag_184:\n        /* \"#utility.yul\":5394:5616   */\n      swap3\n      swap2\n      pop\n      pop\n      jump\t// out\n        /* \"#utility.yul\":5622:5744   */\n    tag_110:\n        /* \"#utility.yul\":5695:5719   */\n      tag_186\n        /* \"#utility.yul\":5713:5718   */\n      dup2\n        /* \"#utility.yul\":5695:5719   */\n      tag_108\n      jump\t// in\n    tag_186:\n        /* \"#utility.yul\":5688:5693   */\n      dup2\n        /* \"#utility.yul\":5685:5720   */\n      eq\n        /* \"#utility.yul\":5675:5738   */\n      tag_187\n      jumpi\n        /* \"#utility.yul\":5734:5735   */\n      0x00\n        /* \"#utility.yul\":5731:5732   */\n      dup1\n        /* \"#utility.yul\":5724:5736   */\n      revert\n        /* \"#utility.yul\":5675:5738   */\n    tag_187:\n        /* \"#utility.yul\":5622:5744   */\n      pop\n      jump\t// out\n        /* \"#utility.yul\":5750:5889   */\n    tag_111:\n        /* \"#utility.yul\":5796:5801   */\n      0x00\n        /* \"#utility.yul\":5834:5840   */\n      dup2\n        /* \"#utility.yul\":5821:5841   */\n      calldataload\n        /* \"#utility.yul\":5812:5841   */\n      swap1\n      pop\n        /* \"#utility.yul\":5850:5883   */\n      tag_189\n        /* \"#utility.yul\":5877:5882   */\n      dup2\n        /* \"#utility.yul\":5850:5883   */\n      tag_110\n      jump\t// in\n    tag_189:\n        /* \"#utility.yul\":5750:5889   */\n      swap3\n      swap2\n      pop\n      pop\n      jump\t// out\n        /* \"#utility.yul\":5895:6369   */\n    tag_30:\n        /* \"#utility.yul\":5963:5969   */\n      0x00\n        /* \"#utility.yul\":5971:5977   */\n      dup1\n        /* \"#utility.yul\":6020:6022   */\n      0x40\n        /* \"#utility.yul\":6008:6017   */\n      dup4\n        /* \"#utility.yul\":5999:6006   */\n      dup6\n        /* \"#utility.yul\":5995:6018   */\n      sub\n        /* \"#utility.yul\":5991:6023   */\n      slt\n        /* \"#utility.yul\":5988:6107   */\n      iszero\n      tag_191\n      jumpi\n        /* \"#utility.yul\":6026:6105   */\n      tag_192\n      tag_88\n      jump\t// in\n    tag_192:\n        /* \"#utility.yul\":5988:6107   */\n    tag_191:\n        /* \"#utility.yul\":6146:6147   */\n      0x00\n        /* \"#utility.yul\":6171:6224   */\n      tag_193\n        /* \"#utility.yul\":6216:6223   */\n      dup6\n        /* \"#utility.yul\":6207:6213   */\n      dup3\n        /* \"#utility.yul\":6196:6205   */\n      dup7\n        /* \"#utility.yul\":6192:6214   */\n      add\n        /* \"#utility.yul\":6171:6224   */\n      tag_107\n      jump\t// in\n    tag_193:\n        /* \"#utility.yul\":6161:6224   */\n      swap3\n      pop\n        /* \"#utility.yul\":6117:6234   */\n      pop\n        /* \"#utility.yul\":6273:6275   */\n      0x20\n        /* \"#utility.yul\":6299:6352   */\n      tag_194\n        /* \"#utility.yul\":6344:6351   */\n      dup6\n        /* \"#utility.yul\":6335:6341   */\n      dup3\n        /* \"#utility.yul\":6324:6333   */\n      dup7\n        /* \"#utility.yul\":6320:6342   */\n      add\n        /* \"#utility.yul\":6299:6352   */\n      tag_111\n      jump\t// in\n    tag_194:\n        /* \"#utility.yul\":6289:6352   */\n      swap2\n      pop\n        /* \"#utility.yul\":6244:6362   */\n      pop\n        /* \"#utility.yul\":5895:6369   */\n      swap3\n      pop\n      swap3\n      swap1\n      pop\n      jump\t// out\n        /* \"#utility.yul\":6375:6555   */\n    tag_112:\n        /* \"#utility.yul\":6423:6500   */\n      0x4e487b7100000000000000000000000000000000000000000000000000000000\n        /* \"#utility.yul\":6420:6421   */\n      0x00\n        /* \"#utility.yul\":6413:6501   */\n      mstore\n        /* \"#utility.yul\":6520:6524   */\n      0x22\n        /* \"#utility.yul\":6517:6518   */\n      0x04\n        /* \"#utility.yul\":6510:6525   */\n      mstore\n        /* \"#utility.yul\":6544:6548   */\n      0x24\n        /* \"#utility.yul\":6541:6542   */\n      0x00\n        /* \"#utility.yul\":6534:6549   */\n      revert\n        /* \"#utility.yul\":6561:6881   */\n    tag_44:\n        /* \"#utility.yul\":6605:6611   */\n      0x00\n        /* \"#utility.yul\":6642:6643   */\n      0x02\n        /* \"#utility.yul\":6636:6640   */\n      dup3\n        /* \"#utility.yul\":6632:6644   */\n      div\n        /* \"#utility.yul\":6622:6644   */\n      swap1\n      pop\n        /* \"#utility.yul\":6689:6690   */\n      0x01\n        /* \"#utility.yul\":6683:6687   */\n      dup3\n        /* \"#utility.yul\":6679:6691   */\n      and\n        /* \"#utility.yul\":6710:6728   */\n      dup1\n        /* \"#utility.yul\":6700:6781   */\n      tag_197\n      jumpi\n        /* \"#utility.yul\":6766:6770   */\n      0x7f\n        /* \"#utility.yul\":6758:6764   */\n      dup3\n        /* \"#utility.yul\":6754:6771   */\n      and\n        /* \"#utility.yul\":6744:6771   */\n      swap2\n      pop\n        /* \"#utility.yul\":6700:6781   */\n    tag_197:\n        /* \"#utility.yul\":6828:6830   */\n      0x20\n        /* \"#utility.yul\":6820:6826   */\n      dup3\n        /* \"#utility.yul\":6817:6831   */\n      lt\n        /* \"#utility.yul\":6797:6815   */\n      dup2\n        /* \"#utility.yul\":6794:6832   */\n      sub\n        /* \"#utility.yul\":6791:6875   */\n      tag_198\n      jumpi\n        /* \"#utility.yul\":6847:6865   */\n      tag_199\n      tag_112\n      jump\t// in\n    tag_199:\n        /* \"#utility.yul\":6791:6875   */\n    tag_198:\n        /* \"#utility.yul\":6612:6881   */\n      pop\n        /* \"#utility.yul\":6561:6881   */\n      swap2\n      swap1\n      pop\n      jump\t// out\n        /* \"#utility.yul\":6887:7066   */\n    tag_113:\n        /* \"#utility.yul\":7027:7058   */\n      0x496e73756666696369656e742066756e6420746f207472616e73666572000000\n        /* \"#utility.yul\":7023:7024   */\n      0x00\n        /* \"#utility.yul\":7015:7021   */\n      dup3\n        /* \"#utility.yul\":7011:7025   */\n      add\n        /* \"#utility.yul\":7004:7059   */\n      mstore\n        /* \"#utility.yul\":6887:7066   */\n      pop\n      jump\t// out\n        /* \"#utility.yul\":7072:7438   */\n    tag_114:\n        /* \"#utility.yul\":7214:7217   */\n      0x00\n        /* \"#utility.yul\":7235:7302   */\n      tag_202\n        /* \"#utility.yul\":7299:7301   */\n      0x1d\n        /* \"#utility.yul\":7294:7297   */\n      dup4\n        /* \"#utility.yul\":7235:7302   */\n      tag_101\n      jump\t// in\n    tag_202:\n        /* \"#utility.yul\":7228:7302   */\n      swap2\n      pop\n        /* \"#utility.yul\":7311:7404   */\n      tag_203\n        /* \"#utility.yul\":7400:7403   */\n      dup3\n        /* \"#utility.yul\":7311:7404   */\n      tag_113\n      jump\t// in\n    tag_203:\n        /* \"#utility.yul\":7429:7431   */\n      0x20\n        /* \"#utility.yul\":7424:7427   */\n      dup3\n        /* \"#utility.yul\":7420:7432   */\n      add\n        /* \"#utility.yul\":7413:7432   */\n      swap1\n      pop\n        /* \"#utility.yul\":7072:7438   */\n      swap2\n      swap1\n      pop\n      jump\t// out\n        /* \"#utility.yul\":7444:7863   */\n    tag_59:\n        /* \"#utility.yul\":7610:7614   */\n      0x00\n        /* \"#utility.yul\":7648:7650   */\n      0x20\n        /* \"#utility.yul\":7637:7646   */\n      dup3\n        /* \"#utility.yul\":7633:7651   */\n      add\n        /* \"#utility.yul\":7625:7651   */\n      swap1\n      pop\n        /* \"#utility.yul\":7697:7706   */\n      dup2\n        /* \"#utility.yul\":7691:7695   */\n      dup2\n        /* \"#utility.yul\":7687:7707   */\n      sub\n        /* \"#utility.yul\":7683:7684   */\n      0x00\n        /* \"#utility.yul\":7672:7681   */\n      dup4\n        /* \"#utility.yul\":7668:7685   */\n      add\n        /* \"#utility.yul\":7661:7708   */\n      mstore\n        /* \"#utility.yul\":7725:7856   */\n      tag_205\n        /* \"#utility.yul\":7851:7855   */\n      dup2\n        /* \"#utility.yul\":7725:7856   */\n      tag_114\n      jump\t// in\n    tag_205:\n        /* \"#utility.yul\":7717:7856   */\n      swap1\n      pop\n        /* \"#utility.yul\":7444:7863   */\n      swap2\n      swap1\n      pop\n      jump\t// out\n        /* \"#utility.yul\":7869:8046   */\n    tag_115:\n        /* \"#utility.yul\":8009:8038   */\n      0x596f752063616e6e6f742073656e6420746f20796f757273656c660000000000\n        /* \"#utility.yul\":8005:8006   */\n      0x00\n        /* \"#utility.yul\":7997:8003   */\n      dup3\n        /* \"#utility.yul\":7993:8007   */\n      add\n        /* \"#utility.yul\":7986:8039   */\n      mstore\n        /* \"#utility.yul\":7869:8046   */\n      pop\n      jump\t// out\n        /* \"#utility.yul\":8052:8418   */\n    tag_116:\n        /* \"#utility.yul\":8194:8197   */\n      0x00\n        /* \"#utility.yul\":8215:8282   */\n      tag_208\n        /* \"#utility.yul\":8279:8281   */\n      0x1b\n        /* \"#utility.yul\":8274:8277   */\n      dup4\n        /* \"#utility.yul\":8215:8282   */\n      tag_101\n      jump\t// in\n    tag_208:\n        /* \"#utility.yul\":8208:8282   */\n      swap2\n      pop\n        /* \"#utility.yul\":8291:8384   */\n      tag_209\n        /* \"#utility.yul\":8380:8383   */\n      dup3\n        /* \"#utility.yul\":8291:8384   */\n      tag_115\n      jump\t// in\n    tag_209:\n        /* \"#utility.yul\":8409:8411   */\n      0x20\n        /* \"#utility.yul\":8404:8407   */\n      dup3\n        /* \"#utility.yul\":8400:8412   */\n      add\n        /* \"#utility.yul\":8393:8412   */\n      swap1\n      pop\n        /* \"#utility.yul\":8052:8418   */\n      swap2\n      swap1\n      pop\n      jump\t// out\n        /* \"#utility.yul\":8424:8843   */\n    tag_62:\n        /* \"#utility.yul\":8590:8594   */\n      0x00\n        /* \"#utility.yul\":8628:8630   */\n      0x20\n        /* \"#utility.yul\":8617:8626   */\n      dup3\n        /* \"#utility.yul\":8613:8631   */\n      add\n        /* \"#utility.yul\":8605:8631   */\n      swap1\n      pop\n        /* \"#utility.yul\":8677:8686   */\n      dup2\n        /* \"#utility.yul\":8671:8675   */\n      dup2\n        /* \"#utility.yul\":8667:8687   */\n      sub\n        /* \"#utility.yul\":8663:8664   */\n      0x00\n        /* \"#utility.yul\":8652:8661   */\n      dup4\n        /* \"#utility.yul\":8648:8665   */\n      add\n        /* \"#utility.yul\":8641:8688   */\n      mstore\n        /* \"#utility.yul\":8705:8836   */\n      tag_211\n        /* \"#utility.yul\":8831:8835   */\n      dup2\n        /* \"#utility.yul\":8705:8836   */\n      tag_116\n      jump\t// in\n    tag_211:\n        /* \"#utility.yul\":8697:8836   */\n      swap1\n      pop\n        /* \"#utility.yul\":8424:8843   */\n      swap2\n      swap1\n      pop\n      jump\t// out\n        /* \"#utility.yul\":8849:9029   */\n    tag_117:\n        /* \"#utility.yul\":8897:8974   */\n      0x4e487b7100000000000000000000000000000000000000000000000000000000\n        /* \"#utility.yul\":8894:8895   */\n      0x00\n        /* \"#utility.yul\":8887:8975   */\n      mstore\n        /* \"#utility.yul\":8994:8998   */\n      0x11\n        /* \"#utility.yul\":8991:8992   */\n      0x04\n        /* \"#utility.yul\":8984:8999   */\n      mstore\n        /* \"#utility.yul\":9018:9022   */\n      0x24\n        /* \"#utility.yul\":9015:9016   */\n      0x00\n        /* \"#utility.yul\":9008:9023   */\n      revert\n        /* \"#utility.yul\":9035:9226   */\n    tag_64:\n        /* \"#utility.yul\":9075:9079   */\n      0x00\n        /* \"#utility.yul\":9095:9115   */\n      tag_214\n        /* \"#utility.yul\":9113:9114   */\n      dup3\n        /* \"#utility.yul\":9095:9115   */\n      tag_108\n      jump\t// in\n    tag_214:\n        /* \"#utility.yul\":9090:9115   */\n      swap2\n      pop\n        /* \"#utility.yul\":9129:9149   */\n      tag_215\n        /* \"#utility.yul\":9147:9148   */\n      dup4\n        /* \"#utility.yul\":9129:9149   */\n      tag_108\n      jump\t// in\n    tag_215:\n        /* \"#utility.yul\":9124:9149   */\n      swap3\n      pop\n        /* \"#utility.yul\":9168:9169   */\n      dup3\n        /* \"#utility.yul\":9165:9166   */\n      dup3\n        /* \"#utility.yul\":9162:9170   */\n      lt\n        /* \"#utility.yul\":9159:9193   */\n      iszero\n      tag_216\n      jumpi\n        /* \"#utility.yul\":9173:9191   */\n      tag_217\n      tag_117\n      jump\t// in\n    tag_217:\n        /* \"#utility.yul\":9159:9193   */\n    tag_216:\n        /* \"#utility.yul\":9218:9219   */\n      dup3\n        /* \"#utility.yul\":9215:9216   */\n      dup3\n        /* \"#utility.yul\":9211:9220   */\n      sub\n        /* \"#utility.yul\":9203:9220   */\n      swap1\n      pop\n        /* \"#utility.yul\":9035:9226   */\n      swap3\n      swap2\n      pop\n      pop\n      jump\t// out\n        /* \"#utility.yul\":9232:9537   */\n    tag_66:\n        /* \"#utility.yul\":9272:9275   */\n      0x00\n        /* \"#utility.yul\":9291:9311   */\n      tag_219\n        /* \"#utility.yul\":9309:9310   */\n      dup3\n        /* \"#utility.yul\":9291:9311   */\n      tag_108\n      jump\t// in\n    tag_219:\n        /* \"#utility.yul\":9286:9311   */\n      swap2\n      pop\n        /* \"#utility.yul\":9325:9345   */\n      tag_220\n        /* \"#utility.yul\":9343:9344   */\n      dup4\n        /* \"#utility.yul\":9325:9345   */\n      tag_108\n      jump\t// in\n    tag_220:\n        /* \"#utility.yul\":9320:9345   */\n      swap3\n      pop\n        /* \"#utility.yul\":9479:9480   */\n      dup3\n        /* \"#utility.yul\":9411:9477   */\n      0xffffffffffffffffffffffffffffffffffffffffffffffffffffffffffffffff\n        /* \"#utility.yul\":9407:9481   */\n      sub\n        /* \"#utility.yul\":9404:9405   */\n      dup3\n        /* \"#utility.yul\":9401:9482   */\n      gt\n        /* \"#utility.yul\":9398:9505   */\n      iszero\n      tag_221\n      jumpi\n        /* \"#utility.yul\":9485:9503   */\n      tag_222\n      tag_117\n      jump\t// in\n    tag_222:\n        /* \"#utility.yul\":9398:9505   */\n    tag_221:\n        /* \"#utility.yul\":9529:9530   */\n      dup3\n        /* \"#utility.yul\":9526:9527   */\n      dup3\n        /* \"#utility.yul\":9522:9531   */\n      add\n        /* \"#utility.yul\":9515:9531   */\n      swap1\n      pop\n        /* \"#utility.yul\":9232:9537   */\n      swap3\n      swap2\n      pop\n      pop\n      jump\t// out\n\n    auxdata: 0xa2646970667358221220d556508cd13255052fc7e9264e946b4b365a6d956ccf7e2a13b0555801e8768a64736f6c634300080e0033\n}\n",
				"bytecode": {
					"linkReferences": {},
					"object": "60806040523480156200001157600080fd5b50604051620010d9380380620010d9833981810160405281019062000037919062000344565b82600290805190602001906200004f929190620000bc565b50816003908051906020019062000068929190620000bc565b5080600481905550806000803373ffffffffffffffffffffffffffffffffffffffff1673ffffffffffffffffffffffffffffffffffffffff1681526020019081526020016000208190555050505062000442565b828054620000ca906200040d565b90600052602060002090601f016020900481019282620000ee57600085556200013a565b82601f106200010957805160ff19168380011785556200013a565b828001600101855582156200013a579182015b82811115620001395782518255916020019190600101906200011c565b5b5090506200014991906200014d565b5090565b5b80821115620001685760008160009055506001016200014e565b5090565b6000604051905090565b600080fd5b600080fd5b600080fd5b600080fd5b6000601f19601f8301169050919050565b7f4e487b7100000000000000000000000000000000000000000000000000000000600052604160045260246000fd5b620001d5826200018a565b810181811067ffffffffffffffff82111715620001f757620001f66200019b565b5b80604052505050565b60006200020c6200016c565b90506200021a8282620001ca565b919050565b600067ffffffffffffffff8211156200023d576200023c6200019b565b5b62000248826200018a565b9050602081019050919050565b60005b838110156200027557808201518184015260208101905062000258565b8381111562000285576000848401525b50505050565b6000620002a26200029c846200021f565b62000200565b905082815260208101848484011115620002c157620002c062000185565b5b620002ce84828562000255565b509392505050565b600082601f830112620002ee57620002ed62000180565b5b8151620003008482602086016200028b565b91505092915050565b6000819050919050565b6200031e8162000309565b81146200032a57600080fd5b50565b6000815190506200033e8162000313565b92915050565b60008060006060848603121562000360576200035f62000176565b5b600084015167ffffffffffffffff8111156200038157620003806200017b565b5b6200038f86828701620002d6565b935050602084015167ffffffffffffffff811115620003b357620003b26200017b565b5b620003c186828701620002d6565b9250506040620003d4868287016200032d565b9150509250925092565b7f4e487b7100000000000000000000000000000000000000000000000000000000600052602260045260246000fd5b600060028204905060018216806200042657607f821691505b6020821081036200043c576200043b620003de565b5b50919050565b610c8780620004526000396000f3fe608060405234801561001057600080fd5b506004361061007d5760003560e01c806370a082311161005b57806370a08231146100da578063a9059cbb1461010a578063a967028a14610126578063c4e41b22146101565761007d565b80630bdfeca514610082578063150704011461009e57806317d7de7c146100bc575b600080fd5b61009c60048036038101906100979190610842565b610174565b005b6100a66101cb565b6040516100b39190610913565b60405180910390f35b6100c461025d565b6040516100d19190610913565b60405180910390f35b6100f460048036038101906100ef9190610993565b6102ef565b60405161010191906109d9565b60405180910390f35b610124600480360381019061011f9190610a20565b610337565b005b610140600480360381019061013b9190610993565b6104d9565b60405161014d9190610913565b60405180910390f35b61015e61063b565b60405161016b91906109d9565b60405180910390f35b80600160003373ffffffffffffffffffffffffffffffffffffffff1673ffffffffffffffffffffffffffffffffffffffff16815260200190815260200160002090805190602001906101c7929190610645565b5050565b6060600380546101da90610a8f565b80601f016020809104026020016040519081016040528092919081815260200182805461020690610a8f565b80156102535780601f1061022857610100808354040283529160200191610253565b820191906000526020600020905b81548152906001019060200180831161023657829003601f168201915b5050505050905090565b60606002805461026c90610a8f565b80601f016020809104026020016040519081016040528092919081815260200182805461029890610a8f565b80156102e55780601f106102ba576101008083540402835291602001916102e5565b820191906000526020600020905b8154815290600101906020018083116102c857829003601f168201915b5050505050905090565b60008060008373ffffffffffffffffffffffffffffffffffffffff1673ffffffffffffffffffffffffffffffffffffffff168152602001908152602001600020549050919050565b600033905060008060008373ffffffffffffffffffffffffffffffffffffffff1673ffffffffffffffffffffffffffffffffffffffff168152602001908152602001600020549050828110156103c2576040517f08c379a00000000000000000000000000000000000000000000000000000000081526004016103b990610b0c565b60405180910390fd5b8173ffffffffffffffffffffffffffffffffffffffff168473ffffffffffffffffffffffffffffffffffffffff1603610430576040517f08c379a000000000000000000000000000000000000000000000000000000000815260040161042790610b78565b60405180910390fd5b828161043c9190610bc7565b6000808473ffffffffffffffffffffffffffffffffffffffff1673ffffffffffffffffffffffffffffffffffffffff16815260200190815260200160002081905550826000808673ffffffffffffffffffffffffffffffffffffffff1673ffffffffffffffffffffffffffffffffffffffff16815260200190815260200160002060008282546104cc9190610bfb565b9250508190555050505050565b60606000600160008473ffffffffffffffffffffffffffffffffffffffff1673ffffffffffffffffffffffffffffffffffffffff168152602001908152602001600020805461052790610a8f565b9050146105fd57600160008373ffffffffffffffffffffffffffffffffffffffff1673ffffffffffffffffffffffffffffffffffffffff168152602001908152602001600020805461057890610a8f565b80601f01602080910402602001604051908101604052809291908181526020018280546105a490610a8f565b80156105f15780601f106105c6576101008083540402835291602001916105f1565b820191906000526020600020905b8154815290600101906020018083116105d457829003601f168201915b50505050509050610636565b6040518060400160405280600b81526020017f4e6f20757365726e616d6500000000000000000000000000000000000000000081525090505b919050565b6000600454905090565b82805461065190610a8f565b90600052602060002090601f01602090048101928261067357600085556106ba565b82601f1061068c57805160ff19168380011785556106ba565b828001600101855582156106ba579182015b828111156106b957825182559160200191906001019061069e565b5b5090506106c791906106cb565b5090565b5b808211156106e45760008160009055506001016106cc565b5090565b6000604051905090565b600080fd5b600080fd5b600080fd5b600080fd5b6000601f19601f8301169050919050565b7f4e487b7100000000000000000000000000000000000000000000000000000000600052604160045260246000fd5b61074f82610706565b810181811067ffffffffffffffff8211171561076e5761076d610717565b5b80604052505050565b60006107816106e8565b905061078d8282610746565b919050565b600067ffffffffffffffff8211156107ad576107ac610717565b5b6107b682610706565b9050602081019050919050565b82818337600083830152505050565b60006107e56107e084610792565b610777565b90508281526020810184848401111561080157610800610701565b5b61080c8482856107c3565b509392505050565b600082601f830112610829576108286106fc565b5b81356108398482602086016107d2565b91505092915050565b600060208284031215610858576108576106f2565b5b600082013567ffffffffffffffff811115610876576108756106f7565b5b61088284828501610814565b91505092915050565b600081519050919050565b600082825260208201905092915050565b60005b838110156108c55780820151818401526020810190506108aa565b838111156108d4576000848401525b50505050565b60006108e58261088b565b6108ef8185610896565b93506108ff8185602086016108a7565b61090881610706565b840191505092915050565b6000602082019050818103600083015261092d81846108da565b905092915050565b600073ffffffffffffffffffffffffffffffffffffffff82169050919050565b600061096082610935565b9050919050565b61097081610955565b811461097b57600080fd5b50565b60008135905061098d81610967565b92915050565b6000602082840312156109a9576109a86106f2565b5b60006109b78482850161097e565b91505092915050565b6000819050919050565b6109d3816109c0565b82525050565b60006020820190506109ee60008301846109ca565b92915050565b6109fd816109c0565b8114610a0857600080fd5b50565b600081359050610a1a816109f4565b92915050565b60008060408385031215610a3757610a366106f2565b5b6000610a458582860161097e565b9250506020610a5685828601610a0b565b9150509250929050565b7f4e487b7100000000000000000000000000000000000000000000000000000000600052602260045260246000fd5b60006002820490506001821680610aa757607f821691505b602082108103610aba57610ab9610a60565b5b50919050565b7f496e73756666696369656e742066756e6420746f207472616e73666572000000600082015250565b6000610af6601d83610896565b9150610b0182610ac0565b602082019050919050565b60006020820190508181036000830152610b2581610ae9565b9050919050565b7f596f752063616e6e6f742073656e6420746f20796f757273656c660000000000600082015250565b6000610b62601b83610896565b9150610b6d82610b2c565b602082019050919050565b60006020820190508181036000830152610b9181610b55565b9050919050565b7f4e487b7100000000000000000000000000000000000000000000000000000000600052601160045260246000fd5b6000610bd2826109c0565b9150610bdd836109c0565b925082821015610bf057610bef610b98565b5b828203905092915050565b6000610c06826109c0565b9150610c11836109c0565b9250827fffffffffffffffffffffffffffffffffffffffffffffffffffffffffffffffff03821115610c4657610c45610b98565b5b82820190509291505056fea2646970667358221220d556508cd13255052fc7e9264e946b4b365a6d956ccf7e2a13b0555801e8768a64736f6c634300080e0033",
					"opcodes": "PUSH1 0x80 PUSH1 0x40 MSTORE CALLVALUE DUP1 ISZERO PUSH3 0x11 JUMPI PUSH1 0x0 DUP1 REVERT JUMPDEST POP PUSH1 0x40 MLOAD PUSH3 0x10D9 CODESIZE SUB DUP1 PUSH3 0x10D9 DUP4 CODECOPY DUP2 DUP2 ADD PUSH1 0x40 MSTORE DUP2 ADD SWAP1 PUSH3 0x37 SWAP2 SWAP1 PUSH3 0x344 JUMP JUMPDEST DUP3 PUSH1 0x2 SWAP1 DUP1 MLOAD SWAP1 PUSH1 0x20 ADD SWAP1 PUSH3 0x4F SWAP3 SWAP2 SWAP1 PUSH3 0xBC JUMP JUMPDEST POP DUP2 PUSH1 0x3 SWAP1 DUP1 MLOAD SWAP1 PUSH1 0x20 ADD SWAP1 PUSH3 0x68 SWAP3 SWAP2 SWAP1 PUSH3 0xBC JUMP JUMPDEST POP DUP1 PUSH1 0x4 DUP2 SWAP1 SSTORE POP DUP1 PUSH1 0x0 DUP1 CALLER PUSH20 0xFFFFFFFFFFFFFFFFFFFFFFFFFFFFFFFFFFFFFFFF AND PUSH20 0xFFFFFFFFFFFFFFFFFFFFFFFFFFFFFFFFFFFFFFFF AND DUP2 MSTORE PUSH1 0x20 ADD SWAP1 DUP2 MSTORE PUSH1 0x20 ADD PUSH1 0x0 KECCAK256 DUP2 SWAP1 SSTORE POP POP POP POP PUSH3 0x442 JUMP JUMPDEST DUP3 DUP1 SLOAD PUSH3 0xCA SWAP1 PUSH3 0x40D JUMP JUMPDEST SWAP1 PUSH1 0x0 MSTORE PUSH1 0x20 PUSH1 0x0 KECCAK256 SWAP1 PUSH1 0x1F ADD PUSH1 0x20 SWAP1 DIV DUP2 ADD SWAP3 DUP3 PUSH3 0xEE JUMPI PUSH1 0x0 DUP6 SSTORE PUSH3 0x13A JUMP JUMPDEST DUP3 PUSH1 0x1F LT PUSH3 0x109 JUMPI DUP1 MLOAD PUSH1 0xFF NOT AND DUP4 DUP1 ADD OR DUP6 SSTORE PUSH3 0x13A JUMP JUMPDEST DUP3 DUP1 ADD PUSH1 0x1 ADD DUP6 SSTORE DUP3 ISZERO PUSH3 0x13A JUMPI SWAP2 DUP3 ADD JUMPDEST DUP3 DUP2 GT ISZERO PUSH3 0x139 JUMPI DUP3 MLOAD DUP3 SSTORE SWAP2 PUSH1 0x20 ADD SWAP2 SWAP1 PUSH1 0x1 ADD SWAP1 PUSH3 0x11C JUMP JUMPDEST JUMPDEST POP SWAP1 POP PUSH3 0x149 SWAP2 SWAP1 PUSH3 0x14D JUMP JUMPDEST POP SWAP1 JUMP JUMPDEST JUMPDEST DUP1 DUP3 GT ISZERO PUSH3 0x168 JUMPI PUSH1 0x0 DUP2 PUSH1 0x0 SWAP1 SSTORE POP PUSH1 0x1 ADD PUSH3 0x14E JUMP JUMPDEST POP SWAP1 JUMP JUMPDEST PUSH1 0x0 PUSH1 0x40 MLOAD SWAP1 POP SWAP1 JUMP JUMPDEST PUSH1 0x0 DUP1 REVERT JUMPDEST PUSH1 0x0 DUP1 REVERT JUMPDEST PUSH1 0x0 DUP1 REVERT JUMPDEST PUSH1 0x0 DUP1 REVERT JUMPDEST PUSH1 0x0 PUSH1 0x1F NOT PUSH1 0x1F DUP4 ADD AND SWAP1 POP SWAP2 SWAP1 POP JUMP JUMPDEST PUSH32 0x4E487B7100000000000000000000000000000000000000000000000000000000 PUSH1 0x0 MSTORE PUSH1 0x41 PUSH1 0x4 MSTORE PUSH1 0x24 PUSH1 0x0 REVERT JUMPDEST PUSH3 0x1D5 DUP3 PUSH3 0x18A JUMP JUMPDEST DUP2 ADD DUP2 DUP2 LT PUSH8 0xFFFFFFFFFFFFFFFF DUP3 GT OR ISZERO PUSH3 0x1F7 JUMPI PUSH3 0x1F6 PUSH3 0x19B JUMP JUMPDEST JUMPDEST DUP1 PUSH1 0x40 MSTORE POP POP POP JUMP JUMPDEST PUSH1 0x0 PUSH3 0x20C PUSH3 0x16C JUMP JUMPDEST SWAP1 POP PUSH3 0x21A DUP3 DUP3 PUSH3 0x1CA JUMP JUMPDEST SWAP2 SWAP1 POP JUMP JUMPDEST PUSH1 0x0 PUSH8 0xFFFFFFFFFFFFFFFF DUP3 GT ISZERO PUSH3 0x23D JUMPI PUSH3 0x23C PUSH3 0x19B JUMP JUMPDEST JUMPDEST PUSH3 0x248 DUP3 PUSH3 0x18A JUMP JUMPDEST SWAP1 POP PUSH1 0x20 DUP2 ADD SWAP1 POP SWAP2 SWAP1 POP JUMP JUMPDEST PUSH1 0x0 JUMPDEST DUP4 DUP2 LT ISZERO PUSH3 0x275 JUMPI DUP1 DUP3 ADD MLOAD DUP2 DUP5 ADD MSTORE PUSH1 0x20 DUP2 ADD SWAP1 POP PUSH3 0x258 JUMP JUMPDEST DUP4 DUP2 GT ISZERO PUSH3 0x285 JUMPI PUSH1 0x0 DUP5 DUP5 ADD MSTORE JUMPDEST POP POP POP POP JUMP JUMPDEST PUSH1 0x0 PUSH3 0x2A2 PUSH3 0x29C DUP5 PUSH3 0x21F JUMP JUMPDEST PUSH3 0x200 JUMP JUMPDEST SWAP1 POP DUP3 DUP2 MSTORE PUSH1 0x20 DUP2 ADD DUP5 DUP5 DUP5 ADD GT ISZERO PUSH3 0x2C1 JUMPI PUSH3 0x2C0 PUSH3 0x185 JUMP JUMPDEST JUMPDEST PUSH3 0x2CE DUP5 DUP3 DUP6 PUSH3 0x255 JUMP JUMPDEST POP SWAP4 SWAP3 POP POP POP JUMP JUMPDEST PUSH1 0x0 DUP3 PUSH1 0x1F DUP4 ADD SLT PUSH3 0x2EE JUMPI PUSH3 0x2ED PUSH3 0x180 JUMP JUMPDEST JUMPDEST DUP2 MLOAD PUSH3 0x300 DUP5 DUP3 PUSH1 0x20 DUP7 ADD PUSH3 0x28B JUMP JUMPDEST SWAP2 POP POP SWAP3 SWAP2 POP POP JUMP JUMPDEST PUSH1 0x0 DUP2 SWAP1 POP SWAP2 SWAP1 POP JUMP JUMPDEST PUSH3 0x31E DUP2 PUSH3 0x309 JUMP JUMPDEST DUP2 EQ PUSH3 0x32A JUMPI PUSH1 0x0 DUP1 REVERT JUMPDEST POP JUMP JUMPDEST PUSH1 0x0 DUP2 MLOAD SWAP1 POP PUSH3 0x33E DUP2 PUSH3 0x313 JUMP JUMPDEST SWAP3 SWAP2 POP POP JUMP JUMPDEST PUSH1 0x0 DUP1 PUSH1 0x0 PUSH1 0x60 DUP5 DUP7 SUB SLT ISZERO PUSH3 0x360 JUMPI PUSH3 0x35F PUSH3 0x176 JUMP JUMPDEST JUMPDEST PUSH1 0x0 DUP5 ADD MLOAD PUSH8 0xFFFFFFFFFFFFFFFF DUP2 GT ISZERO PUSH3 0x381 JUMPI PUSH3 0x380 PUSH3 0x17B JUMP JUMPDEST JUMPDEST PUSH3 0x38F DUP7 DUP3 DUP8 ADD PUSH3 0x2D6 JUMP JUMPDEST SWAP4 POP POP PUSH1 0x20 DUP5 ADD MLOAD PUSH8 0xFFFFFFFFFFFFFFFF DUP2 GT ISZERO PUSH3 0x3B3 JUMPI PUSH3 0x3B2 PUSH3 0x17B JUMP JUMPDEST JUMPDEST PUSH3 0x3C1 DUP7 DUP3 DUP8 ADD PUSH3 0x2D6 JUMP JUMPDEST SWAP3 POP POP PUSH1 0x40 PUSH3 0x3D4 DUP7 DUP3 DUP8 ADD PUSH3 0x32D JUMP JUMPDEST SWAP2 POP POP SWAP3 POP SWAP3 POP SWAP3 JUMP JUMPDEST PUSH32 0x4E487B7100000000000000000000000000000000000000000000000000000000 PUSH1 0x0 MSTORE PUSH1 0x22 PUSH1 0x4 MSTORE PUSH1 0x24 PUSH1 0x0 REVERT JUMPDEST PUSH1 0x0 PUSH1 0x2 DUP3 DIV SWAP1 POP PUSH1 0x1 DUP3 AND DUP1 PUSH3 0x426 JUMPI PUSH1 0x7F DUP3 AND SWAP2 POP JUMPDEST PUSH1 0x20 DUP3 LT DUP2 SUB PUSH3 0x43C JUMPI PUSH3 0x43B PUSH3 0x3DE JUMP JUMPDEST JUMPDEST POP SWAP2 SWAP1 POP JUMP JUMPDEST PUSH2 0xC87 DUP1 PUSH3 0x452 PUSH1 0x0 CODECOPY PUSH1 0x0 RETURN INVALID PUSH1 0x80 PUSH1 0x40 MSTORE CALLVALUE DUP1 ISZERO PUSH2 0x10 JUMPI PUSH1 0x0 DUP1 REVERT JUMPDEST POP PUSH1 0x4 CALLDATASIZE LT PUSH2 0x7D JUMPI PUSH1 0x0 CALLDATALOAD PUSH1 0xE0 SHR DUP1 PUSH4 0x70A08231 GT PUSH2 0x5B JUMPI DUP1 PUSH4 0x70A08231 EQ PUSH2 0xDA JUMPI DUP1 PUSH4 0xA9059CBB EQ PUSH2 0x10A JUMPI DUP1 PUSH4 0xA967028A EQ PUSH2 0x126 JUMPI DUP1 PUSH4 0xC4E41B22 EQ PUSH2 0x156 JUMPI PUSH2 0x7D JUMP JUMPDEST DUP1 PUSH4 0xBDFECA5 EQ PUSH2 0x82 JUMPI DUP1 PUSH4 0x15070401 EQ PUSH2 0x9E JUMPI DUP1 PUSH4 0x17D7DE7C EQ PUSH2 0xBC JUMPI JUMPDEST PUSH1 0x0 DUP1 REVERT JUMPDEST PUSH2 0x9C PUSH1 0x4 DUP1 CALLDATASIZE SUB DUP2 ADD SWAP1 PUSH2 0x97 SWAP2 SWAP1 PUSH2 0x842 JUMP JUMPDEST PUSH2 0x174 JUMP JUMPDEST STOP JUMPDEST PUSH2 0xA6 PUSH2 0x1CB JUMP JUMPDEST PUSH1 0x40 MLOAD PUSH2 0xB3 SWAP2 SWAP1 PUSH2 0x913 JUMP JUMPDEST PUSH1 0x40 MLOAD DUP1 SWAP2 SUB SWAP1 RETURN JUMPDEST PUSH2 0xC4 PUSH2 0x25D JUMP JUMPDEST PUSH1 0x40 MLOAD PUSH2 0xD1 SWAP2 SWAP1 PUSH2 0x913 JUMP JUMPDEST PUSH1 0x40 MLOAD DUP1 SWAP2 SUB SWAP1 RETURN JUMPDEST PUSH2 0xF4 PUSH1 0x4 DUP1 CALLDATASIZE SUB DUP2 ADD SWAP1 PUSH2 0xEF SWAP2 SWAP1 PUSH2 0x993 JUMP JUMPDEST PUSH2 0x2EF JUMP JUMPDEST PUSH1 0x40 MLOAD PUSH2 0x101 SWAP2 SWAP1 PUSH2 0x9D9 JUMP JUMPDEST PUSH1 0x40 MLOAD DUP1 SWAP2 SUB SWAP1 RETURN JUMPDEST PUSH2 0x124 PUSH1 0x4 DUP1 CALLDATASIZE SUB DUP2 ADD SWAP1 PUSH2 0x11F SWAP2 SWAP1 PUSH2 0xA20 JUMP JUMPDEST PUSH2 0x337 JUMP JUMPDEST STOP JUMPDEST PUSH2 0x140 PUSH1 0x4 DUP1 CALLDATASIZE SUB DUP2 ADD SWAP1 PUSH2 0x13B SWAP2 SWAP1 PUSH2 0x993 JUMP JUMPDEST PUSH2 0x4D9 JUMP JUMPDEST PUSH1 0x40 MLOAD PUSH2 0x14D SWAP2 SWAP1 PUSH2 0x913 JUMP JUMPDEST PUSH1 0x40 MLOAD DUP1 SWAP2 SUB SWAP1 RETURN JUMPDEST PUSH2 0x15E PUSH2 0x63B JUMP JUMPDEST PUSH1 0x40 MLOAD PUSH2 0x16B SWAP2 SWAP1 PUSH2 0x9D9 JUMP JUMPDEST PUSH1 0x40 MLOAD DUP1 SWAP2 SUB SWAP1 RETURN JUMPDEST DUP1 PUSH1 0x1 PUSH1 0x0 CALLER PUSH20 0xFFFFFFFFFFFFFFFFFFFFFFFFFFFFFFFFFFFFFFFF AND PUSH20 0xFFFFFFFFFFFFFFFFFFFFFFFFFFFFFFFFFFFFFFFF AND DUP2 MSTORE PUSH1 0x20 ADD SWAP1 DUP2 MSTORE PUSH1 0x20 ADD PUSH1 0x0 KECCAK256 SWAP1 DUP1 MLOAD SWAP1 PUSH1 0x20 ADD SWAP1 PUSH2 0x1C7 SWAP3 SWAP2 SWAP1 PUSH2 0x645 JUMP JUMPDEST POP POP JUMP JUMPDEST PUSH1 0x60 PUSH1 0x3 DUP1 SLOAD PUSH2 0x1DA SWAP1 PUSH2 0xA8F JUMP JUMPDEST DUP1 PUSH1 0x1F ADD PUSH1 0x20 DUP1 SWAP2 DIV MUL PUSH1 0x20 ADD PUSH1 0x40 MLOAD SWAP1 DUP2 ADD PUSH1 0x40 MSTORE DUP1 SWAP3 SWAP2 SWAP1 DUP2 DUP2 MSTORE PUSH1 0x20 ADD DUP3 DUP1 SLOAD PUSH2 0x206 SWAP1 PUSH2 0xA8F JUMP JUMPDEST DUP1 ISZERO PUSH2 0x253 JUMPI DUP1 PUSH1 0x1F LT PUSH2 0x228 JUMPI PUSH2 0x100 DUP1 DUP4 SLOAD DIV MUL DUP4 MSTORE SWAP2 PUSH1 0x20 ADD SWAP2 PUSH2 0x253 JUMP JUMPDEST DUP3 ADD SWAP2 SWAP1 PUSH1 0x0 MSTORE PUSH1 0x20 PUSH1 0x0 KECCAK256 SWAP1 JUMPDEST DUP2 SLOAD DUP2 MSTORE SWAP1 PUSH1 0x1 ADD SWAP1 PUSH1 0x20 ADD DUP1 DUP4 GT PUSH2 0x236 JUMPI DUP3 SWAP1 SUB PUSH1 0x1F AND DUP3 ADD SWAP2 JUMPDEST POP POP POP POP POP SWAP1 POP SWAP1 JUMP JUMPDEST PUSH1 0x60 PUSH1 0x2 DUP1 SLOAD PUSH2 0x26C SWAP1 PUSH2 0xA8F JUMP JUMPDEST DUP1 PUSH1 0x1F ADD PUSH1 0x20 DUP1 SWAP2 DIV MUL PUSH1 0x20 ADD PUSH1 0x40 MLOAD SWAP1 DUP2 ADD PUSH1 0x40 MSTORE DUP1 SWAP3 SWAP2 SWAP1 DUP2 DUP2 MSTORE PUSH1 0x20 ADD DUP3 DUP1 SLOAD PUSH2 0x298 SWAP1 PUSH2 0xA8F JUMP JUMPDEST DUP1 ISZERO PUSH2 0x2E5 JUMPI DUP1 PUSH1 0x1F LT PUSH2 0x2BA JUMPI PUSH2 0x100 DUP1 DUP4 SLOAD DIV MUL DUP4 MSTORE SWAP2 PUSH1 0x20 ADD SWAP2 PUSH2 0x2E5 JUMP JUMPDEST DUP3 ADD SWAP2 SWAP1 PUSH1 0x0 MSTORE PUSH1 0x20 PUSH1 0x0 KECCAK256 SWAP1 JUMPDEST DUP2 SLOAD DUP2 MSTORE SWAP1 PUSH1 0x1 ADD SWAP1 PUSH1 0x20 ADD DUP1 DUP4 GT PUSH2 0x2C8 JUMPI DUP3 SWAP1 SUB PUSH1 0x1F AND DUP3 ADD SWAP2 JUMPDEST POP POP POP POP POP SWAP1 POP SWAP1 JUMP JUMPDEST PUSH1 0x0 DUP1 PUSH1 0x0 DUP4 PUSH20 0xFFFFFFFFFFFFFFFFFFFFFFFFFFFFFFFFFFFFFFFF AND PUSH20 0xFFFFFFFFFFFFFFFFFFFFFFFFFFFFFFFFFFFFFFFF AND DUP2 MSTORE PUSH1 0x20 ADD SWAP1 DUP2 MSTORE PUSH1 0x20 ADD PUSH1 0x0 KECCAK256 SLOAD SWAP1 POP SWAP2 SWAP1 POP JUMP JUMPDEST PUSH1 0x0 CALLER SWAP1 POP PUSH1 0x0 DUP1 PUSH1 0x0 DUP4 PUSH20 0xFFFFFFFFFFFFFFFFFFFFFFFFFFFFFFFFFFFFFFFF AND PUSH20 0xFFFFFFFFFFFFFFFFFFFFFFFFFFFFFFFFFFFFFFFF AND DUP2 MSTORE PUSH1 0x20 ADD SWAP1 DUP2 MSTORE PUSH1 0x20 ADD PUSH1 0x0 KECCAK256 SLOAD SWAP1 POP DUP3 DUP2 LT ISZERO PUSH2 0x3C2 JUMPI PUSH1 0x40 MLOAD PUSH32 0x8C379A000000000000000000000000000000000000000000000000000000000 DUP2 MSTORE PUSH1 0x4 ADD PUSH2 0x3B9 SWAP1 PUSH2 0xB0C JUMP JUMPDEST PUSH1 0x40 MLOAD DUP1 SWAP2 SUB SWAP1 REVERT JUMPDEST DUP2 PUSH20 0xFFFFFFFFFFFFFFFFFFFFFFFFFFFFFFFFFFFFFFFF AND DUP5 PUSH20 0xFFFFFFFFFFFFFFFFFFFFFFFFFFFFFFFFFFFFFFFF AND SUB PUSH2 0x430 JUMPI PUSH1 0x40 MLOAD PUSH32 0x8C379A000000000000000000000000000000000000000000000000000000000 DUP2 MSTORE PUSH1 0x4 ADD PUSH2 0x427 SWAP1 PUSH2 0xB78 JUMP JUMPDEST PUSH1 0x40 MLOAD DUP1 SWAP2 SUB SWAP1 REVERT JUMPDEST DUP3 DUP2 PUSH2 0x43C SWAP2 SWAP1 PUSH2 0xBC7 JUMP JUMPDEST PUSH1 0x0 DUP1 DUP5 PUSH20 0xFFFFFFFFFFFFFFFFFFFFFFFFFFFFFFFFFFFFFFFF AND PUSH20 0xFFFFFFFFFFFFFFFFFFFFFFFFFFFFFFFFFFFFFFFF AND DUP2 MSTORE PUSH1 0x20 ADD SWAP1 DUP2 MSTORE PUSH1 0x20 ADD PUSH1 0x0 KECCAK256 DUP2 SWAP1 SSTORE POP DUP3 PUSH1 0x0 DUP1 DUP7 PUSH20 0xFFFFFFFFFFFFFFFFFFFFFFFFFFFFFFFFFFFFFFFF AND PUSH20 0xFFFFFFFFFFFFFFFFFFFFFFFFFFFFFFFFFFFFFFFF AND DUP2 MSTORE PUSH1 0x20 ADD SWAP1 DUP2 MSTORE PUSH1 0x20 ADD PUSH1 0x0 KECCAK256 PUSH1 0x0 DUP3 DUP3 SLOAD PUSH2 0x4CC SWAP2 SWAP1 PUSH2 0xBFB JUMP JUMPDEST SWAP3 POP POP DUP2 SWAP1 SSTORE POP POP POP POP POP JUMP JUMPDEST PUSH1 0x60 PUSH1 0x0 PUSH1 0x1 PUSH1 0x0 DUP5 PUSH20 0xFFFFFFFFFFFFFFFFFFFFFFFFFFFFFFFFFFFFFFFF AND PUSH20 0xFFFFFFFFFFFFFFFFFFFFFFFFFFFFFFFFFFFFFFFF AND DUP2 MSTORE PUSH1 0x20 ADD SWAP1 DUP2 MSTORE PUSH1 0x20 ADD PUSH1 0x0 KECCAK256 DUP1 SLOAD PUSH2 0x527 SWAP1 PUSH2 0xA8F JUMP JUMPDEST SWAP1 POP EQ PUSH2 0x5FD JUMPI PUSH1 0x1 PUSH1 0x0 DUP4 PUSH20 0xFFFFFFFFFFFFFFFFFFFFFFFFFFFFFFFFFFFFFFFF AND PUSH20 0xFFFFFFFFFFFFFFFFFFFFFFFFFFFFFFFFFFFFFFFF AND DUP2 MSTORE PUSH1 0x20 ADD SWAP1 DUP2 MSTORE PUSH1 0x20 ADD PUSH1 0x0 KECCAK256 DUP1 SLOAD PUSH2 0x578 SWAP1 PUSH2 0xA8F JUMP JUMPDEST DUP1 PUSH1 0x1F ADD PUSH1 0x20 DUP1 SWAP2 DIV MUL PUSH1 0x20 ADD PUSH1 0x40 MLOAD SWAP1 DUP2 ADD PUSH1 0x40 MSTORE DUP1 SWAP3 SWAP2 SWAP1 DUP2 DUP2 MSTORE PUSH1 0x20 ADD DUP3 DUP1 SLOAD PUSH2 0x5A4 SWAP1 PUSH2 0xA8F JUMP JUMPDEST DUP1 ISZERO PUSH2 0x5F1 JUMPI DUP1 PUSH1 0x1F LT PUSH2 0x5C6 JUMPI PUSH2 0x100 DUP1 DUP4 SLOAD DIV MUL DUP4 MSTORE SWAP2 PUSH1 0x20 ADD SWAP2 PUSH2 0x5F1 JUMP JUMPDEST DUP3 ADD SWAP2 SWAP1 PUSH1 0x0 MSTORE PUSH1 0x20 PUSH1 0x0 KECCAK256 SWAP1 JUMPDEST DUP2 SLOAD DUP2 MSTORE SWAP1 PUSH1 0x1 ADD SWAP1 PUSH1 0x20 ADD DUP1 DUP4 GT PUSH2 0x5D4 JUMPI DUP3 SWAP1 SUB PUSH1 0x1F AND DUP3 ADD SWAP2 JUMPDEST POP POP POP POP POP SWAP1 POP PUSH2 0x636 JUMP JUMPDEST PUSH1 0x40 MLOAD DUP1 PUSH1 0x40 ADD PUSH1 0x40 MSTORE DUP1 PUSH1 0xB DUP2 MSTORE PUSH1 0x20 ADD PUSH32 0x4E6F20757365726E616D65000000000000000000000000000000000000000000 DUP2 MSTORE POP SWAP1 POP JUMPDEST SWAP2 SWAP1 POP JUMP JUMPDEST PUSH1 0x0 PUSH1 0x4 SLOAD SWAP1 POP SWAP1 JUMP JUMPDEST DUP3 DUP1 SLOAD PUSH2 0x651 SWAP1 PUSH2 0xA8F JUMP JUMPDEST SWAP1 PUSH1 0x0 MSTORE PUSH1 0x20 PUSH1 0x0 KECCAK256 SWAP1 PUSH1 0x1F ADD PUSH1 0x20 SWAP1 DIV DUP2 ADD SWAP3 DUP3 PUSH2 0x673 JUMPI PUSH1 0x0 DUP6 SSTORE PUSH2 0x6BA JUMP JUMPDEST DUP3 PUSH1 0x1F LT PUSH2 0x68C JUMPI DUP1 MLOAD PUSH1 0xFF NOT AND DUP4 DUP1 ADD OR DUP6 SSTORE PUSH2 0x6BA JUMP JUMPDEST DUP3 DUP1 ADD PUSH1 0x1 ADD DUP6 SSTORE DUP3 ISZERO PUSH2 0x6BA JUMPI SWAP2 DUP3 ADD JUMPDEST DUP3 DUP2 GT ISZERO PUSH2 0x6B9 JUMPI DUP3 MLOAD DUP3 SSTORE SWAP2 PUSH1 0x20 ADD SWAP2 SWAP1 PUSH1 0x1 ADD SWAP1 PUSH2 0x69E JUMP JUMPDEST JUMPDEST POP SWAP1 POP PUSH2 0x6C7 SWAP2 SWAP1 PUSH2 0x6CB JUMP JUMPDEST POP SWAP1 JUMP JUMPDEST JUMPDEST DUP1 DUP3 GT ISZERO PUSH2 0x6E4 JUMPI PUSH1 0x0 DUP2 PUSH1 0x0 SWAP1 SSTORE POP PUSH1 0x1 ADD PUSH2 0x6CC JUMP JUMPDEST POP SWAP1 JUMP JUMPDEST PUSH1 0x0 PUSH1 0x40 MLOAD SWAP1 POP SWAP1 JUMP JUMPDEST PUSH1 0x0 DUP1 REVERT JUMPDEST PUSH1 0x0 DUP1 REVERT JUMPDEST PUSH1 0x0 DUP1 REVERT JUMPDEST PUSH1 0x0 DUP1 REVERT JUMPDEST PUSH1 0x0 PUSH1 0x1F NOT PUSH1 0x1F DUP4 ADD AND SWAP1 POP SWAP2 SWAP1 POP JUMP JUMPDEST PUSH32 0x4E487B7100000000000000000000000000000000000000000000000000000000 PUSH1 0x0 MSTORE PUSH1 0x41 PUSH1 0x4 MSTORE PUSH1 0x24 PUSH1 0x0 REVERT JUMPDEST PUSH2 0x74F DUP3 PUSH2 0x706 JUMP JUMPDEST DUP2 ADD DUP2 DUP2 LT PUSH8 0xFFFFFFFFFFFFFFFF DUP3 GT OR ISZERO PUSH2 0x76E JUMPI PUSH2 0x76D PUSH2 0x717 JUMP JUMPDEST JUMPDEST DUP1 PUSH1 0x40 MSTORE POP POP POP JUMP JUMPDEST PUSH1 0x0 PUSH2 0x781 PUSH2 0x6E8 JUMP JUMPDEST SWAP1 POP PUSH2 0x78D DUP3 DUP3 PUSH2 0x746 JUMP JUMPDEST SWAP2 SWAP1 POP JUMP JUMPDEST PUSH1 0x0 PUSH8 0xFFFFFFFFFFFFFFFF DUP3 GT ISZERO PUSH2 0x7AD JUMPI PUSH2 0x7AC PUSH2 0x717 JUMP JUMPDEST JUMPDEST PUSH2 0x7B6 DUP3 PUSH2 0x706 JUMP JUMPDEST SWAP1 POP PUSH1 0x20 DUP2 ADD SWAP1 POP SWAP2 SWAP1 POP JUMP JUMPDEST DUP3 DUP2 DUP4 CALLDATACOPY PUSH1 0x0 DUP4 DUP4 ADD MSTORE POP POP POP JUMP JUMPDEST PUSH1 0x0 PUSH2 0x7E5 PUSH2 0x7E0 DUP5 PUSH2 0x792 JUMP JUMPDEST PUSH2 0x777 JUMP JUMPDEST SWAP1 POP DUP3 DUP2 MSTORE PUSH1 0x20 DUP2 ADD DUP5 DUP5 DUP5 ADD GT ISZERO PUSH2 0x801 JUMPI PUSH2 0x800 PUSH2 0x701 JUMP JUMPDEST JUMPDEST PUSH2 0x80C DUP5 DUP3 DUP6 PUSH2 0x7C3 JUMP JUMPDEST POP SWAP4 SWAP3 POP POP POP JUMP JUMPDEST PUSH1 0x0 DUP3 PUSH1 0x1F DUP4 ADD SLT PUSH2 0x829 JUMPI PUSH2 0x828 PUSH2 0x6FC JUMP JUMPDEST JUMPDEST DUP2 CALLDATALOAD PUSH2 0x839 DUP5 DUP3 PUSH1 0x20 DUP7 ADD PUSH2 0x7D2 JUMP JUMPDEST SWAP2 POP POP SWAP3 SWAP2 POP POP JUMP JUMPDEST PUSH1 0x0 PUSH1 0x20 DUP3 DUP5 SUB SLT ISZERO PUSH2 0x858 JUMPI PUSH2 0x857 PUSH2 0x6F2 JUMP JUMPDEST JUMPDEST PUSH1 0x0 DUP3 ADD CALLDATALOAD PUSH8 0xFFFFFFFFFFFFFFFF DUP2 GT ISZERO PUSH2 0x876 JUMPI PUSH2 0x875 PUSH2 0x6F7 JUMP JUMPDEST JUMPDEST PUSH2 0x882 DUP5 DUP3 DUP6 ADD PUSH2 0x814 JUMP JUMPDEST SWAP2 POP POP SWAP3 SWAP2 POP POP JUMP JUMPDEST PUSH1 0x0 DUP2 MLOAD SWAP1 POP SWAP2 SWAP1 POP JUMP JUMPDEST PUSH1 0x0 DUP3 DUP3 MSTORE PUSH1 0x20 DUP3 ADD SWAP1 POP SWAP3 SWAP2 POP POP JUMP JUMPDEST PUSH1 0x0 JUMPDEST DUP4 DUP2 LT ISZERO PUSH2 0x8C5 JUMPI DUP1 DUP3 ADD MLOAD DUP2 DUP5 ADD MSTORE PUSH1 0x20 DUP2 ADD SWAP1 POP PUSH2 0x8AA JUMP JUMPDEST DUP4 DUP2 GT ISZERO PUSH2 0x8D4 JUMPI PUSH1 0x0 DUP5 DUP5 ADD MSTORE JUMPDEST POP POP POP POP JUMP JUMPDEST PUSH1 0x0 PUSH2 0x8E5 DUP3 PUSH2 0x88B JUMP JUMPDEST PUSH2 0x8EF DUP2 DUP6 PUSH2 0x896 JUMP JUMPDEST SWAP4 POP PUSH2 0x8FF DUP2 DUP6 PUSH1 0x20 DUP7 ADD PUSH2 0x8A7 JUMP JUMPDEST PUSH2 0x908 DUP2 PUSH2 0x706 JUMP JUMPDEST DUP5 ADD SWAP2 POP POP SWAP3 SWAP2 POP POP JUMP JUMPDEST PUSH1 0x0 PUSH1 0x20 DUP3 ADD SWAP1 POP DUP2 DUP2 SUB PUSH1 0x0 DUP4 ADD MSTORE PUSH2 0x92D DUP2 DUP5 PUSH2 0x8DA JUMP JUMPDEST SWAP1 POP SWAP3 SWAP2 POP POP JUMP JUMPDEST PUSH1 0x0 PUSH20 0xFFFFFFFFFFFFFFFFFFFFFFFFFFFFFFFFFFFFFFFF DUP3 AND SWAP1 POP SWAP2 SWAP1 POP JUMP JUMPDEST PUSH1 0x0 PUSH2 0x960 DUP3 PUSH2 0x935 JUMP JUMPDEST SWAP1 POP SWAP2 SWAP1 POP JUMP JUMPDEST PUSH2 0x970 DUP2 PUSH2 0x955 JUMP JUMPDEST DUP2 EQ PUSH2 0x97B JUMPI PUSH1 0x0 DUP1 REVERT JUMPDEST POP JUMP JUMPDEST PUSH1 0x0 DUP2 CALLDATALOAD SWAP1 POP PUSH2 0x98D DUP2 PUSH2 0x967 JUMP JUMPDEST SWAP3 SWAP2 POP POP JUMP JUMPDEST PUSH1 0x0 PUSH1 0x20 DUP3 DUP5 SUB SLT ISZERO PUSH2 0x9A9 JUMPI PUSH2 0x9A8 PUSH2 0x6F2 JUMP JUMPDEST JUMPDEST PUSH1 0x0 PUSH2 0x9B7 DUP5 DUP3 DUP6 ADD PUSH2 0x97E JUMP JUMPDEST SWAP2 POP POP SWAP3 SWAP2 POP POP JUMP JUMPDEST PUSH1 0x0 DUP2 SWAP1 POP SWAP2 SWAP1 POP JUMP JUMPDEST PUSH2 0x9D3 DUP2 PUSH2 0x9C0 JUMP JUMPDEST DUP3 MSTORE POP POP JUMP JUMPDEST PUSH1 0x0 PUSH1 0x20 DUP3 ADD SWAP1 POP PUSH2 0x9EE PUSH1 0x0 DUP4 ADD DUP5 PUSH2 0x9CA JUMP JUMPDEST SWAP3 SWAP2 POP POP JUMP JUMPDEST PUSH2 0x9FD DUP2 PUSH2 0x9C0 JUMP JUMPDEST DUP2 EQ PUSH2 0xA08 JUMPI PUSH1 0x0 DUP1 REVERT JUMPDEST POP JUMP JUMPDEST PUSH1 0x0 DUP2 CALLDATALOAD SWAP1 POP PUSH2 0xA1A DUP2 PUSH2 0x9F4 JUMP JUMPDEST SWAP3 SWAP2 POP POP JUMP JUMPDEST PUSH1 0x0 DUP1 PUSH1 0x40 DUP4 DUP6 SUB SLT ISZERO PUSH2 0xA37 JUMPI PUSH2 0xA36 PUSH2 0x6F2 JUMP JUMPDEST JUMPDEST PUSH1 0x0 PUSH2 0xA45 DUP6 DUP3 DUP7 ADD PUSH2 0x97E JUMP JUMPDEST SWAP3 POP POP PUSH1 0x20 PUSH2 0xA56 DUP6 DUP3 DUP7 ADD PUSH2 0xA0B JUMP JUMPDEST SWAP2 POP POP SWAP3 POP SWAP3 SWAP1 POP JUMP JUMPDEST PUSH32 0x4E487B7100000000000000000000000000000000000000000000000000000000 PUSH1 0x0 MSTORE PUSH1 0x22 PUSH1 0x4 MSTORE PUSH1 0x24 PUSH1 0x0 REVERT JUMPDEST PUSH1 0x0 PUSH1 0x2 DUP3 DIV SWAP1 POP PUSH1 0x1 DUP3 AND DUP1 PUSH2 0xAA7 JUMPI PUSH1 0x7F DUP3 AND SWAP2 POP JUMPDEST PUSH1 0x20 DUP3 LT DUP2 SUB PUSH2 0xABA JUMPI PUSH2 0xAB9 PUSH2 0xA60 JUMP JUMPDEST JUMPDEST POP SWAP2 SWAP1 POP JUMP JUMPDEST PUSH32 0x496E73756666696369656E742066756E6420746F207472616E73666572000000 PUSH1 0x0 DUP3 ADD MSTORE POP JUMP JUMPDEST PUSH1 0x0 PUSH2 0xAF6 PUSH1 0x1D DUP4 PUSH2 0x896 JUMP JUMPDEST SWAP2 POP PUSH2 0xB01 DUP3 PUSH2 0xAC0 JUMP JUMPDEST PUSH1 0x20 DUP3 ADD SWAP1 POP SWAP2 SWAP1 POP JUMP JUMPDEST PUSH1 0x0 PUSH1 0x20 DUP3 ADD SWAP1 POP DUP2 DUP2 SUB PUSH1 0x0 DUP4 ADD MSTORE PUSH2 0xB25 DUP2 PUSH2 0xAE9 JUMP JUMPDEST SWAP1 POP SWAP2 SWAP1 POP JUMP JUMPDEST PUSH32 0x596F752063616E6E6F742073656E6420746F20796F757273656C660000000000 PUSH1 0x0 DUP3 ADD MSTORE POP JUMP JUMPDEST PUSH1 0x0 PUSH2 0xB62 PUSH1 0x1B DUP4 PUSH2 0x896 JUMP JUMPDEST SWAP2 POP PUSH2 0xB6D DUP3 PUSH2 0xB2C JUMP JUMPDEST PUSH1 0x20 DUP3 ADD SWAP1 POP SWAP2 SWAP1 POP JUMP JUMPDEST PUSH1 0x0 PUSH1 0x20 DUP3 ADD SWAP1 POP DUP2 DUP2 SUB PUSH1 0x0 DUP4 ADD MSTORE PUSH2 0xB91 DUP2 PUSH2 0xB55 JUMP JUMPDEST SWAP1 POP SWAP2 SWAP1 POP JUMP JUMPDEST PUSH32 0x4E487B7100000000000000000000000000000000000000000000000000000000 PUSH1 0x0 MSTORE PUSH1 0x11 PUSH1 0x4 MSTORE PUSH1 0x24 PUSH1 0x0 REVERT JUMPDEST PUSH1 0x0 PUSH2 0xBD2 DUP3 PUSH2 0x9C0 JUMP JUMPDEST SWAP2 POP PUSH2 0xBDD DUP4 PUSH2 0x9C0 JUMP JUMPDEST SWAP3 POP DUP3 DUP3 LT ISZERO PUSH2 0xBF0 JUMPI PUSH2 0xBEF PUSH2 0xB98 JUMP JUMPDEST JUMPDEST DUP3 DUP3 SUB SWAP1 POP SWAP3 SWAP2 POP POP JUMP JUMPDEST PUSH1 0x0 PUSH2 0xC06 DUP3 PUSH2 0x9C0 JUMP JUMPDEST SWAP2 POP PUSH2 0xC11 DUP4 PUSH2 0x9C0 JUMP JUMPDEST SWAP3 POP DUP3 PUSH32 0xFFFFFFFFFFFFFFFFFFFFFFFFFFFFFFFFFFFFFFFFFFFFFFFFFFFFFFFFFFFFFFFF SUB DUP3 GT ISZERO PUSH2 0xC46 JUMPI PUSH2 0xC45 PUSH2 0xB98 JUMP JUMPDEST JUMPDEST DUP3 DUP3 ADD SWAP1 POP SWAP3 SWAP2 POP POP JUMP INVALID LOG2 PUSH5 0x6970667358 0x22 SLT KECCAK256 0xD5 JUMP POP DUP13 0xD1 ORIGIN SSTORE SDIV 0x2F 0xC7 0xE9 0x26 0x4E SWAP5 PUSH12 0x4B365A6D956CCF7E2A13B055 PC ADD 0xE8 PUSH23 0x8A64736F6C634300080E00330000000000000000000000 "
				},
				"gasEstimates": {
					"creation": {
						"codeDepositCost": "641400",
						"executionCost": "infinite",
						"totalCost": "infinite"
					},
					"external": {
						"balanceOf(address)": "2841",
						"getName()": "infinite",
						"getSymbol()": "infinite",
						"getTotalSupply()": "2503",
						"getWalletName(address)": "infinite",
						"setMyWalletName(string)": "infinite",
						"transfer(address,uint256)": "infinite"
					}
				},
				"methodIdentifiers": {
					"balanceOf(address)": "70a08231",
					"getName()": "17d7de7c",
					"getSymbol()": "15070401",
					"getTotalSupply()": "c4e41b22",
					"getWalletName(address)": "a967028a",
					"setMyWalletName(string)": "0bdfeca5",
					"transfer(address,uint256)": "a9059cbb"
				}
			},
			"storageLayout": {
				"storage": [
					{
						"astId": 5,
						"contract": "contracts/workshop.sol:Workshop",
						"label": "balances",
						"offset": 0,
						"slot": "0",
						"type": "t_mapping(t_address,t_uint256)"
					},
					{
						"astId": 9,
						"contract": "contracts/workshop.sol:Workshop",
						"label": "walletName",
						"offset": 0,
						"slot": "1",
						"type": "t_mapping(t_address,t_string_storage)"
					},
					{
						"astId": 11,
						"contract": "contracts/workshop.sol:Workshop",
						"label": "name",
						"offset": 0,
						"slot": "2",
						"type": "t_string_storage"
					},
					{
						"astId": 13,
						"contract": "contracts/workshop.sol:Workshop",
						"label": "symbol",
						"offset": 0,
						"slot": "3",
						"type": "t_string_storage"
					},
					{
						"astId": 15,
						"contract": "contracts/workshop.sol:Workshop",
						"label": "totalSupply",
						"offset": 0,
						"slot": "4",
						"type": "t_uint256"
					}
				],
				"types": {
					"t_address": {
						"encoding": "inplace",
						"label": "address",
						"numberOfBytes": "20"
					},
					"t_mapping(t_address,t_string_storage)": {
						"encoding": "mapping",
						"key": "t_address",
						"label": "mapping(address => string)",
						"numberOfBytes": "32",
						"value": "t_string_storage"
					},
					"t_mapping(t_address,t_uint256)": {
						"encoding": "mapping",
						"key": "t_address",
						"label": "mapping(address => uint256)",
						"numberOfBytes": "32",
						"value": "t_uint256"
					},
					"t_string_storage": {
						"encoding": "bytes",
						"label": "string",
						"numberOfBytes": "32"
					},
					"t_uint256": {
						"encoding": "inplace",
						"label": "uint256",
						"numberOfBytes": "32"
					}
				}
			},
			"userdoc": {
				"kind": "user",
				"methods": {},
				"version": 1
			}
		}
	}
}