{
	"contracts/mapping.sol": {
		"Mapping": {
			"abi": [
				{
					"inputs": [
						{
							"internalType": "address",
							"name": "_addr",
							"type": "address"
						},
						{
							"internalType": "uint256",
							"name": "_i",
							"type": "uint256"
						}
					],
					"name": "addBalance",
					"outputs": [],
					"stateMutability": "nonpayable",
					"type": "function"
				},
				{
					"inputs": [
						{
							"internalType": "string",
							"name": "_name",
							"type": "string"
						}
					],
					"name": "addProject",
					"outputs": [],
					"stateMutability": "nonpayable",
					"type": "function"
				},
				{
					"inputs": [
						{
							"internalType": "address",
							"name": "",
							"type": "address"
						}
					],
					"name": "balances",
					"outputs": [
						{
							"internalType": "uint256",
							"name": "",
							"type": "uint256"
						}
					],
					"stateMutability": "view",
					"type": "function"
				},
				{
					"inputs": [],
					"name": "count",
					"outputs": [
						{
							"internalType": "uint256",
							"name": "",
							"type": "uint256"
						}
					],
					"stateMutability": "view",
					"type": "function"
				},
				{
					"inputs": [
						{
							"internalType": "uint256",
							"name": "",
							"type": "uint256"
						}
					],
					"name": "project",
					"outputs": [
						{
							"internalType": "string",
							"name": "",
							"type": "string"
						}
					],
					"stateMutability": "view",
					"type": "function"
				}
			],
			"devdoc": {
				"kind": "dev",
				"methods": {},
				"version": 1
			},
			"evm": {
				"assembly": "    /* \"contracts/mapping.sol\":26:343  contract Mapping {... */\n  mstore(0x40, 0x80)\n  callvalue\n  dup1\n  iszero\n  tag_1\n  jumpi\n  0x00\n  dup1\n  revert\ntag_1:\n  pop\n  dataSize(sub_0)\n  dup1\n  dataOffset(sub_0)\n  0x00\n  codecopy\n  0x00\n  return\nstop\n\nsub_0: assembly {\n        /* \"contracts/mapping.sol\":26:343  contract Mapping {... */\n      mstore(0x40, 0x80)\n      callvalue\n      dup1\n      iszero\n      tag_1\n      jumpi\n      0x00\n      dup1\n      revert\n    tag_1:\n      pop\n      jumpi(tag_2, lt(calldatasize, 0x04))\n      shr(0xe0, calldataload(0x00))\n      dup1\n      0x06661abd\n      eq\n      tag_3\n      jumpi\n      dup1\n      0x0ed047d4\n      eq\n      tag_4\n      jumpi\n      dup1\n      0x11d5aaa7\n      eq\n      tag_5\n      jumpi\n      dup1\n      0x21e5383a\n      eq\n      tag_6\n      jumpi\n      dup1\n      0x27e235e3\n      eq\n      tag_7\n      jumpi\n    tag_2:\n      0x00\n      dup1\n      revert\n        /* \"contracts/mapping.sol\":91:108  uint public count */\n    tag_3:\n      tag_8\n      tag_9\n      jump\t// in\n    tag_8:\n      mload(0x40)\n      tag_10\n      swap2\n      swap1\n      tag_11\n      jump\t// in\n    tag_10:\n      mload(0x40)\n      dup1\n      swap2\n      sub\n      swap1\n      return\n        /* \"contracts/mapping.sol\":119:223  function addProject(string memory _name) public {... */\n    tag_4:\n      tag_12\n      0x04\n      dup1\n      calldatasize\n      sub\n      dup2\n      add\n      swap1\n      tag_13\n      swap2\n      swap1\n      tag_14\n      jump\t// in\n    tag_13:\n      tag_15\n      jump\t// in\n    tag_12:\n      stop\n        /* \"contracts/mapping.sol\":49:85  mapping(uint=>string) public project */\n    tag_5:\n      tag_16\n      0x04\n      dup1\n      calldatasize\n      sub\n      dup2\n      add\n      swap1\n      tag_17\n      swap2\n      swap1\n      tag_18\n      jump\t// in\n    tag_17:\n      tag_19\n      jump\t// in\n    tag_16:\n      mload(0x40)\n      tag_20\n      swap2\n      swap1\n      tag_21\n      jump\t// in\n    tag_20:\n      mload(0x40)\n      dup1\n      swap2\n      sub\n      swap1\n      return\n        /* \"contracts/mapping.sol\":274:341  function addBalance(address _addr, uint _i) public {... */\n    tag_6:\n      tag_22\n      0x04\n      dup1\n      calldatasize\n      sub\n      dup2\n      add\n      swap1\n      tag_23\n      swap2\n      swap1\n      tag_24\n      jump\t// in\n    tag_23:\n      tag_25\n      jump\t// in\n    tag_22:\n      stop\n        /* \"contracts/mapping.sol\":229:267  mapping(address=>uint) public balances */\n    tag_7:\n      tag_26\n      0x04\n      dup1\n      calldatasize\n      sub\n      dup2\n      add\n      swap1\n      tag_27\n      swap2\n      swap1\n      tag_28\n      jump\t// in\n    tag_27:\n      tag_29\n      jump\t// in\n    tag_26:\n      mload(0x40)\n      tag_30\n      swap2\n      swap1\n      tag_11\n      jump\t// in\n    tag_30:\n      mload(0x40)\n      dup1\n      swap2\n      sub\n      swap1\n      return\n        /* \"contracts/mapping.sol\":91:108  uint public count */\n    tag_9:\n      sload(0x01)\n      dup2\n      jump\t// out\n        /* \"contracts/mapping.sol\":119:223  function addProject(string memory _name) public {... */\n    tag_15:\n        /* \"contracts/mapping.sol\":194:199  _name */\n      dup1\n        /* \"contracts/mapping.sol\":177:184  project */\n      0x00\n        /* \"contracts/mapping.sol\":177:191  project[count] */\n      dup1\n        /* \"contracts/mapping.sol\":185:190  count */\n      sload(0x01)\n        /* \"contracts/mapping.sol\":177:191  project[count] */\n      dup2\n      mstore\n      0x20\n      add\n      swap1\n      dup2\n      mstore\n      0x20\n      add\n      0x00\n      keccak256\n        /* \"contracts/mapping.sol\":177:199  project[count] = _name */\n      swap1\n      dup2\n      tag_32\n      swap2\n      swap1\n      tag_33\n      jump\t// in\n    tag_32:\n      pop\n        /* \"contracts/mapping.sol\":209:214  count */\n      0x01\n      0x00\n        /* \"contracts/mapping.sol\":209:216  count++ */\n      dup2\n      sload\n      dup1\n      swap3\n      swap2\n      swap1\n      tag_34\n      swap1\n      tag_35\n      jump\t// in\n    tag_34:\n      swap2\n      swap1\n      pop\n      sstore\n      pop\n        /* \"contracts/mapping.sol\":119:223  function addProject(string memory _name) public {... */\n      pop\n      jump\t// out\n        /* \"contracts/mapping.sol\":49:85  mapping(uint=>string) public project */\n    tag_19:\n      mstore(0x20, 0x00)\n      dup1\n      0x00\n      mstore\n      keccak256(0x00, 0x40)\n      0x00\n      swap2\n      pop\n      swap1\n      pop\n      dup1\n      sload\n      tag_36\n      swap1\n      tag_37\n      jump\t// in\n    tag_36:\n      dup1\n      0x1f\n      add\n      0x20\n      dup1\n      swap2\n      div\n      mul\n      0x20\n      add\n      mload(0x40)\n      swap1\n      dup2\n      add\n      0x40\n      mstore\n      dup1\n      swap3\n      swap2\n      swap1\n      dup2\n      dup2\n      mstore\n      0x20\n      add\n      dup3\n      dup1\n      sload\n      tag_38\n      swap1\n      tag_37\n      jump\t// in\n    tag_38:\n      dup1\n      iszero\n      tag_39\n      jumpi\n      dup1\n      0x1f\n      lt\n      tag_40\n      jumpi\n      0x0100\n      dup1\n      dup4\n      sload\n      div\n      mul\n      dup4\n      mstore\n      swap2\n      0x20\n      add\n      swap2\n      jump(tag_39)\n    tag_40:\n      dup3\n      add\n      swap2\n      swap1\n      0x00\n      mstore\n      keccak256(0x00, 0x20)\n      swap1\n    tag_41:\n      dup2\n      sload\n      dup2\n      mstore\n      swap1\n      0x01\n      add\n      swap1\n      0x20\n      add\n      dup1\n      dup4\n      gt\n      tag_41\n      jumpi\n      dup3\n      swap1\n      sub\n      0x1f\n      and\n      dup3\n      add\n      swap2\n    tag_39:\n      pop\n      pop\n      pop\n      pop\n      pop\n      dup2\n      jump\t// out\n        /* \"contracts/mapping.sol\":274:341  function addBalance(address _addr, uint _i) public {... */\n    tag_25:\n      pop\n      pop\n      jump\t// out\n        /* \"contracts/mapping.sol\":229:267  mapping(address=>uint) public balances */\n    tag_29:\n      mstore(0x20, 0x02)\n      dup1\n      0x00\n      mstore\n      keccak256(0x00, 0x40)\n      0x00\n      swap2\n      pop\n      swap1\n      pop\n      sload\n      dup2\n      jump\t// out\n        /* \"#utility.yul\":7:84   */\n    tag_43:\n        /* \"#utility.yul\":44:51   */\n      0x00\n        /* \"#utility.yul\":73:78   */\n      dup2\n        /* \"#utility.yul\":62:78   */\n      swap1\n      pop\n        /* \"#utility.yul\":7:84   */\n      swap2\n      swap1\n      pop\n      jump\t// out\n        /* \"#utility.yul\":90:208   */\n    tag_44:\n        /* \"#utility.yul\":177:201   */\n      tag_88\n        /* \"#utility.yul\":195:200   */\n      dup2\n        /* \"#utility.yul\":177:201   */\n      tag_43\n      jump\t// in\n    tag_88:\n        /* \"#utility.yul\":172:175   */\n      dup3\n        /* \"#utility.yul\":165:202   */\n      mstore\n        /* \"#utility.yul\":90:208   */\n      pop\n      pop\n      jump\t// out\n        /* \"#utility.yul\":214:436   */\n    tag_11:\n        /* \"#utility.yul\":307:311   */\n      0x00\n        /* \"#utility.yul\":345:347   */\n      0x20\n        /* \"#utility.yul\":334:343   */\n      dup3\n        /* \"#utility.yul\":330:348   */\n      add\n        /* \"#utility.yul\":322:348   */\n      swap1\n      pop\n        /* \"#utility.yul\":358:429   */\n      tag_90\n        /* \"#utility.yul\":426:427   */\n      0x00\n        /* \"#utility.yul\":415:424   */\n      dup4\n        /* \"#utility.yul\":411:428   */\n      add\n        /* \"#utility.yul\":402:408   */\n      dup5\n        /* \"#utility.yul\":358:429   */\n      tag_44\n      jump\t// in\n    tag_90:\n        /* \"#utility.yul\":214:436   */\n      swap3\n      swap2\n      pop\n      pop\n      jump\t// out\n        /* \"#utility.yul\":442:517   */\n    tag_45:\n        /* \"#utility.yul\":475:481   */\n      0x00\n        /* \"#utility.yul\":508:510   */\n      0x40\n        /* \"#utility.yul\":502:511   */\n      mload\n        /* \"#utility.yul\":492:511   */\n      swap1\n      pop\n        /* \"#utility.yul\":442:517   */\n      swap1\n      jump\t// out\n        /* \"#utility.yul\":523:640   */\n    tag_46:\n        /* \"#utility.yul\":632:633   */\n      0x00\n        /* \"#utility.yul\":629:630   */\n      dup1\n        /* \"#utility.yul\":622:634   */\n      revert\n        /* \"#utility.yul\":646:763   */\n    tag_47:\n        /* \"#utility.yul\":755:756   */\n      0x00\n        /* \"#utility.yul\":752:753   */\n      dup1\n        /* \"#utility.yul\":745:757   */\n      revert\n        /* \"#utility.yul\":769:886   */\n    tag_48:\n        /* \"#utility.yul\":878:879   */\n      0x00\n        /* \"#utility.yul\":875:876   */\n      dup1\n        /* \"#utility.yul\":868:880   */\n      revert\n        /* \"#utility.yul\":892:1009   */\n    tag_49:\n        /* \"#utility.yul\":1001:1002   */\n      0x00\n        /* \"#utility.yul\":998:999   */\n      dup1\n        /* \"#utility.yul\":991:1003   */\n      revert\n        /* \"#utility.yul\":1015:1117   */\n    tag_50:\n        /* \"#utility.yul\":1056:1062   */\n      0x00\n        /* \"#utility.yul\":1107:1109   */\n      0x1f\n        /* \"#utility.yul\":1103:1110   */\n      not\n        /* \"#utility.yul\":1098:1100   */\n      0x1f\n        /* \"#utility.yul\":1091:1096   */\n      dup4\n        /* \"#utility.yul\":1087:1101   */\n      add\n        /* \"#utility.yul\":1083:1111   */\n      and\n        /* \"#utility.yul\":1073:1111   */\n      swap1\n      pop\n        /* \"#utility.yul\":1015:1117   */\n      swap2\n      swap1\n      pop\n      jump\t// out\n        /* \"#utility.yul\":1123:1303   */\n    tag_51:\n        /* \"#utility.yul\":1171:1248   */\n      0x4e487b7100000000000000000000000000000000000000000000000000000000\n        /* \"#utility.yul\":1168:1169   */\n      0x00\n        /* \"#utility.yul\":1161:1249   */\n      mstore\n        /* \"#utility.yul\":1268:1272   */\n      0x41\n        /* \"#utility.yul\":1265:1266   */\n      0x04\n        /* \"#utility.yul\":1258:1273   */\n      mstore\n        /* \"#utility.yul\":1292:1296   */\n      0x24\n        /* \"#utility.yul\":1289:1290   */\n      0x00\n        /* \"#utility.yul\":1282:1297   */\n      revert\n        /* \"#utility.yul\":1309:1590   */\n    tag_52:\n        /* \"#utility.yul\":1392:1419   */\n      tag_99\n        /* \"#utility.yul\":1414:1418   */\n      dup3\n        /* \"#utility.yul\":1392:1419   */\n      tag_50\n      jump\t// in\n    tag_99:\n        /* \"#utility.yul\":1384:1390   */\n      dup2\n        /* \"#utility.yul\":1380:1420   */\n      add\n        /* \"#utility.yul\":1522:1528   */\n      dup2\n        /* \"#utility.yul\":1510:1520   */\n      dup2\n        /* \"#utility.yul\":1507:1529   */\n      lt\n        /* \"#utility.yul\":1486:1504   */\n      0xffffffffffffffff\n        /* \"#utility.yul\":1474:1484   */\n      dup3\n        /* \"#utility.yul\":1471:1505   */\n      gt\n        /* \"#utility.yul\":1468:1530   */\n      or\n        /* \"#utility.yul\":1465:1553   */\n      iszero\n      tag_100\n      jumpi\n        /* \"#utility.yul\":1533:1551   */\n      tag_101\n      tag_51\n      jump\t// in\n    tag_101:\n        /* \"#utility.yul\":1465:1553   */\n    tag_100:\n        /* \"#utility.yul\":1573:1583   */\n      dup1\n        /* \"#utility.yul\":1569:1571   */\n      0x40\n        /* \"#utility.yul\":1562:1584   */\n      mstore\n        /* \"#utility.yul\":1352:1590   */\n      pop\n        /* \"#utility.yul\":1309:1590   */\n      pop\n      pop\n      jump\t// out\n        /* \"#utility.yul\":1596:1725   */\n    tag_53:\n        /* \"#utility.yul\":1630:1636   */\n      0x00\n        /* \"#utility.yul\":1657:1677   */\n      tag_103\n      tag_45\n      jump\t// in\n    tag_103:\n        /* \"#utility.yul\":1647:1677   */\n      swap1\n      pop\n        /* \"#utility.yul\":1686:1719   */\n      tag_104\n        /* \"#utility.yul\":1714:1718   */\n      dup3\n        /* \"#utility.yul\":1706:1712   */\n      dup3\n        /* \"#utility.yul\":1686:1719   */\n      tag_52\n      jump\t// in\n    tag_104:\n        /* \"#utility.yul\":1596:1725   */\n      swap2\n      swap1\n      pop\n      jump\t// out\n        /* \"#utility.yul\":1731:2039   */\n    tag_54:\n        /* \"#utility.yul\":1793:1797   */\n      0x00\n        /* \"#utility.yul\":1883:1901   */\n      0xffffffffffffffff\n        /* \"#utility.yul\":1875:1881   */\n      dup3\n        /* \"#utility.yul\":1872:1902   */\n      gt\n        /* \"#utility.yul\":1869:1925   */\n      iszero\n      tag_106\n      jumpi\n        /* \"#utility.yul\":1905:1923   */\n      tag_107\n      tag_51\n      jump\t// in\n    tag_107:\n        /* \"#utility.yul\":1869:1925   */\n    tag_106:\n        /* \"#utility.yul\":1943:1972   */\n      tag_108\n        /* \"#utility.yul\":1965:1971   */\n      dup3\n        /* \"#utility.yul\":1943:1972   */\n      tag_50\n      jump\t// in\n    tag_108:\n        /* \"#utility.yul\":1935:1972   */\n      swap1\n      pop\n        /* \"#utility.yul\":2027:2031   */\n      0x20\n        /* \"#utility.yul\":2021:2025   */\n      dup2\n        /* \"#utility.yul\":2017:2032   */\n      add\n        /* \"#utility.yul\":2009:2032   */\n      swap1\n      pop\n        /* \"#utility.yul\":1731:2039   */\n      swap2\n      swap1\n      pop\n      jump\t// out\n        /* \"#utility.yul\":2045:2199   */\n    tag_55:\n        /* \"#utility.yul\":2129:2135   */\n      dup3\n        /* \"#utility.yul\":2124:2127   */\n      dup2\n        /* \"#utility.yul\":2119:2122   */\n      dup4\n        /* \"#utility.yul\":2106:2136   */\n      calldatacopy\n        /* \"#utility.yul\":2191:2192   */\n      0x00\n        /* \"#utility.yul\":2182:2188   */\n      dup4\n        /* \"#utility.yul\":2177:2180   */\n      dup4\n        /* \"#utility.yul\":2173:2189   */\n      add\n        /* \"#utility.yul\":2166:2193   */\n      mstore\n        /* \"#utility.yul\":2045:2199   */\n      pop\n      pop\n      pop\n      jump\t// out\n        /* \"#utility.yul\":2205:2617   */\n    tag_56:\n        /* \"#utility.yul\":2283:2288   */\n      0x00\n        /* \"#utility.yul\":2308:2374   */\n      tag_111\n        /* \"#utility.yul\":2324:2373   */\n      tag_112\n        /* \"#utility.yul\":2366:2372   */\n      dup5\n        /* \"#utility.yul\":2324:2373   */\n      tag_54\n      jump\t// in\n    tag_112:\n        /* \"#utility.yul\":2308:2374   */\n      tag_53\n      jump\t// in\n    tag_111:\n        /* \"#utility.yul\":2299:2374   */\n      swap1\n      pop\n        /* \"#utility.yul\":2397:2403   */\n      dup3\n        /* \"#utility.yul\":2390:2395   */\n      dup2\n        /* \"#utility.yul\":2383:2404   */\n      mstore\n        /* \"#utility.yul\":2435:2439   */\n      0x20\n        /* \"#utility.yul\":2428:2433   */\n      dup2\n        /* \"#utility.yul\":2424:2440   */\n      add\n        /* \"#utility.yul\":2473:2476   */\n      dup5\n        /* \"#utility.yul\":2464:2470   */\n      dup5\n        /* \"#utility.yul\":2459:2462   */\n      dup5\n        /* \"#utility.yul\":2455:2471   */\n      add\n        /* \"#utility.yul\":2452:2477   */\n      gt\n        /* \"#utility.yul\":2449:2561   */\n      iszero\n      tag_113\n      jumpi\n        /* \"#utility.yul\":2480:2559   */\n      tag_114\n      tag_49\n      jump\t// in\n    tag_114:\n        /* \"#utility.yul\":2449:2561   */\n    tag_113:\n        /* \"#utility.yul\":2570:2611   */\n      tag_115\n        /* \"#utility.yul\":2604:2610   */\n      dup5\n        /* \"#utility.yul\":2599:2602   */\n      dup3\n        /* \"#utility.yul\":2594:2597   */\n      dup6\n        /* \"#utility.yul\":2570:2611   */\n      tag_55\n      jump\t// in\n    tag_115:\n        /* \"#utility.yul\":2289:2617   */\n      pop\n        /* \"#utility.yul\":2205:2617   */\n      swap4\n      swap3\n      pop\n      pop\n      pop\n      jump\t// out\n        /* \"#utility.yul\":2637:2977   */\n    tag_57:\n        /* \"#utility.yul\":2693:2698   */\n      0x00\n        /* \"#utility.yul\":2742:2745   */\n      dup3\n        /* \"#utility.yul\":2735:2739   */\n      0x1f\n        /* \"#utility.yul\":2727:2733   */\n      dup4\n        /* \"#utility.yul\":2723:2740   */\n      add\n        /* \"#utility.yul\":2719:2746   */\n      slt\n        /* \"#utility.yul\":2709:2831   */\n      tag_117\n      jumpi\n        /* \"#utility.yul\":2750:2829   */\n      tag_118\n      tag_48\n      jump\t// in\n    tag_118:\n        /* \"#utility.yul\":2709:2831   */\n    tag_117:\n        /* \"#utility.yul\":2867:2873   */\n      dup2\n        /* \"#utility.yul\":2854:2874   */\n      calldataload\n        /* \"#utility.yul\":2892:2971   */\n      tag_119\n        /* \"#utility.yul\":2967:2970   */\n      dup5\n        /* \"#utility.yul\":2959:2965   */\n      dup3\n        /* \"#utility.yul\":2952:2956   */\n      0x20\n        /* \"#utility.yul\":2944:2950   */\n      dup7\n        /* \"#utility.yul\":2940:2957   */\n      add\n        /* \"#utility.yul\":2892:2971   */\n      tag_56\n      jump\t// in\n    tag_119:\n        /* \"#utility.yul\":2883:2971   */\n      swap2\n      pop\n        /* \"#utility.yul\":2699:2977   */\n      pop\n        /* \"#utility.yul\":2637:2977   */\n      swap3\n      swap2\n      pop\n      pop\n      jump\t// out\n        /* \"#utility.yul\":2983:3492   */\n    tag_14:\n        /* \"#utility.yul\":3052:3058   */\n      0x00\n        /* \"#utility.yul\":3101:3103   */\n      0x20\n        /* \"#utility.yul\":3089:3098   */\n      dup3\n        /* \"#utility.yul\":3080:3087   */\n      dup5\n        /* \"#utility.yul\":3076:3099   */\n      sub\n        /* \"#utility.yul\":3072:3104   */\n      slt\n        /* \"#utility.yul\":3069:3188   */\n      iszero\n      tag_121\n      jumpi\n        /* \"#utility.yul\":3107:3186   */\n      tag_122\n      tag_46\n      jump\t// in\n    tag_122:\n        /* \"#utility.yul\":3069:3188   */\n    tag_121:\n        /* \"#utility.yul\":3255:3256   */\n      0x00\n        /* \"#utility.yul\":3244:3253   */\n      dup3\n        /* \"#utility.yul\":3240:3257   */\n      add\n        /* \"#utility.yul\":3227:3258   */\n      calldataload\n        /* \"#utility.yul\":3285:3303   */\n      0xffffffffffffffff\n        /* \"#utility.yul\":3277:3283   */\n      dup2\n        /* \"#utility.yul\":3274:3304   */\n      gt\n        /* \"#utility.yul\":3271:3388   */\n      iszero\n      tag_123\n      jumpi\n        /* \"#utility.yul\":3307:3386   */\n      tag_124\n      tag_47\n      jump\t// in\n    tag_124:\n        /* \"#utility.yul\":3271:3388   */\n    tag_123:\n        /* \"#utility.yul\":3412:3475   */\n      tag_125\n        /* \"#utility.yul\":3467:3474   */\n      dup5\n        /* \"#utility.yul\":3458:3464   */\n      dup3\n        /* \"#utility.yul\":3447:3456   */\n      dup6\n        /* \"#utility.yul\":3443:3465   */\n      add\n        /* \"#utility.yul\":3412:3475   */\n      tag_57\n      jump\t// in\n    tag_125:\n        /* \"#utility.yul\":3402:3475   */\n      swap2\n      pop\n        /* \"#utility.yul\":3198:3485   */\n      pop\n        /* \"#utility.yul\":2983:3492   */\n      swap3\n      swap2\n      pop\n      pop\n      jump\t// out\n        /* \"#utility.yul\":3498:3620   */\n    tag_58:\n        /* \"#utility.yul\":3571:3595   */\n      tag_127\n        /* \"#utility.yul\":3589:3594   */\n      dup2\n        /* \"#utility.yul\":3571:3595   */\n      tag_43\n      jump\t// in\n    tag_127:\n        /* \"#utility.yul\":3564:3569   */\n      dup2\n        /* \"#utility.yul\":3561:3596   */\n      eq\n        /* \"#utility.yul\":3551:3614   */\n      tag_128\n      jumpi\n        /* \"#utility.yul\":3610:3611   */\n      0x00\n        /* \"#utility.yul\":3607:3608   */\n      dup1\n        /* \"#utility.yul\":3600:3612   */\n      revert\n        /* \"#utility.yul\":3551:3614   */\n    tag_128:\n        /* \"#utility.yul\":3498:3620   */\n      pop\n      jump\t// out\n        /* \"#utility.yul\":3626:3765   */\n    tag_59:\n        /* \"#utility.yul\":3672:3677   */\n      0x00\n        /* \"#utility.yul\":3710:3716   */\n      dup2\n        /* \"#utility.yul\":3697:3717   */\n      calldataload\n        /* \"#utility.yul\":3688:3717   */\n      swap1\n      pop\n        /* \"#utility.yul\":3726:3759   */\n      tag_130\n        /* \"#utility.yul\":3753:3758   */\n      dup2\n        /* \"#utility.yul\":3726:3759   */\n      tag_58\n      jump\t// in\n    tag_130:\n        /* \"#utility.yul\":3626:3765   */\n      swap3\n      swap2\n      pop\n      pop\n      jump\t// out\n        /* \"#utility.yul\":3771:4100   */\n    tag_18:\n        /* \"#utility.yul\":3830:3836   */\n      0x00\n        /* \"#utility.yul\":3879:3881   */\n      0x20\n        /* \"#utility.yul\":3867:3876   */\n      dup3\n        /* \"#utility.yul\":3858:3865   */\n      dup5\n        /* \"#utility.yul\":3854:3877   */\n      sub\n        /* \"#utility.yul\":3850:3882   */\n      slt\n        /* \"#utility.yul\":3847:3966   */\n      iszero\n      tag_132\n      jumpi\n        /* \"#utility.yul\":3885:3964   */\n      tag_133\n      tag_46\n      jump\t// in\n    tag_133:\n        /* \"#utility.yul\":3847:3966   */\n    tag_132:\n        /* \"#utility.yul\":4005:4006   */\n      0x00\n        /* \"#utility.yul\":4030:4083   */\n      tag_134\n        /* \"#utility.yul\":4075:4082   */\n      dup5\n        /* \"#utility.yul\":4066:4072   */\n      dup3\n        /* \"#utility.yul\":4055:4064   */\n      dup6\n        /* \"#utility.yul\":4051:4073   */\n      add\n        /* \"#utility.yul\":4030:4083   */\n      tag_59\n      jump\t// in\n    tag_134:\n        /* \"#utility.yul\":4020:4083   */\n      swap2\n      pop\n        /* \"#utility.yul\":3976:4093   */\n      pop\n        /* \"#utility.yul\":3771:4100   */\n      swap3\n      swap2\n      pop\n      pop\n      jump\t// out\n        /* \"#utility.yul\":4106:4205   */\n    tag_60:\n        /* \"#utility.yul\":4158:4164   */\n      0x00\n        /* \"#utility.yul\":4192:4197   */\n      dup2\n        /* \"#utility.yul\":4186:4198   */\n      mload\n        /* \"#utility.yul\":4176:4198   */\n      swap1\n      pop\n        /* \"#utility.yul\":4106:4205   */\n      swap2\n      swap1\n      pop\n      jump\t// out\n        /* \"#utility.yul\":4211:4380   */\n    tag_61:\n        /* \"#utility.yul\":4295:4306   */\n      0x00\n        /* \"#utility.yul\":4329:4335   */\n      dup3\n        /* \"#utility.yul\":4324:4327   */\n      dup3\n        /* \"#utility.yul\":4317:4336   */\n      mstore\n        /* \"#utility.yul\":4369:4373   */\n      0x20\n        /* \"#utility.yul\":4364:4367   */\n      dup3\n        /* \"#utility.yul\":4360:4374   */\n      add\n        /* \"#utility.yul\":4345:4374   */\n      swap1\n      pop\n        /* \"#utility.yul\":4211:4380   */\n      swap3\n      swap2\n      pop\n      pop\n      jump\t// out\n        /* \"#utility.yul\":4386:4693   */\n    tag_62:\n        /* \"#utility.yul\":4454:4455   */\n      0x00\n        /* \"#utility.yul\":4464:4577   */\n    tag_138:\n        /* \"#utility.yul\":4478:4484   */\n      dup4\n        /* \"#utility.yul\":4475:4476   */\n      dup2\n        /* \"#utility.yul\":4472:4485   */\n      lt\n        /* \"#utility.yul\":4464:4577   */\n      iszero\n      tag_140\n      jumpi\n        /* \"#utility.yul\":4563:4564   */\n      dup1\n        /* \"#utility.yul\":4558:4561   */\n      dup3\n        /* \"#utility.yul\":4554:4565   */\n      add\n        /* \"#utility.yul\":4548:4566   */\n      mload\n        /* \"#utility.yul\":4544:4545   */\n      dup2\n        /* \"#utility.yul\":4539:4542   */\n      dup5\n        /* \"#utility.yul\":4535:4546   */\n      add\n        /* \"#utility.yul\":4528:4567   */\n      mstore\n        /* \"#utility.yul\":4500:4502   */\n      0x20\n        /* \"#utility.yul\":4497:4498   */\n      dup2\n        /* \"#utility.yul\":4493:4503   */\n      add\n        /* \"#utility.yul\":4488:4503   */\n      swap1\n      pop\n        /* \"#utility.yul\":4464:4577   */\n      jump(tag_138)\n    tag_140:\n        /* \"#utility.yul\":4595:4601   */\n      dup4\n        /* \"#utility.yul\":4592:4593   */\n      dup2\n        /* \"#utility.yul\":4589:4602   */\n      gt\n        /* \"#utility.yul\":4586:4687   */\n      iszero\n      tag_141\n      jumpi\n        /* \"#utility.yul\":4675:4676   */\n      0x00\n        /* \"#utility.yul\":4666:4672   */\n      dup5\n        /* \"#utility.yul\":4661:4664   */\n      dup5\n        /* \"#utility.yul\":4657:4673   */\n      add\n        /* \"#utility.yul\":4650:4677   */\n      mstore\n        /* \"#utility.yul\":4586:4687   */\n    tag_141:\n        /* \"#utility.yul\":4435:4693   */\n      pop\n        /* \"#utility.yul\":4386:4693   */\n      pop\n      pop\n      pop\n      jump\t// out\n        /* \"#utility.yul\":4699:5063   */\n    tag_63:\n        /* \"#utility.yul\":4787:4790   */\n      0x00\n        /* \"#utility.yul\":4815:4854   */\n      tag_143\n        /* \"#utility.yul\":4848:4853   */\n      dup3\n        /* \"#utility.yul\":4815:4854   */\n      tag_60\n      jump\t// in\n    tag_143:\n        /* \"#utility.yul\":4870:4941   */\n      tag_144\n        /* \"#utility.yul\":4934:4940   */\n      dup2\n        /* \"#utility.yul\":4929:4932   */\n      dup6\n        /* \"#utility.yul\":4870:4941   */\n      tag_61\n      jump\t// in\n    tag_144:\n        /* \"#utility.yul\":4863:4941   */\n      swap4\n      pop\n        /* \"#utility.yul\":4950:5002   */\n      tag_145\n        /* \"#utility.yul\":4995:5001   */\n      dup2\n        /* \"#utility.yul\":4990:4993   */\n      dup6\n        /* \"#utility.yul\":4983:4987   */\n      0x20\n        /* \"#utility.yul\":4976:4981   */\n      dup7\n        /* \"#utility.yul\":4972:4988   */\n      add\n        /* \"#utility.yul\":4950:5002   */\n      tag_62\n      jump\t// in\n    tag_145:\n        /* \"#utility.yul\":5027:5056   */\n      tag_146\n        /* \"#utility.yul\":5049:5055   */\n      dup2\n        /* \"#utility.yul\":5027:5056   */\n      tag_50\n      jump\t// in\n    tag_146:\n        /* \"#utility.yul\":5022:5025   */\n      dup5\n        /* \"#utility.yul\":5018:5057   */\n      add\n        /* \"#utility.yul\":5011:5057   */\n      swap2\n      pop\n        /* \"#utility.yul\":4791:5063   */\n      pop\n        /* \"#utility.yul\":4699:5063   */\n      swap3\n      swap2\n      pop\n      pop\n      jump\t// out\n        /* \"#utility.yul\":5069:5382   */\n    tag_21:\n        /* \"#utility.yul\":5182:5186   */\n      0x00\n        /* \"#utility.yul\":5220:5222   */\n      0x20\n        /* \"#utility.yul\":5209:5218   */\n      dup3\n        /* \"#utility.yul\":5205:5223   */\n      add\n        /* \"#utility.yul\":5197:5223   */\n      swap1\n      pop\n        /* \"#utility.yul\":5269:5278   */\n      dup2\n        /* \"#utility.yul\":5263:5267   */\n      dup2\n        /* \"#utility.yul\":5259:5279   */\n      sub\n        /* \"#utility.yul\":5255:5256   */\n      0x00\n        /* \"#utility.yul\":5244:5253   */\n      dup4\n        /* \"#utility.yul\":5240:5257   */\n      add\n        /* \"#utility.yul\":5233:5280   */\n      mstore\n        /* \"#utility.yul\":5297:5375   */\n      tag_148\n        /* \"#utility.yul\":5370:5374   */\n      dup2\n        /* \"#utility.yul\":5361:5367   */\n      dup5\n        /* \"#utility.yul\":5297:5375   */\n      tag_63\n      jump\t// in\n    tag_148:\n        /* \"#utility.yul\":5289:5375   */\n      swap1\n      pop\n        /* \"#utility.yul\":5069:5382   */\n      swap3\n      swap2\n      pop\n      pop\n      jump\t// out\n        /* \"#utility.yul\":5388:5514   */\n    tag_64:\n        /* \"#utility.yul\":5425:5432   */\n      0x00\n        /* \"#utility.yul\":5465:5507   */\n      0xffffffffffffffffffffffffffffffffffffffff\n        /* \"#utility.yul\":5458:5463   */\n      dup3\n        /* \"#utility.yul\":5454:5508   */\n      and\n        /* \"#utility.yul\":5443:5508   */\n      swap1\n      pop\n        /* \"#utility.yul\":5388:5514   */\n      swap2\n      swap1\n      pop\n      jump\t// out\n        /* \"#utility.yul\":5520:5616   */\n    tag_65:\n        /* \"#utility.yul\":5557:5564   */\n      0x00\n        /* \"#utility.yul\":5586:5610   */\n      tag_151\n        /* \"#utility.yul\":5604:5609   */\n      dup3\n        /* \"#utility.yul\":5586:5610   */\n      tag_64\n      jump\t// in\n    tag_151:\n        /* \"#utility.yul\":5575:5610   */\n      swap1\n      pop\n        /* \"#utility.yul\":5520:5616   */\n      swap2\n      swap1\n      pop\n      jump\t// out\n        /* \"#utility.yul\":5622:5744   */\n    tag_66:\n        /* \"#utility.yul\":5695:5719   */\n      tag_153\n        /* \"#utility.yul\":5713:5718   */\n      dup2\n        /* \"#utility.yul\":5695:5719   */\n      tag_65\n      jump\t// in\n    tag_153:\n        /* \"#utility.yul\":5688:5693   */\n      dup2\n        /* \"#utility.yul\":5685:5720   */\n      eq\n        /* \"#utility.yul\":5675:5738   */\n      tag_154\n      jumpi\n        /* \"#utility.yul\":5734:5735   */\n      0x00\n        /* \"#utility.yul\":5731:5732   */\n      dup1\n        /* \"#utility.yul\":5724:5736   */\n      revert\n        /* \"#utility.yul\":5675:5738   */\n    tag_154:\n        /* \"#utility.yul\":5622:5744   */\n      pop\n      jump\t// out\n        /* \"#utility.yul\":5750:5889   */\n    tag_67:\n        /* \"#utility.yul\":5796:5801   */\n      0x00\n        /* \"#utility.yul\":5834:5840   */\n      dup2\n        /* \"#utility.yul\":5821:5841   */\n      calldataload\n        /* \"#utility.yul\":5812:5841   */\n      swap1\n      pop\n        /* \"#utility.yul\":5850:5883   */\n      tag_156\n        /* \"#utility.yul\":5877:5882   */\n      dup2\n        /* \"#utility.yul\":5850:5883   */\n      tag_66\n      jump\t// in\n    tag_156:\n        /* \"#utility.yul\":5750:5889   */\n      swap3\n      swap2\n      pop\n      pop\n      jump\t// out\n        /* \"#utility.yul\":5895:6369   */\n    tag_24:\n        /* \"#utility.yul\":5963:5969   */\n      0x00\n        /* \"#utility.yul\":5971:5977   */\n      dup1\n        /* \"#utility.yul\":6020:6022   */\n      0x40\n        /* \"#utility.yul\":6008:6017   */\n      dup4\n        /* \"#utility.yul\":5999:6006   */\n      dup6\n        /* \"#utility.yul\":5995:6018   */\n      sub\n        /* \"#utility.yul\":5991:6023   */\n      slt\n        /* \"#utility.yul\":5988:6107   */\n      iszero\n      tag_158\n      jumpi\n        /* \"#utility.yul\":6026:6105   */\n      tag_159\n      tag_46\n      jump\t// in\n    tag_159:\n        /* \"#utility.yul\":5988:6107   */\n    tag_158:\n        /* \"#utility.yul\":6146:6147   */\n      0x00\n        /* \"#utility.yul\":6171:6224   */\n      tag_160\n        /* \"#utility.yul\":6216:6223   */\n      dup6\n        /* \"#utility.yul\":6207:6213   */\n      dup3\n        /* \"#utility.yul\":6196:6205   */\n      dup7\n        /* \"#utility.yul\":6192:6214   */\n      add\n        /* \"#utility.yul\":6171:6224   */\n      tag_67\n      jump\t// in\n    tag_160:\n        /* \"#utility.yul\":6161:6224   */\n      swap3\n      pop\n        /* \"#utility.yul\":6117:6234   */\n      pop\n        /* \"#utility.yul\":6273:6275   */\n      0x20\n        /* \"#utility.yul\":6299:6352   */\n      tag_161\n        /* \"#utility.yul\":6344:6351   */\n      dup6\n        /* \"#utility.yul\":6335:6341   */\n      dup3\n        /* \"#utility.yul\":6324:6333   */\n      dup7\n        /* \"#utility.yul\":6320:6342   */\n      add\n        /* \"#utility.yul\":6299:6352   */\n      tag_59\n      jump\t// in\n    tag_161:\n        /* \"#utility.yul\":6289:6352   */\n      swap2\n      pop\n        /* \"#utility.yul\":6244:6362   */\n      pop\n        /* \"#utility.yul\":5895:6369   */\n      swap3\n      pop\n      swap3\n      swap1\n      pop\n      jump\t// out\n        /* \"#utility.yul\":6375:6704   */\n    tag_28:\n        /* \"#utility.yul\":6434:6440   */\n      0x00\n        /* \"#utility.yul\":6483:6485   */\n      0x20\n        /* \"#utility.yul\":6471:6480   */\n      dup3\n        /* \"#utility.yul\":6462:6469   */\n      dup5\n        /* \"#utility.yul\":6458:6481   */\n      sub\n        /* \"#utility.yul\":6454:6486   */\n      slt\n        /* \"#utility.yul\":6451:6570   */\n      iszero\n      tag_163\n      jumpi\n        /* \"#utility.yul\":6489:6568   */\n      tag_164\n      tag_46\n      jump\t// in\n    tag_164:\n        /* \"#utility.yul\":6451:6570   */\n    tag_163:\n        /* \"#utility.yul\":6609:6610   */\n      0x00\n        /* \"#utility.yul\":6634:6687   */\n      tag_165\n        /* \"#utility.yul\":6679:6686   */\n      dup5\n        /* \"#utility.yul\":6670:6676   */\n      dup3\n        /* \"#utility.yul\":6659:6668   */\n      dup6\n        /* \"#utility.yul\":6655:6677   */\n      add\n        /* \"#utility.yul\":6634:6687   */\n      tag_67\n      jump\t// in\n    tag_165:\n        /* \"#utility.yul\":6624:6687   */\n      swap2\n      pop\n        /* \"#utility.yul\":6580:6697   */\n      pop\n        /* \"#utility.yul\":6375:6704   */\n      swap3\n      swap2\n      pop\n      pop\n      jump\t// out\n        /* \"#utility.yul\":6710:6890   */\n    tag_68:\n        /* \"#utility.yul\":6758:6835   */\n      0x4e487b7100000000000000000000000000000000000000000000000000000000\n        /* \"#utility.yul\":6755:6756   */\n      0x00\n        /* \"#utility.yul\":6748:6836   */\n      mstore\n        /* \"#utility.yul\":6855:6859   */\n      0x22\n        /* \"#utility.yul\":6852:6853   */\n      0x04\n        /* \"#utility.yul\":6845:6860   */\n      mstore\n        /* \"#utility.yul\":6879:6883   */\n      0x24\n        /* \"#utility.yul\":6876:6877   */\n      0x00\n        /* \"#utility.yul\":6869:6884   */\n      revert\n        /* \"#utility.yul\":6896:7216   */\n    tag_37:\n        /* \"#utility.yul\":6940:6946   */\n      0x00\n        /* \"#utility.yul\":6977:6978   */\n      0x02\n        /* \"#utility.yul\":6971:6975   */\n      dup3\n        /* \"#utility.yul\":6967:6979   */\n      div\n        /* \"#utility.yul\":6957:6979   */\n      swap1\n      pop\n        /* \"#utility.yul\":7024:7025   */\n      0x01\n        /* \"#utility.yul\":7018:7022   */\n      dup3\n        /* \"#utility.yul\":7014:7026   */\n      and\n        /* \"#utility.yul\":7045:7063   */\n      dup1\n        /* \"#utility.yul\":7035:7116   */\n      tag_168\n      jumpi\n        /* \"#utility.yul\":7101:7105   */\n      0x7f\n        /* \"#utility.yul\":7093:7099   */\n      dup3\n        /* \"#utility.yul\":7089:7106   */\n      and\n        /* \"#utility.yul\":7079:7106   */\n      swap2\n      pop\n        /* \"#utility.yul\":7035:7116   */\n    tag_168:\n        /* \"#utility.yul\":7163:7165   */\n      0x20\n        /* \"#utility.yul\":7155:7161   */\n      dup3\n        /* \"#utility.yul\":7152:7166   */\n      lt\n        /* \"#utility.yul\":7132:7150   */\n      dup2\n        /* \"#utility.yul\":7129:7167   */\n      sub\n        /* \"#utility.yul\":7126:7210   */\n      tag_169\n      jumpi\n        /* \"#utility.yul\":7182:7200   */\n      tag_170\n      tag_68\n      jump\t// in\n    tag_170:\n        /* \"#utility.yul\":7126:7210   */\n    tag_169:\n        /* \"#utility.yul\":6947:7216   */\n      pop\n        /* \"#utility.yul\":6896:7216   */\n      swap2\n      swap1\n      pop\n      jump\t// out\n        /* \"#utility.yul\":7222:7363   */\n    tag_69:\n        /* \"#utility.yul\":7271:7275   */\n      0x00\n        /* \"#utility.yul\":7294:7297   */\n      dup2\n        /* \"#utility.yul\":7286:7297   */\n      swap1\n      pop\n        /* \"#utility.yul\":7317:7320   */\n      dup2\n        /* \"#utility.yul\":7314:7315   */\n      0x00\n        /* \"#utility.yul\":7307:7321   */\n      mstore\n        /* \"#utility.yul\":7351:7355   */\n      0x20\n        /* \"#utility.yul\":7348:7349   */\n      0x00\n        /* \"#utility.yul\":7338:7356   */\n      keccak256\n        /* \"#utility.yul\":7330:7356   */\n      swap1\n      pop\n        /* \"#utility.yul\":7222:7363   */\n      swap2\n      swap1\n      pop\n      jump\t// out\n        /* \"#utility.yul\":7369:7462   */\n    tag_70:\n        /* \"#utility.yul\":7406:7412   */\n      0x00\n        /* \"#utility.yul\":7453:7455   */\n      0x20\n        /* \"#utility.yul\":7448:7450   */\n      0x1f\n        /* \"#utility.yul\":7441:7446   */\n      dup4\n        /* \"#utility.yul\":7437:7451   */\n      add\n        /* \"#utility.yul\":7433:7456   */\n      div\n        /* \"#utility.yul\":7423:7456   */\n      swap1\n      pop\n        /* \"#utility.yul\":7369:7462   */\n      swap2\n      swap1\n      pop\n      jump\t// out\n        /* \"#utility.yul\":7468:7575   */\n    tag_71:\n        /* \"#utility.yul\":7512:7520   */\n      0x00\n        /* \"#utility.yul\":7562:7567   */\n      dup3\n        /* \"#utility.yul\":7556:7560   */\n      dup3\n        /* \"#utility.yul\":7552:7568   */\n      shl\n        /* \"#utility.yul\":7531:7568   */\n      swap1\n      pop\n        /* \"#utility.yul\":7468:7575   */\n      swap3\n      swap2\n      pop\n      pop\n      jump\t// out\n        /* \"#utility.yul\":7581:7974   */\n    tag_72:\n        /* \"#utility.yul\":7650:7656   */\n      0x00\n        /* \"#utility.yul\":7700:7701   */\n      0x08\n        /* \"#utility.yul\":7688:7698   */\n      dup4\n        /* \"#utility.yul\":7684:7702   */\n      mul\n        /* \"#utility.yul\":7723:7820   */\n      tag_175\n        /* \"#utility.yul\":7753:7819   */\n      0xffffffffffffffffffffffffffffffffffffffffffffffffffffffffffffffff\n        /* \"#utility.yul\":7742:7751   */\n      dup3\n        /* \"#utility.yul\":7723:7820   */\n      tag_71\n      jump\t// in\n    tag_175:\n        /* \"#utility.yul\":7841:7880   */\n      tag_176\n        /* \"#utility.yul\":7871:7879   */\n      dup7\n        /* \"#utility.yul\":7860:7869   */\n      dup4\n        /* \"#utility.yul\":7841:7880   */\n      tag_71\n      jump\t// in\n    tag_176:\n        /* \"#utility.yul\":7829:7880   */\n      swap6\n      pop\n        /* \"#utility.yul\":7913:7917   */\n      dup1\n        /* \"#utility.yul\":7909:7918   */\n      not\n        /* \"#utility.yul\":7902:7907   */\n      dup5\n        /* \"#utility.yul\":7898:7919   */\n      and\n        /* \"#utility.yul\":7889:7919   */\n      swap4\n      pop\n        /* \"#utility.yul\":7962:7966   */\n      dup1\n        /* \"#utility.yul\":7952:7960   */\n      dup7\n        /* \"#utility.yul\":7948:7967   */\n      and\n        /* \"#utility.yul\":7941:7946   */\n      dup5\n        /* \"#utility.yul\":7938:7968   */\n      or\n        /* \"#utility.yul\":7928:7968   */\n      swap3\n      pop\n        /* \"#utility.yul\":7657:7974   */\n      pop\n      pop\n        /* \"#utility.yul\":7581:7974   */\n      swap4\n      swap3\n      pop\n      pop\n      pop\n      jump\t// out\n        /* \"#utility.yul\":7980:8040   */\n    tag_73:\n        /* \"#utility.yul\":8008:8011   */\n      0x00\n        /* \"#utility.yul\":8029:8034   */\n      dup2\n        /* \"#utility.yul\":8022:8034   */\n      swap1\n      pop\n        /* \"#utility.yul\":7980:8040   */\n      swap2\n      swap1\n      pop\n      jump\t// out\n        /* \"#utility.yul\":8046:8188   */\n    tag_74:\n        /* \"#utility.yul\":8096:8105   */\n      0x00\n        /* \"#utility.yul\":8129:8182   */\n      tag_179\n        /* \"#utility.yul\":8147:8181   */\n      tag_180\n        /* \"#utility.yul\":8156:8180   */\n      tag_181\n        /* \"#utility.yul\":8174:8179   */\n      dup5\n        /* \"#utility.yul\":8156:8180   */\n      tag_43\n      jump\t// in\n    tag_181:\n        /* \"#utility.yul\":8147:8181   */\n      tag_73\n      jump\t// in\n    tag_180:\n        /* \"#utility.yul\":8129:8182   */\n      tag_43\n      jump\t// in\n    tag_179:\n        /* \"#utility.yul\":8116:8182   */\n      swap1\n      pop\n        /* \"#utility.yul\":8046:8188   */\n      swap2\n      swap1\n      pop\n      jump\t// out\n        /* \"#utility.yul\":8194:8269   */\n    tag_75:\n        /* \"#utility.yul\":8237:8240   */\n      0x00\n        /* \"#utility.yul\":8258:8263   */\n      dup2\n        /* \"#utility.yul\":8251:8263   */\n      swap1\n      pop\n        /* \"#utility.yul\":8194:8269   */\n      swap2\n      swap1\n      pop\n      jump\t// out\n        /* \"#utility.yul\":8275:8544   */\n    tag_76:\n        /* \"#utility.yul\":8385:8424   */\n      tag_184\n        /* \"#utility.yul\":8416:8423   */\n      dup4\n        /* \"#utility.yul\":8385:8424   */\n      tag_74\n      jump\t// in\n    tag_184:\n        /* \"#utility.yul\":8446:8537   */\n      tag_185\n        /* \"#utility.yul\":8495:8536   */\n      tag_186\n        /* \"#utility.yul\":8519:8535   */\n      dup3\n        /* \"#utility.yul\":8495:8536   */\n      tag_75\n      jump\t// in\n    tag_186:\n        /* \"#utility.yul\":8487:8493   */\n      dup5\n        /* \"#utility.yul\":8480:8484   */\n      dup5\n        /* \"#utility.yul\":8474:8485   */\n      sload\n        /* \"#utility.yul\":8446:8537   */\n      tag_72\n      jump\t// in\n    tag_185:\n        /* \"#utility.yul\":8440:8444   */\n      dup3\n        /* \"#utility.yul\":8433:8538   */\n      sstore\n        /* \"#utility.yul\":8351:8544   */\n      pop\n        /* \"#utility.yul\":8275:8544   */\n      pop\n      pop\n      pop\n      jump\t// out\n        /* \"#utility.yul\":8550:8623   */\n    tag_77:\n        /* \"#utility.yul\":8595:8598   */\n      0x00\n        /* \"#utility.yul\":8550:8623   */\n      swap1\n      jump\t// out\n        /* \"#utility.yul\":8629:8818   */\n    tag_78:\n        /* \"#utility.yul\":8706:8738   */\n      tag_189\n      tag_77\n      jump\t// in\n    tag_189:\n        /* \"#utility.yul\":8747:8812   */\n      tag_190\n        /* \"#utility.yul\":8805:8811   */\n      dup2\n        /* \"#utility.yul\":8797:8803   */\n      dup5\n        /* \"#utility.yul\":8791:8795   */\n      dup5\n        /* \"#utility.yul\":8747:8812   */\n      tag_76\n      jump\t// in\n    tag_190:\n        /* \"#utility.yul\":8682:8818   */\n      pop\n        /* \"#utility.yul\":8629:8818   */\n      pop\n      pop\n      jump\t// out\n        /* \"#utility.yul\":8824:9010   */\n    tag_79:\n        /* \"#utility.yul\":8884:9004   */\n    tag_192:\n        /* \"#utility.yul\":8901:8904   */\n      dup2\n        /* \"#utility.yul\":8894:8899   */\n      dup2\n        /* \"#utility.yul\":8891:8905   */\n      lt\n        /* \"#utility.yul\":8884:9004   */\n      iszero\n      tag_194\n      jumpi\n        /* \"#utility.yul\":8955:8994   */\n      tag_195\n        /* \"#utility.yul\":8992:8993   */\n      0x00\n        /* \"#utility.yul\":8985:8990   */\n      dup3\n        /* \"#utility.yul\":8955:8994   */\n      tag_78\n      jump\t// in\n    tag_195:\n        /* \"#utility.yul\":8928:8929   */\n      0x01\n        /* \"#utility.yul\":8921:8926   */\n      dup2\n        /* \"#utility.yul\":8917:8930   */\n      add\n        /* \"#utility.yul\":8908:8930   */\n      swap1\n      pop\n        /* \"#utility.yul\":8884:9004   */\n      jump(tag_192)\n    tag_194:\n        /* \"#utility.yul\":8824:9010   */\n      pop\n      pop\n      jump\t// out\n        /* \"#utility.yul\":9016:9559   */\n    tag_80:\n        /* \"#utility.yul\":9117:9119   */\n      0x1f\n        /* \"#utility.yul\":9112:9115   */\n      dup3\n        /* \"#utility.yul\":9109:9120   */\n      gt\n        /* \"#utility.yul\":9106:9552   */\n      iszero\n      tag_197\n      jumpi\n        /* \"#utility.yul\":9151:9189   */\n      tag_198\n        /* \"#utility.yul\":9183:9188   */\n      dup2\n        /* \"#utility.yul\":9151:9189   */\n      tag_69\n      jump\t// in\n    tag_198:\n        /* \"#utility.yul\":9235:9264   */\n      tag_199\n        /* \"#utility.yul\":9253:9263   */\n      dup5\n        /* \"#utility.yul\":9235:9264   */\n      tag_70\n      jump\t// in\n    tag_199:\n        /* \"#utility.yul\":9225:9233   */\n      dup2\n        /* \"#utility.yul\":9221:9265   */\n      add\n        /* \"#utility.yul\":9418:9420   */\n      0x20\n        /* \"#utility.yul\":9406:9416   */\n      dup6\n        /* \"#utility.yul\":9403:9421   */\n      lt\n        /* \"#utility.yul\":9400:9449   */\n      iszero\n      tag_200\n      jumpi\n        /* \"#utility.yul\":9439:9447   */\n      dup2\n        /* \"#utility.yul\":9424:9447   */\n      swap1\n      pop\n        /* \"#utility.yul\":9400:9449   */\n    tag_200:\n        /* \"#utility.yul\":9462:9542   */\n      tag_201\n        /* \"#utility.yul\":9518:9540   */\n      tag_202\n        /* \"#utility.yul\":9536:9539   */\n      dup6\n        /* \"#utility.yul\":9518:9540   */\n      tag_70\n      jump\t// in\n    tag_202:\n        /* \"#utility.yul\":9508:9516   */\n      dup4\n        /* \"#utility.yul\":9504:9541   */\n      add\n        /* \"#utility.yul\":9491:9502   */\n      dup3\n        /* \"#utility.yul\":9462:9542   */\n      tag_79\n      jump\t// in\n    tag_201:\n        /* \"#utility.yul\":9121:9552   */\n      pop\n      pop\n        /* \"#utility.yul\":9106:9552   */\n    tag_197:\n        /* \"#utility.yul\":9016:9559   */\n      pop\n      pop\n      pop\n      jump\t// out\n        /* \"#utility.yul\":9565:9682   */\n    tag_81:\n        /* \"#utility.yul\":9619:9627   */\n      0x00\n        /* \"#utility.yul\":9669:9674   */\n      dup3\n        /* \"#utility.yul\":9663:9667   */\n      dup3\n        /* \"#utility.yul\":9659:9675   */\n      shr\n        /* \"#utility.yul\":9638:9675   */\n      swap1\n      pop\n        /* \"#utility.yul\":9565:9682   */\n      swap3\n      swap2\n      pop\n      pop\n      jump\t// out\n        /* \"#utility.yul\":9688:9857   */\n    tag_82:\n        /* \"#utility.yul\":9732:9738   */\n      0x00\n        /* \"#utility.yul\":9765:9816   */\n      tag_205\n        /* \"#utility.yul\":9813:9814   */\n      0x00\n        /* \"#utility.yul\":9809:9815   */\n      not\n        /* \"#utility.yul\":9801:9806   */\n      dup5\n        /* \"#utility.yul\":9798:9799   */\n      0x08\n        /* \"#utility.yul\":9794:9807   */\n      mul\n        /* \"#utility.yul\":9765:9816   */\n      tag_81\n      jump\t// in\n    tag_205:\n        /* \"#utility.yul\":9761:9817   */\n      not\n        /* \"#utility.yul\":9846:9850   */\n      dup1\n        /* \"#utility.yul\":9840:9844   */\n      dup4\n        /* \"#utility.yul\":9836:9851   */\n      and\n        /* \"#utility.yul\":9826:9851   */\n      swap2\n      pop\n        /* \"#utility.yul\":9739:9857   */\n      pop\n        /* \"#utility.yul\":9688:9857   */\n      swap3\n      swap2\n      pop\n      pop\n      jump\t// out\n        /* \"#utility.yul\":9862:10157   */\n    tag_83:\n        /* \"#utility.yul\":9938:9942   */\n      0x00\n        /* \"#utility.yul\":10084:10113   */\n      tag_207\n        /* \"#utility.yul\":10109:10112   */\n      dup4\n        /* \"#utility.yul\":10103:10107   */\n      dup4\n        /* \"#utility.yul\":10084:10113   */\n      tag_82\n      jump\t// in\n    tag_207:\n        /* \"#utility.yul\":10076:10113   */\n      swap2\n      pop\n        /* \"#utility.yul\":10146:10149   */\n      dup3\n        /* \"#utility.yul\":10143:10144   */\n      0x02\n        /* \"#utility.yul\":10139:10150   */\n      mul\n        /* \"#utility.yul\":10133:10137   */\n      dup3\n        /* \"#utility.yul\":10130:10151   */\n      or\n        /* \"#utility.yul\":10122:10151   */\n      swap1\n      pop\n        /* \"#utility.yul\":9862:10157   */\n      swap3\n      swap2\n      pop\n      pop\n      jump\t// out\n        /* \"#utility.yul\":10162:11557   */\n    tag_33:\n        /* \"#utility.yul\":10279:10316   */\n      tag_209\n        /* \"#utility.yul\":10312:10315   */\n      dup3\n        /* \"#utility.yul\":10279:10316   */\n      tag_60\n      jump\t// in\n    tag_209:\n        /* \"#utility.yul\":10381:10399   */\n      0xffffffffffffffff\n        /* \"#utility.yul\":10373:10379   */\n      dup2\n        /* \"#utility.yul\":10370:10400   */\n      gt\n        /* \"#utility.yul\":10367:10423   */\n      iszero\n      tag_210\n      jumpi\n        /* \"#utility.yul\":10403:10421   */\n      tag_211\n      tag_51\n      jump\t// in\n    tag_211:\n        /* \"#utility.yul\":10367:10423   */\n    tag_210:\n        /* \"#utility.yul\":10447:10485   */\n      tag_212\n        /* \"#utility.yul\":10479:10483   */\n      dup3\n        /* \"#utility.yul\":10473:10484   */\n      sload\n        /* \"#utility.yul\":10447:10485   */\n      tag_37\n      jump\t// in\n    tag_212:\n        /* \"#utility.yul\":10532:10599   */\n      tag_213\n        /* \"#utility.yul\":10592:10598   */\n      dup3\n        /* \"#utility.yul\":10584:10590   */\n      dup3\n        /* \"#utility.yul\":10578:10582   */\n      dup6\n        /* \"#utility.yul\":10532:10599   */\n      tag_80\n      jump\t// in\n    tag_213:\n        /* \"#utility.yul\":10626:10627   */\n      0x00\n        /* \"#utility.yul\":10650:10654   */\n      0x20\n        /* \"#utility.yul\":10637:10654   */\n      swap1\n      pop\n        /* \"#utility.yul\":10682:10684   */\n      0x1f\n        /* \"#utility.yul\":10674:10680   */\n      dup4\n        /* \"#utility.yul\":10671:10685   */\n      gt\n        /* \"#utility.yul\":10699:10700   */\n      0x01\n        /* \"#utility.yul\":10694:11312   */\n      dup2\n      eq\n      tag_215\n      jumpi\n        /* \"#utility.yul\":11356:11357   */\n      0x00\n        /* \"#utility.yul\":11373:11379   */\n      dup5\n        /* \"#utility.yul\":11370:11447   */\n      iszero\n      tag_216\n      jumpi\n        /* \"#utility.yul\":11422:11431   */\n      dup3\n        /* \"#utility.yul\":11417:11420   */\n      dup8\n        /* \"#utility.yul\":11413:11432   */\n      add\n        /* \"#utility.yul\":11407:11433   */\n      mload\n        /* \"#utility.yul\":11398:11433   */\n      swap1\n      pop\n        /* \"#utility.yul\":11370:11447   */\n    tag_216:\n        /* \"#utility.yul\":11473:11540   */\n      tag_217\n        /* \"#utility.yul\":11533:11539   */\n      dup6\n        /* \"#utility.yul\":11526:11531   */\n      dup3\n        /* \"#utility.yul\":11473:11540   */\n      tag_83\n      jump\t// in\n    tag_217:\n        /* \"#utility.yul\":11467:11471   */\n      dup7\n        /* \"#utility.yul\":11460:11541   */\n      sstore\n        /* \"#utility.yul\":11329:11551   */\n      pop\n        /* \"#utility.yul\":10664:11551   */\n      jump(tag_214)\n        /* \"#utility.yul\":10694:11312   */\n    tag_215:\n        /* \"#utility.yul\":10746:10750   */\n      0x1f\n        /* \"#utility.yul\":10742:10751   */\n      not\n        /* \"#utility.yul\":10734:10740   */\n      dup5\n        /* \"#utility.yul\":10730:10752   */\n      and\n        /* \"#utility.yul\":10780:10817   */\n      tag_218\n        /* \"#utility.yul\":10812:10816   */\n      dup7\n        /* \"#utility.yul\":10780:10817   */\n      tag_69\n      jump\t// in\n    tag_218:\n        /* \"#utility.yul\":10839:10840   */\n      0x00\n        /* \"#utility.yul\":10853:11061   */\n    tag_219:\n        /* \"#utility.yul\":10867:10874   */\n      dup3\n        /* \"#utility.yul\":10864:10865   */\n      dup2\n        /* \"#utility.yul\":10861:10875   */\n      lt\n        /* \"#utility.yul\":10853:11061   */\n      iszero\n      tag_221\n      jumpi\n        /* \"#utility.yul\":10946:10955   */\n      dup5\n        /* \"#utility.yul\":10941:10944   */\n      dup10\n        /* \"#utility.yul\":10937:10956   */\n      add\n        /* \"#utility.yul\":10931:10957   */\n      mload\n        /* \"#utility.yul\":10923:10929   */\n      dup3\n        /* \"#utility.yul\":10916:10958   */\n      sstore\n        /* \"#utility.yul\":10997:10998   */\n      0x01\n        /* \"#utility.yul\":10989:10995   */\n      dup3\n        /* \"#utility.yul\":10985:10999   */\n      add\n        /* \"#utility.yul\":10975:10999   */\n      swap2\n      pop\n        /* \"#utility.yul\":11044:11046   */\n      0x20\n        /* \"#utility.yul\":11033:11042   */\n      dup6\n        /* \"#utility.yul\":11029:11047   */\n      add\n        /* \"#utility.yul\":11016:11047   */\n      swap5\n      pop\n        /* \"#utility.yul\":10890:10894   */\n      0x20\n        /* \"#utility.yul\":10887:10888   */\n      dup2\n        /* \"#utility.yul\":10883:10895   */\n      add\n        /* \"#utility.yul\":10878:10895   */\n      swap1\n      pop\n        /* \"#utility.yul\":10853:11061   */\n      jump(tag_219)\n    tag_221:\n        /* \"#utility.yul\":11089:11095   */\n      dup7\n        /* \"#utility.yul\":11080:11087   */\n      dup4\n        /* \"#utility.yul\":11077:11096   */\n      lt\n        /* \"#utility.yul\":11074:11253   */\n      iszero\n      tag_222\n      jumpi\n        /* \"#utility.yul\":11147:11156   */\n      dup5\n        /* \"#utility.yul\":11142:11145   */\n      dup10\n        /* \"#utility.yul\":11138:11157   */\n      add\n        /* \"#utility.yul\":11132:11158   */\n      mload\n        /* \"#utility.yul\":11190:11238   */\n      tag_223\n        /* \"#utility.yul\":11232:11236   */\n      0x1f\n        /* \"#utility.yul\":11224:11230   */\n      dup10\n        /* \"#utility.yul\":11220:11237   */\n      and\n        /* \"#utility.yul\":11209:11218   */\n      dup3\n        /* \"#utility.yul\":11190:11238   */\n      tag_82\n      jump\t// in\n    tag_223:\n        /* \"#utility.yul\":11182:11188   */\n      dup4\n        /* \"#utility.yul\":11175:11239   */\n      sstore\n        /* \"#utility.yul\":11097:11253   */\n      pop\n        /* \"#utility.yul\":11074:11253   */\n    tag_222:\n        /* \"#utility.yul\":11299:11300   */\n      0x01\n        /* \"#utility.yul\":11295:11296   */\n      0x02\n        /* \"#utility.yul\":11287:11293   */\n      dup9\n        /* \"#utility.yul\":11283:11297   */\n      mul\n        /* \"#utility.yul\":11279:11301   */\n      add\n        /* \"#utility.yul\":11273:11277   */\n      dup9\n        /* \"#utility.yul\":11266:11302   */\n      sstore\n        /* \"#utility.yul\":10701:11312   */\n      pop\n      pop\n      pop\n        /* \"#utility.yul\":10664:11551   */\n    tag_214:\n      pop\n        /* \"#utility.yul\":10254:11557   */\n      pop\n      pop\n      pop\n        /* \"#utility.yul\":10162:11557   */\n      pop\n      pop\n      jump\t// out\n        /* \"#utility.yul\":11563:11743   */\n    tag_84:\n        /* \"#utility.yul\":11611:11688   */\n      0x4e487b7100000000000000000000000000000000000000000000000000000000\n        /* \"#utility.yul\":11608:11609   */\n      0x00\n        /* \"#utility.yul\":11601:11689   */\n      mstore\n        /* \"#utility.yul\":11708:11712   */\n      0x11\n        /* \"#utility.yul\":11705:11706   */\n      0x04\n        /* \"#utility.yul\":11698:11713   */\n      mstore\n        /* \"#utility.yul\":11732:11736   */\n      0x24\n        /* \"#utility.yul\":11729:11730   */\n      0x00\n        /* \"#utility.yul\":11722:11737   */\n      revert\n        /* \"#utility.yul\":11749:11982   */\n    tag_35:\n        /* \"#utility.yul\":11788:11791   */\n      0x00\n        /* \"#utility.yul\":11811:11835   */\n      tag_226\n        /* \"#utility.yul\":11829:11834   */\n      dup3\n        /* \"#utility.yul\":11811:11835   */\n      tag_43\n      jump\t// in\n    tag_226:\n        /* \"#utility.yul\":11802:11835   */\n      swap2\n      pop\n        /* \"#utility.yul\":11857:11923   */\n      0xffffffffffffffffffffffffffffffffffffffffffffffffffffffffffffffff\n        /* \"#utility.yul\":11850:11855   */\n      dup3\n        /* \"#utility.yul\":11847:11924   */\n      sub\n        /* \"#utility.yul\":11844:11947   */\n      tag_227\n      jumpi\n        /* \"#utility.yul\":11927:11945   */\n      tag_228\n      tag_84\n      jump\t// in\n    tag_228:\n        /* \"#utility.yul\":11844:11947   */\n    tag_227:\n        /* \"#utility.yul\":11974:11975   */\n      0x01\n        /* \"#utility.yul\":11967:11972   */\n      dup3\n        /* \"#utility.yul\":11963:11976   */\n      add\n        /* \"#utility.yul\":11956:11976   */\n      swap1\n      pop\n        /* \"#utility.yul\":11749:11982   */\n      swap2\n      swap1\n      pop\n      jump\t// out\n\n    auxdata: 0xa264697066735822122024110e747d7a2986fde8d9df46db16c83cffff7f1fe2b81985a823d1eb1fbb3064736f6c634300080f0033\n}\n",
				"bytecode": {
					"linkReferences": {},
					"object": "608060405234801561001057600080fd5b50610941806100206000396000f3fe608060405234801561001057600080fd5b50600436106100575760003560e01c806306661abd1461005c5780630ed047d41461007a57806311d5aaa71461009657806321e5383a146100c657806327e235e3146100e2575b600080fd5b610064610112565b604051610071919061022a565b60405180910390f35b610094600480360381019061008f919061039f565b610118565b005b6100b060048036038101906100ab9190610414565b610155565b6040516100bd91906104c9565b60405180910390f35b6100e060048036038101906100db9190610549565b6101f5565b005b6100fc60048036038101906100f79190610589565b6101f9565b604051610109919061022a565b60405180910390f35b60015481565b806000806001548152602001908152602001600020908161013991906107c2565b506001600081548092919061014d906108c3565b919050555050565b60006020528060005260406000206000915090508054610174906105e5565b80601f01602080910402602001604051908101604052809291908181526020018280546101a0906105e5565b80156101ed5780601f106101c2576101008083540402835291602001916101ed565b820191906000526020600020905b8154815290600101906020018083116101d057829003601f168201915b505050505081565b5050565b60026020528060005260406000206000915090505481565b6000819050919050565b61022481610211565b82525050565b600060208201905061023f600083018461021b565b92915050565b6000604051905090565b600080fd5b600080fd5b600080fd5b600080fd5b6000601f19601f8301169050919050565b7f4e487b7100000000000000000000000000000000000000000000000000000000600052604160045260246000fd5b6102ac82610263565b810181811067ffffffffffffffff821117156102cb576102ca610274565b5b80604052505050565b60006102de610245565b90506102ea82826102a3565b919050565b600067ffffffffffffffff82111561030a57610309610274565b5b61031382610263565b9050602081019050919050565b82818337600083830152505050565b600061034261033d846102ef565b6102d4565b90508281526020810184848401111561035e5761035d61025e565b5b610369848285610320565b509392505050565b600082601f83011261038657610385610259565b5b813561039684826020860161032f565b91505092915050565b6000602082840312156103b5576103b461024f565b5b600082013567ffffffffffffffff8111156103d3576103d2610254565b5b6103df84828501610371565b91505092915050565b6103f181610211565b81146103fc57600080fd5b50565b60008135905061040e816103e8565b92915050565b60006020828403121561042a5761042961024f565b5b6000610438848285016103ff565b91505092915050565b600081519050919050565b600082825260208201905092915050565b60005b8381101561047b578082015181840152602081019050610460565b8381111561048a576000848401525b50505050565b600061049b82610441565b6104a5818561044c565b93506104b581856020860161045d565b6104be81610263565b840191505092915050565b600060208201905081810360008301526104e38184610490565b905092915050565b600073ffffffffffffffffffffffffffffffffffffffff82169050919050565b6000610516826104eb565b9050919050565b6105268161050b565b811461053157600080fd5b50565b6000813590506105438161051d565b92915050565b600080604083850312156105605761055f61024f565b5b600061056e85828601610534565b925050602061057f858286016103ff565b9150509250929050565b60006020828403121561059f5761059e61024f565b5b60006105ad84828501610534565b91505092915050565b7f4e487b7100000000000000000000000000000000000000000000000000000000600052602260045260246000fd5b600060028204905060018216806105fd57607f821691505b6020821081036106105761060f6105b6565b5b50919050565b60008190508160005260206000209050919050565b60006020601f8301049050919050565b600082821b905092915050565b6000600883026106787fffffffffffffffffffffffffffffffffffffffffffffffffffffffffffffffff8261063b565b610682868361063b565b95508019841693508086168417925050509392505050565b6000819050919050565b60006106bf6106ba6106b584610211565b61069a565b610211565b9050919050565b6000819050919050565b6106d9836106a4565b6106ed6106e5826106c6565b848454610648565b825550505050565b600090565b6107026106f5565b61070d8184846106d0565b505050565b5b81811015610731576107266000826106fa565b600181019050610713565b5050565b601f8211156107765761074781610616565b6107508461062b565b8101602085101561075f578190505b61077361076b8561062b565b830182610712565b50505b505050565b600082821c905092915050565b60006107996000198460080261077b565b1980831691505092915050565b60006107b28383610788565b9150826002028217905092915050565b6107cb82610441565b67ffffffffffffffff8111156107e4576107e3610274565b5b6107ee82546105e5565b6107f9828285610735565b600060209050601f83116001811461082c576000841561081a578287015190505b61082485826107a6565b86555061088c565b601f19841661083a86610616565b60005b828110156108625784890151825560018201915060208501945060208101905061083d565b8683101561087f578489015161087b601f891682610788565b8355505b6001600288020188555050505b505050505050565b7f4e487b7100000000000000000000000000000000000000000000000000000000600052601160045260246000fd5b60006108ce82610211565b91507fffffffffffffffffffffffffffffffffffffffffffffffffffffffffffffffff8203610900576108ff610894565b5b60018201905091905056fea264697066735822122024110e747d7a2986fde8d9df46db16c83cffff7f1fe2b81985a823d1eb1fbb3064736f6c634300080f0033",
					"opcodes": "PUSH1 0x80 PUSH1 0x40 MSTORE CALLVALUE DUP1 ISZERO PUSH2 0x10 JUMPI PUSH1 0x0 DUP1 REVERT JUMPDEST POP PUSH2 0x941 DUP1 PUSH2 0x20 PUSH1 0x0 CODECOPY PUSH1 0x0 RETURN INVALID PUSH1 0x80 PUSH1 0x40 MSTORE CALLVALUE DUP1 ISZERO PUSH2 0x10 JUMPI PUSH1 0x0 DUP1 REVERT JUMPDEST POP PUSH1 0x4 CALLDATASIZE LT PUSH2 0x57 JUMPI PUSH1 0x0 CALLDATALOAD PUSH1 0xE0 SHR DUP1 PUSH4 0x6661ABD EQ PUSH2 0x5C JUMPI DUP1 PUSH4 0xED047D4 EQ PUSH2 0x7A JUMPI DUP1 PUSH4 0x11D5AAA7 EQ PUSH2 0x96 JUMPI DUP1 PUSH4 0x21E5383A EQ PUSH2 0xC6 JUMPI DUP1 PUSH4 0x27E235E3 EQ PUSH2 0xE2 JUMPI JUMPDEST PUSH1 0x0 DUP1 REVERT JUMPDEST PUSH2 0x64 PUSH2 0x112 JUMP JUMPDEST PUSH1 0x40 MLOAD PUSH2 0x71 SWAP2 SWAP1 PUSH2 0x22A JUMP JUMPDEST PUSH1 0x40 MLOAD DUP1 SWAP2 SUB SWAP1 RETURN JUMPDEST PUSH2 0x94 PUSH1 0x4 DUP1 CALLDATASIZE SUB DUP2 ADD SWAP1 PUSH2 0x8F SWAP2 SWAP1 PUSH2 0x39F JUMP JUMPDEST PUSH2 0x118 JUMP JUMPDEST STOP JUMPDEST PUSH2 0xB0 PUSH1 0x4 DUP1 CALLDATASIZE SUB DUP2 ADD SWAP1 PUSH2 0xAB SWAP2 SWAP1 PUSH2 0x414 JUMP JUMPDEST PUSH2 0x155 JUMP JUMPDEST PUSH1 0x40 MLOAD PUSH2 0xBD SWAP2 SWAP1 PUSH2 0x4C9 JUMP JUMPDEST PUSH1 0x40 MLOAD DUP1 SWAP2 SUB SWAP1 RETURN JUMPDEST PUSH2 0xE0 PUSH1 0x4 DUP1 CALLDATASIZE SUB DUP2 ADD SWAP1 PUSH2 0xDB SWAP2 SWAP1 PUSH2 0x549 JUMP JUMPDEST PUSH2 0x1F5 JUMP JUMPDEST STOP JUMPDEST PUSH2 0xFC PUSH1 0x4 DUP1 CALLDATASIZE SUB DUP2 ADD SWAP1 PUSH2 0xF7 SWAP2 SWAP1 PUSH2 0x589 JUMP JUMPDEST PUSH2 0x1F9 JUMP JUMPDEST PUSH1 0x40 MLOAD PUSH2 0x109 SWAP2 SWAP1 PUSH2 0x22A JUMP JUMPDEST PUSH1 0x40 MLOAD DUP1 SWAP2 SUB SWAP1 RETURN JUMPDEST PUSH1 0x1 SLOAD DUP2 JUMP JUMPDEST DUP1 PUSH1 0x0 DUP1 PUSH1 0x1 SLOAD DUP2 MSTORE PUSH1 0x20 ADD SWAP1 DUP2 MSTORE PUSH1 0x20 ADD PUSH1 0x0 KECCAK256 SWAP1 DUP2 PUSH2 0x139 SWAP2 SWAP1 PUSH2 0x7C2 JUMP JUMPDEST POP PUSH1 0x1 PUSH1 0x0 DUP2 SLOAD DUP1 SWAP3 SWAP2 SWAP1 PUSH2 0x14D SWAP1 PUSH2 0x8C3 JUMP JUMPDEST SWAP2 SWAP1 POP SSTORE POP POP JUMP JUMPDEST PUSH1 0x0 PUSH1 0x20 MSTORE DUP1 PUSH1 0x0 MSTORE PUSH1 0x40 PUSH1 0x0 KECCAK256 PUSH1 0x0 SWAP2 POP SWAP1 POP DUP1 SLOAD PUSH2 0x174 SWAP1 PUSH2 0x5E5 JUMP JUMPDEST DUP1 PUSH1 0x1F ADD PUSH1 0x20 DUP1 SWAP2 DIV MUL PUSH1 0x20 ADD PUSH1 0x40 MLOAD SWAP1 DUP2 ADD PUSH1 0x40 MSTORE DUP1 SWAP3 SWAP2 SWAP1 DUP2 DUP2 MSTORE PUSH1 0x20 ADD DUP3 DUP1 SLOAD PUSH2 0x1A0 SWAP1 PUSH2 0x5E5 JUMP JUMPDEST DUP1 ISZERO PUSH2 0x1ED JUMPI DUP1 PUSH1 0x1F LT PUSH2 0x1C2 JUMPI PUSH2 0x100 DUP1 DUP4 SLOAD DIV MUL DUP4 MSTORE SWAP2 PUSH1 0x20 ADD SWAP2 PUSH2 0x1ED JUMP JUMPDEST DUP3 ADD SWAP2 SWAP1 PUSH1 0x0 MSTORE PUSH1 0x20 PUSH1 0x0 KECCAK256 SWAP1 JUMPDEST DUP2 SLOAD DUP2 MSTORE SWAP1 PUSH1 0x1 ADD SWAP1 PUSH1 0x20 ADD DUP1 DUP4 GT PUSH2 0x1D0 JUMPI DUP3 SWAP1 SUB PUSH1 0x1F AND DUP3 ADD SWAP2 JUMPDEST POP POP POP POP POP DUP2 JUMP JUMPDEST POP POP JUMP JUMPDEST PUSH1 0x2 PUSH1 0x20 MSTORE DUP1 PUSH1 0x0 MSTORE PUSH1 0x40 PUSH1 0x0 KECCAK256 PUSH1 0x0 SWAP2 POP SWAP1 POP SLOAD DUP2 JUMP JUMPDEST PUSH1 0x0 DUP2 SWAP1 POP SWAP2 SWAP1 POP JUMP JUMPDEST PUSH2 0x224 DUP2 PUSH2 0x211 JUMP JUMPDEST DUP3 MSTORE POP POP JUMP JUMPDEST PUSH1 0x0 PUSH1 0x20 DUP3 ADD SWAP1 POP PUSH2 0x23F PUSH1 0x0 DUP4 ADD DUP5 PUSH2 0x21B JUMP JUMPDEST SWAP3 SWAP2 POP POP JUMP JUMPDEST PUSH1 0x0 PUSH1 0x40 MLOAD SWAP1 POP SWAP1 JUMP JUMPDEST PUSH1 0x0 DUP1 REVERT JUMPDEST PUSH1 0x0 DUP1 REVERT JUMPDEST PUSH1 0x0 DUP1 REVERT JUMPDEST PUSH1 0x0 DUP1 REVERT JUMPDEST PUSH1 0x0 PUSH1 0x1F NOT PUSH1 0x1F DUP4 ADD AND SWAP1 POP SWAP2 SWAP1 POP JUMP JUMPDEST PUSH32 0x4E487B7100000000000000000000000000000000000000000000000000000000 PUSH1 0x0 MSTORE PUSH1 0x41 PUSH1 0x4 MSTORE PUSH1 0x24 PUSH1 0x0 REVERT JUMPDEST PUSH2 0x2AC DUP3 PUSH2 0x263 JUMP JUMPDEST DUP2 ADD DUP2 DUP2 LT PUSH8 0xFFFFFFFFFFFFFFFF DUP3 GT OR ISZERO PUSH2 0x2CB JUMPI PUSH2 0x2CA PUSH2 0x274 JUMP JUMPDEST JUMPDEST DUP1 PUSH1 0x40 MSTORE POP POP POP JUMP JUMPDEST PUSH1 0x0 PUSH2 0x2DE PUSH2 0x245 JUMP JUMPDEST SWAP1 POP PUSH2 0x2EA DUP3 DUP3 PUSH2 0x2A3 JUMP JUMPDEST SWAP2 SWAP1 POP JUMP JUMPDEST PUSH1 0x0 PUSH8 0xFFFFFFFFFFFFFFFF DUP3 GT ISZERO PUSH2 0x30A JUMPI PUSH2 0x309 PUSH2 0x274 JUMP JUMPDEST JUMPDEST PUSH2 0x313 DUP3 PUSH2 0x263 JUMP JUMPDEST SWAP1 POP PUSH1 0x20 DUP2 ADD SWAP1 POP SWAP2 SWAP1 POP JUMP JUMPDEST DUP3 DUP2 DUP4 CALLDATACOPY PUSH1 0x0 DUP4 DUP4 ADD MSTORE POP POP POP JUMP JUMPDEST PUSH1 0x0 PUSH2 0x342 PUSH2 0x33D DUP5 PUSH2 0x2EF JUMP JUMPDEST PUSH2 0x2D4 JUMP JUMPDEST SWAP1 POP DUP3 DUP2 MSTORE PUSH1 0x20 DUP2 ADD DUP5 DUP5 DUP5 ADD GT ISZERO PUSH2 0x35E JUMPI PUSH2 0x35D PUSH2 0x25E JUMP JUMPDEST JUMPDEST PUSH2 0x369 DUP5 DUP3 DUP6 PUSH2 0x320 JUMP JUMPDEST POP SWAP4 SWAP3 POP POP POP JUMP JUMPDEST PUSH1 0x0 DUP3 PUSH1 0x1F DUP4 ADD SLT PUSH2 0x386 JUMPI PUSH2 0x385 PUSH2 0x259 JUMP JUMPDEST JUMPDEST DUP2 CALLDATALOAD PUSH2 0x396 DUP5 DUP3 PUSH1 0x20 DUP7 ADD PUSH2 0x32F JUMP JUMPDEST SWAP2 POP POP SWAP3 SWAP2 POP POP JUMP JUMPDEST PUSH1 0x0 PUSH1 0x20 DUP3 DUP5 SUB SLT ISZERO PUSH2 0x3B5 JUMPI PUSH2 0x3B4 PUSH2 0x24F JUMP JUMPDEST JUMPDEST PUSH1 0x0 DUP3 ADD CALLDATALOAD PUSH8 0xFFFFFFFFFFFFFFFF DUP2 GT ISZERO PUSH2 0x3D3 JUMPI PUSH2 0x3D2 PUSH2 0x254 JUMP JUMPDEST JUMPDEST PUSH2 0x3DF DUP5 DUP3 DUP6 ADD PUSH2 0x371 JUMP JUMPDEST SWAP2 POP POP SWAP3 SWAP2 POP POP JUMP JUMPDEST PUSH2 0x3F1 DUP2 PUSH2 0x211 JUMP JUMPDEST DUP2 EQ PUSH2 0x3FC JUMPI PUSH1 0x0 DUP1 REVERT JUMPDEST POP JUMP JUMPDEST PUSH1 0x0 DUP2 CALLDATALOAD SWAP1 POP PUSH2 0x40E DUP2 PUSH2 0x3E8 JUMP JUMPDEST SWAP3 SWAP2 POP POP JUMP JUMPDEST PUSH1 0x0 PUSH1 0x20 DUP3 DUP5 SUB SLT ISZERO PUSH2 0x42A JUMPI PUSH2 0x429 PUSH2 0x24F JUMP JUMPDEST JUMPDEST PUSH1 0x0 PUSH2 0x438 DUP5 DUP3 DUP6 ADD PUSH2 0x3FF JUMP JUMPDEST SWAP2 POP POP SWAP3 SWAP2 POP POP JUMP JUMPDEST PUSH1 0x0 DUP2 MLOAD SWAP1 POP SWAP2 SWAP1 POP JUMP JUMPDEST PUSH1 0x0 DUP3 DUP3 MSTORE PUSH1 0x20 DUP3 ADD SWAP1 POP SWAP3 SWAP2 POP POP JUMP JUMPDEST PUSH1 0x0 JUMPDEST DUP4 DUP2 LT ISZERO PUSH2 0x47B JUMPI DUP1 DUP3 ADD MLOAD DUP2 DUP5 ADD MSTORE PUSH1 0x20 DUP2 ADD SWAP1 POP PUSH2 0x460 JUMP JUMPDEST DUP4 DUP2 GT ISZERO PUSH2 0x48A JUMPI PUSH1 0x0 DUP5 DUP5 ADD MSTORE JUMPDEST POP POP POP POP JUMP JUMPDEST PUSH1 0x0 PUSH2 0x49B DUP3 PUSH2 0x441 JUMP JUMPDEST PUSH2 0x4A5 DUP2 DUP6 PUSH2 0x44C JUMP JUMPDEST SWAP4 POP PUSH2 0x4B5 DUP2 DUP6 PUSH1 0x20 DUP7 ADD PUSH2 0x45D JUMP JUMPDEST PUSH2 0x4BE DUP2 PUSH2 0x263 JUMP JUMPDEST DUP5 ADD SWAP2 POP POP SWAP3 SWAP2 POP POP JUMP JUMPDEST PUSH1 0x0 PUSH1 0x20 DUP3 ADD SWAP1 POP DUP2 DUP2 SUB PUSH1 0x0 DUP4 ADD MSTORE PUSH2 0x4E3 DUP2 DUP5 PUSH2 0x490 JUMP JUMPDEST SWAP1 POP SWAP3 SWAP2 POP POP JUMP JUMPDEST PUSH1 0x0 PUSH20 0xFFFFFFFFFFFFFFFFFFFFFFFFFFFFFFFFFFFFFFFF DUP3 AND SWAP1 POP SWAP2 SWAP1 POP JUMP JUMPDEST PUSH1 0x0 PUSH2 0x516 DUP3 PUSH2 0x4EB JUMP JUMPDEST SWAP1 POP SWAP2 SWAP1 POP JUMP JUMPDEST PUSH2 0x526 DUP2 PUSH2 0x50B JUMP JUMPDEST DUP2 EQ PUSH2 0x531 JUMPI PUSH1 0x0 DUP1 REVERT JUMPDEST POP JUMP JUMPDEST PUSH1 0x0 DUP2 CALLDATALOAD SWAP1 POP PUSH2 0x543 DUP2 PUSH2 0x51D JUMP JUMPDEST SWAP3 SWAP2 POP POP JUMP JUMPDEST PUSH1 0x0 DUP1 PUSH1 0x40 DUP4 DUP6 SUB SLT ISZERO PUSH2 0x560 JUMPI PUSH2 0x55F PUSH2 0x24F JUMP JUMPDEST JUMPDEST PUSH1 0x0 PUSH2 0x56E DUP6 DUP3 DUP7 ADD PUSH2 0x534 JUMP JUMPDEST SWAP3 POP POP PUSH1 0x20 PUSH2 0x57F DUP6 DUP3 DUP7 ADD PUSH2 0x3FF JUMP JUMPDEST SWAP2 POP POP SWAP3 POP SWAP3 SWAP1 POP JUMP JUMPDEST PUSH1 0x0 PUSH1 0x20 DUP3 DUP5 SUB SLT ISZERO PUSH2 0x59F JUMPI PUSH2 0x59E PUSH2 0x24F JUMP JUMPDEST JUMPDEST PUSH1 0x0 PUSH2 0x5AD DUP5 DUP3 DUP6 ADD PUSH2 0x534 JUMP JUMPDEST SWAP2 POP POP SWAP3 SWAP2 POP POP JUMP JUMPDEST PUSH32 0x4E487B7100000000000000000000000000000000000000000000000000000000 PUSH1 0x0 MSTORE PUSH1 0x22 PUSH1 0x4 MSTORE PUSH1 0x24 PUSH1 0x0 REVERT JUMPDEST PUSH1 0x0 PUSH1 0x2 DUP3 DIV SWAP1 POP PUSH1 0x1 DUP3 AND DUP1 PUSH2 0x5FD JUMPI PUSH1 0x7F DUP3 AND SWAP2 POP JUMPDEST PUSH1 0x20 DUP3 LT DUP2 SUB PUSH2 0x610 JUMPI PUSH2 0x60F PUSH2 0x5B6 JUMP JUMPDEST JUMPDEST POP SWAP2 SWAP1 POP JUMP JUMPDEST PUSH1 0x0 DUP2 SWAP1 POP DUP2 PUSH1 0x0 MSTORE PUSH1 0x20 PUSH1 0x0 KECCAK256 SWAP1 POP SWAP2 SWAP1 POP JUMP JUMPDEST PUSH1 0x0 PUSH1 0x20 PUSH1 0x1F DUP4 ADD DIV SWAP1 POP SWAP2 SWAP1 POP JUMP JUMPDEST PUSH1 0x0 DUP3 DUP3 SHL SWAP1 POP SWAP3 SWAP2 POP POP JUMP JUMPDEST PUSH1 0x0 PUSH1 0x8 DUP4 MUL PUSH2 0x678 PUSH32 0xFFFFFFFFFFFFFFFFFFFFFFFFFFFFFFFFFFFFFFFFFFFFFFFFFFFFFFFFFFFFFFFF DUP3 PUSH2 0x63B JUMP JUMPDEST PUSH2 0x682 DUP7 DUP4 PUSH2 0x63B JUMP JUMPDEST SWAP6 POP DUP1 NOT DUP5 AND SWAP4 POP DUP1 DUP7 AND DUP5 OR SWAP3 POP POP POP SWAP4 SWAP3 POP POP POP JUMP JUMPDEST PUSH1 0x0 DUP2 SWAP1 POP SWAP2 SWAP1 POP JUMP JUMPDEST PUSH1 0x0 PUSH2 0x6BF PUSH2 0x6BA PUSH2 0x6B5 DUP5 PUSH2 0x211 JUMP JUMPDEST PUSH2 0x69A JUMP JUMPDEST PUSH2 0x211 JUMP JUMPDEST SWAP1 POP SWAP2 SWAP1 POP JUMP JUMPDEST PUSH1 0x0 DUP2 SWAP1 POP SWAP2 SWAP1 POP JUMP JUMPDEST PUSH2 0x6D9 DUP4 PUSH2 0x6A4 JUMP JUMPDEST PUSH2 0x6ED PUSH2 0x6E5 DUP3 PUSH2 0x6C6 JUMP JUMPDEST DUP5 DUP5 SLOAD PUSH2 0x648 JUMP JUMPDEST DUP3 SSTORE POP POP POP POP JUMP JUMPDEST PUSH1 0x0 SWAP1 JUMP JUMPDEST PUSH2 0x702 PUSH2 0x6F5 JUMP JUMPDEST PUSH2 0x70D DUP2 DUP5 DUP5 PUSH2 0x6D0 JUMP JUMPDEST POP POP POP JUMP JUMPDEST JUMPDEST DUP2 DUP2 LT ISZERO PUSH2 0x731 JUMPI PUSH2 0x726 PUSH1 0x0 DUP3 PUSH2 0x6FA JUMP JUMPDEST PUSH1 0x1 DUP2 ADD SWAP1 POP PUSH2 0x713 JUMP JUMPDEST POP POP JUMP JUMPDEST PUSH1 0x1F DUP3 GT ISZERO PUSH2 0x776 JUMPI PUSH2 0x747 DUP2 PUSH2 0x616 JUMP JUMPDEST PUSH2 0x750 DUP5 PUSH2 0x62B JUMP JUMPDEST DUP2 ADD PUSH1 0x20 DUP6 LT ISZERO PUSH2 0x75F JUMPI DUP2 SWAP1 POP JUMPDEST PUSH2 0x773 PUSH2 0x76B DUP6 PUSH2 0x62B JUMP JUMPDEST DUP4 ADD DUP3 PUSH2 0x712 JUMP JUMPDEST POP POP JUMPDEST POP POP POP JUMP JUMPDEST PUSH1 0x0 DUP3 DUP3 SHR SWAP1 POP SWAP3 SWAP2 POP POP JUMP JUMPDEST PUSH1 0x0 PUSH2 0x799 PUSH1 0x0 NOT DUP5 PUSH1 0x8 MUL PUSH2 0x77B JUMP JUMPDEST NOT DUP1 DUP4 AND SWAP2 POP POP SWAP3 SWAP2 POP POP JUMP JUMPDEST PUSH1 0x0 PUSH2 0x7B2 DUP4 DUP4 PUSH2 0x788 JUMP JUMPDEST SWAP2 POP DUP3 PUSH1 0x2 MUL DUP3 OR SWAP1 POP SWAP3 SWAP2 POP POP JUMP JUMPDEST PUSH2 0x7CB DUP3 PUSH2 0x441 JUMP JUMPDEST PUSH8 0xFFFFFFFFFFFFFFFF DUP2 GT ISZERO PUSH2 0x7E4 JUMPI PUSH2 0x7E3 PUSH2 0x274 JUMP JUMPDEST JUMPDEST PUSH2 0x7EE DUP3 SLOAD PUSH2 0x5E5 JUMP JUMPDEST PUSH2 0x7F9 DUP3 DUP3 DUP6 PUSH2 0x735 JUMP JUMPDEST PUSH1 0x0 PUSH1 0x20 SWAP1 POP PUSH1 0x1F DUP4 GT PUSH1 0x1 DUP2 EQ PUSH2 0x82C JUMPI PUSH1 0x0 DUP5 ISZERO PUSH2 0x81A JUMPI DUP3 DUP8 ADD MLOAD SWAP1 POP JUMPDEST PUSH2 0x824 DUP6 DUP3 PUSH2 0x7A6 JUMP JUMPDEST DUP7 SSTORE POP PUSH2 0x88C JUMP JUMPDEST PUSH1 0x1F NOT DUP5 AND PUSH2 0x83A DUP7 PUSH2 0x616 JUMP JUMPDEST PUSH1 0x0 JUMPDEST DUP3 DUP2 LT ISZERO PUSH2 0x862 JUMPI DUP5 DUP10 ADD MLOAD DUP3 SSTORE PUSH1 0x1 DUP3 ADD SWAP2 POP PUSH1 0x20 DUP6 ADD SWAP5 POP PUSH1 0x20 DUP2 ADD SWAP1 POP PUSH2 0x83D JUMP JUMPDEST DUP7 DUP4 LT ISZERO PUSH2 0x87F JUMPI DUP5 DUP10 ADD MLOAD PUSH2 0x87B PUSH1 0x1F DUP10 AND DUP3 PUSH2 0x788 JUMP JUMPDEST DUP4 SSTORE POP JUMPDEST PUSH1 0x1 PUSH1 0x2 DUP9 MUL ADD DUP9 SSTORE POP POP POP JUMPDEST POP POP POP POP POP POP JUMP JUMPDEST PUSH32 0x4E487B7100000000000000000000000000000000000000000000000000000000 PUSH1 0x0 MSTORE PUSH1 0x11 PUSH1 0x4 MSTORE PUSH1 0x24 PUSH1 0x0 REVERT JUMPDEST PUSH1 0x0 PUSH2 0x8CE DUP3 PUSH2 0x211 JUMP JUMPDEST SWAP2 POP PUSH32 0xFFFFFFFFFFFFFFFFFFFFFFFFFFFFFFFFFFFFFFFFFFFFFFFFFFFFFFFFFFFFFFFF DUP3 SUB PUSH2 0x900 JUMPI PUSH2 0x8FF PUSH2 0x894 JUMP JUMPDEST JUMPDEST PUSH1 0x1 DUP3 ADD SWAP1 POP SWAP2 SWAP1 POP JUMP INVALID LOG2 PUSH5 0x6970667358 0x22 SLT KECCAK256 0x24 GT 0xE PUSH21 0x7D7A2986FDE8D9DF46DB16C83CFFFF7F1FE2B81985 0xA8 0x23 0xD1 0xEB 0x1F 0xBB ADDRESS PUSH5 0x736F6C6343 STOP ADDMOD 0xF STOP CALLER "
				},
				"gasEstimates": {
					"creation": {
						"codeDepositCost": "473800",
						"executionCost": "511",
						"totalCost": "474311"
					},
					"external": {
						"addBalance(address,uint256)": "672",
						"addProject(string)": "infinite",
						"balances(address)": "2880",
						"count()": "2407",
						"project(uint256)": "infinite"
					}
				},
				"methodIdentifiers": {
					"addBalance(address,uint256)": "21e5383a",
					"addProject(string)": "0ed047d4",
					"balances(address)": "27e235e3",
					"count()": "06661abd",
					"project(uint256)": "11d5aaa7"
				}
			},
			"storageLayout": {
				"storage": [
					{
						"astId": 5,
						"contract": "contracts/mapping.sol:Mapping",
						"label": "project",
						"offset": 0,
						"slot": "0",
						"type": "t_mapping(t_uint256,t_string_storage)"
					},
					{
						"astId": 7,
						"contract": "contracts/mapping.sol:Mapping",
						"label": "count",
						"offset": 0,
						"slot": "1",
						"type": "t_uint256"
					},
					{
						"astId": 26,
						"contract": "contracts/mapping.sol:Mapping",
						"label": "balances",
						"offset": 0,
						"slot": "2",
						"type": "t_mapping(t_address,t_uint256)"
					}
				],
				"types": {
					"t_address": {
						"encoding": "inplace",
						"label": "address",
						"numberOfBytes": "20"
					},
					"t_mapping(t_address,t_uint256)": {
						"encoding": "mapping",
						"key": "t_address",
						"label": "mapping(address => uint256)",
						"numberOfBytes": "32",
						"value": "t_uint256"
					},
					"t_mapping(t_uint256,t_string_storage)": {
						"encoding": "mapping",
						"key": "t_uint256",
						"label": "mapping(uint256 => string)",
						"numberOfBytes": "32",
						"value": "t_string_storage"
					},
					"t_string_storage": {
						"encoding": "bytes",
						"label": "string",
						"numberOfBytes": "32"
					},
					"t_uint256": {
						"encoding": "inplace",
						"label": "uint256",
						"numberOfBytes": "32"
					}
				}
			},
			"userdoc": {
				"kind": "user",
				"methods": {},
				"version": 1
			}
		}
	}
}