{
	"contracts/condition.sol": {
		"Condition": {
			"abi": [
				{
					"inputs": [],
					"stateMutability": "nonpayable",
					"type": "constructor"
				},
				{
					"inputs": [
						{
							"internalType": "uint256",
							"name": "_x",
							"type": "uint256"
						}
					],
					"name": "addNumber",
					"outputs": [],
					"stateMutability": "nonpayable",
					"type": "function"
				},
				{
					"inputs": [
						{
							"internalType": "uint256",
							"name": "_x",
							"type": "uint256"
						}
					],
					"name": "addNumber2",
					"outputs": [],
					"stateMutability": "nonpayable",
					"type": "function"
				},
				{
					"inputs": [
						{
							"internalType": "uint256",
							"name": "_x",
							"type": "uint256"
						}
					],
					"name": "example",
					"outputs": [
						{
							"internalType": "bool",
							"name": "",
							"type": "bool"
						}
					],
					"stateMutability": "view",
					"type": "function"
				},
				{
					"inputs": [],
					"name": "number",
					"outputs": [
						{
							"internalType": "uint256",
							"name": "",
							"type": "uint256"
						}
					],
					"stateMutability": "view",
					"type": "function"
				}
			],
			"devdoc": {
				"kind": "dev",
				"methods": {},
				"version": 1
			},
			"evm": {
				"assembly": "    /* \"contracts/condition.sol\":26:769  contract Condition {... */\n  mstore(0x40, 0x80)\n    /* \"contracts/condition.sol\":75:78  100 */\n  0x64\n    /* \"contracts/condition.sol\":51:78  uint256 public number = 100 */\n  0x00\n  sstore\n    /* \"contracts/condition.sol\":104:153  constructor() {... */\n  callvalue\n  dup1\n  iszero\n  tag_1\n  jumpi\n  0x00\n  dup1\n  revert\ntag_1:\n  pop\n    /* \"contracts/condition.sol\":136:146  msg.sender */\n  caller\n    /* \"contracts/condition.sol\":128:133  owner */\n  0x01\n  0x00\n    /* \"contracts/condition.sol\":128:146  owner = msg.sender */\n  0x0100\n  exp\n  dup2\n  sload\n  dup2\n  0xffffffffffffffffffffffffffffffffffffffff\n  mul\n  not\n  and\n  swap1\n  dup4\n  0xffffffffffffffffffffffffffffffffffffffff\n  and\n  mul\n  or\n  swap1\n  sstore\n  pop\n    /* \"contracts/condition.sol\":26:769  contract Condition {... */\n  dataSize(sub_0)\n  dup1\n  dataOffset(sub_0)\n  0x00\n  codecopy\n  0x00\n  return\nstop\n\nsub_0: assembly {\n        /* \"contracts/condition.sol\":26:769  contract Condition {... */\n      mstore(0x40, 0x80)\n      callvalue\n      dup1\n      iszero\n      tag_1\n      jumpi\n      0x00\n      dup1\n      revert\n    tag_1:\n      pop\n      jumpi(tag_2, lt(calldatasize, 0x04))\n      shr(0xe0, calldataload(0x00))\n      dup1\n      0x477e4a02\n      eq\n      tag_3\n      jumpi\n      dup1\n      0x8381f58a\n      eq\n      tag_4\n      jumpi\n      dup1\n      0xd2e05f1a\n      eq\n      tag_5\n      jumpi\n      dup1\n      0xfce68023\n      eq\n      tag_6\n      jumpi\n    tag_2:\n      0x00\n      dup1\n      revert\n        /* \"contracts/condition.sol\":320:418  function example(uint256 _x) public view onlyOwner returns(bool) {... */\n    tag_3:\n      tag_7\n      0x04\n      dup1\n      calldatasize\n      sub\n      dup2\n      add\n      swap1\n      tag_8\n      swap2\n      swap1\n      tag_9\n      jump\t// in\n    tag_8:\n      tag_10\n      jump\t// in\n    tag_7:\n      mload(0x40)\n      tag_11\n      swap2\n      swap1\n      tag_12\n      jump\t// in\n    tag_11:\n      mload(0x40)\n      dup1\n      swap2\n      sub\n      swap1\n      return\n        /* \"contracts/condition.sol\":51:78  uint256 public number = 100 */\n    tag_4:\n      tag_13\n      tag_14\n      jump\t// in\n    tag_13:\n      mload(0x40)\n      tag_15\n      swap2\n      swap1\n      tag_16\n      jump\t// in\n    tag_15:\n      mload(0x40)\n      dup1\n      swap2\n      sub\n      swap1\n      return\n        /* \"contracts/condition.sol\":567:767  function addNumber2(uint256 _x) public onlyOwner {... */\n    tag_5:\n      tag_17\n      0x04\n      dup1\n      calldatasize\n      sub\n      dup2\n      add\n      swap1\n      tag_18\n      swap2\n      swap1\n      tag_9\n      jump\t// in\n    tag_18:\n      tag_19\n      jump\t// in\n    tag_17:\n      stop\n        /* \"contracts/condition.sol\":424:561  function addNumber(uint256 _x) public onlyOwner {... */\n    tag_6:\n      tag_20\n      0x04\n      dup1\n      calldatasize\n      sub\n      dup2\n      add\n      swap1\n      tag_21\n      swap2\n      swap1\n      tag_9\n      jump\t// in\n    tag_21:\n      tag_22\n      jump\t// in\n    tag_20:\n      stop\n        /* \"contracts/condition.sol\":320:418  function example(uint256 _x) public view onlyOwner returns(bool) {... */\n    tag_10:\n        /* \"contracts/condition.sol\":379:383  bool */\n      0x00\n        /* \"contracts/condition.sol\":256:261  owner */\n      0x01\n      0x00\n      swap1\n      sload\n      swap1\n      0x0100\n      exp\n      swap1\n      div\n      0xffffffffffffffffffffffffffffffffffffffff\n      and\n        /* \"contracts/condition.sol\":242:261  msg.sender == owner */\n      0xffffffffffffffffffffffffffffffffffffffff\n      and\n        /* \"contracts/condition.sol\":242:252  msg.sender */\n      caller\n        /* \"contracts/condition.sol\":242:261  msg.sender == owner */\n      0xffffffffffffffffffffffffffffffffffffffff\n      and\n      eq\n        /* \"contracts/condition.sol\":234:296  require(msg.sender == owner, \"You are not the contract owner\") */\n      tag_24\n      jumpi\n      mload(0x40)\n      0x08c379a000000000000000000000000000000000000000000000000000000000\n      dup2\n      mstore\n      0x04\n      add\n      tag_25\n      swap1\n      tag_26\n      jump\t// in\n    tag_25:\n      mload(0x40)\n      dup1\n      swap2\n      sub\n      swap1\n      revert\n    tag_24:\n        /* \"contracts/condition.sol\":408:410  10 */\n      0x0a\n        /* \"contracts/condition.sol\":403:405  _x */\n      dup3\n        /* \"contracts/condition.sol\":403:410  _x < 10 */\n      lt\n        /* \"contracts/condition.sol\":395:411  return (_x < 10) */\n      swap1\n      pop\n        /* \"contracts/condition.sol\":320:418  function example(uint256 _x) public view onlyOwner returns(bool) {... */\n      swap2\n      swap1\n      pop\n      jump\t// out\n        /* \"contracts/condition.sol\":51:78  uint256 public number = 100 */\n    tag_14:\n      sload(0x00)\n      dup2\n      jump\t// out\n        /* \"contracts/condition.sol\":567:767  function addNumber2(uint256 _x) public onlyOwner {... */\n    tag_19:\n        /* \"contracts/condition.sol\":256:261  owner */\n      0x01\n      0x00\n      swap1\n      sload\n      swap1\n      0x0100\n      exp\n      swap1\n      div\n      0xffffffffffffffffffffffffffffffffffffffff\n      and\n        /* \"contracts/condition.sol\":242:261  msg.sender == owner */\n      0xffffffffffffffffffffffffffffffffffffffff\n      and\n        /* \"contracts/condition.sol\":242:252  msg.sender */\n      caller\n        /* \"contracts/condition.sol\":242:261  msg.sender == owner */\n      0xffffffffffffffffffffffffffffffffffffffff\n      and\n      eq\n        /* \"contracts/condition.sol\":234:296  require(msg.sender == owner, \"You are not the contract owner\") */\n      tag_29\n      jumpi\n      mload(0x40)\n      0x08c379a000000000000000000000000000000000000000000000000000000000\n      dup2\n      mstore\n      0x04\n      add\n      tag_30\n      swap1\n      tag_26\n      jump\t// in\n    tag_30:\n      mload(0x40)\n      dup1\n      swap2\n      sub\n      swap1\n      revert\n    tag_29:\n        /* \"contracts/condition.sol\":709:711  10 */\n      0x0a\n        /* \"contracts/condition.sol\":704:706  _x */\n      dup2\n        /* \"contracts/condition.sol\":704:711  _x < 10 */\n      lt\n        /* \"contracts/condition.sol\":696:738  require(_x < 10, \"x must be less than 10\") */\n      tag_32\n      jumpi\n      mload(0x40)\n      0x08c379a000000000000000000000000000000000000000000000000000000000\n      dup2\n      mstore\n      0x04\n      add\n      tag_33\n      swap1\n      tag_34\n      jump\t// in\n    tag_33:\n      mload(0x40)\n      dup1\n      swap2\n      sub\n      swap1\n      revert\n    tag_32:\n        /* \"contracts/condition.sol\":758:760  _x */\n      dup1\n        /* \"contracts/condition.sol\":748:754  number */\n      0x00\n      dup1\n        /* \"contracts/condition.sol\":748:760  number += _x */\n      dup3\n      dup3\n      sload\n      tag_35\n      swap2\n      swap1\n      tag_36\n      jump\t// in\n    tag_35:\n      swap3\n      pop\n      pop\n      dup2\n      swap1\n      sstore\n      pop\n        /* \"contracts/condition.sol\":567:767  function addNumber2(uint256 _x) public onlyOwner {... */\n      pop\n      jump\t// out\n        /* \"contracts/condition.sol\":424:561  function addNumber(uint256 _x) public onlyOwner {... */\n    tag_22:\n        /* \"contracts/condition.sol\":256:261  owner */\n      0x01\n      0x00\n      swap1\n      sload\n      swap1\n      0x0100\n      exp\n      swap1\n      div\n      0xffffffffffffffffffffffffffffffffffffffff\n      and\n        /* \"contracts/condition.sol\":242:261  msg.sender == owner */\n      0xffffffffffffffffffffffffffffffffffffffff\n      and\n        /* \"contracts/condition.sol\":242:252  msg.sender */\n      caller\n        /* \"contracts/condition.sol\":242:261  msg.sender == owner */\n      0xffffffffffffffffffffffffffffffffffffffff\n      and\n      eq\n        /* \"contracts/condition.sol\":234:296  require(msg.sender == owner, \"You are not the contract owner\") */\n      tag_38\n      jumpi\n      mload(0x40)\n      0x08c379a000000000000000000000000000000000000000000000000000000000\n      dup2\n      mstore\n      0x04\n      add\n      tag_39\n      swap1\n      tag_26\n      jump\t// in\n    tag_39:\n      mload(0x40)\n      dup1\n      swap2\n      sub\n      swap1\n      revert\n    tag_38:\n        /* \"contracts/condition.sol\":491:493  10 */\n      0x0a\n        /* \"contracts/condition.sol\":486:488  _x */\n      dup2\n        /* \"contracts/condition.sol\":486:493  _x < 10 */\n      lt\n        /* \"contracts/condition.sol\":482:554  if (_x < 10)... */\n      iszero\n      tag_41\n      jumpi\n        /* \"contracts/condition.sol\":517:519  _x */\n      dup1\n        /* \"contracts/condition.sol\":507:513  number */\n      0x00\n      dup1\n        /* \"contracts/condition.sol\":507:519  number += _x */\n      dup3\n      dup3\n      sload\n      tag_42\n      swap2\n      swap1\n      tag_36\n      jump\t// in\n    tag_42:\n      swap3\n      pop\n      pop\n      dup2\n      swap1\n      sstore\n      pop\n        /* \"contracts/condition.sol\":482:554  if (_x < 10)... */\n      jump(tag_43)\n    tag_41:\n        /* \"contracts/condition.sol\":546:554  revert() */\n      0x00\n      dup1\n      revert\n        /* \"contracts/condition.sol\":482:554  if (_x < 10)... */\n    tag_43:\n        /* \"contracts/condition.sol\":424:561  function addNumber(uint256 _x) public onlyOwner {... */\n      pop\n      jump\t// out\n        /* \"#utility.yul\":88:205   */\n    tag_45:\n        /* \"#utility.yul\":197:198   */\n      0x00\n        /* \"#utility.yul\":194:195   */\n      dup1\n        /* \"#utility.yul\":187:199   */\n      revert\n        /* \"#utility.yul\":334:411   */\n    tag_47:\n        /* \"#utility.yul\":371:378   */\n      0x00\n        /* \"#utility.yul\":400:405   */\n      dup2\n        /* \"#utility.yul\":389:405   */\n      swap1\n      pop\n        /* \"#utility.yul\":334:411   */\n      swap2\n      swap1\n      pop\n      jump\t// out\n        /* \"#utility.yul\":417:539   */\n    tag_48:\n        /* \"#utility.yul\":490:514   */\n      tag_65\n        /* \"#utility.yul\":508:513   */\n      dup2\n        /* \"#utility.yul\":490:514   */\n      tag_47\n      jump\t// in\n    tag_65:\n        /* \"#utility.yul\":483:488   */\n      dup2\n        /* \"#utility.yul\":480:515   */\n      eq\n        /* \"#utility.yul\":470:533   */\n      tag_66\n      jumpi\n        /* \"#utility.yul\":529:530   */\n      0x00\n        /* \"#utility.yul\":526:527   */\n      dup1\n        /* \"#utility.yul\":519:531   */\n      revert\n        /* \"#utility.yul\":470:533   */\n    tag_66:\n        /* \"#utility.yul\":417:539   */\n      pop\n      jump\t// out\n        /* \"#utility.yul\":545:684   */\n    tag_49:\n        /* \"#utility.yul\":591:596   */\n      0x00\n        /* \"#utility.yul\":629:635   */\n      dup2\n        /* \"#utility.yul\":616:636   */\n      calldataload\n        /* \"#utility.yul\":607:636   */\n      swap1\n      pop\n        /* \"#utility.yul\":645:678   */\n      tag_68\n        /* \"#utility.yul\":672:677   */\n      dup2\n        /* \"#utility.yul\":645:678   */\n      tag_48\n      jump\t// in\n    tag_68:\n        /* \"#utility.yul\":545:684   */\n      swap3\n      swap2\n      pop\n      pop\n      jump\t// out\n        /* \"#utility.yul\":690:1019   */\n    tag_9:\n        /* \"#utility.yul\":749:755   */\n      0x00\n        /* \"#utility.yul\":798:800   */\n      0x20\n        /* \"#utility.yul\":786:795   */\n      dup3\n        /* \"#utility.yul\":777:784   */\n      dup5\n        /* \"#utility.yul\":773:796   */\n      sub\n        /* \"#utility.yul\":769:801   */\n      slt\n        /* \"#utility.yul\":766:885   */\n      iszero\n      tag_70\n      jumpi\n        /* \"#utility.yul\":804:883   */\n      tag_71\n      tag_45\n      jump\t// in\n    tag_71:\n        /* \"#utility.yul\":766:885   */\n    tag_70:\n        /* \"#utility.yul\":924:925   */\n      0x00\n        /* \"#utility.yul\":949:1002   */\n      tag_72\n        /* \"#utility.yul\":994:1001   */\n      dup5\n        /* \"#utility.yul\":985:991   */\n      dup3\n        /* \"#utility.yul\":974:983   */\n      dup6\n        /* \"#utility.yul\":970:992   */\n      add\n        /* \"#utility.yul\":949:1002   */\n      tag_49\n      jump\t// in\n    tag_72:\n        /* \"#utility.yul\":939:1002   */\n      swap2\n      pop\n        /* \"#utility.yul\":895:1012   */\n      pop\n        /* \"#utility.yul\":690:1019   */\n      swap3\n      swap2\n      pop\n      pop\n      jump\t// out\n        /* \"#utility.yul\":1025:1115   */\n    tag_50:\n        /* \"#utility.yul\":1059:1066   */\n      0x00\n        /* \"#utility.yul\":1102:1107   */\n      dup2\n        /* \"#utility.yul\":1095:1108   */\n      iszero\n        /* \"#utility.yul\":1088:1109   */\n      iszero\n        /* \"#utility.yul\":1077:1109   */\n      swap1\n      pop\n        /* \"#utility.yul\":1025:1115   */\n      swap2\n      swap1\n      pop\n      jump\t// out\n        /* \"#utility.yul\":1121:1230   */\n    tag_51:\n        /* \"#utility.yul\":1202:1223   */\n      tag_75\n        /* \"#utility.yul\":1217:1222   */\n      dup2\n        /* \"#utility.yul\":1202:1223   */\n      tag_50\n      jump\t// in\n    tag_75:\n        /* \"#utility.yul\":1197:1200   */\n      dup3\n        /* \"#utility.yul\":1190:1224   */\n      mstore\n        /* \"#utility.yul\":1121:1230   */\n      pop\n      pop\n      jump\t// out\n        /* \"#utility.yul\":1236:1446   */\n    tag_12:\n        /* \"#utility.yul\":1323:1327   */\n      0x00\n        /* \"#utility.yul\":1361:1363   */\n      0x20\n        /* \"#utility.yul\":1350:1359   */\n      dup3\n        /* \"#utility.yul\":1346:1364   */\n      add\n        /* \"#utility.yul\":1338:1364   */\n      swap1\n      pop\n        /* \"#utility.yul\":1374:1439   */\n      tag_77\n        /* \"#utility.yul\":1436:1437   */\n      0x00\n        /* \"#utility.yul\":1425:1434   */\n      dup4\n        /* \"#utility.yul\":1421:1438   */\n      add\n        /* \"#utility.yul\":1412:1418   */\n      dup5\n        /* \"#utility.yul\":1374:1439   */\n      tag_51\n      jump\t// in\n    tag_77:\n        /* \"#utility.yul\":1236:1446   */\n      swap3\n      swap2\n      pop\n      pop\n      jump\t// out\n        /* \"#utility.yul\":1452:1570   */\n    tag_52:\n        /* \"#utility.yul\":1539:1563   */\n      tag_79\n        /* \"#utility.yul\":1557:1562   */\n      dup2\n        /* \"#utility.yul\":1539:1563   */\n      tag_47\n      jump\t// in\n    tag_79:\n        /* \"#utility.yul\":1534:1537   */\n      dup3\n        /* \"#utility.yul\":1527:1564   */\n      mstore\n        /* \"#utility.yul\":1452:1570   */\n      pop\n      pop\n      jump\t// out\n        /* \"#utility.yul\":1576:1798   */\n    tag_16:\n        /* \"#utility.yul\":1669:1673   */\n      0x00\n        /* \"#utility.yul\":1707:1709   */\n      0x20\n        /* \"#utility.yul\":1696:1705   */\n      dup3\n        /* \"#utility.yul\":1692:1710   */\n      add\n        /* \"#utility.yul\":1684:1710   */\n      swap1\n      pop\n        /* \"#utility.yul\":1720:1791   */\n      tag_81\n        /* \"#utility.yul\":1788:1789   */\n      0x00\n        /* \"#utility.yul\":1777:1786   */\n      dup4\n        /* \"#utility.yul\":1773:1790   */\n      add\n        /* \"#utility.yul\":1764:1770   */\n      dup5\n        /* \"#utility.yul\":1720:1791   */\n      tag_52\n      jump\t// in\n    tag_81:\n        /* \"#utility.yul\":1576:1798   */\n      swap3\n      swap2\n      pop\n      pop\n      jump\t// out\n        /* \"#utility.yul\":1804:1973   */\n    tag_53:\n        /* \"#utility.yul\":1888:1899   */\n      0x00\n        /* \"#utility.yul\":1922:1928   */\n      dup3\n        /* \"#utility.yul\":1917:1920   */\n      dup3\n        /* \"#utility.yul\":1910:1929   */\n      mstore\n        /* \"#utility.yul\":1962:1966   */\n      0x20\n        /* \"#utility.yul\":1957:1960   */\n      dup3\n        /* \"#utility.yul\":1953:1967   */\n      add\n        /* \"#utility.yul\":1938:1967   */\n      swap1\n      pop\n        /* \"#utility.yul\":1804:1973   */\n      swap3\n      swap2\n      pop\n      pop\n      jump\t// out\n        /* \"#utility.yul\":1979:2159   */\n    tag_54:\n        /* \"#utility.yul\":2119:2151   */\n      0x596f7520617265206e6f742074686520636f6e7472616374206f776e65720000\n        /* \"#utility.yul\":2115:2116   */\n      0x00\n        /* \"#utility.yul\":2107:2113   */\n      dup3\n        /* \"#utility.yul\":2103:2117   */\n      add\n        /* \"#utility.yul\":2096:2152   */\n      mstore\n        /* \"#utility.yul\":1979:2159   */\n      pop\n      jump\t// out\n        /* \"#utility.yul\":2165:2531   */\n    tag_55:\n        /* \"#utility.yul\":2307:2310   */\n      0x00\n        /* \"#utility.yul\":2328:2395   */\n      tag_85\n        /* \"#utility.yul\":2392:2394   */\n      0x1e\n        /* \"#utility.yul\":2387:2390   */\n      dup4\n        /* \"#utility.yul\":2328:2395   */\n      tag_53\n      jump\t// in\n    tag_85:\n        /* \"#utility.yul\":2321:2395   */\n      swap2\n      pop\n        /* \"#utility.yul\":2404:2497   */\n      tag_86\n        /* \"#utility.yul\":2493:2496   */\n      dup3\n        /* \"#utility.yul\":2404:2497   */\n      tag_54\n      jump\t// in\n    tag_86:\n        /* \"#utility.yul\":2522:2524   */\n      0x20\n        /* \"#utility.yul\":2517:2520   */\n      dup3\n        /* \"#utility.yul\":2513:2525   */\n      add\n        /* \"#utility.yul\":2506:2525   */\n      swap1\n      pop\n        /* \"#utility.yul\":2165:2531   */\n      swap2\n      swap1\n      pop\n      jump\t// out\n        /* \"#utility.yul\":2537:2956   */\n    tag_26:\n        /* \"#utility.yul\":2703:2707   */\n      0x00\n        /* \"#utility.yul\":2741:2743   */\n      0x20\n        /* \"#utility.yul\":2730:2739   */\n      dup3\n        /* \"#utility.yul\":2726:2744   */\n      add\n        /* \"#utility.yul\":2718:2744   */\n      swap1\n      pop\n        /* \"#utility.yul\":2790:2799   */\n      dup2\n        /* \"#utility.yul\":2784:2788   */\n      dup2\n        /* \"#utility.yul\":2780:2800   */\n      sub\n        /* \"#utility.yul\":2776:2777   */\n      0x00\n        /* \"#utility.yul\":2765:2774   */\n      dup4\n        /* \"#utility.yul\":2761:2778   */\n      add\n        /* \"#utility.yul\":2754:2801   */\n      mstore\n        /* \"#utility.yul\":2818:2949   */\n      tag_88\n        /* \"#utility.yul\":2944:2948   */\n      dup2\n        /* \"#utility.yul\":2818:2949   */\n      tag_55\n      jump\t// in\n    tag_88:\n        /* \"#utility.yul\":2810:2949   */\n      swap1\n      pop\n        /* \"#utility.yul\":2537:2956   */\n      swap2\n      swap1\n      pop\n      jump\t// out\n        /* \"#utility.yul\":2962:3134   */\n    tag_56:\n        /* \"#utility.yul\":3102:3126   */\n      0x78206d757374206265206c657373207468616e20313000000000000000000000\n        /* \"#utility.yul\":3098:3099   */\n      0x00\n        /* \"#utility.yul\":3090:3096   */\n      dup3\n        /* \"#utility.yul\":3086:3100   */\n      add\n        /* \"#utility.yul\":3079:3127   */\n      mstore\n        /* \"#utility.yul\":2962:3134   */\n      pop\n      jump\t// out\n        /* \"#utility.yul\":3140:3506   */\n    tag_57:\n        /* \"#utility.yul\":3282:3285   */\n      0x00\n        /* \"#utility.yul\":3303:3370   */\n      tag_91\n        /* \"#utility.yul\":3367:3369   */\n      0x16\n        /* \"#utility.yul\":3362:3365   */\n      dup4\n        /* \"#utility.yul\":3303:3370   */\n      tag_53\n      jump\t// in\n    tag_91:\n        /* \"#utility.yul\":3296:3370   */\n      swap2\n      pop\n        /* \"#utility.yul\":3379:3472   */\n      tag_92\n        /* \"#utility.yul\":3468:3471   */\n      dup3\n        /* \"#utility.yul\":3379:3472   */\n      tag_56\n      jump\t// in\n    tag_92:\n        /* \"#utility.yul\":3497:3499   */\n      0x20\n        /* \"#utility.yul\":3492:3495   */\n      dup3\n        /* \"#utility.yul\":3488:3500   */\n      add\n        /* \"#utility.yul\":3481:3500   */\n      swap1\n      pop\n        /* \"#utility.yul\":3140:3506   */\n      swap2\n      swap1\n      pop\n      jump\t// out\n        /* \"#utility.yul\":3512:3931   */\n    tag_34:\n        /* \"#utility.yul\":3678:3682   */\n      0x00\n        /* \"#utility.yul\":3716:3718   */\n      0x20\n        /* \"#utility.yul\":3705:3714   */\n      dup3\n        /* \"#utility.yul\":3701:3719   */\n      add\n        /* \"#utility.yul\":3693:3719   */\n      swap1\n      pop\n        /* \"#utility.yul\":3765:3774   */\n      dup2\n        /* \"#utility.yul\":3759:3763   */\n      dup2\n        /* \"#utility.yul\":3755:3775   */\n      sub\n        /* \"#utility.yul\":3751:3752   */\n      0x00\n        /* \"#utility.yul\":3740:3749   */\n      dup4\n        /* \"#utility.yul\":3736:3753   */\n      add\n        /* \"#utility.yul\":3729:3776   */\n      mstore\n        /* \"#utility.yul\":3793:3924   */\n      tag_94\n        /* \"#utility.yul\":3919:3923   */\n      dup2\n        /* \"#utility.yul\":3793:3924   */\n      tag_57\n      jump\t// in\n    tag_94:\n        /* \"#utility.yul\":3785:3924   */\n      swap1\n      pop\n        /* \"#utility.yul\":3512:3931   */\n      swap2\n      swap1\n      pop\n      jump\t// out\n        /* \"#utility.yul\":3937:4117   */\n    tag_58:\n        /* \"#utility.yul\":3985:4062   */\n      0x4e487b7100000000000000000000000000000000000000000000000000000000\n        /* \"#utility.yul\":3982:3983   */\n      0x00\n        /* \"#utility.yul\":3975:4063   */\n      mstore\n        /* \"#utility.yul\":4082:4086   */\n      0x11\n        /* \"#utility.yul\":4079:4080   */\n      0x04\n        /* \"#utility.yul\":4072:4087   */\n      mstore\n        /* \"#utility.yul\":4106:4110   */\n      0x24\n        /* \"#utility.yul\":4103:4104   */\n      0x00\n        /* \"#utility.yul\":4096:4111   */\n      revert\n        /* \"#utility.yul\":4123:4428   */\n    tag_36:\n        /* \"#utility.yul\":4163:4166   */\n      0x00\n        /* \"#utility.yul\":4182:4202   */\n      tag_97\n        /* \"#utility.yul\":4200:4201   */\n      dup3\n        /* \"#utility.yul\":4182:4202   */\n      tag_47\n      jump\t// in\n    tag_97:\n        /* \"#utility.yul\":4177:4202   */\n      swap2\n      pop\n        /* \"#utility.yul\":4216:4236   */\n      tag_98\n        /* \"#utility.yul\":4234:4235   */\n      dup4\n        /* \"#utility.yul\":4216:4236   */\n      tag_47\n      jump\t// in\n    tag_98:\n        /* \"#utility.yul\":4211:4236   */\n      swap3\n      pop\n        /* \"#utility.yul\":4370:4371   */\n      dup3\n        /* \"#utility.yul\":4302:4368   */\n      0xffffffffffffffffffffffffffffffffffffffffffffffffffffffffffffffff\n        /* \"#utility.yul\":4298:4372   */\n      sub\n        /* \"#utility.yul\":4295:4296   */\n      dup3\n        /* \"#utility.yul\":4292:4373   */\n      gt\n        /* \"#utility.yul\":4289:4396   */\n      iszero\n      tag_99\n      jumpi\n        /* \"#utility.yul\":4376:4394   */\n      tag_100\n      tag_58\n      jump\t// in\n    tag_100:\n        /* \"#utility.yul\":4289:4396   */\n    tag_99:\n        /* \"#utility.yul\":4420:4421   */\n      dup3\n        /* \"#utility.yul\":4417:4418   */\n      dup3\n        /* \"#utility.yul\":4413:4422   */\n      add\n        /* \"#utility.yul\":4406:4422   */\n      swap1\n      pop\n        /* \"#utility.yul\":4123:4428   */\n      swap3\n      swap2\n      pop\n      pop\n      jump\t// out\n\n    auxdata: 0xa2646970667358221220712513fff13b3c93e71ce07c24c71bf15335ff0db575f5c796e340c68cc3be7864736f6c634300080f0033\n}\n",
				"bytecode": {
					"linkReferences": {},
					"object": "6080604052606460005534801561001557600080fd5b5033600160006101000a81548173ffffffffffffffffffffffffffffffffffffffff021916908373ffffffffffffffffffffffffffffffffffffffff160217905550610592806100666000396000f3fe608060405234801561001057600080fd5b506004361061004c5760003560e01c8063477e4a02146100515780638381f58a14610081578063d2e05f1a1461009f578063fce68023146100bb575b600080fd5b61006b60048036038101906100669190610361565b6100d7565b60405161007891906103a9565b60405180910390f35b610089610174565b60405161009691906103d3565b60405180910390f35b6100b960048036038101906100b49190610361565b61017a565b005b6100d560048036038101906100d09190610361565b610268565b005b6000600160009054906101000a900473ffffffffffffffffffffffffffffffffffffffff1673ffffffffffffffffffffffffffffffffffffffff163373ffffffffffffffffffffffffffffffffffffffff1614610169576040517f08c379a00000000000000000000000000000000000000000000000000000000081526004016101609061044b565b60405180910390fd5b600a82109050919050565b60005481565b600160009054906101000a900473ffffffffffffffffffffffffffffffffffffffff1673ffffffffffffffffffffffffffffffffffffffff163373ffffffffffffffffffffffffffffffffffffffff161461020a576040517f08c379a00000000000000000000000000000000000000000000000000000000081526004016102019061044b565b60405180910390fd5b600a811061024d576040517f08c379a0000000000000000000000000000000000000000000000000000000008152600401610244906104b7565b60405180910390fd5b8060008082825461025e9190610506565b9250508190555050565b600160009054906101000a900473ffffffffffffffffffffffffffffffffffffffff1673ffffffffffffffffffffffffffffffffffffffff163373ffffffffffffffffffffffffffffffffffffffff16146102f8576040517f08c379a00000000000000000000000000000000000000000000000000000000081526004016102ef9061044b565b60405180910390fd5b600a81101561031e57806000808282546103129190610506565b92505081905550610323565b600080fd5b50565b600080fd5b6000819050919050565b61033e8161032b565b811461034957600080fd5b50565b60008135905061035b81610335565b92915050565b60006020828403121561037757610376610326565b5b60006103858482850161034c565b91505092915050565b60008115159050919050565b6103a38161038e565b82525050565b60006020820190506103be600083018461039a565b92915050565b6103cd8161032b565b82525050565b60006020820190506103e860008301846103c4565b92915050565b600082825260208201905092915050565b7f596f7520617265206e6f742074686520636f6e7472616374206f776e65720000600082015250565b6000610435601e836103ee565b9150610440826103ff565b602082019050919050565b6000602082019050818103600083015261046481610428565b9050919050565b7f78206d757374206265206c657373207468616e20313000000000000000000000600082015250565b60006104a16016836103ee565b91506104ac8261046b565b602082019050919050565b600060208201905081810360008301526104d081610494565b9050919050565b7f4e487b7100000000000000000000000000000000000000000000000000000000600052601160045260246000fd5b60006105118261032b565b915061051c8361032b565b9250827fffffffffffffffffffffffffffffffffffffffffffffffffffffffffffffffff03821115610551576105506104d7565b5b82820190509291505056fea2646970667358221220712513fff13b3c93e71ce07c24c71bf15335ff0db575f5c796e340c68cc3be7864736f6c634300080f0033",
					"opcodes": "PUSH1 0x80 PUSH1 0x40 MSTORE PUSH1 0x64 PUSH1 0x0 SSTORE CALLVALUE DUP1 ISZERO PUSH2 0x15 JUMPI PUSH1 0x0 DUP1 REVERT JUMPDEST POP CALLER PUSH1 0x1 PUSH1 0x0 PUSH2 0x100 EXP DUP2 SLOAD DUP2 PUSH20 0xFFFFFFFFFFFFFFFFFFFFFFFFFFFFFFFFFFFFFFFF MUL NOT AND SWAP1 DUP4 PUSH20 0xFFFFFFFFFFFFFFFFFFFFFFFFFFFFFFFFFFFFFFFF AND MUL OR SWAP1 SSTORE POP PUSH2 0x592 DUP1 PUSH2 0x66 PUSH1 0x0 CODECOPY PUSH1 0x0 RETURN INVALID PUSH1 0x80 PUSH1 0x40 MSTORE CALLVALUE DUP1 ISZERO PUSH2 0x10 JUMPI PUSH1 0x0 DUP1 REVERT JUMPDEST POP PUSH1 0x4 CALLDATASIZE LT PUSH2 0x4C JUMPI PUSH1 0x0 CALLDATALOAD PUSH1 0xE0 SHR DUP1 PUSH4 0x477E4A02 EQ PUSH2 0x51 JUMPI DUP1 PUSH4 0x8381F58A EQ PUSH2 0x81 JUMPI DUP1 PUSH4 0xD2E05F1A EQ PUSH2 0x9F JUMPI DUP1 PUSH4 0xFCE68023 EQ PUSH2 0xBB JUMPI JUMPDEST PUSH1 0x0 DUP1 REVERT JUMPDEST PUSH2 0x6B PUSH1 0x4 DUP1 CALLDATASIZE SUB DUP2 ADD SWAP1 PUSH2 0x66 SWAP2 SWAP1 PUSH2 0x361 JUMP JUMPDEST PUSH2 0xD7 JUMP JUMPDEST PUSH1 0x40 MLOAD PUSH2 0x78 SWAP2 SWAP1 PUSH2 0x3A9 JUMP JUMPDEST PUSH1 0x40 MLOAD DUP1 SWAP2 SUB SWAP1 RETURN JUMPDEST PUSH2 0x89 PUSH2 0x174 JUMP JUMPDEST PUSH1 0x40 MLOAD PUSH2 0x96 SWAP2 SWAP1 PUSH2 0x3D3 JUMP JUMPDEST PUSH1 0x40 MLOAD DUP1 SWAP2 SUB SWAP1 RETURN JUMPDEST PUSH2 0xB9 PUSH1 0x4 DUP1 CALLDATASIZE SUB DUP2 ADD SWAP1 PUSH2 0xB4 SWAP2 SWAP1 PUSH2 0x361 JUMP JUMPDEST PUSH2 0x17A JUMP JUMPDEST STOP JUMPDEST PUSH2 0xD5 PUSH1 0x4 DUP1 CALLDATASIZE SUB DUP2 ADD SWAP1 PUSH2 0xD0 SWAP2 SWAP1 PUSH2 0x361 JUMP JUMPDEST PUSH2 0x268 JUMP JUMPDEST STOP JUMPDEST PUSH1 0x0 PUSH1 0x1 PUSH1 0x0 SWAP1 SLOAD SWAP1 PUSH2 0x100 EXP SWAP1 DIV PUSH20 0xFFFFFFFFFFFFFFFFFFFFFFFFFFFFFFFFFFFFFFFF AND PUSH20 0xFFFFFFFFFFFFFFFFFFFFFFFFFFFFFFFFFFFFFFFF AND CALLER PUSH20 0xFFFFFFFFFFFFFFFFFFFFFFFFFFFFFFFFFFFFFFFF AND EQ PUSH2 0x169 JUMPI PUSH1 0x40 MLOAD PUSH32 0x8C379A000000000000000000000000000000000000000000000000000000000 DUP2 MSTORE PUSH1 0x4 ADD PUSH2 0x160 SWAP1 PUSH2 0x44B JUMP JUMPDEST PUSH1 0x40 MLOAD DUP1 SWAP2 SUB SWAP1 REVERT JUMPDEST PUSH1 0xA DUP3 LT SWAP1 POP SWAP2 SWAP1 POP JUMP JUMPDEST PUSH1 0x0 SLOAD DUP2 JUMP JUMPDEST PUSH1 0x1 PUSH1 0x0 SWAP1 SLOAD SWAP1 PUSH2 0x100 EXP SWAP1 DIV PUSH20 0xFFFFFFFFFFFFFFFFFFFFFFFFFFFFFFFFFFFFFFFF AND PUSH20 0xFFFFFFFFFFFFFFFFFFFFFFFFFFFFFFFFFFFFFFFF AND CALLER PUSH20 0xFFFFFFFFFFFFFFFFFFFFFFFFFFFFFFFFFFFFFFFF AND EQ PUSH2 0x20A JUMPI PUSH1 0x40 MLOAD PUSH32 0x8C379A000000000000000000000000000000000000000000000000000000000 DUP2 MSTORE PUSH1 0x4 ADD PUSH2 0x201 SWAP1 PUSH2 0x44B JUMP JUMPDEST PUSH1 0x40 MLOAD DUP1 SWAP2 SUB SWAP1 REVERT JUMPDEST PUSH1 0xA DUP2 LT PUSH2 0x24D JUMPI PUSH1 0x40 MLOAD PUSH32 0x8C379A000000000000000000000000000000000000000000000000000000000 DUP2 MSTORE PUSH1 0x4 ADD PUSH2 0x244 SWAP1 PUSH2 0x4B7 JUMP JUMPDEST PUSH1 0x40 MLOAD DUP1 SWAP2 SUB SWAP1 REVERT JUMPDEST DUP1 PUSH1 0x0 DUP1 DUP3 DUP3 SLOAD PUSH2 0x25E SWAP2 SWAP1 PUSH2 0x506 JUMP JUMPDEST SWAP3 POP POP DUP2 SWAP1 SSTORE POP POP JUMP JUMPDEST PUSH1 0x1 PUSH1 0x0 SWAP1 SLOAD SWAP1 PUSH2 0x100 EXP SWAP1 DIV PUSH20 0xFFFFFFFFFFFFFFFFFFFFFFFFFFFFFFFFFFFFFFFF AND PUSH20 0xFFFFFFFFFFFFFFFFFFFFFFFFFFFFFFFFFFFFFFFF AND CALLER PUSH20 0xFFFFFFFFFFFFFFFFFFFFFFFFFFFFFFFFFFFFFFFF AND EQ PUSH2 0x2F8 JUMPI PUSH1 0x40 MLOAD PUSH32 0x8C379A000000000000000000000000000000000000000000000000000000000 DUP2 MSTORE PUSH1 0x4 ADD PUSH2 0x2EF SWAP1 PUSH2 0x44B JUMP JUMPDEST PUSH1 0x40 MLOAD DUP1 SWAP2 SUB SWAP1 REVERT JUMPDEST PUSH1 0xA DUP2 LT ISZERO PUSH2 0x31E JUMPI DUP1 PUSH1 0x0 DUP1 DUP3 DUP3 SLOAD PUSH2 0x312 SWAP2 SWAP1 PUSH2 0x506 JUMP JUMPDEST SWAP3 POP POP DUP2 SWAP1 SSTORE POP PUSH2 0x323 JUMP JUMPDEST PUSH1 0x0 DUP1 REVERT JUMPDEST POP JUMP JUMPDEST PUSH1 0x0 DUP1 REVERT JUMPDEST PUSH1 0x0 DUP2 SWAP1 POP SWAP2 SWAP1 POP JUMP JUMPDEST PUSH2 0x33E DUP2 PUSH2 0x32B JUMP JUMPDEST DUP2 EQ PUSH2 0x349 JUMPI PUSH1 0x0 DUP1 REVERT JUMPDEST POP JUMP JUMPDEST PUSH1 0x0 DUP2 CALLDATALOAD SWAP1 POP PUSH2 0x35B DUP2 PUSH2 0x335 JUMP JUMPDEST SWAP3 SWAP2 POP POP JUMP JUMPDEST PUSH1 0x0 PUSH1 0x20 DUP3 DUP5 SUB SLT ISZERO PUSH2 0x377 JUMPI PUSH2 0x376 PUSH2 0x326 JUMP JUMPDEST JUMPDEST PUSH1 0x0 PUSH2 0x385 DUP5 DUP3 DUP6 ADD PUSH2 0x34C JUMP JUMPDEST SWAP2 POP POP SWAP3 SWAP2 POP POP JUMP JUMPDEST PUSH1 0x0 DUP2 ISZERO ISZERO SWAP1 POP SWAP2 SWAP1 POP JUMP JUMPDEST PUSH2 0x3A3 DUP2 PUSH2 0x38E JUMP JUMPDEST DUP3 MSTORE POP POP JUMP JUMPDEST PUSH1 0x0 PUSH1 0x20 DUP3 ADD SWAP1 POP PUSH2 0x3BE PUSH1 0x0 DUP4 ADD DUP5 PUSH2 0x39A JUMP JUMPDEST SWAP3 SWAP2 POP POP JUMP JUMPDEST PUSH2 0x3CD DUP2 PUSH2 0x32B JUMP JUMPDEST DUP3 MSTORE POP POP JUMP JUMPDEST PUSH1 0x0 PUSH1 0x20 DUP3 ADD SWAP1 POP PUSH2 0x3E8 PUSH1 0x0 DUP4 ADD DUP5 PUSH2 0x3C4 JUMP JUMPDEST SWAP3 SWAP2 POP POP JUMP JUMPDEST PUSH1 0x0 DUP3 DUP3 MSTORE PUSH1 0x20 DUP3 ADD SWAP1 POP SWAP3 SWAP2 POP POP JUMP JUMPDEST PUSH32 0x596F7520617265206E6F742074686520636F6E7472616374206F776E65720000 PUSH1 0x0 DUP3 ADD MSTORE POP JUMP JUMPDEST PUSH1 0x0 PUSH2 0x435 PUSH1 0x1E DUP4 PUSH2 0x3EE JUMP JUMPDEST SWAP2 POP PUSH2 0x440 DUP3 PUSH2 0x3FF JUMP JUMPDEST PUSH1 0x20 DUP3 ADD SWAP1 POP SWAP2 SWAP1 POP JUMP JUMPDEST PUSH1 0x0 PUSH1 0x20 DUP3 ADD SWAP1 POP DUP2 DUP2 SUB PUSH1 0x0 DUP4 ADD MSTORE PUSH2 0x464 DUP2 PUSH2 0x428 JUMP JUMPDEST SWAP1 POP SWAP2 SWAP1 POP JUMP JUMPDEST PUSH32 0x78206D757374206265206C657373207468616E20313000000000000000000000 PUSH1 0x0 DUP3 ADD MSTORE POP JUMP JUMPDEST PUSH1 0x0 PUSH2 0x4A1 PUSH1 0x16 DUP4 PUSH2 0x3EE JUMP JUMPDEST SWAP2 POP PUSH2 0x4AC DUP3 PUSH2 0x46B JUMP JUMPDEST PUSH1 0x20 DUP3 ADD SWAP1 POP SWAP2 SWAP1 POP JUMP JUMPDEST PUSH1 0x0 PUSH1 0x20 DUP3 ADD SWAP1 POP DUP2 DUP2 SUB PUSH1 0x0 DUP4 ADD MSTORE PUSH2 0x4D0 DUP2 PUSH2 0x494 JUMP JUMPDEST SWAP1 POP SWAP2 SWAP1 POP JUMP JUMPDEST PUSH32 0x4E487B7100000000000000000000000000000000000000000000000000000000 PUSH1 0x0 MSTORE PUSH1 0x11 PUSH1 0x4 MSTORE PUSH1 0x24 PUSH1 0x0 REVERT JUMPDEST PUSH1 0x0 PUSH2 0x511 DUP3 PUSH2 0x32B JUMP JUMPDEST SWAP2 POP PUSH2 0x51C DUP4 PUSH2 0x32B JUMP JUMPDEST SWAP3 POP DUP3 PUSH32 0xFFFFFFFFFFFFFFFFFFFFFFFFFFFFFFFFFFFFFFFFFFFFFFFFFFFFFFFFFFFFFFFF SUB DUP3 GT ISZERO PUSH2 0x551 JUMPI PUSH2 0x550 PUSH2 0x4D7 JUMP JUMPDEST JUMPDEST DUP3 DUP3 ADD SWAP1 POP SWAP3 SWAP2 POP POP JUMP INVALID LOG2 PUSH5 0x6970667358 0x22 SLT KECCAK256 PUSH18 0x2513FFF13B3C93E71CE07C24C71BF15335FF 0xD 0xB5 PUSH22 0xF5C796E340C68CC3BE7864736F6C634300080F003300 "
				},
				"gasEstimates": {
					"creation": {
						"codeDepositCost": "285200",
						"executionCost": "46696",
						"totalCost": "331896"
					},
					"external": {
						"addNumber(uint256)": "infinite",
						"addNumber2(uint256)": "infinite",
						"example(uint256)": "2844",
						"number()": "2429"
					}
				},
				"methodIdentifiers": {
					"addNumber(uint256)": "fce68023",
					"addNumber2(uint256)": "d2e05f1a",
					"example(uint256)": "477e4a02",
					"number()": "8381f58a"
				}
			},
			"storageLayout": {
				"storage": [
					{
						"astId": 4,
						"contract": "contracts/condition.sol:Condition",
						"label": "number",
						"offset": 0,
						"slot": "0",
						"type": "t_uint256"
					},
					{
						"astId": 6,
						"contract": "contracts/condition.sol:Condition",
						"label": "owner",
						"offset": 0,
						"slot": "1",
						"type": "t_address"
					}
				],
				"types": {
					"t_address": {
						"encoding": "inplace",
						"label": "address",
						"numberOfBytes": "20"
					},
					"t_uint256": {
						"encoding": "inplace",
						"label": "uint256",
						"numberOfBytes": "32"
					}
				}
			},
			"userdoc": {
				"kind": "user",
				"methods": {},
				"version": 1
			}
		}
	}
}