{
	"contracts/workshop.sol": {
		"Workshop": {
			"abi": [
				{
					"inputs": [
						{
							"internalType": "string",
							"name": "_name",
							"type": "string"
						},
						{
							"internalType": "string",
							"name": "_symbol",
							"type": "string"
						},
						{
							"internalType": "uint256",
							"name": "_totalSupply",
							"type": "uint256"
						}
					],
					"stateMutability": "nonpayable",
					"type": "constructor"
				},
				{
					"inputs": [
						{
							"internalType": "address",
							"name": "_account",
							"type": "address"
						}
					],
					"name": "balanceOf",
					"outputs": [
						{
							"internalType": "uint256",
							"name": "",
							"type": "uint256"
						}
					],
					"stateMutability": "view",
					"type": "function"
				},
				{
					"inputs": [],
					"name": "getName",
					"outputs": [
						{
							"internalType": "string",
							"name": "",
							"type": "string"
						}
					],
					"stateMutability": "view",
					"type": "function"
				},
				{
					"inputs": [],
					"name": "getSymbol",
					"outputs": [
						{
							"internalType": "string",
							"name": "",
							"type": "string"
						}
					],
					"stateMutability": "view",
					"type": "function"
				},
				{
					"inputs": [],
					"name": "getTotalSupply",
					"outputs": [
						{
							"internalType": "uint256",
							"name": "",
							"type": "uint256"
						}
					],
					"stateMutability": "view",
					"type": "function"
				},
				{
					"inputs": [
						{
							"internalType": "string",
							"name": "_name",
							"type": "string"
						}
					],
					"name": "setMyWalletName",
					"outputs": [],
					"stateMutability": "nonpayable",
					"type": "function"
				},
				{
					"inputs": [
						{
							"internalType": "address",
							"name": "_to",
							"type": "address"
						},
						{
							"internalType": "uint256",
							"name": "amount",
							"type": "uint256"
						}
					],
					"name": "transfer",
					"outputs": [],
					"stateMutability": "nonpayable",
					"type": "function"
				}
			],
			"devdoc": {
				"kind": "dev",
				"methods": {},
				"version": 1
			},
			"evm": {
				"assembly": "    /* \"contracts/workshop.sol\":26:1314  contract Workshop {... */\n  mstore(0x40, 0x80)\n    /* \"contracts/workshop.sol\":233:447  constructor(string memory _name, string memory _symbol, uint256 _totalSupply) {... */\n  callvalue\n  dup1\n  iszero\n  tag_1\n  jumpi\n  0x00\n  dup1\n  revert\ntag_1:\n  pop\n  mload(0x40)\n  sub(codesize, bytecodeSize)\n  dup1\n  bytecodeSize\n  dup4\n  codecopy\n  dup2\n  dup2\n  add\n  0x40\n  mstore\n  dup2\n  add\n  swap1\n  tag_2\n  swap2\n  swap1\n  tag_3\n  jump\t// in\ntag_2:\n    /* \"contracts/workshop.sol\":328:333  _name */\n  dup3\n    /* \"contracts/workshop.sol\":321:325  name */\n  0x02\n    /* \"contracts/workshop.sol\":321:333  name = _name */\n  swap1\n  dup2\n  tag_6\n  swap2\n  swap1\n  tag_7\n  jump\t// in\ntag_6:\n  pop\n    /* \"contracts/workshop.sol\":352:359  _symbol */\n  dup2\n    /* \"contracts/workshop.sol\":343:349  symbol */\n  0x03\n    /* \"contracts/workshop.sol\":343:359  symbol = _symbol */\n  swap1\n  dup2\n  tag_8\n  swap2\n  swap1\n  tag_7\n  jump\t// in\ntag_8:\n  pop\n    /* \"contracts/workshop.sol\":383:395  _totalSupply */\n  dup1\n    /* \"contracts/workshop.sol\":369:380  totalSupply */\n  0x04\n    /* \"contracts/workshop.sol\":369:395  totalSupply = _totalSupply */\n  dup2\n  swap1\n  sstore\n  pop\n    /* \"contracts/workshop.sol\":428:440  _totalSupply */\n  dup1\n    /* \"contracts/workshop.sol\":405:413  balances */\n  0x00\n    /* \"contracts/workshop.sol\":405:425  balances[msg.sender] */\n  dup1\n    /* \"contracts/workshop.sol\":414:424  msg.sender */\n  caller\n    /* \"contracts/workshop.sol\":405:425  balances[msg.sender] */\n  0xffffffffffffffffffffffffffffffffffffffff\n  and\n  0xffffffffffffffffffffffffffffffffffffffff\n  and\n  dup2\n  mstore\n  0x20\n  add\n  swap1\n  dup2\n  mstore\n  0x20\n  add\n  0x00\n  keccak256\n    /* \"contracts/workshop.sol\":405:440  balances[msg.sender] = _totalSupply */\n  dup2\n  swap1\n  sstore\n  pop\n    /* \"contracts/workshop.sol\":233:447  constructor(string memory _name, string memory _symbol, uint256 _totalSupply) {... */\n  pop\n  pop\n  pop\n    /* \"contracts/workshop.sol\":26:1314  contract Workshop {... */\n  jump(tag_9)\n    /* \"#utility.yul\":7:82   */\ntag_10:\n    /* \"#utility.yul\":40:46   */\n  0x00\n    /* \"#utility.yul\":73:75   */\n  0x40\n    /* \"#utility.yul\":67:76   */\n  mload\n    /* \"#utility.yul\":57:76   */\n  swap1\n  pop\n    /* \"#utility.yul\":7:82   */\n  swap1\n  jump\t// out\n    /* \"#utility.yul\":88:205   */\ntag_11:\n    /* \"#utility.yul\":197:198   */\n  0x00\n    /* \"#utility.yul\":194:195   */\n  dup1\n    /* \"#utility.yul\":187:199   */\n  revert\n    /* \"#utility.yul\":211:328   */\ntag_12:\n    /* \"#utility.yul\":320:321   */\n  0x00\n    /* \"#utility.yul\":317:318   */\n  dup1\n    /* \"#utility.yul\":310:322   */\n  revert\n    /* \"#utility.yul\":334:451   */\ntag_13:\n    /* \"#utility.yul\":443:444   */\n  0x00\n    /* \"#utility.yul\":440:441   */\n  dup1\n    /* \"#utility.yul\":433:445   */\n  revert\n    /* \"#utility.yul\":457:574   */\ntag_14:\n    /* \"#utility.yul\":566:567   */\n  0x00\n    /* \"#utility.yul\":563:564   */\n  dup1\n    /* \"#utility.yul\":556:568   */\n  revert\n    /* \"#utility.yul\":580:682   */\ntag_15:\n    /* \"#utility.yul\":621:627   */\n  0x00\n    /* \"#utility.yul\":672:674   */\n  0x1f\n    /* \"#utility.yul\":668:675   */\n  not\n    /* \"#utility.yul\":663:665   */\n  0x1f\n    /* \"#utility.yul\":656:661   */\n  dup4\n    /* \"#utility.yul\":652:666   */\n  add\n    /* \"#utility.yul\":648:676   */\n  and\n    /* \"#utility.yul\":638:676   */\n  swap1\n  pop\n    /* \"#utility.yul\":580:682   */\n  swap2\n  swap1\n  pop\n  jump\t// out\n    /* \"#utility.yul\":688:868   */\ntag_16:\n    /* \"#utility.yul\":736:813   */\n  0x4e487b7100000000000000000000000000000000000000000000000000000000\n    /* \"#utility.yul\":733:734   */\n  0x00\n    /* \"#utility.yul\":726:814   */\n  mstore\n    /* \"#utility.yul\":833:837   */\n  0x41\n    /* \"#utility.yul\":830:831   */\n  0x04\n    /* \"#utility.yul\":823:838   */\n  mstore\n    /* \"#utility.yul\":857:861   */\n  0x24\n    /* \"#utility.yul\":854:855   */\n  0x00\n    /* \"#utility.yul\":847:862   */\n  revert\n    /* \"#utility.yul\":874:1155   */\ntag_17:\n    /* \"#utility.yul\":957:984   */\n  tag_53\n    /* \"#utility.yul\":979:983   */\n  dup3\n    /* \"#utility.yul\":957:984   */\n  tag_15\n  jump\t// in\ntag_53:\n    /* \"#utility.yul\":949:955   */\n  dup2\n    /* \"#utility.yul\":945:985   */\n  add\n    /* \"#utility.yul\":1087:1093   */\n  dup2\n    /* \"#utility.yul\":1075:1085   */\n  dup2\n    /* \"#utility.yul\":1072:1094   */\n  lt\n    /* \"#utility.yul\":1051:1069   */\n  0xffffffffffffffff\n    /* \"#utility.yul\":1039:1049   */\n  dup3\n    /* \"#utility.yul\":1036:1070   */\n  gt\n    /* \"#utility.yul\":1033:1095   */\n  or\n    /* \"#utility.yul\":1030:1118   */\n  iszero\n  tag_54\n  jumpi\n    /* \"#utility.yul\":1098:1116   */\n  tag_55\n  tag_16\n  jump\t// in\ntag_55:\n    /* \"#utility.yul\":1030:1118   */\ntag_54:\n    /* \"#utility.yul\":1138:1148   */\n  dup1\n    /* \"#utility.yul\":1134:1136   */\n  0x40\n    /* \"#utility.yul\":1127:1149   */\n  mstore\n    /* \"#utility.yul\":917:1155   */\n  pop\n    /* \"#utility.yul\":874:1155   */\n  pop\n  pop\n  jump\t// out\n    /* \"#utility.yul\":1161:1290   */\ntag_18:\n    /* \"#utility.yul\":1195:1201   */\n  0x00\n    /* \"#utility.yul\":1222:1242   */\n  tag_57\n  tag_10\n  jump\t// in\ntag_57:\n    /* \"#utility.yul\":1212:1242   */\n  swap1\n  pop\n    /* \"#utility.yul\":1251:1284   */\n  tag_58\n    /* \"#utility.yul\":1279:1283   */\n  dup3\n    /* \"#utility.yul\":1271:1277   */\n  dup3\n    /* \"#utility.yul\":1251:1284   */\n  tag_17\n  jump\t// in\ntag_58:\n    /* \"#utility.yul\":1161:1290   */\n  swap2\n  swap1\n  pop\n  jump\t// out\n    /* \"#utility.yul\":1296:1604   */\ntag_19:\n    /* \"#utility.yul\":1358:1362   */\n  0x00\n    /* \"#utility.yul\":1448:1466   */\n  0xffffffffffffffff\n    /* \"#utility.yul\":1440:1446   */\n  dup3\n    /* \"#utility.yul\":1437:1467   */\n  gt\n    /* \"#utility.yul\":1434:1490   */\n  iszero\n  tag_60\n  jumpi\n    /* \"#utility.yul\":1470:1488   */\n  tag_61\n  tag_16\n  jump\t// in\ntag_61:\n    /* \"#utility.yul\":1434:1490   */\ntag_60:\n    /* \"#utility.yul\":1508:1537   */\n  tag_62\n    /* \"#utility.yul\":1530:1536   */\n  dup3\n    /* \"#utility.yul\":1508:1537   */\n  tag_15\n  jump\t// in\ntag_62:\n    /* \"#utility.yul\":1500:1537   */\n  swap1\n  pop\n    /* \"#utility.yul\":1592:1596   */\n  0x20\n    /* \"#utility.yul\":1586:1590   */\n  dup2\n    /* \"#utility.yul\":1582:1597   */\n  add\n    /* \"#utility.yul\":1574:1597   */\n  swap1\n  pop\n    /* \"#utility.yul\":1296:1604   */\n  swap2\n  swap1\n  pop\n  jump\t// out\n    /* \"#utility.yul\":1610:1917   */\ntag_20:\n    /* \"#utility.yul\":1678:1679   */\n  0x00\n    /* \"#utility.yul\":1688:1801   */\ntag_64:\n    /* \"#utility.yul\":1702:1708   */\n  dup4\n    /* \"#utility.yul\":1699:1700   */\n  dup2\n    /* \"#utility.yul\":1696:1709   */\n  lt\n    /* \"#utility.yul\":1688:1801   */\n  iszero\n  tag_66\n  jumpi\n    /* \"#utility.yul\":1787:1788   */\n  dup1\n    /* \"#utility.yul\":1782:1785   */\n  dup3\n    /* \"#utility.yul\":1778:1789   */\n  add\n    /* \"#utility.yul\":1772:1790   */\n  mload\n    /* \"#utility.yul\":1768:1769   */\n  dup2\n    /* \"#utility.yul\":1763:1766   */\n  dup5\n    /* \"#utility.yul\":1759:1770   */\n  add\n    /* \"#utility.yul\":1752:1791   */\n  mstore\n    /* \"#utility.yul\":1724:1726   */\n  0x20\n    /* \"#utility.yul\":1721:1722   */\n  dup2\n    /* \"#utility.yul\":1717:1727   */\n  add\n    /* \"#utility.yul\":1712:1727   */\n  swap1\n  pop\n    /* \"#utility.yul\":1688:1801   */\n  jump(tag_64)\ntag_66:\n    /* \"#utility.yul\":1819:1825   */\n  dup4\n    /* \"#utility.yul\":1816:1817   */\n  dup2\n    /* \"#utility.yul\":1813:1826   */\n  gt\n    /* \"#utility.yul\":1810:1911   */\n  iszero\n  tag_67\n  jumpi\n    /* \"#utility.yul\":1899:1900   */\n  0x00\n    /* \"#utility.yul\":1890:1896   */\n  dup5\n    /* \"#utility.yul\":1885:1888   */\n  dup5\n    /* \"#utility.yul\":1881:1897   */\n  add\n    /* \"#utility.yul\":1874:1901   */\n  mstore\n    /* \"#utility.yul\":1810:1911   */\ntag_67:\n    /* \"#utility.yul\":1659:1917   */\n  pop\n    /* \"#utility.yul\":1610:1917   */\n  pop\n  pop\n  pop\n  jump\t// out\n    /* \"#utility.yul\":1923:2344   */\ntag_21:\n    /* \"#utility.yul\":2012:2017   */\n  0x00\n    /* \"#utility.yul\":2037:2103   */\n  tag_69\n    /* \"#utility.yul\":2053:2102   */\n  tag_70\n    /* \"#utility.yul\":2095:2101   */\n  dup5\n    /* \"#utility.yul\":2053:2102   */\n  tag_19\n  jump\t// in\ntag_70:\n    /* \"#utility.yul\":2037:2103   */\n  tag_18\n  jump\t// in\ntag_69:\n    /* \"#utility.yul\":2028:2103   */\n  swap1\n  pop\n    /* \"#utility.yul\":2126:2132   */\n  dup3\n    /* \"#utility.yul\":2119:2124   */\n  dup2\n    /* \"#utility.yul\":2112:2133   */\n  mstore\n    /* \"#utility.yul\":2164:2168   */\n  0x20\n    /* \"#utility.yul\":2157:2162   */\n  dup2\n    /* \"#utility.yul\":2153:2169   */\n  add\n    /* \"#utility.yul\":2202:2205   */\n  dup5\n    /* \"#utility.yul\":2193:2199   */\n  dup5\n    /* \"#utility.yul\":2188:2191   */\n  dup5\n    /* \"#utility.yul\":2184:2200   */\n  add\n    /* \"#utility.yul\":2181:2206   */\n  gt\n    /* \"#utility.yul\":2178:2290   */\n  iszero\n  tag_71\n  jumpi\n    /* \"#utility.yul\":2209:2288   */\n  tag_72\n  tag_14\n  jump\t// in\ntag_72:\n    /* \"#utility.yul\":2178:2290   */\ntag_71:\n    /* \"#utility.yul\":2299:2338   */\n  tag_73\n    /* \"#utility.yul\":2331:2337   */\n  dup5\n    /* \"#utility.yul\":2326:2329   */\n  dup3\n    /* \"#utility.yul\":2321:2324   */\n  dup6\n    /* \"#utility.yul\":2299:2338   */\n  tag_20\n  jump\t// in\ntag_73:\n    /* \"#utility.yul\":2018:2344   */\n  pop\n    /* \"#utility.yul\":1923:2344   */\n  swap4\n  swap3\n  pop\n  pop\n  pop\n  jump\t// out\n    /* \"#utility.yul\":2364:2719   */\ntag_22:\n    /* \"#utility.yul\":2431:2436   */\n  0x00\n    /* \"#utility.yul\":2480:2483   */\n  dup3\n    /* \"#utility.yul\":2473:2477   */\n  0x1f\n    /* \"#utility.yul\":2465:2471   */\n  dup4\n    /* \"#utility.yul\":2461:2478   */\n  add\n    /* \"#utility.yul\":2457:2484   */\n  slt\n    /* \"#utility.yul\":2447:2569   */\n  tag_75\n  jumpi\n    /* \"#utility.yul\":2488:2567   */\n  tag_76\n  tag_13\n  jump\t// in\ntag_76:\n    /* \"#utility.yul\":2447:2569   */\ntag_75:\n    /* \"#utility.yul\":2598:2604   */\n  dup2\n    /* \"#utility.yul\":2592:2605   */\n  mload\n    /* \"#utility.yul\":2623:2713   */\n  tag_77\n    /* \"#utility.yul\":2709:2712   */\n  dup5\n    /* \"#utility.yul\":2701:2707   */\n  dup3\n    /* \"#utility.yul\":2694:2698   */\n  0x20\n    /* \"#utility.yul\":2686:2692   */\n  dup7\n    /* \"#utility.yul\":2682:2699   */\n  add\n    /* \"#utility.yul\":2623:2713   */\n  tag_21\n  jump\t// in\ntag_77:\n    /* \"#utility.yul\":2614:2713   */\n  swap2\n  pop\n    /* \"#utility.yul\":2437:2719   */\n  pop\n    /* \"#utility.yul\":2364:2719   */\n  swap3\n  swap2\n  pop\n  pop\n  jump\t// out\n    /* \"#utility.yul\":2725:2802   */\ntag_23:\n    /* \"#utility.yul\":2762:2769   */\n  0x00\n    /* \"#utility.yul\":2791:2796   */\n  dup2\n    /* \"#utility.yul\":2780:2796   */\n  swap1\n  pop\n    /* \"#utility.yul\":2725:2802   */\n  swap2\n  swap1\n  pop\n  jump\t// out\n    /* \"#utility.yul\":2808:2930   */\ntag_24:\n    /* \"#utility.yul\":2881:2905   */\n  tag_80\n    /* \"#utility.yul\":2899:2904   */\n  dup2\n    /* \"#utility.yul\":2881:2905   */\n  tag_23\n  jump\t// in\ntag_80:\n    /* \"#utility.yul\":2874:2879   */\n  dup2\n    /* \"#utility.yul\":2871:2906   */\n  eq\n    /* \"#utility.yul\":2861:2924   */\n  tag_81\n  jumpi\n    /* \"#utility.yul\":2920:2921   */\n  0x00\n    /* \"#utility.yul\":2917:2918   */\n  dup1\n    /* \"#utility.yul\":2910:2922   */\n  revert\n    /* \"#utility.yul\":2861:2924   */\ntag_81:\n    /* \"#utility.yul\":2808:2930   */\n  pop\n  jump\t// out\n    /* \"#utility.yul\":2936:3079   */\ntag_25:\n    /* \"#utility.yul\":2993:2998   */\n  0x00\n    /* \"#utility.yul\":3024:3030   */\n  dup2\n    /* \"#utility.yul\":3018:3031   */\n  mload\n    /* \"#utility.yul\":3009:3031   */\n  swap1\n  pop\n    /* \"#utility.yul\":3040:3073   */\n  tag_83\n    /* \"#utility.yul\":3067:3072   */\n  dup2\n    /* \"#utility.yul\":3040:3073   */\n  tag_24\n  jump\t// in\ntag_83:\n    /* \"#utility.yul\":2936:3079   */\n  swap3\n  swap2\n  pop\n  pop\n  jump\t// out\n    /* \"#utility.yul\":3085:4094   */\ntag_3:\n    /* \"#utility.yul\":3193:3199   */\n  0x00\n    /* \"#utility.yul\":3201:3207   */\n  dup1\n    /* \"#utility.yul\":3209:3215   */\n  0x00\n    /* \"#utility.yul\":3258:3260   */\n  0x60\n    /* \"#utility.yul\":3246:3255   */\n  dup5\n    /* \"#utility.yul\":3237:3244   */\n  dup7\n    /* \"#utility.yul\":3233:3256   */\n  sub\n    /* \"#utility.yul\":3229:3261   */\n  slt\n    /* \"#utility.yul\":3226:3345   */\n  iszero\n  tag_85\n  jumpi\n    /* \"#utility.yul\":3264:3343   */\n  tag_86\n  tag_11\n  jump\t// in\ntag_86:\n    /* \"#utility.yul\":3226:3345   */\ntag_85:\n    /* \"#utility.yul\":3405:3406   */\n  0x00\n    /* \"#utility.yul\":3394:3403   */\n  dup5\n    /* \"#utility.yul\":3390:3407   */\n  add\n    /* \"#utility.yul\":3384:3408   */\n  mload\n    /* \"#utility.yul\":3435:3453   */\n  0xffffffffffffffff\n    /* \"#utility.yul\":3427:3433   */\n  dup2\n    /* \"#utility.yul\":3424:3454   */\n  gt\n    /* \"#utility.yul\":3421:3538   */\n  iszero\n  tag_87\n  jumpi\n    /* \"#utility.yul\":3457:3536   */\n  tag_88\n  tag_12\n  jump\t// in\ntag_88:\n    /* \"#utility.yul\":3421:3538   */\ntag_87:\n    /* \"#utility.yul\":3562:3636   */\n  tag_89\n    /* \"#utility.yul\":3628:3635   */\n  dup7\n    /* \"#utility.yul\":3619:3625   */\n  dup3\n    /* \"#utility.yul\":3608:3617   */\n  dup8\n    /* \"#utility.yul\":3604:3626   */\n  add\n    /* \"#utility.yul\":3562:3636   */\n  tag_22\n  jump\t// in\ntag_89:\n    /* \"#utility.yul\":3552:3636   */\n  swap4\n  pop\n    /* \"#utility.yul\":3355:3646   */\n  pop\n    /* \"#utility.yul\":3706:3708   */\n  0x20\n    /* \"#utility.yul\":3695:3704   */\n  dup5\n    /* \"#utility.yul\":3691:3709   */\n  add\n    /* \"#utility.yul\":3685:3710   */\n  mload\n    /* \"#utility.yul\":3737:3755   */\n  0xffffffffffffffff\n    /* \"#utility.yul\":3729:3735   */\n  dup2\n    /* \"#utility.yul\":3726:3756   */\n  gt\n    /* \"#utility.yul\":3723:3840   */\n  iszero\n  tag_90\n  jumpi\n    /* \"#utility.yul\":3759:3838   */\n  tag_91\n  tag_12\n  jump\t// in\ntag_91:\n    /* \"#utility.yul\":3723:3840   */\ntag_90:\n    /* \"#utility.yul\":3864:3938   */\n  tag_92\n    /* \"#utility.yul\":3930:3937   */\n  dup7\n    /* \"#utility.yul\":3921:3927   */\n  dup3\n    /* \"#utility.yul\":3910:3919   */\n  dup8\n    /* \"#utility.yul\":3906:3928   */\n  add\n    /* \"#utility.yul\":3864:3938   */\n  tag_22\n  jump\t// in\ntag_92:\n    /* \"#utility.yul\":3854:3938   */\n  swap3\n  pop\n    /* \"#utility.yul\":3656:3948   */\n  pop\n    /* \"#utility.yul\":3987:3989   */\n  0x40\n    /* \"#utility.yul\":4013:4077   */\n  tag_93\n    /* \"#utility.yul\":4069:4076   */\n  dup7\n    /* \"#utility.yul\":4060:4066   */\n  dup3\n    /* \"#utility.yul\":4049:4058   */\n  dup8\n    /* \"#utility.yul\":4045:4067   */\n  add\n    /* \"#utility.yul\":4013:4077   */\n  tag_25\n  jump\t// in\ntag_93:\n    /* \"#utility.yul\":4003:4077   */\n  swap2\n  pop\n    /* \"#utility.yul\":3958:4087   */\n  pop\n    /* \"#utility.yul\":3085:4094   */\n  swap3\n  pop\n  swap3\n  pop\n  swap3\n  jump\t// out\n    /* \"#utility.yul\":4100:4199   */\ntag_26:\n    /* \"#utility.yul\":4152:4158   */\n  0x00\n    /* \"#utility.yul\":4186:4191   */\n  dup2\n    /* \"#utility.yul\":4180:4192   */\n  mload\n    /* \"#utility.yul\":4170:4192   */\n  swap1\n  pop\n    /* \"#utility.yul\":4100:4199   */\n  swap2\n  swap1\n  pop\n  jump\t// out\n    /* \"#utility.yul\":4205:4385   */\ntag_27:\n    /* \"#utility.yul\":4253:4330   */\n  0x4e487b7100000000000000000000000000000000000000000000000000000000\n    /* \"#utility.yul\":4250:4251   */\n  0x00\n    /* \"#utility.yul\":4243:4331   */\n  mstore\n    /* \"#utility.yul\":4350:4354   */\n  0x22\n    /* \"#utility.yul\":4347:4348   */\n  0x04\n    /* \"#utility.yul\":4340:4355   */\n  mstore\n    /* \"#utility.yul\":4374:4378   */\n  0x24\n    /* \"#utility.yul\":4371:4372   */\n  0x00\n    /* \"#utility.yul\":4364:4379   */\n  revert\n    /* \"#utility.yul\":4391:4711   */\ntag_28:\n    /* \"#utility.yul\":4435:4441   */\n  0x00\n    /* \"#utility.yul\":4472:4473   */\n  0x02\n    /* \"#utility.yul\":4466:4470   */\n  dup3\n    /* \"#utility.yul\":4462:4474   */\n  div\n    /* \"#utility.yul\":4452:4474   */\n  swap1\n  pop\n    /* \"#utility.yul\":4519:4520   */\n  0x01\n    /* \"#utility.yul\":4513:4517   */\n  dup3\n    /* \"#utility.yul\":4509:4521   */\n  and\n    /* \"#utility.yul\":4540:4558   */\n  dup1\n    /* \"#utility.yul\":4530:4611   */\n  tag_97\n  jumpi\n    /* \"#utility.yul\":4596:4600   */\n  0x7f\n    /* \"#utility.yul\":4588:4594   */\n  dup3\n    /* \"#utility.yul\":4584:4601   */\n  and\n    /* \"#utility.yul\":4574:4601   */\n  swap2\n  pop\n    /* \"#utility.yul\":4530:4611   */\ntag_97:\n    /* \"#utility.yul\":4658:4660   */\n  0x20\n    /* \"#utility.yul\":4650:4656   */\n  dup3\n    /* \"#utility.yul\":4647:4661   */\n  lt\n    /* \"#utility.yul\":4627:4645   */\n  dup2\n    /* \"#utility.yul\":4624:4662   */\n  sub\n    /* \"#utility.yul\":4621:4705   */\n  tag_98\n  jumpi\n    /* \"#utility.yul\":4677:4695   */\n  tag_99\n  tag_27\n  jump\t// in\ntag_99:\n    /* \"#utility.yul\":4621:4705   */\ntag_98:\n    /* \"#utility.yul\":4442:4711   */\n  pop\n    /* \"#utility.yul\":4391:4711   */\n  swap2\n  swap1\n  pop\n  jump\t// out\n    /* \"#utility.yul\":4717:4858   */\ntag_29:\n    /* \"#utility.yul\":4766:4770   */\n  0x00\n    /* \"#utility.yul\":4789:4792   */\n  dup2\n    /* \"#utility.yul\":4781:4792   */\n  swap1\n  pop\n    /* \"#utility.yul\":4812:4815   */\n  dup2\n    /* \"#utility.yul\":4809:4810   */\n  0x00\n    /* \"#utility.yul\":4802:4816   */\n  mstore\n    /* \"#utility.yul\":4846:4850   */\n  0x20\n    /* \"#utility.yul\":4843:4844   */\n  0x00\n    /* \"#utility.yul\":4833:4851   */\n  keccak256\n    /* \"#utility.yul\":4825:4851   */\n  swap1\n  pop\n    /* \"#utility.yul\":4717:4858   */\n  swap2\n  swap1\n  pop\n  jump\t// out\n    /* \"#utility.yul\":4864:4957   */\ntag_30:\n    /* \"#utility.yul\":4901:4907   */\n  0x00\n    /* \"#utility.yul\":4948:4950   */\n  0x20\n    /* \"#utility.yul\":4943:4945   */\n  0x1f\n    /* \"#utility.yul\":4936:4941   */\n  dup4\n    /* \"#utility.yul\":4932:4946   */\n  add\n    /* \"#utility.yul\":4928:4951   */\n  div\n    /* \"#utility.yul\":4918:4951   */\n  swap1\n  pop\n    /* \"#utility.yul\":4864:4957   */\n  swap2\n  swap1\n  pop\n  jump\t// out\n    /* \"#utility.yul\":4963:5070   */\ntag_31:\n    /* \"#utility.yul\":5007:5015   */\n  0x00\n    /* \"#utility.yul\":5057:5062   */\n  dup3\n    /* \"#utility.yul\":5051:5055   */\n  dup3\n    /* \"#utility.yul\":5047:5063   */\n  shl\n    /* \"#utility.yul\":5026:5063   */\n  swap1\n  pop\n    /* \"#utility.yul\":4963:5070   */\n  swap3\n  swap2\n  pop\n  pop\n  jump\t// out\n    /* \"#utility.yul\":5076:5469   */\ntag_32:\n    /* \"#utility.yul\":5145:5151   */\n  0x00\n    /* \"#utility.yul\":5195:5196   */\n  0x08\n    /* \"#utility.yul\":5183:5193   */\n  dup4\n    /* \"#utility.yul\":5179:5197   */\n  mul\n    /* \"#utility.yul\":5218:5315   */\n  tag_104\n    /* \"#utility.yul\":5248:5314   */\n  0xffffffffffffffffffffffffffffffffffffffffffffffffffffffffffffffff\n    /* \"#utility.yul\":5237:5246   */\n  dup3\n    /* \"#utility.yul\":5218:5315   */\n  tag_31\n  jump\t// in\ntag_104:\n    /* \"#utility.yul\":5336:5375   */\n  tag_105\n    /* \"#utility.yul\":5366:5374   */\n  dup7\n    /* \"#utility.yul\":5355:5364   */\n  dup4\n    /* \"#utility.yul\":5336:5375   */\n  tag_31\n  jump\t// in\ntag_105:\n    /* \"#utility.yul\":5324:5375   */\n  swap6\n  pop\n    /* \"#utility.yul\":5408:5412   */\n  dup1\n    /* \"#utility.yul\":5404:5413   */\n  not\n    /* \"#utility.yul\":5397:5402   */\n  dup5\n    /* \"#utility.yul\":5393:5414   */\n  and\n    /* \"#utility.yul\":5384:5414   */\n  swap4\n  pop\n    /* \"#utility.yul\":5457:5461   */\n  dup1\n    /* \"#utility.yul\":5447:5455   */\n  dup7\n    /* \"#utility.yul\":5443:5462   */\n  and\n    /* \"#utility.yul\":5436:5441   */\n  dup5\n    /* \"#utility.yul\":5433:5463   */\n  or\n    /* \"#utility.yul\":5423:5463   */\n  swap3\n  pop\n    /* \"#utility.yul\":5152:5469   */\n  pop\n  pop\n    /* \"#utility.yul\":5076:5469   */\n  swap4\n  swap3\n  pop\n  pop\n  pop\n  jump\t// out\n    /* \"#utility.yul\":5475:5535   */\ntag_33:\n    /* \"#utility.yul\":5503:5506   */\n  0x00\n    /* \"#utility.yul\":5524:5529   */\n  dup2\n    /* \"#utility.yul\":5517:5529   */\n  swap1\n  pop\n    /* \"#utility.yul\":5475:5535   */\n  swap2\n  swap1\n  pop\n  jump\t// out\n    /* \"#utility.yul\":5541:5683   */\ntag_34:\n    /* \"#utility.yul\":5591:5600   */\n  0x00\n    /* \"#utility.yul\":5624:5677   */\n  tag_108\n    /* \"#utility.yul\":5642:5676   */\n  tag_109\n    /* \"#utility.yul\":5651:5675   */\n  tag_110\n    /* \"#utility.yul\":5669:5674   */\n  dup5\n    /* \"#utility.yul\":5651:5675   */\n  tag_23\n  jump\t// in\ntag_110:\n    /* \"#utility.yul\":5642:5676   */\n  tag_33\n  jump\t// in\ntag_109:\n    /* \"#utility.yul\":5624:5677   */\n  tag_23\n  jump\t// in\ntag_108:\n    /* \"#utility.yul\":5611:5677   */\n  swap1\n  pop\n    /* \"#utility.yul\":5541:5683   */\n  swap2\n  swap1\n  pop\n  jump\t// out\n    /* \"#utility.yul\":5689:5764   */\ntag_35:\n    /* \"#utility.yul\":5732:5735   */\n  0x00\n    /* \"#utility.yul\":5753:5758   */\n  dup2\n    /* \"#utility.yul\":5746:5758   */\n  swap1\n  pop\n    /* \"#utility.yul\":5689:5764   */\n  swap2\n  swap1\n  pop\n  jump\t// out\n    /* \"#utility.yul\":5770:6039   */\ntag_36:\n    /* \"#utility.yul\":5880:5919   */\n  tag_113\n    /* \"#utility.yul\":5911:5918   */\n  dup4\n    /* \"#utility.yul\":5880:5919   */\n  tag_34\n  jump\t// in\ntag_113:\n    /* \"#utility.yul\":5941:6032   */\n  tag_114\n    /* \"#utility.yul\":5990:6031   */\n  tag_115\n    /* \"#utility.yul\":6014:6030   */\n  dup3\n    /* \"#utility.yul\":5990:6031   */\n  tag_35\n  jump\t// in\ntag_115:\n    /* \"#utility.yul\":5982:5988   */\n  dup5\n    /* \"#utility.yul\":5975:5979   */\n  dup5\n    /* \"#utility.yul\":5969:5980   */\n  sload\n    /* \"#utility.yul\":5941:6032   */\n  tag_32\n  jump\t// in\ntag_114:\n    /* \"#utility.yul\":5935:5939   */\n  dup3\n    /* \"#utility.yul\":5928:6033   */\n  sstore\n    /* \"#utility.yul\":5846:6039   */\n  pop\n    /* \"#utility.yul\":5770:6039   */\n  pop\n  pop\n  pop\n  jump\t// out\n    /* \"#utility.yul\":6045:6118   */\ntag_37:\n    /* \"#utility.yul\":6090:6093   */\n  0x00\n    /* \"#utility.yul\":6045:6118   */\n  swap1\n  jump\t// out\n    /* \"#utility.yul\":6124:6313   */\ntag_38:\n    /* \"#utility.yul\":6201:6233   */\n  tag_118\n  tag_37\n  jump\t// in\ntag_118:\n    /* \"#utility.yul\":6242:6307   */\n  tag_119\n    /* \"#utility.yul\":6300:6306   */\n  dup2\n    /* \"#utility.yul\":6292:6298   */\n  dup5\n    /* \"#utility.yul\":6286:6290   */\n  dup5\n    /* \"#utility.yul\":6242:6307   */\n  tag_36\n  jump\t// in\ntag_119:\n    /* \"#utility.yul\":6177:6313   */\n  pop\n    /* \"#utility.yul\":6124:6313   */\n  pop\n  pop\n  jump\t// out\n    /* \"#utility.yul\":6319:6505   */\ntag_39:\n    /* \"#utility.yul\":6379:6499   */\ntag_121:\n    /* \"#utility.yul\":6396:6399   */\n  dup2\n    /* \"#utility.yul\":6389:6394   */\n  dup2\n    /* \"#utility.yul\":6386:6400   */\n  lt\n    /* \"#utility.yul\":6379:6499   */\n  iszero\n  tag_123\n  jumpi\n    /* \"#utility.yul\":6450:6489   */\n  tag_124\n    /* \"#utility.yul\":6487:6488   */\n  0x00\n    /* \"#utility.yul\":6480:6485   */\n  dup3\n    /* \"#utility.yul\":6450:6489   */\n  tag_38\n  jump\t// in\ntag_124:\n    /* \"#utility.yul\":6423:6424   */\n  0x01\n    /* \"#utility.yul\":6416:6421   */\n  dup2\n    /* \"#utility.yul\":6412:6425   */\n  add\n    /* \"#utility.yul\":6403:6425   */\n  swap1\n  pop\n    /* \"#utility.yul\":6379:6499   */\n  jump(tag_121)\ntag_123:\n    /* \"#utility.yul\":6319:6505   */\n  pop\n  pop\n  jump\t// out\n    /* \"#utility.yul\":6511:7054   */\ntag_40:\n    /* \"#utility.yul\":6612:6614   */\n  0x1f\n    /* \"#utility.yul\":6607:6610   */\n  dup3\n    /* \"#utility.yul\":6604:6615   */\n  gt\n    /* \"#utility.yul\":6601:7047   */\n  iszero\n  tag_126\n  jumpi\n    /* \"#utility.yul\":6646:6684   */\n  tag_127\n    /* \"#utility.yul\":6678:6683   */\n  dup2\n    /* \"#utility.yul\":6646:6684   */\n  tag_29\n  jump\t// in\ntag_127:\n    /* \"#utility.yul\":6730:6759   */\n  tag_128\n    /* \"#utility.yul\":6748:6758   */\n  dup5\n    /* \"#utility.yul\":6730:6759   */\n  tag_30\n  jump\t// in\ntag_128:\n    /* \"#utility.yul\":6720:6728   */\n  dup2\n    /* \"#utility.yul\":6716:6760   */\n  add\n    /* \"#utility.yul\":6913:6915   */\n  0x20\n    /* \"#utility.yul\":6901:6911   */\n  dup6\n    /* \"#utility.yul\":6898:6916   */\n  lt\n    /* \"#utility.yul\":6895:6944   */\n  iszero\n  tag_129\n  jumpi\n    /* \"#utility.yul\":6934:6942   */\n  dup2\n    /* \"#utility.yul\":6919:6942   */\n  swap1\n  pop\n    /* \"#utility.yul\":6895:6944   */\ntag_129:\n    /* \"#utility.yul\":6957:7037   */\n  tag_130\n    /* \"#utility.yul\":7013:7035   */\n  tag_131\n    /* \"#utility.yul\":7031:7034   */\n  dup6\n    /* \"#utility.yul\":7013:7035   */\n  tag_30\n  jump\t// in\ntag_131:\n    /* \"#utility.yul\":7003:7011   */\n  dup4\n    /* \"#utility.yul\":6999:7036   */\n  add\n    /* \"#utility.yul\":6986:6997   */\n  dup3\n    /* \"#utility.yul\":6957:7037   */\n  tag_39\n  jump\t// in\ntag_130:\n    /* \"#utility.yul\":6616:7047   */\n  pop\n  pop\n    /* \"#utility.yul\":6601:7047   */\ntag_126:\n    /* \"#utility.yul\":6511:7054   */\n  pop\n  pop\n  pop\n  jump\t// out\n    /* \"#utility.yul\":7060:7177   */\ntag_41:\n    /* \"#utility.yul\":7114:7122   */\n  0x00\n    /* \"#utility.yul\":7164:7169   */\n  dup3\n    /* \"#utility.yul\":7158:7162   */\n  dup3\n    /* \"#utility.yul\":7154:7170   */\n  shr\n    /* \"#utility.yul\":7133:7170   */\n  swap1\n  pop\n    /* \"#utility.yul\":7060:7177   */\n  swap3\n  swap2\n  pop\n  pop\n  jump\t// out\n    /* \"#utility.yul\":7183:7352   */\ntag_42:\n    /* \"#utility.yul\":7227:7233   */\n  0x00\n    /* \"#utility.yul\":7260:7311   */\n  tag_134\n    /* \"#utility.yul\":7308:7309   */\n  0x00\n    /* \"#utility.yul\":7304:7310   */\n  not\n    /* \"#utility.yul\":7296:7301   */\n  dup5\n    /* \"#utility.yul\":7293:7294   */\n  0x08\n    /* \"#utility.yul\":7289:7302   */\n  mul\n    /* \"#utility.yul\":7260:7311   */\n  tag_41\n  jump\t// in\ntag_134:\n    /* \"#utility.yul\":7256:7312   */\n  not\n    /* \"#utility.yul\":7341:7345   */\n  dup1\n    /* \"#utility.yul\":7335:7339   */\n  dup4\n    /* \"#utility.yul\":7331:7346   */\n  and\n    /* \"#utility.yul\":7321:7346   */\n  swap2\n  pop\n    /* \"#utility.yul\":7234:7352   */\n  pop\n    /* \"#utility.yul\":7183:7352   */\n  swap3\n  swap2\n  pop\n  pop\n  jump\t// out\n    /* \"#utility.yul\":7357:7652   */\ntag_43:\n    /* \"#utility.yul\":7433:7437   */\n  0x00\n    /* \"#utility.yul\":7579:7608   */\n  tag_136\n    /* \"#utility.yul\":7604:7607   */\n  dup4\n    /* \"#utility.yul\":7598:7602   */\n  dup4\n    /* \"#utility.yul\":7579:7608   */\n  tag_42\n  jump\t// in\ntag_136:\n    /* \"#utility.yul\":7571:7608   */\n  swap2\n  pop\n    /* \"#utility.yul\":7641:7644   */\n  dup3\n    /* \"#utility.yul\":7638:7639   */\n  0x02\n    /* \"#utility.yul\":7634:7645   */\n  mul\n    /* \"#utility.yul\":7628:7632   */\n  dup3\n    /* \"#utility.yul\":7625:7646   */\n  or\n    /* \"#utility.yul\":7617:7646   */\n  swap1\n  pop\n    /* \"#utility.yul\":7357:7652   */\n  swap3\n  swap2\n  pop\n  pop\n  jump\t// out\n    /* \"#utility.yul\":7657:9052   */\ntag_7:\n    /* \"#utility.yul\":7774:7811   */\n  tag_138\n    /* \"#utility.yul\":7807:7810   */\n  dup3\n    /* \"#utility.yul\":7774:7811   */\n  tag_26\n  jump\t// in\ntag_138:\n    /* \"#utility.yul\":7876:7894   */\n  0xffffffffffffffff\n    /* \"#utility.yul\":7868:7874   */\n  dup2\n    /* \"#utility.yul\":7865:7895   */\n  gt\n    /* \"#utility.yul\":7862:7918   */\n  iszero\n  tag_139\n  jumpi\n    /* \"#utility.yul\":7898:7916   */\n  tag_140\n  tag_16\n  jump\t// in\ntag_140:\n    /* \"#utility.yul\":7862:7918   */\ntag_139:\n    /* \"#utility.yul\":7942:7980   */\n  tag_141\n    /* \"#utility.yul\":7974:7978   */\n  dup3\n    /* \"#utility.yul\":7968:7979   */\n  sload\n    /* \"#utility.yul\":7942:7980   */\n  tag_28\n  jump\t// in\ntag_141:\n    /* \"#utility.yul\":8027:8094   */\n  tag_142\n    /* \"#utility.yul\":8087:8093   */\n  dup3\n    /* \"#utility.yul\":8079:8085   */\n  dup3\n    /* \"#utility.yul\":8073:8077   */\n  dup6\n    /* \"#utility.yul\":8027:8094   */\n  tag_40\n  jump\t// in\ntag_142:\n    /* \"#utility.yul\":8121:8122   */\n  0x00\n    /* \"#utility.yul\":8145:8149   */\n  0x20\n    /* \"#utility.yul\":8132:8149   */\n  swap1\n  pop\n    /* \"#utility.yul\":8177:8179   */\n  0x1f\n    /* \"#utility.yul\":8169:8175   */\n  dup4\n    /* \"#utility.yul\":8166:8180   */\n  gt\n    /* \"#utility.yul\":8194:8195   */\n  0x01\n    /* \"#utility.yul\":8189:8807   */\n  dup2\n  eq\n  tag_144\n  jumpi\n    /* \"#utility.yul\":8851:8852   */\n  0x00\n    /* \"#utility.yul\":8868:8874   */\n  dup5\n    /* \"#utility.yul\":8865:8942   */\n  iszero\n  tag_145\n  jumpi\n    /* \"#utility.yul\":8917:8926   */\n  dup3\n    /* \"#utility.yul\":8912:8915   */\n  dup8\n    /* \"#utility.yul\":8908:8927   */\n  add\n    /* \"#utility.yul\":8902:8928   */\n  mload\n    /* \"#utility.yul\":8893:8928   */\n  swap1\n  pop\n    /* \"#utility.yul\":8865:8942   */\ntag_145:\n    /* \"#utility.yul\":8968:9035   */\n  tag_146\n    /* \"#utility.yul\":9028:9034   */\n  dup6\n    /* \"#utility.yul\":9021:9026   */\n  dup3\n    /* \"#utility.yul\":8968:9035   */\n  tag_43\n  jump\t// in\ntag_146:\n    /* \"#utility.yul\":8962:8966   */\n  dup7\n    /* \"#utility.yul\":8955:9036   */\n  sstore\n    /* \"#utility.yul\":8824:9046   */\n  pop\n    /* \"#utility.yul\":8159:9046   */\n  jump(tag_143)\n    /* \"#utility.yul\":8189:8807   */\ntag_144:\n    /* \"#utility.yul\":8241:8245   */\n  0x1f\n    /* \"#utility.yul\":8237:8246   */\n  not\n    /* \"#utility.yul\":8229:8235   */\n  dup5\n    /* \"#utility.yul\":8225:8247   */\n  and\n    /* \"#utility.yul\":8275:8312   */\n  tag_147\n    /* \"#utility.yul\":8307:8311   */\n  dup7\n    /* \"#utility.yul\":8275:8312   */\n  tag_29\n  jump\t// in\ntag_147:\n    /* \"#utility.yul\":8334:8335   */\n  0x00\n    /* \"#utility.yul\":8348:8556   */\ntag_148:\n    /* \"#utility.yul\":8362:8369   */\n  dup3\n    /* \"#utility.yul\":8359:8360   */\n  dup2\n    /* \"#utility.yul\":8356:8370   */\n  lt\n    /* \"#utility.yul\":8348:8556   */\n  iszero\n  tag_150\n  jumpi\n    /* \"#utility.yul\":8441:8450   */\n  dup5\n    /* \"#utility.yul\":8436:8439   */\n  dup10\n    /* \"#utility.yul\":8432:8451   */\n  add\n    /* \"#utility.yul\":8426:8452   */\n  mload\n    /* \"#utility.yul\":8418:8424   */\n  dup3\n    /* \"#utility.yul\":8411:8453   */\n  sstore\n    /* \"#utility.yul\":8492:8493   */\n  0x01\n    /* \"#utility.yul\":8484:8490   */\n  dup3\n    /* \"#utility.yul\":8480:8494   */\n  add\n    /* \"#utility.yul\":8470:8494   */\n  swap2\n  pop\n    /* \"#utility.yul\":8539:8541   */\n  0x20\n    /* \"#utility.yul\":8528:8537   */\n  dup6\n    /* \"#utility.yul\":8524:8542   */\n  add\n    /* \"#utility.yul\":8511:8542   */\n  swap5\n  pop\n    /* \"#utility.yul\":8385:8389   */\n  0x20\n    /* \"#utility.yul\":8382:8383   */\n  dup2\n    /* \"#utility.yul\":8378:8390   */\n  add\n    /* \"#utility.yul\":8373:8390   */\n  swap1\n  pop\n    /* \"#utility.yul\":8348:8556   */\n  jump(tag_148)\ntag_150:\n    /* \"#utility.yul\":8584:8590   */\n  dup7\n    /* \"#utility.yul\":8575:8582   */\n  dup4\n    /* \"#utility.yul\":8572:8591   */\n  lt\n    /* \"#utility.yul\":8569:8748   */\n  iszero\n  tag_151\n  jumpi\n    /* \"#utility.yul\":8642:8651   */\n  dup5\n    /* \"#utility.yul\":8637:8640   */\n  dup10\n    /* \"#utility.yul\":8633:8652   */\n  add\n    /* \"#utility.yul\":8627:8653   */\n  mload\n    /* \"#utility.yul\":8685:8733   */\n  tag_152\n    /* \"#utility.yul\":8727:8731   */\n  0x1f\n    /* \"#utility.yul\":8719:8725   */\n  dup10\n    /* \"#utility.yul\":8715:8732   */\n  and\n    /* \"#utility.yul\":8704:8713   */\n  dup3\n    /* \"#utility.yul\":8685:8733   */\n  tag_42\n  jump\t// in\ntag_152:\n    /* \"#utility.yul\":8677:8683   */\n  dup4\n    /* \"#utility.yul\":8670:8734   */\n  sstore\n    /* \"#utility.yul\":8592:8748   */\n  pop\n    /* \"#utility.yul\":8569:8748   */\ntag_151:\n    /* \"#utility.yul\":8794:8795   */\n  0x01\n    /* \"#utility.yul\":8790:8791   */\n  0x02\n    /* \"#utility.yul\":8782:8788   */\n  dup9\n    /* \"#utility.yul\":8778:8792   */\n  mul\n    /* \"#utility.yul\":8774:8796   */\n  add\n    /* \"#utility.yul\":8768:8772   */\n  dup9\n    /* \"#utility.yul\":8761:8797   */\n  sstore\n    /* \"#utility.yul\":8196:8807   */\n  pop\n  pop\n  pop\n    /* \"#utility.yul\":8159:9046   */\ntag_143:\n  pop\n    /* \"#utility.yul\":7749:9052   */\n  pop\n  pop\n  pop\n    /* \"#utility.yul\":7657:9052   */\n  pop\n  pop\n  jump\t// out\n    /* \"contracts/workshop.sol\":26:1314  contract Workshop {... */\ntag_9:\n  dataSize(sub_0)\n  dup1\n  dataOffset(sub_0)\n  0x00\n  codecopy\n  0x00\n  return\nstop\n\nsub_0: assembly {\n        /* \"contracts/workshop.sol\":26:1314  contract Workshop {... */\n      mstore(0x40, 0x80)\n      callvalue\n      dup1\n      iszero\n      tag_1\n      jumpi\n      0x00\n      dup1\n      revert\n    tag_1:\n      pop\n      jumpi(tag_2, lt(calldatasize, 0x04))\n      shr(0xe0, calldataload(0x00))\n      dup1\n      0x0bdfeca5\n      eq\n      tag_3\n      jumpi\n      dup1\n      0x15070401\n      eq\n      tag_4\n      jumpi\n      dup1\n      0x17d7de7c\n      eq\n      tag_5\n      jumpi\n      dup1\n      0x70a08231\n      eq\n      tag_6\n      jumpi\n      dup1\n      0xa9059cbb\n      eq\n      tag_7\n      jumpi\n      dup1\n      0xc4e41b22\n      eq\n      tag_8\n      jumpi\n    tag_2:\n      0x00\n      dup1\n      revert\n        /* \"contracts/workshop.sol\":1212:1312  function setMyWalletName(string memory _name) public {... */\n    tag_3:\n      tag_9\n      0x04\n      dup1\n      calldatasize\n      sub\n      dup2\n      add\n      swap1\n      tag_10\n      swap2\n      swap1\n      tag_11\n      jump\t// in\n    tag_10:\n      tag_12\n      jump\t// in\n    tag_9:\n      stop\n        /* \"contracts/workshop.sol\":541:627  function getSymbol() public view returns(string memory) {... */\n    tag_4:\n      tag_13\n      tag_14\n      jump\t// in\n    tag_13:\n      mload(0x40)\n      tag_15\n      swap2\n      swap1\n      tag_16\n      jump\t// in\n    tag_15:\n      mload(0x40)\n      dup1\n      swap2\n      sub\n      swap1\n      return\n        /* \"contracts/workshop.sol\":453:535  function getName() public view returns(string memory) {... */\n    tag_5:\n      tag_17\n      tag_18\n      jump\t// in\n    tag_17:\n      mload(0x40)\n      tag_19\n      swap2\n      swap1\n      tag_16\n      jump\t// in\n    tag_19:\n      mload(0x40)\n      dup1\n      swap2\n      sub\n      swap1\n      return\n        /* \"contracts/workshop.sol\":729:837  function balanceOf(address _account) public view returns(uint256) {... */\n    tag_6:\n      tag_20\n      0x04\n      dup1\n      calldatasize\n      sub\n      dup2\n      add\n      swap1\n      tag_21\n      swap2\n      swap1\n      tag_22\n      jump\t// in\n    tag_21:\n      tag_23\n      jump\t// in\n    tag_20:\n      mload(0x40)\n      tag_24\n      swap2\n      swap1\n      tag_25\n      jump\t// in\n    tag_24:\n      mload(0x40)\n      dup1\n      swap2\n      sub\n      swap1\n      return\n        /* \"contracts/workshop.sol\":843:1206  function transfer(address _to, uint256 amount) public {... */\n    tag_7:\n      tag_26\n      0x04\n      dup1\n      calldatasize\n      sub\n      dup2\n      add\n      swap1\n      tag_27\n      swap2\n      swap1\n      tag_28\n      jump\t// in\n    tag_27:\n      tag_29\n      jump\t// in\n    tag_26:\n      stop\n        /* \"contracts/workshop.sol\":633:723  function getTotalSupply() public view returns(uint256) {... */\n    tag_8:\n      tag_30\n      tag_31\n      jump\t// in\n    tag_30:\n      mload(0x40)\n      tag_32\n      swap2\n      swap1\n      tag_25\n      jump\t// in\n    tag_32:\n      mload(0x40)\n      dup1\n      swap2\n      sub\n      swap1\n      return\n        /* \"contracts/workshop.sol\":1212:1312  function setMyWalletName(string memory _name) public {... */\n    tag_12:\n        /* \"contracts/workshop.sol\":1300:1305  _name */\n      dup1\n        /* \"contracts/workshop.sol\":1275:1285  walletName */\n      0x01\n        /* \"contracts/workshop.sol\":1275:1297  walletName[msg.sender] */\n      0x00\n        /* \"contracts/workshop.sol\":1286:1296  msg.sender */\n      caller\n        /* \"contracts/workshop.sol\":1275:1297  walletName[msg.sender] */\n      0xffffffffffffffffffffffffffffffffffffffff\n      and\n      0xffffffffffffffffffffffffffffffffffffffff\n      and\n      dup2\n      mstore\n      0x20\n      add\n      swap1\n      dup2\n      mstore\n      0x20\n      add\n      0x00\n      keccak256\n        /* \"contracts/workshop.sol\":1275:1305  walletName[msg.sender] = _name */\n      swap1\n      dup2\n      tag_34\n      swap2\n      swap1\n      tag_35\n      jump\t// in\n    tag_34:\n      pop\n        /* \"contracts/workshop.sol\":1212:1312  function setMyWalletName(string memory _name) public {... */\n      pop\n      jump\t// out\n        /* \"contracts/workshop.sol\":541:627  function getSymbol() public view returns(string memory) {... */\n    tag_14:\n        /* \"contracts/workshop.sol\":582:595  string memory */\n      0x60\n        /* \"contracts/workshop.sol\":614:620  symbol */\n      0x03\n        /* \"contracts/workshop.sol\":607:620  return symbol */\n      dup1\n      sload\n      tag_37\n      swap1\n      tag_38\n      jump\t// in\n    tag_37:\n      dup1\n      0x1f\n      add\n      0x20\n      dup1\n      swap2\n      div\n      mul\n      0x20\n      add\n      mload(0x40)\n      swap1\n      dup2\n      add\n      0x40\n      mstore\n      dup1\n      swap3\n      swap2\n      swap1\n      dup2\n      dup2\n      mstore\n      0x20\n      add\n      dup3\n      dup1\n      sload\n      tag_39\n      swap1\n      tag_38\n      jump\t// in\n    tag_39:\n      dup1\n      iszero\n      tag_40\n      jumpi\n      dup1\n      0x1f\n      lt\n      tag_41\n      jumpi\n      0x0100\n      dup1\n      dup4\n      sload\n      div\n      mul\n      dup4\n      mstore\n      swap2\n      0x20\n      add\n      swap2\n      jump(tag_40)\n    tag_41:\n      dup3\n      add\n      swap2\n      swap1\n      0x00\n      mstore\n      keccak256(0x00, 0x20)\n      swap1\n    tag_42:\n      dup2\n      sload\n      dup2\n      mstore\n      swap1\n      0x01\n      add\n      swap1\n      0x20\n      add\n      dup1\n      dup4\n      gt\n      tag_42\n      jumpi\n      dup3\n      swap1\n      sub\n      0x1f\n      and\n      dup3\n      add\n      swap2\n    tag_40:\n      pop\n      pop\n      pop\n      pop\n      pop\n      swap1\n      pop\n        /* \"contracts/workshop.sol\":541:627  function getSymbol() public view returns(string memory) {... */\n      swap1\n      jump\t// out\n        /* \"contracts/workshop.sol\":453:535  function getName() public view returns(string memory) {... */\n    tag_18:\n        /* \"contracts/workshop.sol\":492:505  string memory */\n      0x60\n        /* \"contracts/workshop.sol\":524:528  name */\n      0x02\n        /* \"contracts/workshop.sol\":517:528  return name */\n      dup1\n      sload\n      tag_44\n      swap1\n      tag_38\n      jump\t// in\n    tag_44:\n      dup1\n      0x1f\n      add\n      0x20\n      dup1\n      swap2\n      div\n      mul\n      0x20\n      add\n      mload(0x40)\n      swap1\n      dup2\n      add\n      0x40\n      mstore\n      dup1\n      swap3\n      swap2\n      swap1\n      dup2\n      dup2\n      mstore\n      0x20\n      add\n      dup3\n      dup1\n      sload\n      tag_45\n      swap1\n      tag_38\n      jump\t// in\n    tag_45:\n      dup1\n      iszero\n      tag_46\n      jumpi\n      dup1\n      0x1f\n      lt\n      tag_47\n      jumpi\n      0x0100\n      dup1\n      dup4\n      sload\n      div\n      mul\n      dup4\n      mstore\n      swap2\n      0x20\n      add\n      swap2\n      jump(tag_46)\n    tag_47:\n      dup3\n      add\n      swap2\n      swap1\n      0x00\n      mstore\n      keccak256(0x00, 0x20)\n      swap1\n    tag_48:\n      dup2\n      sload\n      dup2\n      mstore\n      swap1\n      0x01\n      add\n      swap1\n      0x20\n      add\n      dup1\n      dup4\n      gt\n      tag_48\n      jumpi\n      dup3\n      swap1\n      sub\n      0x1f\n      and\n      dup3\n      add\n      swap2\n    tag_46:\n      pop\n      pop\n      pop\n      pop\n      pop\n      swap1\n      pop\n        /* \"contracts/workshop.sol\":453:535  function getName() public view returns(string memory) {... */\n      swap1\n      jump\t// out\n        /* \"contracts/workshop.sol\":729:837  function balanceOf(address _account) public view returns(uint256) {... */\n    tag_23:\n        /* \"contracts/workshop.sol\":786:793  uint256 */\n      0x00\n        /* \"contracts/workshop.sol\":812:820  balances */\n      dup1\n        /* \"contracts/workshop.sol\":812:830  balances[_account] */\n      0x00\n        /* \"contracts/workshop.sol\":821:829  _account */\n      dup4\n        /* \"contracts/workshop.sol\":812:830  balances[_account] */\n      0xffffffffffffffffffffffffffffffffffffffff\n      and\n      0xffffffffffffffffffffffffffffffffffffffff\n      and\n      dup2\n      mstore\n      0x20\n      add\n      swap1\n      dup2\n      mstore\n      0x20\n      add\n      0x00\n      keccak256\n      sload\n        /* \"contracts/workshop.sol\":805:830  return balances[_account] */\n      swap1\n      pop\n        /* \"contracts/workshop.sol\":729:837  function balanceOf(address _account) public view returns(uint256) {... */\n      swap2\n      swap1\n      pop\n      jump\t// out\n        /* \"contracts/workshop.sol\":843:1206  function transfer(address _to, uint256 amount) public {... */\n    tag_29:\n        /* \"contracts/workshop.sol\":907:920  address owner */\n      0x00\n        /* \"contracts/workshop.sol\":923:933  msg.sender */\n      caller\n        /* \"contracts/workshop.sol\":907:933  address owner = msg.sender */\n      swap1\n      pop\n        /* \"contracts/workshop.sol\":943:963  uint256 ownerBalance */\n      0x00\n        /* \"contracts/workshop.sol\":966:974  balances */\n      dup1\n        /* \"contracts/workshop.sol\":966:981  balances[owner] */\n      0x00\n        /* \"contracts/workshop.sol\":975:980  owner */\n      dup4\n        /* \"contracts/workshop.sol\":966:981  balances[owner] */\n      0xffffffffffffffffffffffffffffffffffffffff\n      and\n      0xffffffffffffffffffffffffffffffffffffffff\n      and\n      dup2\n      mstore\n      0x20\n      add\n      swap1\n      dup2\n      mstore\n      0x20\n      add\n      0x00\n      keccak256\n      sload\n        /* \"contracts/workshop.sol\":943:981  uint256 ownerBalance = balances[owner] */\n      swap1\n      pop\n        /* \"contracts/workshop.sol\":1015:1021  amount */\n      dup3\n        /* \"contracts/workshop.sol\":999:1011  ownerBalance */\n      dup2\n        /* \"contracts/workshop.sol\":999:1021  ownerBalance >= amount */\n      lt\n      iszero\n        /* \"contracts/workshop.sol\":991:1055  require(ownerBalance >= amount, \"Insufficient fund to transfer\") */\n      tag_51\n      jumpi\n      mload(0x40)\n      0x08c379a000000000000000000000000000000000000000000000000000000000\n      dup2\n      mstore\n      0x04\n      add\n      tag_52\n      swap1\n      tag_53\n      jump\t// in\n    tag_52:\n      mload(0x40)\n      dup1\n      swap2\n      sub\n      swap1\n      revert\n    tag_51:\n        /* \"contracts/workshop.sol\":1080:1085  owner */\n      dup2\n        /* \"contracts/workshop.sol\":1073:1085  _to != owner */\n      0xffffffffffffffffffffffffffffffffffffffff\n      and\n        /* \"contracts/workshop.sol\":1073:1076  _to */\n      dup5\n        /* \"contracts/workshop.sol\":1073:1085  _to != owner */\n      0xffffffffffffffffffffffffffffffffffffffff\n      and\n      sub\n        /* \"contracts/workshop.sol\":1065:1117  require(_to != owner, \"You cannot send to yourself\") */\n      tag_54\n      jumpi\n      mload(0x40)\n      0x08c379a000000000000000000000000000000000000000000000000000000000\n      dup2\n      mstore\n      0x04\n      add\n      tag_55\n      swap1\n      tag_56\n      jump\t// in\n    tag_55:\n      mload(0x40)\n      dup1\n      swap2\n      sub\n      swap1\n      revert\n    tag_54:\n        /* \"contracts/workshop.sol\":1160:1166  amount */\n      dup3\n        /* \"contracts/workshop.sol\":1145:1157  ownerBalance */\n      dup2\n        /* \"contracts/workshop.sol\":1145:1166  ownerBalance - amount */\n      tag_57\n      swap2\n      swap1\n      tag_58\n      jump\t// in\n    tag_57:\n        /* \"contracts/workshop.sol\":1127:1135  balances */\n      0x00\n        /* \"contracts/workshop.sol\":1127:1142  balances[owner] */\n      dup1\n        /* \"contracts/workshop.sol\":1136:1141  owner */\n      dup5\n        /* \"contracts/workshop.sol\":1127:1142  balances[owner] */\n      0xffffffffffffffffffffffffffffffffffffffff\n      and\n      0xffffffffffffffffffffffffffffffffffffffff\n      and\n      dup2\n      mstore\n      0x20\n      add\n      swap1\n      dup2\n      mstore\n      0x20\n      add\n      0x00\n      keccak256\n        /* \"contracts/workshop.sol\":1127:1166  balances[owner] = ownerBalance - amount */\n      dup2\n      swap1\n      sstore\n      pop\n        /* \"contracts/workshop.sol\":1193:1199  amount */\n      dup3\n        /* \"contracts/workshop.sol\":1176:1184  balances */\n      0x00\n        /* \"contracts/workshop.sol\":1176:1189  balances[_to] */\n      dup1\n        /* \"contracts/workshop.sol\":1185:1188  _to */\n      dup7\n        /* \"contracts/workshop.sol\":1176:1189  balances[_to] */\n      0xffffffffffffffffffffffffffffffffffffffff\n      and\n      0xffffffffffffffffffffffffffffffffffffffff\n      and\n      dup2\n      mstore\n      0x20\n      add\n      swap1\n      dup2\n      mstore\n      0x20\n      add\n      0x00\n      keccak256\n      0x00\n        /* \"contracts/workshop.sol\":1176:1199  balances[_to] += amount */\n      dup3\n      dup3\n      sload\n      tag_59\n      swap2\n      swap1\n      tag_60\n      jump\t// in\n    tag_59:\n      swap3\n      pop\n      pop\n      dup2\n      swap1\n      sstore\n      pop\n        /* \"contracts/workshop.sol\":897:1206  {... */\n      pop\n      pop\n        /* \"contracts/workshop.sol\":843:1206  function transfer(address _to, uint256 amount) public {... */\n      pop\n      pop\n      jump\t// out\n        /* \"contracts/workshop.sol\":633:723  function getTotalSupply() public view returns(uint256) {... */\n    tag_31:\n        /* \"contracts/workshop.sol\":679:686  uint256 */\n      0x00\n        /* \"contracts/workshop.sol\":705:716  totalSupply */\n      sload(0x04)\n        /* \"contracts/workshop.sol\":698:716  return totalSupply */\n      swap1\n      pop\n        /* \"contracts/workshop.sol\":633:723  function getTotalSupply() public view returns(uint256) {... */\n      swap1\n      jump\t// out\n        /* \"#utility.yul\":7:82   */\n    tag_62:\n        /* \"#utility.yul\":40:46   */\n      0x00\n        /* \"#utility.yul\":73:75   */\n      0x40\n        /* \"#utility.yul\":67:76   */\n      mload\n        /* \"#utility.yul\":57:76   */\n      swap1\n      pop\n        /* \"#utility.yul\":7:82   */\n      swap1\n      jump\t// out\n        /* \"#utility.yul\":88:205   */\n    tag_63:\n        /* \"#utility.yul\":197:198   */\n      0x00\n        /* \"#utility.yul\":194:195   */\n      dup1\n        /* \"#utility.yul\":187:199   */\n      revert\n        /* \"#utility.yul\":211:328   */\n    tag_64:\n        /* \"#utility.yul\":320:321   */\n      0x00\n        /* \"#utility.yul\":317:318   */\n      dup1\n        /* \"#utility.yul\":310:322   */\n      revert\n        /* \"#utility.yul\":334:451   */\n    tag_65:\n        /* \"#utility.yul\":443:444   */\n      0x00\n        /* \"#utility.yul\":440:441   */\n      dup1\n        /* \"#utility.yul\":433:445   */\n      revert\n        /* \"#utility.yul\":457:574   */\n    tag_66:\n        /* \"#utility.yul\":566:567   */\n      0x00\n        /* \"#utility.yul\":563:564   */\n      dup1\n        /* \"#utility.yul\":556:568   */\n      revert\n        /* \"#utility.yul\":580:682   */\n    tag_67:\n        /* \"#utility.yul\":621:627   */\n      0x00\n        /* \"#utility.yul\":672:674   */\n      0x1f\n        /* \"#utility.yul\":668:675   */\n      not\n        /* \"#utility.yul\":663:665   */\n      0x1f\n        /* \"#utility.yul\":656:661   */\n      dup4\n        /* \"#utility.yul\":652:666   */\n      add\n        /* \"#utility.yul\":648:676   */\n      and\n        /* \"#utility.yul\":638:676   */\n      swap1\n      pop\n        /* \"#utility.yul\":580:682   */\n      swap2\n      swap1\n      pop\n      jump\t// out\n        /* \"#utility.yul\":688:868   */\n    tag_68:\n        /* \"#utility.yul\":736:813   */\n      0x4e487b7100000000000000000000000000000000000000000000000000000000\n        /* \"#utility.yul\":733:734   */\n      0x00\n        /* \"#utility.yul\":726:814   */\n      mstore\n        /* \"#utility.yul\":833:837   */\n      0x41\n        /* \"#utility.yul\":830:831   */\n      0x04\n        /* \"#utility.yul\":823:838   */\n      mstore\n        /* \"#utility.yul\":857:861   */\n      0x24\n        /* \"#utility.yul\":854:855   */\n      0x00\n        /* \"#utility.yul\":847:862   */\n      revert\n        /* \"#utility.yul\":874:1155   */\n    tag_69:\n        /* \"#utility.yul\":957:984   */\n      tag_117\n        /* \"#utility.yul\":979:983   */\n      dup3\n        /* \"#utility.yul\":957:984   */\n      tag_67\n      jump\t// in\n    tag_117:\n        /* \"#utility.yul\":949:955   */\n      dup2\n        /* \"#utility.yul\":945:985   */\n      add\n        /* \"#utility.yul\":1087:1093   */\n      dup2\n        /* \"#utility.yul\":1075:1085   */\n      dup2\n        /* \"#utility.yul\":1072:1094   */\n      lt\n        /* \"#utility.yul\":1051:1069   */\n      0xffffffffffffffff\n        /* \"#utility.yul\":1039:1049   */\n      dup3\n        /* \"#utility.yul\":1036:1070   */\n      gt\n        /* \"#utility.yul\":1033:1095   */\n      or\n        /* \"#utility.yul\":1030:1118   */\n      iszero\n      tag_118\n      jumpi\n        /* \"#utility.yul\":1098:1116   */\n      tag_119\n      tag_68\n      jump\t// in\n    tag_119:\n        /* \"#utility.yul\":1030:1118   */\n    tag_118:\n        /* \"#utility.yul\":1138:1148   */\n      dup1\n        /* \"#utility.yul\":1134:1136   */\n      0x40\n        /* \"#utility.yul\":1127:1149   */\n      mstore\n        /* \"#utility.yul\":917:1155   */\n      pop\n        /* \"#utility.yul\":874:1155   */\n      pop\n      pop\n      jump\t// out\n        /* \"#utility.yul\":1161:1290   */\n    tag_70:\n        /* \"#utility.yul\":1195:1201   */\n      0x00\n        /* \"#utility.yul\":1222:1242   */\n      tag_121\n      tag_62\n      jump\t// in\n    tag_121:\n        /* \"#utility.yul\":1212:1242   */\n      swap1\n      pop\n        /* \"#utility.yul\":1251:1284   */\n      tag_122\n        /* \"#utility.yul\":1279:1283   */\n      dup3\n        /* \"#utility.yul\":1271:1277   */\n      dup3\n        /* \"#utility.yul\":1251:1284   */\n      tag_69\n      jump\t// in\n    tag_122:\n        /* \"#utility.yul\":1161:1290   */\n      swap2\n      swap1\n      pop\n      jump\t// out\n        /* \"#utility.yul\":1296:1604   */\n    tag_71:\n        /* \"#utility.yul\":1358:1362   */\n      0x00\n        /* \"#utility.yul\":1448:1466   */\n      0xffffffffffffffff\n        /* \"#utility.yul\":1440:1446   */\n      dup3\n        /* \"#utility.yul\":1437:1467   */\n      gt\n        /* \"#utility.yul\":1434:1490   */\n      iszero\n      tag_124\n      jumpi\n        /* \"#utility.yul\":1470:1488   */\n      tag_125\n      tag_68\n      jump\t// in\n    tag_125:\n        /* \"#utility.yul\":1434:1490   */\n    tag_124:\n        /* \"#utility.yul\":1508:1537   */\n      tag_126\n        /* \"#utility.yul\":1530:1536   */\n      dup3\n        /* \"#utility.yul\":1508:1537   */\n      tag_67\n      jump\t// in\n    tag_126:\n        /* \"#utility.yul\":1500:1537   */\n      swap1\n      pop\n        /* \"#utility.yul\":1592:1596   */\n      0x20\n        /* \"#utility.yul\":1586:1590   */\n      dup2\n        /* \"#utility.yul\":1582:1597   */\n      add\n        /* \"#utility.yul\":1574:1597   */\n      swap1\n      pop\n        /* \"#utility.yul\":1296:1604   */\n      swap2\n      swap1\n      pop\n      jump\t// out\n        /* \"#utility.yul\":1610:1764   */\n    tag_72:\n        /* \"#utility.yul\":1694:1700   */\n      dup3\n        /* \"#utility.yul\":1689:1692   */\n      dup2\n        /* \"#utility.yul\":1684:1687   */\n      dup4\n        /* \"#utility.yul\":1671:1701   */\n      calldatacopy\n        /* \"#utility.yul\":1756:1757   */\n      0x00\n        /* \"#utility.yul\":1747:1753   */\n      dup4\n        /* \"#utility.yul\":1742:1745   */\n      dup4\n        /* \"#utility.yul\":1738:1754   */\n      add\n        /* \"#utility.yul\":1731:1758   */\n      mstore\n        /* \"#utility.yul\":1610:1764   */\n      pop\n      pop\n      pop\n      jump\t// out\n        /* \"#utility.yul\":1770:2182   */\n    tag_73:\n        /* \"#utility.yul\":1848:1853   */\n      0x00\n        /* \"#utility.yul\":1873:1939   */\n      tag_129\n        /* \"#utility.yul\":1889:1938   */\n      tag_130\n        /* \"#utility.yul\":1931:1937   */\n      dup5\n        /* \"#utility.yul\":1889:1938   */\n      tag_71\n      jump\t// in\n    tag_130:\n        /* \"#utility.yul\":1873:1939   */\n      tag_70\n      jump\t// in\n    tag_129:\n        /* \"#utility.yul\":1864:1939   */\n      swap1\n      pop\n        /* \"#utility.yul\":1962:1968   */\n      dup3\n        /* \"#utility.yul\":1955:1960   */\n      dup2\n        /* \"#utility.yul\":1948:1969   */\n      mstore\n        /* \"#utility.yul\":2000:2004   */\n      0x20\n        /* \"#utility.yul\":1993:1998   */\n      dup2\n        /* \"#utility.yul\":1989:2005   */\n      add\n        /* \"#utility.yul\":2038:2041   */\n      dup5\n        /* \"#utility.yul\":2029:2035   */\n      dup5\n        /* \"#utility.yul\":2024:2027   */\n      dup5\n        /* \"#utility.yul\":2020:2036   */\n      add\n        /* \"#utility.yul\":2017:2042   */\n      gt\n        /* \"#utility.yul\":2014:2126   */\n      iszero\n      tag_131\n      jumpi\n        /* \"#utility.yul\":2045:2124   */\n      tag_132\n      tag_66\n      jump\t// in\n    tag_132:\n        /* \"#utility.yul\":2014:2126   */\n    tag_131:\n        /* \"#utility.yul\":2135:2176   */\n      tag_133\n        /* \"#utility.yul\":2169:2175   */\n      dup5\n        /* \"#utility.yul\":2164:2167   */\n      dup3\n        /* \"#utility.yul\":2159:2162   */\n      dup6\n        /* \"#utility.yul\":2135:2176   */\n      tag_72\n      jump\t// in\n    tag_133:\n        /* \"#utility.yul\":1854:2182   */\n      pop\n        /* \"#utility.yul\":1770:2182   */\n      swap4\n      swap3\n      pop\n      pop\n      pop\n      jump\t// out\n        /* \"#utility.yul\":2202:2542   */\n    tag_74:\n        /* \"#utility.yul\":2258:2263   */\n      0x00\n        /* \"#utility.yul\":2307:2310   */\n      dup3\n        /* \"#utility.yul\":2300:2304   */\n      0x1f\n        /* \"#utility.yul\":2292:2298   */\n      dup4\n        /* \"#utility.yul\":2288:2305   */\n      add\n        /* \"#utility.yul\":2284:2311   */\n      slt\n        /* \"#utility.yul\":2274:2396   */\n      tag_135\n      jumpi\n        /* \"#utility.yul\":2315:2394   */\n      tag_136\n      tag_65\n      jump\t// in\n    tag_136:\n        /* \"#utility.yul\":2274:2396   */\n    tag_135:\n        /* \"#utility.yul\":2432:2438   */\n      dup2\n        /* \"#utility.yul\":2419:2439   */\n      calldataload\n        /* \"#utility.yul\":2457:2536   */\n      tag_137\n        /* \"#utility.yul\":2532:2535   */\n      dup5\n        /* \"#utility.yul\":2524:2530   */\n      dup3\n        /* \"#utility.yul\":2517:2521   */\n      0x20\n        /* \"#utility.yul\":2509:2515   */\n      dup7\n        /* \"#utility.yul\":2505:2522   */\n      add\n        /* \"#utility.yul\":2457:2536   */\n      tag_73\n      jump\t// in\n    tag_137:\n        /* \"#utility.yul\":2448:2536   */\n      swap2\n      pop\n        /* \"#utility.yul\":2264:2542   */\n      pop\n        /* \"#utility.yul\":2202:2542   */\n      swap3\n      swap2\n      pop\n      pop\n      jump\t// out\n        /* \"#utility.yul\":2548:3057   */\n    tag_11:\n        /* \"#utility.yul\":2617:2623   */\n      0x00\n        /* \"#utility.yul\":2666:2668   */\n      0x20\n        /* \"#utility.yul\":2654:2663   */\n      dup3\n        /* \"#utility.yul\":2645:2652   */\n      dup5\n        /* \"#utility.yul\":2641:2664   */\n      sub\n        /* \"#utility.yul\":2637:2669   */\n      slt\n        /* \"#utility.yul\":2634:2753   */\n      iszero\n      tag_139\n      jumpi\n        /* \"#utility.yul\":2672:2751   */\n      tag_140\n      tag_63\n      jump\t// in\n    tag_140:\n        /* \"#utility.yul\":2634:2753   */\n    tag_139:\n        /* \"#utility.yul\":2820:2821   */\n      0x00\n        /* \"#utility.yul\":2809:2818   */\n      dup3\n        /* \"#utility.yul\":2805:2822   */\n      add\n        /* \"#utility.yul\":2792:2823   */\n      calldataload\n        /* \"#utility.yul\":2850:2868   */\n      0xffffffffffffffff\n        /* \"#utility.yul\":2842:2848   */\n      dup2\n        /* \"#utility.yul\":2839:2869   */\n      gt\n        /* \"#utility.yul\":2836:2953   */\n      iszero\n      tag_141\n      jumpi\n        /* \"#utility.yul\":2872:2951   */\n      tag_142\n      tag_64\n      jump\t// in\n    tag_142:\n        /* \"#utility.yul\":2836:2953   */\n    tag_141:\n        /* \"#utility.yul\":2977:3040   */\n      tag_143\n        /* \"#utility.yul\":3032:3039   */\n      dup5\n        /* \"#utility.yul\":3023:3029   */\n      dup3\n        /* \"#utility.yul\":3012:3021   */\n      dup6\n        /* \"#utility.yul\":3008:3030   */\n      add\n        /* \"#utility.yul\":2977:3040   */\n      tag_74\n      jump\t// in\n    tag_143:\n        /* \"#utility.yul\":2967:3040   */\n      swap2\n      pop\n        /* \"#utility.yul\":2763:3050   */\n      pop\n        /* \"#utility.yul\":2548:3057   */\n      swap3\n      swap2\n      pop\n      pop\n      jump\t// out\n        /* \"#utility.yul\":3063:3162   */\n    tag_75:\n        /* \"#utility.yul\":3115:3121   */\n      0x00\n        /* \"#utility.yul\":3149:3154   */\n      dup2\n        /* \"#utility.yul\":3143:3155   */\n      mload\n        /* \"#utility.yul\":3133:3155   */\n      swap1\n      pop\n        /* \"#utility.yul\":3063:3162   */\n      swap2\n      swap1\n      pop\n      jump\t// out\n        /* \"#utility.yul\":3168:3337   */\n    tag_76:\n        /* \"#utility.yul\":3252:3263   */\n      0x00\n        /* \"#utility.yul\":3286:3292   */\n      dup3\n        /* \"#utility.yul\":3281:3284   */\n      dup3\n        /* \"#utility.yul\":3274:3293   */\n      mstore\n        /* \"#utility.yul\":3326:3330   */\n      0x20\n        /* \"#utility.yul\":3321:3324   */\n      dup3\n        /* \"#utility.yul\":3317:3331   */\n      add\n        /* \"#utility.yul\":3302:3331   */\n      swap1\n      pop\n        /* \"#utility.yul\":3168:3337   */\n      swap3\n      swap2\n      pop\n      pop\n      jump\t// out\n        /* \"#utility.yul\":3343:3650   */\n    tag_77:\n        /* \"#utility.yul\":3411:3412   */\n      0x00\n        /* \"#utility.yul\":3421:3534   */\n    tag_147:\n        /* \"#utility.yul\":3435:3441   */\n      dup4\n        /* \"#utility.yul\":3432:3433   */\n      dup2\n        /* \"#utility.yul\":3429:3442   */\n      lt\n        /* \"#utility.yul\":3421:3534   */\n      iszero\n      tag_149\n      jumpi\n        /* \"#utility.yul\":3520:3521   */\n      dup1\n        /* \"#utility.yul\":3515:3518   */\n      dup3\n        /* \"#utility.yul\":3511:3522   */\n      add\n        /* \"#utility.yul\":3505:3523   */\n      mload\n        /* \"#utility.yul\":3501:3502   */\n      dup2\n        /* \"#utility.yul\":3496:3499   */\n      dup5\n        /* \"#utility.yul\":3492:3503   */\n      add\n        /* \"#utility.yul\":3485:3524   */\n      mstore\n        /* \"#utility.yul\":3457:3459   */\n      0x20\n        /* \"#utility.yul\":3454:3455   */\n      dup2\n        /* \"#utility.yul\":3450:3460   */\n      add\n        /* \"#utility.yul\":3445:3460   */\n      swap1\n      pop\n        /* \"#utility.yul\":3421:3534   */\n      jump(tag_147)\n    tag_149:\n        /* \"#utility.yul\":3552:3558   */\n      dup4\n        /* \"#utility.yul\":3549:3550   */\n      dup2\n        /* \"#utility.yul\":3546:3559   */\n      gt\n        /* \"#utility.yul\":3543:3644   */\n      iszero\n      tag_150\n      jumpi\n        /* \"#utility.yul\":3632:3633   */\n      0x00\n        /* \"#utility.yul\":3623:3629   */\n      dup5\n        /* \"#utility.yul\":3618:3621   */\n      dup5\n        /* \"#utility.yul\":3614:3630   */\n      add\n        /* \"#utility.yul\":3607:3634   */\n      mstore\n        /* \"#utility.yul\":3543:3644   */\n    tag_150:\n        /* \"#utility.yul\":3392:3650   */\n      pop\n        /* \"#utility.yul\":3343:3650   */\n      pop\n      pop\n      pop\n      jump\t// out\n        /* \"#utility.yul\":3656:4020   */\n    tag_78:\n        /* \"#utility.yul\":3744:3747   */\n      0x00\n        /* \"#utility.yul\":3772:3811   */\n      tag_152\n        /* \"#utility.yul\":3805:3810   */\n      dup3\n        /* \"#utility.yul\":3772:3811   */\n      tag_75\n      jump\t// in\n    tag_152:\n        /* \"#utility.yul\":3827:3898   */\n      tag_153\n        /* \"#utility.yul\":3891:3897   */\n      dup2\n        /* \"#utility.yul\":3886:3889   */\n      dup6\n        /* \"#utility.yul\":3827:3898   */\n      tag_76\n      jump\t// in\n    tag_153:\n        /* \"#utility.yul\":3820:3898   */\n      swap4\n      pop\n        /* \"#utility.yul\":3907:3959   */\n      tag_154\n        /* \"#utility.yul\":3952:3958   */\n      dup2\n        /* \"#utility.yul\":3947:3950   */\n      dup6\n        /* \"#utility.yul\":3940:3944   */\n      0x20\n        /* \"#utility.yul\":3933:3938   */\n      dup7\n        /* \"#utility.yul\":3929:3945   */\n      add\n        /* \"#utility.yul\":3907:3959   */\n      tag_77\n      jump\t// in\n    tag_154:\n        /* \"#utility.yul\":3984:4013   */\n      tag_155\n        /* \"#utility.yul\":4006:4012   */\n      dup2\n        /* \"#utility.yul\":3984:4013   */\n      tag_67\n      jump\t// in\n    tag_155:\n        /* \"#utility.yul\":3979:3982   */\n      dup5\n        /* \"#utility.yul\":3975:4014   */\n      add\n        /* \"#utility.yul\":3968:4014   */\n      swap2\n      pop\n        /* \"#utility.yul\":3748:4020   */\n      pop\n        /* \"#utility.yul\":3656:4020   */\n      swap3\n      swap2\n      pop\n      pop\n      jump\t// out\n        /* \"#utility.yul\":4026:4339   */\n    tag_16:\n        /* \"#utility.yul\":4139:4143   */\n      0x00\n        /* \"#utility.yul\":4177:4179   */\n      0x20\n        /* \"#utility.yul\":4166:4175   */\n      dup3\n        /* \"#utility.yul\":4162:4180   */\n      add\n        /* \"#utility.yul\":4154:4180   */\n      swap1\n      pop\n        /* \"#utility.yul\":4226:4235   */\n      dup2\n        /* \"#utility.yul\":4220:4224   */\n      dup2\n        /* \"#utility.yul\":4216:4236   */\n      sub\n        /* \"#utility.yul\":4212:4213   */\n      0x00\n        /* \"#utility.yul\":4201:4210   */\n      dup4\n        /* \"#utility.yul\":4197:4214   */\n      add\n        /* \"#utility.yul\":4190:4237   */\n      mstore\n        /* \"#utility.yul\":4254:4332   */\n      tag_157\n        /* \"#utility.yul\":4327:4331   */\n      dup2\n        /* \"#utility.yul\":4318:4324   */\n      dup5\n        /* \"#utility.yul\":4254:4332   */\n      tag_78\n      jump\t// in\n    tag_157:\n        /* \"#utility.yul\":4246:4332   */\n      swap1\n      pop\n        /* \"#utility.yul\":4026:4339   */\n      swap3\n      swap2\n      pop\n      pop\n      jump\t// out\n        /* \"#utility.yul\":4345:4471   */\n    tag_79:\n        /* \"#utility.yul\":4382:4389   */\n      0x00\n        /* \"#utility.yul\":4422:4464   */\n      0xffffffffffffffffffffffffffffffffffffffff\n        /* \"#utility.yul\":4415:4420   */\n      dup3\n        /* \"#utility.yul\":4411:4465   */\n      and\n        /* \"#utility.yul\":4400:4465   */\n      swap1\n      pop\n        /* \"#utility.yul\":4345:4471   */\n      swap2\n      swap1\n      pop\n      jump\t// out\n        /* \"#utility.yul\":4477:4573   */\n    tag_80:\n        /* \"#utility.yul\":4514:4521   */\n      0x00\n        /* \"#utility.yul\":4543:4567   */\n      tag_160\n        /* \"#utility.yul\":4561:4566   */\n      dup3\n        /* \"#utility.yul\":4543:4567   */\n      tag_79\n      jump\t// in\n    tag_160:\n        /* \"#utility.yul\":4532:4567   */\n      swap1\n      pop\n        /* \"#utility.yul\":4477:4573   */\n      swap2\n      swap1\n      pop\n      jump\t// out\n        /* \"#utility.yul\":4579:4701   */\n    tag_81:\n        /* \"#utility.yul\":4652:4676   */\n      tag_162\n        /* \"#utility.yul\":4670:4675   */\n      dup2\n        /* \"#utility.yul\":4652:4676   */\n      tag_80\n      jump\t// in\n    tag_162:\n        /* \"#utility.yul\":4645:4650   */\n      dup2\n        /* \"#utility.yul\":4642:4677   */\n      eq\n        /* \"#utility.yul\":4632:4695   */\n      tag_163\n      jumpi\n        /* \"#utility.yul\":4691:4692   */\n      0x00\n        /* \"#utility.yul\":4688:4689   */\n      dup1\n        /* \"#utility.yul\":4681:4693   */\n      revert\n        /* \"#utility.yul\":4632:4695   */\n    tag_163:\n        /* \"#utility.yul\":4579:4701   */\n      pop\n      jump\t// out\n        /* \"#utility.yul\":4707:4846   */\n    tag_82:\n        /* \"#utility.yul\":4753:4758   */\n      0x00\n        /* \"#utility.yul\":4791:4797   */\n      dup2\n        /* \"#utility.yul\":4778:4798   */\n      calldataload\n        /* \"#utility.yul\":4769:4798   */\n      swap1\n      pop\n        /* \"#utility.yul\":4807:4840   */\n      tag_165\n        /* \"#utility.yul\":4834:4839   */\n      dup2\n        /* \"#utility.yul\":4807:4840   */\n      tag_81\n      jump\t// in\n    tag_165:\n        /* \"#utility.yul\":4707:4846   */\n      swap3\n      swap2\n      pop\n      pop\n      jump\t// out\n        /* \"#utility.yul\":4852:5181   */\n    tag_22:\n        /* \"#utility.yul\":4911:4917   */\n      0x00\n        /* \"#utility.yul\":4960:4962   */\n      0x20\n        /* \"#utility.yul\":4948:4957   */\n      dup3\n        /* \"#utility.yul\":4939:4946   */\n      dup5\n        /* \"#utility.yul\":4935:4958   */\n      sub\n        /* \"#utility.yul\":4931:4963   */\n      slt\n        /* \"#utility.yul\":4928:5047   */\n      iszero\n      tag_167\n      jumpi\n        /* \"#utility.yul\":4966:5045   */\n      tag_168\n      tag_63\n      jump\t// in\n    tag_168:\n        /* \"#utility.yul\":4928:5047   */\n    tag_167:\n        /* \"#utility.yul\":5086:5087   */\n      0x00\n        /* \"#utility.yul\":5111:5164   */\n      tag_169\n        /* \"#utility.yul\":5156:5163   */\n      dup5\n        /* \"#utility.yul\":5147:5153   */\n      dup3\n        /* \"#utility.yul\":5136:5145   */\n      dup6\n        /* \"#utility.yul\":5132:5154   */\n      add\n        /* \"#utility.yul\":5111:5164   */\n      tag_82\n      jump\t// in\n    tag_169:\n        /* \"#utility.yul\":5101:5164   */\n      swap2\n      pop\n        /* \"#utility.yul\":5057:5174   */\n      pop\n        /* \"#utility.yul\":4852:5181   */\n      swap3\n      swap2\n      pop\n      pop\n      jump\t// out\n        /* \"#utility.yul\":5187:5264   */\n    tag_83:\n        /* \"#utility.yul\":5224:5231   */\n      0x00\n        /* \"#utility.yul\":5253:5258   */\n      dup2\n        /* \"#utility.yul\":5242:5258   */\n      swap1\n      pop\n        /* \"#utility.yul\":5187:5264   */\n      swap2\n      swap1\n      pop\n      jump\t// out\n        /* \"#utility.yul\":5270:5388   */\n    tag_84:\n        /* \"#utility.yul\":5357:5381   */\n      tag_172\n        /* \"#utility.yul\":5375:5380   */\n      dup2\n        /* \"#utility.yul\":5357:5381   */\n      tag_83\n      jump\t// in\n    tag_172:\n        /* \"#utility.yul\":5352:5355   */\n      dup3\n        /* \"#utility.yul\":5345:5382   */\n      mstore\n        /* \"#utility.yul\":5270:5388   */\n      pop\n      pop\n      jump\t// out\n        /* \"#utility.yul\":5394:5616   */\n    tag_25:\n        /* \"#utility.yul\":5487:5491   */\n      0x00\n        /* \"#utility.yul\":5525:5527   */\n      0x20\n        /* \"#utility.yul\":5514:5523   */\n      dup3\n        /* \"#utility.yul\":5510:5528   */\n      add\n        /* \"#utility.yul\":5502:5528   */\n      swap1\n      pop\n        /* \"#utility.yul\":5538:5609   */\n      tag_174\n        /* \"#utility.yul\":5606:5607   */\n      0x00\n        /* \"#utility.yul\":5595:5604   */\n      dup4\n        /* \"#utility.yul\":5591:5608   */\n      add\n        /* \"#utility.yul\":5582:5588   */\n      dup5\n        /* \"#utility.yul\":5538:5609   */\n      tag_84\n      jump\t// in\n    tag_174:\n        /* \"#utility.yul\":5394:5616   */\n      swap3\n      swap2\n      pop\n      pop\n      jump\t// out\n        /* \"#utility.yul\":5622:5744   */\n    tag_85:\n        /* \"#utility.yul\":5695:5719   */\n      tag_176\n        /* \"#utility.yul\":5713:5718   */\n      dup2\n        /* \"#utility.yul\":5695:5719   */\n      tag_83\n      jump\t// in\n    tag_176:\n        /* \"#utility.yul\":5688:5693   */\n      dup2\n        /* \"#utility.yul\":5685:5720   */\n      eq\n        /* \"#utility.yul\":5675:5738   */\n      tag_177\n      jumpi\n        /* \"#utility.yul\":5734:5735   */\n      0x00\n        /* \"#utility.yul\":5731:5732   */\n      dup1\n        /* \"#utility.yul\":5724:5736   */\n      revert\n        /* \"#utility.yul\":5675:5738   */\n    tag_177:\n        /* \"#utility.yul\":5622:5744   */\n      pop\n      jump\t// out\n        /* \"#utility.yul\":5750:5889   */\n    tag_86:\n        /* \"#utility.yul\":5796:5801   */\n      0x00\n        /* \"#utility.yul\":5834:5840   */\n      dup2\n        /* \"#utility.yul\":5821:5841   */\n      calldataload\n        /* \"#utility.yul\":5812:5841   */\n      swap1\n      pop\n        /* \"#utility.yul\":5850:5883   */\n      tag_179\n        /* \"#utility.yul\":5877:5882   */\n      dup2\n        /* \"#utility.yul\":5850:5883   */\n      tag_85\n      jump\t// in\n    tag_179:\n        /* \"#utility.yul\":5750:5889   */\n      swap3\n      swap2\n      pop\n      pop\n      jump\t// out\n        /* \"#utility.yul\":5895:6369   */\n    tag_28:\n        /* \"#utility.yul\":5963:5969   */\n      0x00\n        /* \"#utility.yul\":5971:5977   */\n      dup1\n        /* \"#utility.yul\":6020:6022   */\n      0x40\n        /* \"#utility.yul\":6008:6017   */\n      dup4\n        /* \"#utility.yul\":5999:6006   */\n      dup6\n        /* \"#utility.yul\":5995:6018   */\n      sub\n        /* \"#utility.yul\":5991:6023   */\n      slt\n        /* \"#utility.yul\":5988:6107   */\n      iszero\n      tag_181\n      jumpi\n        /* \"#utility.yul\":6026:6105   */\n      tag_182\n      tag_63\n      jump\t// in\n    tag_182:\n        /* \"#utility.yul\":5988:6107   */\n    tag_181:\n        /* \"#utility.yul\":6146:6147   */\n      0x00\n        /* \"#utility.yul\":6171:6224   */\n      tag_183\n        /* \"#utility.yul\":6216:6223   */\n      dup6\n        /* \"#utility.yul\":6207:6213   */\n      dup3\n        /* \"#utility.yul\":6196:6205   */\n      dup7\n        /* \"#utility.yul\":6192:6214   */\n      add\n        /* \"#utility.yul\":6171:6224   */\n      tag_82\n      jump\t// in\n    tag_183:\n        /* \"#utility.yul\":6161:6224   */\n      swap3\n      pop\n        /* \"#utility.yul\":6117:6234   */\n      pop\n        /* \"#utility.yul\":6273:6275   */\n      0x20\n        /* \"#utility.yul\":6299:6352   */\n      tag_184\n        /* \"#utility.yul\":6344:6351   */\n      dup6\n        /* \"#utility.yul\":6335:6341   */\n      dup3\n        /* \"#utility.yul\":6324:6333   */\n      dup7\n        /* \"#utility.yul\":6320:6342   */\n      add\n        /* \"#utility.yul\":6299:6352   */\n      tag_86\n      jump\t// in\n    tag_184:\n        /* \"#utility.yul\":6289:6352   */\n      swap2\n      pop\n        /* \"#utility.yul\":6244:6362   */\n      pop\n        /* \"#utility.yul\":5895:6369   */\n      swap3\n      pop\n      swap3\n      swap1\n      pop\n      jump\t// out\n        /* \"#utility.yul\":6375:6555   */\n    tag_87:\n        /* \"#utility.yul\":6423:6500   */\n      0x4e487b7100000000000000000000000000000000000000000000000000000000\n        /* \"#utility.yul\":6420:6421   */\n      0x00\n        /* \"#utility.yul\":6413:6501   */\n      mstore\n        /* \"#utility.yul\":6520:6524   */\n      0x22\n        /* \"#utility.yul\":6517:6518   */\n      0x04\n        /* \"#utility.yul\":6510:6525   */\n      mstore\n        /* \"#utility.yul\":6544:6548   */\n      0x24\n        /* \"#utility.yul\":6541:6542   */\n      0x00\n        /* \"#utility.yul\":6534:6549   */\n      revert\n        /* \"#utility.yul\":6561:6881   */\n    tag_38:\n        /* \"#utility.yul\":6605:6611   */\n      0x00\n        /* \"#utility.yul\":6642:6643   */\n      0x02\n        /* \"#utility.yul\":6636:6640   */\n      dup3\n        /* \"#utility.yul\":6632:6644   */\n      div\n        /* \"#utility.yul\":6622:6644   */\n      swap1\n      pop\n        /* \"#utility.yul\":6689:6690   */\n      0x01\n        /* \"#utility.yul\":6683:6687   */\n      dup3\n        /* \"#utility.yul\":6679:6691   */\n      and\n        /* \"#utility.yul\":6710:6728   */\n      dup1\n        /* \"#utility.yul\":6700:6781   */\n      tag_187\n      jumpi\n        /* \"#utility.yul\":6766:6770   */\n      0x7f\n        /* \"#utility.yul\":6758:6764   */\n      dup3\n        /* \"#utility.yul\":6754:6771   */\n      and\n        /* \"#utility.yul\":6744:6771   */\n      swap2\n      pop\n        /* \"#utility.yul\":6700:6781   */\n    tag_187:\n        /* \"#utility.yul\":6828:6830   */\n      0x20\n        /* \"#utility.yul\":6820:6826   */\n      dup3\n        /* \"#utility.yul\":6817:6831   */\n      lt\n        /* \"#utility.yul\":6797:6815   */\n      dup2\n        /* \"#utility.yul\":6794:6832   */\n      sub\n        /* \"#utility.yul\":6791:6875   */\n      tag_188\n      jumpi\n        /* \"#utility.yul\":6847:6865   */\n      tag_189\n      tag_87\n      jump\t// in\n    tag_189:\n        /* \"#utility.yul\":6791:6875   */\n    tag_188:\n        /* \"#utility.yul\":6612:6881   */\n      pop\n        /* \"#utility.yul\":6561:6881   */\n      swap2\n      swap1\n      pop\n      jump\t// out\n        /* \"#utility.yul\":6887:7028   */\n    tag_88:\n        /* \"#utility.yul\":6936:6940   */\n      0x00\n        /* \"#utility.yul\":6959:6962   */\n      dup2\n        /* \"#utility.yul\":6951:6962   */\n      swap1\n      pop\n        /* \"#utility.yul\":6982:6985   */\n      dup2\n        /* \"#utility.yul\":6979:6980   */\n      0x00\n        /* \"#utility.yul\":6972:6986   */\n      mstore\n        /* \"#utility.yul\":7016:7020   */\n      0x20\n        /* \"#utility.yul\":7013:7014   */\n      0x00\n        /* \"#utility.yul\":7003:7021   */\n      keccak256\n        /* \"#utility.yul\":6995:7021   */\n      swap1\n      pop\n        /* \"#utility.yul\":6887:7028   */\n      swap2\n      swap1\n      pop\n      jump\t// out\n        /* \"#utility.yul\":7034:7127   */\n    tag_89:\n        /* \"#utility.yul\":7071:7077   */\n      0x00\n        /* \"#utility.yul\":7118:7120   */\n      0x20\n        /* \"#utility.yul\":7113:7115   */\n      0x1f\n        /* \"#utility.yul\":7106:7111   */\n      dup4\n        /* \"#utility.yul\":7102:7116   */\n      add\n        /* \"#utility.yul\":7098:7121   */\n      div\n        /* \"#utility.yul\":7088:7121   */\n      swap1\n      pop\n        /* \"#utility.yul\":7034:7127   */\n      swap2\n      swap1\n      pop\n      jump\t// out\n        /* \"#utility.yul\":7133:7240   */\n    tag_90:\n        /* \"#utility.yul\":7177:7185   */\n      0x00\n        /* \"#utility.yul\":7227:7232   */\n      dup3\n        /* \"#utility.yul\":7221:7225   */\n      dup3\n        /* \"#utility.yul\":7217:7233   */\n      shl\n        /* \"#utility.yul\":7196:7233   */\n      swap1\n      pop\n        /* \"#utility.yul\":7133:7240   */\n      swap3\n      swap2\n      pop\n      pop\n      jump\t// out\n        /* \"#utility.yul\":7246:7639   */\n    tag_91:\n        /* \"#utility.yul\":7315:7321   */\n      0x00\n        /* \"#utility.yul\":7365:7366   */\n      0x08\n        /* \"#utility.yul\":7353:7363   */\n      dup4\n        /* \"#utility.yul\":7349:7367   */\n      mul\n        /* \"#utility.yul\":7388:7485   */\n      tag_194\n        /* \"#utility.yul\":7418:7484   */\n      0xffffffffffffffffffffffffffffffffffffffffffffffffffffffffffffffff\n        /* \"#utility.yul\":7407:7416   */\n      dup3\n        /* \"#utility.yul\":7388:7485   */\n      tag_90\n      jump\t// in\n    tag_194:\n        /* \"#utility.yul\":7506:7545   */\n      tag_195\n        /* \"#utility.yul\":7536:7544   */\n      dup7\n        /* \"#utility.yul\":7525:7534   */\n      dup4\n        /* \"#utility.yul\":7506:7545   */\n      tag_90\n      jump\t// in\n    tag_195:\n        /* \"#utility.yul\":7494:7545   */\n      swap6\n      pop\n        /* \"#utility.yul\":7578:7582   */\n      dup1\n        /* \"#utility.yul\":7574:7583   */\n      not\n        /* \"#utility.yul\":7567:7572   */\n      dup5\n        /* \"#utility.yul\":7563:7584   */\n      and\n        /* \"#utility.yul\":7554:7584   */\n      swap4\n      pop\n        /* \"#utility.yul\":7627:7631   */\n      dup1\n        /* \"#utility.yul\":7617:7625   */\n      dup7\n        /* \"#utility.yul\":7613:7632   */\n      and\n        /* \"#utility.yul\":7606:7611   */\n      dup5\n        /* \"#utility.yul\":7603:7633   */\n      or\n        /* \"#utility.yul\":7593:7633   */\n      swap3\n      pop\n        /* \"#utility.yul\":7322:7639   */\n      pop\n      pop\n        /* \"#utility.yul\":7246:7639   */\n      swap4\n      swap3\n      pop\n      pop\n      pop\n      jump\t// out\n        /* \"#utility.yul\":7645:7705   */\n    tag_92:\n        /* \"#utility.yul\":7673:7676   */\n      0x00\n        /* \"#utility.yul\":7694:7699   */\n      dup2\n        /* \"#utility.yul\":7687:7699   */\n      swap1\n      pop\n        /* \"#utility.yul\":7645:7705   */\n      swap2\n      swap1\n      pop\n      jump\t// out\n        /* \"#utility.yul\":7711:7853   */\n    tag_93:\n        /* \"#utility.yul\":7761:7770   */\n      0x00\n        /* \"#utility.yul\":7794:7847   */\n      tag_198\n        /* \"#utility.yul\":7812:7846   */\n      tag_199\n        /* \"#utility.yul\":7821:7845   */\n      tag_200\n        /* \"#utility.yul\":7839:7844   */\n      dup5\n        /* \"#utility.yul\":7821:7845   */\n      tag_83\n      jump\t// in\n    tag_200:\n        /* \"#utility.yul\":7812:7846   */\n      tag_92\n      jump\t// in\n    tag_199:\n        /* \"#utility.yul\":7794:7847   */\n      tag_83\n      jump\t// in\n    tag_198:\n        /* \"#utility.yul\":7781:7847   */\n      swap1\n      pop\n        /* \"#utility.yul\":7711:7853   */\n      swap2\n      swap1\n      pop\n      jump\t// out\n        /* \"#utility.yul\":7859:7934   */\n    tag_94:\n        /* \"#utility.yul\":7902:7905   */\n      0x00\n        /* \"#utility.yul\":7923:7928   */\n      dup2\n        /* \"#utility.yul\":7916:7928   */\n      swap1\n      pop\n        /* \"#utility.yul\":7859:7934   */\n      swap2\n      swap1\n      pop\n      jump\t// out\n        /* \"#utility.yul\":7940:8209   */\n    tag_95:\n        /* \"#utility.yul\":8050:8089   */\n      tag_203\n        /* \"#utility.yul\":8081:8088   */\n      dup4\n        /* \"#utility.yul\":8050:8089   */\n      tag_93\n      jump\t// in\n    tag_203:\n        /* \"#utility.yul\":8111:8202   */\n      tag_204\n        /* \"#utility.yul\":8160:8201   */\n      tag_205\n        /* \"#utility.yul\":8184:8200   */\n      dup3\n        /* \"#utility.yul\":8160:8201   */\n      tag_94\n      jump\t// in\n    tag_205:\n        /* \"#utility.yul\":8152:8158   */\n      dup5\n        /* \"#utility.yul\":8145:8149   */\n      dup5\n        /* \"#utility.yul\":8139:8150   */\n      sload\n        /* \"#utility.yul\":8111:8202   */\n      tag_91\n      jump\t// in\n    tag_204:\n        /* \"#utility.yul\":8105:8109   */\n      dup3\n        /* \"#utility.yul\":8098:8203   */\n      sstore\n        /* \"#utility.yul\":8016:8209   */\n      pop\n        /* \"#utility.yul\":7940:8209   */\n      pop\n      pop\n      pop\n      jump\t// out\n        /* \"#utility.yul\":8215:8288   */\n    tag_96:\n        /* \"#utility.yul\":8260:8263   */\n      0x00\n        /* \"#utility.yul\":8215:8288   */\n      swap1\n      jump\t// out\n        /* \"#utility.yul\":8294:8483   */\n    tag_97:\n        /* \"#utility.yul\":8371:8403   */\n      tag_208\n      tag_96\n      jump\t// in\n    tag_208:\n        /* \"#utility.yul\":8412:8477   */\n      tag_209\n        /* \"#utility.yul\":8470:8476   */\n      dup2\n        /* \"#utility.yul\":8462:8468   */\n      dup5\n        /* \"#utility.yul\":8456:8460   */\n      dup5\n        /* \"#utility.yul\":8412:8477   */\n      tag_95\n      jump\t// in\n    tag_209:\n        /* \"#utility.yul\":8347:8483   */\n      pop\n        /* \"#utility.yul\":8294:8483   */\n      pop\n      pop\n      jump\t// out\n        /* \"#utility.yul\":8489:8675   */\n    tag_98:\n        /* \"#utility.yul\":8549:8669   */\n    tag_211:\n        /* \"#utility.yul\":8566:8569   */\n      dup2\n        /* \"#utility.yul\":8559:8564   */\n      dup2\n        /* \"#utility.yul\":8556:8570   */\n      lt\n        /* \"#utility.yul\":8549:8669   */\n      iszero\n      tag_213\n      jumpi\n        /* \"#utility.yul\":8620:8659   */\n      tag_214\n        /* \"#utility.yul\":8657:8658   */\n      0x00\n        /* \"#utility.yul\":8650:8655   */\n      dup3\n        /* \"#utility.yul\":8620:8659   */\n      tag_97\n      jump\t// in\n    tag_214:\n        /* \"#utility.yul\":8593:8594   */\n      0x01\n        /* \"#utility.yul\":8586:8591   */\n      dup2\n        /* \"#utility.yul\":8582:8595   */\n      add\n        /* \"#utility.yul\":8573:8595   */\n      swap1\n      pop\n        /* \"#utility.yul\":8549:8669   */\n      jump(tag_211)\n    tag_213:\n        /* \"#utility.yul\":8489:8675   */\n      pop\n      pop\n      jump\t// out\n        /* \"#utility.yul\":8681:9224   */\n    tag_99:\n        /* \"#utility.yul\":8782:8784   */\n      0x1f\n        /* \"#utility.yul\":8777:8780   */\n      dup3\n        /* \"#utility.yul\":8774:8785   */\n      gt\n        /* \"#utility.yul\":8771:9217   */\n      iszero\n      tag_216\n      jumpi\n        /* \"#utility.yul\":8816:8854   */\n      tag_217\n        /* \"#utility.yul\":8848:8853   */\n      dup2\n        /* \"#utility.yul\":8816:8854   */\n      tag_88\n      jump\t// in\n    tag_217:\n        /* \"#utility.yul\":8900:8929   */\n      tag_218\n        /* \"#utility.yul\":8918:8928   */\n      dup5\n        /* \"#utility.yul\":8900:8929   */\n      tag_89\n      jump\t// in\n    tag_218:\n        /* \"#utility.yul\":8890:8898   */\n      dup2\n        /* \"#utility.yul\":8886:8930   */\n      add\n        /* \"#utility.yul\":9083:9085   */\n      0x20\n        /* \"#utility.yul\":9071:9081   */\n      dup6\n        /* \"#utility.yul\":9068:9086   */\n      lt\n        /* \"#utility.yul\":9065:9114   */\n      iszero\n      tag_219\n      jumpi\n        /* \"#utility.yul\":9104:9112   */\n      dup2\n        /* \"#utility.yul\":9089:9112   */\n      swap1\n      pop\n        /* \"#utility.yul\":9065:9114   */\n    tag_219:\n        /* \"#utility.yul\":9127:9207   */\n      tag_220\n        /* \"#utility.yul\":9183:9205   */\n      tag_221\n        /* \"#utility.yul\":9201:9204   */\n      dup6\n        /* \"#utility.yul\":9183:9205   */\n      tag_89\n      jump\t// in\n    tag_221:\n        /* \"#utility.yul\":9173:9181   */\n      dup4\n        /* \"#utility.yul\":9169:9206   */\n      add\n        /* \"#utility.yul\":9156:9167   */\n      dup3\n        /* \"#utility.yul\":9127:9207   */\n      tag_98\n      jump\t// in\n    tag_220:\n        /* \"#utility.yul\":8786:9217   */\n      pop\n      pop\n        /* \"#utility.yul\":8771:9217   */\n    tag_216:\n        /* \"#utility.yul\":8681:9224   */\n      pop\n      pop\n      pop\n      jump\t// out\n        /* \"#utility.yul\":9230:9347   */\n    tag_100:\n        /* \"#utility.yul\":9284:9292   */\n      0x00\n        /* \"#utility.yul\":9334:9339   */\n      dup3\n        /* \"#utility.yul\":9328:9332   */\n      dup3\n        /* \"#utility.yul\":9324:9340   */\n      shr\n        /* \"#utility.yul\":9303:9340   */\n      swap1\n      pop\n        /* \"#utility.yul\":9230:9347   */\n      swap3\n      swap2\n      pop\n      pop\n      jump\t// out\n        /* \"#utility.yul\":9353:9522   */\n    tag_101:\n        /* \"#utility.yul\":9397:9403   */\n      0x00\n        /* \"#utility.yul\":9430:9481   */\n      tag_224\n        /* \"#utility.yul\":9478:9479   */\n      0x00\n        /* \"#utility.yul\":9474:9480   */\n      not\n        /* \"#utility.yul\":9466:9471   */\n      dup5\n        /* \"#utility.yul\":9463:9464   */\n      0x08\n        /* \"#utility.yul\":9459:9472   */\n      mul\n        /* \"#utility.yul\":9430:9481   */\n      tag_100\n      jump\t// in\n    tag_224:\n        /* \"#utility.yul\":9426:9482   */\n      not\n        /* \"#utility.yul\":9511:9515   */\n      dup1\n        /* \"#utility.yul\":9505:9509   */\n      dup4\n        /* \"#utility.yul\":9501:9516   */\n      and\n        /* \"#utility.yul\":9491:9516   */\n      swap2\n      pop\n        /* \"#utility.yul\":9404:9522   */\n      pop\n        /* \"#utility.yul\":9353:9522   */\n      swap3\n      swap2\n      pop\n      pop\n      jump\t// out\n        /* \"#utility.yul\":9527:9822   */\n    tag_102:\n        /* \"#utility.yul\":9603:9607   */\n      0x00\n        /* \"#utility.yul\":9749:9778   */\n      tag_226\n        /* \"#utility.yul\":9774:9777   */\n      dup4\n        /* \"#utility.yul\":9768:9772   */\n      dup4\n        /* \"#utility.yul\":9749:9778   */\n      tag_101\n      jump\t// in\n    tag_226:\n        /* \"#utility.yul\":9741:9778   */\n      swap2\n      pop\n        /* \"#utility.yul\":9811:9814   */\n      dup3\n        /* \"#utility.yul\":9808:9809   */\n      0x02\n        /* \"#utility.yul\":9804:9815   */\n      mul\n        /* \"#utility.yul\":9798:9802   */\n      dup3\n        /* \"#utility.yul\":9795:9816   */\n      or\n        /* \"#utility.yul\":9787:9816   */\n      swap1\n      pop\n        /* \"#utility.yul\":9527:9822   */\n      swap3\n      swap2\n      pop\n      pop\n      jump\t// out\n        /* \"#utility.yul\":9827:11222   */\n    tag_35:\n        /* \"#utility.yul\":9944:9981   */\n      tag_228\n        /* \"#utility.yul\":9977:9980   */\n      dup3\n        /* \"#utility.yul\":9944:9981   */\n      tag_75\n      jump\t// in\n    tag_228:\n        /* \"#utility.yul\":10046:10064   */\n      0xffffffffffffffff\n        /* \"#utility.yul\":10038:10044   */\n      dup2\n        /* \"#utility.yul\":10035:10065   */\n      gt\n        /* \"#utility.yul\":10032:10088   */\n      iszero\n      tag_229\n      jumpi\n        /* \"#utility.yul\":10068:10086   */\n      tag_230\n      tag_68\n      jump\t// in\n    tag_230:\n        /* \"#utility.yul\":10032:10088   */\n    tag_229:\n        /* \"#utility.yul\":10112:10150   */\n      tag_231\n        /* \"#utility.yul\":10144:10148   */\n      dup3\n        /* \"#utility.yul\":10138:10149   */\n      sload\n        /* \"#utility.yul\":10112:10150   */\n      tag_38\n      jump\t// in\n    tag_231:\n        /* \"#utility.yul\":10197:10264   */\n      tag_232\n        /* \"#utility.yul\":10257:10263   */\n      dup3\n        /* \"#utility.yul\":10249:10255   */\n      dup3\n        /* \"#utility.yul\":10243:10247   */\n      dup6\n        /* \"#utility.yul\":10197:10264   */\n      tag_99\n      jump\t// in\n    tag_232:\n        /* \"#utility.yul\":10291:10292   */\n      0x00\n        /* \"#utility.yul\":10315:10319   */\n      0x20\n        /* \"#utility.yul\":10302:10319   */\n      swap1\n      pop\n        /* \"#utility.yul\":10347:10349   */\n      0x1f\n        /* \"#utility.yul\":10339:10345   */\n      dup4\n        /* \"#utility.yul\":10336:10350   */\n      gt\n        /* \"#utility.yul\":10364:10365   */\n      0x01\n        /* \"#utility.yul\":10359:10977   */\n      dup2\n      eq\n      tag_234\n      jumpi\n        /* \"#utility.yul\":11021:11022   */\n      0x00\n        /* \"#utility.yul\":11038:11044   */\n      dup5\n        /* \"#utility.yul\":11035:11112   */\n      iszero\n      tag_235\n      jumpi\n        /* \"#utility.yul\":11087:11096   */\n      dup3\n        /* \"#utility.yul\":11082:11085   */\n      dup8\n        /* \"#utility.yul\":11078:11097   */\n      add\n        /* \"#utility.yul\":11072:11098   */\n      mload\n        /* \"#utility.yul\":11063:11098   */\n      swap1\n      pop\n        /* \"#utility.yul\":11035:11112   */\n    tag_235:\n        /* \"#utility.yul\":11138:11205   */\n      tag_236\n        /* \"#utility.yul\":11198:11204   */\n      dup6\n        /* \"#utility.yul\":11191:11196   */\n      dup3\n        /* \"#utility.yul\":11138:11205   */\n      tag_102\n      jump\t// in\n    tag_236:\n        /* \"#utility.yul\":11132:11136   */\n      dup7\n        /* \"#utility.yul\":11125:11206   */\n      sstore\n        /* \"#utility.yul\":10994:11216   */\n      pop\n        /* \"#utility.yul\":10329:11216   */\n      jump(tag_233)\n        /* \"#utility.yul\":10359:10977   */\n    tag_234:\n        /* \"#utility.yul\":10411:10415   */\n      0x1f\n        /* \"#utility.yul\":10407:10416   */\n      not\n        /* \"#utility.yul\":10399:10405   */\n      dup5\n        /* \"#utility.yul\":10395:10417   */\n      and\n        /* \"#utility.yul\":10445:10482   */\n      tag_237\n        /* \"#utility.yul\":10477:10481   */\n      dup7\n        /* \"#utility.yul\":10445:10482   */\n      tag_88\n      jump\t// in\n    tag_237:\n        /* \"#utility.yul\":10504:10505   */\n      0x00\n        /* \"#utility.yul\":10518:10726   */\n    tag_238:\n        /* \"#utility.yul\":10532:10539   */\n      dup3\n        /* \"#utility.yul\":10529:10530   */\n      dup2\n        /* \"#utility.yul\":10526:10540   */\n      lt\n        /* \"#utility.yul\":10518:10726   */\n      iszero\n      tag_240\n      jumpi\n        /* \"#utility.yul\":10611:10620   */\n      dup5\n        /* \"#utility.yul\":10606:10609   */\n      dup10\n        /* \"#utility.yul\":10602:10621   */\n      add\n        /* \"#utility.yul\":10596:10622   */\n      mload\n        /* \"#utility.yul\":10588:10594   */\n      dup3\n        /* \"#utility.yul\":10581:10623   */\n      sstore\n        /* \"#utility.yul\":10662:10663   */\n      0x01\n        /* \"#utility.yul\":10654:10660   */\n      dup3\n        /* \"#utility.yul\":10650:10664   */\n      add\n        /* \"#utility.yul\":10640:10664   */\n      swap2\n      pop\n        /* \"#utility.yul\":10709:10711   */\n      0x20\n        /* \"#utility.yul\":10698:10707   */\n      dup6\n        /* \"#utility.yul\":10694:10712   */\n      add\n        /* \"#utility.yul\":10681:10712   */\n      swap5\n      pop\n        /* \"#utility.yul\":10555:10559   */\n      0x20\n        /* \"#utility.yul\":10552:10553   */\n      dup2\n        /* \"#utility.yul\":10548:10560   */\n      add\n        /* \"#utility.yul\":10543:10560   */\n      swap1\n      pop\n        /* \"#utility.yul\":10518:10726   */\n      jump(tag_238)\n    tag_240:\n        /* \"#utility.yul\":10754:10760   */\n      dup7\n        /* \"#utility.yul\":10745:10752   */\n      dup4\n        /* \"#utility.yul\":10742:10761   */\n      lt\n        /* \"#utility.yul\":10739:10918   */\n      iszero\n      tag_241\n      jumpi\n        /* \"#utility.yul\":10812:10821   */\n      dup5\n        /* \"#utility.yul\":10807:10810   */\n      dup10\n        /* \"#utility.yul\":10803:10822   */\n      add\n        /* \"#utility.yul\":10797:10823   */\n      mload\n        /* \"#utility.yul\":10855:10903   */\n      tag_242\n        /* \"#utility.yul\":10897:10901   */\n      0x1f\n        /* \"#utility.yul\":10889:10895   */\n      dup10\n        /* \"#utility.yul\":10885:10902   */\n      and\n        /* \"#utility.yul\":10874:10883   */\n      dup3\n        /* \"#utility.yul\":10855:10903   */\n      tag_101\n      jump\t// in\n    tag_242:\n        /* \"#utility.yul\":10847:10853   */\n      dup4\n        /* \"#utility.yul\":10840:10904   */\n      sstore\n        /* \"#utility.yul\":10762:10918   */\n      pop\n        /* \"#utility.yul\":10739:10918   */\n    tag_241:\n        /* \"#utility.yul\":10964:10965   */\n      0x01\n        /* \"#utility.yul\":10960:10961   */\n      0x02\n        /* \"#utility.yul\":10952:10958   */\n      dup9\n        /* \"#utility.yul\":10948:10962   */\n      mul\n        /* \"#utility.yul\":10944:10966   */\n      add\n        /* \"#utility.yul\":10938:10942   */\n      dup9\n        /* \"#utility.yul\":10931:10967   */\n      sstore\n        /* \"#utility.yul\":10366:10977   */\n      pop\n      pop\n      pop\n        /* \"#utility.yul\":10329:11216   */\n    tag_233:\n      pop\n        /* \"#utility.yul\":9919:11222   */\n      pop\n      pop\n      pop\n        /* \"#utility.yul\":9827:11222   */\n      pop\n      pop\n      jump\t// out\n        /* \"#utility.yul\":11228:11407   */\n    tag_103:\n        /* \"#utility.yul\":11368:11399   */\n      0x496e73756666696369656e742066756e6420746f207472616e73666572000000\n        /* \"#utility.yul\":11364:11365   */\n      0x00\n        /* \"#utility.yul\":11356:11362   */\n      dup3\n        /* \"#utility.yul\":11352:11366   */\n      add\n        /* \"#utility.yul\":11345:11400   */\n      mstore\n        /* \"#utility.yul\":11228:11407   */\n      pop\n      jump\t// out\n        /* \"#utility.yul\":11413:11779   */\n    tag_104:\n        /* \"#utility.yul\":11555:11558   */\n      0x00\n        /* \"#utility.yul\":11576:11643   */\n      tag_245\n        /* \"#utility.yul\":11640:11642   */\n      0x1d\n        /* \"#utility.yul\":11635:11638   */\n      dup4\n        /* \"#utility.yul\":11576:11643   */\n      tag_76\n      jump\t// in\n    tag_245:\n        /* \"#utility.yul\":11569:11643   */\n      swap2\n      pop\n        /* \"#utility.yul\":11652:11745   */\n      tag_246\n        /* \"#utility.yul\":11741:11744   */\n      dup3\n        /* \"#utility.yul\":11652:11745   */\n      tag_103\n      jump\t// in\n    tag_246:\n        /* \"#utility.yul\":11770:11772   */\n      0x20\n        /* \"#utility.yul\":11765:11768   */\n      dup3\n        /* \"#utility.yul\":11761:11773   */\n      add\n        /* \"#utility.yul\":11754:11773   */\n      swap1\n      pop\n        /* \"#utility.yul\":11413:11779   */\n      swap2\n      swap1\n      pop\n      jump\t// out\n        /* \"#utility.yul\":11785:12204   */\n    tag_53:\n        /* \"#utility.yul\":11951:11955   */\n      0x00\n        /* \"#utility.yul\":11989:11991   */\n      0x20\n        /* \"#utility.yul\":11978:11987   */\n      dup3\n        /* \"#utility.yul\":11974:11992   */\n      add\n        /* \"#utility.yul\":11966:11992   */\n      swap1\n      pop\n        /* \"#utility.yul\":12038:12047   */\n      dup2\n        /* \"#utility.yul\":12032:12036   */\n      dup2\n        /* \"#utility.yul\":12028:12048   */\n      sub\n        /* \"#utility.yul\":12024:12025   */\n      0x00\n        /* \"#utility.yul\":12013:12022   */\n      dup4\n        /* \"#utility.yul\":12009:12026   */\n      add\n        /* \"#utility.yul\":12002:12049   */\n      mstore\n        /* \"#utility.yul\":12066:12197   */\n      tag_248\n        /* \"#utility.yul\":12192:12196   */\n      dup2\n        /* \"#utility.yul\":12066:12197   */\n      tag_104\n      jump\t// in\n    tag_248:\n        /* \"#utility.yul\":12058:12197   */\n      swap1\n      pop\n        /* \"#utility.yul\":11785:12204   */\n      swap2\n      swap1\n      pop\n      jump\t// out\n        /* \"#utility.yul\":12210:12387   */\n    tag_105:\n        /* \"#utility.yul\":12350:12379   */\n      0x596f752063616e6e6f742073656e6420746f20796f757273656c660000000000\n        /* \"#utility.yul\":12346:12347   */\n      0x00\n        /* \"#utility.yul\":12338:12344   */\n      dup3\n        /* \"#utility.yul\":12334:12348   */\n      add\n        /* \"#utility.yul\":12327:12380   */\n      mstore\n        /* \"#utility.yul\":12210:12387   */\n      pop\n      jump\t// out\n        /* \"#utility.yul\":12393:12759   */\n    tag_106:\n        /* \"#utility.yul\":12535:12538   */\n      0x00\n        /* \"#utility.yul\":12556:12623   */\n      tag_251\n        /* \"#utility.yul\":12620:12622   */\n      0x1b\n        /* \"#utility.yul\":12615:12618   */\n      dup4\n        /* \"#utility.yul\":12556:12623   */\n      tag_76\n      jump\t// in\n    tag_251:\n        /* \"#utility.yul\":12549:12623   */\n      swap2\n      pop\n        /* \"#utility.yul\":12632:12725   */\n      tag_252\n        /* \"#utility.yul\":12721:12724   */\n      dup3\n        /* \"#utility.yul\":12632:12725   */\n      tag_105\n      jump\t// in\n    tag_252:\n        /* \"#utility.yul\":12750:12752   */\n      0x20\n        /* \"#utility.yul\":12745:12748   */\n      dup3\n        /* \"#utility.yul\":12741:12753   */\n      add\n        /* \"#utility.yul\":12734:12753   */\n      swap1\n      pop\n        /* \"#utility.yul\":12393:12759   */\n      swap2\n      swap1\n      pop\n      jump\t// out\n        /* \"#utility.yul\":12765:13184   */\n    tag_56:\n        /* \"#utility.yul\":12931:12935   */\n      0x00\n        /* \"#utility.yul\":12969:12971   */\n      0x20\n        /* \"#utility.yul\":12958:12967   */\n      dup3\n        /* \"#utility.yul\":12954:12972   */\n      add\n        /* \"#utility.yul\":12946:12972   */\n      swap1\n      pop\n        /* \"#utility.yul\":13018:13027   */\n      dup2\n        /* \"#utility.yul\":13012:13016   */\n      dup2\n        /* \"#utility.yul\":13008:13028   */\n      sub\n        /* \"#utility.yul\":13004:13005   */\n      0x00\n        /* \"#utility.yul\":12993:13002   */\n      dup4\n        /* \"#utility.yul\":12989:13006   */\n      add\n        /* \"#utility.yul\":12982:13029   */\n      mstore\n        /* \"#utility.yul\":13046:13177   */\n      tag_254\n        /* \"#utility.yul\":13172:13176   */\n      dup2\n        /* \"#utility.yul\":13046:13177   */\n      tag_106\n      jump\t// in\n    tag_254:\n        /* \"#utility.yul\":13038:13177   */\n      swap1\n      pop\n        /* \"#utility.yul\":12765:13184   */\n      swap2\n      swap1\n      pop\n      jump\t// out\n        /* \"#utility.yul\":13190:13370   */\n    tag_107:\n        /* \"#utility.yul\":13238:13315   */\n      0x4e487b7100000000000000000000000000000000000000000000000000000000\n        /* \"#utility.yul\":13235:13236   */\n      0x00\n        /* \"#utility.yul\":13228:13316   */\n      mstore\n        /* \"#utility.yul\":13335:13339   */\n      0x11\n        /* \"#utility.yul\":13332:13333   */\n      0x04\n        /* \"#utility.yul\":13325:13340   */\n      mstore\n        /* \"#utility.yul\":13359:13363   */\n      0x24\n        /* \"#utility.yul\":13356:13357   */\n      0x00\n        /* \"#utility.yul\":13349:13364   */\n      revert\n        /* \"#utility.yul\":13376:13567   */\n    tag_58:\n        /* \"#utility.yul\":13416:13420   */\n      0x00\n        /* \"#utility.yul\":13436:13456   */\n      tag_257\n        /* \"#utility.yul\":13454:13455   */\n      dup3\n        /* \"#utility.yul\":13436:13456   */\n      tag_83\n      jump\t// in\n    tag_257:\n        /* \"#utility.yul\":13431:13456   */\n      swap2\n      pop\n        /* \"#utility.yul\":13470:13490   */\n      tag_258\n        /* \"#utility.yul\":13488:13489   */\n      dup4\n        /* \"#utility.yul\":13470:13490   */\n      tag_83\n      jump\t// in\n    tag_258:\n        /* \"#utility.yul\":13465:13490   */\n      swap3\n      pop\n        /* \"#utility.yul\":13509:13510   */\n      dup3\n        /* \"#utility.yul\":13506:13507   */\n      dup3\n        /* \"#utility.yul\":13503:13511   */\n      lt\n        /* \"#utility.yul\":13500:13534   */\n      iszero\n      tag_259\n      jumpi\n        /* \"#utility.yul\":13514:13532   */\n      tag_260\n      tag_107\n      jump\t// in\n    tag_260:\n        /* \"#utility.yul\":13500:13534   */\n    tag_259:\n        /* \"#utility.yul\":13559:13560   */\n      dup3\n        /* \"#utility.yul\":13556:13557   */\n      dup3\n        /* \"#utility.yul\":13552:13561   */\n      sub\n        /* \"#utility.yul\":13544:13561   */\n      swap1\n      pop\n        /* \"#utility.yul\":13376:13567   */\n      swap3\n      swap2\n      pop\n      pop\n      jump\t// out\n        /* \"#utility.yul\":13573:13878   */\n    tag_60:\n        /* \"#utility.yul\":13613:13616   */\n      0x00\n        /* \"#utility.yul\":13632:13652   */\n      tag_262\n        /* \"#utility.yul\":13650:13651   */\n      dup3\n        /* \"#utility.yul\":13632:13652   */\n      tag_83\n      jump\t// in\n    tag_262:\n        /* \"#utility.yul\":13627:13652   */\n      swap2\n      pop\n        /* \"#utility.yul\":13666:13686   */\n      tag_263\n        /* \"#utility.yul\":13684:13685   */\n      dup4\n        /* \"#utility.yul\":13666:13686   */\n      tag_83\n      jump\t// in\n    tag_263:\n        /* \"#utility.yul\":13661:13686   */\n      swap3\n      pop\n        /* \"#utility.yul\":13820:13821   */\n      dup3\n        /* \"#utility.yul\":13752:13818   */\n      0xffffffffffffffffffffffffffffffffffffffffffffffffffffffffffffffff\n        /* \"#utility.yul\":13748:13822   */\n      sub\n        /* \"#utility.yul\":13745:13746   */\n      dup3\n        /* \"#utility.yul\":13742:13823   */\n      gt\n        /* \"#utility.yul\":13739:13846   */\n      iszero\n      tag_264\n      jumpi\n        /* \"#utility.yul\":13826:13844   */\n      tag_265\n      tag_107\n      jump\t// in\n    tag_265:\n        /* \"#utility.yul\":13739:13846   */\n    tag_264:\n        /* \"#utility.yul\":13870:13871   */\n      dup3\n        /* \"#utility.yul\":13867:13868   */\n      dup3\n        /* \"#utility.yul\":13863:13872   */\n      add\n        /* \"#utility.yul\":13856:13872   */\n      swap1\n      pop\n        /* \"#utility.yul\":13573:13878   */\n      swap3\n      swap2\n      pop\n      pop\n      jump\t// out\n\n    auxdata: 0xa2646970667358221220dc5fac1395c93c81106b0667fb298c187074b87b74db351cbe9b066357b979e864736f6c634300080f0033\n}\n",
				"bytecode": {
					"linkReferences": {},
					"object": "60806040523480156200001157600080fd5b506040516200130638038062001306833981810160405281019062000037919062000286565b826002908162000048919062000561565b5081600390816200005a919062000561565b5080600481905550806000803373ffffffffffffffffffffffffffffffffffffffff1673ffffffffffffffffffffffffffffffffffffffff1681526020019081526020016000208190555050505062000648565b6000604051905090565b600080fd5b600080fd5b600080fd5b600080fd5b6000601f19601f8301169050919050565b7f4e487b7100000000000000000000000000000000000000000000000000000000600052604160045260246000fd5b6200011782620000cc565b810181811067ffffffffffffffff82111715620001395762000138620000dd565b5b80604052505050565b60006200014e620000ae565b90506200015c82826200010c565b919050565b600067ffffffffffffffff8211156200017f576200017e620000dd565b5b6200018a82620000cc565b9050602081019050919050565b60005b83811015620001b75780820151818401526020810190506200019a565b83811115620001c7576000848401525b50505050565b6000620001e4620001de8462000161565b62000142565b905082815260208101848484011115620002035762000202620000c7565b5b6200021084828562000197565b509392505050565b600082601f83011262000230576200022f620000c2565b5b815162000242848260208601620001cd565b91505092915050565b6000819050919050565b62000260816200024b565b81146200026c57600080fd5b50565b600081519050620002808162000255565b92915050565b600080600060608486031215620002a257620002a1620000b8565b5b600084015167ffffffffffffffff811115620002c357620002c2620000bd565b5b620002d18682870162000218565b935050602084015167ffffffffffffffff811115620002f557620002f4620000bd565b5b620003038682870162000218565b925050604062000316868287016200026f565b9150509250925092565b600081519050919050565b7f4e487b7100000000000000000000000000000000000000000000000000000000600052602260045260246000fd5b600060028204905060018216806200037357607f821691505b6020821081036200038957620003886200032b565b5b50919050565b60008190508160005260206000209050919050565b60006020601f8301049050919050565b600082821b905092915050565b600060088302620003f37fffffffffffffffffffffffffffffffffffffffffffffffffffffffffffffffff82620003b4565b620003ff8683620003b4565b95508019841693508086168417925050509392505050565b6000819050919050565b6000620004426200043c62000436846200024b565b62000417565b6200024b565b9050919050565b6000819050919050565b6200045e8362000421565b620004766200046d8262000449565b848454620003c1565b825550505050565b600090565b6200048d6200047e565b6200049a81848462000453565b505050565b5b81811015620004c257620004b660008262000483565b600181019050620004a0565b5050565b601f8211156200051157620004db816200038f565b620004e684620003a4565b81016020851015620004f6578190505b6200050e6200050585620003a4565b8301826200049f565b50505b505050565b600082821c905092915050565b6000620005366000198460080262000516565b1980831691505092915050565b600062000551838362000523565b9150826002028217905092915050565b6200056c8262000320565b67ffffffffffffffff811115620005885762000587620000dd565b5b6200059482546200035a565b620005a1828285620004c6565b600060209050601f831160018114620005d95760008415620005c4578287015190505b620005d0858262000543565b86555062000640565b601f198416620005e9866200038f565b60005b828110156200061357848901518255600182019150602085019450602081019050620005ec565b868310156200063357848901516200062f601f89168262000523565b8355505b6001600288020188555050505b505050505050565b610cae80620006586000396000f3fe608060405234801561001057600080fd5b50600436106100625760003560e01c80630bdfeca514610067578063150704011461008357806317d7de7c146100a157806370a08231146100bf578063a9059cbb146100ef578063c4e41b221461010b575b600080fd5b610081600480360381019061007c91906105eb565b610129565b005b61008b610179565b60405161009891906106bc565b60405180910390f35b6100a961020b565b6040516100b691906106bc565b60405180910390f35b6100d960048036038101906100d4919061073c565b61029d565b6040516100e69190610782565b60405180910390f35b610109600480360381019061010491906107c9565b6102e5565b005b610113610487565b6040516101209190610782565b60405180910390f35b80600160003373ffffffffffffffffffffffffffffffffffffffff1673ffffffffffffffffffffffffffffffffffffffff16815260200190815260200160002090816101759190610a15565b5050565b60606003805461018890610838565b80601f01602080910402602001604051908101604052809291908181526020018280546101b490610838565b80156102015780601f106101d657610100808354040283529160200191610201565b820191906000526020600020905b8154815290600101906020018083116101e457829003601f168201915b5050505050905090565b60606002805461021a90610838565b80601f016020809104026020016040519081016040528092919081815260200182805461024690610838565b80156102935780601f1061026857610100808354040283529160200191610293565b820191906000526020600020905b81548152906001019060200180831161027657829003601f168201915b5050505050905090565b60008060008373ffffffffffffffffffffffffffffffffffffffff1673ffffffffffffffffffffffffffffffffffffffff168152602001908152602001600020549050919050565b600033905060008060008373ffffffffffffffffffffffffffffffffffffffff1673ffffffffffffffffffffffffffffffffffffffff16815260200190815260200160002054905082811015610370576040517f08c379a000000000000000000000000000000000000000000000000000000000815260040161036790610b33565b60405180910390fd5b8173ffffffffffffffffffffffffffffffffffffffff168473ffffffffffffffffffffffffffffffffffffffff16036103de576040517f08c379a00000000000000000000000000000000000000000000000000000000081526004016103d590610b9f565b60405180910390fd5b82816103ea9190610bee565b6000808473ffffffffffffffffffffffffffffffffffffffff1673ffffffffffffffffffffffffffffffffffffffff16815260200190815260200160002081905550826000808673ffffffffffffffffffffffffffffffffffffffff1673ffffffffffffffffffffffffffffffffffffffff168152602001908152602001600020600082825461047a9190610c22565b9250508190555050505050565b6000600454905090565b6000604051905090565b600080fd5b600080fd5b600080fd5b600080fd5b6000601f19601f8301169050919050565b7f4e487b7100000000000000000000000000000000000000000000000000000000600052604160045260246000fd5b6104f8826104af565b810181811067ffffffffffffffff82111715610517576105166104c0565b5b80604052505050565b600061052a610491565b905061053682826104ef565b919050565b600067ffffffffffffffff821115610556576105556104c0565b5b61055f826104af565b9050602081019050919050565b82818337600083830152505050565b600061058e6105898461053b565b610520565b9050828152602081018484840111156105aa576105a96104aa565b5b6105b584828561056c565b509392505050565b600082601f8301126105d2576105d16104a5565b5b81356105e284826020860161057b565b91505092915050565b6000602082840312156106015761060061049b565b5b600082013567ffffffffffffffff81111561061f5761061e6104a0565b5b61062b848285016105bd565b91505092915050565b600081519050919050565b600082825260208201905092915050565b60005b8381101561066e578082015181840152602081019050610653565b8381111561067d576000848401525b50505050565b600061068e82610634565b610698818561063f565b93506106a8818560208601610650565b6106b1816104af565b840191505092915050565b600060208201905081810360008301526106d68184610683565b905092915050565b600073ffffffffffffffffffffffffffffffffffffffff82169050919050565b6000610709826106de565b9050919050565b610719816106fe565b811461072457600080fd5b50565b60008135905061073681610710565b92915050565b6000602082840312156107525761075161049b565b5b600061076084828501610727565b91505092915050565b6000819050919050565b61077c81610769565b82525050565b60006020820190506107976000830184610773565b92915050565b6107a681610769565b81146107b157600080fd5b50565b6000813590506107c38161079d565b92915050565b600080604083850312156107e0576107df61049b565b5b60006107ee85828601610727565b92505060206107ff858286016107b4565b9150509250929050565b7f4e487b7100000000000000000000000000000000000000000000000000000000600052602260045260246000fd5b6000600282049050600182168061085057607f821691505b60208210810361086357610862610809565b5b50919050565b60008190508160005260206000209050919050565b60006020601f8301049050919050565b600082821b905092915050565b6000600883026108cb7fffffffffffffffffffffffffffffffffffffffffffffffffffffffffffffffff8261088e565b6108d5868361088e565b95508019841693508086168417925050509392505050565b6000819050919050565b600061091261090d61090884610769565b6108ed565b610769565b9050919050565b6000819050919050565b61092c836108f7565b61094061093882610919565b84845461089b565b825550505050565b600090565b610955610948565b610960818484610923565b505050565b5b818110156109845761097960008261094d565b600181019050610966565b5050565b601f8211156109c95761099a81610869565b6109a38461087e565b810160208510156109b2578190505b6109c66109be8561087e565b830182610965565b50505b505050565b600082821c905092915050565b60006109ec600019846008026109ce565b1980831691505092915050565b6000610a0583836109db565b9150826002028217905092915050565b610a1e82610634565b67ffffffffffffffff811115610a3757610a366104c0565b5b610a418254610838565b610a4c828285610988565b600060209050601f831160018114610a7f5760008415610a6d578287015190505b610a7785826109f9565b865550610adf565b601f198416610a8d86610869565b60005b82811015610ab557848901518255600182019150602085019450602081019050610a90565b86831015610ad25784890151610ace601f8916826109db565b8355505b6001600288020188555050505b505050505050565b7f496e73756666696369656e742066756e6420746f207472616e73666572000000600082015250565b6000610b1d601d8361063f565b9150610b2882610ae7565b602082019050919050565b60006020820190508181036000830152610b4c81610b10565b9050919050565b7f596f752063616e6e6f742073656e6420746f20796f757273656c660000000000600082015250565b6000610b89601b8361063f565b9150610b9482610b53565b602082019050919050565b60006020820190508181036000830152610bb881610b7c565b9050919050565b7f4e487b7100000000000000000000000000000000000000000000000000000000600052601160045260246000fd5b6000610bf982610769565b9150610c0483610769565b925082821015610c1757610c16610bbf565b5b828203905092915050565b6000610c2d82610769565b9150610c3883610769565b9250827fffffffffffffffffffffffffffffffffffffffffffffffffffffffffffffffff03821115610c6d57610c6c610bbf565b5b82820190509291505056fea2646970667358221220dc5fac1395c93c81106b0667fb298c187074b87b74db351cbe9b066357b979e864736f6c634300080f0033",
					"opcodes": "PUSH1 0x80 PUSH1 0x40 MSTORE CALLVALUE DUP1 ISZERO PUSH3 0x11 JUMPI PUSH1 0x0 DUP1 REVERT JUMPDEST POP PUSH1 0x40 MLOAD PUSH3 0x1306 CODESIZE SUB DUP1 PUSH3 0x1306 DUP4 CODECOPY DUP2 DUP2 ADD PUSH1 0x40 MSTORE DUP2 ADD SWAP1 PUSH3 0x37 SWAP2 SWAP1 PUSH3 0x286 JUMP JUMPDEST DUP3 PUSH1 0x2 SWAP1 DUP2 PUSH3 0x48 SWAP2 SWAP1 PUSH3 0x561 JUMP JUMPDEST POP DUP2 PUSH1 0x3 SWAP1 DUP2 PUSH3 0x5A SWAP2 SWAP1 PUSH3 0x561 JUMP JUMPDEST POP DUP1 PUSH1 0x4 DUP2 SWAP1 SSTORE POP DUP1 PUSH1 0x0 DUP1 CALLER PUSH20 0xFFFFFFFFFFFFFFFFFFFFFFFFFFFFFFFFFFFFFFFF AND PUSH20 0xFFFFFFFFFFFFFFFFFFFFFFFFFFFFFFFFFFFFFFFF AND DUP2 MSTORE PUSH1 0x20 ADD SWAP1 DUP2 MSTORE PUSH1 0x20 ADD PUSH1 0x0 KECCAK256 DUP2 SWAP1 SSTORE POP POP POP POP PUSH3 0x648 JUMP JUMPDEST PUSH1 0x0 PUSH1 0x40 MLOAD SWAP1 POP SWAP1 JUMP JUMPDEST PUSH1 0x0 DUP1 REVERT JUMPDEST PUSH1 0x0 DUP1 REVERT JUMPDEST PUSH1 0x0 DUP1 REVERT JUMPDEST PUSH1 0x0 DUP1 REVERT JUMPDEST PUSH1 0x0 PUSH1 0x1F NOT PUSH1 0x1F DUP4 ADD AND SWAP1 POP SWAP2 SWAP1 POP JUMP JUMPDEST PUSH32 0x4E487B7100000000000000000000000000000000000000000000000000000000 PUSH1 0x0 MSTORE PUSH1 0x41 PUSH1 0x4 MSTORE PUSH1 0x24 PUSH1 0x0 REVERT JUMPDEST PUSH3 0x117 DUP3 PUSH3 0xCC JUMP JUMPDEST DUP2 ADD DUP2 DUP2 LT PUSH8 0xFFFFFFFFFFFFFFFF DUP3 GT OR ISZERO PUSH3 0x139 JUMPI PUSH3 0x138 PUSH3 0xDD JUMP JUMPDEST JUMPDEST DUP1 PUSH1 0x40 MSTORE POP POP POP JUMP JUMPDEST PUSH1 0x0 PUSH3 0x14E PUSH3 0xAE JUMP JUMPDEST SWAP1 POP PUSH3 0x15C DUP3 DUP3 PUSH3 0x10C JUMP JUMPDEST SWAP2 SWAP1 POP JUMP JUMPDEST PUSH1 0x0 PUSH8 0xFFFFFFFFFFFFFFFF DUP3 GT ISZERO PUSH3 0x17F JUMPI PUSH3 0x17E PUSH3 0xDD JUMP JUMPDEST JUMPDEST PUSH3 0x18A DUP3 PUSH3 0xCC JUMP JUMPDEST SWAP1 POP PUSH1 0x20 DUP2 ADD SWAP1 POP SWAP2 SWAP1 POP JUMP JUMPDEST PUSH1 0x0 JUMPDEST DUP4 DUP2 LT ISZERO PUSH3 0x1B7 JUMPI DUP1 DUP3 ADD MLOAD DUP2 DUP5 ADD MSTORE PUSH1 0x20 DUP2 ADD SWAP1 POP PUSH3 0x19A JUMP JUMPDEST DUP4 DUP2 GT ISZERO PUSH3 0x1C7 JUMPI PUSH1 0x0 DUP5 DUP5 ADD MSTORE JUMPDEST POP POP POP POP JUMP JUMPDEST PUSH1 0x0 PUSH3 0x1E4 PUSH3 0x1DE DUP5 PUSH3 0x161 JUMP JUMPDEST PUSH3 0x142 JUMP JUMPDEST SWAP1 POP DUP3 DUP2 MSTORE PUSH1 0x20 DUP2 ADD DUP5 DUP5 DUP5 ADD GT ISZERO PUSH3 0x203 JUMPI PUSH3 0x202 PUSH3 0xC7 JUMP JUMPDEST JUMPDEST PUSH3 0x210 DUP5 DUP3 DUP6 PUSH3 0x197 JUMP JUMPDEST POP SWAP4 SWAP3 POP POP POP JUMP JUMPDEST PUSH1 0x0 DUP3 PUSH1 0x1F DUP4 ADD SLT PUSH3 0x230 JUMPI PUSH3 0x22F PUSH3 0xC2 JUMP JUMPDEST JUMPDEST DUP2 MLOAD PUSH3 0x242 DUP5 DUP3 PUSH1 0x20 DUP7 ADD PUSH3 0x1CD JUMP JUMPDEST SWAP2 POP POP SWAP3 SWAP2 POP POP JUMP JUMPDEST PUSH1 0x0 DUP2 SWAP1 POP SWAP2 SWAP1 POP JUMP JUMPDEST PUSH3 0x260 DUP2 PUSH3 0x24B JUMP JUMPDEST DUP2 EQ PUSH3 0x26C JUMPI PUSH1 0x0 DUP1 REVERT JUMPDEST POP JUMP JUMPDEST PUSH1 0x0 DUP2 MLOAD SWAP1 POP PUSH3 0x280 DUP2 PUSH3 0x255 JUMP JUMPDEST SWAP3 SWAP2 POP POP JUMP JUMPDEST PUSH1 0x0 DUP1 PUSH1 0x0 PUSH1 0x60 DUP5 DUP7 SUB SLT ISZERO PUSH3 0x2A2 JUMPI PUSH3 0x2A1 PUSH3 0xB8 JUMP JUMPDEST JUMPDEST PUSH1 0x0 DUP5 ADD MLOAD PUSH8 0xFFFFFFFFFFFFFFFF DUP2 GT ISZERO PUSH3 0x2C3 JUMPI PUSH3 0x2C2 PUSH3 0xBD JUMP JUMPDEST JUMPDEST PUSH3 0x2D1 DUP7 DUP3 DUP8 ADD PUSH3 0x218 JUMP JUMPDEST SWAP4 POP POP PUSH1 0x20 DUP5 ADD MLOAD PUSH8 0xFFFFFFFFFFFFFFFF DUP2 GT ISZERO PUSH3 0x2F5 JUMPI PUSH3 0x2F4 PUSH3 0xBD JUMP JUMPDEST JUMPDEST PUSH3 0x303 DUP7 DUP3 DUP8 ADD PUSH3 0x218 JUMP JUMPDEST SWAP3 POP POP PUSH1 0x40 PUSH3 0x316 DUP7 DUP3 DUP8 ADD PUSH3 0x26F JUMP JUMPDEST SWAP2 POP POP SWAP3 POP SWAP3 POP SWAP3 JUMP JUMPDEST PUSH1 0x0 DUP2 MLOAD SWAP1 POP SWAP2 SWAP1 POP JUMP JUMPDEST PUSH32 0x4E487B7100000000000000000000000000000000000000000000000000000000 PUSH1 0x0 MSTORE PUSH1 0x22 PUSH1 0x4 MSTORE PUSH1 0x24 PUSH1 0x0 REVERT JUMPDEST PUSH1 0x0 PUSH1 0x2 DUP3 DIV SWAP1 POP PUSH1 0x1 DUP3 AND DUP1 PUSH3 0x373 JUMPI PUSH1 0x7F DUP3 AND SWAP2 POP JUMPDEST PUSH1 0x20 DUP3 LT DUP2 SUB PUSH3 0x389 JUMPI PUSH3 0x388 PUSH3 0x32B JUMP JUMPDEST JUMPDEST POP SWAP2 SWAP1 POP JUMP JUMPDEST PUSH1 0x0 DUP2 SWAP1 POP DUP2 PUSH1 0x0 MSTORE PUSH1 0x20 PUSH1 0x0 KECCAK256 SWAP1 POP SWAP2 SWAP1 POP JUMP JUMPDEST PUSH1 0x0 PUSH1 0x20 PUSH1 0x1F DUP4 ADD DIV SWAP1 POP SWAP2 SWAP1 POP JUMP JUMPDEST PUSH1 0x0 DUP3 DUP3 SHL SWAP1 POP SWAP3 SWAP2 POP POP JUMP JUMPDEST PUSH1 0x0 PUSH1 0x8 DUP4 MUL PUSH3 0x3F3 PUSH32 0xFFFFFFFFFFFFFFFFFFFFFFFFFFFFFFFFFFFFFFFFFFFFFFFFFFFFFFFFFFFFFFFF DUP3 PUSH3 0x3B4 JUMP JUMPDEST PUSH3 0x3FF DUP7 DUP4 PUSH3 0x3B4 JUMP JUMPDEST SWAP6 POP DUP1 NOT DUP5 AND SWAP4 POP DUP1 DUP7 AND DUP5 OR SWAP3 POP POP POP SWAP4 SWAP3 POP POP POP JUMP JUMPDEST PUSH1 0x0 DUP2 SWAP1 POP SWAP2 SWAP1 POP JUMP JUMPDEST PUSH1 0x0 PUSH3 0x442 PUSH3 0x43C PUSH3 0x436 DUP5 PUSH3 0x24B JUMP JUMPDEST PUSH3 0x417 JUMP JUMPDEST PUSH3 0x24B JUMP JUMPDEST SWAP1 POP SWAP2 SWAP1 POP JUMP JUMPDEST PUSH1 0x0 DUP2 SWAP1 POP SWAP2 SWAP1 POP JUMP JUMPDEST PUSH3 0x45E DUP4 PUSH3 0x421 JUMP JUMPDEST PUSH3 0x476 PUSH3 0x46D DUP3 PUSH3 0x449 JUMP JUMPDEST DUP5 DUP5 SLOAD PUSH3 0x3C1 JUMP JUMPDEST DUP3 SSTORE POP POP POP POP JUMP JUMPDEST PUSH1 0x0 SWAP1 JUMP JUMPDEST PUSH3 0x48D PUSH3 0x47E JUMP JUMPDEST PUSH3 0x49A DUP2 DUP5 DUP5 PUSH3 0x453 JUMP JUMPDEST POP POP POP JUMP JUMPDEST JUMPDEST DUP2 DUP2 LT ISZERO PUSH3 0x4C2 JUMPI PUSH3 0x4B6 PUSH1 0x0 DUP3 PUSH3 0x483 JUMP JUMPDEST PUSH1 0x1 DUP2 ADD SWAP1 POP PUSH3 0x4A0 JUMP JUMPDEST POP POP JUMP JUMPDEST PUSH1 0x1F DUP3 GT ISZERO PUSH3 0x511 JUMPI PUSH3 0x4DB DUP2 PUSH3 0x38F JUMP JUMPDEST PUSH3 0x4E6 DUP5 PUSH3 0x3A4 JUMP JUMPDEST DUP2 ADD PUSH1 0x20 DUP6 LT ISZERO PUSH3 0x4F6 JUMPI DUP2 SWAP1 POP JUMPDEST PUSH3 0x50E PUSH3 0x505 DUP6 PUSH3 0x3A4 JUMP JUMPDEST DUP4 ADD DUP3 PUSH3 0x49F JUMP JUMPDEST POP POP JUMPDEST POP POP POP JUMP JUMPDEST PUSH1 0x0 DUP3 DUP3 SHR SWAP1 POP SWAP3 SWAP2 POP POP JUMP JUMPDEST PUSH1 0x0 PUSH3 0x536 PUSH1 0x0 NOT DUP5 PUSH1 0x8 MUL PUSH3 0x516 JUMP JUMPDEST NOT DUP1 DUP4 AND SWAP2 POP POP SWAP3 SWAP2 POP POP JUMP JUMPDEST PUSH1 0x0 PUSH3 0x551 DUP4 DUP4 PUSH3 0x523 JUMP JUMPDEST SWAP2 POP DUP3 PUSH1 0x2 MUL DUP3 OR SWAP1 POP SWAP3 SWAP2 POP POP JUMP JUMPDEST PUSH3 0x56C DUP3 PUSH3 0x320 JUMP JUMPDEST PUSH8 0xFFFFFFFFFFFFFFFF DUP2 GT ISZERO PUSH3 0x588 JUMPI PUSH3 0x587 PUSH3 0xDD JUMP JUMPDEST JUMPDEST PUSH3 0x594 DUP3 SLOAD PUSH3 0x35A JUMP JUMPDEST PUSH3 0x5A1 DUP3 DUP3 DUP6 PUSH3 0x4C6 JUMP JUMPDEST PUSH1 0x0 PUSH1 0x20 SWAP1 POP PUSH1 0x1F DUP4 GT PUSH1 0x1 DUP2 EQ PUSH3 0x5D9 JUMPI PUSH1 0x0 DUP5 ISZERO PUSH3 0x5C4 JUMPI DUP3 DUP8 ADD MLOAD SWAP1 POP JUMPDEST PUSH3 0x5D0 DUP6 DUP3 PUSH3 0x543 JUMP JUMPDEST DUP7 SSTORE POP PUSH3 0x640 JUMP JUMPDEST PUSH1 0x1F NOT DUP5 AND PUSH3 0x5E9 DUP7 PUSH3 0x38F JUMP JUMPDEST PUSH1 0x0 JUMPDEST DUP3 DUP2 LT ISZERO PUSH3 0x613 JUMPI DUP5 DUP10 ADD MLOAD DUP3 SSTORE PUSH1 0x1 DUP3 ADD SWAP2 POP PUSH1 0x20 DUP6 ADD SWAP5 POP PUSH1 0x20 DUP2 ADD SWAP1 POP PUSH3 0x5EC JUMP JUMPDEST DUP7 DUP4 LT ISZERO PUSH3 0x633 JUMPI DUP5 DUP10 ADD MLOAD PUSH3 0x62F PUSH1 0x1F DUP10 AND DUP3 PUSH3 0x523 JUMP JUMPDEST DUP4 SSTORE POP JUMPDEST PUSH1 0x1 PUSH1 0x2 DUP9 MUL ADD DUP9 SSTORE POP POP POP JUMPDEST POP POP POP POP POP POP JUMP JUMPDEST PUSH2 0xCAE DUP1 PUSH3 0x658 PUSH1 0x0 CODECOPY PUSH1 0x0 RETURN INVALID PUSH1 0x80 PUSH1 0x40 MSTORE CALLVALUE DUP1 ISZERO PUSH2 0x10 JUMPI PUSH1 0x0 DUP1 REVERT JUMPDEST POP PUSH1 0x4 CALLDATASIZE LT PUSH2 0x62 JUMPI PUSH1 0x0 CALLDATALOAD PUSH1 0xE0 SHR DUP1 PUSH4 0xBDFECA5 EQ PUSH2 0x67 JUMPI DUP1 PUSH4 0x15070401 EQ PUSH2 0x83 JUMPI DUP1 PUSH4 0x17D7DE7C EQ PUSH2 0xA1 JUMPI DUP1 PUSH4 0x70A08231 EQ PUSH2 0xBF JUMPI DUP1 PUSH4 0xA9059CBB EQ PUSH2 0xEF JUMPI DUP1 PUSH4 0xC4E41B22 EQ PUSH2 0x10B JUMPI JUMPDEST PUSH1 0x0 DUP1 REVERT JUMPDEST PUSH2 0x81 PUSH1 0x4 DUP1 CALLDATASIZE SUB DUP2 ADD SWAP1 PUSH2 0x7C SWAP2 SWAP1 PUSH2 0x5EB JUMP JUMPDEST PUSH2 0x129 JUMP JUMPDEST STOP JUMPDEST PUSH2 0x8B PUSH2 0x179 JUMP JUMPDEST PUSH1 0x40 MLOAD PUSH2 0x98 SWAP2 SWAP1 PUSH2 0x6BC JUMP JUMPDEST PUSH1 0x40 MLOAD DUP1 SWAP2 SUB SWAP1 RETURN JUMPDEST PUSH2 0xA9 PUSH2 0x20B JUMP JUMPDEST PUSH1 0x40 MLOAD PUSH2 0xB6 SWAP2 SWAP1 PUSH2 0x6BC JUMP JUMPDEST PUSH1 0x40 MLOAD DUP1 SWAP2 SUB SWAP1 RETURN JUMPDEST PUSH2 0xD9 PUSH1 0x4 DUP1 CALLDATASIZE SUB DUP2 ADD SWAP1 PUSH2 0xD4 SWAP2 SWAP1 PUSH2 0x73C JUMP JUMPDEST PUSH2 0x29D JUMP JUMPDEST PUSH1 0x40 MLOAD PUSH2 0xE6 SWAP2 SWAP1 PUSH2 0x782 JUMP JUMPDEST PUSH1 0x40 MLOAD DUP1 SWAP2 SUB SWAP1 RETURN JUMPDEST PUSH2 0x109 PUSH1 0x4 DUP1 CALLDATASIZE SUB DUP2 ADD SWAP1 PUSH2 0x104 SWAP2 SWAP1 PUSH2 0x7C9 JUMP JUMPDEST PUSH2 0x2E5 JUMP JUMPDEST STOP JUMPDEST PUSH2 0x113 PUSH2 0x487 JUMP JUMPDEST PUSH1 0x40 MLOAD PUSH2 0x120 SWAP2 SWAP1 PUSH2 0x782 JUMP JUMPDEST PUSH1 0x40 MLOAD DUP1 SWAP2 SUB SWAP1 RETURN JUMPDEST DUP1 PUSH1 0x1 PUSH1 0x0 CALLER PUSH20 0xFFFFFFFFFFFFFFFFFFFFFFFFFFFFFFFFFFFFFFFF AND PUSH20 0xFFFFFFFFFFFFFFFFFFFFFFFFFFFFFFFFFFFFFFFF AND DUP2 MSTORE PUSH1 0x20 ADD SWAP1 DUP2 MSTORE PUSH1 0x20 ADD PUSH1 0x0 KECCAK256 SWAP1 DUP2 PUSH2 0x175 SWAP2 SWAP1 PUSH2 0xA15 JUMP JUMPDEST POP POP JUMP JUMPDEST PUSH1 0x60 PUSH1 0x3 DUP1 SLOAD PUSH2 0x188 SWAP1 PUSH2 0x838 JUMP JUMPDEST DUP1 PUSH1 0x1F ADD PUSH1 0x20 DUP1 SWAP2 DIV MUL PUSH1 0x20 ADD PUSH1 0x40 MLOAD SWAP1 DUP2 ADD PUSH1 0x40 MSTORE DUP1 SWAP3 SWAP2 SWAP1 DUP2 DUP2 MSTORE PUSH1 0x20 ADD DUP3 DUP1 SLOAD PUSH2 0x1B4 SWAP1 PUSH2 0x838 JUMP JUMPDEST DUP1 ISZERO PUSH2 0x201 JUMPI DUP1 PUSH1 0x1F LT PUSH2 0x1D6 JUMPI PUSH2 0x100 DUP1 DUP4 SLOAD DIV MUL DUP4 MSTORE SWAP2 PUSH1 0x20 ADD SWAP2 PUSH2 0x201 JUMP JUMPDEST DUP3 ADD SWAP2 SWAP1 PUSH1 0x0 MSTORE PUSH1 0x20 PUSH1 0x0 KECCAK256 SWAP1 JUMPDEST DUP2 SLOAD DUP2 MSTORE SWAP1 PUSH1 0x1 ADD SWAP1 PUSH1 0x20 ADD DUP1 DUP4 GT PUSH2 0x1E4 JUMPI DUP3 SWAP1 SUB PUSH1 0x1F AND DUP3 ADD SWAP2 JUMPDEST POP POP POP POP POP SWAP1 POP SWAP1 JUMP JUMPDEST PUSH1 0x60 PUSH1 0x2 DUP1 SLOAD PUSH2 0x21A SWAP1 PUSH2 0x838 JUMP JUMPDEST DUP1 PUSH1 0x1F ADD PUSH1 0x20 DUP1 SWAP2 DIV MUL PUSH1 0x20 ADD PUSH1 0x40 MLOAD SWAP1 DUP2 ADD PUSH1 0x40 MSTORE DUP1 SWAP3 SWAP2 SWAP1 DUP2 DUP2 MSTORE PUSH1 0x20 ADD DUP3 DUP1 SLOAD PUSH2 0x246 SWAP1 PUSH2 0x838 JUMP JUMPDEST DUP1 ISZERO PUSH2 0x293 JUMPI DUP1 PUSH1 0x1F LT PUSH2 0x268 JUMPI PUSH2 0x100 DUP1 DUP4 SLOAD DIV MUL DUP4 MSTORE SWAP2 PUSH1 0x20 ADD SWAP2 PUSH2 0x293 JUMP JUMPDEST DUP3 ADD SWAP2 SWAP1 PUSH1 0x0 MSTORE PUSH1 0x20 PUSH1 0x0 KECCAK256 SWAP1 JUMPDEST DUP2 SLOAD DUP2 MSTORE SWAP1 PUSH1 0x1 ADD SWAP1 PUSH1 0x20 ADD DUP1 DUP4 GT PUSH2 0x276 JUMPI DUP3 SWAP1 SUB PUSH1 0x1F AND DUP3 ADD SWAP2 JUMPDEST POP POP POP POP POP SWAP1 POP SWAP1 JUMP JUMPDEST PUSH1 0x0 DUP1 PUSH1 0x0 DUP4 PUSH20 0xFFFFFFFFFFFFFFFFFFFFFFFFFFFFFFFFFFFFFFFF AND PUSH20 0xFFFFFFFFFFFFFFFFFFFFFFFFFFFFFFFFFFFFFFFF AND DUP2 MSTORE PUSH1 0x20 ADD SWAP1 DUP2 MSTORE PUSH1 0x20 ADD PUSH1 0x0 KECCAK256 SLOAD SWAP1 POP SWAP2 SWAP1 POP JUMP JUMPDEST PUSH1 0x0 CALLER SWAP1 POP PUSH1 0x0 DUP1 PUSH1 0x0 DUP4 PUSH20 0xFFFFFFFFFFFFFFFFFFFFFFFFFFFFFFFFFFFFFFFF AND PUSH20 0xFFFFFFFFFFFFFFFFFFFFFFFFFFFFFFFFFFFFFFFF AND DUP2 MSTORE PUSH1 0x20 ADD SWAP1 DUP2 MSTORE PUSH1 0x20 ADD PUSH1 0x0 KECCAK256 SLOAD SWAP1 POP DUP3 DUP2 LT ISZERO PUSH2 0x370 JUMPI PUSH1 0x40 MLOAD PUSH32 0x8C379A000000000000000000000000000000000000000000000000000000000 DUP2 MSTORE PUSH1 0x4 ADD PUSH2 0x367 SWAP1 PUSH2 0xB33 JUMP JUMPDEST PUSH1 0x40 MLOAD DUP1 SWAP2 SUB SWAP1 REVERT JUMPDEST DUP2 PUSH20 0xFFFFFFFFFFFFFFFFFFFFFFFFFFFFFFFFFFFFFFFF AND DUP5 PUSH20 0xFFFFFFFFFFFFFFFFFFFFFFFFFFFFFFFFFFFFFFFF AND SUB PUSH2 0x3DE JUMPI PUSH1 0x40 MLOAD PUSH32 0x8C379A000000000000000000000000000000000000000000000000000000000 DUP2 MSTORE PUSH1 0x4 ADD PUSH2 0x3D5 SWAP1 PUSH2 0xB9F JUMP JUMPDEST PUSH1 0x40 MLOAD DUP1 SWAP2 SUB SWAP1 REVERT JUMPDEST DUP3 DUP2 PUSH2 0x3EA SWAP2 SWAP1 PUSH2 0xBEE JUMP JUMPDEST PUSH1 0x0 DUP1 DUP5 PUSH20 0xFFFFFFFFFFFFFFFFFFFFFFFFFFFFFFFFFFFFFFFF AND PUSH20 0xFFFFFFFFFFFFFFFFFFFFFFFFFFFFFFFFFFFFFFFF AND DUP2 MSTORE PUSH1 0x20 ADD SWAP1 DUP2 MSTORE PUSH1 0x20 ADD PUSH1 0x0 KECCAK256 DUP2 SWAP1 SSTORE POP DUP3 PUSH1 0x0 DUP1 DUP7 PUSH20 0xFFFFFFFFFFFFFFFFFFFFFFFFFFFFFFFFFFFFFFFF AND PUSH20 0xFFFFFFFFFFFFFFFFFFFFFFFFFFFFFFFFFFFFFFFF AND DUP2 MSTORE PUSH1 0x20 ADD SWAP1 DUP2 MSTORE PUSH1 0x20 ADD PUSH1 0x0 KECCAK256 PUSH1 0x0 DUP3 DUP3 SLOAD PUSH2 0x47A SWAP2 SWAP1 PUSH2 0xC22 JUMP JUMPDEST SWAP3 POP POP DUP2 SWAP1 SSTORE POP POP POP POP POP JUMP JUMPDEST PUSH1 0x0 PUSH1 0x4 SLOAD SWAP1 POP SWAP1 JUMP JUMPDEST PUSH1 0x0 PUSH1 0x40 MLOAD SWAP1 POP SWAP1 JUMP JUMPDEST PUSH1 0x0 DUP1 REVERT JUMPDEST PUSH1 0x0 DUP1 REVERT JUMPDEST PUSH1 0x0 DUP1 REVERT JUMPDEST PUSH1 0x0 DUP1 REVERT JUMPDEST PUSH1 0x0 PUSH1 0x1F NOT PUSH1 0x1F DUP4 ADD AND SWAP1 POP SWAP2 SWAP1 POP JUMP JUMPDEST PUSH32 0x4E487B7100000000000000000000000000000000000000000000000000000000 PUSH1 0x0 MSTORE PUSH1 0x41 PUSH1 0x4 MSTORE PUSH1 0x24 PUSH1 0x0 REVERT JUMPDEST PUSH2 0x4F8 DUP3 PUSH2 0x4AF JUMP JUMPDEST DUP2 ADD DUP2 DUP2 LT PUSH8 0xFFFFFFFFFFFFFFFF DUP3 GT OR ISZERO PUSH2 0x517 JUMPI PUSH2 0x516 PUSH2 0x4C0 JUMP JUMPDEST JUMPDEST DUP1 PUSH1 0x40 MSTORE POP POP POP JUMP JUMPDEST PUSH1 0x0 PUSH2 0x52A PUSH2 0x491 JUMP JUMPDEST SWAP1 POP PUSH2 0x536 DUP3 DUP3 PUSH2 0x4EF JUMP JUMPDEST SWAP2 SWAP1 POP JUMP JUMPDEST PUSH1 0x0 PUSH8 0xFFFFFFFFFFFFFFFF DUP3 GT ISZERO PUSH2 0x556 JUMPI PUSH2 0x555 PUSH2 0x4C0 JUMP JUMPDEST JUMPDEST PUSH2 0x55F DUP3 PUSH2 0x4AF JUMP JUMPDEST SWAP1 POP PUSH1 0x20 DUP2 ADD SWAP1 POP SWAP2 SWAP1 POP JUMP JUMPDEST DUP3 DUP2 DUP4 CALLDATACOPY PUSH1 0x0 DUP4 DUP4 ADD MSTORE POP POP POP JUMP JUMPDEST PUSH1 0x0 PUSH2 0x58E PUSH2 0x589 DUP5 PUSH2 0x53B JUMP JUMPDEST PUSH2 0x520 JUMP JUMPDEST SWAP1 POP DUP3 DUP2 MSTORE PUSH1 0x20 DUP2 ADD DUP5 DUP5 DUP5 ADD GT ISZERO PUSH2 0x5AA JUMPI PUSH2 0x5A9 PUSH2 0x4AA JUMP JUMPDEST JUMPDEST PUSH2 0x5B5 DUP5 DUP3 DUP6 PUSH2 0x56C JUMP JUMPDEST POP SWAP4 SWAP3 POP POP POP JUMP JUMPDEST PUSH1 0x0 DUP3 PUSH1 0x1F DUP4 ADD SLT PUSH2 0x5D2 JUMPI PUSH2 0x5D1 PUSH2 0x4A5 JUMP JUMPDEST JUMPDEST DUP2 CALLDATALOAD PUSH2 0x5E2 DUP5 DUP3 PUSH1 0x20 DUP7 ADD PUSH2 0x57B JUMP JUMPDEST SWAP2 POP POP SWAP3 SWAP2 POP POP JUMP JUMPDEST PUSH1 0x0 PUSH1 0x20 DUP3 DUP5 SUB SLT ISZERO PUSH2 0x601 JUMPI PUSH2 0x600 PUSH2 0x49B JUMP JUMPDEST JUMPDEST PUSH1 0x0 DUP3 ADD CALLDATALOAD PUSH8 0xFFFFFFFFFFFFFFFF DUP2 GT ISZERO PUSH2 0x61F JUMPI PUSH2 0x61E PUSH2 0x4A0 JUMP JUMPDEST JUMPDEST PUSH2 0x62B DUP5 DUP3 DUP6 ADD PUSH2 0x5BD JUMP JUMPDEST SWAP2 POP POP SWAP3 SWAP2 POP POP JUMP JUMPDEST PUSH1 0x0 DUP2 MLOAD SWAP1 POP SWAP2 SWAP1 POP JUMP JUMPDEST PUSH1 0x0 DUP3 DUP3 MSTORE PUSH1 0x20 DUP3 ADD SWAP1 POP SWAP3 SWAP2 POP POP JUMP JUMPDEST PUSH1 0x0 JUMPDEST DUP4 DUP2 LT ISZERO PUSH2 0x66E JUMPI DUP1 DUP3 ADD MLOAD DUP2 DUP5 ADD MSTORE PUSH1 0x20 DUP2 ADD SWAP1 POP PUSH2 0x653 JUMP JUMPDEST DUP4 DUP2 GT ISZERO PUSH2 0x67D JUMPI PUSH1 0x0 DUP5 DUP5 ADD MSTORE JUMPDEST POP POP POP POP JUMP JUMPDEST PUSH1 0x0 PUSH2 0x68E DUP3 PUSH2 0x634 JUMP JUMPDEST PUSH2 0x698 DUP2 DUP6 PUSH2 0x63F JUMP JUMPDEST SWAP4 POP PUSH2 0x6A8 DUP2 DUP6 PUSH1 0x20 DUP7 ADD PUSH2 0x650 JUMP JUMPDEST PUSH2 0x6B1 DUP2 PUSH2 0x4AF JUMP JUMPDEST DUP5 ADD SWAP2 POP POP SWAP3 SWAP2 POP POP JUMP JUMPDEST PUSH1 0x0 PUSH1 0x20 DUP3 ADD SWAP1 POP DUP2 DUP2 SUB PUSH1 0x0 DUP4 ADD MSTORE PUSH2 0x6D6 DUP2 DUP5 PUSH2 0x683 JUMP JUMPDEST SWAP1 POP SWAP3 SWAP2 POP POP JUMP JUMPDEST PUSH1 0x0 PUSH20 0xFFFFFFFFFFFFFFFFFFFFFFFFFFFFFFFFFFFFFFFF DUP3 AND SWAP1 POP SWAP2 SWAP1 POP JUMP JUMPDEST PUSH1 0x0 PUSH2 0x709 DUP3 PUSH2 0x6DE JUMP JUMPDEST SWAP1 POP SWAP2 SWAP1 POP JUMP JUMPDEST PUSH2 0x719 DUP2 PUSH2 0x6FE JUMP JUMPDEST DUP2 EQ PUSH2 0x724 JUMPI PUSH1 0x0 DUP1 REVERT JUMPDEST POP JUMP JUMPDEST PUSH1 0x0 DUP2 CALLDATALOAD SWAP1 POP PUSH2 0x736 DUP2 PUSH2 0x710 JUMP JUMPDEST SWAP3 SWAP2 POP POP JUMP JUMPDEST PUSH1 0x0 PUSH1 0x20 DUP3 DUP5 SUB SLT ISZERO PUSH2 0x752 JUMPI PUSH2 0x751 PUSH2 0x49B JUMP JUMPDEST JUMPDEST PUSH1 0x0 PUSH2 0x760 DUP5 DUP3 DUP6 ADD PUSH2 0x727 JUMP JUMPDEST SWAP2 POP POP SWAP3 SWAP2 POP POP JUMP JUMPDEST PUSH1 0x0 DUP2 SWAP1 POP SWAP2 SWAP1 POP JUMP JUMPDEST PUSH2 0x77C DUP2 PUSH2 0x769 JUMP JUMPDEST DUP3 MSTORE POP POP JUMP JUMPDEST PUSH1 0x0 PUSH1 0x20 DUP3 ADD SWAP1 POP PUSH2 0x797 PUSH1 0x0 DUP4 ADD DUP5 PUSH2 0x773 JUMP JUMPDEST SWAP3 SWAP2 POP POP JUMP JUMPDEST PUSH2 0x7A6 DUP2 PUSH2 0x769 JUMP JUMPDEST DUP2 EQ PUSH2 0x7B1 JUMPI PUSH1 0x0 DUP1 REVERT JUMPDEST POP JUMP JUMPDEST PUSH1 0x0 DUP2 CALLDATALOAD SWAP1 POP PUSH2 0x7C3 DUP2 PUSH2 0x79D JUMP JUMPDEST SWAP3 SWAP2 POP POP JUMP JUMPDEST PUSH1 0x0 DUP1 PUSH1 0x40 DUP4 DUP6 SUB SLT ISZERO PUSH2 0x7E0 JUMPI PUSH2 0x7DF PUSH2 0x49B JUMP JUMPDEST JUMPDEST PUSH1 0x0 PUSH2 0x7EE DUP6 DUP3 DUP7 ADD PUSH2 0x727 JUMP JUMPDEST SWAP3 POP POP PUSH1 0x20 PUSH2 0x7FF DUP6 DUP3 DUP7 ADD PUSH2 0x7B4 JUMP JUMPDEST SWAP2 POP POP SWAP3 POP SWAP3 SWAP1 POP JUMP JUMPDEST PUSH32 0x4E487B7100000000000000000000000000000000000000000000000000000000 PUSH1 0x0 MSTORE PUSH1 0x22 PUSH1 0x4 MSTORE PUSH1 0x24 PUSH1 0x0 REVERT JUMPDEST PUSH1 0x0 PUSH1 0x2 DUP3 DIV SWAP1 POP PUSH1 0x1 DUP3 AND DUP1 PUSH2 0x850 JUMPI PUSH1 0x7F DUP3 AND SWAP2 POP JUMPDEST PUSH1 0x20 DUP3 LT DUP2 SUB PUSH2 0x863 JUMPI PUSH2 0x862 PUSH2 0x809 JUMP JUMPDEST JUMPDEST POP SWAP2 SWAP1 POP JUMP JUMPDEST PUSH1 0x0 DUP2 SWAP1 POP DUP2 PUSH1 0x0 MSTORE PUSH1 0x20 PUSH1 0x0 KECCAK256 SWAP1 POP SWAP2 SWAP1 POP JUMP JUMPDEST PUSH1 0x0 PUSH1 0x20 PUSH1 0x1F DUP4 ADD DIV SWAP1 POP SWAP2 SWAP1 POP JUMP JUMPDEST PUSH1 0x0 DUP3 DUP3 SHL SWAP1 POP SWAP3 SWAP2 POP POP JUMP JUMPDEST PUSH1 0x0 PUSH1 0x8 DUP4 MUL PUSH2 0x8CB PUSH32 0xFFFFFFFFFFFFFFFFFFFFFFFFFFFFFFFFFFFFFFFFFFFFFFFFFFFFFFFFFFFFFFFF DUP3 PUSH2 0x88E JUMP JUMPDEST PUSH2 0x8D5 DUP7 DUP4 PUSH2 0x88E JUMP JUMPDEST SWAP6 POP DUP1 NOT DUP5 AND SWAP4 POP DUP1 DUP7 AND DUP5 OR SWAP3 POP POP POP SWAP4 SWAP3 POP POP POP JUMP JUMPDEST PUSH1 0x0 DUP2 SWAP1 POP SWAP2 SWAP1 POP JUMP JUMPDEST PUSH1 0x0 PUSH2 0x912 PUSH2 0x90D PUSH2 0x908 DUP5 PUSH2 0x769 JUMP JUMPDEST PUSH2 0x8ED JUMP JUMPDEST PUSH2 0x769 JUMP JUMPDEST SWAP1 POP SWAP2 SWAP1 POP JUMP JUMPDEST PUSH1 0x0 DUP2 SWAP1 POP SWAP2 SWAP1 POP JUMP JUMPDEST PUSH2 0x92C DUP4 PUSH2 0x8F7 JUMP JUMPDEST PUSH2 0x940 PUSH2 0x938 DUP3 PUSH2 0x919 JUMP JUMPDEST DUP5 DUP5 SLOAD PUSH2 0x89B JUMP JUMPDEST DUP3 SSTORE POP POP POP POP JUMP JUMPDEST PUSH1 0x0 SWAP1 JUMP JUMPDEST PUSH2 0x955 PUSH2 0x948 JUMP JUMPDEST PUSH2 0x960 DUP2 DUP5 DUP5 PUSH2 0x923 JUMP JUMPDEST POP POP POP JUMP JUMPDEST JUMPDEST DUP2 DUP2 LT ISZERO PUSH2 0x984 JUMPI PUSH2 0x979 PUSH1 0x0 DUP3 PUSH2 0x94D JUMP JUMPDEST PUSH1 0x1 DUP2 ADD SWAP1 POP PUSH2 0x966 JUMP JUMPDEST POP POP JUMP JUMPDEST PUSH1 0x1F DUP3 GT ISZERO PUSH2 0x9C9 JUMPI PUSH2 0x99A DUP2 PUSH2 0x869 JUMP JUMPDEST PUSH2 0x9A3 DUP5 PUSH2 0x87E JUMP JUMPDEST DUP2 ADD PUSH1 0x20 DUP6 LT ISZERO PUSH2 0x9B2 JUMPI DUP2 SWAP1 POP JUMPDEST PUSH2 0x9C6 PUSH2 0x9BE DUP6 PUSH2 0x87E JUMP JUMPDEST DUP4 ADD DUP3 PUSH2 0x965 JUMP JUMPDEST POP POP JUMPDEST POP POP POP JUMP JUMPDEST PUSH1 0x0 DUP3 DUP3 SHR SWAP1 POP SWAP3 SWAP2 POP POP JUMP JUMPDEST PUSH1 0x0 PUSH2 0x9EC PUSH1 0x0 NOT DUP5 PUSH1 0x8 MUL PUSH2 0x9CE JUMP JUMPDEST NOT DUP1 DUP4 AND SWAP2 POP POP SWAP3 SWAP2 POP POP JUMP JUMPDEST PUSH1 0x0 PUSH2 0xA05 DUP4 DUP4 PUSH2 0x9DB JUMP JUMPDEST SWAP2 POP DUP3 PUSH1 0x2 MUL DUP3 OR SWAP1 POP SWAP3 SWAP2 POP POP JUMP JUMPDEST PUSH2 0xA1E DUP3 PUSH2 0x634 JUMP JUMPDEST PUSH8 0xFFFFFFFFFFFFFFFF DUP2 GT ISZERO PUSH2 0xA37 JUMPI PUSH2 0xA36 PUSH2 0x4C0 JUMP JUMPDEST JUMPDEST PUSH2 0xA41 DUP3 SLOAD PUSH2 0x838 JUMP JUMPDEST PUSH2 0xA4C DUP3 DUP3 DUP6 PUSH2 0x988 JUMP JUMPDEST PUSH1 0x0 PUSH1 0x20 SWAP1 POP PUSH1 0x1F DUP4 GT PUSH1 0x1 DUP2 EQ PUSH2 0xA7F JUMPI PUSH1 0x0 DUP5 ISZERO PUSH2 0xA6D JUMPI DUP3 DUP8 ADD MLOAD SWAP1 POP JUMPDEST PUSH2 0xA77 DUP6 DUP3 PUSH2 0x9F9 JUMP JUMPDEST DUP7 SSTORE POP PUSH2 0xADF JUMP JUMPDEST PUSH1 0x1F NOT DUP5 AND PUSH2 0xA8D DUP7 PUSH2 0x869 JUMP JUMPDEST PUSH1 0x0 JUMPDEST DUP3 DUP2 LT ISZERO PUSH2 0xAB5 JUMPI DUP5 DUP10 ADD MLOAD DUP3 SSTORE PUSH1 0x1 DUP3 ADD SWAP2 POP PUSH1 0x20 DUP6 ADD SWAP5 POP PUSH1 0x20 DUP2 ADD SWAP1 POP PUSH2 0xA90 JUMP JUMPDEST DUP7 DUP4 LT ISZERO PUSH2 0xAD2 JUMPI DUP5 DUP10 ADD MLOAD PUSH2 0xACE PUSH1 0x1F DUP10 AND DUP3 PUSH2 0x9DB JUMP JUMPDEST DUP4 SSTORE POP JUMPDEST PUSH1 0x1 PUSH1 0x2 DUP9 MUL ADD DUP9 SSTORE POP POP POP JUMPDEST POP POP POP POP POP POP JUMP JUMPDEST PUSH32 0x496E73756666696369656E742066756E6420746F207472616E73666572000000 PUSH1 0x0 DUP3 ADD MSTORE POP JUMP JUMPDEST PUSH1 0x0 PUSH2 0xB1D PUSH1 0x1D DUP4 PUSH2 0x63F JUMP JUMPDEST SWAP2 POP PUSH2 0xB28 DUP3 PUSH2 0xAE7 JUMP JUMPDEST PUSH1 0x20 DUP3 ADD SWAP1 POP SWAP2 SWAP1 POP JUMP JUMPDEST PUSH1 0x0 PUSH1 0x20 DUP3 ADD SWAP1 POP DUP2 DUP2 SUB PUSH1 0x0 DUP4 ADD MSTORE PUSH2 0xB4C DUP2 PUSH2 0xB10 JUMP JUMPDEST SWAP1 POP SWAP2 SWAP1 POP JUMP JUMPDEST PUSH32 0x596F752063616E6E6F742073656E6420746F20796F757273656C660000000000 PUSH1 0x0 DUP3 ADD MSTORE POP JUMP JUMPDEST PUSH1 0x0 PUSH2 0xB89 PUSH1 0x1B DUP4 PUSH2 0x63F JUMP JUMPDEST SWAP2 POP PUSH2 0xB94 DUP3 PUSH2 0xB53 JUMP JUMPDEST PUSH1 0x20 DUP3 ADD SWAP1 POP SWAP2 SWAP1 POP JUMP JUMPDEST PUSH1 0x0 PUSH1 0x20 DUP3 ADD SWAP1 POP DUP2 DUP2 SUB PUSH1 0x0 DUP4 ADD MSTORE PUSH2 0xBB8 DUP2 PUSH2 0xB7C JUMP JUMPDEST SWAP1 POP SWAP2 SWAP1 POP JUMP JUMPDEST PUSH32 0x4E487B7100000000000000000000000000000000000000000000000000000000 PUSH1 0x0 MSTORE PUSH1 0x11 PUSH1 0x4 MSTORE PUSH1 0x24 PUSH1 0x0 REVERT JUMPDEST PUSH1 0x0 PUSH2 0xBF9 DUP3 PUSH2 0x769 JUMP JUMPDEST SWAP2 POP PUSH2 0xC04 DUP4 PUSH2 0x769 JUMP JUMPDEST SWAP3 POP DUP3 DUP3 LT ISZERO PUSH2 0xC17 JUMPI PUSH2 0xC16 PUSH2 0xBBF JUMP JUMPDEST JUMPDEST DUP3 DUP3 SUB SWAP1 POP SWAP3 SWAP2 POP POP JUMP JUMPDEST PUSH1 0x0 PUSH2 0xC2D DUP3 PUSH2 0x769 JUMP JUMPDEST SWAP2 POP PUSH2 0xC38 DUP4 PUSH2 0x769 JUMP JUMPDEST SWAP3 POP DUP3 PUSH32 0xFFFFFFFFFFFFFFFFFFFFFFFFFFFFFFFFFFFFFFFFFFFFFFFFFFFFFFFFFFFFFFFF SUB DUP3 GT ISZERO PUSH2 0xC6D JUMPI PUSH2 0xC6C PUSH2 0xBBF JUMP JUMPDEST JUMPDEST DUP3 DUP3 ADD SWAP1 POP SWAP3 SWAP2 POP POP JUMP INVALID LOG2 PUSH5 0x6970667358 0x22 SLT KECCAK256 0xDC 0x5F 0xAC SGT SWAP6 0xC9 EXTCODECOPY DUP2 LT PUSH12 0x667FB298C187074B87B74DB CALLDATALOAD SHR 0xBE SWAP12 MOD PUSH4 0x57B979E8 PUSH5 0x736F6C6343 STOP ADDMOD 0xF STOP CALLER "
				},
				"gasEstimates": {
					"creation": {
						"codeDepositCost": "649200",
						"executionCost": "infinite",
						"totalCost": "infinite"
					},
					"external": {
						"balanceOf(address)": "2885",
						"getName()": "infinite",
						"getSymbol()": "infinite",
						"getTotalSupply()": "2525",
						"setMyWalletName(string)": "infinite",
						"transfer(address,uint256)": "infinite"
					}
				},
				"methodIdentifiers": {
					"balanceOf(address)": "70a08231",
					"getName()": "17d7de7c",
					"getSymbol()": "15070401",
					"getTotalSupply()": "c4e41b22",
					"setMyWalletName(string)": "0bdfeca5",
					"transfer(address,uint256)": "a9059cbb"
				}
			},
			"storageLayout": {
				"storage": [
					{
						"astId": 5,
						"contract": "contracts/workshop.sol:Workshop",
						"label": "balances",
						"offset": 0,
						"slot": "0",
						"type": "t_mapping(t_address,t_uint256)"
					},
					{
						"astId": 9,
						"contract": "contracts/workshop.sol:Workshop",
						"label": "walletName",
						"offset": 0,
						"slot": "1",
						"type": "t_mapping(t_address,t_string_storage)"
					},
					{
						"astId": 11,
						"contract": "contracts/workshop.sol:Workshop",
						"label": "name",
						"offset": 0,
						"slot": "2",
						"type": "t_string_storage"
					},
					{
						"astId": 13,
						"contract": "contracts/workshop.sol:Workshop",
						"label": "symbol",
						"offset": 0,
						"slot": "3",
						"type": "t_string_storage"
					},
					{
						"astId": 15,
						"contract": "contracts/workshop.sol:Workshop",
						"label": "totalSupply",
						"offset": 0,
						"slot": "4",
						"type": "t_uint256"
					}
				],
				"types": {
					"t_address": {
						"encoding": "inplace",
						"label": "address",
						"numberOfBytes": "20"
					},
					"t_mapping(t_address,t_string_storage)": {
						"encoding": "mapping",
						"key": "t_address",
						"label": "mapping(address => string)",
						"numberOfBytes": "32",
						"value": "t_string_storage"
					},
					"t_mapping(t_address,t_uint256)": {
						"encoding": "mapping",
						"key": "t_address",
						"label": "mapping(address => uint256)",
						"numberOfBytes": "32",
						"value": "t_uint256"
					},
					"t_string_storage": {
						"encoding": "bytes",
						"label": "string",
						"numberOfBytes": "32"
					},
					"t_uint256": {
						"encoding": "inplace",
						"label": "uint256",
						"numberOfBytes": "32"
					}
				}
			},
			"userdoc": {
				"kind": "user",
				"methods": {},
				"version": 1
			}
		}
	}
}