{
	"contracts/mapping.sol": {
		"Mapping": {
			"abi": [
				{
					"inputs": [
						{
							"internalType": "string",
							"name": "_name",
							"type": "string"
						}
					],
					"name": "addProject",
					"outputs": [],
					"stateMutability": "nonpayable",
					"type": "function"
				},
				{
					"inputs": [],
					"name": "count",
					"outputs": [
						{
							"internalType": "uint256",
							"name": "",
							"type": "uint256"
						}
					],
					"stateMutability": "view",
					"type": "function"
				},
				{
					"inputs": [
						{
							"internalType": "uint256",
							"name": "",
							"type": "uint256"
						}
					],
					"name": "project",
					"outputs": [
						{
							"internalType": "string",
							"name": "",
							"type": "string"
						}
					],
					"stateMutability": "view",
					"type": "function"
				}
			],
			"devdoc": {
				"kind": "dev",
				"methods": {},
				"version": 1
			},
			"evm": {
				"assembly": "    /* \"contracts/mapping.sol\":26:208  contract Mapping {... */\n  mstore(0x40, 0x80)\n  callvalue\n  dup1\n  iszero\n  tag_1\n  jumpi\n  0x00\n  dup1\n  revert\ntag_1:\n  pop\n  dataSize(sub_0)\n  dup1\n  dataOffset(sub_0)\n  0x00\n  codecopy\n  0x00\n  return\nstop\n\nsub_0: assembly {\n        /* \"contracts/mapping.sol\":26:208  contract Mapping {... */\n      mstore(0x40, 0x80)\n      callvalue\n      dup1\n      iszero\n      tag_1\n      jumpi\n      0x00\n      dup1\n      revert\n    tag_1:\n      pop\n      jumpi(tag_2, lt(calldatasize, 0x04))\n      shr(0xe0, calldataload(0x00))\n      dup1\n      0x06661abd\n      eq\n      tag_3\n      jumpi\n      dup1\n      0x0ed047d4\n      eq\n      tag_4\n      jumpi\n      dup1\n      0x11d5aaa7\n      eq\n      tag_5\n      jumpi\n    tag_2:\n      0x00\n      dup1\n      revert\n        /* \"contracts/mapping.sol\":91:108  uint public count */\n    tag_3:\n      tag_6\n      tag_7\n      jump\t// in\n    tag_6:\n      mload(0x40)\n      tag_8\n      swap2\n      swap1\n      tag_9\n      jump\t// in\n    tag_8:\n      mload(0x40)\n      dup1\n      swap2\n      sub\n      swap1\n      return\n        /* \"contracts/mapping.sol\":119:206  function addProject(string memory _name) public {... */\n    tag_4:\n      tag_10\n      0x04\n      dup1\n      calldatasize\n      sub\n      dup2\n      add\n      swap1\n      tag_11\n      swap2\n      swap1\n      tag_12\n      jump\t// in\n    tag_11:\n      tag_13\n      jump\t// in\n    tag_10:\n      stop\n        /* \"contracts/mapping.sol\":49:85  mapping(uint=>string) public project */\n    tag_5:\n      tag_14\n      0x04\n      dup1\n      calldatasize\n      sub\n      dup2\n      add\n      swap1\n      tag_15\n      swap2\n      swap1\n      tag_16\n      jump\t// in\n    tag_15:\n      tag_17\n      jump\t// in\n    tag_14:\n      mload(0x40)\n      tag_18\n      swap2\n      swap1\n      tag_19\n      jump\t// in\n    tag_18:\n      mload(0x40)\n      dup1\n      swap2\n      sub\n      swap1\n      return\n        /* \"contracts/mapping.sol\":91:108  uint public count */\n    tag_7:\n      sload(0x01)\n      dup2\n      jump\t// out\n        /* \"contracts/mapping.sol\":119:206  function addProject(string memory _name) public {... */\n    tag_13:\n        /* \"contracts/mapping.sol\":194:199  _name */\n      dup1\n        /* \"contracts/mapping.sol\":177:184  project */\n      0x00\n        /* \"contracts/mapping.sol\":177:191  project[count] */\n      dup1\n        /* \"contracts/mapping.sol\":185:190  count */\n      sload(0x01)\n        /* \"contracts/mapping.sol\":177:191  project[count] */\n      dup2\n      mstore\n      0x20\n      add\n      swap1\n      dup2\n      mstore\n      0x20\n      add\n      0x00\n      keccak256\n        /* \"contracts/mapping.sol\":177:199  project[count] = _name */\n      swap1\n      dup2\n      tag_21\n      swap2\n      swap1\n      tag_22\n      jump\t// in\n    tag_21:\n      pop\n        /* \"contracts/mapping.sol\":119:206  function addProject(string memory _name) public {... */\n      pop\n      jump\t// out\n        /* \"contracts/mapping.sol\":49:85  mapping(uint=>string) public project */\n    tag_17:\n      mstore(0x20, 0x00)\n      dup1\n      0x00\n      mstore\n      keccak256(0x00, 0x40)\n      0x00\n      swap2\n      pop\n      swap1\n      pop\n      dup1\n      sload\n      tag_23\n      swap1\n      tag_24\n      jump\t// in\n    tag_23:\n      dup1\n      0x1f\n      add\n      0x20\n      dup1\n      swap2\n      div\n      mul\n      0x20\n      add\n      mload(0x40)\n      swap1\n      dup2\n      add\n      0x40\n      mstore\n      dup1\n      swap3\n      swap2\n      swap1\n      dup2\n      dup2\n      mstore\n      0x20\n      add\n      dup3\n      dup1\n      sload\n      tag_25\n      swap1\n      tag_24\n      jump\t// in\n    tag_25:\n      dup1\n      iszero\n      tag_26\n      jumpi\n      dup1\n      0x1f\n      lt\n      tag_27\n      jumpi\n      0x0100\n      dup1\n      dup4\n      sload\n      div\n      mul\n      dup4\n      mstore\n      swap2\n      0x20\n      add\n      swap2\n      jump(tag_26)\n    tag_27:\n      dup3\n      add\n      swap2\n      swap1\n      0x00\n      mstore\n      keccak256(0x00, 0x20)\n      swap1\n    tag_28:\n      dup2\n      sload\n      dup2\n      mstore\n      swap1\n      0x01\n      add\n      swap1\n      0x20\n      add\n      dup1\n      dup4\n      gt\n      tag_28\n      jumpi\n      dup3\n      swap1\n      sub\n      0x1f\n      and\n      dup3\n      add\n      swap2\n    tag_26:\n      pop\n      pop\n      pop\n      pop\n      pop\n      dup2\n      jump\t// out\n        /* \"#utility.yul\":7:84   */\n    tag_29:\n        /* \"#utility.yul\":44:51   */\n      0x00\n        /* \"#utility.yul\":73:78   */\n      dup2\n        /* \"#utility.yul\":62:78   */\n      swap1\n      pop\n        /* \"#utility.yul\":7:84   */\n      swap2\n      swap1\n      pop\n      jump\t// out\n        /* \"#utility.yul\":90:208   */\n    tag_30:\n        /* \"#utility.yul\":177:201   */\n      tag_69\n        /* \"#utility.yul\":195:200   */\n      dup2\n        /* \"#utility.yul\":177:201   */\n      tag_29\n      jump\t// in\n    tag_69:\n        /* \"#utility.yul\":172:175   */\n      dup3\n        /* \"#utility.yul\":165:202   */\n      mstore\n        /* \"#utility.yul\":90:208   */\n      pop\n      pop\n      jump\t// out\n        /* \"#utility.yul\":214:436   */\n    tag_9:\n        /* \"#utility.yul\":307:311   */\n      0x00\n        /* \"#utility.yul\":345:347   */\n      0x20\n        /* \"#utility.yul\":334:343   */\n      dup3\n        /* \"#utility.yul\":330:348   */\n      add\n        /* \"#utility.yul\":322:348   */\n      swap1\n      pop\n        /* \"#utility.yul\":358:429   */\n      tag_71\n        /* \"#utility.yul\":426:427   */\n      0x00\n        /* \"#utility.yul\":415:424   */\n      dup4\n        /* \"#utility.yul\":411:428   */\n      add\n        /* \"#utility.yul\":402:408   */\n      dup5\n        /* \"#utility.yul\":358:429   */\n      tag_30\n      jump\t// in\n    tag_71:\n        /* \"#utility.yul\":214:436   */\n      swap3\n      swap2\n      pop\n      pop\n      jump\t// out\n        /* \"#utility.yul\":442:517   */\n    tag_31:\n        /* \"#utility.yul\":475:481   */\n      0x00\n        /* \"#utility.yul\":508:510   */\n      0x40\n        /* \"#utility.yul\":502:511   */\n      mload\n        /* \"#utility.yul\":492:511   */\n      swap1\n      pop\n        /* \"#utility.yul\":442:517   */\n      swap1\n      jump\t// out\n        /* \"#utility.yul\":523:640   */\n    tag_32:\n        /* \"#utility.yul\":632:633   */\n      0x00\n        /* \"#utility.yul\":629:630   */\n      dup1\n        /* \"#utility.yul\":622:634   */\n      revert\n        /* \"#utility.yul\":646:763   */\n    tag_33:\n        /* \"#utility.yul\":755:756   */\n      0x00\n        /* \"#utility.yul\":752:753   */\n      dup1\n        /* \"#utility.yul\":745:757   */\n      revert\n        /* \"#utility.yul\":769:886   */\n    tag_34:\n        /* \"#utility.yul\":878:879   */\n      0x00\n        /* \"#utility.yul\":875:876   */\n      dup1\n        /* \"#utility.yul\":868:880   */\n      revert\n        /* \"#utility.yul\":892:1009   */\n    tag_35:\n        /* \"#utility.yul\":1001:1002   */\n      0x00\n        /* \"#utility.yul\":998:999   */\n      dup1\n        /* \"#utility.yul\":991:1003   */\n      revert\n        /* \"#utility.yul\":1015:1117   */\n    tag_36:\n        /* \"#utility.yul\":1056:1062   */\n      0x00\n        /* \"#utility.yul\":1107:1109   */\n      0x1f\n        /* \"#utility.yul\":1103:1110   */\n      not\n        /* \"#utility.yul\":1098:1100   */\n      0x1f\n        /* \"#utility.yul\":1091:1096   */\n      dup4\n        /* \"#utility.yul\":1087:1101   */\n      add\n        /* \"#utility.yul\":1083:1111   */\n      and\n        /* \"#utility.yul\":1073:1111   */\n      swap1\n      pop\n        /* \"#utility.yul\":1015:1117   */\n      swap2\n      swap1\n      pop\n      jump\t// out\n        /* \"#utility.yul\":1123:1303   */\n    tag_37:\n        /* \"#utility.yul\":1171:1248   */\n      0x4e487b7100000000000000000000000000000000000000000000000000000000\n        /* \"#utility.yul\":1168:1169   */\n      0x00\n        /* \"#utility.yul\":1161:1249   */\n      mstore\n        /* \"#utility.yul\":1268:1272   */\n      0x41\n        /* \"#utility.yul\":1265:1266   */\n      0x04\n        /* \"#utility.yul\":1258:1273   */\n      mstore\n        /* \"#utility.yul\":1292:1296   */\n      0x24\n        /* \"#utility.yul\":1289:1290   */\n      0x00\n        /* \"#utility.yul\":1282:1297   */\n      revert\n        /* \"#utility.yul\":1309:1590   */\n    tag_38:\n        /* \"#utility.yul\":1392:1419   */\n      tag_80\n        /* \"#utility.yul\":1414:1418   */\n      dup3\n        /* \"#utility.yul\":1392:1419   */\n      tag_36\n      jump\t// in\n    tag_80:\n        /* \"#utility.yul\":1384:1390   */\n      dup2\n        /* \"#utility.yul\":1380:1420   */\n      add\n        /* \"#utility.yul\":1522:1528   */\n      dup2\n        /* \"#utility.yul\":1510:1520   */\n      dup2\n        /* \"#utility.yul\":1507:1529   */\n      lt\n        /* \"#utility.yul\":1486:1504   */\n      0xffffffffffffffff\n        /* \"#utility.yul\":1474:1484   */\n      dup3\n        /* \"#utility.yul\":1471:1505   */\n      gt\n        /* \"#utility.yul\":1468:1530   */\n      or\n        /* \"#utility.yul\":1465:1553   */\n      iszero\n      tag_81\n      jumpi\n        /* \"#utility.yul\":1533:1551   */\n      tag_82\n      tag_37\n      jump\t// in\n    tag_82:\n        /* \"#utility.yul\":1465:1553   */\n    tag_81:\n        /* \"#utility.yul\":1573:1583   */\n      dup1\n        /* \"#utility.yul\":1569:1571   */\n      0x40\n        /* \"#utility.yul\":1562:1584   */\n      mstore\n        /* \"#utility.yul\":1352:1590   */\n      pop\n        /* \"#utility.yul\":1309:1590   */\n      pop\n      pop\n      jump\t// out\n        /* \"#utility.yul\":1596:1725   */\n    tag_39:\n        /* \"#utility.yul\":1630:1636   */\n      0x00\n        /* \"#utility.yul\":1657:1677   */\n      tag_84\n      tag_31\n      jump\t// in\n    tag_84:\n        /* \"#utility.yul\":1647:1677   */\n      swap1\n      pop\n        /* \"#utility.yul\":1686:1719   */\n      tag_85\n        /* \"#utility.yul\":1714:1718   */\n      dup3\n        /* \"#utility.yul\":1706:1712   */\n      dup3\n        /* \"#utility.yul\":1686:1719   */\n      tag_38\n      jump\t// in\n    tag_85:\n        /* \"#utility.yul\":1596:1725   */\n      swap2\n      swap1\n      pop\n      jump\t// out\n        /* \"#utility.yul\":1731:2039   */\n    tag_40:\n        /* \"#utility.yul\":1793:1797   */\n      0x00\n        /* \"#utility.yul\":1883:1901   */\n      0xffffffffffffffff\n        /* \"#utility.yul\":1875:1881   */\n      dup3\n        /* \"#utility.yul\":1872:1902   */\n      gt\n        /* \"#utility.yul\":1869:1925   */\n      iszero\n      tag_87\n      jumpi\n        /* \"#utility.yul\":1905:1923   */\n      tag_88\n      tag_37\n      jump\t// in\n    tag_88:\n        /* \"#utility.yul\":1869:1925   */\n    tag_87:\n        /* \"#utility.yul\":1943:1972   */\n      tag_89\n        /* \"#utility.yul\":1965:1971   */\n      dup3\n        /* \"#utility.yul\":1943:1972   */\n      tag_36\n      jump\t// in\n    tag_89:\n        /* \"#utility.yul\":1935:1972   */\n      swap1\n      pop\n        /* \"#utility.yul\":2027:2031   */\n      0x20\n        /* \"#utility.yul\":2021:2025   */\n      dup2\n        /* \"#utility.yul\":2017:2032   */\n      add\n        /* \"#utility.yul\":2009:2032   */\n      swap1\n      pop\n        /* \"#utility.yul\":1731:2039   */\n      swap2\n      swap1\n      pop\n      jump\t// out\n        /* \"#utility.yul\":2045:2199   */\n    tag_41:\n        /* \"#utility.yul\":2129:2135   */\n      dup3\n        /* \"#utility.yul\":2124:2127   */\n      dup2\n        /* \"#utility.yul\":2119:2122   */\n      dup4\n        /* \"#utility.yul\":2106:2136   */\n      calldatacopy\n        /* \"#utility.yul\":2191:2192   */\n      0x00\n        /* \"#utility.yul\":2182:2188   */\n      dup4\n        /* \"#utility.yul\":2177:2180   */\n      dup4\n        /* \"#utility.yul\":2173:2189   */\n      add\n        /* \"#utility.yul\":2166:2193   */\n      mstore\n        /* \"#utility.yul\":2045:2199   */\n      pop\n      pop\n      pop\n      jump\t// out\n        /* \"#utility.yul\":2205:2617   */\n    tag_42:\n        /* \"#utility.yul\":2283:2288   */\n      0x00\n        /* \"#utility.yul\":2308:2374   */\n      tag_92\n        /* \"#utility.yul\":2324:2373   */\n      tag_93\n        /* \"#utility.yul\":2366:2372   */\n      dup5\n        /* \"#utility.yul\":2324:2373   */\n      tag_40\n      jump\t// in\n    tag_93:\n        /* \"#utility.yul\":2308:2374   */\n      tag_39\n      jump\t// in\n    tag_92:\n        /* \"#utility.yul\":2299:2374   */\n      swap1\n      pop\n        /* \"#utility.yul\":2397:2403   */\n      dup3\n        /* \"#utility.yul\":2390:2395   */\n      dup2\n        /* \"#utility.yul\":2383:2404   */\n      mstore\n        /* \"#utility.yul\":2435:2439   */\n      0x20\n        /* \"#utility.yul\":2428:2433   */\n      dup2\n        /* \"#utility.yul\":2424:2440   */\n      add\n        /* \"#utility.yul\":2473:2476   */\n      dup5\n        /* \"#utility.yul\":2464:2470   */\n      dup5\n        /* \"#utility.yul\":2459:2462   */\n      dup5\n        /* \"#utility.yul\":2455:2471   */\n      add\n        /* \"#utility.yul\":2452:2477   */\n      gt\n        /* \"#utility.yul\":2449:2561   */\n      iszero\n      tag_94\n      jumpi\n        /* \"#utility.yul\":2480:2559   */\n      tag_95\n      tag_35\n      jump\t// in\n    tag_95:\n        /* \"#utility.yul\":2449:2561   */\n    tag_94:\n        /* \"#utility.yul\":2570:2611   */\n      tag_96\n        /* \"#utility.yul\":2604:2610   */\n      dup5\n        /* \"#utility.yul\":2599:2602   */\n      dup3\n        /* \"#utility.yul\":2594:2597   */\n      dup6\n        /* \"#utility.yul\":2570:2611   */\n      tag_41\n      jump\t// in\n    tag_96:\n        /* \"#utility.yul\":2289:2617   */\n      pop\n        /* \"#utility.yul\":2205:2617   */\n      swap4\n      swap3\n      pop\n      pop\n      pop\n      jump\t// out\n        /* \"#utility.yul\":2637:2977   */\n    tag_43:\n        /* \"#utility.yul\":2693:2698   */\n      0x00\n        /* \"#utility.yul\":2742:2745   */\n      dup3\n        /* \"#utility.yul\":2735:2739   */\n      0x1f\n        /* \"#utility.yul\":2727:2733   */\n      dup4\n        /* \"#utility.yul\":2723:2740   */\n      add\n        /* \"#utility.yul\":2719:2746   */\n      slt\n        /* \"#utility.yul\":2709:2831   */\n      tag_98\n      jumpi\n        /* \"#utility.yul\":2750:2829   */\n      tag_99\n      tag_34\n      jump\t// in\n    tag_99:\n        /* \"#utility.yul\":2709:2831   */\n    tag_98:\n        /* \"#utility.yul\":2867:2873   */\n      dup2\n        /* \"#utility.yul\":2854:2874   */\n      calldataload\n        /* \"#utility.yul\":2892:2971   */\n      tag_100\n        /* \"#utility.yul\":2967:2970   */\n      dup5\n        /* \"#utility.yul\":2959:2965   */\n      dup3\n        /* \"#utility.yul\":2952:2956   */\n      0x20\n        /* \"#utility.yul\":2944:2950   */\n      dup7\n        /* \"#utility.yul\":2940:2957   */\n      add\n        /* \"#utility.yul\":2892:2971   */\n      tag_42\n      jump\t// in\n    tag_100:\n        /* \"#utility.yul\":2883:2971   */\n      swap2\n      pop\n        /* \"#utility.yul\":2699:2977   */\n      pop\n        /* \"#utility.yul\":2637:2977   */\n      swap3\n      swap2\n      pop\n      pop\n      jump\t// out\n        /* \"#utility.yul\":2983:3492   */\n    tag_12:\n        /* \"#utility.yul\":3052:3058   */\n      0x00\n        /* \"#utility.yul\":3101:3103   */\n      0x20\n        /* \"#utility.yul\":3089:3098   */\n      dup3\n        /* \"#utility.yul\":3080:3087   */\n      dup5\n        /* \"#utility.yul\":3076:3099   */\n      sub\n        /* \"#utility.yul\":3072:3104   */\n      slt\n        /* \"#utility.yul\":3069:3188   */\n      iszero\n      tag_102\n      jumpi\n        /* \"#utility.yul\":3107:3186   */\n      tag_103\n      tag_32\n      jump\t// in\n    tag_103:\n        /* \"#utility.yul\":3069:3188   */\n    tag_102:\n        /* \"#utility.yul\":3255:3256   */\n      0x00\n        /* \"#utility.yul\":3244:3253   */\n      dup3\n        /* \"#utility.yul\":3240:3257   */\n      add\n        /* \"#utility.yul\":3227:3258   */\n      calldataload\n        /* \"#utility.yul\":3285:3303   */\n      0xffffffffffffffff\n        /* \"#utility.yul\":3277:3283   */\n      dup2\n        /* \"#utility.yul\":3274:3304   */\n      gt\n        /* \"#utility.yul\":3271:3388   */\n      iszero\n      tag_104\n      jumpi\n        /* \"#utility.yul\":3307:3386   */\n      tag_105\n      tag_33\n      jump\t// in\n    tag_105:\n        /* \"#utility.yul\":3271:3388   */\n    tag_104:\n        /* \"#utility.yul\":3412:3475   */\n      tag_106\n        /* \"#utility.yul\":3467:3474   */\n      dup5\n        /* \"#utility.yul\":3458:3464   */\n      dup3\n        /* \"#utility.yul\":3447:3456   */\n      dup6\n        /* \"#utility.yul\":3443:3465   */\n      add\n        /* \"#utility.yul\":3412:3475   */\n      tag_43\n      jump\t// in\n    tag_106:\n        /* \"#utility.yul\":3402:3475   */\n      swap2\n      pop\n        /* \"#utility.yul\":3198:3485   */\n      pop\n        /* \"#utility.yul\":2983:3492   */\n      swap3\n      swap2\n      pop\n      pop\n      jump\t// out\n        /* \"#utility.yul\":3498:3620   */\n    tag_44:\n        /* \"#utility.yul\":3571:3595   */\n      tag_108\n        /* \"#utility.yul\":3589:3594   */\n      dup2\n        /* \"#utility.yul\":3571:3595   */\n      tag_29\n      jump\t// in\n    tag_108:\n        /* \"#utility.yul\":3564:3569   */\n      dup2\n        /* \"#utility.yul\":3561:3596   */\n      eq\n        /* \"#utility.yul\":3551:3614   */\n      tag_109\n      jumpi\n        /* \"#utility.yul\":3610:3611   */\n      0x00\n        /* \"#utility.yul\":3607:3608   */\n      dup1\n        /* \"#utility.yul\":3600:3612   */\n      revert\n        /* \"#utility.yul\":3551:3614   */\n    tag_109:\n        /* \"#utility.yul\":3498:3620   */\n      pop\n      jump\t// out\n        /* \"#utility.yul\":3626:3765   */\n    tag_45:\n        /* \"#utility.yul\":3672:3677   */\n      0x00\n        /* \"#utility.yul\":3710:3716   */\n      dup2\n        /* \"#utility.yul\":3697:3717   */\n      calldataload\n        /* \"#utility.yul\":3688:3717   */\n      swap1\n      pop\n        /* \"#utility.yul\":3726:3759   */\n      tag_111\n        /* \"#utility.yul\":3753:3758   */\n      dup2\n        /* \"#utility.yul\":3726:3759   */\n      tag_44\n      jump\t// in\n    tag_111:\n        /* \"#utility.yul\":3626:3765   */\n      swap3\n      swap2\n      pop\n      pop\n      jump\t// out\n        /* \"#utility.yul\":3771:4100   */\n    tag_16:\n        /* \"#utility.yul\":3830:3836   */\n      0x00\n        /* \"#utility.yul\":3879:3881   */\n      0x20\n        /* \"#utility.yul\":3867:3876   */\n      dup3\n        /* \"#utility.yul\":3858:3865   */\n      dup5\n        /* \"#utility.yul\":3854:3877   */\n      sub\n        /* \"#utility.yul\":3850:3882   */\n      slt\n        /* \"#utility.yul\":3847:3966   */\n      iszero\n      tag_113\n      jumpi\n        /* \"#utility.yul\":3885:3964   */\n      tag_114\n      tag_32\n      jump\t// in\n    tag_114:\n        /* \"#utility.yul\":3847:3966   */\n    tag_113:\n        /* \"#utility.yul\":4005:4006   */\n      0x00\n        /* \"#utility.yul\":4030:4083   */\n      tag_115\n        /* \"#utility.yul\":4075:4082   */\n      dup5\n        /* \"#utility.yul\":4066:4072   */\n      dup3\n        /* \"#utility.yul\":4055:4064   */\n      dup6\n        /* \"#utility.yul\":4051:4073   */\n      add\n        /* \"#utility.yul\":4030:4083   */\n      tag_45\n      jump\t// in\n    tag_115:\n        /* \"#utility.yul\":4020:4083   */\n      swap2\n      pop\n        /* \"#utility.yul\":3976:4093   */\n      pop\n        /* \"#utility.yul\":3771:4100   */\n      swap3\n      swap2\n      pop\n      pop\n      jump\t// out\n        /* \"#utility.yul\":4106:4205   */\n    tag_46:\n        /* \"#utility.yul\":4158:4164   */\n      0x00\n        /* \"#utility.yul\":4192:4197   */\n      dup2\n        /* \"#utility.yul\":4186:4198   */\n      mload\n        /* \"#utility.yul\":4176:4198   */\n      swap1\n      pop\n        /* \"#utility.yul\":4106:4205   */\n      swap2\n      swap1\n      pop\n      jump\t// out\n        /* \"#utility.yul\":4211:4380   */\n    tag_47:\n        /* \"#utility.yul\":4295:4306   */\n      0x00\n        /* \"#utility.yul\":4329:4335   */\n      dup3\n        /* \"#utility.yul\":4324:4327   */\n      dup3\n        /* \"#utility.yul\":4317:4336   */\n      mstore\n        /* \"#utility.yul\":4369:4373   */\n      0x20\n        /* \"#utility.yul\":4364:4367   */\n      dup3\n        /* \"#utility.yul\":4360:4374   */\n      add\n        /* \"#utility.yul\":4345:4374   */\n      swap1\n      pop\n        /* \"#utility.yul\":4211:4380   */\n      swap3\n      swap2\n      pop\n      pop\n      jump\t// out\n        /* \"#utility.yul\":4386:4693   */\n    tag_48:\n        /* \"#utility.yul\":4454:4455   */\n      0x00\n        /* \"#utility.yul\":4464:4577   */\n    tag_119:\n        /* \"#utility.yul\":4478:4484   */\n      dup4\n        /* \"#utility.yul\":4475:4476   */\n      dup2\n        /* \"#utility.yul\":4472:4485   */\n      lt\n        /* \"#utility.yul\":4464:4577   */\n      iszero\n      tag_121\n      jumpi\n        /* \"#utility.yul\":4563:4564   */\n      dup1\n        /* \"#utility.yul\":4558:4561   */\n      dup3\n        /* \"#utility.yul\":4554:4565   */\n      add\n        /* \"#utility.yul\":4548:4566   */\n      mload\n        /* \"#utility.yul\":4544:4545   */\n      dup2\n        /* \"#utility.yul\":4539:4542   */\n      dup5\n        /* \"#utility.yul\":4535:4546   */\n      add\n        /* \"#utility.yul\":4528:4567   */\n      mstore\n        /* \"#utility.yul\":4500:4502   */\n      0x20\n        /* \"#utility.yul\":4497:4498   */\n      dup2\n        /* \"#utility.yul\":4493:4503   */\n      add\n        /* \"#utility.yul\":4488:4503   */\n      swap1\n      pop\n        /* \"#utility.yul\":4464:4577   */\n      jump(tag_119)\n    tag_121:\n        /* \"#utility.yul\":4595:4601   */\n      dup4\n        /* \"#utility.yul\":4592:4593   */\n      dup2\n        /* \"#utility.yul\":4589:4602   */\n      gt\n        /* \"#utility.yul\":4586:4687   */\n      iszero\n      tag_122\n      jumpi\n        /* \"#utility.yul\":4675:4676   */\n      0x00\n        /* \"#utility.yul\":4666:4672   */\n      dup5\n        /* \"#utility.yul\":4661:4664   */\n      dup5\n        /* \"#utility.yul\":4657:4673   */\n      add\n        /* \"#utility.yul\":4650:4677   */\n      mstore\n        /* \"#utility.yul\":4586:4687   */\n    tag_122:\n        /* \"#utility.yul\":4435:4693   */\n      pop\n        /* \"#utility.yul\":4386:4693   */\n      pop\n      pop\n      pop\n      jump\t// out\n        /* \"#utility.yul\":4699:5063   */\n    tag_49:\n        /* \"#utility.yul\":4787:4790   */\n      0x00\n        /* \"#utility.yul\":4815:4854   */\n      tag_124\n        /* \"#utility.yul\":4848:4853   */\n      dup3\n        /* \"#utility.yul\":4815:4854   */\n      tag_46\n      jump\t// in\n    tag_124:\n        /* \"#utility.yul\":4870:4941   */\n      tag_125\n        /* \"#utility.yul\":4934:4940   */\n      dup2\n        /* \"#utility.yul\":4929:4932   */\n      dup6\n        /* \"#utility.yul\":4870:4941   */\n      tag_47\n      jump\t// in\n    tag_125:\n        /* \"#utility.yul\":4863:4941   */\n      swap4\n      pop\n        /* \"#utility.yul\":4950:5002   */\n      tag_126\n        /* \"#utility.yul\":4995:5001   */\n      dup2\n        /* \"#utility.yul\":4990:4993   */\n      dup6\n        /* \"#utility.yul\":4983:4987   */\n      0x20\n        /* \"#utility.yul\":4976:4981   */\n      dup7\n        /* \"#utility.yul\":4972:4988   */\n      add\n        /* \"#utility.yul\":4950:5002   */\n      tag_48\n      jump\t// in\n    tag_126:\n        /* \"#utility.yul\":5027:5056   */\n      tag_127\n        /* \"#utility.yul\":5049:5055   */\n      dup2\n        /* \"#utility.yul\":5027:5056   */\n      tag_36\n      jump\t// in\n    tag_127:\n        /* \"#utility.yul\":5022:5025   */\n      dup5\n        /* \"#utility.yul\":5018:5057   */\n      add\n        /* \"#utility.yul\":5011:5057   */\n      swap2\n      pop\n        /* \"#utility.yul\":4791:5063   */\n      pop\n        /* \"#utility.yul\":4699:5063   */\n      swap3\n      swap2\n      pop\n      pop\n      jump\t// out\n        /* \"#utility.yul\":5069:5382   */\n    tag_19:\n        /* \"#utility.yul\":5182:5186   */\n      0x00\n        /* \"#utility.yul\":5220:5222   */\n      0x20\n        /* \"#utility.yul\":5209:5218   */\n      dup3\n        /* \"#utility.yul\":5205:5223   */\n      add\n        /* \"#utility.yul\":5197:5223   */\n      swap1\n      pop\n        /* \"#utility.yul\":5269:5278   */\n      dup2\n        /* \"#utility.yul\":5263:5267   */\n      dup2\n        /* \"#utility.yul\":5259:5279   */\n      sub\n        /* \"#utility.yul\":5255:5256   */\n      0x00\n        /* \"#utility.yul\":5244:5253   */\n      dup4\n        /* \"#utility.yul\":5240:5257   */\n      add\n        /* \"#utility.yul\":5233:5280   */\n      mstore\n        /* \"#utility.yul\":5297:5375   */\n      tag_129\n        /* \"#utility.yul\":5370:5374   */\n      dup2\n        /* \"#utility.yul\":5361:5367   */\n      dup5\n        /* \"#utility.yul\":5297:5375   */\n      tag_49\n      jump\t// in\n    tag_129:\n        /* \"#utility.yul\":5289:5375   */\n      swap1\n      pop\n        /* \"#utility.yul\":5069:5382   */\n      swap3\n      swap2\n      pop\n      pop\n      jump\t// out\n        /* \"#utility.yul\":5388:5568   */\n    tag_50:\n        /* \"#utility.yul\":5436:5513   */\n      0x4e487b7100000000000000000000000000000000000000000000000000000000\n        /* \"#utility.yul\":5433:5434   */\n      0x00\n        /* \"#utility.yul\":5426:5514   */\n      mstore\n        /* \"#utility.yul\":5533:5537   */\n      0x22\n        /* \"#utility.yul\":5530:5531   */\n      0x04\n        /* \"#utility.yul\":5523:5538   */\n      mstore\n        /* \"#utility.yul\":5557:5561   */\n      0x24\n        /* \"#utility.yul\":5554:5555   */\n      0x00\n        /* \"#utility.yul\":5547:5562   */\n      revert\n        /* \"#utility.yul\":5574:5894   */\n    tag_24:\n        /* \"#utility.yul\":5618:5624   */\n      0x00\n        /* \"#utility.yul\":5655:5656   */\n      0x02\n        /* \"#utility.yul\":5649:5653   */\n      dup3\n        /* \"#utility.yul\":5645:5657   */\n      div\n        /* \"#utility.yul\":5635:5657   */\n      swap1\n      pop\n        /* \"#utility.yul\":5702:5703   */\n      0x01\n        /* \"#utility.yul\":5696:5700   */\n      dup3\n        /* \"#utility.yul\":5692:5704   */\n      and\n        /* \"#utility.yul\":5723:5741   */\n      dup1\n        /* \"#utility.yul\":5713:5794   */\n      tag_132\n      jumpi\n        /* \"#utility.yul\":5779:5783   */\n      0x7f\n        /* \"#utility.yul\":5771:5777   */\n      dup3\n        /* \"#utility.yul\":5767:5784   */\n      and\n        /* \"#utility.yul\":5757:5784   */\n      swap2\n      pop\n        /* \"#utility.yul\":5713:5794   */\n    tag_132:\n        /* \"#utility.yul\":5841:5843   */\n      0x20\n        /* \"#utility.yul\":5833:5839   */\n      dup3\n        /* \"#utility.yul\":5830:5844   */\n      lt\n        /* \"#utility.yul\":5810:5828   */\n      dup2\n        /* \"#utility.yul\":5807:5845   */\n      sub\n        /* \"#utility.yul\":5804:5888   */\n      tag_133\n      jumpi\n        /* \"#utility.yul\":5860:5878   */\n      tag_134\n      tag_50\n      jump\t// in\n    tag_134:\n        /* \"#utility.yul\":5804:5888   */\n    tag_133:\n        /* \"#utility.yul\":5625:5894   */\n      pop\n        /* \"#utility.yul\":5574:5894   */\n      swap2\n      swap1\n      pop\n      jump\t// out\n        /* \"#utility.yul\":5900:6041   */\n    tag_51:\n        /* \"#utility.yul\":5949:5953   */\n      0x00\n        /* \"#utility.yul\":5972:5975   */\n      dup2\n        /* \"#utility.yul\":5964:5975   */\n      swap1\n      pop\n        /* \"#utility.yul\":5995:5998   */\n      dup2\n        /* \"#utility.yul\":5992:5993   */\n      0x00\n        /* \"#utility.yul\":5985:5999   */\n      mstore\n        /* \"#utility.yul\":6029:6033   */\n      0x20\n        /* \"#utility.yul\":6026:6027   */\n      0x00\n        /* \"#utility.yul\":6016:6034   */\n      keccak256\n        /* \"#utility.yul\":6008:6034   */\n      swap1\n      pop\n        /* \"#utility.yul\":5900:6041   */\n      swap2\n      swap1\n      pop\n      jump\t// out\n        /* \"#utility.yul\":6047:6140   */\n    tag_52:\n        /* \"#utility.yul\":6084:6090   */\n      0x00\n        /* \"#utility.yul\":6131:6133   */\n      0x20\n        /* \"#utility.yul\":6126:6128   */\n      0x1f\n        /* \"#utility.yul\":6119:6124   */\n      dup4\n        /* \"#utility.yul\":6115:6129   */\n      add\n        /* \"#utility.yul\":6111:6134   */\n      div\n        /* \"#utility.yul\":6101:6134   */\n      swap1\n      pop\n        /* \"#utility.yul\":6047:6140   */\n      swap2\n      swap1\n      pop\n      jump\t// out\n        /* \"#utility.yul\":6146:6253   */\n    tag_53:\n        /* \"#utility.yul\":6190:6198   */\n      0x00\n        /* \"#utility.yul\":6240:6245   */\n      dup3\n        /* \"#utility.yul\":6234:6238   */\n      dup3\n        /* \"#utility.yul\":6230:6246   */\n      shl\n        /* \"#utility.yul\":6209:6246   */\n      swap1\n      pop\n        /* \"#utility.yul\":6146:6253   */\n      swap3\n      swap2\n      pop\n      pop\n      jump\t// out\n        /* \"#utility.yul\":6259:6652   */\n    tag_54:\n        /* \"#utility.yul\":6328:6334   */\n      0x00\n        /* \"#utility.yul\":6378:6379   */\n      0x08\n        /* \"#utility.yul\":6366:6376   */\n      dup4\n        /* \"#utility.yul\":6362:6380   */\n      mul\n        /* \"#utility.yul\":6401:6498   */\n      tag_139\n        /* \"#utility.yul\":6431:6497   */\n      0xffffffffffffffffffffffffffffffffffffffffffffffffffffffffffffffff\n        /* \"#utility.yul\":6420:6429   */\n      dup3\n        /* \"#utility.yul\":6401:6498   */\n      tag_53\n      jump\t// in\n    tag_139:\n        /* \"#utility.yul\":6519:6558   */\n      tag_140\n        /* \"#utility.yul\":6549:6557   */\n      dup7\n        /* \"#utility.yul\":6538:6547   */\n      dup4\n        /* \"#utility.yul\":6519:6558   */\n      tag_53\n      jump\t// in\n    tag_140:\n        /* \"#utility.yul\":6507:6558   */\n      swap6\n      pop\n        /* \"#utility.yul\":6591:6595   */\n      dup1\n        /* \"#utility.yul\":6587:6596   */\n      not\n        /* \"#utility.yul\":6580:6585   */\n      dup5\n        /* \"#utility.yul\":6576:6597   */\n      and\n        /* \"#utility.yul\":6567:6597   */\n      swap4\n      pop\n        /* \"#utility.yul\":6640:6644   */\n      dup1\n        /* \"#utility.yul\":6630:6638   */\n      dup7\n        /* \"#utility.yul\":6626:6645   */\n      and\n        /* \"#utility.yul\":6619:6624   */\n      dup5\n        /* \"#utility.yul\":6616:6646   */\n      or\n        /* \"#utility.yul\":6606:6646   */\n      swap3\n      pop\n        /* \"#utility.yul\":6335:6652   */\n      pop\n      pop\n        /* \"#utility.yul\":6259:6652   */\n      swap4\n      swap3\n      pop\n      pop\n      pop\n      jump\t// out\n        /* \"#utility.yul\":6658:6718   */\n    tag_55:\n        /* \"#utility.yul\":6686:6689   */\n      0x00\n        /* \"#utility.yul\":6707:6712   */\n      dup2\n        /* \"#utility.yul\":6700:6712   */\n      swap1\n      pop\n        /* \"#utility.yul\":6658:6718   */\n      swap2\n      swap1\n      pop\n      jump\t// out\n        /* \"#utility.yul\":6724:6866   */\n    tag_56:\n        /* \"#utility.yul\":6774:6783   */\n      0x00\n        /* \"#utility.yul\":6807:6860   */\n      tag_143\n        /* \"#utility.yul\":6825:6859   */\n      tag_144\n        /* \"#utility.yul\":6834:6858   */\n      tag_145\n        /* \"#utility.yul\":6852:6857   */\n      dup5\n        /* \"#utility.yul\":6834:6858   */\n      tag_29\n      jump\t// in\n    tag_145:\n        /* \"#utility.yul\":6825:6859   */\n      tag_55\n      jump\t// in\n    tag_144:\n        /* \"#utility.yul\":6807:6860   */\n      tag_29\n      jump\t// in\n    tag_143:\n        /* \"#utility.yul\":6794:6860   */\n      swap1\n      pop\n        /* \"#utility.yul\":6724:6866   */\n      swap2\n      swap1\n      pop\n      jump\t// out\n        /* \"#utility.yul\":6872:6947   */\n    tag_57:\n        /* \"#utility.yul\":6915:6918   */\n      0x00\n        /* \"#utility.yul\":6936:6941   */\n      dup2\n        /* \"#utility.yul\":6929:6941   */\n      swap1\n      pop\n        /* \"#utility.yul\":6872:6947   */\n      swap2\n      swap1\n      pop\n      jump\t// out\n        /* \"#utility.yul\":6953:7222   */\n    tag_58:\n        /* \"#utility.yul\":7063:7102   */\n      tag_148\n        /* \"#utility.yul\":7094:7101   */\n      dup4\n        /* \"#utility.yul\":7063:7102   */\n      tag_56\n      jump\t// in\n    tag_148:\n        /* \"#utility.yul\":7124:7215   */\n      tag_149\n        /* \"#utility.yul\":7173:7214   */\n      tag_150\n        /* \"#utility.yul\":7197:7213   */\n      dup3\n        /* \"#utility.yul\":7173:7214   */\n      tag_57\n      jump\t// in\n    tag_150:\n        /* \"#utility.yul\":7165:7171   */\n      dup5\n        /* \"#utility.yul\":7158:7162   */\n      dup5\n        /* \"#utility.yul\":7152:7163   */\n      sload\n        /* \"#utility.yul\":7124:7215   */\n      tag_54\n      jump\t// in\n    tag_149:\n        /* \"#utility.yul\":7118:7122   */\n      dup3\n        /* \"#utility.yul\":7111:7216   */\n      sstore\n        /* \"#utility.yul\":7029:7222   */\n      pop\n        /* \"#utility.yul\":6953:7222   */\n      pop\n      pop\n      pop\n      jump\t// out\n        /* \"#utility.yul\":7228:7301   */\n    tag_59:\n        /* \"#utility.yul\":7273:7276   */\n      0x00\n        /* \"#utility.yul\":7228:7301   */\n      swap1\n      jump\t// out\n        /* \"#utility.yul\":7307:7496   */\n    tag_60:\n        /* \"#utility.yul\":7384:7416   */\n      tag_153\n      tag_59\n      jump\t// in\n    tag_153:\n        /* \"#utility.yul\":7425:7490   */\n      tag_154\n        /* \"#utility.yul\":7483:7489   */\n      dup2\n        /* \"#utility.yul\":7475:7481   */\n      dup5\n        /* \"#utility.yul\":7469:7473   */\n      dup5\n        /* \"#utility.yul\":7425:7490   */\n      tag_58\n      jump\t// in\n    tag_154:\n        /* \"#utility.yul\":7360:7496   */\n      pop\n        /* \"#utility.yul\":7307:7496   */\n      pop\n      pop\n      jump\t// out\n        /* \"#utility.yul\":7502:7688   */\n    tag_61:\n        /* \"#utility.yul\":7562:7682   */\n    tag_156:\n        /* \"#utility.yul\":7579:7582   */\n      dup2\n        /* \"#utility.yul\":7572:7577   */\n      dup2\n        /* \"#utility.yul\":7569:7583   */\n      lt\n        /* \"#utility.yul\":7562:7682   */\n      iszero\n      tag_158\n      jumpi\n        /* \"#utility.yul\":7633:7672   */\n      tag_159\n        /* \"#utility.yul\":7670:7671   */\n      0x00\n        /* \"#utility.yul\":7663:7668   */\n      dup3\n        /* \"#utility.yul\":7633:7672   */\n      tag_60\n      jump\t// in\n    tag_159:\n        /* \"#utility.yul\":7606:7607   */\n      0x01\n        /* \"#utility.yul\":7599:7604   */\n      dup2\n        /* \"#utility.yul\":7595:7608   */\n      add\n        /* \"#utility.yul\":7586:7608   */\n      swap1\n      pop\n        /* \"#utility.yul\":7562:7682   */\n      jump(tag_156)\n    tag_158:\n        /* \"#utility.yul\":7502:7688   */\n      pop\n      pop\n      jump\t// out\n        /* \"#utility.yul\":7694:8237   */\n    tag_62:\n        /* \"#utility.yul\":7795:7797   */\n      0x1f\n        /* \"#utility.yul\":7790:7793   */\n      dup3\n        /* \"#utility.yul\":7787:7798   */\n      gt\n        /* \"#utility.yul\":7784:8230   */\n      iszero\n      tag_161\n      jumpi\n        /* \"#utility.yul\":7829:7867   */\n      tag_162\n        /* \"#utility.yul\":7861:7866   */\n      dup2\n        /* \"#utility.yul\":7829:7867   */\n      tag_51\n      jump\t// in\n    tag_162:\n        /* \"#utility.yul\":7913:7942   */\n      tag_163\n        /* \"#utility.yul\":7931:7941   */\n      dup5\n        /* \"#utility.yul\":7913:7942   */\n      tag_52\n      jump\t// in\n    tag_163:\n        /* \"#utility.yul\":7903:7911   */\n      dup2\n        /* \"#utility.yul\":7899:7943   */\n      add\n        /* \"#utility.yul\":8096:8098   */\n      0x20\n        /* \"#utility.yul\":8084:8094   */\n      dup6\n        /* \"#utility.yul\":8081:8099   */\n      lt\n        /* \"#utility.yul\":8078:8127   */\n      iszero\n      tag_164\n      jumpi\n        /* \"#utility.yul\":8117:8125   */\n      dup2\n        /* \"#utility.yul\":8102:8125   */\n      swap1\n      pop\n        /* \"#utility.yul\":8078:8127   */\n    tag_164:\n        /* \"#utility.yul\":8140:8220   */\n      tag_165\n        /* \"#utility.yul\":8196:8218   */\n      tag_166\n        /* \"#utility.yul\":8214:8217   */\n      dup6\n        /* \"#utility.yul\":8196:8218   */\n      tag_52\n      jump\t// in\n    tag_166:\n        /* \"#utility.yul\":8186:8194   */\n      dup4\n        /* \"#utility.yul\":8182:8219   */\n      add\n        /* \"#utility.yul\":8169:8180   */\n      dup3\n        /* \"#utility.yul\":8140:8220   */\n      tag_61\n      jump\t// in\n    tag_165:\n        /* \"#utility.yul\":7799:8230   */\n      pop\n      pop\n        /* \"#utility.yul\":7784:8230   */\n    tag_161:\n        /* \"#utility.yul\":7694:8237   */\n      pop\n      pop\n      pop\n      jump\t// out\n        /* \"#utility.yul\":8243:8360   */\n    tag_63:\n        /* \"#utility.yul\":8297:8305   */\n      0x00\n        /* \"#utility.yul\":8347:8352   */\n      dup3\n        /* \"#utility.yul\":8341:8345   */\n      dup3\n        /* \"#utility.yul\":8337:8353   */\n      shr\n        /* \"#utility.yul\":8316:8353   */\n      swap1\n      pop\n        /* \"#utility.yul\":8243:8360   */\n      swap3\n      swap2\n      pop\n      pop\n      jump\t// out\n        /* \"#utility.yul\":8366:8535   */\n    tag_64:\n        /* \"#utility.yul\":8410:8416   */\n      0x00\n        /* \"#utility.yul\":8443:8494   */\n      tag_169\n        /* \"#utility.yul\":8491:8492   */\n      0x00\n        /* \"#utility.yul\":8487:8493   */\n      not\n        /* \"#utility.yul\":8479:8484   */\n      dup5\n        /* \"#utility.yul\":8476:8477   */\n      0x08\n        /* \"#utility.yul\":8472:8485   */\n      mul\n        /* \"#utility.yul\":8443:8494   */\n      tag_63\n      jump\t// in\n    tag_169:\n        /* \"#utility.yul\":8439:8495   */\n      not\n        /* \"#utility.yul\":8524:8528   */\n      dup1\n        /* \"#utility.yul\":8518:8522   */\n      dup4\n        /* \"#utility.yul\":8514:8529   */\n      and\n        /* \"#utility.yul\":8504:8529   */\n      swap2\n      pop\n        /* \"#utility.yul\":8417:8535   */\n      pop\n        /* \"#utility.yul\":8366:8535   */\n      swap3\n      swap2\n      pop\n      pop\n      jump\t// out\n        /* \"#utility.yul\":8540:8835   */\n    tag_65:\n        /* \"#utility.yul\":8616:8620   */\n      0x00\n        /* \"#utility.yul\":8762:8791   */\n      tag_171\n        /* \"#utility.yul\":8787:8790   */\n      dup4\n        /* \"#utility.yul\":8781:8785   */\n      dup4\n        /* \"#utility.yul\":8762:8791   */\n      tag_64\n      jump\t// in\n    tag_171:\n        /* \"#utility.yul\":8754:8791   */\n      swap2\n      pop\n        /* \"#utility.yul\":8824:8827   */\n      dup3\n        /* \"#utility.yul\":8821:8822   */\n      0x02\n        /* \"#utility.yul\":8817:8828   */\n      mul\n        /* \"#utility.yul\":8811:8815   */\n      dup3\n        /* \"#utility.yul\":8808:8829   */\n      or\n        /* \"#utility.yul\":8800:8829   */\n      swap1\n      pop\n        /* \"#utility.yul\":8540:8835   */\n      swap3\n      swap2\n      pop\n      pop\n      jump\t// out\n        /* \"#utility.yul\":8840:10235   */\n    tag_22:\n        /* \"#utility.yul\":8957:8994   */\n      tag_173\n        /* \"#utility.yul\":8990:8993   */\n      dup3\n        /* \"#utility.yul\":8957:8994   */\n      tag_46\n      jump\t// in\n    tag_173:\n        /* \"#utility.yul\":9059:9077   */\n      0xffffffffffffffff\n        /* \"#utility.yul\":9051:9057   */\n      dup2\n        /* \"#utility.yul\":9048:9078   */\n      gt\n        /* \"#utility.yul\":9045:9101   */\n      iszero\n      tag_174\n      jumpi\n        /* \"#utility.yul\":9081:9099   */\n      tag_175\n      tag_37\n      jump\t// in\n    tag_175:\n        /* \"#utility.yul\":9045:9101   */\n    tag_174:\n        /* \"#utility.yul\":9125:9163   */\n      tag_176\n        /* \"#utility.yul\":9157:9161   */\n      dup3\n        /* \"#utility.yul\":9151:9162   */\n      sload\n        /* \"#utility.yul\":9125:9163   */\n      tag_24\n      jump\t// in\n    tag_176:\n        /* \"#utility.yul\":9210:9277   */\n      tag_177\n        /* \"#utility.yul\":9270:9276   */\n      dup3\n        /* \"#utility.yul\":9262:9268   */\n      dup3\n        /* \"#utility.yul\":9256:9260   */\n      dup6\n        /* \"#utility.yul\":9210:9277   */\n      tag_62\n      jump\t// in\n    tag_177:\n        /* \"#utility.yul\":9304:9305   */\n      0x00\n        /* \"#utility.yul\":9328:9332   */\n      0x20\n        /* \"#utility.yul\":9315:9332   */\n      swap1\n      pop\n        /* \"#utility.yul\":9360:9362   */\n      0x1f\n        /* \"#utility.yul\":9352:9358   */\n      dup4\n        /* \"#utility.yul\":9349:9363   */\n      gt\n        /* \"#utility.yul\":9377:9378   */\n      0x01\n        /* \"#utility.yul\":9372:9990   */\n      dup2\n      eq\n      tag_179\n      jumpi\n        /* \"#utility.yul\":10034:10035   */\n      0x00\n        /* \"#utility.yul\":10051:10057   */\n      dup5\n        /* \"#utility.yul\":10048:10125   */\n      iszero\n      tag_180\n      jumpi\n        /* \"#utility.yul\":10100:10109   */\n      dup3\n        /* \"#utility.yul\":10095:10098   */\n      dup8\n        /* \"#utility.yul\":10091:10110   */\n      add\n        /* \"#utility.yul\":10085:10111   */\n      mload\n        /* \"#utility.yul\":10076:10111   */\n      swap1\n      pop\n        /* \"#utility.yul\":10048:10125   */\n    tag_180:\n        /* \"#utility.yul\":10151:10218   */\n      tag_181\n        /* \"#utility.yul\":10211:10217   */\n      dup6\n        /* \"#utility.yul\":10204:10209   */\n      dup3\n        /* \"#utility.yul\":10151:10218   */\n      tag_65\n      jump\t// in\n    tag_181:\n        /* \"#utility.yul\":10145:10149   */\n      dup7\n        /* \"#utility.yul\":10138:10219   */\n      sstore\n        /* \"#utility.yul\":10007:10229   */\n      pop\n        /* \"#utility.yul\":9342:10229   */\n      jump(tag_178)\n        /* \"#utility.yul\":9372:9990   */\n    tag_179:\n        /* \"#utility.yul\":9424:9428   */\n      0x1f\n        /* \"#utility.yul\":9420:9429   */\n      not\n        /* \"#utility.yul\":9412:9418   */\n      dup5\n        /* \"#utility.yul\":9408:9430   */\n      and\n        /* \"#utility.yul\":9458:9495   */\n      tag_182\n        /* \"#utility.yul\":9490:9494   */\n      dup7\n        /* \"#utility.yul\":9458:9495   */\n      tag_51\n      jump\t// in\n    tag_182:\n        /* \"#utility.yul\":9517:9518   */\n      0x00\n        /* \"#utility.yul\":9531:9739   */\n    tag_183:\n        /* \"#utility.yul\":9545:9552   */\n      dup3\n        /* \"#utility.yul\":9542:9543   */\n      dup2\n        /* \"#utility.yul\":9539:9553   */\n      lt\n        /* \"#utility.yul\":9531:9739   */\n      iszero\n      tag_185\n      jumpi\n        /* \"#utility.yul\":9624:9633   */\n      dup5\n        /* \"#utility.yul\":9619:9622   */\n      dup10\n        /* \"#utility.yul\":9615:9634   */\n      add\n        /* \"#utility.yul\":9609:9635   */\n      mload\n        /* \"#utility.yul\":9601:9607   */\n      dup3\n        /* \"#utility.yul\":9594:9636   */\n      sstore\n        /* \"#utility.yul\":9675:9676   */\n      0x01\n        /* \"#utility.yul\":9667:9673   */\n      dup3\n        /* \"#utility.yul\":9663:9677   */\n      add\n        /* \"#utility.yul\":9653:9677   */\n      swap2\n      pop\n        /* \"#utility.yul\":9722:9724   */\n      0x20\n        /* \"#utility.yul\":9711:9720   */\n      dup6\n        /* \"#utility.yul\":9707:9725   */\n      add\n        /* \"#utility.yul\":9694:9725   */\n      swap5\n      pop\n        /* \"#utility.yul\":9568:9572   */\n      0x20\n        /* \"#utility.yul\":9565:9566   */\n      dup2\n        /* \"#utility.yul\":9561:9573   */\n      add\n        /* \"#utility.yul\":9556:9573   */\n      swap1\n      pop\n        /* \"#utility.yul\":9531:9739   */\n      jump(tag_183)\n    tag_185:\n        /* \"#utility.yul\":9767:9773   */\n      dup7\n        /* \"#utility.yul\":9758:9765   */\n      dup4\n        /* \"#utility.yul\":9755:9774   */\n      lt\n        /* \"#utility.yul\":9752:9931   */\n      iszero\n      tag_186\n      jumpi\n        /* \"#utility.yul\":9825:9834   */\n      dup5\n        /* \"#utility.yul\":9820:9823   */\n      dup10\n        /* \"#utility.yul\":9816:9835   */\n      add\n        /* \"#utility.yul\":9810:9836   */\n      mload\n        /* \"#utility.yul\":9868:9916   */\n      tag_187\n        /* \"#utility.yul\":9910:9914   */\n      0x1f\n        /* \"#utility.yul\":9902:9908   */\n      dup10\n        /* \"#utility.yul\":9898:9915   */\n      and\n        /* \"#utility.yul\":9887:9896   */\n      dup3\n        /* \"#utility.yul\":9868:9916   */\n      tag_64\n      jump\t// in\n    tag_187:\n        /* \"#utility.yul\":9860:9866   */\n      dup4\n        /* \"#utility.yul\":9853:9917   */\n      sstore\n        /* \"#utility.yul\":9775:9931   */\n      pop\n        /* \"#utility.yul\":9752:9931   */\n    tag_186:\n        /* \"#utility.yul\":9977:9978   */\n      0x01\n        /* \"#utility.yul\":9973:9974   */\n      0x02\n        /* \"#utility.yul\":9965:9971   */\n      dup9\n        /* \"#utility.yul\":9961:9975   */\n      mul\n        /* \"#utility.yul\":9957:9979   */\n      add\n        /* \"#utility.yul\":9951:9955   */\n      dup9\n        /* \"#utility.yul\":9944:9980   */\n      sstore\n        /* \"#utility.yul\":9379:9990   */\n      pop\n      pop\n      pop\n        /* \"#utility.yul\":9342:10229   */\n    tag_178:\n      pop\n        /* \"#utility.yul\":8932:10235   */\n      pop\n      pop\n      pop\n        /* \"#utility.yul\":8840:10235   */\n      pop\n      pop\n      jump\t// out\n\n    auxdata: 0xa2646970667358221220ca2ce3341e56e65ce39a7ba08ef26961bcec7e6af6339e2e25435a574e2e93dd64736f6c634300080f0033\n}\n",
				"bytecode": {
					"linkReferences": {},
					"object": "608060405234801561001057600080fd5b50610769806100206000396000f3fe608060405234801561001057600080fd5b50600436106100415760003560e01c806306661abd146100465780630ed047d41461006457806311d5aaa714610080575b600080fd5b61004e6100b0565b60405161005b9190610194565b60405180910390f35b61007e60048036038101906100799190610309565b6100b6565b005b61009a6004803603810190610095919061037e565b6100db565b6040516100a79190610433565b60405180910390f35b60015481565b80600080600154815260200190815260200160002090816100d79190610661565b5050565b600060205280600052604060002060009150905080546100fa90610484565b80601f016020809104026020016040519081016040528092919081815260200182805461012690610484565b80156101735780601f1061014857610100808354040283529160200191610173565b820191906000526020600020905b81548152906001019060200180831161015657829003601f168201915b505050505081565b6000819050919050565b61018e8161017b565b82525050565b60006020820190506101a96000830184610185565b92915050565b6000604051905090565b600080fd5b600080fd5b600080fd5b600080fd5b6000601f19601f8301169050919050565b7f4e487b7100000000000000000000000000000000000000000000000000000000600052604160045260246000fd5b610216826101cd565b810181811067ffffffffffffffff82111715610235576102346101de565b5b80604052505050565b60006102486101af565b9050610254828261020d565b919050565b600067ffffffffffffffff821115610274576102736101de565b5b61027d826101cd565b9050602081019050919050565b82818337600083830152505050565b60006102ac6102a784610259565b61023e565b9050828152602081018484840111156102c8576102c76101c8565b5b6102d384828561028a565b509392505050565b600082601f8301126102f0576102ef6101c3565b5b8135610300848260208601610299565b91505092915050565b60006020828403121561031f5761031e6101b9565b5b600082013567ffffffffffffffff81111561033d5761033c6101be565b5b610349848285016102db565b91505092915050565b61035b8161017b565b811461036657600080fd5b50565b60008135905061037881610352565b92915050565b600060208284031215610394576103936101b9565b5b60006103a284828501610369565b91505092915050565b600081519050919050565b600082825260208201905092915050565b60005b838110156103e55780820151818401526020810190506103ca565b838111156103f4576000848401525b50505050565b6000610405826103ab565b61040f81856103b6565b935061041f8185602086016103c7565b610428816101cd565b840191505092915050565b6000602082019050818103600083015261044d81846103fa565b905092915050565b7f4e487b7100000000000000000000000000000000000000000000000000000000600052602260045260246000fd5b6000600282049050600182168061049c57607f821691505b6020821081036104af576104ae610455565b5b50919050565b60008190508160005260206000209050919050565b60006020601f8301049050919050565b600082821b905092915050565b6000600883026105177fffffffffffffffffffffffffffffffffffffffffffffffffffffffffffffffff826104da565b61052186836104da565b95508019841693508086168417925050509392505050565b6000819050919050565b600061055e6105596105548461017b565b610539565b61017b565b9050919050565b6000819050919050565b61057883610543565b61058c61058482610565565b8484546104e7565b825550505050565b600090565b6105a1610594565b6105ac81848461056f565b505050565b5b818110156105d0576105c5600082610599565b6001810190506105b2565b5050565b601f821115610615576105e6816104b5565b6105ef846104ca565b810160208510156105fe578190505b61061261060a856104ca565b8301826105b1565b50505b505050565b600082821c905092915050565b60006106386000198460080261061a565b1980831691505092915050565b60006106518383610627565b9150826002028217905092915050565b61066a826103ab565b67ffffffffffffffff811115610683576106826101de565b5b61068d8254610484565b6106988282856105d4565b600060209050601f8311600181146106cb57600084156106b9578287015190505b6106c38582610645565b86555061072b565b601f1984166106d9866104b5565b60005b82811015610701578489015182556001820191506020850194506020810190506106dc565b8683101561071e578489015161071a601f891682610627565b8355505b6001600288020188555050505b50505050505056fea2646970667358221220ca2ce3341e56e65ce39a7ba08ef26961bcec7e6af6339e2e25435a574e2e93dd64736f6c634300080f0033",
					"opcodes": "PUSH1 0x80 PUSH1 0x40 MSTORE CALLVALUE DUP1 ISZERO PUSH2 0x10 JUMPI PUSH1 0x0 DUP1 REVERT JUMPDEST POP PUSH2 0x769 DUP1 PUSH2 0x20 PUSH1 0x0 CODECOPY PUSH1 0x0 RETURN INVALID PUSH1 0x80 PUSH1 0x40 MSTORE CALLVALUE DUP1 ISZERO PUSH2 0x10 JUMPI PUSH1 0x0 DUP1 REVERT JUMPDEST POP PUSH1 0x4 CALLDATASIZE LT PUSH2 0x41 JUMPI PUSH1 0x0 CALLDATALOAD PUSH1 0xE0 SHR DUP1 PUSH4 0x6661ABD EQ PUSH2 0x46 JUMPI DUP1 PUSH4 0xED047D4 EQ PUSH2 0x64 JUMPI DUP1 PUSH4 0x11D5AAA7 EQ PUSH2 0x80 JUMPI JUMPDEST PUSH1 0x0 DUP1 REVERT JUMPDEST PUSH2 0x4E PUSH2 0xB0 JUMP JUMPDEST PUSH1 0x40 MLOAD PUSH2 0x5B SWAP2 SWAP1 PUSH2 0x194 JUMP JUMPDEST PUSH1 0x40 MLOAD DUP1 SWAP2 SUB SWAP1 RETURN JUMPDEST PUSH2 0x7E PUSH1 0x4 DUP1 CALLDATASIZE SUB DUP2 ADD SWAP1 PUSH2 0x79 SWAP2 SWAP1 PUSH2 0x309 JUMP JUMPDEST PUSH2 0xB6 JUMP JUMPDEST STOP JUMPDEST PUSH2 0x9A PUSH1 0x4 DUP1 CALLDATASIZE SUB DUP2 ADD SWAP1 PUSH2 0x95 SWAP2 SWAP1 PUSH2 0x37E JUMP JUMPDEST PUSH2 0xDB JUMP JUMPDEST PUSH1 0x40 MLOAD PUSH2 0xA7 SWAP2 SWAP1 PUSH2 0x433 JUMP JUMPDEST PUSH1 0x40 MLOAD DUP1 SWAP2 SUB SWAP1 RETURN JUMPDEST PUSH1 0x1 SLOAD DUP2 JUMP JUMPDEST DUP1 PUSH1 0x0 DUP1 PUSH1 0x1 SLOAD DUP2 MSTORE PUSH1 0x20 ADD SWAP1 DUP2 MSTORE PUSH1 0x20 ADD PUSH1 0x0 KECCAK256 SWAP1 DUP2 PUSH2 0xD7 SWAP2 SWAP1 PUSH2 0x661 JUMP JUMPDEST POP POP JUMP JUMPDEST PUSH1 0x0 PUSH1 0x20 MSTORE DUP1 PUSH1 0x0 MSTORE PUSH1 0x40 PUSH1 0x0 KECCAK256 PUSH1 0x0 SWAP2 POP SWAP1 POP DUP1 SLOAD PUSH2 0xFA SWAP1 PUSH2 0x484 JUMP JUMPDEST DUP1 PUSH1 0x1F ADD PUSH1 0x20 DUP1 SWAP2 DIV MUL PUSH1 0x20 ADD PUSH1 0x40 MLOAD SWAP1 DUP2 ADD PUSH1 0x40 MSTORE DUP1 SWAP3 SWAP2 SWAP1 DUP2 DUP2 MSTORE PUSH1 0x20 ADD DUP3 DUP1 SLOAD PUSH2 0x126 SWAP1 PUSH2 0x484 JUMP JUMPDEST DUP1 ISZERO PUSH2 0x173 JUMPI DUP1 PUSH1 0x1F LT PUSH2 0x148 JUMPI PUSH2 0x100 DUP1 DUP4 SLOAD DIV MUL DUP4 MSTORE SWAP2 PUSH1 0x20 ADD SWAP2 PUSH2 0x173 JUMP JUMPDEST DUP3 ADD SWAP2 SWAP1 PUSH1 0x0 MSTORE PUSH1 0x20 PUSH1 0x0 KECCAK256 SWAP1 JUMPDEST DUP2 SLOAD DUP2 MSTORE SWAP1 PUSH1 0x1 ADD SWAP1 PUSH1 0x20 ADD DUP1 DUP4 GT PUSH2 0x156 JUMPI DUP3 SWAP1 SUB PUSH1 0x1F AND DUP3 ADD SWAP2 JUMPDEST POP POP POP POP POP DUP2 JUMP JUMPDEST PUSH1 0x0 DUP2 SWAP1 POP SWAP2 SWAP1 POP JUMP JUMPDEST PUSH2 0x18E DUP2 PUSH2 0x17B JUMP JUMPDEST DUP3 MSTORE POP POP JUMP JUMPDEST PUSH1 0x0 PUSH1 0x20 DUP3 ADD SWAP1 POP PUSH2 0x1A9 PUSH1 0x0 DUP4 ADD DUP5 PUSH2 0x185 JUMP JUMPDEST SWAP3 SWAP2 POP POP JUMP JUMPDEST PUSH1 0x0 PUSH1 0x40 MLOAD SWAP1 POP SWAP1 JUMP JUMPDEST PUSH1 0x0 DUP1 REVERT JUMPDEST PUSH1 0x0 DUP1 REVERT JUMPDEST PUSH1 0x0 DUP1 REVERT JUMPDEST PUSH1 0x0 DUP1 REVERT JUMPDEST PUSH1 0x0 PUSH1 0x1F NOT PUSH1 0x1F DUP4 ADD AND SWAP1 POP SWAP2 SWAP1 POP JUMP JUMPDEST PUSH32 0x4E487B7100000000000000000000000000000000000000000000000000000000 PUSH1 0x0 MSTORE PUSH1 0x41 PUSH1 0x4 MSTORE PUSH1 0x24 PUSH1 0x0 REVERT JUMPDEST PUSH2 0x216 DUP3 PUSH2 0x1CD JUMP JUMPDEST DUP2 ADD DUP2 DUP2 LT PUSH8 0xFFFFFFFFFFFFFFFF DUP3 GT OR ISZERO PUSH2 0x235 JUMPI PUSH2 0x234 PUSH2 0x1DE JUMP JUMPDEST JUMPDEST DUP1 PUSH1 0x40 MSTORE POP POP POP JUMP JUMPDEST PUSH1 0x0 PUSH2 0x248 PUSH2 0x1AF JUMP JUMPDEST SWAP1 POP PUSH2 0x254 DUP3 DUP3 PUSH2 0x20D JUMP JUMPDEST SWAP2 SWAP1 POP JUMP JUMPDEST PUSH1 0x0 PUSH8 0xFFFFFFFFFFFFFFFF DUP3 GT ISZERO PUSH2 0x274 JUMPI PUSH2 0x273 PUSH2 0x1DE JUMP JUMPDEST JUMPDEST PUSH2 0x27D DUP3 PUSH2 0x1CD JUMP JUMPDEST SWAP1 POP PUSH1 0x20 DUP2 ADD SWAP1 POP SWAP2 SWAP1 POP JUMP JUMPDEST DUP3 DUP2 DUP4 CALLDATACOPY PUSH1 0x0 DUP4 DUP4 ADD MSTORE POP POP POP JUMP JUMPDEST PUSH1 0x0 PUSH2 0x2AC PUSH2 0x2A7 DUP5 PUSH2 0x259 JUMP JUMPDEST PUSH2 0x23E JUMP JUMPDEST SWAP1 POP DUP3 DUP2 MSTORE PUSH1 0x20 DUP2 ADD DUP5 DUP5 DUP5 ADD GT ISZERO PUSH2 0x2C8 JUMPI PUSH2 0x2C7 PUSH2 0x1C8 JUMP JUMPDEST JUMPDEST PUSH2 0x2D3 DUP5 DUP3 DUP6 PUSH2 0x28A JUMP JUMPDEST POP SWAP4 SWAP3 POP POP POP JUMP JUMPDEST PUSH1 0x0 DUP3 PUSH1 0x1F DUP4 ADD SLT PUSH2 0x2F0 JUMPI PUSH2 0x2EF PUSH2 0x1C3 JUMP JUMPDEST JUMPDEST DUP2 CALLDATALOAD PUSH2 0x300 DUP5 DUP3 PUSH1 0x20 DUP7 ADD PUSH2 0x299 JUMP JUMPDEST SWAP2 POP POP SWAP3 SWAP2 POP POP JUMP JUMPDEST PUSH1 0x0 PUSH1 0x20 DUP3 DUP5 SUB SLT ISZERO PUSH2 0x31F JUMPI PUSH2 0x31E PUSH2 0x1B9 JUMP JUMPDEST JUMPDEST PUSH1 0x0 DUP3 ADD CALLDATALOAD PUSH8 0xFFFFFFFFFFFFFFFF DUP2 GT ISZERO PUSH2 0x33D JUMPI PUSH2 0x33C PUSH2 0x1BE JUMP JUMPDEST JUMPDEST PUSH2 0x349 DUP5 DUP3 DUP6 ADD PUSH2 0x2DB JUMP JUMPDEST SWAP2 POP POP SWAP3 SWAP2 POP POP JUMP JUMPDEST PUSH2 0x35B DUP2 PUSH2 0x17B JUMP JUMPDEST DUP2 EQ PUSH2 0x366 JUMPI PUSH1 0x0 DUP1 REVERT JUMPDEST POP JUMP JUMPDEST PUSH1 0x0 DUP2 CALLDATALOAD SWAP1 POP PUSH2 0x378 DUP2 PUSH2 0x352 JUMP JUMPDEST SWAP3 SWAP2 POP POP JUMP JUMPDEST PUSH1 0x0 PUSH1 0x20 DUP3 DUP5 SUB SLT ISZERO PUSH2 0x394 JUMPI PUSH2 0x393 PUSH2 0x1B9 JUMP JUMPDEST JUMPDEST PUSH1 0x0 PUSH2 0x3A2 DUP5 DUP3 DUP6 ADD PUSH2 0x369 JUMP JUMPDEST SWAP2 POP POP SWAP3 SWAP2 POP POP JUMP JUMPDEST PUSH1 0x0 DUP2 MLOAD SWAP1 POP SWAP2 SWAP1 POP JUMP JUMPDEST PUSH1 0x0 DUP3 DUP3 MSTORE PUSH1 0x20 DUP3 ADD SWAP1 POP SWAP3 SWAP2 POP POP JUMP JUMPDEST PUSH1 0x0 JUMPDEST DUP4 DUP2 LT ISZERO PUSH2 0x3E5 JUMPI DUP1 DUP3 ADD MLOAD DUP2 DUP5 ADD MSTORE PUSH1 0x20 DUP2 ADD SWAP1 POP PUSH2 0x3CA JUMP JUMPDEST DUP4 DUP2 GT ISZERO PUSH2 0x3F4 JUMPI PUSH1 0x0 DUP5 DUP5 ADD MSTORE JUMPDEST POP POP POP POP JUMP JUMPDEST PUSH1 0x0 PUSH2 0x405 DUP3 PUSH2 0x3AB JUMP JUMPDEST PUSH2 0x40F DUP2 DUP6 PUSH2 0x3B6 JUMP JUMPDEST SWAP4 POP PUSH2 0x41F DUP2 DUP6 PUSH1 0x20 DUP7 ADD PUSH2 0x3C7 JUMP JUMPDEST PUSH2 0x428 DUP2 PUSH2 0x1CD JUMP JUMPDEST DUP5 ADD SWAP2 POP POP SWAP3 SWAP2 POP POP JUMP JUMPDEST PUSH1 0x0 PUSH1 0x20 DUP3 ADD SWAP1 POP DUP2 DUP2 SUB PUSH1 0x0 DUP4 ADD MSTORE PUSH2 0x44D DUP2 DUP5 PUSH2 0x3FA JUMP JUMPDEST SWAP1 POP SWAP3 SWAP2 POP POP JUMP JUMPDEST PUSH32 0x4E487B7100000000000000000000000000000000000000000000000000000000 PUSH1 0x0 MSTORE PUSH1 0x22 PUSH1 0x4 MSTORE PUSH1 0x24 PUSH1 0x0 REVERT JUMPDEST PUSH1 0x0 PUSH1 0x2 DUP3 DIV SWAP1 POP PUSH1 0x1 DUP3 AND DUP1 PUSH2 0x49C JUMPI PUSH1 0x7F DUP3 AND SWAP2 POP JUMPDEST PUSH1 0x20 DUP3 LT DUP2 SUB PUSH2 0x4AF JUMPI PUSH2 0x4AE PUSH2 0x455 JUMP JUMPDEST JUMPDEST POP SWAP2 SWAP1 POP JUMP JUMPDEST PUSH1 0x0 DUP2 SWAP1 POP DUP2 PUSH1 0x0 MSTORE PUSH1 0x20 PUSH1 0x0 KECCAK256 SWAP1 POP SWAP2 SWAP1 POP JUMP JUMPDEST PUSH1 0x0 PUSH1 0x20 PUSH1 0x1F DUP4 ADD DIV SWAP1 POP SWAP2 SWAP1 POP JUMP JUMPDEST PUSH1 0x0 DUP3 DUP3 SHL SWAP1 POP SWAP3 SWAP2 POP POP JUMP JUMPDEST PUSH1 0x0 PUSH1 0x8 DUP4 MUL PUSH2 0x517 PUSH32 0xFFFFFFFFFFFFFFFFFFFFFFFFFFFFFFFFFFFFFFFFFFFFFFFFFFFFFFFFFFFFFFFF DUP3 PUSH2 0x4DA JUMP JUMPDEST PUSH2 0x521 DUP7 DUP4 PUSH2 0x4DA JUMP JUMPDEST SWAP6 POP DUP1 NOT DUP5 AND SWAP4 POP DUP1 DUP7 AND DUP5 OR SWAP3 POP POP POP SWAP4 SWAP3 POP POP POP JUMP JUMPDEST PUSH1 0x0 DUP2 SWAP1 POP SWAP2 SWAP1 POP JUMP JUMPDEST PUSH1 0x0 PUSH2 0x55E PUSH2 0x559 PUSH2 0x554 DUP5 PUSH2 0x17B JUMP JUMPDEST PUSH2 0x539 JUMP JUMPDEST PUSH2 0x17B JUMP JUMPDEST SWAP1 POP SWAP2 SWAP1 POP JUMP JUMPDEST PUSH1 0x0 DUP2 SWAP1 POP SWAP2 SWAP1 POP JUMP JUMPDEST PUSH2 0x578 DUP4 PUSH2 0x543 JUMP JUMPDEST PUSH2 0x58C PUSH2 0x584 DUP3 PUSH2 0x565 JUMP JUMPDEST DUP5 DUP5 SLOAD PUSH2 0x4E7 JUMP JUMPDEST DUP3 SSTORE POP POP POP POP JUMP JUMPDEST PUSH1 0x0 SWAP1 JUMP JUMPDEST PUSH2 0x5A1 PUSH2 0x594 JUMP JUMPDEST PUSH2 0x5AC DUP2 DUP5 DUP5 PUSH2 0x56F JUMP JUMPDEST POP POP POP JUMP JUMPDEST JUMPDEST DUP2 DUP2 LT ISZERO PUSH2 0x5D0 JUMPI PUSH2 0x5C5 PUSH1 0x0 DUP3 PUSH2 0x599 JUMP JUMPDEST PUSH1 0x1 DUP2 ADD SWAP1 POP PUSH2 0x5B2 JUMP JUMPDEST POP POP JUMP JUMPDEST PUSH1 0x1F DUP3 GT ISZERO PUSH2 0x615 JUMPI PUSH2 0x5E6 DUP2 PUSH2 0x4B5 JUMP JUMPDEST PUSH2 0x5EF DUP5 PUSH2 0x4CA JUMP JUMPDEST DUP2 ADD PUSH1 0x20 DUP6 LT ISZERO PUSH2 0x5FE JUMPI DUP2 SWAP1 POP JUMPDEST PUSH2 0x612 PUSH2 0x60A DUP6 PUSH2 0x4CA JUMP JUMPDEST DUP4 ADD DUP3 PUSH2 0x5B1 JUMP JUMPDEST POP POP JUMPDEST POP POP POP JUMP JUMPDEST PUSH1 0x0 DUP3 DUP3 SHR SWAP1 POP SWAP3 SWAP2 POP POP JUMP JUMPDEST PUSH1 0x0 PUSH2 0x638 PUSH1 0x0 NOT DUP5 PUSH1 0x8 MUL PUSH2 0x61A JUMP JUMPDEST NOT DUP1 DUP4 AND SWAP2 POP POP SWAP3 SWAP2 POP POP JUMP JUMPDEST PUSH1 0x0 PUSH2 0x651 DUP4 DUP4 PUSH2 0x627 JUMP JUMPDEST SWAP2 POP DUP3 PUSH1 0x2 MUL DUP3 OR SWAP1 POP SWAP3 SWAP2 POP POP JUMP JUMPDEST PUSH2 0x66A DUP3 PUSH2 0x3AB JUMP JUMPDEST PUSH8 0xFFFFFFFFFFFFFFFF DUP2 GT ISZERO PUSH2 0x683 JUMPI PUSH2 0x682 PUSH2 0x1DE JUMP JUMPDEST JUMPDEST PUSH2 0x68D DUP3 SLOAD PUSH2 0x484 JUMP JUMPDEST PUSH2 0x698 DUP3 DUP3 DUP6 PUSH2 0x5D4 JUMP JUMPDEST PUSH1 0x0 PUSH1 0x20 SWAP1 POP PUSH1 0x1F DUP4 GT PUSH1 0x1 DUP2 EQ PUSH2 0x6CB JUMPI PUSH1 0x0 DUP5 ISZERO PUSH2 0x6B9 JUMPI DUP3 DUP8 ADD MLOAD SWAP1 POP JUMPDEST PUSH2 0x6C3 DUP6 DUP3 PUSH2 0x645 JUMP JUMPDEST DUP7 SSTORE POP PUSH2 0x72B JUMP JUMPDEST PUSH1 0x1F NOT DUP5 AND PUSH2 0x6D9 DUP7 PUSH2 0x4B5 JUMP JUMPDEST PUSH1 0x0 JUMPDEST DUP3 DUP2 LT ISZERO PUSH2 0x701 JUMPI DUP5 DUP10 ADD MLOAD DUP3 SSTORE PUSH1 0x1 DUP3 ADD SWAP2 POP PUSH1 0x20 DUP6 ADD SWAP5 POP PUSH1 0x20 DUP2 ADD SWAP1 POP PUSH2 0x6DC JUMP JUMPDEST DUP7 DUP4 LT ISZERO PUSH2 0x71E JUMPI DUP5 DUP10 ADD MLOAD PUSH2 0x71A PUSH1 0x1F DUP10 AND DUP3 PUSH2 0x627 JUMP JUMPDEST DUP4 SSTORE POP JUMPDEST PUSH1 0x1 PUSH1 0x2 DUP9 MUL ADD DUP9 SSTORE POP POP POP JUMPDEST POP POP POP POP POP POP JUMP INVALID LOG2 PUSH5 0x6970667358 0x22 SLT KECCAK256 0xCA 0x2C 0xE3 CALLVALUE 0x1E JUMP 0xE6 0x5C 0xE3 SWAP11 PUSH28 0xA08EF26961BCEC7E6AF6339E2E25435A574E2E93DD64736F6C634300 ADDMOD 0xF STOP CALLER "
				},
				"gasEstimates": {
					"creation": {
						"codeDepositCost": "379400",
						"executionCost": "418",
						"totalCost": "379818"
					},
					"external": {
						"addProject(string)": "infinite",
						"count()": "2407",
						"project(uint256)": "infinite"
					}
				},
				"methodIdentifiers": {
					"addProject(string)": "0ed047d4",
					"count()": "06661abd",
					"project(uint256)": "11d5aaa7"
				}
			},
			"storageLayout": {
				"storage": [
					{
						"astId": 5,
						"contract": "contracts/mapping.sol:Mapping",
						"label": "project",
						"offset": 0,
						"slot": "0",
						"type": "t_mapping(t_uint256,t_string_storage)"
					},
					{
						"astId": 7,
						"contract": "contracts/mapping.sol:Mapping",
						"label": "count",
						"offset": 0,
						"slot": "1",
						"type": "t_uint256"
					}
				],
				"types": {
					"t_mapping(t_uint256,t_string_storage)": {
						"encoding": "mapping",
						"key": "t_uint256",
						"label": "mapping(uint256 => string)",
						"numberOfBytes": "32",
						"value": "t_string_storage"
					},
					"t_string_storage": {
						"encoding": "bytes",
						"label": "string",
						"numberOfBytes": "32"
					},
					"t_uint256": {
						"encoding": "inplace",
						"label": "uint256",
						"numberOfBytes": "32"
					}
				}
			},
			"userdoc": {
				"kind": "user",
				"methods": {},
				"version": 1
			}
		}
	}
}