{
	"contracts/mapping.sol": {
		"Mapping": {
			"abi": [
				{
					"inputs": [
						{
							"internalType": "string",
							"name": "_name",
							"type": "string"
						}
					],
					"name": "addProject",
					"outputs": [],
					"stateMutability": "nonpayable",
					"type": "function"
				},
				{
					"inputs": [
						{
							"internalType": "address",
							"name": "",
							"type": "address"
						}
					],
					"name": "balances",
					"outputs": [
						{
							"internalType": "uint256",
							"name": "",
							"type": "uint256"
						}
					],
					"stateMutability": "view",
					"type": "function"
				},
				{
					"inputs": [],
					"name": "count",
					"outputs": [
						{
							"internalType": "uint256",
							"name": "",
							"type": "uint256"
						}
					],
					"stateMutability": "view",
					"type": "function"
				},
				{
					"inputs": [
						{
							"internalType": "uint256",
							"name": "",
							"type": "uint256"
						}
					],
					"name": "project",
					"outputs": [
						{
							"internalType": "string",
							"name": "",
							"type": "string"
						}
					],
					"stateMutability": "view",
					"type": "function"
				}
			],
			"devdoc": {
				"kind": "dev",
				"methods": {},
				"version": 1
			},
			"evm": {
				"assembly": "    /* \"contracts/mapping.sol\":26:270  contract Mapping {... */\n  mstore(0x40, 0x80)\n  callvalue\n  dup1\n  iszero\n  tag_1\n  jumpi\n  0x00\n  dup1\n  revert\ntag_1:\n  pop\n  dataSize(sub_0)\n  dup1\n  dataOffset(sub_0)\n  0x00\n  codecopy\n  0x00\n  return\nstop\n\nsub_0: assembly {\n        /* \"contracts/mapping.sol\":26:270  contract Mapping {... */\n      mstore(0x40, 0x80)\n      callvalue\n      dup1\n      iszero\n      tag_1\n      jumpi\n      0x00\n      dup1\n      revert\n    tag_1:\n      pop\n      jumpi(tag_2, lt(calldatasize, 0x04))\n      shr(0xe0, calldataload(0x00))\n      dup1\n      0x06661abd\n      eq\n      tag_3\n      jumpi\n      dup1\n      0x0ed047d4\n      eq\n      tag_4\n      jumpi\n      dup1\n      0x11d5aaa7\n      eq\n      tag_5\n      jumpi\n      dup1\n      0x27e235e3\n      eq\n      tag_6\n      jumpi\n    tag_2:\n      0x00\n      dup1\n      revert\n        /* \"contracts/mapping.sol\":91:108  uint public count */\n    tag_3:\n      tag_7\n      tag_8\n      jump\t// in\n    tag_7:\n      mload(0x40)\n      tag_9\n      swap2\n      swap1\n      tag_10\n      jump\t// in\n    tag_9:\n      mload(0x40)\n      dup1\n      swap2\n      sub\n      swap1\n      return\n        /* \"contracts/mapping.sol\":119:223  function addProject(string memory _name) public {... */\n    tag_4:\n      tag_11\n      0x04\n      dup1\n      calldatasize\n      sub\n      dup2\n      add\n      swap1\n      tag_12\n      swap2\n      swap1\n      tag_13\n      jump\t// in\n    tag_12:\n      tag_14\n      jump\t// in\n    tag_11:\n      stop\n        /* \"contracts/mapping.sol\":49:85  mapping(uint=>string) public project */\n    tag_5:\n      tag_15\n      0x04\n      dup1\n      calldatasize\n      sub\n      dup2\n      add\n      swap1\n      tag_16\n      swap2\n      swap1\n      tag_17\n      jump\t// in\n    tag_16:\n      tag_18\n      jump\t// in\n    tag_15:\n      mload(0x40)\n      tag_19\n      swap2\n      swap1\n      tag_20\n      jump\t// in\n    tag_19:\n      mload(0x40)\n      dup1\n      swap2\n      sub\n      swap1\n      return\n        /* \"contracts/mapping.sol\":229:267  mapping(address=>uint) public balances */\n    tag_6:\n      tag_21\n      0x04\n      dup1\n      calldatasize\n      sub\n      dup2\n      add\n      swap1\n      tag_22\n      swap2\n      swap1\n      tag_23\n      jump\t// in\n    tag_22:\n      tag_24\n      jump\t// in\n    tag_21:\n      mload(0x40)\n      tag_25\n      swap2\n      swap1\n      tag_10\n      jump\t// in\n    tag_25:\n      mload(0x40)\n      dup1\n      swap2\n      sub\n      swap1\n      return\n        /* \"contracts/mapping.sol\":91:108  uint public count */\n    tag_8:\n      sload(0x01)\n      dup2\n      jump\t// out\n        /* \"contracts/mapping.sol\":119:223  function addProject(string memory _name) public {... */\n    tag_14:\n        /* \"contracts/mapping.sol\":194:199  _name */\n      dup1\n        /* \"contracts/mapping.sol\":177:184  project */\n      0x00\n        /* \"contracts/mapping.sol\":177:191  project[count] */\n      dup1\n        /* \"contracts/mapping.sol\":185:190  count */\n      sload(0x01)\n        /* \"contracts/mapping.sol\":177:191  project[count] */\n      dup2\n      mstore\n      0x20\n      add\n      swap1\n      dup2\n      mstore\n      0x20\n      add\n      0x00\n      keccak256\n        /* \"contracts/mapping.sol\":177:199  project[count] = _name */\n      swap1\n      dup2\n      tag_27\n      swap2\n      swap1\n      tag_28\n      jump\t// in\n    tag_27:\n      pop\n        /* \"contracts/mapping.sol\":209:214  count */\n      0x01\n      0x00\n        /* \"contracts/mapping.sol\":209:216  count++ */\n      dup2\n      sload\n      dup1\n      swap3\n      swap2\n      swap1\n      tag_29\n      swap1\n      tag_30\n      jump\t// in\n    tag_29:\n      swap2\n      swap1\n      pop\n      sstore\n      pop\n        /* \"contracts/mapping.sol\":119:223  function addProject(string memory _name) public {... */\n      pop\n      jump\t// out\n        /* \"contracts/mapping.sol\":49:85  mapping(uint=>string) public project */\n    tag_18:\n      mstore(0x20, 0x00)\n      dup1\n      0x00\n      mstore\n      keccak256(0x00, 0x40)\n      0x00\n      swap2\n      pop\n      swap1\n      pop\n      dup1\n      sload\n      tag_31\n      swap1\n      tag_32\n      jump\t// in\n    tag_31:\n      dup1\n      0x1f\n      add\n      0x20\n      dup1\n      swap2\n      div\n      mul\n      0x20\n      add\n      mload(0x40)\n      swap1\n      dup2\n      add\n      0x40\n      mstore\n      dup1\n      swap3\n      swap2\n      swap1\n      dup2\n      dup2\n      mstore\n      0x20\n      add\n      dup3\n      dup1\n      sload\n      tag_33\n      swap1\n      tag_32\n      jump\t// in\n    tag_33:\n      dup1\n      iszero\n      tag_34\n      jumpi\n      dup1\n      0x1f\n      lt\n      tag_35\n      jumpi\n      0x0100\n      dup1\n      dup4\n      sload\n      div\n      mul\n      dup4\n      mstore\n      swap2\n      0x20\n      add\n      swap2\n      jump(tag_34)\n    tag_35:\n      dup3\n      add\n      swap2\n      swap1\n      0x00\n      mstore\n      keccak256(0x00, 0x20)\n      swap1\n    tag_36:\n      dup2\n      sload\n      dup2\n      mstore\n      swap1\n      0x01\n      add\n      swap1\n      0x20\n      add\n      dup1\n      dup4\n      gt\n      tag_36\n      jumpi\n      dup3\n      swap1\n      sub\n      0x1f\n      and\n      dup3\n      add\n      swap2\n    tag_34:\n      pop\n      pop\n      pop\n      pop\n      pop\n      dup2\n      jump\t// out\n        /* \"contracts/mapping.sol\":229:267  mapping(address=>uint) public balances */\n    tag_24:\n      mstore(0x20, 0x02)\n      dup1\n      0x00\n      mstore\n      keccak256(0x00, 0x40)\n      0x00\n      swap2\n      pop\n      swap1\n      pop\n      sload\n      dup2\n      jump\t// out\n        /* \"#utility.yul\":7:84   */\n    tag_37:\n        /* \"#utility.yul\":44:51   */\n      0x00\n        /* \"#utility.yul\":73:78   */\n      dup2\n        /* \"#utility.yul\":62:78   */\n      swap1\n      pop\n        /* \"#utility.yul\":7:84   */\n      swap2\n      swap1\n      pop\n      jump\t// out\n        /* \"#utility.yul\":90:208   */\n    tag_38:\n        /* \"#utility.yul\":177:201   */\n      tag_82\n        /* \"#utility.yul\":195:200   */\n      dup2\n        /* \"#utility.yul\":177:201   */\n      tag_37\n      jump\t// in\n    tag_82:\n        /* \"#utility.yul\":172:175   */\n      dup3\n        /* \"#utility.yul\":165:202   */\n      mstore\n        /* \"#utility.yul\":90:208   */\n      pop\n      pop\n      jump\t// out\n        /* \"#utility.yul\":214:436   */\n    tag_10:\n        /* \"#utility.yul\":307:311   */\n      0x00\n        /* \"#utility.yul\":345:347   */\n      0x20\n        /* \"#utility.yul\":334:343   */\n      dup3\n        /* \"#utility.yul\":330:348   */\n      add\n        /* \"#utility.yul\":322:348   */\n      swap1\n      pop\n        /* \"#utility.yul\":358:429   */\n      tag_84\n        /* \"#utility.yul\":426:427   */\n      0x00\n        /* \"#utility.yul\":415:424   */\n      dup4\n        /* \"#utility.yul\":411:428   */\n      add\n        /* \"#utility.yul\":402:408   */\n      dup5\n        /* \"#utility.yul\":358:429   */\n      tag_38\n      jump\t// in\n    tag_84:\n        /* \"#utility.yul\":214:436   */\n      swap3\n      swap2\n      pop\n      pop\n      jump\t// out\n        /* \"#utility.yul\":442:517   */\n    tag_39:\n        /* \"#utility.yul\":475:481   */\n      0x00\n        /* \"#utility.yul\":508:510   */\n      0x40\n        /* \"#utility.yul\":502:511   */\n      mload\n        /* \"#utility.yul\":492:511   */\n      swap1\n      pop\n        /* \"#utility.yul\":442:517   */\n      swap1\n      jump\t// out\n        /* \"#utility.yul\":523:640   */\n    tag_40:\n        /* \"#utility.yul\":632:633   */\n      0x00\n        /* \"#utility.yul\":629:630   */\n      dup1\n        /* \"#utility.yul\":622:634   */\n      revert\n        /* \"#utility.yul\":646:763   */\n    tag_41:\n        /* \"#utility.yul\":755:756   */\n      0x00\n        /* \"#utility.yul\":752:753   */\n      dup1\n        /* \"#utility.yul\":745:757   */\n      revert\n        /* \"#utility.yul\":769:886   */\n    tag_42:\n        /* \"#utility.yul\":878:879   */\n      0x00\n        /* \"#utility.yul\":875:876   */\n      dup1\n        /* \"#utility.yul\":868:880   */\n      revert\n        /* \"#utility.yul\":892:1009   */\n    tag_43:\n        /* \"#utility.yul\":1001:1002   */\n      0x00\n        /* \"#utility.yul\":998:999   */\n      dup1\n        /* \"#utility.yul\":991:1003   */\n      revert\n        /* \"#utility.yul\":1015:1117   */\n    tag_44:\n        /* \"#utility.yul\":1056:1062   */\n      0x00\n        /* \"#utility.yul\":1107:1109   */\n      0x1f\n        /* \"#utility.yul\":1103:1110   */\n      not\n        /* \"#utility.yul\":1098:1100   */\n      0x1f\n        /* \"#utility.yul\":1091:1096   */\n      dup4\n        /* \"#utility.yul\":1087:1101   */\n      add\n        /* \"#utility.yul\":1083:1111   */\n      and\n        /* \"#utility.yul\":1073:1111   */\n      swap1\n      pop\n        /* \"#utility.yul\":1015:1117   */\n      swap2\n      swap1\n      pop\n      jump\t// out\n        /* \"#utility.yul\":1123:1303   */\n    tag_45:\n        /* \"#utility.yul\":1171:1248   */\n      0x4e487b7100000000000000000000000000000000000000000000000000000000\n        /* \"#utility.yul\":1168:1169   */\n      0x00\n        /* \"#utility.yul\":1161:1249   */\n      mstore\n        /* \"#utility.yul\":1268:1272   */\n      0x41\n        /* \"#utility.yul\":1265:1266   */\n      0x04\n        /* \"#utility.yul\":1258:1273   */\n      mstore\n        /* \"#utility.yul\":1292:1296   */\n      0x24\n        /* \"#utility.yul\":1289:1290   */\n      0x00\n        /* \"#utility.yul\":1282:1297   */\n      revert\n        /* \"#utility.yul\":1309:1590   */\n    tag_46:\n        /* \"#utility.yul\":1392:1419   */\n      tag_93\n        /* \"#utility.yul\":1414:1418   */\n      dup3\n        /* \"#utility.yul\":1392:1419   */\n      tag_44\n      jump\t// in\n    tag_93:\n        /* \"#utility.yul\":1384:1390   */\n      dup2\n        /* \"#utility.yul\":1380:1420   */\n      add\n        /* \"#utility.yul\":1522:1528   */\n      dup2\n        /* \"#utility.yul\":1510:1520   */\n      dup2\n        /* \"#utility.yul\":1507:1529   */\n      lt\n        /* \"#utility.yul\":1486:1504   */\n      0xffffffffffffffff\n        /* \"#utility.yul\":1474:1484   */\n      dup3\n        /* \"#utility.yul\":1471:1505   */\n      gt\n        /* \"#utility.yul\":1468:1530   */\n      or\n        /* \"#utility.yul\":1465:1553   */\n      iszero\n      tag_94\n      jumpi\n        /* \"#utility.yul\":1533:1551   */\n      tag_95\n      tag_45\n      jump\t// in\n    tag_95:\n        /* \"#utility.yul\":1465:1553   */\n    tag_94:\n        /* \"#utility.yul\":1573:1583   */\n      dup1\n        /* \"#utility.yul\":1569:1571   */\n      0x40\n        /* \"#utility.yul\":1562:1584   */\n      mstore\n        /* \"#utility.yul\":1352:1590   */\n      pop\n        /* \"#utility.yul\":1309:1590   */\n      pop\n      pop\n      jump\t// out\n        /* \"#utility.yul\":1596:1725   */\n    tag_47:\n        /* \"#utility.yul\":1630:1636   */\n      0x00\n        /* \"#utility.yul\":1657:1677   */\n      tag_97\n      tag_39\n      jump\t// in\n    tag_97:\n        /* \"#utility.yul\":1647:1677   */\n      swap1\n      pop\n        /* \"#utility.yul\":1686:1719   */\n      tag_98\n        /* \"#utility.yul\":1714:1718   */\n      dup3\n        /* \"#utility.yul\":1706:1712   */\n      dup3\n        /* \"#utility.yul\":1686:1719   */\n      tag_46\n      jump\t// in\n    tag_98:\n        /* \"#utility.yul\":1596:1725   */\n      swap2\n      swap1\n      pop\n      jump\t// out\n        /* \"#utility.yul\":1731:2039   */\n    tag_48:\n        /* \"#utility.yul\":1793:1797   */\n      0x00\n        /* \"#utility.yul\":1883:1901   */\n      0xffffffffffffffff\n        /* \"#utility.yul\":1875:1881   */\n      dup3\n        /* \"#utility.yul\":1872:1902   */\n      gt\n        /* \"#utility.yul\":1869:1925   */\n      iszero\n      tag_100\n      jumpi\n        /* \"#utility.yul\":1905:1923   */\n      tag_101\n      tag_45\n      jump\t// in\n    tag_101:\n        /* \"#utility.yul\":1869:1925   */\n    tag_100:\n        /* \"#utility.yul\":1943:1972   */\n      tag_102\n        /* \"#utility.yul\":1965:1971   */\n      dup3\n        /* \"#utility.yul\":1943:1972   */\n      tag_44\n      jump\t// in\n    tag_102:\n        /* \"#utility.yul\":1935:1972   */\n      swap1\n      pop\n        /* \"#utility.yul\":2027:2031   */\n      0x20\n        /* \"#utility.yul\":2021:2025   */\n      dup2\n        /* \"#utility.yul\":2017:2032   */\n      add\n        /* \"#utility.yul\":2009:2032   */\n      swap1\n      pop\n        /* \"#utility.yul\":1731:2039   */\n      swap2\n      swap1\n      pop\n      jump\t// out\n        /* \"#utility.yul\":2045:2199   */\n    tag_49:\n        /* \"#utility.yul\":2129:2135   */\n      dup3\n        /* \"#utility.yul\":2124:2127   */\n      dup2\n        /* \"#utility.yul\":2119:2122   */\n      dup4\n        /* \"#utility.yul\":2106:2136   */\n      calldatacopy\n        /* \"#utility.yul\":2191:2192   */\n      0x00\n        /* \"#utility.yul\":2182:2188   */\n      dup4\n        /* \"#utility.yul\":2177:2180   */\n      dup4\n        /* \"#utility.yul\":2173:2189   */\n      add\n        /* \"#utility.yul\":2166:2193   */\n      mstore\n        /* \"#utility.yul\":2045:2199   */\n      pop\n      pop\n      pop\n      jump\t// out\n        /* \"#utility.yul\":2205:2617   */\n    tag_50:\n        /* \"#utility.yul\":2283:2288   */\n      0x00\n        /* \"#utility.yul\":2308:2374   */\n      tag_105\n        /* \"#utility.yul\":2324:2373   */\n      tag_106\n        /* \"#utility.yul\":2366:2372   */\n      dup5\n        /* \"#utility.yul\":2324:2373   */\n      tag_48\n      jump\t// in\n    tag_106:\n        /* \"#utility.yul\":2308:2374   */\n      tag_47\n      jump\t// in\n    tag_105:\n        /* \"#utility.yul\":2299:2374   */\n      swap1\n      pop\n        /* \"#utility.yul\":2397:2403   */\n      dup3\n        /* \"#utility.yul\":2390:2395   */\n      dup2\n        /* \"#utility.yul\":2383:2404   */\n      mstore\n        /* \"#utility.yul\":2435:2439   */\n      0x20\n        /* \"#utility.yul\":2428:2433   */\n      dup2\n        /* \"#utility.yul\":2424:2440   */\n      add\n        /* \"#utility.yul\":2473:2476   */\n      dup5\n        /* \"#utility.yul\":2464:2470   */\n      dup5\n        /* \"#utility.yul\":2459:2462   */\n      dup5\n        /* \"#utility.yul\":2455:2471   */\n      add\n        /* \"#utility.yul\":2452:2477   */\n      gt\n        /* \"#utility.yul\":2449:2561   */\n      iszero\n      tag_107\n      jumpi\n        /* \"#utility.yul\":2480:2559   */\n      tag_108\n      tag_43\n      jump\t// in\n    tag_108:\n        /* \"#utility.yul\":2449:2561   */\n    tag_107:\n        /* \"#utility.yul\":2570:2611   */\n      tag_109\n        /* \"#utility.yul\":2604:2610   */\n      dup5\n        /* \"#utility.yul\":2599:2602   */\n      dup3\n        /* \"#utility.yul\":2594:2597   */\n      dup6\n        /* \"#utility.yul\":2570:2611   */\n      tag_49\n      jump\t// in\n    tag_109:\n        /* \"#utility.yul\":2289:2617   */\n      pop\n        /* \"#utility.yul\":2205:2617   */\n      swap4\n      swap3\n      pop\n      pop\n      pop\n      jump\t// out\n        /* \"#utility.yul\":2637:2977   */\n    tag_51:\n        /* \"#utility.yul\":2693:2698   */\n      0x00\n        /* \"#utility.yul\":2742:2745   */\n      dup3\n        /* \"#utility.yul\":2735:2739   */\n      0x1f\n        /* \"#utility.yul\":2727:2733   */\n      dup4\n        /* \"#utility.yul\":2723:2740   */\n      add\n        /* \"#utility.yul\":2719:2746   */\n      slt\n        /* \"#utility.yul\":2709:2831   */\n      tag_111\n      jumpi\n        /* \"#utility.yul\":2750:2829   */\n      tag_112\n      tag_42\n      jump\t// in\n    tag_112:\n        /* \"#utility.yul\":2709:2831   */\n    tag_111:\n        /* \"#utility.yul\":2867:2873   */\n      dup2\n        /* \"#utility.yul\":2854:2874   */\n      calldataload\n        /* \"#utility.yul\":2892:2971   */\n      tag_113\n        /* \"#utility.yul\":2967:2970   */\n      dup5\n        /* \"#utility.yul\":2959:2965   */\n      dup3\n        /* \"#utility.yul\":2952:2956   */\n      0x20\n        /* \"#utility.yul\":2944:2950   */\n      dup7\n        /* \"#utility.yul\":2940:2957   */\n      add\n        /* \"#utility.yul\":2892:2971   */\n      tag_50\n      jump\t// in\n    tag_113:\n        /* \"#utility.yul\":2883:2971   */\n      swap2\n      pop\n        /* \"#utility.yul\":2699:2977   */\n      pop\n        /* \"#utility.yul\":2637:2977   */\n      swap3\n      swap2\n      pop\n      pop\n      jump\t// out\n        /* \"#utility.yul\":2983:3492   */\n    tag_13:\n        /* \"#utility.yul\":3052:3058   */\n      0x00\n        /* \"#utility.yul\":3101:3103   */\n      0x20\n        /* \"#utility.yul\":3089:3098   */\n      dup3\n        /* \"#utility.yul\":3080:3087   */\n      dup5\n        /* \"#utility.yul\":3076:3099   */\n      sub\n        /* \"#utility.yul\":3072:3104   */\n      slt\n        /* \"#utility.yul\":3069:3188   */\n      iszero\n      tag_115\n      jumpi\n        /* \"#utility.yul\":3107:3186   */\n      tag_116\n      tag_40\n      jump\t// in\n    tag_116:\n        /* \"#utility.yul\":3069:3188   */\n    tag_115:\n        /* \"#utility.yul\":3255:3256   */\n      0x00\n        /* \"#utility.yul\":3244:3253   */\n      dup3\n        /* \"#utility.yul\":3240:3257   */\n      add\n        /* \"#utility.yul\":3227:3258   */\n      calldataload\n        /* \"#utility.yul\":3285:3303   */\n      0xffffffffffffffff\n        /* \"#utility.yul\":3277:3283   */\n      dup2\n        /* \"#utility.yul\":3274:3304   */\n      gt\n        /* \"#utility.yul\":3271:3388   */\n      iszero\n      tag_117\n      jumpi\n        /* \"#utility.yul\":3307:3386   */\n      tag_118\n      tag_41\n      jump\t// in\n    tag_118:\n        /* \"#utility.yul\":3271:3388   */\n    tag_117:\n        /* \"#utility.yul\":3412:3475   */\n      tag_119\n        /* \"#utility.yul\":3467:3474   */\n      dup5\n        /* \"#utility.yul\":3458:3464   */\n      dup3\n        /* \"#utility.yul\":3447:3456   */\n      dup6\n        /* \"#utility.yul\":3443:3465   */\n      add\n        /* \"#utility.yul\":3412:3475   */\n      tag_51\n      jump\t// in\n    tag_119:\n        /* \"#utility.yul\":3402:3475   */\n      swap2\n      pop\n        /* \"#utility.yul\":3198:3485   */\n      pop\n        /* \"#utility.yul\":2983:3492   */\n      swap3\n      swap2\n      pop\n      pop\n      jump\t// out\n        /* \"#utility.yul\":3498:3620   */\n    tag_52:\n        /* \"#utility.yul\":3571:3595   */\n      tag_121\n        /* \"#utility.yul\":3589:3594   */\n      dup2\n        /* \"#utility.yul\":3571:3595   */\n      tag_37\n      jump\t// in\n    tag_121:\n        /* \"#utility.yul\":3564:3569   */\n      dup2\n        /* \"#utility.yul\":3561:3596   */\n      eq\n        /* \"#utility.yul\":3551:3614   */\n      tag_122\n      jumpi\n        /* \"#utility.yul\":3610:3611   */\n      0x00\n        /* \"#utility.yul\":3607:3608   */\n      dup1\n        /* \"#utility.yul\":3600:3612   */\n      revert\n        /* \"#utility.yul\":3551:3614   */\n    tag_122:\n        /* \"#utility.yul\":3498:3620   */\n      pop\n      jump\t// out\n        /* \"#utility.yul\":3626:3765   */\n    tag_53:\n        /* \"#utility.yul\":3672:3677   */\n      0x00\n        /* \"#utility.yul\":3710:3716   */\n      dup2\n        /* \"#utility.yul\":3697:3717   */\n      calldataload\n        /* \"#utility.yul\":3688:3717   */\n      swap1\n      pop\n        /* \"#utility.yul\":3726:3759   */\n      tag_124\n        /* \"#utility.yul\":3753:3758   */\n      dup2\n        /* \"#utility.yul\":3726:3759   */\n      tag_52\n      jump\t// in\n    tag_124:\n        /* \"#utility.yul\":3626:3765   */\n      swap3\n      swap2\n      pop\n      pop\n      jump\t// out\n        /* \"#utility.yul\":3771:4100   */\n    tag_17:\n        /* \"#utility.yul\":3830:3836   */\n      0x00\n        /* \"#utility.yul\":3879:3881   */\n      0x20\n        /* \"#utility.yul\":3867:3876   */\n      dup3\n        /* \"#utility.yul\":3858:3865   */\n      dup5\n        /* \"#utility.yul\":3854:3877   */\n      sub\n        /* \"#utility.yul\":3850:3882   */\n      slt\n        /* \"#utility.yul\":3847:3966   */\n      iszero\n      tag_126\n      jumpi\n        /* \"#utility.yul\":3885:3964   */\n      tag_127\n      tag_40\n      jump\t// in\n    tag_127:\n        /* \"#utility.yul\":3847:3966   */\n    tag_126:\n        /* \"#utility.yul\":4005:4006   */\n      0x00\n        /* \"#utility.yul\":4030:4083   */\n      tag_128\n        /* \"#utility.yul\":4075:4082   */\n      dup5\n        /* \"#utility.yul\":4066:4072   */\n      dup3\n        /* \"#utility.yul\":4055:4064   */\n      dup6\n        /* \"#utility.yul\":4051:4073   */\n      add\n        /* \"#utility.yul\":4030:4083   */\n      tag_53\n      jump\t// in\n    tag_128:\n        /* \"#utility.yul\":4020:4083   */\n      swap2\n      pop\n        /* \"#utility.yul\":3976:4093   */\n      pop\n        /* \"#utility.yul\":3771:4100   */\n      swap3\n      swap2\n      pop\n      pop\n      jump\t// out\n        /* \"#utility.yul\":4106:4205   */\n    tag_54:\n        /* \"#utility.yul\":4158:4164   */\n      0x00\n        /* \"#utility.yul\":4192:4197   */\n      dup2\n        /* \"#utility.yul\":4186:4198   */\n      mload\n        /* \"#utility.yul\":4176:4198   */\n      swap1\n      pop\n        /* \"#utility.yul\":4106:4205   */\n      swap2\n      swap1\n      pop\n      jump\t// out\n        /* \"#utility.yul\":4211:4380   */\n    tag_55:\n        /* \"#utility.yul\":4295:4306   */\n      0x00\n        /* \"#utility.yul\":4329:4335   */\n      dup3\n        /* \"#utility.yul\":4324:4327   */\n      dup3\n        /* \"#utility.yul\":4317:4336   */\n      mstore\n        /* \"#utility.yul\":4369:4373   */\n      0x20\n        /* \"#utility.yul\":4364:4367   */\n      dup3\n        /* \"#utility.yul\":4360:4374   */\n      add\n        /* \"#utility.yul\":4345:4374   */\n      swap1\n      pop\n        /* \"#utility.yul\":4211:4380   */\n      swap3\n      swap2\n      pop\n      pop\n      jump\t// out\n        /* \"#utility.yul\":4386:4693   */\n    tag_56:\n        /* \"#utility.yul\":4454:4455   */\n      0x00\n        /* \"#utility.yul\":4464:4577   */\n    tag_132:\n        /* \"#utility.yul\":4478:4484   */\n      dup4\n        /* \"#utility.yul\":4475:4476   */\n      dup2\n        /* \"#utility.yul\":4472:4485   */\n      lt\n        /* \"#utility.yul\":4464:4577   */\n      iszero\n      tag_134\n      jumpi\n        /* \"#utility.yul\":4563:4564   */\n      dup1\n        /* \"#utility.yul\":4558:4561   */\n      dup3\n        /* \"#utility.yul\":4554:4565   */\n      add\n        /* \"#utility.yul\":4548:4566   */\n      mload\n        /* \"#utility.yul\":4544:4545   */\n      dup2\n        /* \"#utility.yul\":4539:4542   */\n      dup5\n        /* \"#utility.yul\":4535:4546   */\n      add\n        /* \"#utility.yul\":4528:4567   */\n      mstore\n        /* \"#utility.yul\":4500:4502   */\n      0x20\n        /* \"#utility.yul\":4497:4498   */\n      dup2\n        /* \"#utility.yul\":4493:4503   */\n      add\n        /* \"#utility.yul\":4488:4503   */\n      swap1\n      pop\n        /* \"#utility.yul\":4464:4577   */\n      jump(tag_132)\n    tag_134:\n        /* \"#utility.yul\":4595:4601   */\n      dup4\n        /* \"#utility.yul\":4592:4593   */\n      dup2\n        /* \"#utility.yul\":4589:4602   */\n      gt\n        /* \"#utility.yul\":4586:4687   */\n      iszero\n      tag_135\n      jumpi\n        /* \"#utility.yul\":4675:4676   */\n      0x00\n        /* \"#utility.yul\":4666:4672   */\n      dup5\n        /* \"#utility.yul\":4661:4664   */\n      dup5\n        /* \"#utility.yul\":4657:4673   */\n      add\n        /* \"#utility.yul\":4650:4677   */\n      mstore\n        /* \"#utility.yul\":4586:4687   */\n    tag_135:\n        /* \"#utility.yul\":4435:4693   */\n      pop\n        /* \"#utility.yul\":4386:4693   */\n      pop\n      pop\n      pop\n      jump\t// out\n        /* \"#utility.yul\":4699:5063   */\n    tag_57:\n        /* \"#utility.yul\":4787:4790   */\n      0x00\n        /* \"#utility.yul\":4815:4854   */\n      tag_137\n        /* \"#utility.yul\":4848:4853   */\n      dup3\n        /* \"#utility.yul\":4815:4854   */\n      tag_54\n      jump\t// in\n    tag_137:\n        /* \"#utility.yul\":4870:4941   */\n      tag_138\n        /* \"#utility.yul\":4934:4940   */\n      dup2\n        /* \"#utility.yul\":4929:4932   */\n      dup6\n        /* \"#utility.yul\":4870:4941   */\n      tag_55\n      jump\t// in\n    tag_138:\n        /* \"#utility.yul\":4863:4941   */\n      swap4\n      pop\n        /* \"#utility.yul\":4950:5002   */\n      tag_139\n        /* \"#utility.yul\":4995:5001   */\n      dup2\n        /* \"#utility.yul\":4990:4993   */\n      dup6\n        /* \"#utility.yul\":4983:4987   */\n      0x20\n        /* \"#utility.yul\":4976:4981   */\n      dup7\n        /* \"#utility.yul\":4972:4988   */\n      add\n        /* \"#utility.yul\":4950:5002   */\n      tag_56\n      jump\t// in\n    tag_139:\n        /* \"#utility.yul\":5027:5056   */\n      tag_140\n        /* \"#utility.yul\":5049:5055   */\n      dup2\n        /* \"#utility.yul\":5027:5056   */\n      tag_44\n      jump\t// in\n    tag_140:\n        /* \"#utility.yul\":5022:5025   */\n      dup5\n        /* \"#utility.yul\":5018:5057   */\n      add\n        /* \"#utility.yul\":5011:5057   */\n      swap2\n      pop\n        /* \"#utility.yul\":4791:5063   */\n      pop\n        /* \"#utility.yul\":4699:5063   */\n      swap3\n      swap2\n      pop\n      pop\n      jump\t// out\n        /* \"#utility.yul\":5069:5382   */\n    tag_20:\n        /* \"#utility.yul\":5182:5186   */\n      0x00\n        /* \"#utility.yul\":5220:5222   */\n      0x20\n        /* \"#utility.yul\":5209:5218   */\n      dup3\n        /* \"#utility.yul\":5205:5223   */\n      add\n        /* \"#utility.yul\":5197:5223   */\n      swap1\n      pop\n        /* \"#utility.yul\":5269:5278   */\n      dup2\n        /* \"#utility.yul\":5263:5267   */\n      dup2\n        /* \"#utility.yul\":5259:5279   */\n      sub\n        /* \"#utility.yul\":5255:5256   */\n      0x00\n        /* \"#utility.yul\":5244:5253   */\n      dup4\n        /* \"#utility.yul\":5240:5257   */\n      add\n        /* \"#utility.yul\":5233:5280   */\n      mstore\n        /* \"#utility.yul\":5297:5375   */\n      tag_142\n        /* \"#utility.yul\":5370:5374   */\n      dup2\n        /* \"#utility.yul\":5361:5367   */\n      dup5\n        /* \"#utility.yul\":5297:5375   */\n      tag_57\n      jump\t// in\n    tag_142:\n        /* \"#utility.yul\":5289:5375   */\n      swap1\n      pop\n        /* \"#utility.yul\":5069:5382   */\n      swap3\n      swap2\n      pop\n      pop\n      jump\t// out\n        /* \"#utility.yul\":5388:5514   */\n    tag_58:\n        /* \"#utility.yul\":5425:5432   */\n      0x00\n        /* \"#utility.yul\":5465:5507   */\n      0xffffffffffffffffffffffffffffffffffffffff\n        /* \"#utility.yul\":5458:5463   */\n      dup3\n        /* \"#utility.yul\":5454:5508   */\n      and\n        /* \"#utility.yul\":5443:5508   */\n      swap1\n      pop\n        /* \"#utility.yul\":5388:5514   */\n      swap2\n      swap1\n      pop\n      jump\t// out\n        /* \"#utility.yul\":5520:5616   */\n    tag_59:\n        /* \"#utility.yul\":5557:5564   */\n      0x00\n        /* \"#utility.yul\":5586:5610   */\n      tag_145\n        /* \"#utility.yul\":5604:5609   */\n      dup3\n        /* \"#utility.yul\":5586:5610   */\n      tag_58\n      jump\t// in\n    tag_145:\n        /* \"#utility.yul\":5575:5610   */\n      swap1\n      pop\n        /* \"#utility.yul\":5520:5616   */\n      swap2\n      swap1\n      pop\n      jump\t// out\n        /* \"#utility.yul\":5622:5744   */\n    tag_60:\n        /* \"#utility.yul\":5695:5719   */\n      tag_147\n        /* \"#utility.yul\":5713:5718   */\n      dup2\n        /* \"#utility.yul\":5695:5719   */\n      tag_59\n      jump\t// in\n    tag_147:\n        /* \"#utility.yul\":5688:5693   */\n      dup2\n        /* \"#utility.yul\":5685:5720   */\n      eq\n        /* \"#utility.yul\":5675:5738   */\n      tag_148\n      jumpi\n        /* \"#utility.yul\":5734:5735   */\n      0x00\n        /* \"#utility.yul\":5731:5732   */\n      dup1\n        /* \"#utility.yul\":5724:5736   */\n      revert\n        /* \"#utility.yul\":5675:5738   */\n    tag_148:\n        /* \"#utility.yul\":5622:5744   */\n      pop\n      jump\t// out\n        /* \"#utility.yul\":5750:5889   */\n    tag_61:\n        /* \"#utility.yul\":5796:5801   */\n      0x00\n        /* \"#utility.yul\":5834:5840   */\n      dup2\n        /* \"#utility.yul\":5821:5841   */\n      calldataload\n        /* \"#utility.yul\":5812:5841   */\n      swap1\n      pop\n        /* \"#utility.yul\":5850:5883   */\n      tag_150\n        /* \"#utility.yul\":5877:5882   */\n      dup2\n        /* \"#utility.yul\":5850:5883   */\n      tag_60\n      jump\t// in\n    tag_150:\n        /* \"#utility.yul\":5750:5889   */\n      swap3\n      swap2\n      pop\n      pop\n      jump\t// out\n        /* \"#utility.yul\":5895:6224   */\n    tag_23:\n        /* \"#utility.yul\":5954:5960   */\n      0x00\n        /* \"#utility.yul\":6003:6005   */\n      0x20\n        /* \"#utility.yul\":5991:6000   */\n      dup3\n        /* \"#utility.yul\":5982:5989   */\n      dup5\n        /* \"#utility.yul\":5978:6001   */\n      sub\n        /* \"#utility.yul\":5974:6006   */\n      slt\n        /* \"#utility.yul\":5971:6090   */\n      iszero\n      tag_152\n      jumpi\n        /* \"#utility.yul\":6009:6088   */\n      tag_153\n      tag_40\n      jump\t// in\n    tag_153:\n        /* \"#utility.yul\":5971:6090   */\n    tag_152:\n        /* \"#utility.yul\":6129:6130   */\n      0x00\n        /* \"#utility.yul\":6154:6207   */\n      tag_154\n        /* \"#utility.yul\":6199:6206   */\n      dup5\n        /* \"#utility.yul\":6190:6196   */\n      dup3\n        /* \"#utility.yul\":6179:6188   */\n      dup6\n        /* \"#utility.yul\":6175:6197   */\n      add\n        /* \"#utility.yul\":6154:6207   */\n      tag_61\n      jump\t// in\n    tag_154:\n        /* \"#utility.yul\":6144:6207   */\n      swap2\n      pop\n        /* \"#utility.yul\":6100:6217   */\n      pop\n        /* \"#utility.yul\":5895:6224   */\n      swap3\n      swap2\n      pop\n      pop\n      jump\t// out\n        /* \"#utility.yul\":6230:6410   */\n    tag_62:\n        /* \"#utility.yul\":6278:6355   */\n      0x4e487b7100000000000000000000000000000000000000000000000000000000\n        /* \"#utility.yul\":6275:6276   */\n      0x00\n        /* \"#utility.yul\":6268:6356   */\n      mstore\n        /* \"#utility.yul\":6375:6379   */\n      0x22\n        /* \"#utility.yul\":6372:6373   */\n      0x04\n        /* \"#utility.yul\":6365:6380   */\n      mstore\n        /* \"#utility.yul\":6399:6403   */\n      0x24\n        /* \"#utility.yul\":6396:6397   */\n      0x00\n        /* \"#utility.yul\":6389:6404   */\n      revert\n        /* \"#utility.yul\":6416:6736   */\n    tag_32:\n        /* \"#utility.yul\":6460:6466   */\n      0x00\n        /* \"#utility.yul\":6497:6498   */\n      0x02\n        /* \"#utility.yul\":6491:6495   */\n      dup3\n        /* \"#utility.yul\":6487:6499   */\n      div\n        /* \"#utility.yul\":6477:6499   */\n      swap1\n      pop\n        /* \"#utility.yul\":6544:6545   */\n      0x01\n        /* \"#utility.yul\":6538:6542   */\n      dup3\n        /* \"#utility.yul\":6534:6546   */\n      and\n        /* \"#utility.yul\":6565:6583   */\n      dup1\n        /* \"#utility.yul\":6555:6636   */\n      tag_157\n      jumpi\n        /* \"#utility.yul\":6621:6625   */\n      0x7f\n        /* \"#utility.yul\":6613:6619   */\n      dup3\n        /* \"#utility.yul\":6609:6626   */\n      and\n        /* \"#utility.yul\":6599:6626   */\n      swap2\n      pop\n        /* \"#utility.yul\":6555:6636   */\n    tag_157:\n        /* \"#utility.yul\":6683:6685   */\n      0x20\n        /* \"#utility.yul\":6675:6681   */\n      dup3\n        /* \"#utility.yul\":6672:6686   */\n      lt\n        /* \"#utility.yul\":6652:6670   */\n      dup2\n        /* \"#utility.yul\":6649:6687   */\n      sub\n        /* \"#utility.yul\":6646:6730   */\n      tag_158\n      jumpi\n        /* \"#utility.yul\":6702:6720   */\n      tag_159\n      tag_62\n      jump\t// in\n    tag_159:\n        /* \"#utility.yul\":6646:6730   */\n    tag_158:\n        /* \"#utility.yul\":6467:6736   */\n      pop\n        /* \"#utility.yul\":6416:6736   */\n      swap2\n      swap1\n      pop\n      jump\t// out\n        /* \"#utility.yul\":6742:6883   */\n    tag_63:\n        /* \"#utility.yul\":6791:6795   */\n      0x00\n        /* \"#utility.yul\":6814:6817   */\n      dup2\n        /* \"#utility.yul\":6806:6817   */\n      swap1\n      pop\n        /* \"#utility.yul\":6837:6840   */\n      dup2\n        /* \"#utility.yul\":6834:6835   */\n      0x00\n        /* \"#utility.yul\":6827:6841   */\n      mstore\n        /* \"#utility.yul\":6871:6875   */\n      0x20\n        /* \"#utility.yul\":6868:6869   */\n      0x00\n        /* \"#utility.yul\":6858:6876   */\n      keccak256\n        /* \"#utility.yul\":6850:6876   */\n      swap1\n      pop\n        /* \"#utility.yul\":6742:6883   */\n      swap2\n      swap1\n      pop\n      jump\t// out\n        /* \"#utility.yul\":6889:6982   */\n    tag_64:\n        /* \"#utility.yul\":6926:6932   */\n      0x00\n        /* \"#utility.yul\":6973:6975   */\n      0x20\n        /* \"#utility.yul\":6968:6970   */\n      0x1f\n        /* \"#utility.yul\":6961:6966   */\n      dup4\n        /* \"#utility.yul\":6957:6971   */\n      add\n        /* \"#utility.yul\":6953:6976   */\n      div\n        /* \"#utility.yul\":6943:6976   */\n      swap1\n      pop\n        /* \"#utility.yul\":6889:6982   */\n      swap2\n      swap1\n      pop\n      jump\t// out\n        /* \"#utility.yul\":6988:7095   */\n    tag_65:\n        /* \"#utility.yul\":7032:7040   */\n      0x00\n        /* \"#utility.yul\":7082:7087   */\n      dup3\n        /* \"#utility.yul\":7076:7080   */\n      dup3\n        /* \"#utility.yul\":7072:7088   */\n      shl\n        /* \"#utility.yul\":7051:7088   */\n      swap1\n      pop\n        /* \"#utility.yul\":6988:7095   */\n      swap3\n      swap2\n      pop\n      pop\n      jump\t// out\n        /* \"#utility.yul\":7101:7494   */\n    tag_66:\n        /* \"#utility.yul\":7170:7176   */\n      0x00\n        /* \"#utility.yul\":7220:7221   */\n      0x08\n        /* \"#utility.yul\":7208:7218   */\n      dup4\n        /* \"#utility.yul\":7204:7222   */\n      mul\n        /* \"#utility.yul\":7243:7340   */\n      tag_164\n        /* \"#utility.yul\":7273:7339   */\n      0xffffffffffffffffffffffffffffffffffffffffffffffffffffffffffffffff\n        /* \"#utility.yul\":7262:7271   */\n      dup3\n        /* \"#utility.yul\":7243:7340   */\n      tag_65\n      jump\t// in\n    tag_164:\n        /* \"#utility.yul\":7361:7400   */\n      tag_165\n        /* \"#utility.yul\":7391:7399   */\n      dup7\n        /* \"#utility.yul\":7380:7389   */\n      dup4\n        /* \"#utility.yul\":7361:7400   */\n      tag_65\n      jump\t// in\n    tag_165:\n        /* \"#utility.yul\":7349:7400   */\n      swap6\n      pop\n        /* \"#utility.yul\":7433:7437   */\n      dup1\n        /* \"#utility.yul\":7429:7438   */\n      not\n        /* \"#utility.yul\":7422:7427   */\n      dup5\n        /* \"#utility.yul\":7418:7439   */\n      and\n        /* \"#utility.yul\":7409:7439   */\n      swap4\n      pop\n        /* \"#utility.yul\":7482:7486   */\n      dup1\n        /* \"#utility.yul\":7472:7480   */\n      dup7\n        /* \"#utility.yul\":7468:7487   */\n      and\n        /* \"#utility.yul\":7461:7466   */\n      dup5\n        /* \"#utility.yul\":7458:7488   */\n      or\n        /* \"#utility.yul\":7448:7488   */\n      swap3\n      pop\n        /* \"#utility.yul\":7177:7494   */\n      pop\n      pop\n        /* \"#utility.yul\":7101:7494   */\n      swap4\n      swap3\n      pop\n      pop\n      pop\n      jump\t// out\n        /* \"#utility.yul\":7500:7560   */\n    tag_67:\n        /* \"#utility.yul\":7528:7531   */\n      0x00\n        /* \"#utility.yul\":7549:7554   */\n      dup2\n        /* \"#utility.yul\":7542:7554   */\n      swap1\n      pop\n        /* \"#utility.yul\":7500:7560   */\n      swap2\n      swap1\n      pop\n      jump\t// out\n        /* \"#utility.yul\":7566:7708   */\n    tag_68:\n        /* \"#utility.yul\":7616:7625   */\n      0x00\n        /* \"#utility.yul\":7649:7702   */\n      tag_168\n        /* \"#utility.yul\":7667:7701   */\n      tag_169\n        /* \"#utility.yul\":7676:7700   */\n      tag_170\n        /* \"#utility.yul\":7694:7699   */\n      dup5\n        /* \"#utility.yul\":7676:7700   */\n      tag_37\n      jump\t// in\n    tag_170:\n        /* \"#utility.yul\":7667:7701   */\n      tag_67\n      jump\t// in\n    tag_169:\n        /* \"#utility.yul\":7649:7702   */\n      tag_37\n      jump\t// in\n    tag_168:\n        /* \"#utility.yul\":7636:7702   */\n      swap1\n      pop\n        /* \"#utility.yul\":7566:7708   */\n      swap2\n      swap1\n      pop\n      jump\t// out\n        /* \"#utility.yul\":7714:7789   */\n    tag_69:\n        /* \"#utility.yul\":7757:7760   */\n      0x00\n        /* \"#utility.yul\":7778:7783   */\n      dup2\n        /* \"#utility.yul\":7771:7783   */\n      swap1\n      pop\n        /* \"#utility.yul\":7714:7789   */\n      swap2\n      swap1\n      pop\n      jump\t// out\n        /* \"#utility.yul\":7795:8064   */\n    tag_70:\n        /* \"#utility.yul\":7905:7944   */\n      tag_173\n        /* \"#utility.yul\":7936:7943   */\n      dup4\n        /* \"#utility.yul\":7905:7944   */\n      tag_68\n      jump\t// in\n    tag_173:\n        /* \"#utility.yul\":7966:8057   */\n      tag_174\n        /* \"#utility.yul\":8015:8056   */\n      tag_175\n        /* \"#utility.yul\":8039:8055   */\n      dup3\n        /* \"#utility.yul\":8015:8056   */\n      tag_69\n      jump\t// in\n    tag_175:\n        /* \"#utility.yul\":8007:8013   */\n      dup5\n        /* \"#utility.yul\":8000:8004   */\n      dup5\n        /* \"#utility.yul\":7994:8005   */\n      sload\n        /* \"#utility.yul\":7966:8057   */\n      tag_66\n      jump\t// in\n    tag_174:\n        /* \"#utility.yul\":7960:7964   */\n      dup3\n        /* \"#utility.yul\":7953:8058   */\n      sstore\n        /* \"#utility.yul\":7871:8064   */\n      pop\n        /* \"#utility.yul\":7795:8064   */\n      pop\n      pop\n      pop\n      jump\t// out\n        /* \"#utility.yul\":8070:8143   */\n    tag_71:\n        /* \"#utility.yul\":8115:8118   */\n      0x00\n        /* \"#utility.yul\":8070:8143   */\n      swap1\n      jump\t// out\n        /* \"#utility.yul\":8149:8338   */\n    tag_72:\n        /* \"#utility.yul\":8226:8258   */\n      tag_178\n      tag_71\n      jump\t// in\n    tag_178:\n        /* \"#utility.yul\":8267:8332   */\n      tag_179\n        /* \"#utility.yul\":8325:8331   */\n      dup2\n        /* \"#utility.yul\":8317:8323   */\n      dup5\n        /* \"#utility.yul\":8311:8315   */\n      dup5\n        /* \"#utility.yul\":8267:8332   */\n      tag_70\n      jump\t// in\n    tag_179:\n        /* \"#utility.yul\":8202:8338   */\n      pop\n        /* \"#utility.yul\":8149:8338   */\n      pop\n      pop\n      jump\t// out\n        /* \"#utility.yul\":8344:8530   */\n    tag_73:\n        /* \"#utility.yul\":8404:8524   */\n    tag_181:\n        /* \"#utility.yul\":8421:8424   */\n      dup2\n        /* \"#utility.yul\":8414:8419   */\n      dup2\n        /* \"#utility.yul\":8411:8425   */\n      lt\n        /* \"#utility.yul\":8404:8524   */\n      iszero\n      tag_183\n      jumpi\n        /* \"#utility.yul\":8475:8514   */\n      tag_184\n        /* \"#utility.yul\":8512:8513   */\n      0x00\n        /* \"#utility.yul\":8505:8510   */\n      dup3\n        /* \"#utility.yul\":8475:8514   */\n      tag_72\n      jump\t// in\n    tag_184:\n        /* \"#utility.yul\":8448:8449   */\n      0x01\n        /* \"#utility.yul\":8441:8446   */\n      dup2\n        /* \"#utility.yul\":8437:8450   */\n      add\n        /* \"#utility.yul\":8428:8450   */\n      swap1\n      pop\n        /* \"#utility.yul\":8404:8524   */\n      jump(tag_181)\n    tag_183:\n        /* \"#utility.yul\":8344:8530   */\n      pop\n      pop\n      jump\t// out\n        /* \"#utility.yul\":8536:9079   */\n    tag_74:\n        /* \"#utility.yul\":8637:8639   */\n      0x1f\n        /* \"#utility.yul\":8632:8635   */\n      dup3\n        /* \"#utility.yul\":8629:8640   */\n      gt\n        /* \"#utility.yul\":8626:9072   */\n      iszero\n      tag_186\n      jumpi\n        /* \"#utility.yul\":8671:8709   */\n      tag_187\n        /* \"#utility.yul\":8703:8708   */\n      dup2\n        /* \"#utility.yul\":8671:8709   */\n      tag_63\n      jump\t// in\n    tag_187:\n        /* \"#utility.yul\":8755:8784   */\n      tag_188\n        /* \"#utility.yul\":8773:8783   */\n      dup5\n        /* \"#utility.yul\":8755:8784   */\n      tag_64\n      jump\t// in\n    tag_188:\n        /* \"#utility.yul\":8745:8753   */\n      dup2\n        /* \"#utility.yul\":8741:8785   */\n      add\n        /* \"#utility.yul\":8938:8940   */\n      0x20\n        /* \"#utility.yul\":8926:8936   */\n      dup6\n        /* \"#utility.yul\":8923:8941   */\n      lt\n        /* \"#utility.yul\":8920:8969   */\n      iszero\n      tag_189\n      jumpi\n        /* \"#utility.yul\":8959:8967   */\n      dup2\n        /* \"#utility.yul\":8944:8967   */\n      swap1\n      pop\n        /* \"#utility.yul\":8920:8969   */\n    tag_189:\n        /* \"#utility.yul\":8982:9062   */\n      tag_190\n        /* \"#utility.yul\":9038:9060   */\n      tag_191\n        /* \"#utility.yul\":9056:9059   */\n      dup6\n        /* \"#utility.yul\":9038:9060   */\n      tag_64\n      jump\t// in\n    tag_191:\n        /* \"#utility.yul\":9028:9036   */\n      dup4\n        /* \"#utility.yul\":9024:9061   */\n      add\n        /* \"#utility.yul\":9011:9022   */\n      dup3\n        /* \"#utility.yul\":8982:9062   */\n      tag_73\n      jump\t// in\n    tag_190:\n        /* \"#utility.yul\":8641:9072   */\n      pop\n      pop\n        /* \"#utility.yul\":8626:9072   */\n    tag_186:\n        /* \"#utility.yul\":8536:9079   */\n      pop\n      pop\n      pop\n      jump\t// out\n        /* \"#utility.yul\":9085:9202   */\n    tag_75:\n        /* \"#utility.yul\":9139:9147   */\n      0x00\n        /* \"#utility.yul\":9189:9194   */\n      dup3\n        /* \"#utility.yul\":9183:9187   */\n      dup3\n        /* \"#utility.yul\":9179:9195   */\n      shr\n        /* \"#utility.yul\":9158:9195   */\n      swap1\n      pop\n        /* \"#utility.yul\":9085:9202   */\n      swap3\n      swap2\n      pop\n      pop\n      jump\t// out\n        /* \"#utility.yul\":9208:9377   */\n    tag_76:\n        /* \"#utility.yul\":9252:9258   */\n      0x00\n        /* \"#utility.yul\":9285:9336   */\n      tag_194\n        /* \"#utility.yul\":9333:9334   */\n      0x00\n        /* \"#utility.yul\":9329:9335   */\n      not\n        /* \"#utility.yul\":9321:9326   */\n      dup5\n        /* \"#utility.yul\":9318:9319   */\n      0x08\n        /* \"#utility.yul\":9314:9327   */\n      mul\n        /* \"#utility.yul\":9285:9336   */\n      tag_75\n      jump\t// in\n    tag_194:\n        /* \"#utility.yul\":9281:9337   */\n      not\n        /* \"#utility.yul\":9366:9370   */\n      dup1\n        /* \"#utility.yul\":9360:9364   */\n      dup4\n        /* \"#utility.yul\":9356:9371   */\n      and\n        /* \"#utility.yul\":9346:9371   */\n      swap2\n      pop\n        /* \"#utility.yul\":9259:9377   */\n      pop\n        /* \"#utility.yul\":9208:9377   */\n      swap3\n      swap2\n      pop\n      pop\n      jump\t// out\n        /* \"#utility.yul\":9382:9677   */\n    tag_77:\n        /* \"#utility.yul\":9458:9462   */\n      0x00\n        /* \"#utility.yul\":9604:9633   */\n      tag_196\n        /* \"#utility.yul\":9629:9632   */\n      dup4\n        /* \"#utility.yul\":9623:9627   */\n      dup4\n        /* \"#utility.yul\":9604:9633   */\n      tag_76\n      jump\t// in\n    tag_196:\n        /* \"#utility.yul\":9596:9633   */\n      swap2\n      pop\n        /* \"#utility.yul\":9666:9669   */\n      dup3\n        /* \"#utility.yul\":9663:9664   */\n      0x02\n        /* \"#utility.yul\":9659:9670   */\n      mul\n        /* \"#utility.yul\":9653:9657   */\n      dup3\n        /* \"#utility.yul\":9650:9671   */\n      or\n        /* \"#utility.yul\":9642:9671   */\n      swap1\n      pop\n        /* \"#utility.yul\":9382:9677   */\n      swap3\n      swap2\n      pop\n      pop\n      jump\t// out\n        /* \"#utility.yul\":9682:11077   */\n    tag_28:\n        /* \"#utility.yul\":9799:9836   */\n      tag_198\n        /* \"#utility.yul\":9832:9835   */\n      dup3\n        /* \"#utility.yul\":9799:9836   */\n      tag_54\n      jump\t// in\n    tag_198:\n        /* \"#utility.yul\":9901:9919   */\n      0xffffffffffffffff\n        /* \"#utility.yul\":9893:9899   */\n      dup2\n        /* \"#utility.yul\":9890:9920   */\n      gt\n        /* \"#utility.yul\":9887:9943   */\n      iszero\n      tag_199\n      jumpi\n        /* \"#utility.yul\":9923:9941   */\n      tag_200\n      tag_45\n      jump\t// in\n    tag_200:\n        /* \"#utility.yul\":9887:9943   */\n    tag_199:\n        /* \"#utility.yul\":9967:10005   */\n      tag_201\n        /* \"#utility.yul\":9999:10003   */\n      dup3\n        /* \"#utility.yul\":9993:10004   */\n      sload\n        /* \"#utility.yul\":9967:10005   */\n      tag_32\n      jump\t// in\n    tag_201:\n        /* \"#utility.yul\":10052:10119   */\n      tag_202\n        /* \"#utility.yul\":10112:10118   */\n      dup3\n        /* \"#utility.yul\":10104:10110   */\n      dup3\n        /* \"#utility.yul\":10098:10102   */\n      dup6\n        /* \"#utility.yul\":10052:10119   */\n      tag_74\n      jump\t// in\n    tag_202:\n        /* \"#utility.yul\":10146:10147   */\n      0x00\n        /* \"#utility.yul\":10170:10174   */\n      0x20\n        /* \"#utility.yul\":10157:10174   */\n      swap1\n      pop\n        /* \"#utility.yul\":10202:10204   */\n      0x1f\n        /* \"#utility.yul\":10194:10200   */\n      dup4\n        /* \"#utility.yul\":10191:10205   */\n      gt\n        /* \"#utility.yul\":10219:10220   */\n      0x01\n        /* \"#utility.yul\":10214:10832   */\n      dup2\n      eq\n      tag_204\n      jumpi\n        /* \"#utility.yul\":10876:10877   */\n      0x00\n        /* \"#utility.yul\":10893:10899   */\n      dup5\n        /* \"#utility.yul\":10890:10967   */\n      iszero\n      tag_205\n      jumpi\n        /* \"#utility.yul\":10942:10951   */\n      dup3\n        /* \"#utility.yul\":10937:10940   */\n      dup8\n        /* \"#utility.yul\":10933:10952   */\n      add\n        /* \"#utility.yul\":10927:10953   */\n      mload\n        /* \"#utility.yul\":10918:10953   */\n      swap1\n      pop\n        /* \"#utility.yul\":10890:10967   */\n    tag_205:\n        /* \"#utility.yul\":10993:11060   */\n      tag_206\n        /* \"#utility.yul\":11053:11059   */\n      dup6\n        /* \"#utility.yul\":11046:11051   */\n      dup3\n        /* \"#utility.yul\":10993:11060   */\n      tag_77\n      jump\t// in\n    tag_206:\n        /* \"#utility.yul\":10987:10991   */\n      dup7\n        /* \"#utility.yul\":10980:11061   */\n      sstore\n        /* \"#utility.yul\":10849:11071   */\n      pop\n        /* \"#utility.yul\":10184:11071   */\n      jump(tag_203)\n        /* \"#utility.yul\":10214:10832   */\n    tag_204:\n        /* \"#utility.yul\":10266:10270   */\n      0x1f\n        /* \"#utility.yul\":10262:10271   */\n      not\n        /* \"#utility.yul\":10254:10260   */\n      dup5\n        /* \"#utility.yul\":10250:10272   */\n      and\n        /* \"#utility.yul\":10300:10337   */\n      tag_207\n        /* \"#utility.yul\":10332:10336   */\n      dup7\n        /* \"#utility.yul\":10300:10337   */\n      tag_63\n      jump\t// in\n    tag_207:\n        /* \"#utility.yul\":10359:10360   */\n      0x00\n        /* \"#utility.yul\":10373:10581   */\n    tag_208:\n        /* \"#utility.yul\":10387:10394   */\n      dup3\n        /* \"#utility.yul\":10384:10385   */\n      dup2\n        /* \"#utility.yul\":10381:10395   */\n      lt\n        /* \"#utility.yul\":10373:10581   */\n      iszero\n      tag_210\n      jumpi\n        /* \"#utility.yul\":10466:10475   */\n      dup5\n        /* \"#utility.yul\":10461:10464   */\n      dup10\n        /* \"#utility.yul\":10457:10476   */\n      add\n        /* \"#utility.yul\":10451:10477   */\n      mload\n        /* \"#utility.yul\":10443:10449   */\n      dup3\n        /* \"#utility.yul\":10436:10478   */\n      sstore\n        /* \"#utility.yul\":10517:10518   */\n      0x01\n        /* \"#utility.yul\":10509:10515   */\n      dup3\n        /* \"#utility.yul\":10505:10519   */\n      add\n        /* \"#utility.yul\":10495:10519   */\n      swap2\n      pop\n        /* \"#utility.yul\":10564:10566   */\n      0x20\n        /* \"#utility.yul\":10553:10562   */\n      dup6\n        /* \"#utility.yul\":10549:10567   */\n      add\n        /* \"#utility.yul\":10536:10567   */\n      swap5\n      pop\n        /* \"#utility.yul\":10410:10414   */\n      0x20\n        /* \"#utility.yul\":10407:10408   */\n      dup2\n        /* \"#utility.yul\":10403:10415   */\n      add\n        /* \"#utility.yul\":10398:10415   */\n      swap1\n      pop\n        /* \"#utility.yul\":10373:10581   */\n      jump(tag_208)\n    tag_210:\n        /* \"#utility.yul\":10609:10615   */\n      dup7\n        /* \"#utility.yul\":10600:10607   */\n      dup4\n        /* \"#utility.yul\":10597:10616   */\n      lt\n        /* \"#utility.yul\":10594:10773   */\n      iszero\n      tag_211\n      jumpi\n        /* \"#utility.yul\":10667:10676   */\n      dup5\n        /* \"#utility.yul\":10662:10665   */\n      dup10\n        /* \"#utility.yul\":10658:10677   */\n      add\n        /* \"#utility.yul\":10652:10678   */\n      mload\n        /* \"#utility.yul\":10710:10758   */\n      tag_212\n        /* \"#utility.yul\":10752:10756   */\n      0x1f\n        /* \"#utility.yul\":10744:10750   */\n      dup10\n        /* \"#utility.yul\":10740:10757   */\n      and\n        /* \"#utility.yul\":10729:10738   */\n      dup3\n        /* \"#utility.yul\":10710:10758   */\n      tag_76\n      jump\t// in\n    tag_212:\n        /* \"#utility.yul\":10702:10708   */\n      dup4\n        /* \"#utility.yul\":10695:10759   */\n      sstore\n        /* \"#utility.yul\":10617:10773   */\n      pop\n        /* \"#utility.yul\":10594:10773   */\n    tag_211:\n        /* \"#utility.yul\":10819:10820   */\n      0x01\n        /* \"#utility.yul\":10815:10816   */\n      0x02\n        /* \"#utility.yul\":10807:10813   */\n      dup9\n        /* \"#utility.yul\":10803:10817   */\n      mul\n        /* \"#utility.yul\":10799:10821   */\n      add\n        /* \"#utility.yul\":10793:10797   */\n      dup9\n        /* \"#utility.yul\":10786:10822   */\n      sstore\n        /* \"#utility.yul\":10221:10832   */\n      pop\n      pop\n      pop\n        /* \"#utility.yul\":10184:11071   */\n    tag_203:\n      pop\n        /* \"#utility.yul\":9774:11077   */\n      pop\n      pop\n      pop\n        /* \"#utility.yul\":9682:11077   */\n      pop\n      pop\n      jump\t// out\n        /* \"#utility.yul\":11083:11263   */\n    tag_78:\n        /* \"#utility.yul\":11131:11208   */\n      0x4e487b7100000000000000000000000000000000000000000000000000000000\n        /* \"#utility.yul\":11128:11129   */\n      0x00\n        /* \"#utility.yul\":11121:11209   */\n      mstore\n        /* \"#utility.yul\":11228:11232   */\n      0x11\n        /* \"#utility.yul\":11225:11226   */\n      0x04\n        /* \"#utility.yul\":11218:11233   */\n      mstore\n        /* \"#utility.yul\":11252:11256   */\n      0x24\n        /* \"#utility.yul\":11249:11250   */\n      0x00\n        /* \"#utility.yul\":11242:11257   */\n      revert\n        /* \"#utility.yul\":11269:11502   */\n    tag_30:\n        /* \"#utility.yul\":11308:11311   */\n      0x00\n        /* \"#utility.yul\":11331:11355   */\n      tag_215\n        /* \"#utility.yul\":11349:11354   */\n      dup3\n        /* \"#utility.yul\":11331:11355   */\n      tag_37\n      jump\t// in\n    tag_215:\n        /* \"#utility.yul\":11322:11355   */\n      swap2\n      pop\n        /* \"#utility.yul\":11377:11443   */\n      0xffffffffffffffffffffffffffffffffffffffffffffffffffffffffffffffff\n        /* \"#utility.yul\":11370:11375   */\n      dup3\n        /* \"#utility.yul\":11367:11444   */\n      sub\n        /* \"#utility.yul\":11364:11467   */\n      tag_216\n      jumpi\n        /* \"#utility.yul\":11447:11465   */\n      tag_217\n      tag_78\n      jump\t// in\n    tag_217:\n        /* \"#utility.yul\":11364:11467   */\n    tag_216:\n        /* \"#utility.yul\":11494:11495   */\n      0x01\n        /* \"#utility.yul\":11487:11492   */\n      dup3\n        /* \"#utility.yul\":11483:11496   */\n      add\n        /* \"#utility.yul\":11476:11496   */\n      swap1\n      pop\n        /* \"#utility.yul\":11269:11502   */\n      swap2\n      swap1\n      pop\n      jump\t// out\n\n    auxdata: 0xa26469706673582212209325ae6803df27d581b4c9c9a943e8d178b3b2cd3ed86bc93dfef9ebf264fd9f64736f6c634300080f0033\n}\n",
				"bytecode": {
					"linkReferences": {},
					"object": "608060405234801561001057600080fd5b506108d6806100206000396000f3fe608060405234801561001057600080fd5b506004361061004c5760003560e01c806306661abd146100515780630ed047d41461006f57806311d5aaa71461008b57806327e235e3146100bb575b600080fd5b6100596100eb565b60405161006691906101ff565b60405180910390f35b61008960048036038101906100849190610374565b6100f1565b005b6100a560048036038101906100a091906103e9565b61012e565b6040516100b2919061049e565b60405180910390f35b6100d560048036038101906100d0919061051e565b6101ce565b6040516100e291906101ff565b60405180910390f35b60015481565b80600080600154815260200190815260200160002090816101129190610757565b506001600081548092919061012690610858565b919050555050565b6000602052806000526040600020600091509050805461014d9061057a565b80601f01602080910402602001604051908101604052809291908181526020018280546101799061057a565b80156101c65780601f1061019b576101008083540402835291602001916101c6565b820191906000526020600020905b8154815290600101906020018083116101a957829003601f168201915b505050505081565b60026020528060005260406000206000915090505481565b6000819050919050565b6101f9816101e6565b82525050565b600060208201905061021460008301846101f0565b92915050565b6000604051905090565b600080fd5b600080fd5b600080fd5b600080fd5b6000601f19601f8301169050919050565b7f4e487b7100000000000000000000000000000000000000000000000000000000600052604160045260246000fd5b61028182610238565b810181811067ffffffffffffffff821117156102a05761029f610249565b5b80604052505050565b60006102b361021a565b90506102bf8282610278565b919050565b600067ffffffffffffffff8211156102df576102de610249565b5b6102e882610238565b9050602081019050919050565b82818337600083830152505050565b6000610317610312846102c4565b6102a9565b90508281526020810184848401111561033357610332610233565b5b61033e8482856102f5565b509392505050565b600082601f83011261035b5761035a61022e565b5b813561036b848260208601610304565b91505092915050565b60006020828403121561038a57610389610224565b5b600082013567ffffffffffffffff8111156103a8576103a7610229565b5b6103b484828501610346565b91505092915050565b6103c6816101e6565b81146103d157600080fd5b50565b6000813590506103e3816103bd565b92915050565b6000602082840312156103ff576103fe610224565b5b600061040d848285016103d4565b91505092915050565b600081519050919050565b600082825260208201905092915050565b60005b83811015610450578082015181840152602081019050610435565b8381111561045f576000848401525b50505050565b600061047082610416565b61047a8185610421565b935061048a818560208601610432565b61049381610238565b840191505092915050565b600060208201905081810360008301526104b88184610465565b905092915050565b600073ffffffffffffffffffffffffffffffffffffffff82169050919050565b60006104eb826104c0565b9050919050565b6104fb816104e0565b811461050657600080fd5b50565b600081359050610518816104f2565b92915050565b60006020828403121561053457610533610224565b5b600061054284828501610509565b91505092915050565b7f4e487b7100000000000000000000000000000000000000000000000000000000600052602260045260246000fd5b6000600282049050600182168061059257607f821691505b6020821081036105a5576105a461054b565b5b50919050565b60008190508160005260206000209050919050565b60006020601f8301049050919050565b600082821b905092915050565b60006008830261060d7fffffffffffffffffffffffffffffffffffffffffffffffffffffffffffffffff826105d0565b61061786836105d0565b95508019841693508086168417925050509392505050565b6000819050919050565b600061065461064f61064a846101e6565b61062f565b6101e6565b9050919050565b6000819050919050565b61066e83610639565b61068261067a8261065b565b8484546105dd565b825550505050565b600090565b61069761068a565b6106a2818484610665565b505050565b5b818110156106c6576106bb60008261068f565b6001810190506106a8565b5050565b601f82111561070b576106dc816105ab565b6106e5846105c0565b810160208510156106f4578190505b610708610700856105c0565b8301826106a7565b50505b505050565b600082821c905092915050565b600061072e60001984600802610710565b1980831691505092915050565b6000610747838361071d565b9150826002028217905092915050565b61076082610416565b67ffffffffffffffff81111561077957610778610249565b5b610783825461057a565b61078e8282856106ca565b600060209050601f8311600181146107c157600084156107af578287015190505b6107b9858261073b565b865550610821565b601f1984166107cf866105ab565b60005b828110156107f7578489015182556001820191506020850194506020810190506107d2565b868310156108145784890151610810601f89168261071d565b8355505b6001600288020188555050505b505050505050565b7f4e487b7100000000000000000000000000000000000000000000000000000000600052601160045260246000fd5b6000610863826101e6565b91507fffffffffffffffffffffffffffffffffffffffffffffffffffffffffffffffff820361089557610894610829565b5b60018201905091905056fea26469706673582212209325ae6803df27d581b4c9c9a943e8d178b3b2cd3ed86bc93dfef9ebf264fd9f64736f6c634300080f0033",
					"opcodes": "PUSH1 0x80 PUSH1 0x40 MSTORE CALLVALUE DUP1 ISZERO PUSH2 0x10 JUMPI PUSH1 0x0 DUP1 REVERT JUMPDEST POP PUSH2 0x8D6 DUP1 PUSH2 0x20 PUSH1 0x0 CODECOPY PUSH1 0x0 RETURN INVALID PUSH1 0x80 PUSH1 0x40 MSTORE CALLVALUE DUP1 ISZERO PUSH2 0x10 JUMPI PUSH1 0x0 DUP1 REVERT JUMPDEST POP PUSH1 0x4 CALLDATASIZE LT PUSH2 0x4C JUMPI PUSH1 0x0 CALLDATALOAD PUSH1 0xE0 SHR DUP1 PUSH4 0x6661ABD EQ PUSH2 0x51 JUMPI DUP1 PUSH4 0xED047D4 EQ PUSH2 0x6F JUMPI DUP1 PUSH4 0x11D5AAA7 EQ PUSH2 0x8B JUMPI DUP1 PUSH4 0x27E235E3 EQ PUSH2 0xBB JUMPI JUMPDEST PUSH1 0x0 DUP1 REVERT JUMPDEST PUSH2 0x59 PUSH2 0xEB JUMP JUMPDEST PUSH1 0x40 MLOAD PUSH2 0x66 SWAP2 SWAP1 PUSH2 0x1FF JUMP JUMPDEST PUSH1 0x40 MLOAD DUP1 SWAP2 SUB SWAP1 RETURN JUMPDEST PUSH2 0x89 PUSH1 0x4 DUP1 CALLDATASIZE SUB DUP2 ADD SWAP1 PUSH2 0x84 SWAP2 SWAP1 PUSH2 0x374 JUMP JUMPDEST PUSH2 0xF1 JUMP JUMPDEST STOP JUMPDEST PUSH2 0xA5 PUSH1 0x4 DUP1 CALLDATASIZE SUB DUP2 ADD SWAP1 PUSH2 0xA0 SWAP2 SWAP1 PUSH2 0x3E9 JUMP JUMPDEST PUSH2 0x12E JUMP JUMPDEST PUSH1 0x40 MLOAD PUSH2 0xB2 SWAP2 SWAP1 PUSH2 0x49E JUMP JUMPDEST PUSH1 0x40 MLOAD DUP1 SWAP2 SUB SWAP1 RETURN JUMPDEST PUSH2 0xD5 PUSH1 0x4 DUP1 CALLDATASIZE SUB DUP2 ADD SWAP1 PUSH2 0xD0 SWAP2 SWAP1 PUSH2 0x51E JUMP JUMPDEST PUSH2 0x1CE JUMP JUMPDEST PUSH1 0x40 MLOAD PUSH2 0xE2 SWAP2 SWAP1 PUSH2 0x1FF JUMP JUMPDEST PUSH1 0x40 MLOAD DUP1 SWAP2 SUB SWAP1 RETURN JUMPDEST PUSH1 0x1 SLOAD DUP2 JUMP JUMPDEST DUP1 PUSH1 0x0 DUP1 PUSH1 0x1 SLOAD DUP2 MSTORE PUSH1 0x20 ADD SWAP1 DUP2 MSTORE PUSH1 0x20 ADD PUSH1 0x0 KECCAK256 SWAP1 DUP2 PUSH2 0x112 SWAP2 SWAP1 PUSH2 0x757 JUMP JUMPDEST POP PUSH1 0x1 PUSH1 0x0 DUP2 SLOAD DUP1 SWAP3 SWAP2 SWAP1 PUSH2 0x126 SWAP1 PUSH2 0x858 JUMP JUMPDEST SWAP2 SWAP1 POP SSTORE POP POP JUMP JUMPDEST PUSH1 0x0 PUSH1 0x20 MSTORE DUP1 PUSH1 0x0 MSTORE PUSH1 0x40 PUSH1 0x0 KECCAK256 PUSH1 0x0 SWAP2 POP SWAP1 POP DUP1 SLOAD PUSH2 0x14D SWAP1 PUSH2 0x57A JUMP JUMPDEST DUP1 PUSH1 0x1F ADD PUSH1 0x20 DUP1 SWAP2 DIV MUL PUSH1 0x20 ADD PUSH1 0x40 MLOAD SWAP1 DUP2 ADD PUSH1 0x40 MSTORE DUP1 SWAP3 SWAP2 SWAP1 DUP2 DUP2 MSTORE PUSH1 0x20 ADD DUP3 DUP1 SLOAD PUSH2 0x179 SWAP1 PUSH2 0x57A JUMP JUMPDEST DUP1 ISZERO PUSH2 0x1C6 JUMPI DUP1 PUSH1 0x1F LT PUSH2 0x19B JUMPI PUSH2 0x100 DUP1 DUP4 SLOAD DIV MUL DUP4 MSTORE SWAP2 PUSH1 0x20 ADD SWAP2 PUSH2 0x1C6 JUMP JUMPDEST DUP3 ADD SWAP2 SWAP1 PUSH1 0x0 MSTORE PUSH1 0x20 PUSH1 0x0 KECCAK256 SWAP1 JUMPDEST DUP2 SLOAD DUP2 MSTORE SWAP1 PUSH1 0x1 ADD SWAP1 PUSH1 0x20 ADD DUP1 DUP4 GT PUSH2 0x1A9 JUMPI DUP3 SWAP1 SUB PUSH1 0x1F AND DUP3 ADD SWAP2 JUMPDEST POP POP POP POP POP DUP2 JUMP JUMPDEST PUSH1 0x2 PUSH1 0x20 MSTORE DUP1 PUSH1 0x0 MSTORE PUSH1 0x40 PUSH1 0x0 KECCAK256 PUSH1 0x0 SWAP2 POP SWAP1 POP SLOAD DUP2 JUMP JUMPDEST PUSH1 0x0 DUP2 SWAP1 POP SWAP2 SWAP1 POP JUMP JUMPDEST PUSH2 0x1F9 DUP2 PUSH2 0x1E6 JUMP JUMPDEST DUP3 MSTORE POP POP JUMP JUMPDEST PUSH1 0x0 PUSH1 0x20 DUP3 ADD SWAP1 POP PUSH2 0x214 PUSH1 0x0 DUP4 ADD DUP5 PUSH2 0x1F0 JUMP JUMPDEST SWAP3 SWAP2 POP POP JUMP JUMPDEST PUSH1 0x0 PUSH1 0x40 MLOAD SWAP1 POP SWAP1 JUMP JUMPDEST PUSH1 0x0 DUP1 REVERT JUMPDEST PUSH1 0x0 DUP1 REVERT JUMPDEST PUSH1 0x0 DUP1 REVERT JUMPDEST PUSH1 0x0 DUP1 REVERT JUMPDEST PUSH1 0x0 PUSH1 0x1F NOT PUSH1 0x1F DUP4 ADD AND SWAP1 POP SWAP2 SWAP1 POP JUMP JUMPDEST PUSH32 0x4E487B7100000000000000000000000000000000000000000000000000000000 PUSH1 0x0 MSTORE PUSH1 0x41 PUSH1 0x4 MSTORE PUSH1 0x24 PUSH1 0x0 REVERT JUMPDEST PUSH2 0x281 DUP3 PUSH2 0x238 JUMP JUMPDEST DUP2 ADD DUP2 DUP2 LT PUSH8 0xFFFFFFFFFFFFFFFF DUP3 GT OR ISZERO PUSH2 0x2A0 JUMPI PUSH2 0x29F PUSH2 0x249 JUMP JUMPDEST JUMPDEST DUP1 PUSH1 0x40 MSTORE POP POP POP JUMP JUMPDEST PUSH1 0x0 PUSH2 0x2B3 PUSH2 0x21A JUMP JUMPDEST SWAP1 POP PUSH2 0x2BF DUP3 DUP3 PUSH2 0x278 JUMP JUMPDEST SWAP2 SWAP1 POP JUMP JUMPDEST PUSH1 0x0 PUSH8 0xFFFFFFFFFFFFFFFF DUP3 GT ISZERO PUSH2 0x2DF JUMPI PUSH2 0x2DE PUSH2 0x249 JUMP JUMPDEST JUMPDEST PUSH2 0x2E8 DUP3 PUSH2 0x238 JUMP JUMPDEST SWAP1 POP PUSH1 0x20 DUP2 ADD SWAP1 POP SWAP2 SWAP1 POP JUMP JUMPDEST DUP3 DUP2 DUP4 CALLDATACOPY PUSH1 0x0 DUP4 DUP4 ADD MSTORE POP POP POP JUMP JUMPDEST PUSH1 0x0 PUSH2 0x317 PUSH2 0x312 DUP5 PUSH2 0x2C4 JUMP JUMPDEST PUSH2 0x2A9 JUMP JUMPDEST SWAP1 POP DUP3 DUP2 MSTORE PUSH1 0x20 DUP2 ADD DUP5 DUP5 DUP5 ADD GT ISZERO PUSH2 0x333 JUMPI PUSH2 0x332 PUSH2 0x233 JUMP JUMPDEST JUMPDEST PUSH2 0x33E DUP5 DUP3 DUP6 PUSH2 0x2F5 JUMP JUMPDEST POP SWAP4 SWAP3 POP POP POP JUMP JUMPDEST PUSH1 0x0 DUP3 PUSH1 0x1F DUP4 ADD SLT PUSH2 0x35B JUMPI PUSH2 0x35A PUSH2 0x22E JUMP JUMPDEST JUMPDEST DUP2 CALLDATALOAD PUSH2 0x36B DUP5 DUP3 PUSH1 0x20 DUP7 ADD PUSH2 0x304 JUMP JUMPDEST SWAP2 POP POP SWAP3 SWAP2 POP POP JUMP JUMPDEST PUSH1 0x0 PUSH1 0x20 DUP3 DUP5 SUB SLT ISZERO PUSH2 0x38A JUMPI PUSH2 0x389 PUSH2 0x224 JUMP JUMPDEST JUMPDEST PUSH1 0x0 DUP3 ADD CALLDATALOAD PUSH8 0xFFFFFFFFFFFFFFFF DUP2 GT ISZERO PUSH2 0x3A8 JUMPI PUSH2 0x3A7 PUSH2 0x229 JUMP JUMPDEST JUMPDEST PUSH2 0x3B4 DUP5 DUP3 DUP6 ADD PUSH2 0x346 JUMP JUMPDEST SWAP2 POP POP SWAP3 SWAP2 POP POP JUMP JUMPDEST PUSH2 0x3C6 DUP2 PUSH2 0x1E6 JUMP JUMPDEST DUP2 EQ PUSH2 0x3D1 JUMPI PUSH1 0x0 DUP1 REVERT JUMPDEST POP JUMP JUMPDEST PUSH1 0x0 DUP2 CALLDATALOAD SWAP1 POP PUSH2 0x3E3 DUP2 PUSH2 0x3BD JUMP JUMPDEST SWAP3 SWAP2 POP POP JUMP JUMPDEST PUSH1 0x0 PUSH1 0x20 DUP3 DUP5 SUB SLT ISZERO PUSH2 0x3FF JUMPI PUSH2 0x3FE PUSH2 0x224 JUMP JUMPDEST JUMPDEST PUSH1 0x0 PUSH2 0x40D DUP5 DUP3 DUP6 ADD PUSH2 0x3D4 JUMP JUMPDEST SWAP2 POP POP SWAP3 SWAP2 POP POP JUMP JUMPDEST PUSH1 0x0 DUP2 MLOAD SWAP1 POP SWAP2 SWAP1 POP JUMP JUMPDEST PUSH1 0x0 DUP3 DUP3 MSTORE PUSH1 0x20 DUP3 ADD SWAP1 POP SWAP3 SWAP2 POP POP JUMP JUMPDEST PUSH1 0x0 JUMPDEST DUP4 DUP2 LT ISZERO PUSH2 0x450 JUMPI DUP1 DUP3 ADD MLOAD DUP2 DUP5 ADD MSTORE PUSH1 0x20 DUP2 ADD SWAP1 POP PUSH2 0x435 JUMP JUMPDEST DUP4 DUP2 GT ISZERO PUSH2 0x45F JUMPI PUSH1 0x0 DUP5 DUP5 ADD MSTORE JUMPDEST POP POP POP POP JUMP JUMPDEST PUSH1 0x0 PUSH2 0x470 DUP3 PUSH2 0x416 JUMP JUMPDEST PUSH2 0x47A DUP2 DUP6 PUSH2 0x421 JUMP JUMPDEST SWAP4 POP PUSH2 0x48A DUP2 DUP6 PUSH1 0x20 DUP7 ADD PUSH2 0x432 JUMP JUMPDEST PUSH2 0x493 DUP2 PUSH2 0x238 JUMP JUMPDEST DUP5 ADD SWAP2 POP POP SWAP3 SWAP2 POP POP JUMP JUMPDEST PUSH1 0x0 PUSH1 0x20 DUP3 ADD SWAP1 POP DUP2 DUP2 SUB PUSH1 0x0 DUP4 ADD MSTORE PUSH2 0x4B8 DUP2 DUP5 PUSH2 0x465 JUMP JUMPDEST SWAP1 POP SWAP3 SWAP2 POP POP JUMP JUMPDEST PUSH1 0x0 PUSH20 0xFFFFFFFFFFFFFFFFFFFFFFFFFFFFFFFFFFFFFFFF DUP3 AND SWAP1 POP SWAP2 SWAP1 POP JUMP JUMPDEST PUSH1 0x0 PUSH2 0x4EB DUP3 PUSH2 0x4C0 JUMP JUMPDEST SWAP1 POP SWAP2 SWAP1 POP JUMP JUMPDEST PUSH2 0x4FB DUP2 PUSH2 0x4E0 JUMP JUMPDEST DUP2 EQ PUSH2 0x506 JUMPI PUSH1 0x0 DUP1 REVERT JUMPDEST POP JUMP JUMPDEST PUSH1 0x0 DUP2 CALLDATALOAD SWAP1 POP PUSH2 0x518 DUP2 PUSH2 0x4F2 JUMP JUMPDEST SWAP3 SWAP2 POP POP JUMP JUMPDEST PUSH1 0x0 PUSH1 0x20 DUP3 DUP5 SUB SLT ISZERO PUSH2 0x534 JUMPI PUSH2 0x533 PUSH2 0x224 JUMP JUMPDEST JUMPDEST PUSH1 0x0 PUSH2 0x542 DUP5 DUP3 DUP6 ADD PUSH2 0x509 JUMP JUMPDEST SWAP2 POP POP SWAP3 SWAP2 POP POP JUMP JUMPDEST PUSH32 0x4E487B7100000000000000000000000000000000000000000000000000000000 PUSH1 0x0 MSTORE PUSH1 0x22 PUSH1 0x4 MSTORE PUSH1 0x24 PUSH1 0x0 REVERT JUMPDEST PUSH1 0x0 PUSH1 0x2 DUP3 DIV SWAP1 POP PUSH1 0x1 DUP3 AND DUP1 PUSH2 0x592 JUMPI PUSH1 0x7F DUP3 AND SWAP2 POP JUMPDEST PUSH1 0x20 DUP3 LT DUP2 SUB PUSH2 0x5A5 JUMPI PUSH2 0x5A4 PUSH2 0x54B JUMP JUMPDEST JUMPDEST POP SWAP2 SWAP1 POP JUMP JUMPDEST PUSH1 0x0 DUP2 SWAP1 POP DUP2 PUSH1 0x0 MSTORE PUSH1 0x20 PUSH1 0x0 KECCAK256 SWAP1 POP SWAP2 SWAP1 POP JUMP JUMPDEST PUSH1 0x0 PUSH1 0x20 PUSH1 0x1F DUP4 ADD DIV SWAP1 POP SWAP2 SWAP1 POP JUMP JUMPDEST PUSH1 0x0 DUP3 DUP3 SHL SWAP1 POP SWAP3 SWAP2 POP POP JUMP JUMPDEST PUSH1 0x0 PUSH1 0x8 DUP4 MUL PUSH2 0x60D PUSH32 0xFFFFFFFFFFFFFFFFFFFFFFFFFFFFFFFFFFFFFFFFFFFFFFFFFFFFFFFFFFFFFFFF DUP3 PUSH2 0x5D0 JUMP JUMPDEST PUSH2 0x617 DUP7 DUP4 PUSH2 0x5D0 JUMP JUMPDEST SWAP6 POP DUP1 NOT DUP5 AND SWAP4 POP DUP1 DUP7 AND DUP5 OR SWAP3 POP POP POP SWAP4 SWAP3 POP POP POP JUMP JUMPDEST PUSH1 0x0 DUP2 SWAP1 POP SWAP2 SWAP1 POP JUMP JUMPDEST PUSH1 0x0 PUSH2 0x654 PUSH2 0x64F PUSH2 0x64A DUP5 PUSH2 0x1E6 JUMP JUMPDEST PUSH2 0x62F JUMP JUMPDEST PUSH2 0x1E6 JUMP JUMPDEST SWAP1 POP SWAP2 SWAP1 POP JUMP JUMPDEST PUSH1 0x0 DUP2 SWAP1 POP SWAP2 SWAP1 POP JUMP JUMPDEST PUSH2 0x66E DUP4 PUSH2 0x639 JUMP JUMPDEST PUSH2 0x682 PUSH2 0x67A DUP3 PUSH2 0x65B JUMP JUMPDEST DUP5 DUP5 SLOAD PUSH2 0x5DD JUMP JUMPDEST DUP3 SSTORE POP POP POP POP JUMP JUMPDEST PUSH1 0x0 SWAP1 JUMP JUMPDEST PUSH2 0x697 PUSH2 0x68A JUMP JUMPDEST PUSH2 0x6A2 DUP2 DUP5 DUP5 PUSH2 0x665 JUMP JUMPDEST POP POP POP JUMP JUMPDEST JUMPDEST DUP2 DUP2 LT ISZERO PUSH2 0x6C6 JUMPI PUSH2 0x6BB PUSH1 0x0 DUP3 PUSH2 0x68F JUMP JUMPDEST PUSH1 0x1 DUP2 ADD SWAP1 POP PUSH2 0x6A8 JUMP JUMPDEST POP POP JUMP JUMPDEST PUSH1 0x1F DUP3 GT ISZERO PUSH2 0x70B JUMPI PUSH2 0x6DC DUP2 PUSH2 0x5AB JUMP JUMPDEST PUSH2 0x6E5 DUP5 PUSH2 0x5C0 JUMP JUMPDEST DUP2 ADD PUSH1 0x20 DUP6 LT ISZERO PUSH2 0x6F4 JUMPI DUP2 SWAP1 POP JUMPDEST PUSH2 0x708 PUSH2 0x700 DUP6 PUSH2 0x5C0 JUMP JUMPDEST DUP4 ADD DUP3 PUSH2 0x6A7 JUMP JUMPDEST POP POP JUMPDEST POP POP POP JUMP JUMPDEST PUSH1 0x0 DUP3 DUP3 SHR SWAP1 POP SWAP3 SWAP2 POP POP JUMP JUMPDEST PUSH1 0x0 PUSH2 0x72E PUSH1 0x0 NOT DUP5 PUSH1 0x8 MUL PUSH2 0x710 JUMP JUMPDEST NOT DUP1 DUP4 AND SWAP2 POP POP SWAP3 SWAP2 POP POP JUMP JUMPDEST PUSH1 0x0 PUSH2 0x747 DUP4 DUP4 PUSH2 0x71D JUMP JUMPDEST SWAP2 POP DUP3 PUSH1 0x2 MUL DUP3 OR SWAP1 POP SWAP3 SWAP2 POP POP JUMP JUMPDEST PUSH2 0x760 DUP3 PUSH2 0x416 JUMP JUMPDEST PUSH8 0xFFFFFFFFFFFFFFFF DUP2 GT ISZERO PUSH2 0x779 JUMPI PUSH2 0x778 PUSH2 0x249 JUMP JUMPDEST JUMPDEST PUSH2 0x783 DUP3 SLOAD PUSH2 0x57A JUMP JUMPDEST PUSH2 0x78E DUP3 DUP3 DUP6 PUSH2 0x6CA JUMP JUMPDEST PUSH1 0x0 PUSH1 0x20 SWAP1 POP PUSH1 0x1F DUP4 GT PUSH1 0x1 DUP2 EQ PUSH2 0x7C1 JUMPI PUSH1 0x0 DUP5 ISZERO PUSH2 0x7AF JUMPI DUP3 DUP8 ADD MLOAD SWAP1 POP JUMPDEST PUSH2 0x7B9 DUP6 DUP3 PUSH2 0x73B JUMP JUMPDEST DUP7 SSTORE POP PUSH2 0x821 JUMP JUMPDEST PUSH1 0x1F NOT DUP5 AND PUSH2 0x7CF DUP7 PUSH2 0x5AB JUMP JUMPDEST PUSH1 0x0 JUMPDEST DUP3 DUP2 LT ISZERO PUSH2 0x7F7 JUMPI DUP5 DUP10 ADD MLOAD DUP3 SSTORE PUSH1 0x1 DUP3 ADD SWAP2 POP PUSH1 0x20 DUP6 ADD SWAP5 POP PUSH1 0x20 DUP2 ADD SWAP1 POP PUSH2 0x7D2 JUMP JUMPDEST DUP7 DUP4 LT ISZERO PUSH2 0x814 JUMPI DUP5 DUP10 ADD MLOAD PUSH2 0x810 PUSH1 0x1F DUP10 AND DUP3 PUSH2 0x71D JUMP JUMPDEST DUP4 SSTORE POP JUMPDEST PUSH1 0x1 PUSH1 0x2 DUP9 MUL ADD DUP9 SSTORE POP POP POP JUMPDEST POP POP POP POP POP POP JUMP JUMPDEST PUSH32 0x4E487B7100000000000000000000000000000000000000000000000000000000 PUSH1 0x0 MSTORE PUSH1 0x11 PUSH1 0x4 MSTORE PUSH1 0x24 PUSH1 0x0 REVERT JUMPDEST PUSH1 0x0 PUSH2 0x863 DUP3 PUSH2 0x1E6 JUMP JUMPDEST SWAP2 POP PUSH32 0xFFFFFFFFFFFFFFFFFFFFFFFFFFFFFFFFFFFFFFFFFFFFFFFFFFFFFFFFFFFFFFFF DUP3 SUB PUSH2 0x895 JUMPI PUSH2 0x894 PUSH2 0x829 JUMP JUMPDEST JUMPDEST PUSH1 0x1 DUP3 ADD SWAP1 POP SWAP2 SWAP1 POP JUMP INVALID LOG2 PUSH5 0x6970667358 0x22 SLT KECCAK256 SWAP4 0x25 0xAE PUSH9 0x3DF27D581B4C9C9A9 NUMBER 0xE8 0xD1 PUSH25 0xB3B2CD3ED86BC93DFEF9EBF264FD9F64736F6C634300080F00 CALLER "
				},
				"gasEstimates": {
					"creation": {
						"codeDepositCost": "452400",
						"executionCost": "486",
						"totalCost": "452886"
					},
					"external": {
						"addProject(string)": "infinite",
						"balances(address)": "2858",
						"count()": "2407",
						"project(uint256)": "infinite"
					}
				},
				"methodIdentifiers": {
					"addProject(string)": "0ed047d4",
					"balances(address)": "27e235e3",
					"count()": "06661abd",
					"project(uint256)": "11d5aaa7"
				}
			},
			"storageLayout": {
				"storage": [
					{
						"astId": 5,
						"contract": "contracts/mapping.sol:Mapping",
						"label": "project",
						"offset": 0,
						"slot": "0",
						"type": "t_mapping(t_uint256,t_string_storage)"
					},
					{
						"astId": 7,
						"contract": "contracts/mapping.sol:Mapping",
						"label": "count",
						"offset": 0,
						"slot": "1",
						"type": "t_uint256"
					},
					{
						"astId": 26,
						"contract": "contracts/mapping.sol:Mapping",
						"label": "balances",
						"offset": 0,
						"slot": "2",
						"type": "t_mapping(t_address,t_uint256)"
					}
				],
				"types": {
					"t_address": {
						"encoding": "inplace",
						"label": "address",
						"numberOfBytes": "20"
					},
					"t_mapping(t_address,t_uint256)": {
						"encoding": "mapping",
						"key": "t_address",
						"label": "mapping(address => uint256)",
						"numberOfBytes": "32",
						"value": "t_uint256"
					},
					"t_mapping(t_uint256,t_string_storage)": {
						"encoding": "mapping",
						"key": "t_uint256",
						"label": "mapping(uint256 => string)",
						"numberOfBytes": "32",
						"value": "t_string_storage"
					},
					"t_string_storage": {
						"encoding": "bytes",
						"label": "string",
						"numberOfBytes": "32"
					},
					"t_uint256": {
						"encoding": "inplace",
						"label": "uint256",
						"numberOfBytes": "32"
					}
				}
			},
			"userdoc": {
				"kind": "user",
				"methods": {},
				"version": 1
			}
		}
	}
}