{
	"contracts/artifacts/enum.sol": {
		"Enum": {
			"abi": [
				{
					"inputs": [],
					"name": "day",
					"outputs": [
						{
							"internalType": "enum Enum.Days",
							"name": "",
							"type": "uint8"
						}
					],
					"stateMutability": "view",
					"type": "function"
				},
				{
					"inputs": [],
					"name": "getStatus",
					"outputs": [
						{
							"internalType": "enum Enum.Status",
							"name": "",
							"type": "uint8"
						}
					],
					"stateMutability": "view",
					"type": "function"
				},
				{
					"inputs": [
						{
							"internalType": "enum Enum.Status",
							"name": "_status",
							"type": "uint8"
						}
					],
					"name": "ship",
					"outputs": [],
					"stateMutability": "nonpayable",
					"type": "function"
				}
			],
			"devdoc": {
				"kind": "dev",
				"methods": {},
				"version": 1
			},
			"evm": {
				"assembly": "    /* \"contracts/artifacts/enum.sol\":26:471  contract Enum {... */\n  mstore(0x40, 0x80)\n    /* \"contracts/artifacts/enum.sol\":271:279  Days.Mon */\n  0x01\n    /* \"contracts/artifacts/enum.sol\":253:279  Days public day = Days.Mon */\n  0x00\n  dup1\n  0x0100\n  exp\n  dup2\n  sload\n  dup2\n  0xff\n  mul\n  not\n  and\n  swap1\n  dup4\n  0x06\n  dup2\n  gt\n  iszero\n  tag_1\n  jumpi\n  tag_2\n  tag_3\n  jump\t// in\ntag_2:\ntag_1:\n  mul\n  or\n  swap1\n  sstore\n  pop\n    /* \"contracts/artifacts/enum.sol\":26:471  contract Enum {... */\n  callvalue\n  dup1\n  iszero\n  tag_4\n  jumpi\n  0x00\n  dup1\n  revert\ntag_4:\n  pop\n  jump(tag_5)\n    /* \"#utility.yul\":7:187   */\ntag_3:\n    /* \"#utility.yul\":55:132   */\n  0x4e487b7100000000000000000000000000000000000000000000000000000000\n    /* \"#utility.yul\":52:53   */\n  0x00\n    /* \"#utility.yul\":45:133   */\n  mstore\n    /* \"#utility.yul\":152:156   */\n  0x21\n    /* \"#utility.yul\":149:150   */\n  0x04\n    /* \"#utility.yul\":142:157   */\n  mstore\n    /* \"#utility.yul\":176:180   */\n  0x24\n    /* \"#utility.yul\":173:174   */\n  0x00\n    /* \"#utility.yul\":166:181   */\n  revert\n    /* \"contracts/artifacts/enum.sol\":26:471  contract Enum {... */\ntag_5:\n  dataSize(sub_0)\n  dup1\n  dataOffset(sub_0)\n  0x00\n  codecopy\n  0x00\n  return\nstop\n\nsub_0: assembly {\n        /* \"contracts/artifacts/enum.sol\":26:471  contract Enum {... */\n      mstore(0x40, 0x80)\n      callvalue\n      dup1\n      iszero\n      tag_1\n      jumpi\n      0x00\n      dup1\n      revert\n    tag_1:\n      pop\n      jumpi(tag_2, lt(calldatasize, 0x04))\n      shr(0xe0, calldataload(0x00))\n      dup1\n      0x4e69d560\n      eq\n      tag_3\n      jumpi\n      dup1\n      0x7b76ac91\n      eq\n      tag_4\n      jumpi\n      dup1\n      0x93e2f51e\n      eq\n      tag_5\n      jumpi\n    tag_2:\n      0x00\n      dup1\n      revert\n        /* \"contracts/artifacts/enum.sol\":314:393  function getStatus() public view returns(Status) {... */\n    tag_3:\n      tag_6\n      tag_7\n      jump\t// in\n    tag_6:\n      mload(0x40)\n      tag_8\n      swap2\n      swap1\n      tag_9\n      jump\t// in\n    tag_8:\n      mload(0x40)\n      dup1\n      swap2\n      sub\n      swap1\n      return\n        /* \"contracts/artifacts/enum.sol\":253:279  Days public day = Days.Mon */\n    tag_4:\n      tag_10\n      tag_11\n      jump\t// in\n    tag_10:\n      mload(0x40)\n      tag_12\n      swap2\n      swap1\n      tag_13\n      jump\t// in\n    tag_12:\n      mload(0x40)\n      dup1\n      swap2\n      sub\n      swap1\n      return\n        /* \"contracts/artifacts/enum.sol\":399:469  function ship(Status _status) public {... */\n    tag_5:\n      tag_14\n      0x04\n      dup1\n      calldatasize\n      sub\n      dup2\n      add\n      swap1\n      tag_15\n      swap2\n      swap1\n      tag_16\n      jump\t// in\n    tag_15:\n      tag_17\n      jump\t// in\n    tag_14:\n      stop\n        /* \"contracts/artifacts/enum.sol\":314:393  function getStatus() public view returns(Status) {... */\n    tag_7:\n        /* \"contracts/artifacts/enum.sol\":355:361  Status */\n      0x00\n        /* \"contracts/artifacts/enum.sol\":380:386  status */\n      dup1\n      0x01\n      swap1\n      sload\n      swap1\n      0x0100\n      exp\n      swap1\n      div\n      0xff\n      and\n        /* \"contracts/artifacts/enum.sol\":373:386  return status */\n      swap1\n      pop\n        /* \"contracts/artifacts/enum.sol\":314:393  function getStatus() public view returns(Status) {... */\n      swap1\n      jump\t// out\n        /* \"contracts/artifacts/enum.sol\":253:279  Days public day = Days.Mon */\n    tag_11:\n      0x00\n      dup1\n      sload\n      swap1\n      0x0100\n      exp\n      swap1\n      div\n      0xff\n      and\n      dup2\n      jump\t// out\n        /* \"contracts/artifacts/enum.sol\":399:469  function ship(Status _status) public {... */\n    tag_17:\n        /* \"contracts/artifacts/enum.sol\":455:462  _status */\n      dup1\n        /* \"contracts/artifacts/enum.sol\":446:452  status */\n      0x00\n      0x01\n        /* \"contracts/artifacts/enum.sol\":446:462  status = _status */\n      0x0100\n      exp\n      dup2\n      sload\n      dup2\n      0xff\n      mul\n      not\n      and\n      swap1\n      dup4\n      0x03\n      dup2\n      gt\n      iszero\n      tag_20\n      jumpi\n      tag_21\n      tag_22\n      jump\t// in\n    tag_21:\n    tag_20:\n      mul\n      or\n      swap1\n      sstore\n      pop\n        /* \"contracts/artifacts/enum.sol\":399:469  function ship(Status _status) public {... */\n      pop\n      jump\t// out\n        /* \"#utility.yul\":7:187   */\n    tag_22:\n        /* \"#utility.yul\":55:132   */\n      0x4e487b7100000000000000000000000000000000000000000000000000000000\n        /* \"#utility.yul\":52:53   */\n      0x00\n        /* \"#utility.yul\":45:133   */\n      mstore\n        /* \"#utility.yul\":152:156   */\n      0x21\n        /* \"#utility.yul\":149:150   */\n      0x04\n        /* \"#utility.yul\":142:157   */\n      mstore\n        /* \"#utility.yul\":176:180   */\n      0x24\n        /* \"#utility.yul\":173:174   */\n      0x00\n        /* \"#utility.yul\":166:181   */\n      revert\n        /* \"#utility.yul\":193:307   */\n    tag_23:\n        /* \"#utility.yul\":275:276   */\n      0x04\n        /* \"#utility.yul\":268:273   */\n      dup2\n        /* \"#utility.yul\":265:277   */\n      lt\n        /* \"#utility.yul\":255:301   */\n      tag_39\n      jumpi\n        /* \"#utility.yul\":281:299   */\n      tag_40\n      tag_22\n      jump\t// in\n    tag_40:\n        /* \"#utility.yul\":255:301   */\n    tag_39:\n        /* \"#utility.yul\":193:307   */\n      pop\n      jump\t// out\n        /* \"#utility.yul\":313:442   */\n    tag_24:\n        /* \"#utility.yul\":359:366   */\n      0x00\n        /* \"#utility.yul\":388:393   */\n      dup2\n        /* \"#utility.yul\":377:393   */\n      swap1\n      pop\n        /* \"#utility.yul\":394:436   */\n      tag_42\n        /* \"#utility.yul\":430:435   */\n      dup3\n        /* \"#utility.yul\":394:436   */\n      tag_23\n      jump\t// in\n    tag_42:\n        /* \"#utility.yul\":313:442   */\n      swap2\n      swap1\n      pop\n      jump\t// out\n        /* \"#utility.yul\":448:577   */\n    tag_25:\n        /* \"#utility.yul\":505:514   */\n      0x00\n        /* \"#utility.yul\":538:571   */\n      tag_44\n        /* \"#utility.yul\":565:570   */\n      dup3\n        /* \"#utility.yul\":538:571   */\n      tag_24\n      jump\t// in\n    tag_44:\n        /* \"#utility.yul\":525:571   */\n      swap1\n      pop\n        /* \"#utility.yul\":448:577   */\n      swap2\n      swap1\n      pop\n      jump\t// out\n        /* \"#utility.yul\":583:728   */\n    tag_26:\n        /* \"#utility.yul\":677:721   */\n      tag_46\n        /* \"#utility.yul\":715:720   */\n      dup2\n        /* \"#utility.yul\":677:721   */\n      tag_25\n      jump\t// in\n    tag_46:\n        /* \"#utility.yul\":672:675   */\n      dup3\n        /* \"#utility.yul\":665:722   */\n      mstore\n        /* \"#utility.yul\":583:728   */\n      pop\n      pop\n      jump\t// out\n        /* \"#utility.yul\":734:970   */\n    tag_9:\n        /* \"#utility.yul\":834:838   */\n      0x00\n        /* \"#utility.yul\":872:874   */\n      0x20\n        /* \"#utility.yul\":861:870   */\n      dup3\n        /* \"#utility.yul\":857:875   */\n      add\n        /* \"#utility.yul\":849:875   */\n      swap1\n      pop\n        /* \"#utility.yul\":885:963   */\n      tag_48\n        /* \"#utility.yul\":960:961   */\n      0x00\n        /* \"#utility.yul\":949:958   */\n      dup4\n        /* \"#utility.yul\":945:962   */\n      add\n        /* \"#utility.yul\":936:942   */\n      dup5\n        /* \"#utility.yul\":885:963   */\n      tag_26\n      jump\t// in\n    tag_48:\n        /* \"#utility.yul\":734:970   */\n      swap3\n      swap2\n      pop\n      pop\n      jump\t// out\n        /* \"#utility.yul\":976:1087   */\n    tag_27:\n        /* \"#utility.yul\":1055:1056   */\n      0x07\n        /* \"#utility.yul\":1048:1053   */\n      dup2\n        /* \"#utility.yul\":1045:1057   */\n      lt\n        /* \"#utility.yul\":1035:1081   */\n      tag_50\n      jumpi\n        /* \"#utility.yul\":1061:1079   */\n      tag_51\n      tag_22\n      jump\t// in\n    tag_51:\n        /* \"#utility.yul\":1035:1081   */\n    tag_50:\n        /* \"#utility.yul\":976:1087   */\n      pop\n      jump\t// out\n        /* \"#utility.yul\":1093:1216   */\n    tag_28:\n        /* \"#utility.yul\":1136:1143   */\n      0x00\n        /* \"#utility.yul\":1165:1170   */\n      dup2\n        /* \"#utility.yul\":1154:1170   */\n      swap1\n      pop\n        /* \"#utility.yul\":1171:1210   */\n      tag_53\n        /* \"#utility.yul\":1204:1209   */\n      dup3\n        /* \"#utility.yul\":1171:1210   */\n      tag_27\n      jump\t// in\n    tag_53:\n        /* \"#utility.yul\":1093:1216   */\n      swap2\n      swap1\n      pop\n      jump\t// out\n        /* \"#utility.yul\":1222:1345   */\n    tag_29:\n        /* \"#utility.yul\":1276:1285   */\n      0x00\n        /* \"#utility.yul\":1309:1339   */\n      tag_55\n        /* \"#utility.yul\":1333:1338   */\n      dup3\n        /* \"#utility.yul\":1309:1339   */\n      tag_28\n      jump\t// in\n    tag_55:\n        /* \"#utility.yul\":1296:1339   */\n      swap1\n      pop\n        /* \"#utility.yul\":1222:1345   */\n      swap2\n      swap1\n      pop\n      jump\t// out\n        /* \"#utility.yul\":1351:1490   */\n    tag_30:\n        /* \"#utility.yul\":1442:1483   */\n      tag_57\n        /* \"#utility.yul\":1477:1482   */\n      dup2\n        /* \"#utility.yul\":1442:1483   */\n      tag_29\n      jump\t// in\n    tag_57:\n        /* \"#utility.yul\":1437:1440   */\n      dup3\n        /* \"#utility.yul\":1430:1484   */\n      mstore\n        /* \"#utility.yul\":1351:1490   */\n      pop\n      pop\n      jump\t// out\n        /* \"#utility.yul\":1496:1726   */\n    tag_13:\n        /* \"#utility.yul\":1593:1597   */\n      0x00\n        /* \"#utility.yul\":1631:1633   */\n      0x20\n        /* \"#utility.yul\":1620:1629   */\n      dup3\n        /* \"#utility.yul\":1616:1634   */\n      add\n        /* \"#utility.yul\":1608:1634   */\n      swap1\n      pop\n        /* \"#utility.yul\":1644:1719   */\n      tag_59\n        /* \"#utility.yul\":1716:1717   */\n      0x00\n        /* \"#utility.yul\":1705:1714   */\n      dup4\n        /* \"#utility.yul\":1701:1718   */\n      add\n        /* \"#utility.yul\":1692:1698   */\n      dup5\n        /* \"#utility.yul\":1644:1719   */\n      tag_30\n      jump\t// in\n    tag_59:\n        /* \"#utility.yul\":1496:1726   */\n      swap3\n      swap2\n      pop\n      pop\n      jump\t// out\n        /* \"#utility.yul\":1813:1930   */\n    tag_32:\n        /* \"#utility.yul\":1922:1923   */\n      0x00\n        /* \"#utility.yul\":1919:1920   */\n      dup1\n        /* \"#utility.yul\":1912:1924   */\n      revert\n        /* \"#utility.yul\":2059:2167   */\n    tag_34:\n        /* \"#utility.yul\":2141:2142   */\n      0x04\n        /* \"#utility.yul\":2134:2139   */\n      dup2\n        /* \"#utility.yul\":2131:2143   */\n      lt\n        /* \"#utility.yul\":2121:2161   */\n      tag_64\n      jumpi\n        /* \"#utility.yul\":2157:2158   */\n      0x00\n        /* \"#utility.yul\":2154:2155   */\n      dup1\n        /* \"#utility.yul\":2147:2159   */\n      revert\n        /* \"#utility.yul\":2121:2161   */\n    tag_64:\n        /* \"#utility.yul\":2059:2167   */\n      pop\n      jump\t// out\n        /* \"#utility.yul\":2173:2330   */\n    tag_35:\n        /* \"#utility.yul\":2228:2233   */\n      0x00\n        /* \"#utility.yul\":2266:2272   */\n      dup2\n        /* \"#utility.yul\":2253:2273   */\n      calldataload\n        /* \"#utility.yul\":2244:2273   */\n      swap1\n      pop\n        /* \"#utility.yul\":2282:2324   */\n      tag_66\n        /* \"#utility.yul\":2318:2323   */\n      dup2\n        /* \"#utility.yul\":2282:2324   */\n      tag_34\n      jump\t// in\n    tag_66:\n        /* \"#utility.yul\":2173:2330   */\n      swap3\n      swap2\n      pop\n      pop\n      jump\t// out\n        /* \"#utility.yul\":2336:2683   */\n    tag_16:\n        /* \"#utility.yul\":2404:2410   */\n      0x00\n        /* \"#utility.yul\":2453:2455   */\n      0x20\n        /* \"#utility.yul\":2441:2450   */\n      dup3\n        /* \"#utility.yul\":2432:2439   */\n      dup5\n        /* \"#utility.yul\":2428:2451   */\n      sub\n        /* \"#utility.yul\":2424:2456   */\n      slt\n        /* \"#utility.yul\":2421:2540   */\n      iszero\n      tag_68\n      jumpi\n        /* \"#utility.yul\":2459:2538   */\n      tag_69\n      tag_32\n      jump\t// in\n    tag_69:\n        /* \"#utility.yul\":2421:2540   */\n    tag_68:\n        /* \"#utility.yul\":2579:2580   */\n      0x00\n        /* \"#utility.yul\":2604:2666   */\n      tag_70\n        /* \"#utility.yul\":2658:2665   */\n      dup5\n        /* \"#utility.yul\":2649:2655   */\n      dup3\n        /* \"#utility.yul\":2638:2647   */\n      dup6\n        /* \"#utility.yul\":2634:2656   */\n      add\n        /* \"#utility.yul\":2604:2666   */\n      tag_35\n      jump\t// in\n    tag_70:\n        /* \"#utility.yul\":2594:2666   */\n      swap2\n      pop\n        /* \"#utility.yul\":2550:2676   */\n      pop\n        /* \"#utility.yul\":2336:2683   */\n      swap3\n      swap2\n      pop\n      pop\n      jump\t// out\n\n    auxdata: 0xa2646970667358221220bb7c92e7bd9ed3cbc5d3fd4597233ccd33b136b6c89c56521cf705e601abd87a64736f6c634300080f0033\n}\n",
				"bytecode": {
					"linkReferences": {},
					"object": "608060405260016000806101000a81548160ff0219169083600681111561002957610028610040565b5b021790555034801561003a57600080fd5b5061006f565b7f4e487b7100000000000000000000000000000000000000000000000000000000600052602160045260246000fd5b6102748061007e6000396000f3fe608060405234801561001057600080fd5b50600436106100415760003560e01c80634e69d560146100465780637b76ac911461006457806393e2f51e14610082575b600080fd5b61004e61009e565b60405161005b9190610169565b60405180910390f35b61006c6100b4565b60405161007991906101cc565b60405180910390f35b61009c60048036038101906100979190610211565b6100c5565b005b60008060019054906101000a900460ff16905090565b60008054906101000a900460ff1681565b80600060016101000a81548160ff021916908360038111156100ea576100e96100f2565b5b021790555050565b7f4e487b7100000000000000000000000000000000000000000000000000000000600052602160045260246000fd5b60048110610132576101316100f2565b5b50565b600081905061014382610121565b919050565b600061015382610135565b9050919050565b61016381610148565b82525050565b600060208201905061017e600083018461015a565b92915050565b60078110610195576101946100f2565b5b50565b60008190506101a682610184565b919050565b60006101b682610198565b9050919050565b6101c6816101ab565b82525050565b60006020820190506101e160008301846101bd565b92915050565b600080fd5b600481106101f957600080fd5b50565b60008135905061020b816101ec565b92915050565b600060208284031215610227576102266101e7565b5b6000610235848285016101fc565b9150509291505056fea2646970667358221220bb7c92e7bd9ed3cbc5d3fd4597233ccd33b136b6c89c56521cf705e601abd87a64736f6c634300080f0033",
					"opcodes": "PUSH1 0x80 PUSH1 0x40 MSTORE PUSH1 0x1 PUSH1 0x0 DUP1 PUSH2 0x100 EXP DUP2 SLOAD DUP2 PUSH1 0xFF MUL NOT AND SWAP1 DUP4 PUSH1 0x6 DUP2 GT ISZERO PUSH2 0x29 JUMPI PUSH2 0x28 PUSH2 0x40 JUMP JUMPDEST JUMPDEST MUL OR SWAP1 SSTORE POP CALLVALUE DUP1 ISZERO PUSH2 0x3A JUMPI PUSH1 0x0 DUP1 REVERT JUMPDEST POP PUSH2 0x6F JUMP JUMPDEST PUSH32 0x4E487B7100000000000000000000000000000000000000000000000000000000 PUSH1 0x0 MSTORE PUSH1 0x21 PUSH1 0x4 MSTORE PUSH1 0x24 PUSH1 0x0 REVERT JUMPDEST PUSH2 0x274 DUP1 PUSH2 0x7E PUSH1 0x0 CODECOPY PUSH1 0x0 RETURN INVALID PUSH1 0x80 PUSH1 0x40 MSTORE CALLVALUE DUP1 ISZERO PUSH2 0x10 JUMPI PUSH1 0x0 DUP1 REVERT JUMPDEST POP PUSH1 0x4 CALLDATASIZE LT PUSH2 0x41 JUMPI PUSH1 0x0 CALLDATALOAD PUSH1 0xE0 SHR DUP1 PUSH4 0x4E69D560 EQ PUSH2 0x46 JUMPI DUP1 PUSH4 0x7B76AC91 EQ PUSH2 0x64 JUMPI DUP1 PUSH4 0x93E2F51E EQ PUSH2 0x82 JUMPI JUMPDEST PUSH1 0x0 DUP1 REVERT JUMPDEST PUSH2 0x4E PUSH2 0x9E JUMP JUMPDEST PUSH1 0x40 MLOAD PUSH2 0x5B SWAP2 SWAP1 PUSH2 0x169 JUMP JUMPDEST PUSH1 0x40 MLOAD DUP1 SWAP2 SUB SWAP1 RETURN JUMPDEST PUSH2 0x6C PUSH2 0xB4 JUMP JUMPDEST PUSH1 0x40 MLOAD PUSH2 0x79 SWAP2 SWAP1 PUSH2 0x1CC JUMP JUMPDEST PUSH1 0x40 MLOAD DUP1 SWAP2 SUB SWAP1 RETURN JUMPDEST PUSH2 0x9C PUSH1 0x4 DUP1 CALLDATASIZE SUB DUP2 ADD SWAP1 PUSH2 0x97 SWAP2 SWAP1 PUSH2 0x211 JUMP JUMPDEST PUSH2 0xC5 JUMP JUMPDEST STOP JUMPDEST PUSH1 0x0 DUP1 PUSH1 0x1 SWAP1 SLOAD SWAP1 PUSH2 0x100 EXP SWAP1 DIV PUSH1 0xFF AND SWAP1 POP SWAP1 JUMP JUMPDEST PUSH1 0x0 DUP1 SLOAD SWAP1 PUSH2 0x100 EXP SWAP1 DIV PUSH1 0xFF AND DUP2 JUMP JUMPDEST DUP1 PUSH1 0x0 PUSH1 0x1 PUSH2 0x100 EXP DUP2 SLOAD DUP2 PUSH1 0xFF MUL NOT AND SWAP1 DUP4 PUSH1 0x3 DUP2 GT ISZERO PUSH2 0xEA JUMPI PUSH2 0xE9 PUSH2 0xF2 JUMP JUMPDEST JUMPDEST MUL OR SWAP1 SSTORE POP POP JUMP JUMPDEST PUSH32 0x4E487B7100000000000000000000000000000000000000000000000000000000 PUSH1 0x0 MSTORE PUSH1 0x21 PUSH1 0x4 MSTORE PUSH1 0x24 PUSH1 0x0 REVERT JUMPDEST PUSH1 0x4 DUP2 LT PUSH2 0x132 JUMPI PUSH2 0x131 PUSH2 0xF2 JUMP JUMPDEST JUMPDEST POP JUMP JUMPDEST PUSH1 0x0 DUP2 SWAP1 POP PUSH2 0x143 DUP3 PUSH2 0x121 JUMP JUMPDEST SWAP2 SWAP1 POP JUMP JUMPDEST PUSH1 0x0 PUSH2 0x153 DUP3 PUSH2 0x135 JUMP JUMPDEST SWAP1 POP SWAP2 SWAP1 POP JUMP JUMPDEST PUSH2 0x163 DUP2 PUSH2 0x148 JUMP JUMPDEST DUP3 MSTORE POP POP JUMP JUMPDEST PUSH1 0x0 PUSH1 0x20 DUP3 ADD SWAP1 POP PUSH2 0x17E PUSH1 0x0 DUP4 ADD DUP5 PUSH2 0x15A JUMP JUMPDEST SWAP3 SWAP2 POP POP JUMP JUMPDEST PUSH1 0x7 DUP2 LT PUSH2 0x195 JUMPI PUSH2 0x194 PUSH2 0xF2 JUMP JUMPDEST JUMPDEST POP JUMP JUMPDEST PUSH1 0x0 DUP2 SWAP1 POP PUSH2 0x1A6 DUP3 PUSH2 0x184 JUMP JUMPDEST SWAP2 SWAP1 POP JUMP JUMPDEST PUSH1 0x0 PUSH2 0x1B6 DUP3 PUSH2 0x198 JUMP JUMPDEST SWAP1 POP SWAP2 SWAP1 POP JUMP JUMPDEST PUSH2 0x1C6 DUP2 PUSH2 0x1AB JUMP JUMPDEST DUP3 MSTORE POP POP JUMP JUMPDEST PUSH1 0x0 PUSH1 0x20 DUP3 ADD SWAP1 POP PUSH2 0x1E1 PUSH1 0x0 DUP4 ADD DUP5 PUSH2 0x1BD JUMP JUMPDEST SWAP3 SWAP2 POP POP JUMP JUMPDEST PUSH1 0x0 DUP1 REVERT JUMPDEST PUSH1 0x4 DUP2 LT PUSH2 0x1F9 JUMPI PUSH1 0x0 DUP1 REVERT JUMPDEST POP JUMP JUMPDEST PUSH1 0x0 DUP2 CALLDATALOAD SWAP1 POP PUSH2 0x20B DUP2 PUSH2 0x1EC JUMP JUMPDEST SWAP3 SWAP2 POP POP JUMP JUMPDEST PUSH1 0x0 PUSH1 0x20 DUP3 DUP5 SUB SLT ISZERO PUSH2 0x227 JUMPI PUSH2 0x226 PUSH2 0x1E7 JUMP JUMPDEST JUMPDEST PUSH1 0x0 PUSH2 0x235 DUP5 DUP3 DUP6 ADD PUSH2 0x1FC JUMP JUMPDEST SWAP2 POP POP SWAP3 SWAP2 POP POP JUMP INVALID LOG2 PUSH5 0x6970667358 0x22 SLT KECCAK256 0xBB PUSH29 0x92E7BD9ED3CBC5D3FD4597233CCD33B136B6C89C56521CF705E601ABD8 PUSH27 0x64736F6C634300080F003300000000000000000000000000000000 "
				},
				"gasEstimates": {
					"creation": {
						"codeDepositCost": "125600",
						"executionCost": "24470",
						"totalCost": "150070"
					},
					"external": {
						"day()": "2557",
						"getStatus()": "2596",
						"ship(uint8)": "24722"
					}
				},
				"methodIdentifiers": {
					"day()": "7b76ac91",
					"getStatus()": "4e69d560",
					"ship(uint8)": "93e2f51e"
				}
			},
			"storageLayout": {
				"storage": [
					{
						"astId": 19,
						"contract": "contracts/artifacts/enum.sol:Enum",
						"label": "day",
						"offset": 0,
						"slot": "0",
						"type": "t_enum(Days)9"
					},
					{
						"astId": 22,
						"contract": "contracts/artifacts/enum.sol:Enum",
						"label": "status",
						"offset": 1,
						"slot": "0",
						"type": "t_enum(Status)14"
					}
				],
				"types": {
					"t_enum(Days)9": {
						"encoding": "inplace",
						"label": "enum Enum.Days",
						"numberOfBytes": "1"
					},
					"t_enum(Status)14": {
						"encoding": "inplace",
						"label": "enum Enum.Status",
						"numberOfBytes": "1"
					}
				}
			},
			"userdoc": {
				"kind": "user",
				"methods": {},
				"version": 1
			}
		}
	}
}