{
	"contracts/artifacts/enum.sol": {
		"HelloWorld": {
			"abi": [
				{
					"inputs": [
						{
							"internalType": "string",
							"name": "_name",
							"type": "string"
						}
					],
					"stateMutability": "nonpayable",
					"type": "constructor"
				},
				{
					"inputs": [],
					"name": "getName",
					"outputs": [
						{
							"internalType": "string",
							"name": "",
							"type": "string"
						}
					],
					"stateMutability": "view",
					"type": "function"
				},
				{
					"inputs": [
						{
							"internalType": "string",
							"name": "_name",
							"type": "string"
						}
					],
					"name": "setName",
					"outputs": [],
					"stateMutability": "nonpayable",
					"type": "function"
				}
			],
			"devdoc": {
				"kind": "dev",
				"methods": {},
				"version": 1
			},
			"evm": {
				"assembly": "    /* \"contracts/artifacts/enum.sol\":26:317  contract HelloWorld {... */\n  mstore(0x40, 0x80)\n    /* \"contracts/artifacts/enum.sol\":78:147  constructor(string memory _name) public {... */\n  callvalue\n  dup1\n  iszero\n  tag_1\n  jumpi\n  0x00\n  dup1\n  revert\ntag_1:\n  pop\n  mload(0x40)\n  sub(codesize, bytecodeSize)\n  dup1\n  bytecodeSize\n  dup4\n  codecopy\n  dup2\n  dup2\n  add\n  0x40\n  mstore\n  dup2\n  add\n  swap1\n  tag_2\n  swap2\n  swap1\n  tag_3\n  jump\t// in\ntag_2:\n    /* \"contracts/artifacts/enum.sol\":135:140  _name */\n  dup1\n    /* \"contracts/artifacts/enum.sol\":128:132  name */\n  0x00\n    /* \"contracts/artifacts/enum.sol\":128:140  name = _name */\n  swap1\n  dup2\n  tag_6\n  swap2\n  swap1\n  tag_7\n  jump\t// in\ntag_6:\n  pop\n    /* \"contracts/artifacts/enum.sol\":78:147  constructor(string memory _name) public {... */\n  pop\n    /* \"contracts/artifacts/enum.sol\":26:317  contract HelloWorld {... */\n  jump(tag_8)\n    /* \"#utility.yul\":7:82   */\ntag_9:\n    /* \"#utility.yul\":40:46   */\n  0x00\n    /* \"#utility.yul\":73:75   */\n  0x40\n    /* \"#utility.yul\":67:76   */\n  mload\n    /* \"#utility.yul\":57:76   */\n  swap1\n  pop\n    /* \"#utility.yul\":7:82   */\n  swap1\n  jump\t// out\n    /* \"#utility.yul\":88:205   */\ntag_10:\n    /* \"#utility.yul\":197:198   */\n  0x00\n    /* \"#utility.yul\":194:195   */\n  dup1\n    /* \"#utility.yul\":187:199   */\n  revert\n    /* \"#utility.yul\":211:328   */\ntag_11:\n    /* \"#utility.yul\":320:321   */\n  0x00\n    /* \"#utility.yul\":317:318   */\n  dup1\n    /* \"#utility.yul\":310:322   */\n  revert\n    /* \"#utility.yul\":334:451   */\ntag_12:\n    /* \"#utility.yul\":443:444   */\n  0x00\n    /* \"#utility.yul\":440:441   */\n  dup1\n    /* \"#utility.yul\":433:445   */\n  revert\n    /* \"#utility.yul\":457:574   */\ntag_13:\n    /* \"#utility.yul\":566:567   */\n  0x00\n    /* \"#utility.yul\":563:564   */\n  dup1\n    /* \"#utility.yul\":556:568   */\n  revert\n    /* \"#utility.yul\":580:682   */\ntag_14:\n    /* \"#utility.yul\":621:627   */\n  0x00\n    /* \"#utility.yul\":672:674   */\n  0x1f\n    /* \"#utility.yul\":668:675   */\n  not\n    /* \"#utility.yul\":663:665   */\n  0x1f\n    /* \"#utility.yul\":656:661   */\n  dup4\n    /* \"#utility.yul\":652:666   */\n  add\n    /* \"#utility.yul\":648:676   */\n  and\n    /* \"#utility.yul\":638:676   */\n  swap1\n  pop\n    /* \"#utility.yul\":580:682   */\n  swap2\n  swap1\n  pop\n  jump\t// out\n    /* \"#utility.yul\":688:868   */\ntag_15:\n    /* \"#utility.yul\":736:813   */\n  0x4e487b7100000000000000000000000000000000000000000000000000000000\n    /* \"#utility.yul\":733:734   */\n  0x00\n    /* \"#utility.yul\":726:814   */\n  mstore\n    /* \"#utility.yul\":833:837   */\n  0x41\n    /* \"#utility.yul\":830:831   */\n  0x04\n    /* \"#utility.yul\":823:838   */\n  mstore\n    /* \"#utility.yul\":857:861   */\n  0x24\n    /* \"#utility.yul\":854:855   */\n  0x00\n    /* \"#utility.yul\":847:862   */\n  revert\n    /* \"#utility.yul\":874:1155   */\ntag_16:\n    /* \"#utility.yul\":957:984   */\n  tag_50\n    /* \"#utility.yul\":979:983   */\n  dup3\n    /* \"#utility.yul\":957:984   */\n  tag_14\n  jump\t// in\ntag_50:\n    /* \"#utility.yul\":949:955   */\n  dup2\n    /* \"#utility.yul\":945:985   */\n  add\n    /* \"#utility.yul\":1087:1093   */\n  dup2\n    /* \"#utility.yul\":1075:1085   */\n  dup2\n    /* \"#utility.yul\":1072:1094   */\n  lt\n    /* \"#utility.yul\":1051:1069   */\n  0xffffffffffffffff\n    /* \"#utility.yul\":1039:1049   */\n  dup3\n    /* \"#utility.yul\":1036:1070   */\n  gt\n    /* \"#utility.yul\":1033:1095   */\n  or\n    /* \"#utility.yul\":1030:1118   */\n  iszero\n  tag_51\n  jumpi\n    /* \"#utility.yul\":1098:1116   */\n  tag_52\n  tag_15\n  jump\t// in\ntag_52:\n    /* \"#utility.yul\":1030:1118   */\ntag_51:\n    /* \"#utility.yul\":1138:1148   */\n  dup1\n    /* \"#utility.yul\":1134:1136   */\n  0x40\n    /* \"#utility.yul\":1127:1149   */\n  mstore\n    /* \"#utility.yul\":917:1155   */\n  pop\n    /* \"#utility.yul\":874:1155   */\n  pop\n  pop\n  jump\t// out\n    /* \"#utility.yul\":1161:1290   */\ntag_17:\n    /* \"#utility.yul\":1195:1201   */\n  0x00\n    /* \"#utility.yul\":1222:1242   */\n  tag_54\n  tag_9\n  jump\t// in\ntag_54:\n    /* \"#utility.yul\":1212:1242   */\n  swap1\n  pop\n    /* \"#utility.yul\":1251:1284   */\n  tag_55\n    /* \"#utility.yul\":1279:1283   */\n  dup3\n    /* \"#utility.yul\":1271:1277   */\n  dup3\n    /* \"#utility.yul\":1251:1284   */\n  tag_16\n  jump\t// in\ntag_55:\n    /* \"#utility.yul\":1161:1290   */\n  swap2\n  swap1\n  pop\n  jump\t// out\n    /* \"#utility.yul\":1296:1604   */\ntag_18:\n    /* \"#utility.yul\":1358:1362   */\n  0x00\n    /* \"#utility.yul\":1448:1466   */\n  0xffffffffffffffff\n    /* \"#utility.yul\":1440:1446   */\n  dup3\n    /* \"#utility.yul\":1437:1467   */\n  gt\n    /* \"#utility.yul\":1434:1490   */\n  iszero\n  tag_57\n  jumpi\n    /* \"#utility.yul\":1470:1488   */\n  tag_58\n  tag_15\n  jump\t// in\ntag_58:\n    /* \"#utility.yul\":1434:1490   */\ntag_57:\n    /* \"#utility.yul\":1508:1537   */\n  tag_59\n    /* \"#utility.yul\":1530:1536   */\n  dup3\n    /* \"#utility.yul\":1508:1537   */\n  tag_14\n  jump\t// in\ntag_59:\n    /* \"#utility.yul\":1500:1537   */\n  swap1\n  pop\n    /* \"#utility.yul\":1592:1596   */\n  0x20\n    /* \"#utility.yul\":1586:1590   */\n  dup2\n    /* \"#utility.yul\":1582:1597   */\n  add\n    /* \"#utility.yul\":1574:1597   */\n  swap1\n  pop\n    /* \"#utility.yul\":1296:1604   */\n  swap2\n  swap1\n  pop\n  jump\t// out\n    /* \"#utility.yul\":1610:1917   */\ntag_19:\n    /* \"#utility.yul\":1678:1679   */\n  0x00\n    /* \"#utility.yul\":1688:1801   */\ntag_61:\n    /* \"#utility.yul\":1702:1708   */\n  dup4\n    /* \"#utility.yul\":1699:1700   */\n  dup2\n    /* \"#utility.yul\":1696:1709   */\n  lt\n    /* \"#utility.yul\":1688:1801   */\n  iszero\n  tag_63\n  jumpi\n    /* \"#utility.yul\":1787:1788   */\n  dup1\n    /* \"#utility.yul\":1782:1785   */\n  dup3\n    /* \"#utility.yul\":1778:1789   */\n  add\n    /* \"#utility.yul\":1772:1790   */\n  mload\n    /* \"#utility.yul\":1768:1769   */\n  dup2\n    /* \"#utility.yul\":1763:1766   */\n  dup5\n    /* \"#utility.yul\":1759:1770   */\n  add\n    /* \"#utility.yul\":1752:1791   */\n  mstore\n    /* \"#utility.yul\":1724:1726   */\n  0x20\n    /* \"#utility.yul\":1721:1722   */\n  dup2\n    /* \"#utility.yul\":1717:1727   */\n  add\n    /* \"#utility.yul\":1712:1727   */\n  swap1\n  pop\n    /* \"#utility.yul\":1688:1801   */\n  jump(tag_61)\ntag_63:\n    /* \"#utility.yul\":1819:1825   */\n  dup4\n    /* \"#utility.yul\":1816:1817   */\n  dup2\n    /* \"#utility.yul\":1813:1826   */\n  gt\n    /* \"#utility.yul\":1810:1911   */\n  iszero\n  tag_64\n  jumpi\n    /* \"#utility.yul\":1899:1900   */\n  0x00\n    /* \"#utility.yul\":1890:1896   */\n  dup5\n    /* \"#utility.yul\":1885:1888   */\n  dup5\n    /* \"#utility.yul\":1881:1897   */\n  add\n    /* \"#utility.yul\":1874:1901   */\n  mstore\n    /* \"#utility.yul\":1810:1911   */\ntag_64:\n    /* \"#utility.yul\":1659:1917   */\n  pop\n    /* \"#utility.yul\":1610:1917   */\n  pop\n  pop\n  pop\n  jump\t// out\n    /* \"#utility.yul\":1923:2344   */\ntag_20:\n    /* \"#utility.yul\":2012:2017   */\n  0x00\n    /* \"#utility.yul\":2037:2103   */\n  tag_66\n    /* \"#utility.yul\":2053:2102   */\n  tag_67\n    /* \"#utility.yul\":2095:2101   */\n  dup5\n    /* \"#utility.yul\":2053:2102   */\n  tag_18\n  jump\t// in\ntag_67:\n    /* \"#utility.yul\":2037:2103   */\n  tag_17\n  jump\t// in\ntag_66:\n    /* \"#utility.yul\":2028:2103   */\n  swap1\n  pop\n    /* \"#utility.yul\":2126:2132   */\n  dup3\n    /* \"#utility.yul\":2119:2124   */\n  dup2\n    /* \"#utility.yul\":2112:2133   */\n  mstore\n    /* \"#utility.yul\":2164:2168   */\n  0x20\n    /* \"#utility.yul\":2157:2162   */\n  dup2\n    /* \"#utility.yul\":2153:2169   */\n  add\n    /* \"#utility.yul\":2202:2205   */\n  dup5\n    /* \"#utility.yul\":2193:2199   */\n  dup5\n    /* \"#utility.yul\":2188:2191   */\n  dup5\n    /* \"#utility.yul\":2184:2200   */\n  add\n    /* \"#utility.yul\":2181:2206   */\n  gt\n    /* \"#utility.yul\":2178:2290   */\n  iszero\n  tag_68\n  jumpi\n    /* \"#utility.yul\":2209:2288   */\n  tag_69\n  tag_13\n  jump\t// in\ntag_69:\n    /* \"#utility.yul\":2178:2290   */\ntag_68:\n    /* \"#utility.yul\":2299:2338   */\n  tag_70\n    /* \"#utility.yul\":2331:2337   */\n  dup5\n    /* \"#utility.yul\":2326:2329   */\n  dup3\n    /* \"#utility.yul\":2321:2324   */\n  dup6\n    /* \"#utility.yul\":2299:2338   */\n  tag_19\n  jump\t// in\ntag_70:\n    /* \"#utility.yul\":2018:2344   */\n  pop\n    /* \"#utility.yul\":1923:2344   */\n  swap4\n  swap3\n  pop\n  pop\n  pop\n  jump\t// out\n    /* \"#utility.yul\":2364:2719   */\ntag_21:\n    /* \"#utility.yul\":2431:2436   */\n  0x00\n    /* \"#utility.yul\":2480:2483   */\n  dup3\n    /* \"#utility.yul\":2473:2477   */\n  0x1f\n    /* \"#utility.yul\":2465:2471   */\n  dup4\n    /* \"#utility.yul\":2461:2478   */\n  add\n    /* \"#utility.yul\":2457:2484   */\n  slt\n    /* \"#utility.yul\":2447:2569   */\n  tag_72\n  jumpi\n    /* \"#utility.yul\":2488:2567   */\n  tag_73\n  tag_12\n  jump\t// in\ntag_73:\n    /* \"#utility.yul\":2447:2569   */\ntag_72:\n    /* \"#utility.yul\":2598:2604   */\n  dup2\n    /* \"#utility.yul\":2592:2605   */\n  mload\n    /* \"#utility.yul\":2623:2713   */\n  tag_74\n    /* \"#utility.yul\":2709:2712   */\n  dup5\n    /* \"#utility.yul\":2701:2707   */\n  dup3\n    /* \"#utility.yul\":2694:2698   */\n  0x20\n    /* \"#utility.yul\":2686:2692   */\n  dup7\n    /* \"#utility.yul\":2682:2699   */\n  add\n    /* \"#utility.yul\":2623:2713   */\n  tag_20\n  jump\t// in\ntag_74:\n    /* \"#utility.yul\":2614:2713   */\n  swap2\n  pop\n    /* \"#utility.yul\":2437:2719   */\n  pop\n    /* \"#utility.yul\":2364:2719   */\n  swap3\n  swap2\n  pop\n  pop\n  jump\t// out\n    /* \"#utility.yul\":2725:3249   */\ntag_3:\n    /* \"#utility.yul\":2805:2811   */\n  0x00\n    /* \"#utility.yul\":2854:2856   */\n  0x20\n    /* \"#utility.yul\":2842:2851   */\n  dup3\n    /* \"#utility.yul\":2833:2840   */\n  dup5\n    /* \"#utility.yul\":2829:2852   */\n  sub\n    /* \"#utility.yul\":2825:2857   */\n  slt\n    /* \"#utility.yul\":2822:2941   */\n  iszero\n  tag_76\n  jumpi\n    /* \"#utility.yul\":2860:2939   */\n  tag_77\n  tag_10\n  jump\t// in\ntag_77:\n    /* \"#utility.yul\":2822:2941   */\ntag_76:\n    /* \"#utility.yul\":3001:3002   */\n  0x00\n    /* \"#utility.yul\":2990:2999   */\n  dup3\n    /* \"#utility.yul\":2986:3003   */\n  add\n    /* \"#utility.yul\":2980:3004   */\n  mload\n    /* \"#utility.yul\":3031:3049   */\n  0xffffffffffffffff\n    /* \"#utility.yul\":3023:3029   */\n  dup2\n    /* \"#utility.yul\":3020:3050   */\n  gt\n    /* \"#utility.yul\":3017:3134   */\n  iszero\n  tag_78\n  jumpi\n    /* \"#utility.yul\":3053:3132   */\n  tag_79\n  tag_11\n  jump\t// in\ntag_79:\n    /* \"#utility.yul\":3017:3134   */\ntag_78:\n    /* \"#utility.yul\":3158:3232   */\n  tag_80\n    /* \"#utility.yul\":3224:3231   */\n  dup5\n    /* \"#utility.yul\":3215:3221   */\n  dup3\n    /* \"#utility.yul\":3204:3213   */\n  dup6\n    /* \"#utility.yul\":3200:3222   */\n  add\n    /* \"#utility.yul\":3158:3232   */\n  tag_21\n  jump\t// in\ntag_80:\n    /* \"#utility.yul\":3148:3232   */\n  swap2\n  pop\n    /* \"#utility.yul\":2951:3242   */\n  pop\n    /* \"#utility.yul\":2725:3249   */\n  swap3\n  swap2\n  pop\n  pop\n  jump\t// out\n    /* \"#utility.yul\":3255:3354   */\ntag_22:\n    /* \"#utility.yul\":3307:3313   */\n  0x00\n    /* \"#utility.yul\":3341:3346   */\n  dup2\n    /* \"#utility.yul\":3335:3347   */\n  mload\n    /* \"#utility.yul\":3325:3347   */\n  swap1\n  pop\n    /* \"#utility.yul\":3255:3354   */\n  swap2\n  swap1\n  pop\n  jump\t// out\n    /* \"#utility.yul\":3360:3540   */\ntag_23:\n    /* \"#utility.yul\":3408:3485   */\n  0x4e487b7100000000000000000000000000000000000000000000000000000000\n    /* \"#utility.yul\":3405:3406   */\n  0x00\n    /* \"#utility.yul\":3398:3486   */\n  mstore\n    /* \"#utility.yul\":3505:3509   */\n  0x22\n    /* \"#utility.yul\":3502:3503   */\n  0x04\n    /* \"#utility.yul\":3495:3510   */\n  mstore\n    /* \"#utility.yul\":3529:3533   */\n  0x24\n    /* \"#utility.yul\":3526:3527   */\n  0x00\n    /* \"#utility.yul\":3519:3534   */\n  revert\n    /* \"#utility.yul\":3546:3866   */\ntag_24:\n    /* \"#utility.yul\":3590:3596   */\n  0x00\n    /* \"#utility.yul\":3627:3628   */\n  0x02\n    /* \"#utility.yul\":3621:3625   */\n  dup3\n    /* \"#utility.yul\":3617:3629   */\n  div\n    /* \"#utility.yul\":3607:3629   */\n  swap1\n  pop\n    /* \"#utility.yul\":3674:3675   */\n  0x01\n    /* \"#utility.yul\":3668:3672   */\n  dup3\n    /* \"#utility.yul\":3664:3676   */\n  and\n    /* \"#utility.yul\":3695:3713   */\n  dup1\n    /* \"#utility.yul\":3685:3766   */\n  tag_84\n  jumpi\n    /* \"#utility.yul\":3751:3755   */\n  0x7f\n    /* \"#utility.yul\":3743:3749   */\n  dup3\n    /* \"#utility.yul\":3739:3756   */\n  and\n    /* \"#utility.yul\":3729:3756   */\n  swap2\n  pop\n    /* \"#utility.yul\":3685:3766   */\ntag_84:\n    /* \"#utility.yul\":3813:3815   */\n  0x20\n    /* \"#utility.yul\":3805:3811   */\n  dup3\n    /* \"#utility.yul\":3802:3816   */\n  lt\n    /* \"#utility.yul\":3782:3800   */\n  dup2\n    /* \"#utility.yul\":3779:3817   */\n  sub\n    /* \"#utility.yul\":3776:3860   */\n  tag_85\n  jumpi\n    /* \"#utility.yul\":3832:3850   */\n  tag_86\n  tag_23\n  jump\t// in\ntag_86:\n    /* \"#utility.yul\":3776:3860   */\ntag_85:\n    /* \"#utility.yul\":3597:3866   */\n  pop\n    /* \"#utility.yul\":3546:3866   */\n  swap2\n  swap1\n  pop\n  jump\t// out\n    /* \"#utility.yul\":3872:4013   */\ntag_25:\n    /* \"#utility.yul\":3921:3925   */\n  0x00\n    /* \"#utility.yul\":3944:3947   */\n  dup2\n    /* \"#utility.yul\":3936:3947   */\n  swap1\n  pop\n    /* \"#utility.yul\":3967:3970   */\n  dup2\n    /* \"#utility.yul\":3964:3965   */\n  0x00\n    /* \"#utility.yul\":3957:3971   */\n  mstore\n    /* \"#utility.yul\":4001:4005   */\n  0x20\n    /* \"#utility.yul\":3998:3999   */\n  0x00\n    /* \"#utility.yul\":3988:4006   */\n  keccak256\n    /* \"#utility.yul\":3980:4006   */\n  swap1\n  pop\n    /* \"#utility.yul\":3872:4013   */\n  swap2\n  swap1\n  pop\n  jump\t// out\n    /* \"#utility.yul\":4019:4112   */\ntag_26:\n    /* \"#utility.yul\":4056:4062   */\n  0x00\n    /* \"#utility.yul\":4103:4105   */\n  0x20\n    /* \"#utility.yul\":4098:4100   */\n  0x1f\n    /* \"#utility.yul\":4091:4096   */\n  dup4\n    /* \"#utility.yul\":4087:4101   */\n  add\n    /* \"#utility.yul\":4083:4106   */\n  div\n    /* \"#utility.yul\":4073:4106   */\n  swap1\n  pop\n    /* \"#utility.yul\":4019:4112   */\n  swap2\n  swap1\n  pop\n  jump\t// out\n    /* \"#utility.yul\":4118:4225   */\ntag_27:\n    /* \"#utility.yul\":4162:4170   */\n  0x00\n    /* \"#utility.yul\":4212:4217   */\n  dup3\n    /* \"#utility.yul\":4206:4210   */\n  dup3\n    /* \"#utility.yul\":4202:4218   */\n  shl\n    /* \"#utility.yul\":4181:4218   */\n  swap1\n  pop\n    /* \"#utility.yul\":4118:4225   */\n  swap3\n  swap2\n  pop\n  pop\n  jump\t// out\n    /* \"#utility.yul\":4231:4624   */\ntag_28:\n    /* \"#utility.yul\":4300:4306   */\n  0x00\n    /* \"#utility.yul\":4350:4351   */\n  0x08\n    /* \"#utility.yul\":4338:4348   */\n  dup4\n    /* \"#utility.yul\":4334:4352   */\n  mul\n    /* \"#utility.yul\":4373:4470   */\n  tag_91\n    /* \"#utility.yul\":4403:4469   */\n  0xffffffffffffffffffffffffffffffffffffffffffffffffffffffffffffffff\n    /* \"#utility.yul\":4392:4401   */\n  dup3\n    /* \"#utility.yul\":4373:4470   */\n  tag_27\n  jump\t// in\ntag_91:\n    /* \"#utility.yul\":4491:4530   */\n  tag_92\n    /* \"#utility.yul\":4521:4529   */\n  dup7\n    /* \"#utility.yul\":4510:4519   */\n  dup4\n    /* \"#utility.yul\":4491:4530   */\n  tag_27\n  jump\t// in\ntag_92:\n    /* \"#utility.yul\":4479:4530   */\n  swap6\n  pop\n    /* \"#utility.yul\":4563:4567   */\n  dup1\n    /* \"#utility.yul\":4559:4568   */\n  not\n    /* \"#utility.yul\":4552:4557   */\n  dup5\n    /* \"#utility.yul\":4548:4569   */\n  and\n    /* \"#utility.yul\":4539:4569   */\n  swap4\n  pop\n    /* \"#utility.yul\":4612:4616   */\n  dup1\n    /* \"#utility.yul\":4602:4610   */\n  dup7\n    /* \"#utility.yul\":4598:4617   */\n  and\n    /* \"#utility.yul\":4591:4596   */\n  dup5\n    /* \"#utility.yul\":4588:4618   */\n  or\n    /* \"#utility.yul\":4578:4618   */\n  swap3\n  pop\n    /* \"#utility.yul\":4307:4624   */\n  pop\n  pop\n    /* \"#utility.yul\":4231:4624   */\n  swap4\n  swap3\n  pop\n  pop\n  pop\n  jump\t// out\n    /* \"#utility.yul\":4630:4707   */\ntag_29:\n    /* \"#utility.yul\":4667:4674   */\n  0x00\n    /* \"#utility.yul\":4696:4701   */\n  dup2\n    /* \"#utility.yul\":4685:4701   */\n  swap1\n  pop\n    /* \"#utility.yul\":4630:4707   */\n  swap2\n  swap1\n  pop\n  jump\t// out\n    /* \"#utility.yul\":4713:4773   */\ntag_30:\n    /* \"#utility.yul\":4741:4744   */\n  0x00\n    /* \"#utility.yul\":4762:4767   */\n  dup2\n    /* \"#utility.yul\":4755:4767   */\n  swap1\n  pop\n    /* \"#utility.yul\":4713:4773   */\n  swap2\n  swap1\n  pop\n  jump\t// out\n    /* \"#utility.yul\":4779:4921   */\ntag_31:\n    /* \"#utility.yul\":4829:4838   */\n  0x00\n    /* \"#utility.yul\":4862:4915   */\n  tag_96\n    /* \"#utility.yul\":4880:4914   */\n  tag_97\n    /* \"#utility.yul\":4889:4913   */\n  tag_98\n    /* \"#utility.yul\":4907:4912   */\n  dup5\n    /* \"#utility.yul\":4889:4913   */\n  tag_29\n  jump\t// in\ntag_98:\n    /* \"#utility.yul\":4880:4914   */\n  tag_30\n  jump\t// in\ntag_97:\n    /* \"#utility.yul\":4862:4915   */\n  tag_29\n  jump\t// in\ntag_96:\n    /* \"#utility.yul\":4849:4915   */\n  swap1\n  pop\n    /* \"#utility.yul\":4779:4921   */\n  swap2\n  swap1\n  pop\n  jump\t// out\n    /* \"#utility.yul\":4927:5002   */\ntag_32:\n    /* \"#utility.yul\":4970:4973   */\n  0x00\n    /* \"#utility.yul\":4991:4996   */\n  dup2\n    /* \"#utility.yul\":4984:4996   */\n  swap1\n  pop\n    /* \"#utility.yul\":4927:5002   */\n  swap2\n  swap1\n  pop\n  jump\t// out\n    /* \"#utility.yul\":5008:5277   */\ntag_33:\n    /* \"#utility.yul\":5118:5157   */\n  tag_101\n    /* \"#utility.yul\":5149:5156   */\n  dup4\n    /* \"#utility.yul\":5118:5157   */\n  tag_31\n  jump\t// in\ntag_101:\n    /* \"#utility.yul\":5179:5270   */\n  tag_102\n    /* \"#utility.yul\":5228:5269   */\n  tag_103\n    /* \"#utility.yul\":5252:5268   */\n  dup3\n    /* \"#utility.yul\":5228:5269   */\n  tag_32\n  jump\t// in\ntag_103:\n    /* \"#utility.yul\":5220:5226   */\n  dup5\n    /* \"#utility.yul\":5213:5217   */\n  dup5\n    /* \"#utility.yul\":5207:5218   */\n  sload\n    /* \"#utility.yul\":5179:5270   */\n  tag_28\n  jump\t// in\ntag_102:\n    /* \"#utility.yul\":5173:5177   */\n  dup3\n    /* \"#utility.yul\":5166:5271   */\n  sstore\n    /* \"#utility.yul\":5084:5277   */\n  pop\n    /* \"#utility.yul\":5008:5277   */\n  pop\n  pop\n  pop\n  jump\t// out\n    /* \"#utility.yul\":5283:5356   */\ntag_34:\n    /* \"#utility.yul\":5328:5331   */\n  0x00\n    /* \"#utility.yul\":5283:5356   */\n  swap1\n  jump\t// out\n    /* \"#utility.yul\":5362:5551   */\ntag_35:\n    /* \"#utility.yul\":5439:5471   */\n  tag_106\n  tag_34\n  jump\t// in\ntag_106:\n    /* \"#utility.yul\":5480:5545   */\n  tag_107\n    /* \"#utility.yul\":5538:5544   */\n  dup2\n    /* \"#utility.yul\":5530:5536   */\n  dup5\n    /* \"#utility.yul\":5524:5528   */\n  dup5\n    /* \"#utility.yul\":5480:5545   */\n  tag_33\n  jump\t// in\ntag_107:\n    /* \"#utility.yul\":5415:5551   */\n  pop\n    /* \"#utility.yul\":5362:5551   */\n  pop\n  pop\n  jump\t// out\n    /* \"#utility.yul\":5557:5743   */\ntag_36:\n    /* \"#utility.yul\":5617:5737   */\ntag_109:\n    /* \"#utility.yul\":5634:5637   */\n  dup2\n    /* \"#utility.yul\":5627:5632   */\n  dup2\n    /* \"#utility.yul\":5624:5638   */\n  lt\n    /* \"#utility.yul\":5617:5737   */\n  iszero\n  tag_111\n  jumpi\n    /* \"#utility.yul\":5688:5727   */\n  tag_112\n    /* \"#utility.yul\":5725:5726   */\n  0x00\n    /* \"#utility.yul\":5718:5723   */\n  dup3\n    /* \"#utility.yul\":5688:5727   */\n  tag_35\n  jump\t// in\ntag_112:\n    /* \"#utility.yul\":5661:5662   */\n  0x01\n    /* \"#utility.yul\":5654:5659   */\n  dup2\n    /* \"#utility.yul\":5650:5663   */\n  add\n    /* \"#utility.yul\":5641:5663   */\n  swap1\n  pop\n    /* \"#utility.yul\":5617:5737   */\n  jump(tag_109)\ntag_111:\n    /* \"#utility.yul\":5557:5743   */\n  pop\n  pop\n  jump\t// out\n    /* \"#utility.yul\":5749:6292   */\ntag_37:\n    /* \"#utility.yul\":5850:5852   */\n  0x1f\n    /* \"#utility.yul\":5845:5848   */\n  dup3\n    /* \"#utility.yul\":5842:5853   */\n  gt\n    /* \"#utility.yul\":5839:6285   */\n  iszero\n  tag_114\n  jumpi\n    /* \"#utility.yul\":5884:5922   */\n  tag_115\n    /* \"#utility.yul\":5916:5921   */\n  dup2\n    /* \"#utility.yul\":5884:5922   */\n  tag_25\n  jump\t// in\ntag_115:\n    /* \"#utility.yul\":5968:5997   */\n  tag_116\n    /* \"#utility.yul\":5986:5996   */\n  dup5\n    /* \"#utility.yul\":5968:5997   */\n  tag_26\n  jump\t// in\ntag_116:\n    /* \"#utility.yul\":5958:5966   */\n  dup2\n    /* \"#utility.yul\":5954:5998   */\n  add\n    /* \"#utility.yul\":6151:6153   */\n  0x20\n    /* \"#utility.yul\":6139:6149   */\n  dup6\n    /* \"#utility.yul\":6136:6154   */\n  lt\n    /* \"#utility.yul\":6133:6182   */\n  iszero\n  tag_117\n  jumpi\n    /* \"#utility.yul\":6172:6180   */\n  dup2\n    /* \"#utility.yul\":6157:6180   */\n  swap1\n  pop\n    /* \"#utility.yul\":6133:6182   */\ntag_117:\n    /* \"#utility.yul\":6195:6275   */\n  tag_118\n    /* \"#utility.yul\":6251:6273   */\n  tag_119\n    /* \"#utility.yul\":6269:6272   */\n  dup6\n    /* \"#utility.yul\":6251:6273   */\n  tag_26\n  jump\t// in\ntag_119:\n    /* \"#utility.yul\":6241:6249   */\n  dup4\n    /* \"#utility.yul\":6237:6274   */\n  add\n    /* \"#utility.yul\":6224:6235   */\n  dup3\n    /* \"#utility.yul\":6195:6275   */\n  tag_36\n  jump\t// in\ntag_118:\n    /* \"#utility.yul\":5854:6285   */\n  pop\n  pop\n    /* \"#utility.yul\":5839:6285   */\ntag_114:\n    /* \"#utility.yul\":5749:6292   */\n  pop\n  pop\n  pop\n  jump\t// out\n    /* \"#utility.yul\":6298:6415   */\ntag_38:\n    /* \"#utility.yul\":6352:6360   */\n  0x00\n    /* \"#utility.yul\":6402:6407   */\n  dup3\n    /* \"#utility.yul\":6396:6400   */\n  dup3\n    /* \"#utility.yul\":6392:6408   */\n  shr\n    /* \"#utility.yul\":6371:6408   */\n  swap1\n  pop\n    /* \"#utility.yul\":6298:6415   */\n  swap3\n  swap2\n  pop\n  pop\n  jump\t// out\n    /* \"#utility.yul\":6421:6590   */\ntag_39:\n    /* \"#utility.yul\":6465:6471   */\n  0x00\n    /* \"#utility.yul\":6498:6549   */\n  tag_122\n    /* \"#utility.yul\":6546:6547   */\n  0x00\n    /* \"#utility.yul\":6542:6548   */\n  not\n    /* \"#utility.yul\":6534:6539   */\n  dup5\n    /* \"#utility.yul\":6531:6532   */\n  0x08\n    /* \"#utility.yul\":6527:6540   */\n  mul\n    /* \"#utility.yul\":6498:6549   */\n  tag_38\n  jump\t// in\ntag_122:\n    /* \"#utility.yul\":6494:6550   */\n  not\n    /* \"#utility.yul\":6579:6583   */\n  dup1\n    /* \"#utility.yul\":6573:6577   */\n  dup4\n    /* \"#utility.yul\":6569:6584   */\n  and\n    /* \"#utility.yul\":6559:6584   */\n  swap2\n  pop\n    /* \"#utility.yul\":6472:6590   */\n  pop\n    /* \"#utility.yul\":6421:6590   */\n  swap3\n  swap2\n  pop\n  pop\n  jump\t// out\n    /* \"#utility.yul\":6595:6890   */\ntag_40:\n    /* \"#utility.yul\":6671:6675   */\n  0x00\n    /* \"#utility.yul\":6817:6846   */\n  tag_124\n    /* \"#utility.yul\":6842:6845   */\n  dup4\n    /* \"#utility.yul\":6836:6840   */\n  dup4\n    /* \"#utility.yul\":6817:6846   */\n  tag_39\n  jump\t// in\ntag_124:\n    /* \"#utility.yul\":6809:6846   */\n  swap2\n  pop\n    /* \"#utility.yul\":6879:6882   */\n  dup3\n    /* \"#utility.yul\":6876:6877   */\n  0x02\n    /* \"#utility.yul\":6872:6883   */\n  mul\n    /* \"#utility.yul\":6866:6870   */\n  dup3\n    /* \"#utility.yul\":6863:6884   */\n  or\n    /* \"#utility.yul\":6855:6884   */\n  swap1\n  pop\n    /* \"#utility.yul\":6595:6890   */\n  swap3\n  swap2\n  pop\n  pop\n  jump\t// out\n    /* \"#utility.yul\":6895:8290   */\ntag_7:\n    /* \"#utility.yul\":7012:7049   */\n  tag_126\n    /* \"#utility.yul\":7045:7048   */\n  dup3\n    /* \"#utility.yul\":7012:7049   */\n  tag_22\n  jump\t// in\ntag_126:\n    /* \"#utility.yul\":7114:7132   */\n  0xffffffffffffffff\n    /* \"#utility.yul\":7106:7112   */\n  dup2\n    /* \"#utility.yul\":7103:7133   */\n  gt\n    /* \"#utility.yul\":7100:7156   */\n  iszero\n  tag_127\n  jumpi\n    /* \"#utility.yul\":7136:7154   */\n  tag_128\n  tag_15\n  jump\t// in\ntag_128:\n    /* \"#utility.yul\":7100:7156   */\ntag_127:\n    /* \"#utility.yul\":7180:7218   */\n  tag_129\n    /* \"#utility.yul\":7212:7216   */\n  dup3\n    /* \"#utility.yul\":7206:7217   */\n  sload\n    /* \"#utility.yul\":7180:7218   */\n  tag_24\n  jump\t// in\ntag_129:\n    /* \"#utility.yul\":7265:7332   */\n  tag_130\n    /* \"#utility.yul\":7325:7331   */\n  dup3\n    /* \"#utility.yul\":7317:7323   */\n  dup3\n    /* \"#utility.yul\":7311:7315   */\n  dup6\n    /* \"#utility.yul\":7265:7332   */\n  tag_37\n  jump\t// in\ntag_130:\n    /* \"#utility.yul\":7359:7360   */\n  0x00\n    /* \"#utility.yul\":7383:7387   */\n  0x20\n    /* \"#utility.yul\":7370:7387   */\n  swap1\n  pop\n    /* \"#utility.yul\":7415:7417   */\n  0x1f\n    /* \"#utility.yul\":7407:7413   */\n  dup4\n    /* \"#utility.yul\":7404:7418   */\n  gt\n    /* \"#utility.yul\":7432:7433   */\n  0x01\n    /* \"#utility.yul\":7427:8045   */\n  dup2\n  eq\n  tag_132\n  jumpi\n    /* \"#utility.yul\":8089:8090   */\n  0x00\n    /* \"#utility.yul\":8106:8112   */\n  dup5\n    /* \"#utility.yul\":8103:8180   */\n  iszero\n  tag_133\n  jumpi\n    /* \"#utility.yul\":8155:8164   */\n  dup3\n    /* \"#utility.yul\":8150:8153   */\n  dup8\n    /* \"#utility.yul\":8146:8165   */\n  add\n    /* \"#utility.yul\":8140:8166   */\n  mload\n    /* \"#utility.yul\":8131:8166   */\n  swap1\n  pop\n    /* \"#utility.yul\":8103:8180   */\ntag_133:\n    /* \"#utility.yul\":8206:8273   */\n  tag_134\n    /* \"#utility.yul\":8266:8272   */\n  dup6\n    /* \"#utility.yul\":8259:8264   */\n  dup3\n    /* \"#utility.yul\":8206:8273   */\n  tag_40\n  jump\t// in\ntag_134:\n    /* \"#utility.yul\":8200:8204   */\n  dup7\n    /* \"#utility.yul\":8193:8274   */\n  sstore\n    /* \"#utility.yul\":8062:8284   */\n  pop\n    /* \"#utility.yul\":7397:8284   */\n  jump(tag_131)\n    /* \"#utility.yul\":7427:8045   */\ntag_132:\n    /* \"#utility.yul\":7479:7483   */\n  0x1f\n    /* \"#utility.yul\":7475:7484   */\n  not\n    /* \"#utility.yul\":7467:7473   */\n  dup5\n    /* \"#utility.yul\":7463:7485   */\n  and\n    /* \"#utility.yul\":7513:7550   */\n  tag_135\n    /* \"#utility.yul\":7545:7549   */\n  dup7\n    /* \"#utility.yul\":7513:7550   */\n  tag_25\n  jump\t// in\ntag_135:\n    /* \"#utility.yul\":7572:7573   */\n  0x00\n    /* \"#utility.yul\":7586:7794   */\ntag_136:\n    /* \"#utility.yul\":7600:7607   */\n  dup3\n    /* \"#utility.yul\":7597:7598   */\n  dup2\n    /* \"#utility.yul\":7594:7608   */\n  lt\n    /* \"#utility.yul\":7586:7794   */\n  iszero\n  tag_138\n  jumpi\n    /* \"#utility.yul\":7679:7688   */\n  dup5\n    /* \"#utility.yul\":7674:7677   */\n  dup10\n    /* \"#utility.yul\":7670:7689   */\n  add\n    /* \"#utility.yul\":7664:7690   */\n  mload\n    /* \"#utility.yul\":7656:7662   */\n  dup3\n    /* \"#utility.yul\":7649:7691   */\n  sstore\n    /* \"#utility.yul\":7730:7731   */\n  0x01\n    /* \"#utility.yul\":7722:7728   */\n  dup3\n    /* \"#utility.yul\":7718:7732   */\n  add\n    /* \"#utility.yul\":7708:7732   */\n  swap2\n  pop\n    /* \"#utility.yul\":7777:7779   */\n  0x20\n    /* \"#utility.yul\":7766:7775   */\n  dup6\n    /* \"#utility.yul\":7762:7780   */\n  add\n    /* \"#utility.yul\":7749:7780   */\n  swap5\n  pop\n    /* \"#utility.yul\":7623:7627   */\n  0x20\n    /* \"#utility.yul\":7620:7621   */\n  dup2\n    /* \"#utility.yul\":7616:7628   */\n  add\n    /* \"#utility.yul\":7611:7628   */\n  swap1\n  pop\n    /* \"#utility.yul\":7586:7794   */\n  jump(tag_136)\ntag_138:\n    /* \"#utility.yul\":7822:7828   */\n  dup7\n    /* \"#utility.yul\":7813:7820   */\n  dup4\n    /* \"#utility.yul\":7810:7829   */\n  lt\n    /* \"#utility.yul\":7807:7986   */\n  iszero\n  tag_139\n  jumpi\n    /* \"#utility.yul\":7880:7889   */\n  dup5\n    /* \"#utility.yul\":7875:7878   */\n  dup10\n    /* \"#utility.yul\":7871:7890   */\n  add\n    /* \"#utility.yul\":7865:7891   */\n  mload\n    /* \"#utility.yul\":7923:7971   */\n  tag_140\n    /* \"#utility.yul\":7965:7969   */\n  0x1f\n    /* \"#utility.yul\":7957:7963   */\n  dup10\n    /* \"#utility.yul\":7953:7970   */\n  and\n    /* \"#utility.yul\":7942:7951   */\n  dup3\n    /* \"#utility.yul\":7923:7971   */\n  tag_39\n  jump\t// in\ntag_140:\n    /* \"#utility.yul\":7915:7921   */\n  dup4\n    /* \"#utility.yul\":7908:7972   */\n  sstore\n    /* \"#utility.yul\":7830:7986   */\n  pop\n    /* \"#utility.yul\":7807:7986   */\ntag_139:\n    /* \"#utility.yul\":8032:8033   */\n  0x01\n    /* \"#utility.yul\":8028:8029   */\n  0x02\n    /* \"#utility.yul\":8020:8026   */\n  dup9\n    /* \"#utility.yul\":8016:8030   */\n  mul\n    /* \"#utility.yul\":8012:8034   */\n  add\n    /* \"#utility.yul\":8006:8010   */\n  dup9\n    /* \"#utility.yul\":7999:8035   */\n  sstore\n    /* \"#utility.yul\":7434:8045   */\n  pop\n  pop\n  pop\n    /* \"#utility.yul\":7397:8284   */\ntag_131:\n  pop\n    /* \"#utility.yul\":6987:8290   */\n  pop\n  pop\n  pop\n    /* \"#utility.yul\":6895:8290   */\n  pop\n  pop\n  jump\t// out\n    /* \"contracts/artifacts/enum.sol\":26:317  contract HelloWorld {... */\ntag_8:\n  dataSize(sub_0)\n  dup1\n  dataOffset(sub_0)\n  0x00\n  codecopy\n  0x00\n  return\nstop\n\nsub_0: assembly {\n        /* \"contracts/artifacts/enum.sol\":26:317  contract HelloWorld {... */\n      mstore(0x40, 0x80)\n      callvalue\n      dup1\n      iszero\n      tag_1\n      jumpi\n      0x00\n      dup1\n      revert\n    tag_1:\n      pop\n      jumpi(tag_2, lt(calldatasize, 0x04))\n      shr(0xe0, calldataload(0x00))\n      dup1\n      0x17d7de7c\n      eq\n      tag_3\n      jumpi\n      dup1\n      0xc47f0027\n      eq\n      tag_4\n      jumpi\n    tag_2:\n      0x00\n      dup1\n      revert\n        /* \"contracts/artifacts/enum.sol\":153:235  function getName() public view returns(string memory) {... */\n    tag_3:\n      tag_5\n      tag_6\n      jump\t// in\n    tag_5:\n      mload(0x40)\n      tag_7\n      swap2\n      swap1\n      tag_8\n      jump\t// in\n    tag_7:\n      mload(0x40)\n      dup1\n      swap2\n      sub\n      swap1\n      return\n        /* \"contracts/artifacts/enum.sol\":241:315  function setName(string memory _name) public {... */\n    tag_4:\n      tag_9\n      0x04\n      dup1\n      calldatasize\n      sub\n      dup2\n      add\n      swap1\n      tag_10\n      swap2\n      swap1\n      tag_11\n      jump\t// in\n    tag_10:\n      tag_12\n      jump\t// in\n    tag_9:\n      stop\n        /* \"contracts/artifacts/enum.sol\":153:235  function getName() public view returns(string memory) {... */\n    tag_6:\n        /* \"contracts/artifacts/enum.sol\":192:205  string memory */\n      0x60\n        /* \"contracts/artifacts/enum.sol\":224:228  name */\n      0x00\n        /* \"contracts/artifacts/enum.sol\":217:228  return name */\n      dup1\n      sload\n      tag_14\n      swap1\n      tag_15\n      jump\t// in\n    tag_14:\n      dup1\n      0x1f\n      add\n      0x20\n      dup1\n      swap2\n      div\n      mul\n      0x20\n      add\n      mload(0x40)\n      swap1\n      dup2\n      add\n      0x40\n      mstore\n      dup1\n      swap3\n      swap2\n      swap1\n      dup2\n      dup2\n      mstore\n      0x20\n      add\n      dup3\n      dup1\n      sload\n      tag_16\n      swap1\n      tag_15\n      jump\t// in\n    tag_16:\n      dup1\n      iszero\n      tag_17\n      jumpi\n      dup1\n      0x1f\n      lt\n      tag_18\n      jumpi\n      0x0100\n      dup1\n      dup4\n      sload\n      div\n      mul\n      dup4\n      mstore\n      swap2\n      0x20\n      add\n      swap2\n      jump(tag_17)\n    tag_18:\n      dup3\n      add\n      swap2\n      swap1\n      0x00\n      mstore\n      keccak256(0x00, 0x20)\n      swap1\n    tag_19:\n      dup2\n      sload\n      dup2\n      mstore\n      swap1\n      0x01\n      add\n      swap1\n      0x20\n      add\n      dup1\n      dup4\n      gt\n      tag_19\n      jumpi\n      dup3\n      swap1\n      sub\n      0x1f\n      and\n      dup3\n      add\n      swap2\n    tag_17:\n      pop\n      pop\n      pop\n      pop\n      pop\n      swap1\n      pop\n        /* \"contracts/artifacts/enum.sol\":153:235  function getName() public view returns(string memory) {... */\n      swap1\n      jump\t// out\n        /* \"contracts/artifacts/enum.sol\":241:315  function setName(string memory _name) public {... */\n    tag_12:\n        /* \"contracts/artifacts/enum.sol\":303:308  _name */\n      dup1\n        /* \"contracts/artifacts/enum.sol\":296:300  name */\n      0x00\n        /* \"contracts/artifacts/enum.sol\":296:308  name = _name */\n      swap1\n      dup2\n      tag_21\n      swap2\n      swap1\n      tag_22\n      jump\t// in\n    tag_21:\n      pop\n        /* \"contracts/artifacts/enum.sol\":241:315  function setName(string memory _name) public {... */\n      pop\n      jump\t// out\n        /* \"#utility.yul\":7:106   */\n    tag_23:\n        /* \"#utility.yul\":59:65   */\n      0x00\n        /* \"#utility.yul\":93:98   */\n      dup2\n        /* \"#utility.yul\":87:99   */\n      mload\n        /* \"#utility.yul\":77:99   */\n      swap1\n      pop\n        /* \"#utility.yul\":7:106   */\n      swap2\n      swap1\n      pop\n      jump\t// out\n        /* \"#utility.yul\":112:281   */\n    tag_24:\n        /* \"#utility.yul\":196:207   */\n      0x00\n        /* \"#utility.yul\":230:236   */\n      dup3\n        /* \"#utility.yul\":225:228   */\n      dup3\n        /* \"#utility.yul\":218:237   */\n      mstore\n        /* \"#utility.yul\":270:274   */\n      0x20\n        /* \"#utility.yul\":265:268   */\n      dup3\n        /* \"#utility.yul\":261:275   */\n      add\n        /* \"#utility.yul\":246:275   */\n      swap1\n      pop\n        /* \"#utility.yul\":112:281   */\n      swap3\n      swap2\n      pop\n      pop\n      jump\t// out\n        /* \"#utility.yul\":287:594   */\n    tag_25:\n        /* \"#utility.yul\":355:356   */\n      0x00\n        /* \"#utility.yul\":365:478   */\n    tag_61:\n        /* \"#utility.yul\":379:385   */\n      dup4\n        /* \"#utility.yul\":376:377   */\n      dup2\n        /* \"#utility.yul\":373:386   */\n      lt\n        /* \"#utility.yul\":365:478   */\n      iszero\n      tag_63\n      jumpi\n        /* \"#utility.yul\":464:465   */\n      dup1\n        /* \"#utility.yul\":459:462   */\n      dup3\n        /* \"#utility.yul\":455:466   */\n      add\n        /* \"#utility.yul\":449:467   */\n      mload\n        /* \"#utility.yul\":445:446   */\n      dup2\n        /* \"#utility.yul\":440:443   */\n      dup5\n        /* \"#utility.yul\":436:447   */\n      add\n        /* \"#utility.yul\":429:468   */\n      mstore\n        /* \"#utility.yul\":401:403   */\n      0x20\n        /* \"#utility.yul\":398:399   */\n      dup2\n        /* \"#utility.yul\":394:404   */\n      add\n        /* \"#utility.yul\":389:404   */\n      swap1\n      pop\n        /* \"#utility.yul\":365:478   */\n      jump(tag_61)\n    tag_63:\n        /* \"#utility.yul\":496:502   */\n      dup4\n        /* \"#utility.yul\":493:494   */\n      dup2\n        /* \"#utility.yul\":490:503   */\n      gt\n        /* \"#utility.yul\":487:588   */\n      iszero\n      tag_64\n      jumpi\n        /* \"#utility.yul\":576:577   */\n      0x00\n        /* \"#utility.yul\":567:573   */\n      dup5\n        /* \"#utility.yul\":562:565   */\n      dup5\n        /* \"#utility.yul\":558:574   */\n      add\n        /* \"#utility.yul\":551:578   */\n      mstore\n        /* \"#utility.yul\":487:588   */\n    tag_64:\n        /* \"#utility.yul\":336:594   */\n      pop\n        /* \"#utility.yul\":287:594   */\n      pop\n      pop\n      pop\n      jump\t// out\n        /* \"#utility.yul\":600:702   */\n    tag_26:\n        /* \"#utility.yul\":641:647   */\n      0x00\n        /* \"#utility.yul\":692:694   */\n      0x1f\n        /* \"#utility.yul\":688:695   */\n      not\n        /* \"#utility.yul\":683:685   */\n      0x1f\n        /* \"#utility.yul\":676:681   */\n      dup4\n        /* \"#utility.yul\":672:686   */\n      add\n        /* \"#utility.yul\":668:696   */\n      and\n        /* \"#utility.yul\":658:696   */\n      swap1\n      pop\n        /* \"#utility.yul\":600:702   */\n      swap2\n      swap1\n      pop\n      jump\t// out\n        /* \"#utility.yul\":708:1072   */\n    tag_27:\n        /* \"#utility.yul\":796:799   */\n      0x00\n        /* \"#utility.yul\":824:863   */\n      tag_67\n        /* \"#utility.yul\":857:862   */\n      dup3\n        /* \"#utility.yul\":824:863   */\n      tag_23\n      jump\t// in\n    tag_67:\n        /* \"#utility.yul\":879:950   */\n      tag_68\n        /* \"#utility.yul\":943:949   */\n      dup2\n        /* \"#utility.yul\":938:941   */\n      dup6\n        /* \"#utility.yul\":879:950   */\n      tag_24\n      jump\t// in\n    tag_68:\n        /* \"#utility.yul\":872:950   */\n      swap4\n      pop\n        /* \"#utility.yul\":959:1011   */\n      tag_69\n        /* \"#utility.yul\":1004:1010   */\n      dup2\n        /* \"#utility.yul\":999:1002   */\n      dup6\n        /* \"#utility.yul\":992:996   */\n      0x20\n        /* \"#utility.yul\":985:990   */\n      dup7\n        /* \"#utility.yul\":981:997   */\n      add\n        /* \"#utility.yul\":959:1011   */\n      tag_25\n      jump\t// in\n    tag_69:\n        /* \"#utility.yul\":1036:1065   */\n      tag_70\n        /* \"#utility.yul\":1058:1064   */\n      dup2\n        /* \"#utility.yul\":1036:1065   */\n      tag_26\n      jump\t// in\n    tag_70:\n        /* \"#utility.yul\":1031:1034   */\n      dup5\n        /* \"#utility.yul\":1027:1066   */\n      add\n        /* \"#utility.yul\":1020:1066   */\n      swap2\n      pop\n        /* \"#utility.yul\":800:1072   */\n      pop\n        /* \"#utility.yul\":708:1072   */\n      swap3\n      swap2\n      pop\n      pop\n      jump\t// out\n        /* \"#utility.yul\":1078:1391   */\n    tag_8:\n        /* \"#utility.yul\":1191:1195   */\n      0x00\n        /* \"#utility.yul\":1229:1231   */\n      0x20\n        /* \"#utility.yul\":1218:1227   */\n      dup3\n        /* \"#utility.yul\":1214:1232   */\n      add\n        /* \"#utility.yul\":1206:1232   */\n      swap1\n      pop\n        /* \"#utility.yul\":1278:1287   */\n      dup2\n        /* \"#utility.yul\":1272:1276   */\n      dup2\n        /* \"#utility.yul\":1268:1288   */\n      sub\n        /* \"#utility.yul\":1264:1265   */\n      0x00\n        /* \"#utility.yul\":1253:1262   */\n      dup4\n        /* \"#utility.yul\":1249:1266   */\n      add\n        /* \"#utility.yul\":1242:1289   */\n      mstore\n        /* \"#utility.yul\":1306:1384   */\n      tag_72\n        /* \"#utility.yul\":1379:1383   */\n      dup2\n        /* \"#utility.yul\":1370:1376   */\n      dup5\n        /* \"#utility.yul\":1306:1384   */\n      tag_27\n      jump\t// in\n    tag_72:\n        /* \"#utility.yul\":1298:1384   */\n      swap1\n      pop\n        /* \"#utility.yul\":1078:1391   */\n      swap3\n      swap2\n      pop\n      pop\n      jump\t// out\n        /* \"#utility.yul\":1397:1472   */\n    tag_28:\n        /* \"#utility.yul\":1430:1436   */\n      0x00\n        /* \"#utility.yul\":1463:1465   */\n      0x40\n        /* \"#utility.yul\":1457:1466   */\n      mload\n        /* \"#utility.yul\":1447:1466   */\n      swap1\n      pop\n        /* \"#utility.yul\":1397:1472   */\n      swap1\n      jump\t// out\n        /* \"#utility.yul\":1478:1595   */\n    tag_29:\n        /* \"#utility.yul\":1587:1588   */\n      0x00\n        /* \"#utility.yul\":1584:1585   */\n      dup1\n        /* \"#utility.yul\":1577:1589   */\n      revert\n        /* \"#utility.yul\":1601:1718   */\n    tag_30:\n        /* \"#utility.yul\":1710:1711   */\n      0x00\n        /* \"#utility.yul\":1707:1708   */\n      dup1\n        /* \"#utility.yul\":1700:1712   */\n      revert\n        /* \"#utility.yul\":1724:1841   */\n    tag_31:\n        /* \"#utility.yul\":1833:1834   */\n      0x00\n        /* \"#utility.yul\":1830:1831   */\n      dup1\n        /* \"#utility.yul\":1823:1835   */\n      revert\n        /* \"#utility.yul\":1847:1964   */\n    tag_32:\n        /* \"#utility.yul\":1956:1957   */\n      0x00\n        /* \"#utility.yul\":1953:1954   */\n      dup1\n        /* \"#utility.yul\":1946:1958   */\n      revert\n        /* \"#utility.yul\":1970:2150   */\n    tag_33:\n        /* \"#utility.yul\":2018:2095   */\n      0x4e487b7100000000000000000000000000000000000000000000000000000000\n        /* \"#utility.yul\":2015:2016   */\n      0x00\n        /* \"#utility.yul\":2008:2096   */\n      mstore\n        /* \"#utility.yul\":2115:2119   */\n      0x41\n        /* \"#utility.yul\":2112:2113   */\n      0x04\n        /* \"#utility.yul\":2105:2120   */\n      mstore\n        /* \"#utility.yul\":2139:2143   */\n      0x24\n        /* \"#utility.yul\":2136:2137   */\n      0x00\n        /* \"#utility.yul\":2129:2144   */\n      revert\n        /* \"#utility.yul\":2156:2437   */\n    tag_34:\n        /* \"#utility.yul\":2239:2266   */\n      tag_80\n        /* \"#utility.yul\":2261:2265   */\n      dup3\n        /* \"#utility.yul\":2239:2266   */\n      tag_26\n      jump\t// in\n    tag_80:\n        /* \"#utility.yul\":2231:2237   */\n      dup2\n        /* \"#utility.yul\":2227:2267   */\n      add\n        /* \"#utility.yul\":2369:2375   */\n      dup2\n        /* \"#utility.yul\":2357:2367   */\n      dup2\n        /* \"#utility.yul\":2354:2376   */\n      lt\n        /* \"#utility.yul\":2333:2351   */\n      0xffffffffffffffff\n        /* \"#utility.yul\":2321:2331   */\n      dup3\n        /* \"#utility.yul\":2318:2352   */\n      gt\n        /* \"#utility.yul\":2315:2377   */\n      or\n        /* \"#utility.yul\":2312:2400   */\n      iszero\n      tag_81\n      jumpi\n        /* \"#utility.yul\":2380:2398   */\n      tag_82\n      tag_33\n      jump\t// in\n    tag_82:\n        /* \"#utility.yul\":2312:2400   */\n    tag_81:\n        /* \"#utility.yul\":2420:2430   */\n      dup1\n        /* \"#utility.yul\":2416:2418   */\n      0x40\n        /* \"#utility.yul\":2409:2431   */\n      mstore\n        /* \"#utility.yul\":2199:2437   */\n      pop\n        /* \"#utility.yul\":2156:2437   */\n      pop\n      pop\n      jump\t// out\n        /* \"#utility.yul\":2443:2572   */\n    tag_35:\n        /* \"#utility.yul\":2477:2483   */\n      0x00\n        /* \"#utility.yul\":2504:2524   */\n      tag_84\n      tag_28\n      jump\t// in\n    tag_84:\n        /* \"#utility.yul\":2494:2524   */\n      swap1\n      pop\n        /* \"#utility.yul\":2533:2566   */\n      tag_85\n        /* \"#utility.yul\":2561:2565   */\n      dup3\n        /* \"#utility.yul\":2553:2559   */\n      dup3\n        /* \"#utility.yul\":2533:2566   */\n      tag_34\n      jump\t// in\n    tag_85:\n        /* \"#utility.yul\":2443:2572   */\n      swap2\n      swap1\n      pop\n      jump\t// out\n        /* \"#utility.yul\":2578:2886   */\n    tag_36:\n        /* \"#utility.yul\":2640:2644   */\n      0x00\n        /* \"#utility.yul\":2730:2748   */\n      0xffffffffffffffff\n        /* \"#utility.yul\":2722:2728   */\n      dup3\n        /* \"#utility.yul\":2719:2749   */\n      gt\n        /* \"#utility.yul\":2716:2772   */\n      iszero\n      tag_87\n      jumpi\n        /* \"#utility.yul\":2752:2770   */\n      tag_88\n      tag_33\n      jump\t// in\n    tag_88:\n        /* \"#utility.yul\":2716:2772   */\n    tag_87:\n        /* \"#utility.yul\":2790:2819   */\n      tag_89\n        /* \"#utility.yul\":2812:2818   */\n      dup3\n        /* \"#utility.yul\":2790:2819   */\n      tag_26\n      jump\t// in\n    tag_89:\n        /* \"#utility.yul\":2782:2819   */\n      swap1\n      pop\n        /* \"#utility.yul\":2874:2878   */\n      0x20\n        /* \"#utility.yul\":2868:2872   */\n      dup2\n        /* \"#utility.yul\":2864:2879   */\n      add\n        /* \"#utility.yul\":2856:2879   */\n      swap1\n      pop\n        /* \"#utility.yul\":2578:2886   */\n      swap2\n      swap1\n      pop\n      jump\t// out\n        /* \"#utility.yul\":2892:3046   */\n    tag_37:\n        /* \"#utility.yul\":2976:2982   */\n      dup3\n        /* \"#utility.yul\":2971:2974   */\n      dup2\n        /* \"#utility.yul\":2966:2969   */\n      dup4\n        /* \"#utility.yul\":2953:2983   */\n      calldatacopy\n        /* \"#utility.yul\":3038:3039   */\n      0x00\n        /* \"#utility.yul\":3029:3035   */\n      dup4\n        /* \"#utility.yul\":3024:3027   */\n      dup4\n        /* \"#utility.yul\":3020:3036   */\n      add\n        /* \"#utility.yul\":3013:3040   */\n      mstore\n        /* \"#utility.yul\":2892:3046   */\n      pop\n      pop\n      pop\n      jump\t// out\n        /* \"#utility.yul\":3052:3464   */\n    tag_38:\n        /* \"#utility.yul\":3130:3135   */\n      0x00\n        /* \"#utility.yul\":3155:3221   */\n      tag_92\n        /* \"#utility.yul\":3171:3220   */\n      tag_93\n        /* \"#utility.yul\":3213:3219   */\n      dup5\n        /* \"#utility.yul\":3171:3220   */\n      tag_36\n      jump\t// in\n    tag_93:\n        /* \"#utility.yul\":3155:3221   */\n      tag_35\n      jump\t// in\n    tag_92:\n        /* \"#utility.yul\":3146:3221   */\n      swap1\n      pop\n        /* \"#utility.yul\":3244:3250   */\n      dup3\n        /* \"#utility.yul\":3237:3242   */\n      dup2\n        /* \"#utility.yul\":3230:3251   */\n      mstore\n        /* \"#utility.yul\":3282:3286   */\n      0x20\n        /* \"#utility.yul\":3275:3280   */\n      dup2\n        /* \"#utility.yul\":3271:3287   */\n      add\n        /* \"#utility.yul\":3320:3323   */\n      dup5\n        /* \"#utility.yul\":3311:3317   */\n      dup5\n        /* \"#utility.yul\":3306:3309   */\n      dup5\n        /* \"#utility.yul\":3302:3318   */\n      add\n        /* \"#utility.yul\":3299:3324   */\n      gt\n        /* \"#utility.yul\":3296:3408   */\n      iszero\n      tag_94\n      jumpi\n        /* \"#utility.yul\":3327:3406   */\n      tag_95\n      tag_32\n      jump\t// in\n    tag_95:\n        /* \"#utility.yul\":3296:3408   */\n    tag_94:\n        /* \"#utility.yul\":3417:3458   */\n      tag_96\n        /* \"#utility.yul\":3451:3457   */\n      dup5\n        /* \"#utility.yul\":3446:3449   */\n      dup3\n        /* \"#utility.yul\":3441:3444   */\n      dup6\n        /* \"#utility.yul\":3417:3458   */\n      tag_37\n      jump\t// in\n    tag_96:\n        /* \"#utility.yul\":3136:3464   */\n      pop\n        /* \"#utility.yul\":3052:3464   */\n      swap4\n      swap3\n      pop\n      pop\n      pop\n      jump\t// out\n        /* \"#utility.yul\":3484:3824   */\n    tag_39:\n        /* \"#utility.yul\":3540:3545   */\n      0x00\n        /* \"#utility.yul\":3589:3592   */\n      dup3\n        /* \"#utility.yul\":3582:3586   */\n      0x1f\n        /* \"#utility.yul\":3574:3580   */\n      dup4\n        /* \"#utility.yul\":3570:3587   */\n      add\n        /* \"#utility.yul\":3566:3593   */\n      slt\n        /* \"#utility.yul\":3556:3678   */\n      tag_98\n      jumpi\n        /* \"#utility.yul\":3597:3676   */\n      tag_99\n      tag_31\n      jump\t// in\n    tag_99:\n        /* \"#utility.yul\":3556:3678   */\n    tag_98:\n        /* \"#utility.yul\":3714:3720   */\n      dup2\n        /* \"#utility.yul\":3701:3721   */\n      calldataload\n        /* \"#utility.yul\":3739:3818   */\n      tag_100\n        /* \"#utility.yul\":3814:3817   */\n      dup5\n        /* \"#utility.yul\":3806:3812   */\n      dup3\n        /* \"#utility.yul\":3799:3803   */\n      0x20\n        /* \"#utility.yul\":3791:3797   */\n      dup7\n        /* \"#utility.yul\":3787:3804   */\n      add\n        /* \"#utility.yul\":3739:3818   */\n      tag_38\n      jump\t// in\n    tag_100:\n        /* \"#utility.yul\":3730:3818   */\n      swap2\n      pop\n        /* \"#utility.yul\":3546:3824   */\n      pop\n        /* \"#utility.yul\":3484:3824   */\n      swap3\n      swap2\n      pop\n      pop\n      jump\t// out\n        /* \"#utility.yul\":3830:4339   */\n    tag_11:\n        /* \"#utility.yul\":3899:3905   */\n      0x00\n        /* \"#utility.yul\":3948:3950   */\n      0x20\n        /* \"#utility.yul\":3936:3945   */\n      dup3\n        /* \"#utility.yul\":3927:3934   */\n      dup5\n        /* \"#utility.yul\":3923:3946   */\n      sub\n        /* \"#utility.yul\":3919:3951   */\n      slt\n        /* \"#utility.yul\":3916:4035   */\n      iszero\n      tag_102\n      jumpi\n        /* \"#utility.yul\":3954:4033   */\n      tag_103\n      tag_29\n      jump\t// in\n    tag_103:\n        /* \"#utility.yul\":3916:4035   */\n    tag_102:\n        /* \"#utility.yul\":4102:4103   */\n      0x00\n        /* \"#utility.yul\":4091:4100   */\n      dup3\n        /* \"#utility.yul\":4087:4104   */\n      add\n        /* \"#utility.yul\":4074:4105   */\n      calldataload\n        /* \"#utility.yul\":4132:4150   */\n      0xffffffffffffffff\n        /* \"#utility.yul\":4124:4130   */\n      dup2\n        /* \"#utility.yul\":4121:4151   */\n      gt\n        /* \"#utility.yul\":4118:4235   */\n      iszero\n      tag_104\n      jumpi\n        /* \"#utility.yul\":4154:4233   */\n      tag_105\n      tag_30\n      jump\t// in\n    tag_105:\n        /* \"#utility.yul\":4118:4235   */\n    tag_104:\n        /* \"#utility.yul\":4259:4322   */\n      tag_106\n        /* \"#utility.yul\":4314:4321   */\n      dup5\n        /* \"#utility.yul\":4305:4311   */\n      dup3\n        /* \"#utility.yul\":4294:4303   */\n      dup6\n        /* \"#utility.yul\":4290:4312   */\n      add\n        /* \"#utility.yul\":4259:4322   */\n      tag_39\n      jump\t// in\n    tag_106:\n        /* \"#utility.yul\":4249:4322   */\n      swap2\n      pop\n        /* \"#utility.yul\":4045:4332   */\n      pop\n        /* \"#utility.yul\":3830:4339   */\n      swap3\n      swap2\n      pop\n      pop\n      jump\t// out\n        /* \"#utility.yul\":4345:4525   */\n    tag_40:\n        /* \"#utility.yul\":4393:4470   */\n      0x4e487b7100000000000000000000000000000000000000000000000000000000\n        /* \"#utility.yul\":4390:4391   */\n      0x00\n        /* \"#utility.yul\":4383:4471   */\n      mstore\n        /* \"#utility.yul\":4490:4494   */\n      0x22\n        /* \"#utility.yul\":4487:4488   */\n      0x04\n        /* \"#utility.yul\":4480:4495   */\n      mstore\n        /* \"#utility.yul\":4514:4518   */\n      0x24\n        /* \"#utility.yul\":4511:4512   */\n      0x00\n        /* \"#utility.yul\":4504:4519   */\n      revert\n        /* \"#utility.yul\":4531:4851   */\n    tag_15:\n        /* \"#utility.yul\":4575:4581   */\n      0x00\n        /* \"#utility.yul\":4612:4613   */\n      0x02\n        /* \"#utility.yul\":4606:4610   */\n      dup3\n        /* \"#utility.yul\":4602:4614   */\n      div\n        /* \"#utility.yul\":4592:4614   */\n      swap1\n      pop\n        /* \"#utility.yul\":4659:4660   */\n      0x01\n        /* \"#utility.yul\":4653:4657   */\n      dup3\n        /* \"#utility.yul\":4649:4661   */\n      and\n        /* \"#utility.yul\":4680:4698   */\n      dup1\n        /* \"#utility.yul\":4670:4751   */\n      tag_109\n      jumpi\n        /* \"#utility.yul\":4736:4740   */\n      0x7f\n        /* \"#utility.yul\":4728:4734   */\n      dup3\n        /* \"#utility.yul\":4724:4741   */\n      and\n        /* \"#utility.yul\":4714:4741   */\n      swap2\n      pop\n        /* \"#utility.yul\":4670:4751   */\n    tag_109:\n        /* \"#utility.yul\":4798:4800   */\n      0x20\n        /* \"#utility.yul\":4790:4796   */\n      dup3\n        /* \"#utility.yul\":4787:4801   */\n      lt\n        /* \"#utility.yul\":4767:4785   */\n      dup2\n        /* \"#utility.yul\":4764:4802   */\n      sub\n        /* \"#utility.yul\":4761:4845   */\n      tag_110\n      jumpi\n        /* \"#utility.yul\":4817:4835   */\n      tag_111\n      tag_40\n      jump\t// in\n    tag_111:\n        /* \"#utility.yul\":4761:4845   */\n    tag_110:\n        /* \"#utility.yul\":4582:4851   */\n      pop\n        /* \"#utility.yul\":4531:4851   */\n      swap2\n      swap1\n      pop\n      jump\t// out\n        /* \"#utility.yul\":4857:4998   */\n    tag_41:\n        /* \"#utility.yul\":4906:4910   */\n      0x00\n        /* \"#utility.yul\":4929:4932   */\n      dup2\n        /* \"#utility.yul\":4921:4932   */\n      swap1\n      pop\n        /* \"#utility.yul\":4952:4955   */\n      dup2\n        /* \"#utility.yul\":4949:4950   */\n      0x00\n        /* \"#utility.yul\":4942:4956   */\n      mstore\n        /* \"#utility.yul\":4986:4990   */\n      0x20\n        /* \"#utility.yul\":4983:4984   */\n      0x00\n        /* \"#utility.yul\":4973:4991   */\n      keccak256\n        /* \"#utility.yul\":4965:4991   */\n      swap1\n      pop\n        /* \"#utility.yul\":4857:4998   */\n      swap2\n      swap1\n      pop\n      jump\t// out\n        /* \"#utility.yul\":5004:5097   */\n    tag_42:\n        /* \"#utility.yul\":5041:5047   */\n      0x00\n        /* \"#utility.yul\":5088:5090   */\n      0x20\n        /* \"#utility.yul\":5083:5085   */\n      0x1f\n        /* \"#utility.yul\":5076:5081   */\n      dup4\n        /* \"#utility.yul\":5072:5086   */\n      add\n        /* \"#utility.yul\":5068:5091   */\n      div\n        /* \"#utility.yul\":5058:5091   */\n      swap1\n      pop\n        /* \"#utility.yul\":5004:5097   */\n      swap2\n      swap1\n      pop\n      jump\t// out\n        /* \"#utility.yul\":5103:5210   */\n    tag_43:\n        /* \"#utility.yul\":5147:5155   */\n      0x00\n        /* \"#utility.yul\":5197:5202   */\n      dup3\n        /* \"#utility.yul\":5191:5195   */\n      dup3\n        /* \"#utility.yul\":5187:5203   */\n      shl\n        /* \"#utility.yul\":5166:5203   */\n      swap1\n      pop\n        /* \"#utility.yul\":5103:5210   */\n      swap3\n      swap2\n      pop\n      pop\n      jump\t// out\n        /* \"#utility.yul\":5216:5609   */\n    tag_44:\n        /* \"#utility.yul\":5285:5291   */\n      0x00\n        /* \"#utility.yul\":5335:5336   */\n      0x08\n        /* \"#utility.yul\":5323:5333   */\n      dup4\n        /* \"#utility.yul\":5319:5337   */\n      mul\n        /* \"#utility.yul\":5358:5455   */\n      tag_116\n        /* \"#utility.yul\":5388:5454   */\n      0xffffffffffffffffffffffffffffffffffffffffffffffffffffffffffffffff\n        /* \"#utility.yul\":5377:5386   */\n      dup3\n        /* \"#utility.yul\":5358:5455   */\n      tag_43\n      jump\t// in\n    tag_116:\n        /* \"#utility.yul\":5476:5515   */\n      tag_117\n        /* \"#utility.yul\":5506:5514   */\n      dup7\n        /* \"#utility.yul\":5495:5504   */\n      dup4\n        /* \"#utility.yul\":5476:5515   */\n      tag_43\n      jump\t// in\n    tag_117:\n        /* \"#utility.yul\":5464:5515   */\n      swap6\n      pop\n        /* \"#utility.yul\":5548:5552   */\n      dup1\n        /* \"#utility.yul\":5544:5553   */\n      not\n        /* \"#utility.yul\":5537:5542   */\n      dup5\n        /* \"#utility.yul\":5533:5554   */\n      and\n        /* \"#utility.yul\":5524:5554   */\n      swap4\n      pop\n        /* \"#utility.yul\":5597:5601   */\n      dup1\n        /* \"#utility.yul\":5587:5595   */\n      dup7\n        /* \"#utility.yul\":5583:5602   */\n      and\n        /* \"#utility.yul\":5576:5581   */\n      dup5\n        /* \"#utility.yul\":5573:5603   */\n      or\n        /* \"#utility.yul\":5563:5603   */\n      swap3\n      pop\n        /* \"#utility.yul\":5292:5609   */\n      pop\n      pop\n        /* \"#utility.yul\":5216:5609   */\n      swap4\n      swap3\n      pop\n      pop\n      pop\n      jump\t// out\n        /* \"#utility.yul\":5615:5692   */\n    tag_45:\n        /* \"#utility.yul\":5652:5659   */\n      0x00\n        /* \"#utility.yul\":5681:5686   */\n      dup2\n        /* \"#utility.yul\":5670:5686   */\n      swap1\n      pop\n        /* \"#utility.yul\":5615:5692   */\n      swap2\n      swap1\n      pop\n      jump\t// out\n        /* \"#utility.yul\":5698:5758   */\n    tag_46:\n        /* \"#utility.yul\":5726:5729   */\n      0x00\n        /* \"#utility.yul\":5747:5752   */\n      dup2\n        /* \"#utility.yul\":5740:5752   */\n      swap1\n      pop\n        /* \"#utility.yul\":5698:5758   */\n      swap2\n      swap1\n      pop\n      jump\t// out\n        /* \"#utility.yul\":5764:5906   */\n    tag_47:\n        /* \"#utility.yul\":5814:5823   */\n      0x00\n        /* \"#utility.yul\":5847:5900   */\n      tag_121\n        /* \"#utility.yul\":5865:5899   */\n      tag_122\n        /* \"#utility.yul\":5874:5898   */\n      tag_123\n        /* \"#utility.yul\":5892:5897   */\n      dup5\n        /* \"#utility.yul\":5874:5898   */\n      tag_45\n      jump\t// in\n    tag_123:\n        /* \"#utility.yul\":5865:5899   */\n      tag_46\n      jump\t// in\n    tag_122:\n        /* \"#utility.yul\":5847:5900   */\n      tag_45\n      jump\t// in\n    tag_121:\n        /* \"#utility.yul\":5834:5900   */\n      swap1\n      pop\n        /* \"#utility.yul\":5764:5906   */\n      swap2\n      swap1\n      pop\n      jump\t// out\n        /* \"#utility.yul\":5912:5987   */\n    tag_48:\n        /* \"#utility.yul\":5955:5958   */\n      0x00\n        /* \"#utility.yul\":5976:5981   */\n      dup2\n        /* \"#utility.yul\":5969:5981   */\n      swap1\n      pop\n        /* \"#utility.yul\":5912:5987   */\n      swap2\n      swap1\n      pop\n      jump\t// out\n        /* \"#utility.yul\":5993:6262   */\n    tag_49:\n        /* \"#utility.yul\":6103:6142   */\n      tag_126\n        /* \"#utility.yul\":6134:6141   */\n      dup4\n        /* \"#utility.yul\":6103:6142   */\n      tag_47\n      jump\t// in\n    tag_126:\n        /* \"#utility.yul\":6164:6255   */\n      tag_127\n        /* \"#utility.yul\":6213:6254   */\n      tag_128\n        /* \"#utility.yul\":6237:6253   */\n      dup3\n        /* \"#utility.yul\":6213:6254   */\n      tag_48\n      jump\t// in\n    tag_128:\n        /* \"#utility.yul\":6205:6211   */\n      dup5\n        /* \"#utility.yul\":6198:6202   */\n      dup5\n        /* \"#utility.yul\":6192:6203   */\n      sload\n        /* \"#utility.yul\":6164:6255   */\n      tag_44\n      jump\t// in\n    tag_127:\n        /* \"#utility.yul\":6158:6162   */\n      dup3\n        /* \"#utility.yul\":6151:6256   */\n      sstore\n        /* \"#utility.yul\":6069:6262   */\n      pop\n        /* \"#utility.yul\":5993:6262   */\n      pop\n      pop\n      pop\n      jump\t// out\n        /* \"#utility.yul\":6268:6341   */\n    tag_50:\n        /* \"#utility.yul\":6313:6316   */\n      0x00\n        /* \"#utility.yul\":6268:6341   */\n      swap1\n      jump\t// out\n        /* \"#utility.yul\":6347:6536   */\n    tag_51:\n        /* \"#utility.yul\":6424:6456   */\n      tag_131\n      tag_50\n      jump\t// in\n    tag_131:\n        /* \"#utility.yul\":6465:6530   */\n      tag_132\n        /* \"#utility.yul\":6523:6529   */\n      dup2\n        /* \"#utility.yul\":6515:6521   */\n      dup5\n        /* \"#utility.yul\":6509:6513   */\n      dup5\n        /* \"#utility.yul\":6465:6530   */\n      tag_49\n      jump\t// in\n    tag_132:\n        /* \"#utility.yul\":6400:6536   */\n      pop\n        /* \"#utility.yul\":6347:6536   */\n      pop\n      pop\n      jump\t// out\n        /* \"#utility.yul\":6542:6728   */\n    tag_52:\n        /* \"#utility.yul\":6602:6722   */\n    tag_134:\n        /* \"#utility.yul\":6619:6622   */\n      dup2\n        /* \"#utility.yul\":6612:6617   */\n      dup2\n        /* \"#utility.yul\":6609:6623   */\n      lt\n        /* \"#utility.yul\":6602:6722   */\n      iszero\n      tag_136\n      jumpi\n        /* \"#utility.yul\":6673:6712   */\n      tag_137\n        /* \"#utility.yul\":6710:6711   */\n      0x00\n        /* \"#utility.yul\":6703:6708   */\n      dup3\n        /* \"#utility.yul\":6673:6712   */\n      tag_51\n      jump\t// in\n    tag_137:\n        /* \"#utility.yul\":6646:6647   */\n      0x01\n        /* \"#utility.yul\":6639:6644   */\n      dup2\n        /* \"#utility.yul\":6635:6648   */\n      add\n        /* \"#utility.yul\":6626:6648   */\n      swap1\n      pop\n        /* \"#utility.yul\":6602:6722   */\n      jump(tag_134)\n    tag_136:\n        /* \"#utility.yul\":6542:6728   */\n      pop\n      pop\n      jump\t// out\n        /* \"#utility.yul\":6734:7277   */\n    tag_53:\n        /* \"#utility.yul\":6835:6837   */\n      0x1f\n        /* \"#utility.yul\":6830:6833   */\n      dup3\n        /* \"#utility.yul\":6827:6838   */\n      gt\n        /* \"#utility.yul\":6824:7270   */\n      iszero\n      tag_139\n      jumpi\n        /* \"#utility.yul\":6869:6907   */\n      tag_140\n        /* \"#utility.yul\":6901:6906   */\n      dup2\n        /* \"#utility.yul\":6869:6907   */\n      tag_41\n      jump\t// in\n    tag_140:\n        /* \"#utility.yul\":6953:6982   */\n      tag_141\n        /* \"#utility.yul\":6971:6981   */\n      dup5\n        /* \"#utility.yul\":6953:6982   */\n      tag_42\n      jump\t// in\n    tag_141:\n        /* \"#utility.yul\":6943:6951   */\n      dup2\n        /* \"#utility.yul\":6939:6983   */\n      add\n        /* \"#utility.yul\":7136:7138   */\n      0x20\n        /* \"#utility.yul\":7124:7134   */\n      dup6\n        /* \"#utility.yul\":7121:7139   */\n      lt\n        /* \"#utility.yul\":7118:7167   */\n      iszero\n      tag_142\n      jumpi\n        /* \"#utility.yul\":7157:7165   */\n      dup2\n        /* \"#utility.yul\":7142:7165   */\n      swap1\n      pop\n        /* \"#utility.yul\":7118:7167   */\n    tag_142:\n        /* \"#utility.yul\":7180:7260   */\n      tag_143\n        /* \"#utility.yul\":7236:7258   */\n      tag_144\n        /* \"#utility.yul\":7254:7257   */\n      dup6\n        /* \"#utility.yul\":7236:7258   */\n      tag_42\n      jump\t// in\n    tag_144:\n        /* \"#utility.yul\":7226:7234   */\n      dup4\n        /* \"#utility.yul\":7222:7259   */\n      add\n        /* \"#utility.yul\":7209:7220   */\n      dup3\n        /* \"#utility.yul\":7180:7260   */\n      tag_52\n      jump\t// in\n    tag_143:\n        /* \"#utility.yul\":6839:7270   */\n      pop\n      pop\n        /* \"#utility.yul\":6824:7270   */\n    tag_139:\n        /* \"#utility.yul\":6734:7277   */\n      pop\n      pop\n      pop\n      jump\t// out\n        /* \"#utility.yul\":7283:7400   */\n    tag_54:\n        /* \"#utility.yul\":7337:7345   */\n      0x00\n        /* \"#utility.yul\":7387:7392   */\n      dup3\n        /* \"#utility.yul\":7381:7385   */\n      dup3\n        /* \"#utility.yul\":7377:7393   */\n      shr\n        /* \"#utility.yul\":7356:7393   */\n      swap1\n      pop\n        /* \"#utility.yul\":7283:7400   */\n      swap3\n      swap2\n      pop\n      pop\n      jump\t// out\n        /* \"#utility.yul\":7406:7575   */\n    tag_55:\n        /* \"#utility.yul\":7450:7456   */\n      0x00\n        /* \"#utility.yul\":7483:7534   */\n      tag_147\n        /* \"#utility.yul\":7531:7532   */\n      0x00\n        /* \"#utility.yul\":7527:7533   */\n      not\n        /* \"#utility.yul\":7519:7524   */\n      dup5\n        /* \"#utility.yul\":7516:7517   */\n      0x08\n        /* \"#utility.yul\":7512:7525   */\n      mul\n        /* \"#utility.yul\":7483:7534   */\n      tag_54\n      jump\t// in\n    tag_147:\n        /* \"#utility.yul\":7479:7535   */\n      not\n        /* \"#utility.yul\":7564:7568   */\n      dup1\n        /* \"#utility.yul\":7558:7562   */\n      dup4\n        /* \"#utility.yul\":7554:7569   */\n      and\n        /* \"#utility.yul\":7544:7569   */\n      swap2\n      pop\n        /* \"#utility.yul\":7457:7575   */\n      pop\n        /* \"#utility.yul\":7406:7575   */\n      swap3\n      swap2\n      pop\n      pop\n      jump\t// out\n        /* \"#utility.yul\":7580:7875   */\n    tag_56:\n        /* \"#utility.yul\":7656:7660   */\n      0x00\n        /* \"#utility.yul\":7802:7831   */\n      tag_149\n        /* \"#utility.yul\":7827:7830   */\n      dup4\n        /* \"#utility.yul\":7821:7825   */\n      dup4\n        /* \"#utility.yul\":7802:7831   */\n      tag_55\n      jump\t// in\n    tag_149:\n        /* \"#utility.yul\":7794:7831   */\n      swap2\n      pop\n        /* \"#utility.yul\":7864:7867   */\n      dup3\n        /* \"#utility.yul\":7861:7862   */\n      0x02\n        /* \"#utility.yul\":7857:7868   */\n      mul\n        /* \"#utility.yul\":7851:7855   */\n      dup3\n        /* \"#utility.yul\":7848:7869   */\n      or\n        /* \"#utility.yul\":7840:7869   */\n      swap1\n      pop\n        /* \"#utility.yul\":7580:7875   */\n      swap3\n      swap2\n      pop\n      pop\n      jump\t// out\n        /* \"#utility.yul\":7880:9275   */\n    tag_22:\n        /* \"#utility.yul\":7997:8034   */\n      tag_151\n        /* \"#utility.yul\":8030:8033   */\n      dup3\n        /* \"#utility.yul\":7997:8034   */\n      tag_23\n      jump\t// in\n    tag_151:\n        /* \"#utility.yul\":8099:8117   */\n      0xffffffffffffffff\n        /* \"#utility.yul\":8091:8097   */\n      dup2\n        /* \"#utility.yul\":8088:8118   */\n      gt\n        /* \"#utility.yul\":8085:8141   */\n      iszero\n      tag_152\n      jumpi\n        /* \"#utility.yul\":8121:8139   */\n      tag_153\n      tag_33\n      jump\t// in\n    tag_153:\n        /* \"#utility.yul\":8085:8141   */\n    tag_152:\n        /* \"#utility.yul\":8165:8203   */\n      tag_154\n        /* \"#utility.yul\":8197:8201   */\n      dup3\n        /* \"#utility.yul\":8191:8202   */\n      sload\n        /* \"#utility.yul\":8165:8203   */\n      tag_15\n      jump\t// in\n    tag_154:\n        /* \"#utility.yul\":8250:8317   */\n      tag_155\n        /* \"#utility.yul\":8310:8316   */\n      dup3\n        /* \"#utility.yul\":8302:8308   */\n      dup3\n        /* \"#utility.yul\":8296:8300   */\n      dup6\n        /* \"#utility.yul\":8250:8317   */\n      tag_53\n      jump\t// in\n    tag_155:\n        /* \"#utility.yul\":8344:8345   */\n      0x00\n        /* \"#utility.yul\":8368:8372   */\n      0x20\n        /* \"#utility.yul\":8355:8372   */\n      swap1\n      pop\n        /* \"#utility.yul\":8400:8402   */\n      0x1f\n        /* \"#utility.yul\":8392:8398   */\n      dup4\n        /* \"#utility.yul\":8389:8403   */\n      gt\n        /* \"#utility.yul\":8417:8418   */\n      0x01\n        /* \"#utility.yul\":8412:9030   */\n      dup2\n      eq\n      tag_157\n      jumpi\n        /* \"#utility.yul\":9074:9075   */\n      0x00\n        /* \"#utility.yul\":9091:9097   */\n      dup5\n        /* \"#utility.yul\":9088:9165   */\n      iszero\n      tag_158\n      jumpi\n        /* \"#utility.yul\":9140:9149   */\n      dup3\n        /* \"#utility.yul\":9135:9138   */\n      dup8\n        /* \"#utility.yul\":9131:9150   */\n      add\n        /* \"#utility.yul\":9125:9151   */\n      mload\n        /* \"#utility.yul\":9116:9151   */\n      swap1\n      pop\n        /* \"#utility.yul\":9088:9165   */\n    tag_158:\n        /* \"#utility.yul\":9191:9258   */\n      tag_159\n        /* \"#utility.yul\":9251:9257   */\n      dup6\n        /* \"#utility.yul\":9244:9249   */\n      dup3\n        /* \"#utility.yul\":9191:9258   */\n      tag_56\n      jump\t// in\n    tag_159:\n        /* \"#utility.yul\":9185:9189   */\n      dup7\n        /* \"#utility.yul\":9178:9259   */\n      sstore\n        /* \"#utility.yul\":9047:9269   */\n      pop\n        /* \"#utility.yul\":8382:9269   */\n      jump(tag_156)\n        /* \"#utility.yul\":8412:9030   */\n    tag_157:\n        /* \"#utility.yul\":8464:8468   */\n      0x1f\n        /* \"#utility.yul\":8460:8469   */\n      not\n        /* \"#utility.yul\":8452:8458   */\n      dup5\n        /* \"#utility.yul\":8448:8470   */\n      and\n        /* \"#utility.yul\":8498:8535   */\n      tag_160\n        /* \"#utility.yul\":8530:8534   */\n      dup7\n        /* \"#utility.yul\":8498:8535   */\n      tag_41\n      jump\t// in\n    tag_160:\n        /* \"#utility.yul\":8557:8558   */\n      0x00\n        /* \"#utility.yul\":8571:8779   */\n    tag_161:\n        /* \"#utility.yul\":8585:8592   */\n      dup3\n        /* \"#utility.yul\":8582:8583   */\n      dup2\n        /* \"#utility.yul\":8579:8593   */\n      lt\n        /* \"#utility.yul\":8571:8779   */\n      iszero\n      tag_163\n      jumpi\n        /* \"#utility.yul\":8664:8673   */\n      dup5\n        /* \"#utility.yul\":8659:8662   */\n      dup10\n        /* \"#utility.yul\":8655:8674   */\n      add\n        /* \"#utility.yul\":8649:8675   */\n      mload\n        /* \"#utility.yul\":8641:8647   */\n      dup3\n        /* \"#utility.yul\":8634:8676   */\n      sstore\n        /* \"#utility.yul\":8715:8716   */\n      0x01\n        /* \"#utility.yul\":8707:8713   */\n      dup3\n        /* \"#utility.yul\":8703:8717   */\n      add\n        /* \"#utility.yul\":8693:8717   */\n      swap2\n      pop\n        /* \"#utility.yul\":8762:8764   */\n      0x20\n        /* \"#utility.yul\":8751:8760   */\n      dup6\n        /* \"#utility.yul\":8747:8765   */\n      add\n        /* \"#utility.yul\":8734:8765   */\n      swap5\n      pop\n        /* \"#utility.yul\":8608:8612   */\n      0x20\n        /* \"#utility.yul\":8605:8606   */\n      dup2\n        /* \"#utility.yul\":8601:8613   */\n      add\n        /* \"#utility.yul\":8596:8613   */\n      swap1\n      pop\n        /* \"#utility.yul\":8571:8779   */\n      jump(tag_161)\n    tag_163:\n        /* \"#utility.yul\":8807:8813   */\n      dup7\n        /* \"#utility.yul\":8798:8805   */\n      dup4\n        /* \"#utility.yul\":8795:8814   */\n      lt\n        /* \"#utility.yul\":8792:8971   */\n      iszero\n      tag_164\n      jumpi\n        /* \"#utility.yul\":8865:8874   */\n      dup5\n        /* \"#utility.yul\":8860:8863   */\n      dup10\n        /* \"#utility.yul\":8856:8875   */\n      add\n        /* \"#utility.yul\":8850:8876   */\n      mload\n        /* \"#utility.yul\":8908:8956   */\n      tag_165\n        /* \"#utility.yul\":8950:8954   */\n      0x1f\n        /* \"#utility.yul\":8942:8948   */\n      dup10\n        /* \"#utility.yul\":8938:8955   */\n      and\n        /* \"#utility.yul\":8927:8936   */\n      dup3\n        /* \"#utility.yul\":8908:8956   */\n      tag_55\n      jump\t// in\n    tag_165:\n        /* \"#utility.yul\":8900:8906   */\n      dup4\n        /* \"#utility.yul\":8893:8957   */\n      sstore\n        /* \"#utility.yul\":8815:8971   */\n      pop\n        /* \"#utility.yul\":8792:8971   */\n    tag_164:\n        /* \"#utility.yul\":9017:9018   */\n      0x01\n        /* \"#utility.yul\":9013:9014   */\n      0x02\n        /* \"#utility.yul\":9005:9011   */\n      dup9\n        /* \"#utility.yul\":9001:9015   */\n      mul\n        /* \"#utility.yul\":8997:9019   */\n      add\n        /* \"#utility.yul\":8991:8995   */\n      dup9\n        /* \"#utility.yul\":8984:9020   */\n      sstore\n        /* \"#utility.yul\":8419:9030   */\n      pop\n      pop\n      pop\n        /* \"#utility.yul\":8382:9269   */\n    tag_156:\n      pop\n        /* \"#utility.yul\":7972:9275   */\n      pop\n      pop\n      pop\n        /* \"#utility.yul\":7880:9275   */\n      pop\n      pop\n      jump\t// out\n\n    auxdata: 0xa2646970667358221220afe27126c890c1654e1146ce754dbee559f25c3ba2a0472104db552f6e427fab64736f6c634300080f0033\n}\n",
				"bytecode": {
					"linkReferences": {},
					"object": "60806040523480156200001157600080fd5b5060405162000c0538038062000c058339818101604052810190620000379190620001ed565b806000908162000048919062000489565b505062000570565b6000604051905090565b600080fd5b600080fd5b600080fd5b600080fd5b6000601f19601f8301169050919050565b7f4e487b7100000000000000000000000000000000000000000000000000000000600052604160045260246000fd5b620000b9826200006e565b810181811067ffffffffffffffff82111715620000db57620000da6200007f565b5b80604052505050565b6000620000f062000050565b9050620000fe8282620000ae565b919050565b600067ffffffffffffffff8211156200012157620001206200007f565b5b6200012c826200006e565b9050602081019050919050565b60005b83811015620001595780820151818401526020810190506200013c565b8381111562000169576000848401525b50505050565b600062000186620001808462000103565b620000e4565b905082815260208101848484011115620001a557620001a462000069565b5b620001b284828562000139565b509392505050565b600082601f830112620001d257620001d162000064565b5b8151620001e48482602086016200016f565b91505092915050565b6000602082840312156200020657620002056200005a565b5b600082015167ffffffffffffffff8111156200022757620002266200005f565b5b6200023584828501620001ba565b91505092915050565b600081519050919050565b7f4e487b7100000000000000000000000000000000000000000000000000000000600052602260045260246000fd5b600060028204905060018216806200029157607f821691505b602082108103620002a757620002a662000249565b5b50919050565b60008190508160005260206000209050919050565b60006020601f8301049050919050565b600082821b905092915050565b600060088302620003117fffffffffffffffffffffffffffffffffffffffffffffffffffffffffffffffff82620002d2565b6200031d8683620002d2565b95508019841693508086168417925050509392505050565b6000819050919050565b6000819050919050565b60006200036a620003646200035e8462000335565b6200033f565b62000335565b9050919050565b6000819050919050565b620003868362000349565b6200039e620003958262000371565b848454620002df565b825550505050565b600090565b620003b5620003a6565b620003c28184846200037b565b505050565b5b81811015620003ea57620003de600082620003ab565b600181019050620003c8565b5050565b601f82111562000439576200040381620002ad565b6200040e84620002c2565b810160208510156200041e578190505b620004366200042d85620002c2565b830182620003c7565b50505b505050565b600082821c905092915050565b60006200045e600019846008026200043e565b1980831691505092915050565b60006200047983836200044b565b9150826002028217905092915050565b62000494826200023e565b67ffffffffffffffff811115620004b057620004af6200007f565b5b620004bc825462000278565b620004c9828285620003ee565b600060209050601f831160018114620005015760008415620004ec578287015190505b620004f885826200046b565b86555062000568565b601f1984166200051186620002ad565b60005b828110156200053b5784890151825560018201915060208501945060208101905062000514565b868310156200055b578489015162000557601f8916826200044b565b8355505b6001600288020188555050505b505050505050565b61068580620005806000396000f3fe608060405234801561001057600080fd5b50600436106100365760003560e01c806317d7de7c1461003b578063c47f002714610059575b600080fd5b610043610075565b60405161005091906101b3565b60405180910390f35b610073600480360381019061006e919061031e565b610107565b005b60606000805461008490610396565b80601f01602080910402602001604051908101604052809291908181526020018280546100b090610396565b80156100fd5780601f106100d2576101008083540402835291602001916100fd565b820191906000526020600020905b8154815290600101906020018083116100e057829003601f168201915b5050505050905090565b8060009081610116919061057d565b5050565b600081519050919050565b600082825260208201905092915050565b60005b83811015610154578082015181840152602081019050610139565b83811115610163576000848401525b50505050565b6000601f19601f8301169050919050565b60006101858261011a565b61018f8185610125565b935061019f818560208601610136565b6101a881610169565b840191505092915050565b600060208201905081810360008301526101cd818461017a565b905092915050565b6000604051905090565b600080fd5b600080fd5b600080fd5b600080fd5b7f4e487b7100000000000000000000000000000000000000000000000000000000600052604160045260246000fd5b61022b82610169565b810181811067ffffffffffffffff8211171561024a576102496101f3565b5b80604052505050565b600061025d6101d5565b90506102698282610222565b919050565b600067ffffffffffffffff821115610289576102886101f3565b5b61029282610169565b9050602081019050919050565b82818337600083830152505050565b60006102c16102bc8461026e565b610253565b9050828152602081018484840111156102dd576102dc6101ee565b5b6102e884828561029f565b509392505050565b600082601f830112610305576103046101e9565b5b81356103158482602086016102ae565b91505092915050565b600060208284031215610334576103336101df565b5b600082013567ffffffffffffffff811115610352576103516101e4565b5b61035e848285016102f0565b91505092915050565b7f4e487b7100000000000000000000000000000000000000000000000000000000600052602260045260246000fd5b600060028204905060018216806103ae57607f821691505b6020821081036103c1576103c0610367565b5b50919050565b60008190508160005260206000209050919050565b60006020601f8301049050919050565b600082821b905092915050565b6000600883026104297fffffffffffffffffffffffffffffffffffffffffffffffffffffffffffffffff826103ec565b61043386836103ec565b95508019841693508086168417925050509392505050565b6000819050919050565b6000819050919050565b600061047a6104756104708461044b565b610455565b61044b565b9050919050565b6000819050919050565b6104948361045f565b6104a86104a082610481565b8484546103f9565b825550505050565b600090565b6104bd6104b0565b6104c881848461048b565b505050565b5b818110156104ec576104e16000826104b5565b6001810190506104ce565b5050565b601f82111561053157610502816103c7565b61050b846103dc565b8101602085101561051a578190505b61052e610526856103dc565b8301826104cd565b50505b505050565b600082821c905092915050565b600061055460001984600802610536565b1980831691505092915050565b600061056d8383610543565b9150826002028217905092915050565b6105868261011a565b67ffffffffffffffff81111561059f5761059e6101f3565b5b6105a98254610396565b6105b48282856104f0565b600060209050601f8311600181146105e757600084156105d5578287015190505b6105df8582610561565b865550610647565b601f1984166105f5866103c7565b60005b8281101561061d578489015182556001820191506020850194506020810190506105f8565b8683101561063a5784890151610636601f891682610543565b8355505b6001600288020188555050505b50505050505056fea2646970667358221220afe27126c890c1654e1146ce754dbee559f25c3ba2a0472104db552f6e427fab64736f6c634300080f0033",
					"opcodes": "PUSH1 0x80 PUSH1 0x40 MSTORE CALLVALUE DUP1 ISZERO PUSH3 0x11 JUMPI PUSH1 0x0 DUP1 REVERT JUMPDEST POP PUSH1 0x40 MLOAD PUSH3 0xC05 CODESIZE SUB DUP1 PUSH3 0xC05 DUP4 CODECOPY DUP2 DUP2 ADD PUSH1 0x40 MSTORE DUP2 ADD SWAP1 PUSH3 0x37 SWAP2 SWAP1 PUSH3 0x1ED JUMP JUMPDEST DUP1 PUSH1 0x0 SWAP1 DUP2 PUSH3 0x48 SWAP2 SWAP1 PUSH3 0x489 JUMP JUMPDEST POP POP PUSH3 0x570 JUMP JUMPDEST PUSH1 0x0 PUSH1 0x40 MLOAD SWAP1 POP SWAP1 JUMP JUMPDEST PUSH1 0x0 DUP1 REVERT JUMPDEST PUSH1 0x0 DUP1 REVERT JUMPDEST PUSH1 0x0 DUP1 REVERT JUMPDEST PUSH1 0x0 DUP1 REVERT JUMPDEST PUSH1 0x0 PUSH1 0x1F NOT PUSH1 0x1F DUP4 ADD AND SWAP1 POP SWAP2 SWAP1 POP JUMP JUMPDEST PUSH32 0x4E487B7100000000000000000000000000000000000000000000000000000000 PUSH1 0x0 MSTORE PUSH1 0x41 PUSH1 0x4 MSTORE PUSH1 0x24 PUSH1 0x0 REVERT JUMPDEST PUSH3 0xB9 DUP3 PUSH3 0x6E JUMP JUMPDEST DUP2 ADD DUP2 DUP2 LT PUSH8 0xFFFFFFFFFFFFFFFF DUP3 GT OR ISZERO PUSH3 0xDB JUMPI PUSH3 0xDA PUSH3 0x7F JUMP JUMPDEST JUMPDEST DUP1 PUSH1 0x40 MSTORE POP POP POP JUMP JUMPDEST PUSH1 0x0 PUSH3 0xF0 PUSH3 0x50 JUMP JUMPDEST SWAP1 POP PUSH3 0xFE DUP3 DUP3 PUSH3 0xAE JUMP JUMPDEST SWAP2 SWAP1 POP JUMP JUMPDEST PUSH1 0x0 PUSH8 0xFFFFFFFFFFFFFFFF DUP3 GT ISZERO PUSH3 0x121 JUMPI PUSH3 0x120 PUSH3 0x7F JUMP JUMPDEST JUMPDEST PUSH3 0x12C DUP3 PUSH3 0x6E JUMP JUMPDEST SWAP1 POP PUSH1 0x20 DUP2 ADD SWAP1 POP SWAP2 SWAP1 POP JUMP JUMPDEST PUSH1 0x0 JUMPDEST DUP4 DUP2 LT ISZERO PUSH3 0x159 JUMPI DUP1 DUP3 ADD MLOAD DUP2 DUP5 ADD MSTORE PUSH1 0x20 DUP2 ADD SWAP1 POP PUSH3 0x13C JUMP JUMPDEST DUP4 DUP2 GT ISZERO PUSH3 0x169 JUMPI PUSH1 0x0 DUP5 DUP5 ADD MSTORE JUMPDEST POP POP POP POP JUMP JUMPDEST PUSH1 0x0 PUSH3 0x186 PUSH3 0x180 DUP5 PUSH3 0x103 JUMP JUMPDEST PUSH3 0xE4 JUMP JUMPDEST SWAP1 POP DUP3 DUP2 MSTORE PUSH1 0x20 DUP2 ADD DUP5 DUP5 DUP5 ADD GT ISZERO PUSH3 0x1A5 JUMPI PUSH3 0x1A4 PUSH3 0x69 JUMP JUMPDEST JUMPDEST PUSH3 0x1B2 DUP5 DUP3 DUP6 PUSH3 0x139 JUMP JUMPDEST POP SWAP4 SWAP3 POP POP POP JUMP JUMPDEST PUSH1 0x0 DUP3 PUSH1 0x1F DUP4 ADD SLT PUSH3 0x1D2 JUMPI PUSH3 0x1D1 PUSH3 0x64 JUMP JUMPDEST JUMPDEST DUP2 MLOAD PUSH3 0x1E4 DUP5 DUP3 PUSH1 0x20 DUP7 ADD PUSH3 0x16F JUMP JUMPDEST SWAP2 POP POP SWAP3 SWAP2 POP POP JUMP JUMPDEST PUSH1 0x0 PUSH1 0x20 DUP3 DUP5 SUB SLT ISZERO PUSH3 0x206 JUMPI PUSH3 0x205 PUSH3 0x5A JUMP JUMPDEST JUMPDEST PUSH1 0x0 DUP3 ADD MLOAD PUSH8 0xFFFFFFFFFFFFFFFF DUP2 GT ISZERO PUSH3 0x227 JUMPI PUSH3 0x226 PUSH3 0x5F JUMP JUMPDEST JUMPDEST PUSH3 0x235 DUP5 DUP3 DUP6 ADD PUSH3 0x1BA JUMP JUMPDEST SWAP2 POP POP SWAP3 SWAP2 POP POP JUMP JUMPDEST PUSH1 0x0 DUP2 MLOAD SWAP1 POP SWAP2 SWAP1 POP JUMP JUMPDEST PUSH32 0x4E487B7100000000000000000000000000000000000000000000000000000000 PUSH1 0x0 MSTORE PUSH1 0x22 PUSH1 0x4 MSTORE PUSH1 0x24 PUSH1 0x0 REVERT JUMPDEST PUSH1 0x0 PUSH1 0x2 DUP3 DIV SWAP1 POP PUSH1 0x1 DUP3 AND DUP1 PUSH3 0x291 JUMPI PUSH1 0x7F DUP3 AND SWAP2 POP JUMPDEST PUSH1 0x20 DUP3 LT DUP2 SUB PUSH3 0x2A7 JUMPI PUSH3 0x2A6 PUSH3 0x249 JUMP JUMPDEST JUMPDEST POP SWAP2 SWAP1 POP JUMP JUMPDEST PUSH1 0x0 DUP2 SWAP1 POP DUP2 PUSH1 0x0 MSTORE PUSH1 0x20 PUSH1 0x0 KECCAK256 SWAP1 POP SWAP2 SWAP1 POP JUMP JUMPDEST PUSH1 0x0 PUSH1 0x20 PUSH1 0x1F DUP4 ADD DIV SWAP1 POP SWAP2 SWAP1 POP JUMP JUMPDEST PUSH1 0x0 DUP3 DUP3 SHL SWAP1 POP SWAP3 SWAP2 POP POP JUMP JUMPDEST PUSH1 0x0 PUSH1 0x8 DUP4 MUL PUSH3 0x311 PUSH32 0xFFFFFFFFFFFFFFFFFFFFFFFFFFFFFFFFFFFFFFFFFFFFFFFFFFFFFFFFFFFFFFFF DUP3 PUSH3 0x2D2 JUMP JUMPDEST PUSH3 0x31D DUP7 DUP4 PUSH3 0x2D2 JUMP JUMPDEST SWAP6 POP DUP1 NOT DUP5 AND SWAP4 POP DUP1 DUP7 AND DUP5 OR SWAP3 POP POP POP SWAP4 SWAP3 POP POP POP JUMP JUMPDEST PUSH1 0x0 DUP2 SWAP1 POP SWAP2 SWAP1 POP JUMP JUMPDEST PUSH1 0x0 DUP2 SWAP1 POP SWAP2 SWAP1 POP JUMP JUMPDEST PUSH1 0x0 PUSH3 0x36A PUSH3 0x364 PUSH3 0x35E DUP5 PUSH3 0x335 JUMP JUMPDEST PUSH3 0x33F JUMP JUMPDEST PUSH3 0x335 JUMP JUMPDEST SWAP1 POP SWAP2 SWAP1 POP JUMP JUMPDEST PUSH1 0x0 DUP2 SWAP1 POP SWAP2 SWAP1 POP JUMP JUMPDEST PUSH3 0x386 DUP4 PUSH3 0x349 JUMP JUMPDEST PUSH3 0x39E PUSH3 0x395 DUP3 PUSH3 0x371 JUMP JUMPDEST DUP5 DUP5 SLOAD PUSH3 0x2DF JUMP JUMPDEST DUP3 SSTORE POP POP POP POP JUMP JUMPDEST PUSH1 0x0 SWAP1 JUMP JUMPDEST PUSH3 0x3B5 PUSH3 0x3A6 JUMP JUMPDEST PUSH3 0x3C2 DUP2 DUP5 DUP5 PUSH3 0x37B JUMP JUMPDEST POP POP POP JUMP JUMPDEST JUMPDEST DUP2 DUP2 LT ISZERO PUSH3 0x3EA JUMPI PUSH3 0x3DE PUSH1 0x0 DUP3 PUSH3 0x3AB JUMP JUMPDEST PUSH1 0x1 DUP2 ADD SWAP1 POP PUSH3 0x3C8 JUMP JUMPDEST POP POP JUMP JUMPDEST PUSH1 0x1F DUP3 GT ISZERO PUSH3 0x439 JUMPI PUSH3 0x403 DUP2 PUSH3 0x2AD JUMP JUMPDEST PUSH3 0x40E DUP5 PUSH3 0x2C2 JUMP JUMPDEST DUP2 ADD PUSH1 0x20 DUP6 LT ISZERO PUSH3 0x41E JUMPI DUP2 SWAP1 POP JUMPDEST PUSH3 0x436 PUSH3 0x42D DUP6 PUSH3 0x2C2 JUMP JUMPDEST DUP4 ADD DUP3 PUSH3 0x3C7 JUMP JUMPDEST POP POP JUMPDEST POP POP POP JUMP JUMPDEST PUSH1 0x0 DUP3 DUP3 SHR SWAP1 POP SWAP3 SWAP2 POP POP JUMP JUMPDEST PUSH1 0x0 PUSH3 0x45E PUSH1 0x0 NOT DUP5 PUSH1 0x8 MUL PUSH3 0x43E JUMP JUMPDEST NOT DUP1 DUP4 AND SWAP2 POP POP SWAP3 SWAP2 POP POP JUMP JUMPDEST PUSH1 0x0 PUSH3 0x479 DUP4 DUP4 PUSH3 0x44B JUMP JUMPDEST SWAP2 POP DUP3 PUSH1 0x2 MUL DUP3 OR SWAP1 POP SWAP3 SWAP2 POP POP JUMP JUMPDEST PUSH3 0x494 DUP3 PUSH3 0x23E JUMP JUMPDEST PUSH8 0xFFFFFFFFFFFFFFFF DUP2 GT ISZERO PUSH3 0x4B0 JUMPI PUSH3 0x4AF PUSH3 0x7F JUMP JUMPDEST JUMPDEST PUSH3 0x4BC DUP3 SLOAD PUSH3 0x278 JUMP JUMPDEST PUSH3 0x4C9 DUP3 DUP3 DUP6 PUSH3 0x3EE JUMP JUMPDEST PUSH1 0x0 PUSH1 0x20 SWAP1 POP PUSH1 0x1F DUP4 GT PUSH1 0x1 DUP2 EQ PUSH3 0x501 JUMPI PUSH1 0x0 DUP5 ISZERO PUSH3 0x4EC JUMPI DUP3 DUP8 ADD MLOAD SWAP1 POP JUMPDEST PUSH3 0x4F8 DUP6 DUP3 PUSH3 0x46B JUMP JUMPDEST DUP7 SSTORE POP PUSH3 0x568 JUMP JUMPDEST PUSH1 0x1F NOT DUP5 AND PUSH3 0x511 DUP7 PUSH3 0x2AD JUMP JUMPDEST PUSH1 0x0 JUMPDEST DUP3 DUP2 LT ISZERO PUSH3 0x53B JUMPI DUP5 DUP10 ADD MLOAD DUP3 SSTORE PUSH1 0x1 DUP3 ADD SWAP2 POP PUSH1 0x20 DUP6 ADD SWAP5 POP PUSH1 0x20 DUP2 ADD SWAP1 POP PUSH3 0x514 JUMP JUMPDEST DUP7 DUP4 LT ISZERO PUSH3 0x55B JUMPI DUP5 DUP10 ADD MLOAD PUSH3 0x557 PUSH1 0x1F DUP10 AND DUP3 PUSH3 0x44B JUMP JUMPDEST DUP4 SSTORE POP JUMPDEST PUSH1 0x1 PUSH1 0x2 DUP9 MUL ADD DUP9 SSTORE POP POP POP JUMPDEST POP POP POP POP POP POP JUMP JUMPDEST PUSH2 0x685 DUP1 PUSH3 0x580 PUSH1 0x0 CODECOPY PUSH1 0x0 RETURN INVALID PUSH1 0x80 PUSH1 0x40 MSTORE CALLVALUE DUP1 ISZERO PUSH2 0x10 JUMPI PUSH1 0x0 DUP1 REVERT JUMPDEST POP PUSH1 0x4 CALLDATASIZE LT PUSH2 0x36 JUMPI PUSH1 0x0 CALLDATALOAD PUSH1 0xE0 SHR DUP1 PUSH4 0x17D7DE7C EQ PUSH2 0x3B JUMPI DUP1 PUSH4 0xC47F0027 EQ PUSH2 0x59 JUMPI JUMPDEST PUSH1 0x0 DUP1 REVERT JUMPDEST PUSH2 0x43 PUSH2 0x75 JUMP JUMPDEST PUSH1 0x40 MLOAD PUSH2 0x50 SWAP2 SWAP1 PUSH2 0x1B3 JUMP JUMPDEST PUSH1 0x40 MLOAD DUP1 SWAP2 SUB SWAP1 RETURN JUMPDEST PUSH2 0x73 PUSH1 0x4 DUP1 CALLDATASIZE SUB DUP2 ADD SWAP1 PUSH2 0x6E SWAP2 SWAP1 PUSH2 0x31E JUMP JUMPDEST PUSH2 0x107 JUMP JUMPDEST STOP JUMPDEST PUSH1 0x60 PUSH1 0x0 DUP1 SLOAD PUSH2 0x84 SWAP1 PUSH2 0x396 JUMP JUMPDEST DUP1 PUSH1 0x1F ADD PUSH1 0x20 DUP1 SWAP2 DIV MUL PUSH1 0x20 ADD PUSH1 0x40 MLOAD SWAP1 DUP2 ADD PUSH1 0x40 MSTORE DUP1 SWAP3 SWAP2 SWAP1 DUP2 DUP2 MSTORE PUSH1 0x20 ADD DUP3 DUP1 SLOAD PUSH2 0xB0 SWAP1 PUSH2 0x396 JUMP JUMPDEST DUP1 ISZERO PUSH2 0xFD JUMPI DUP1 PUSH1 0x1F LT PUSH2 0xD2 JUMPI PUSH2 0x100 DUP1 DUP4 SLOAD DIV MUL DUP4 MSTORE SWAP2 PUSH1 0x20 ADD SWAP2 PUSH2 0xFD JUMP JUMPDEST DUP3 ADD SWAP2 SWAP1 PUSH1 0x0 MSTORE PUSH1 0x20 PUSH1 0x0 KECCAK256 SWAP1 JUMPDEST DUP2 SLOAD DUP2 MSTORE SWAP1 PUSH1 0x1 ADD SWAP1 PUSH1 0x20 ADD DUP1 DUP4 GT PUSH2 0xE0 JUMPI DUP3 SWAP1 SUB PUSH1 0x1F AND DUP3 ADD SWAP2 JUMPDEST POP POP POP POP POP SWAP1 POP SWAP1 JUMP JUMPDEST DUP1 PUSH1 0x0 SWAP1 DUP2 PUSH2 0x116 SWAP2 SWAP1 PUSH2 0x57D JUMP JUMPDEST POP POP JUMP JUMPDEST PUSH1 0x0 DUP2 MLOAD SWAP1 POP SWAP2 SWAP1 POP JUMP JUMPDEST PUSH1 0x0 DUP3 DUP3 MSTORE PUSH1 0x20 DUP3 ADD SWAP1 POP SWAP3 SWAP2 POP POP JUMP JUMPDEST PUSH1 0x0 JUMPDEST DUP4 DUP2 LT ISZERO PUSH2 0x154 JUMPI DUP1 DUP3 ADD MLOAD DUP2 DUP5 ADD MSTORE PUSH1 0x20 DUP2 ADD SWAP1 POP PUSH2 0x139 JUMP JUMPDEST DUP4 DUP2 GT ISZERO PUSH2 0x163 JUMPI PUSH1 0x0 DUP5 DUP5 ADD MSTORE JUMPDEST POP POP POP POP JUMP JUMPDEST PUSH1 0x0 PUSH1 0x1F NOT PUSH1 0x1F DUP4 ADD AND SWAP1 POP SWAP2 SWAP1 POP JUMP JUMPDEST PUSH1 0x0 PUSH2 0x185 DUP3 PUSH2 0x11A JUMP JUMPDEST PUSH2 0x18F DUP2 DUP6 PUSH2 0x125 JUMP JUMPDEST SWAP4 POP PUSH2 0x19F DUP2 DUP6 PUSH1 0x20 DUP7 ADD PUSH2 0x136 JUMP JUMPDEST PUSH2 0x1A8 DUP2 PUSH2 0x169 JUMP JUMPDEST DUP5 ADD SWAP2 POP POP SWAP3 SWAP2 POP POP JUMP JUMPDEST PUSH1 0x0 PUSH1 0x20 DUP3 ADD SWAP1 POP DUP2 DUP2 SUB PUSH1 0x0 DUP4 ADD MSTORE PUSH2 0x1CD DUP2 DUP5 PUSH2 0x17A JUMP JUMPDEST SWAP1 POP SWAP3 SWAP2 POP POP JUMP JUMPDEST PUSH1 0x0 PUSH1 0x40 MLOAD SWAP1 POP SWAP1 JUMP JUMPDEST PUSH1 0x0 DUP1 REVERT JUMPDEST PUSH1 0x0 DUP1 REVERT JUMPDEST PUSH1 0x0 DUP1 REVERT JUMPDEST PUSH1 0x0 DUP1 REVERT JUMPDEST PUSH32 0x4E487B7100000000000000000000000000000000000000000000000000000000 PUSH1 0x0 MSTORE PUSH1 0x41 PUSH1 0x4 MSTORE PUSH1 0x24 PUSH1 0x0 REVERT JUMPDEST PUSH2 0x22B DUP3 PUSH2 0x169 JUMP JUMPDEST DUP2 ADD DUP2 DUP2 LT PUSH8 0xFFFFFFFFFFFFFFFF DUP3 GT OR ISZERO PUSH2 0x24A JUMPI PUSH2 0x249 PUSH2 0x1F3 JUMP JUMPDEST JUMPDEST DUP1 PUSH1 0x40 MSTORE POP POP POP JUMP JUMPDEST PUSH1 0x0 PUSH2 0x25D PUSH2 0x1D5 JUMP JUMPDEST SWAP1 POP PUSH2 0x269 DUP3 DUP3 PUSH2 0x222 JUMP JUMPDEST SWAP2 SWAP1 POP JUMP JUMPDEST PUSH1 0x0 PUSH8 0xFFFFFFFFFFFFFFFF DUP3 GT ISZERO PUSH2 0x289 JUMPI PUSH2 0x288 PUSH2 0x1F3 JUMP JUMPDEST JUMPDEST PUSH2 0x292 DUP3 PUSH2 0x169 JUMP JUMPDEST SWAP1 POP PUSH1 0x20 DUP2 ADD SWAP1 POP SWAP2 SWAP1 POP JUMP JUMPDEST DUP3 DUP2 DUP4 CALLDATACOPY PUSH1 0x0 DUP4 DUP4 ADD MSTORE POP POP POP JUMP JUMPDEST PUSH1 0x0 PUSH2 0x2C1 PUSH2 0x2BC DUP5 PUSH2 0x26E JUMP JUMPDEST PUSH2 0x253 JUMP JUMPDEST SWAP1 POP DUP3 DUP2 MSTORE PUSH1 0x20 DUP2 ADD DUP5 DUP5 DUP5 ADD GT ISZERO PUSH2 0x2DD JUMPI PUSH2 0x2DC PUSH2 0x1EE JUMP JUMPDEST JUMPDEST PUSH2 0x2E8 DUP5 DUP3 DUP6 PUSH2 0x29F JUMP JUMPDEST POP SWAP4 SWAP3 POP POP POP JUMP JUMPDEST PUSH1 0x0 DUP3 PUSH1 0x1F DUP4 ADD SLT PUSH2 0x305 JUMPI PUSH2 0x304 PUSH2 0x1E9 JUMP JUMPDEST JUMPDEST DUP2 CALLDATALOAD PUSH2 0x315 DUP5 DUP3 PUSH1 0x20 DUP7 ADD PUSH2 0x2AE JUMP JUMPDEST SWAP2 POP POP SWAP3 SWAP2 POP POP JUMP JUMPDEST PUSH1 0x0 PUSH1 0x20 DUP3 DUP5 SUB SLT ISZERO PUSH2 0x334 JUMPI PUSH2 0x333 PUSH2 0x1DF JUMP JUMPDEST JUMPDEST PUSH1 0x0 DUP3 ADD CALLDATALOAD PUSH8 0xFFFFFFFFFFFFFFFF DUP2 GT ISZERO PUSH2 0x352 JUMPI PUSH2 0x351 PUSH2 0x1E4 JUMP JUMPDEST JUMPDEST PUSH2 0x35E DUP5 DUP3 DUP6 ADD PUSH2 0x2F0 JUMP JUMPDEST SWAP2 POP POP SWAP3 SWAP2 POP POP JUMP JUMPDEST PUSH32 0x4E487B7100000000000000000000000000000000000000000000000000000000 PUSH1 0x0 MSTORE PUSH1 0x22 PUSH1 0x4 MSTORE PUSH1 0x24 PUSH1 0x0 REVERT JUMPDEST PUSH1 0x0 PUSH1 0x2 DUP3 DIV SWAP1 POP PUSH1 0x1 DUP3 AND DUP1 PUSH2 0x3AE JUMPI PUSH1 0x7F DUP3 AND SWAP2 POP JUMPDEST PUSH1 0x20 DUP3 LT DUP2 SUB PUSH2 0x3C1 JUMPI PUSH2 0x3C0 PUSH2 0x367 JUMP JUMPDEST JUMPDEST POP SWAP2 SWAP1 POP JUMP JUMPDEST PUSH1 0x0 DUP2 SWAP1 POP DUP2 PUSH1 0x0 MSTORE PUSH1 0x20 PUSH1 0x0 KECCAK256 SWAP1 POP SWAP2 SWAP1 POP JUMP JUMPDEST PUSH1 0x0 PUSH1 0x20 PUSH1 0x1F DUP4 ADD DIV SWAP1 POP SWAP2 SWAP1 POP JUMP JUMPDEST PUSH1 0x0 DUP3 DUP3 SHL SWAP1 POP SWAP3 SWAP2 POP POP JUMP JUMPDEST PUSH1 0x0 PUSH1 0x8 DUP4 MUL PUSH2 0x429 PUSH32 0xFFFFFFFFFFFFFFFFFFFFFFFFFFFFFFFFFFFFFFFFFFFFFFFFFFFFFFFFFFFFFFFF DUP3 PUSH2 0x3EC JUMP JUMPDEST PUSH2 0x433 DUP7 DUP4 PUSH2 0x3EC JUMP JUMPDEST SWAP6 POP DUP1 NOT DUP5 AND SWAP4 POP DUP1 DUP7 AND DUP5 OR SWAP3 POP POP POP SWAP4 SWAP3 POP POP POP JUMP JUMPDEST PUSH1 0x0 DUP2 SWAP1 POP SWAP2 SWAP1 POP JUMP JUMPDEST PUSH1 0x0 DUP2 SWAP1 POP SWAP2 SWAP1 POP JUMP JUMPDEST PUSH1 0x0 PUSH2 0x47A PUSH2 0x475 PUSH2 0x470 DUP5 PUSH2 0x44B JUMP JUMPDEST PUSH2 0x455 JUMP JUMPDEST PUSH2 0x44B JUMP JUMPDEST SWAP1 POP SWAP2 SWAP1 POP JUMP JUMPDEST PUSH1 0x0 DUP2 SWAP1 POP SWAP2 SWAP1 POP JUMP JUMPDEST PUSH2 0x494 DUP4 PUSH2 0x45F JUMP JUMPDEST PUSH2 0x4A8 PUSH2 0x4A0 DUP3 PUSH2 0x481 JUMP JUMPDEST DUP5 DUP5 SLOAD PUSH2 0x3F9 JUMP JUMPDEST DUP3 SSTORE POP POP POP POP JUMP JUMPDEST PUSH1 0x0 SWAP1 JUMP JUMPDEST PUSH2 0x4BD PUSH2 0x4B0 JUMP JUMPDEST PUSH2 0x4C8 DUP2 DUP5 DUP5 PUSH2 0x48B JUMP JUMPDEST POP POP POP JUMP JUMPDEST JUMPDEST DUP2 DUP2 LT ISZERO PUSH2 0x4EC JUMPI PUSH2 0x4E1 PUSH1 0x0 DUP3 PUSH2 0x4B5 JUMP JUMPDEST PUSH1 0x1 DUP2 ADD SWAP1 POP PUSH2 0x4CE JUMP JUMPDEST POP POP JUMP JUMPDEST PUSH1 0x1F DUP3 GT ISZERO PUSH2 0x531 JUMPI PUSH2 0x502 DUP2 PUSH2 0x3C7 JUMP JUMPDEST PUSH2 0x50B DUP5 PUSH2 0x3DC JUMP JUMPDEST DUP2 ADD PUSH1 0x20 DUP6 LT ISZERO PUSH2 0x51A JUMPI DUP2 SWAP1 POP JUMPDEST PUSH2 0x52E PUSH2 0x526 DUP6 PUSH2 0x3DC JUMP JUMPDEST DUP4 ADD DUP3 PUSH2 0x4CD JUMP JUMPDEST POP POP JUMPDEST POP POP POP JUMP JUMPDEST PUSH1 0x0 DUP3 DUP3 SHR SWAP1 POP SWAP3 SWAP2 POP POP JUMP JUMPDEST PUSH1 0x0 PUSH2 0x554 PUSH1 0x0 NOT DUP5 PUSH1 0x8 MUL PUSH2 0x536 JUMP JUMPDEST NOT DUP1 DUP4 AND SWAP2 POP POP SWAP3 SWAP2 POP POP JUMP JUMPDEST PUSH1 0x0 PUSH2 0x56D DUP4 DUP4 PUSH2 0x543 JUMP JUMPDEST SWAP2 POP DUP3 PUSH1 0x2 MUL DUP3 OR SWAP1 POP SWAP3 SWAP2 POP POP JUMP JUMPDEST PUSH2 0x586 DUP3 PUSH2 0x11A JUMP JUMPDEST PUSH8 0xFFFFFFFFFFFFFFFF DUP2 GT ISZERO PUSH2 0x59F JUMPI PUSH2 0x59E PUSH2 0x1F3 JUMP JUMPDEST JUMPDEST PUSH2 0x5A9 DUP3 SLOAD PUSH2 0x396 JUMP JUMPDEST PUSH2 0x5B4 DUP3 DUP3 DUP6 PUSH2 0x4F0 JUMP JUMPDEST PUSH1 0x0 PUSH1 0x20 SWAP1 POP PUSH1 0x1F DUP4 GT PUSH1 0x1 DUP2 EQ PUSH2 0x5E7 JUMPI PUSH1 0x0 DUP5 ISZERO PUSH2 0x5D5 JUMPI DUP3 DUP8 ADD MLOAD SWAP1 POP JUMPDEST PUSH2 0x5DF DUP6 DUP3 PUSH2 0x561 JUMP JUMPDEST DUP7 SSTORE POP PUSH2 0x647 JUMP JUMPDEST PUSH1 0x1F NOT DUP5 AND PUSH2 0x5F5 DUP7 PUSH2 0x3C7 JUMP JUMPDEST PUSH1 0x0 JUMPDEST DUP3 DUP2 LT ISZERO PUSH2 0x61D JUMPI DUP5 DUP10 ADD MLOAD DUP3 SSTORE PUSH1 0x1 DUP3 ADD SWAP2 POP PUSH1 0x20 DUP6 ADD SWAP5 POP PUSH1 0x20 DUP2 ADD SWAP1 POP PUSH2 0x5F8 JUMP JUMPDEST DUP7 DUP4 LT ISZERO PUSH2 0x63A JUMPI DUP5 DUP10 ADD MLOAD PUSH2 0x636 PUSH1 0x1F DUP10 AND DUP3 PUSH2 0x543 JUMP JUMPDEST DUP4 SSTORE POP JUMPDEST PUSH1 0x1 PUSH1 0x2 DUP9 MUL ADD DUP9 SSTORE POP POP POP JUMPDEST POP POP POP POP POP POP JUMP INVALID LOG2 PUSH5 0x6970667358 0x22 SLT KECCAK256 0xAF 0xE2 PUSH18 0x26C890C1654E1146CE754DBEE559F25C3BA2 LOG0 SELFBALANCE 0x21 DIV 0xDB SSTORE 0x2F PUSH15 0x427FAB64736F6C634300080F003300 "
				},
				"gasEstimates": {
					"creation": {
						"codeDepositCost": "333800",
						"executionCost": "infinite",
						"totalCost": "infinite"
					},
					"external": {
						"getName()": "infinite",
						"setName(string)": "infinite"
					}
				},
				"methodIdentifiers": {
					"getName()": "17d7de7c",
					"setName(string)": "c47f0027"
				}
			},
			"storageLayout": {
				"storage": [
					{
						"astId": 3,
						"contract": "contracts/artifacts/enum.sol:HelloWorld",
						"label": "name",
						"offset": 0,
						"slot": "0",
						"type": "t_string_storage"
					}
				],
				"types": {
					"t_string_storage": {
						"encoding": "bytes",
						"label": "string",
						"numberOfBytes": "32"
					}
				}
			},
			"userdoc": {
				"kind": "user",
				"methods": {},
				"version": 1
			}
		}
	}
}