{
	"contracts/artifacts/enum.sol": {
		"Enum": {
			"abi": [
				{
					"inputs": [],
					"name": "accept",
					"outputs": [],
					"stateMutability": "nonpayable",
					"type": "function"
				},
				{
					"inputs": [],
					"name": "day",
					"outputs": [
						{
							"internalType": "enum Enum.Days",
							"name": "",
							"type": "uint8"
						}
					],
					"stateMutability": "view",
					"type": "function"
				},
				{
					"inputs": [],
					"name": "getStatus",
					"outputs": [
						{
							"internalType": "enum Enum.Status",
							"name": "",
							"type": "uint8"
						}
					],
					"stateMutability": "view",
					"type": "function"
				},
				{
					"inputs": [],
					"name": "ship",
					"outputs": [],
					"stateMutability": "nonpayable",
					"type": "function"
				}
			],
			"devdoc": {
				"kind": "dev",
				"methods": {},
				"version": 1
			},
			"evm": {
				"assembly": "    /* \"contracts/artifacts/enum.sol\":26:705  contract Enum {... */\n  mstore(0x40, 0x80)\n    /* \"contracts/artifacts/enum.sol\":271:279  Days.Mon */\n  0x01\n    /* \"contracts/artifacts/enum.sol\":253:279  Days public day = Days.Mon */\n  0x00\n  dup1\n  0x0100\n  exp\n  dup2\n  sload\n  dup2\n  0xff\n  mul\n  not\n  and\n  swap1\n  dup4\n  0x06\n  dup2\n  gt\n  iszero\n  tag_1\n  jumpi\n  tag_2\n  tag_3\n  jump\t// in\ntag_2:\ntag_1:\n  mul\n  or\n  swap1\n  sstore\n  pop\n    /* \"contracts/artifacts/enum.sol\":26:705  contract Enum {... */\n  callvalue\n  dup1\n  iszero\n  tag_4\n  jumpi\n  0x00\n  dup1\n  revert\ntag_4:\n  pop\n  jump(tag_5)\n    /* \"#utility.yul\":7:187   */\ntag_3:\n    /* \"#utility.yul\":55:132   */\n  0x4e487b7100000000000000000000000000000000000000000000000000000000\n    /* \"#utility.yul\":52:53   */\n  0x00\n    /* \"#utility.yul\":45:133   */\n  mstore\n    /* \"#utility.yul\":152:156   */\n  0x21\n    /* \"#utility.yul\":149:150   */\n  0x04\n    /* \"#utility.yul\":142:157   */\n  mstore\n    /* \"#utility.yul\":176:180   */\n  0x24\n    /* \"#utility.yul\":173:174   */\n  0x00\n    /* \"#utility.yul\":166:181   */\n  revert\n    /* \"contracts/artifacts/enum.sol\":26:705  contract Enum {... */\ntag_5:\n  dataSize(sub_0)\n  dup1\n  dataOffset(sub_0)\n  0x00\n  codecopy\n  0x00\n  return\nstop\n\nsub_0: assembly {\n        /* \"contracts/artifacts/enum.sol\":26:705  contract Enum {... */\n      mstore(0x40, 0x80)\n      callvalue\n      dup1\n      iszero\n      tag_1\n      jumpi\n      0x00\n      dup1\n      revert\n    tag_1:\n      pop\n      jumpi(tag_2, lt(calldatasize, 0x04))\n      shr(0xe0, calldataload(0x00))\n      dup1\n      0x2852b71c\n      eq\n      tag_3\n      jumpi\n      dup1\n      0x4e69d560\n      eq\n      tag_4\n      jumpi\n      dup1\n      0x7b76ac91\n      eq\n      tag_5\n      jumpi\n      dup1\n      0xb6bef7b3\n      eq\n      tag_6\n      jumpi\n    tag_2:\n      0x00\n      dup1\n      revert\n        /* \"contracts/artifacts/enum.sol\":552:703  function accept() public {... */\n    tag_3:\n      tag_7\n      tag_8\n      jump\t// in\n    tag_7:\n      stop\n        /* \"contracts/artifacts/enum.sol\":314:393  function getStatus() public view returns(Status) {... */\n    tag_4:\n      tag_9\n      tag_10\n      jump\t// in\n    tag_9:\n      mload(0x40)\n      tag_11\n      swap2\n      swap1\n      tag_12\n      jump\t// in\n    tag_11:\n      mload(0x40)\n      dup1\n      swap2\n      sub\n      swap1\n      return\n        /* \"contracts/artifacts/enum.sol\":253:279  Days public day = Days.Mon */\n    tag_5:\n      tag_13\n      tag_14\n      jump\t// in\n    tag_13:\n      mload(0x40)\n      tag_15\n      swap2\n      swap1\n      tag_16\n      jump\t// in\n    tag_15:\n      mload(0x40)\n      dup1\n      swap2\n      sub\n      swap1\n      return\n        /* \"contracts/artifacts/enum.sol\":399:546  function ship() public {... */\n    tag_6:\n      tag_17\n      tag_18\n      jump\t// in\n    tag_17:\n      stop\n        /* \"contracts/artifacts/enum.sol\":552:703  function accept() public {... */\n    tag_8:\n        /* \"contracts/artifacts/enum.sol\":605:619  Status.Shipped */\n      0x01\n        /* \"contracts/artifacts/enum.sol\":595:619  status == Status.Shipped */\n      0x03\n      dup2\n      gt\n      iszero\n      tag_20\n      jumpi\n      tag_21\n      tag_22\n      jump\t// in\n    tag_21:\n    tag_20:\n        /* \"contracts/artifacts/enum.sol\":595:601  status */\n      0x00\n      0x01\n      swap1\n      sload\n      swap1\n      0x0100\n      exp\n      swap1\n      div\n      0xff\n      and\n        /* \"contracts/artifacts/enum.sol\":595:619  status == Status.Shipped */\n      0x03\n      dup2\n      gt\n      iszero\n      tag_23\n      jumpi\n      tag_24\n      tag_22\n      jump\t// in\n    tag_24:\n    tag_23:\n      eq\n        /* \"contracts/artifacts/enum.sol\":587:662  require(status == Status.Shipped, \"Status must be Shipped before Accepted\") */\n      tag_25\n      jumpi\n      mload(0x40)\n      0x08c379a000000000000000000000000000000000000000000000000000000000\n      dup2\n      mstore\n      0x04\n      add\n      tag_26\n      swap1\n      tag_27\n      jump\t// in\n    tag_26:\n      mload(0x40)\n      dup1\n      swap2\n      sub\n      swap1\n      revert\n    tag_25:\n        /* \"contracts/artifacts/enum.sol\":681:696  Status.Accepted */\n      0x02\n        /* \"contracts/artifacts/enum.sol\":672:678  status */\n      0x00\n      0x01\n        /* \"contracts/artifacts/enum.sol\":672:696  status = Status.Accepted */\n      0x0100\n      exp\n      dup2\n      sload\n      dup2\n      0xff\n      mul\n      not\n      and\n      swap1\n      dup4\n      0x03\n      dup2\n      gt\n      iszero\n      tag_28\n      jumpi\n      tag_29\n      tag_22\n      jump\t// in\n    tag_29:\n    tag_28:\n      mul\n      or\n      swap1\n      sstore\n      pop\n        /* \"contracts/artifacts/enum.sol\":552:703  function accept() public {... */\n      jump\t// out\n        /* \"contracts/artifacts/enum.sol\":314:393  function getStatus() public view returns(Status) {... */\n    tag_10:\n        /* \"contracts/artifacts/enum.sol\":355:361  Status */\n      0x00\n        /* \"contracts/artifacts/enum.sol\":380:386  status */\n      dup1\n      0x01\n      swap1\n      sload\n      swap1\n      0x0100\n      exp\n      swap1\n      div\n      0xff\n      and\n        /* \"contracts/artifacts/enum.sol\":373:386  return status */\n      swap1\n      pop\n        /* \"contracts/artifacts/enum.sol\":314:393  function getStatus() public view returns(Status) {... */\n      swap1\n      jump\t// out\n        /* \"contracts/artifacts/enum.sol\":253:279  Days public day = Days.Mon */\n    tag_14:\n      0x00\n      dup1\n      sload\n      swap1\n      0x0100\n      exp\n      swap1\n      div\n      0xff\n      and\n      dup2\n      jump\t// out\n        /* \"contracts/artifacts/enum.sol\":399:546  function ship() public {... */\n    tag_18:\n        /* \"contracts/artifacts/enum.sol\":450:464  Status.Pending */\n      0x00\n        /* \"contracts/artifacts/enum.sol\":440:464  status == Status.Pending */\n      0x03\n      dup2\n      gt\n      iszero\n      tag_32\n      jumpi\n      tag_33\n      tag_22\n      jump\t// in\n    tag_33:\n    tag_32:\n        /* \"contracts/artifacts/enum.sol\":440:446  status */\n      0x00\n      0x01\n      swap1\n      sload\n      swap1\n      0x0100\n      exp\n      swap1\n      div\n      0xff\n      and\n        /* \"contracts/artifacts/enum.sol\":440:464  status == Status.Pending */\n      0x03\n      dup2\n      gt\n      iszero\n      tag_34\n      jumpi\n      tag_35\n      tag_22\n      jump\t// in\n    tag_35:\n    tag_34:\n      eq\n        /* \"contracts/artifacts/enum.sol\":432:506  require(status == Status.Pending, \"Status must be Pending before Shipped\") */\n      tag_36\n      jumpi\n      mload(0x40)\n      0x08c379a000000000000000000000000000000000000000000000000000000000\n      dup2\n      mstore\n      0x04\n      add\n      tag_37\n      swap1\n      tag_38\n      jump\t// in\n    tag_37:\n      mload(0x40)\n      dup1\n      swap2\n      sub\n      swap1\n      revert\n    tag_36:\n        /* \"contracts/artifacts/enum.sol\":525:539  Status.Shipped */\n      0x01\n        /* \"contracts/artifacts/enum.sol\":516:522  status */\n      0x00\n      0x01\n        /* \"contracts/artifacts/enum.sol\":516:539  status = Status.Shipped */\n      0x0100\n      exp\n      dup2\n      sload\n      dup2\n      0xff\n      mul\n      not\n      and\n      swap1\n      dup4\n      0x03\n      dup2\n      gt\n      iszero\n      tag_39\n      jumpi\n      tag_40\n      tag_22\n      jump\t// in\n    tag_40:\n    tag_39:\n      mul\n      or\n      swap1\n      sstore\n      pop\n        /* \"contracts/artifacts/enum.sol\":399:546  function ship() public {... */\n      jump\t// out\n        /* \"#utility.yul\":7:187   */\n    tag_22:\n        /* \"#utility.yul\":55:132   */\n      0x4e487b7100000000000000000000000000000000000000000000000000000000\n        /* \"#utility.yul\":52:53   */\n      0x00\n        /* \"#utility.yul\":45:133   */\n      mstore\n        /* \"#utility.yul\":152:156   */\n      0x21\n        /* \"#utility.yul\":149:150   */\n      0x04\n        /* \"#utility.yul\":142:157   */\n      mstore\n        /* \"#utility.yul\":176:180   */\n      0x24\n        /* \"#utility.yul\":173:174   */\n      0x00\n        /* \"#utility.yul\":166:181   */\n      revert\n        /* \"#utility.yul\":193:307   */\n    tag_41:\n        /* \"#utility.yul\":275:276   */\n      0x04\n        /* \"#utility.yul\":268:273   */\n      dup2\n        /* \"#utility.yul\":265:277   */\n      lt\n        /* \"#utility.yul\":255:301   */\n      tag_57\n      jumpi\n        /* \"#utility.yul\":281:299   */\n      tag_58\n      tag_22\n      jump\t// in\n    tag_58:\n        /* \"#utility.yul\":255:301   */\n    tag_57:\n        /* \"#utility.yul\":193:307   */\n      pop\n      jump\t// out\n        /* \"#utility.yul\":313:442   */\n    tag_42:\n        /* \"#utility.yul\":359:366   */\n      0x00\n        /* \"#utility.yul\":388:393   */\n      dup2\n        /* \"#utility.yul\":377:393   */\n      swap1\n      pop\n        /* \"#utility.yul\":394:436   */\n      tag_60\n        /* \"#utility.yul\":430:435   */\n      dup3\n        /* \"#utility.yul\":394:436   */\n      tag_41\n      jump\t// in\n    tag_60:\n        /* \"#utility.yul\":313:442   */\n      swap2\n      swap1\n      pop\n      jump\t// out\n        /* \"#utility.yul\":448:577   */\n    tag_43:\n        /* \"#utility.yul\":505:514   */\n      0x00\n        /* \"#utility.yul\":538:571   */\n      tag_62\n        /* \"#utility.yul\":565:570   */\n      dup3\n        /* \"#utility.yul\":538:571   */\n      tag_42\n      jump\t// in\n    tag_62:\n        /* \"#utility.yul\":525:571   */\n      swap1\n      pop\n        /* \"#utility.yul\":448:577   */\n      swap2\n      swap1\n      pop\n      jump\t// out\n        /* \"#utility.yul\":583:728   */\n    tag_44:\n        /* \"#utility.yul\":677:721   */\n      tag_64\n        /* \"#utility.yul\":715:720   */\n      dup2\n        /* \"#utility.yul\":677:721   */\n      tag_43\n      jump\t// in\n    tag_64:\n        /* \"#utility.yul\":672:675   */\n      dup3\n        /* \"#utility.yul\":665:722   */\n      mstore\n        /* \"#utility.yul\":583:728   */\n      pop\n      pop\n      jump\t// out\n        /* \"#utility.yul\":734:970   */\n    tag_12:\n        /* \"#utility.yul\":834:838   */\n      0x00\n        /* \"#utility.yul\":872:874   */\n      0x20\n        /* \"#utility.yul\":861:870   */\n      dup3\n        /* \"#utility.yul\":857:875   */\n      add\n        /* \"#utility.yul\":849:875   */\n      swap1\n      pop\n        /* \"#utility.yul\":885:963   */\n      tag_66\n        /* \"#utility.yul\":960:961   */\n      0x00\n        /* \"#utility.yul\":949:958   */\n      dup4\n        /* \"#utility.yul\":945:962   */\n      add\n        /* \"#utility.yul\":936:942   */\n      dup5\n        /* \"#utility.yul\":885:963   */\n      tag_44\n      jump\t// in\n    tag_66:\n        /* \"#utility.yul\":734:970   */\n      swap3\n      swap2\n      pop\n      pop\n      jump\t// out\n        /* \"#utility.yul\":976:1087   */\n    tag_45:\n        /* \"#utility.yul\":1055:1056   */\n      0x07\n        /* \"#utility.yul\":1048:1053   */\n      dup2\n        /* \"#utility.yul\":1045:1057   */\n      lt\n        /* \"#utility.yul\":1035:1081   */\n      tag_68\n      jumpi\n        /* \"#utility.yul\":1061:1079   */\n      tag_69\n      tag_22\n      jump\t// in\n    tag_69:\n        /* \"#utility.yul\":1035:1081   */\n    tag_68:\n        /* \"#utility.yul\":976:1087   */\n      pop\n      jump\t// out\n        /* \"#utility.yul\":1093:1216   */\n    tag_46:\n        /* \"#utility.yul\":1136:1143   */\n      0x00\n        /* \"#utility.yul\":1165:1170   */\n      dup2\n        /* \"#utility.yul\":1154:1170   */\n      swap1\n      pop\n        /* \"#utility.yul\":1171:1210   */\n      tag_71\n        /* \"#utility.yul\":1204:1209   */\n      dup3\n        /* \"#utility.yul\":1171:1210   */\n      tag_45\n      jump\t// in\n    tag_71:\n        /* \"#utility.yul\":1093:1216   */\n      swap2\n      swap1\n      pop\n      jump\t// out\n        /* \"#utility.yul\":1222:1345   */\n    tag_47:\n        /* \"#utility.yul\":1276:1285   */\n      0x00\n        /* \"#utility.yul\":1309:1339   */\n      tag_73\n        /* \"#utility.yul\":1333:1338   */\n      dup3\n        /* \"#utility.yul\":1309:1339   */\n      tag_46\n      jump\t// in\n    tag_73:\n        /* \"#utility.yul\":1296:1339   */\n      swap1\n      pop\n        /* \"#utility.yul\":1222:1345   */\n      swap2\n      swap1\n      pop\n      jump\t// out\n        /* \"#utility.yul\":1351:1490   */\n    tag_48:\n        /* \"#utility.yul\":1442:1483   */\n      tag_75\n        /* \"#utility.yul\":1477:1482   */\n      dup2\n        /* \"#utility.yul\":1442:1483   */\n      tag_47\n      jump\t// in\n    tag_75:\n        /* \"#utility.yul\":1437:1440   */\n      dup3\n        /* \"#utility.yul\":1430:1484   */\n      mstore\n        /* \"#utility.yul\":1351:1490   */\n      pop\n      pop\n      jump\t// out\n        /* \"#utility.yul\":1496:1726   */\n    tag_16:\n        /* \"#utility.yul\":1593:1597   */\n      0x00\n        /* \"#utility.yul\":1631:1633   */\n      0x20\n        /* \"#utility.yul\":1620:1629   */\n      dup3\n        /* \"#utility.yul\":1616:1634   */\n      add\n        /* \"#utility.yul\":1608:1634   */\n      swap1\n      pop\n        /* \"#utility.yul\":1644:1719   */\n      tag_77\n        /* \"#utility.yul\":1716:1717   */\n      0x00\n        /* \"#utility.yul\":1705:1714   */\n      dup4\n        /* \"#utility.yul\":1701:1718   */\n      add\n        /* \"#utility.yul\":1692:1698   */\n      dup5\n        /* \"#utility.yul\":1644:1719   */\n      tag_48\n      jump\t// in\n    tag_77:\n        /* \"#utility.yul\":1496:1726   */\n      swap3\n      swap2\n      pop\n      pop\n      jump\t// out\n        /* \"#utility.yul\":1732:1901   */\n    tag_49:\n        /* \"#utility.yul\":1816:1827   */\n      0x00\n        /* \"#utility.yul\":1850:1856   */\n      dup3\n        /* \"#utility.yul\":1845:1848   */\n      dup3\n        /* \"#utility.yul\":1838:1857   */\n      mstore\n        /* \"#utility.yul\":1890:1894   */\n      0x20\n        /* \"#utility.yul\":1885:1888   */\n      dup3\n        /* \"#utility.yul\":1881:1895   */\n      add\n        /* \"#utility.yul\":1866:1895   */\n      swap1\n      pop\n        /* \"#utility.yul\":1732:1901   */\n      swap3\n      swap2\n      pop\n      pop\n      jump\t// out\n        /* \"#utility.yul\":1907:2132   */\n    tag_50:\n        /* \"#utility.yul\":2047:2081   */\n      0x537461747573206d7573742062652053686970706564206265666f7265204163\n        /* \"#utility.yul\":2043:2044   */\n      0x00\n        /* \"#utility.yul\":2035:2041   */\n      dup3\n        /* \"#utility.yul\":2031:2045   */\n      add\n        /* \"#utility.yul\":2024:2082   */\n      mstore\n        /* \"#utility.yul\":2116:2124   */\n      0x6365707465640000000000000000000000000000000000000000000000000000\n        /* \"#utility.yul\":2111:2113   */\n      0x20\n        /* \"#utility.yul\":2103:2109   */\n      dup3\n        /* \"#utility.yul\":2099:2114   */\n      add\n        /* \"#utility.yul\":2092:2125   */\n      mstore\n        /* \"#utility.yul\":1907:2132   */\n      pop\n      jump\t// out\n        /* \"#utility.yul\":2138:2504   */\n    tag_51:\n        /* \"#utility.yul\":2280:2283   */\n      0x00\n        /* \"#utility.yul\":2301:2368   */\n      tag_81\n        /* \"#utility.yul\":2365:2367   */\n      0x26\n        /* \"#utility.yul\":2360:2363   */\n      dup4\n        /* \"#utility.yul\":2301:2368   */\n      tag_49\n      jump\t// in\n    tag_81:\n        /* \"#utility.yul\":2294:2368   */\n      swap2\n      pop\n        /* \"#utility.yul\":2377:2470   */\n      tag_82\n        /* \"#utility.yul\":2466:2469   */\n      dup3\n        /* \"#utility.yul\":2377:2470   */\n      tag_50\n      jump\t// in\n    tag_82:\n        /* \"#utility.yul\":2495:2497   */\n      0x40\n        /* \"#utility.yul\":2490:2493   */\n      dup3\n        /* \"#utility.yul\":2486:2498   */\n      add\n        /* \"#utility.yul\":2479:2498   */\n      swap1\n      pop\n        /* \"#utility.yul\":2138:2504   */\n      swap2\n      swap1\n      pop\n      jump\t// out\n        /* \"#utility.yul\":2510:2929   */\n    tag_27:\n        /* \"#utility.yul\":2676:2680   */\n      0x00\n        /* \"#utility.yul\":2714:2716   */\n      0x20\n        /* \"#utility.yul\":2703:2712   */\n      dup3\n        /* \"#utility.yul\":2699:2717   */\n      add\n        /* \"#utility.yul\":2691:2717   */\n      swap1\n      pop\n        /* \"#utility.yul\":2763:2772   */\n      dup2\n        /* \"#utility.yul\":2757:2761   */\n      dup2\n        /* \"#utility.yul\":2753:2773   */\n      sub\n        /* \"#utility.yul\":2749:2750   */\n      0x00\n        /* \"#utility.yul\":2738:2747   */\n      dup4\n        /* \"#utility.yul\":2734:2751   */\n      add\n        /* \"#utility.yul\":2727:2774   */\n      mstore\n        /* \"#utility.yul\":2791:2922   */\n      tag_84\n        /* \"#utility.yul\":2917:2921   */\n      dup2\n        /* \"#utility.yul\":2791:2922   */\n      tag_51\n      jump\t// in\n    tag_84:\n        /* \"#utility.yul\":2783:2922   */\n      swap1\n      pop\n        /* \"#utility.yul\":2510:2929   */\n      swap2\n      swap1\n      pop\n      jump\t// out\n        /* \"#utility.yul\":2935:3159   */\n    tag_52:\n        /* \"#utility.yul\":3075:3109   */\n      0x537461747573206d7573742062652050656e64696e67206265666f7265205368\n        /* \"#utility.yul\":3071:3072   */\n      0x00\n        /* \"#utility.yul\":3063:3069   */\n      dup3\n        /* \"#utility.yul\":3059:3073   */\n      add\n        /* \"#utility.yul\":3052:3110   */\n      mstore\n        /* \"#utility.yul\":3144:3151   */\n      0x6970706564000000000000000000000000000000000000000000000000000000\n        /* \"#utility.yul\":3139:3141   */\n      0x20\n        /* \"#utility.yul\":3131:3137   */\n      dup3\n        /* \"#utility.yul\":3127:3142   */\n      add\n        /* \"#utility.yul\":3120:3152   */\n      mstore\n        /* \"#utility.yul\":2935:3159   */\n      pop\n      jump\t// out\n        /* \"#utility.yul\":3165:3531   */\n    tag_53:\n        /* \"#utility.yul\":3307:3310   */\n      0x00\n        /* \"#utility.yul\":3328:3395   */\n      tag_87\n        /* \"#utility.yul\":3392:3394   */\n      0x25\n        /* \"#utility.yul\":3387:3390   */\n      dup4\n        /* \"#utility.yul\":3328:3395   */\n      tag_49\n      jump\t// in\n    tag_87:\n        /* \"#utility.yul\":3321:3395   */\n      swap2\n      pop\n        /* \"#utility.yul\":3404:3497   */\n      tag_88\n        /* \"#utility.yul\":3493:3496   */\n      dup3\n        /* \"#utility.yul\":3404:3497   */\n      tag_52\n      jump\t// in\n    tag_88:\n        /* \"#utility.yul\":3522:3524   */\n      0x40\n        /* \"#utility.yul\":3517:3520   */\n      dup3\n        /* \"#utility.yul\":3513:3525   */\n      add\n        /* \"#utility.yul\":3506:3525   */\n      swap1\n      pop\n        /* \"#utility.yul\":3165:3531   */\n      swap2\n      swap1\n      pop\n      jump\t// out\n        /* \"#utility.yul\":3537:3956   */\n    tag_38:\n        /* \"#utility.yul\":3703:3707   */\n      0x00\n        /* \"#utility.yul\":3741:3743   */\n      0x20\n        /* \"#utility.yul\":3730:3739   */\n      dup3\n        /* \"#utility.yul\":3726:3744   */\n      add\n        /* \"#utility.yul\":3718:3744   */\n      swap1\n      pop\n        /* \"#utility.yul\":3790:3799   */\n      dup2\n        /* \"#utility.yul\":3784:3788   */\n      dup2\n        /* \"#utility.yul\":3780:3800   */\n      sub\n        /* \"#utility.yul\":3776:3777   */\n      0x00\n        /* \"#utility.yul\":3765:3774   */\n      dup4\n        /* \"#utility.yul\":3761:3778   */\n      add\n        /* \"#utility.yul\":3754:3801   */\n      mstore\n        /* \"#utility.yul\":3818:3949   */\n      tag_90\n        /* \"#utility.yul\":3944:3948   */\n      dup2\n        /* \"#utility.yul\":3818:3949   */\n      tag_53\n      jump\t// in\n    tag_90:\n        /* \"#utility.yul\":3810:3949   */\n      swap1\n      pop\n        /* \"#utility.yul\":3537:3956   */\n      swap2\n      swap1\n      pop\n      jump\t// out\n\n    auxdata: 0xa2646970667358221220f9571c4f09b163e0fd0b7c3b9e57c23aaf08933896792a996bc835fd237aa14c64736f6c634300080f0033\n}\n",
				"bytecode": {
					"linkReferences": {},
					"object": "608060405260016000806101000a81548160ff0219169083600681111561002957610028610040565b5b021790555034801561003a57600080fd5b5061006f565b7f4e487b7100000000000000000000000000000000000000000000000000000000600052602160045260246000fd5b61046e8061007e6000396000f3fe608060405234801561001057600080fd5b506004361061004c5760003560e01c80632852b71c146100515780634e69d5601461005b5780637b76ac9114610079578063b6bef7b314610097575b600080fd5b6100596100a1565b005b610063610144565b6040516100709190610285565b60405180910390f35b61008161015a565b60405161008e91906102e8565b60405180910390f35b61009f61016b565b005b600160038111156100b5576100b461020e565b5b600060019054906101000a900460ff1660038111156100d7576100d661020e565b5b14610117576040517f08c379a000000000000000000000000000000000000000000000000000000000815260040161010e90610386565b60405180910390fd5b6002600060016101000a81548160ff0219169083600381111561013d5761013c61020e565b5b0217905550565b60008060019054906101000a900460ff16905090565b60008054906101000a900460ff1681565b6000600381111561017f5761017e61020e565b5b600060019054906101000a900460ff1660038111156101a1576101a061020e565b5b146101e1576040517f08c379a00000000000000000000000000000000000000000000000000000000081526004016101d890610418565b60405180910390fd5b6001600060016101000a81548160ff021916908360038111156102075761020661020e565b5b0217905550565b7f4e487b7100000000000000000000000000000000000000000000000000000000600052602160045260246000fd5b6004811061024e5761024d61020e565b5b50565b600081905061025f8261023d565b919050565b600061026f82610251565b9050919050565b61027f81610264565b82525050565b600060208201905061029a6000830184610276565b92915050565b600781106102b1576102b061020e565b5b50565b60008190506102c2826102a0565b919050565b60006102d2826102b4565b9050919050565b6102e2816102c7565b82525050565b60006020820190506102fd60008301846102d9565b92915050565b600082825260208201905092915050565b7f537461747573206d7573742062652053686970706564206265666f726520416360008201527f6365707465640000000000000000000000000000000000000000000000000000602082015250565b6000610370602683610303565b915061037b82610314565b604082019050919050565b6000602082019050818103600083015261039f81610363565b9050919050565b7f537461747573206d7573742062652050656e64696e67206265666f726520536860008201527f6970706564000000000000000000000000000000000000000000000000000000602082015250565b6000610402602583610303565b915061040d826103a6565b604082019050919050565b60006020820190508181036000830152610431816103f5565b905091905056fea2646970667358221220f9571c4f09b163e0fd0b7c3b9e57c23aaf08933896792a996bc835fd237aa14c64736f6c634300080f0033",
					"opcodes": "PUSH1 0x80 PUSH1 0x40 MSTORE PUSH1 0x1 PUSH1 0x0 DUP1 PUSH2 0x100 EXP DUP2 SLOAD DUP2 PUSH1 0xFF MUL NOT AND SWAP1 DUP4 PUSH1 0x6 DUP2 GT ISZERO PUSH2 0x29 JUMPI PUSH2 0x28 PUSH2 0x40 JUMP JUMPDEST JUMPDEST MUL OR SWAP1 SSTORE POP CALLVALUE DUP1 ISZERO PUSH2 0x3A JUMPI PUSH1 0x0 DUP1 REVERT JUMPDEST POP PUSH2 0x6F JUMP JUMPDEST PUSH32 0x4E487B7100000000000000000000000000000000000000000000000000000000 PUSH1 0x0 MSTORE PUSH1 0x21 PUSH1 0x4 MSTORE PUSH1 0x24 PUSH1 0x0 REVERT JUMPDEST PUSH2 0x46E DUP1 PUSH2 0x7E PUSH1 0x0 CODECOPY PUSH1 0x0 RETURN INVALID PUSH1 0x80 PUSH1 0x40 MSTORE CALLVALUE DUP1 ISZERO PUSH2 0x10 JUMPI PUSH1 0x0 DUP1 REVERT JUMPDEST POP PUSH1 0x4 CALLDATASIZE LT PUSH2 0x4C JUMPI PUSH1 0x0 CALLDATALOAD PUSH1 0xE0 SHR DUP1 PUSH4 0x2852B71C EQ PUSH2 0x51 JUMPI DUP1 PUSH4 0x4E69D560 EQ PUSH2 0x5B JUMPI DUP1 PUSH4 0x7B76AC91 EQ PUSH2 0x79 JUMPI DUP1 PUSH4 0xB6BEF7B3 EQ PUSH2 0x97 JUMPI JUMPDEST PUSH1 0x0 DUP1 REVERT JUMPDEST PUSH2 0x59 PUSH2 0xA1 JUMP JUMPDEST STOP JUMPDEST PUSH2 0x63 PUSH2 0x144 JUMP JUMPDEST PUSH1 0x40 MLOAD PUSH2 0x70 SWAP2 SWAP1 PUSH2 0x285 JUMP JUMPDEST PUSH1 0x40 MLOAD DUP1 SWAP2 SUB SWAP1 RETURN JUMPDEST PUSH2 0x81 PUSH2 0x15A JUMP JUMPDEST PUSH1 0x40 MLOAD PUSH2 0x8E SWAP2 SWAP1 PUSH2 0x2E8 JUMP JUMPDEST PUSH1 0x40 MLOAD DUP1 SWAP2 SUB SWAP1 RETURN JUMPDEST PUSH2 0x9F PUSH2 0x16B JUMP JUMPDEST STOP JUMPDEST PUSH1 0x1 PUSH1 0x3 DUP2 GT ISZERO PUSH2 0xB5 JUMPI PUSH2 0xB4 PUSH2 0x20E JUMP JUMPDEST JUMPDEST PUSH1 0x0 PUSH1 0x1 SWAP1 SLOAD SWAP1 PUSH2 0x100 EXP SWAP1 DIV PUSH1 0xFF AND PUSH1 0x3 DUP2 GT ISZERO PUSH2 0xD7 JUMPI PUSH2 0xD6 PUSH2 0x20E JUMP JUMPDEST JUMPDEST EQ PUSH2 0x117 JUMPI PUSH1 0x40 MLOAD PUSH32 0x8C379A000000000000000000000000000000000000000000000000000000000 DUP2 MSTORE PUSH1 0x4 ADD PUSH2 0x10E SWAP1 PUSH2 0x386 JUMP JUMPDEST PUSH1 0x40 MLOAD DUP1 SWAP2 SUB SWAP1 REVERT JUMPDEST PUSH1 0x2 PUSH1 0x0 PUSH1 0x1 PUSH2 0x100 EXP DUP2 SLOAD DUP2 PUSH1 0xFF MUL NOT AND SWAP1 DUP4 PUSH1 0x3 DUP2 GT ISZERO PUSH2 0x13D JUMPI PUSH2 0x13C PUSH2 0x20E JUMP JUMPDEST JUMPDEST MUL OR SWAP1 SSTORE POP JUMP JUMPDEST PUSH1 0x0 DUP1 PUSH1 0x1 SWAP1 SLOAD SWAP1 PUSH2 0x100 EXP SWAP1 DIV PUSH1 0xFF AND SWAP1 POP SWAP1 JUMP JUMPDEST PUSH1 0x0 DUP1 SLOAD SWAP1 PUSH2 0x100 EXP SWAP1 DIV PUSH1 0xFF AND DUP2 JUMP JUMPDEST PUSH1 0x0 PUSH1 0x3 DUP2 GT ISZERO PUSH2 0x17F JUMPI PUSH2 0x17E PUSH2 0x20E JUMP JUMPDEST JUMPDEST PUSH1 0x0 PUSH1 0x1 SWAP1 SLOAD SWAP1 PUSH2 0x100 EXP SWAP1 DIV PUSH1 0xFF AND PUSH1 0x3 DUP2 GT ISZERO PUSH2 0x1A1 JUMPI PUSH2 0x1A0 PUSH2 0x20E JUMP JUMPDEST JUMPDEST EQ PUSH2 0x1E1 JUMPI PUSH1 0x40 MLOAD PUSH32 0x8C379A000000000000000000000000000000000000000000000000000000000 DUP2 MSTORE PUSH1 0x4 ADD PUSH2 0x1D8 SWAP1 PUSH2 0x418 JUMP JUMPDEST PUSH1 0x40 MLOAD DUP1 SWAP2 SUB SWAP1 REVERT JUMPDEST PUSH1 0x1 PUSH1 0x0 PUSH1 0x1 PUSH2 0x100 EXP DUP2 SLOAD DUP2 PUSH1 0xFF MUL NOT AND SWAP1 DUP4 PUSH1 0x3 DUP2 GT ISZERO PUSH2 0x207 JUMPI PUSH2 0x206 PUSH2 0x20E JUMP JUMPDEST JUMPDEST MUL OR SWAP1 SSTORE POP JUMP JUMPDEST PUSH32 0x4E487B7100000000000000000000000000000000000000000000000000000000 PUSH1 0x0 MSTORE PUSH1 0x21 PUSH1 0x4 MSTORE PUSH1 0x24 PUSH1 0x0 REVERT JUMPDEST PUSH1 0x4 DUP2 LT PUSH2 0x24E JUMPI PUSH2 0x24D PUSH2 0x20E JUMP JUMPDEST JUMPDEST POP JUMP JUMPDEST PUSH1 0x0 DUP2 SWAP1 POP PUSH2 0x25F DUP3 PUSH2 0x23D JUMP JUMPDEST SWAP2 SWAP1 POP JUMP JUMPDEST PUSH1 0x0 PUSH2 0x26F DUP3 PUSH2 0x251 JUMP JUMPDEST SWAP1 POP SWAP2 SWAP1 POP JUMP JUMPDEST PUSH2 0x27F DUP2 PUSH2 0x264 JUMP JUMPDEST DUP3 MSTORE POP POP JUMP JUMPDEST PUSH1 0x0 PUSH1 0x20 DUP3 ADD SWAP1 POP PUSH2 0x29A PUSH1 0x0 DUP4 ADD DUP5 PUSH2 0x276 JUMP JUMPDEST SWAP3 SWAP2 POP POP JUMP JUMPDEST PUSH1 0x7 DUP2 LT PUSH2 0x2B1 JUMPI PUSH2 0x2B0 PUSH2 0x20E JUMP JUMPDEST JUMPDEST POP JUMP JUMPDEST PUSH1 0x0 DUP2 SWAP1 POP PUSH2 0x2C2 DUP3 PUSH2 0x2A0 JUMP JUMPDEST SWAP2 SWAP1 POP JUMP JUMPDEST PUSH1 0x0 PUSH2 0x2D2 DUP3 PUSH2 0x2B4 JUMP JUMPDEST SWAP1 POP SWAP2 SWAP1 POP JUMP JUMPDEST PUSH2 0x2E2 DUP2 PUSH2 0x2C7 JUMP JUMPDEST DUP3 MSTORE POP POP JUMP JUMPDEST PUSH1 0x0 PUSH1 0x20 DUP3 ADD SWAP1 POP PUSH2 0x2FD PUSH1 0x0 DUP4 ADD DUP5 PUSH2 0x2D9 JUMP JUMPDEST SWAP3 SWAP2 POP POP JUMP JUMPDEST PUSH1 0x0 DUP3 DUP3 MSTORE PUSH1 0x20 DUP3 ADD SWAP1 POP SWAP3 SWAP2 POP POP JUMP JUMPDEST PUSH32 0x537461747573206D7573742062652053686970706564206265666F7265204163 PUSH1 0x0 DUP3 ADD MSTORE PUSH32 0x6365707465640000000000000000000000000000000000000000000000000000 PUSH1 0x20 DUP3 ADD MSTORE POP JUMP JUMPDEST PUSH1 0x0 PUSH2 0x370 PUSH1 0x26 DUP4 PUSH2 0x303 JUMP JUMPDEST SWAP2 POP PUSH2 0x37B DUP3 PUSH2 0x314 JUMP JUMPDEST PUSH1 0x40 DUP3 ADD SWAP1 POP SWAP2 SWAP1 POP JUMP JUMPDEST PUSH1 0x0 PUSH1 0x20 DUP3 ADD SWAP1 POP DUP2 DUP2 SUB PUSH1 0x0 DUP4 ADD MSTORE PUSH2 0x39F DUP2 PUSH2 0x363 JUMP JUMPDEST SWAP1 POP SWAP2 SWAP1 POP JUMP JUMPDEST PUSH32 0x537461747573206D7573742062652050656E64696E67206265666F7265205368 PUSH1 0x0 DUP3 ADD MSTORE PUSH32 0x6970706564000000000000000000000000000000000000000000000000000000 PUSH1 0x20 DUP3 ADD MSTORE POP JUMP JUMPDEST PUSH1 0x0 PUSH2 0x402 PUSH1 0x25 DUP4 PUSH2 0x303 JUMP JUMPDEST SWAP2 POP PUSH2 0x40D DUP3 PUSH2 0x3A6 JUMP JUMPDEST PUSH1 0x40 DUP3 ADD SWAP1 POP SWAP2 SWAP1 POP JUMP JUMPDEST PUSH1 0x0 PUSH1 0x20 DUP3 ADD SWAP1 POP DUP2 DUP2 SUB PUSH1 0x0 DUP4 ADD MSTORE PUSH2 0x431 DUP2 PUSH2 0x3F5 JUMP JUMPDEST SWAP1 POP SWAP2 SWAP1 POP JUMP INVALID LOG2 PUSH5 0x6970667358 0x22 SLT KECCAK256 0xF9 JUMPI SHR 0x4F MULMOD 0xB1 PUSH4 0xE0FD0B7C EXTCODESIZE SWAP15 JUMPI 0xC2 GASPRICE 0xAF ADDMOD SWAP4 CODESIZE SWAP7 PUSH26 0x2A996BC835FD237AA14C64736F6C634300080F00330000000000 "
				},
				"gasEstimates": {
					"creation": {
						"codeDepositCost": "226800",
						"executionCost": "24568",
						"totalCost": "251368"
					},
					"external": {
						"accept()": "26720",
						"day()": "2579",
						"getStatus()": "2618",
						"ship()": "26786"
					}
				},
				"methodIdentifiers": {
					"accept()": "2852b71c",
					"day()": "7b76ac91",
					"getStatus()": "4e69d560",
					"ship()": "b6bef7b3"
				}
			},
			"storageLayout": {
				"storage": [
					{
						"astId": 19,
						"contract": "contracts/artifacts/enum.sol:Enum",
						"label": "day",
						"offset": 0,
						"slot": "0",
						"type": "t_enum(Days)9"
					},
					{
						"astId": 22,
						"contract": "contracts/artifacts/enum.sol:Enum",
						"label": "status",
						"offset": 1,
						"slot": "0",
						"type": "t_enum(Status)14"
					}
				],
				"types": {
					"t_enum(Days)9": {
						"encoding": "inplace",
						"label": "enum Enum.Days",
						"numberOfBytes": "1"
					},
					"t_enum(Status)14": {
						"encoding": "inplace",
						"label": "enum Enum.Status",
						"numberOfBytes": "1"
					}
				}
			},
			"userdoc": {
				"kind": "user",
				"methods": {},
				"version": 1
			}
		}
	}
}