{
	"contracts/artifacts/enum.sol": {
		"Enum": {
			"abi": [
				{
					"inputs": [],
					"name": "day",
					"outputs": [
						{
							"internalType": "enum Enum.Days",
							"name": "",
							"type": "uint8"
						}
					],
					"stateMutability": "view",
					"type": "function"
				}
			],
			"devdoc": {
				"kind": "dev",
				"methods": {},
				"version": 1
			},
			"evm": {
				"assembly": "    /* \"contracts/artifacts/enum.sol\":26:283  contract Enum {... */\n  mstore(0x40, 0x80)\n    /* \"contracts/artifacts/enum.sol\":271:279  Days.Mon */\n  0x01\n    /* \"contracts/artifacts/enum.sol\":253:279  Days public day = Days.Mon */\n  0x00\n  dup1\n  0x0100\n  exp\n  dup2\n  sload\n  dup2\n  0xff\n  mul\n  not\n  and\n  swap1\n  dup4\n  0x06\n  dup2\n  gt\n  iszero\n  tag_1\n  jumpi\n  tag_2\n  tag_3\n  jump\t// in\ntag_2:\ntag_1:\n  mul\n  or\n  swap1\n  sstore\n  pop\n    /* \"contracts/artifacts/enum.sol\":26:283  contract Enum {... */\n  callvalue\n  dup1\n  iszero\n  tag_4\n  jumpi\n  0x00\n  dup1\n  revert\ntag_4:\n  pop\n  jump(tag_5)\n    /* \"#utility.yul\":7:187   */\ntag_3:\n    /* \"#utility.yul\":55:132   */\n  0x4e487b7100000000000000000000000000000000000000000000000000000000\n    /* \"#utility.yul\":52:53   */\n  0x00\n    /* \"#utility.yul\":45:133   */\n  mstore\n    /* \"#utility.yul\":152:156   */\n  0x21\n    /* \"#utility.yul\":149:150   */\n  0x04\n    /* \"#utility.yul\":142:157   */\n  mstore\n    /* \"#utility.yul\":176:180   */\n  0x24\n    /* \"#utility.yul\":173:174   */\n  0x00\n    /* \"#utility.yul\":166:181   */\n  revert\n    /* \"contracts/artifacts/enum.sol\":26:283  contract Enum {... */\ntag_5:\n  dataSize(sub_0)\n  dup1\n  dataOffset(sub_0)\n  0x00\n  codecopy\n  0x00\n  return\nstop\n\nsub_0: assembly {\n        /* \"contracts/artifacts/enum.sol\":26:283  contract Enum {... */\n      mstore(0x40, 0x80)\n      callvalue\n      dup1\n      iszero\n      tag_1\n      jumpi\n      0x00\n      dup1\n      revert\n    tag_1:\n      pop\n      jumpi(tag_2, lt(calldatasize, 0x04))\n      shr(0xe0, calldataload(0x00))\n      dup1\n      0x7b76ac91\n      eq\n      tag_3\n      jumpi\n    tag_2:\n      0x00\n      dup1\n      revert\n        /* \"contracts/artifacts/enum.sol\":253:279  Days public day = Days.Mon */\n    tag_3:\n      tag_4\n      tag_5\n      jump\t// in\n    tag_4:\n      mload(0x40)\n      tag_6\n      swap2\n      swap1\n      tag_7\n      jump\t// in\n    tag_6:\n      mload(0x40)\n      dup1\n      swap2\n      sub\n      swap1\n      return\n    tag_5:\n      0x00\n      dup1\n      sload\n      swap1\n      0x0100\n      exp\n      swap1\n      div\n      0xff\n      and\n      dup2\n      jump\t// out\n        /* \"#utility.yul\":7:187   */\n    tag_8:\n        /* \"#utility.yul\":55:132   */\n      0x4e487b7100000000000000000000000000000000000000000000000000000000\n        /* \"#utility.yul\":52:53   */\n      0x00\n        /* \"#utility.yul\":45:133   */\n      mstore\n        /* \"#utility.yul\":152:156   */\n      0x21\n        /* \"#utility.yul\":149:150   */\n      0x04\n        /* \"#utility.yul\":142:157   */\n      mstore\n        /* \"#utility.yul\":176:180   */\n      0x24\n        /* \"#utility.yul\":173:174   */\n      0x00\n        /* \"#utility.yul\":166:181   */\n      revert\n        /* \"#utility.yul\":193:304   */\n    tag_9:\n        /* \"#utility.yul\":272:273   */\n      0x07\n        /* \"#utility.yul\":265:270   */\n      dup2\n        /* \"#utility.yul\":262:274   */\n      lt\n        /* \"#utility.yul\":252:298   */\n      tag_16\n      jumpi\n        /* \"#utility.yul\":278:296   */\n      tag_17\n      tag_8\n      jump\t// in\n    tag_17:\n        /* \"#utility.yul\":252:298   */\n    tag_16:\n        /* \"#utility.yul\":193:304   */\n      pop\n      jump\t// out\n        /* \"#utility.yul\":310:433   */\n    tag_10:\n        /* \"#utility.yul\":353:360   */\n      0x00\n        /* \"#utility.yul\":382:387   */\n      dup2\n        /* \"#utility.yul\":371:387   */\n      swap1\n      pop\n        /* \"#utility.yul\":388:427   */\n      tag_19\n        /* \"#utility.yul\":421:426   */\n      dup3\n        /* \"#utility.yul\":388:427   */\n      tag_9\n      jump\t// in\n    tag_19:\n        /* \"#utility.yul\":310:433   */\n      swap2\n      swap1\n      pop\n      jump\t// out\n        /* \"#utility.yul\":439:562   */\n    tag_11:\n        /* \"#utility.yul\":493:502   */\n      0x00\n        /* \"#utility.yul\":526:556   */\n      tag_21\n        /* \"#utility.yul\":550:555   */\n      dup3\n        /* \"#utility.yul\":526:556   */\n      tag_10\n      jump\t// in\n    tag_21:\n        /* \"#utility.yul\":513:556   */\n      swap1\n      pop\n        /* \"#utility.yul\":439:562   */\n      swap2\n      swap1\n      pop\n      jump\t// out\n        /* \"#utility.yul\":568:707   */\n    tag_12:\n        /* \"#utility.yul\":659:700   */\n      tag_23\n        /* \"#utility.yul\":694:699   */\n      dup2\n        /* \"#utility.yul\":659:700   */\n      tag_11\n      jump\t// in\n    tag_23:\n        /* \"#utility.yul\":654:657   */\n      dup3\n        /* \"#utility.yul\":647:701   */\n      mstore\n        /* \"#utility.yul\":568:707   */\n      pop\n      pop\n      jump\t// out\n        /* \"#utility.yul\":713:943   */\n    tag_7:\n        /* \"#utility.yul\":810:814   */\n      0x00\n        /* \"#utility.yul\":848:850   */\n      0x20\n        /* \"#utility.yul\":837:846   */\n      dup3\n        /* \"#utility.yul\":833:851   */\n      add\n        /* \"#utility.yul\":825:851   */\n      swap1\n      pop\n        /* \"#utility.yul\":861:936   */\n      tag_25\n        /* \"#utility.yul\":933:934   */\n      0x00\n        /* \"#utility.yul\":922:931   */\n      dup4\n        /* \"#utility.yul\":918:935   */\n      add\n        /* \"#utility.yul\":909:915   */\n      dup5\n        /* \"#utility.yul\":861:936   */\n      tag_12\n      jump\t// in\n    tag_25:\n        /* \"#utility.yul\":713:943   */\n      swap3\n      swap2\n      pop\n      pop\n      jump\t// out\n\n    auxdata: 0xa2646970667358221220454c91689718ede31ae414f0c4703a99acc51237dd147e031fe6ffb5b7d2203664736f6c634300080f0033\n}\n",
				"bytecode": {
					"linkReferences": {},
					"object": "608060405260016000806101000a81548160ff0219169083600681111561002957610028610040565b5b021790555034801561003a57600080fd5b5061006f565b7f4e487b7100000000000000000000000000000000000000000000000000000000600052602160045260246000fd5b6101158061007e6000396000f3fe6080604052348015600f57600080fd5b506004361060285760003560e01c80637b76ac9114602d575b600080fd5b60336047565b604051603e919060c6565b60405180910390f35b60008054906101000a900460ff1681565b7f4e487b7100000000000000000000000000000000000000000000000000000000600052602160045260246000fd5b6007811060955760946058565b5b50565b600081905060a4826087565b919050565b600060b2826098565b9050919050565b60c08160a9565b82525050565b600060208201905060d9600083018460b9565b9291505056fea2646970667358221220454c91689718ede31ae414f0c4703a99acc51237dd147e031fe6ffb5b7d2203664736f6c634300080f0033",
					"opcodes": "PUSH1 0x80 PUSH1 0x40 MSTORE PUSH1 0x1 PUSH1 0x0 DUP1 PUSH2 0x100 EXP DUP2 SLOAD DUP2 PUSH1 0xFF MUL NOT AND SWAP1 DUP4 PUSH1 0x6 DUP2 GT ISZERO PUSH2 0x29 JUMPI PUSH2 0x28 PUSH2 0x40 JUMP JUMPDEST JUMPDEST MUL OR SWAP1 SSTORE POP CALLVALUE DUP1 ISZERO PUSH2 0x3A JUMPI PUSH1 0x0 DUP1 REVERT JUMPDEST POP PUSH2 0x6F JUMP JUMPDEST PUSH32 0x4E487B7100000000000000000000000000000000000000000000000000000000 PUSH1 0x0 MSTORE PUSH1 0x21 PUSH1 0x4 MSTORE PUSH1 0x24 PUSH1 0x0 REVERT JUMPDEST PUSH2 0x115 DUP1 PUSH2 0x7E PUSH1 0x0 CODECOPY PUSH1 0x0 RETURN INVALID PUSH1 0x80 PUSH1 0x40 MSTORE CALLVALUE DUP1 ISZERO PUSH1 0xF JUMPI PUSH1 0x0 DUP1 REVERT JUMPDEST POP PUSH1 0x4 CALLDATASIZE LT PUSH1 0x28 JUMPI PUSH1 0x0 CALLDATALOAD PUSH1 0xE0 SHR DUP1 PUSH4 0x7B76AC91 EQ PUSH1 0x2D JUMPI JUMPDEST PUSH1 0x0 DUP1 REVERT JUMPDEST PUSH1 0x33 PUSH1 0x47 JUMP JUMPDEST PUSH1 0x40 MLOAD PUSH1 0x3E SWAP2 SWAP1 PUSH1 0xC6 JUMP JUMPDEST PUSH1 0x40 MLOAD DUP1 SWAP2 SUB SWAP1 RETURN JUMPDEST PUSH1 0x0 DUP1 SLOAD SWAP1 PUSH2 0x100 EXP SWAP1 DIV PUSH1 0xFF AND DUP2 JUMP JUMPDEST PUSH32 0x4E487B7100000000000000000000000000000000000000000000000000000000 PUSH1 0x0 MSTORE PUSH1 0x21 PUSH1 0x4 MSTORE PUSH1 0x24 PUSH1 0x0 REVERT JUMPDEST PUSH1 0x7 DUP2 LT PUSH1 0x95 JUMPI PUSH1 0x94 PUSH1 0x58 JUMP JUMPDEST JUMPDEST POP JUMP JUMPDEST PUSH1 0x0 DUP2 SWAP1 POP PUSH1 0xA4 DUP3 PUSH1 0x87 JUMP JUMPDEST SWAP2 SWAP1 POP JUMP JUMPDEST PUSH1 0x0 PUSH1 0xB2 DUP3 PUSH1 0x98 JUMP JUMPDEST SWAP1 POP SWAP2 SWAP1 POP JUMP JUMPDEST PUSH1 0xC0 DUP2 PUSH1 0xA9 JUMP JUMPDEST DUP3 MSTORE POP POP JUMP JUMPDEST PUSH1 0x0 PUSH1 0x20 DUP3 ADD SWAP1 POP PUSH1 0xD9 PUSH1 0x0 DUP4 ADD DUP5 PUSH1 0xB9 JUMP JUMPDEST SWAP3 SWAP2 POP POP JUMP INVALID LOG2 PUSH5 0x6970667358 0x22 SLT KECCAK256 GASLIMIT 0x4C SWAP2 PUSH9 0x9718EDE31AE414F0C4 PUSH17 0x3A99ACC51237DD147E031FE6FFB5B7D220 CALLDATASIZE PUSH5 0x736F6C6343 STOP ADDMOD 0xF STOP CALLER "
				},
				"gasEstimates": {
					"creation": {
						"codeDepositCost": "55400",
						"executionCost": "24404",
						"totalCost": "79804"
					},
					"external": {
						"day()": "2535"
					}
				},
				"methodIdentifiers": {
					"day()": "7b76ac91"
				}
			},
			"storageLayout": {
				"storage": [
					{
						"astId": 19,
						"contract": "contracts/artifacts/enum.sol:Enum",
						"label": "day",
						"offset": 0,
						"slot": "0",
						"type": "t_enum(Days)9"
					}
				],
				"types": {
					"t_enum(Days)9": {
						"encoding": "inplace",
						"label": "enum Enum.Days",
						"numberOfBytes": "1"
					}
				}
			},
			"userdoc": {
				"kind": "user",
				"methods": {},
				"version": 1
			}
		}
	}
}