{
	"data": {
		"bytecode": {
			"linkReferences": {},
			"object": "608060405234801561001057600080fd5b50610985806100206000396000f3fe608060405234801561001057600080fd5b50600436106100575760003560e01c806306661abd1461005c5780630ed047d41461007a57806311d5aaa71461009657806321e5383a146100c657806327e235e3146100e2575b600080fd5b610064610112565b604051610071919061026e565b60405180910390f35b610094600480360381019061008f91906103e3565b610118565b005b6100b060048036038101906100ab9190610458565b610155565b6040516100bd919061050d565b60405180910390f35b6100e060048036038101906100db919061058d565b6101f5565b005b6100fc60048036038101906100f791906105cd565b61023d565b604051610109919061026e565b60405180910390f35b60015481565b80600080600154815260200190815260200160002090816101399190610806565b506001600081548092919061014d90610907565b919050555050565b6000602052806000526040600020600091509050805461017490610629565b80601f01602080910402602001604051908101604052809291908181526020018280546101a090610629565b80156101ed5780601f106101c2576101008083540402835291602001916101ed565b820191906000526020600020905b8154815290600101906020018083116101d057829003601f168201915b505050505081565b80600260008473ffffffffffffffffffffffffffffffffffffffff1673ffffffffffffffffffffffffffffffffffffffff168152602001908152602001600020819055505050565b60026020528060005260406000206000915090505481565b6000819050919050565b61026881610255565b82525050565b6000602082019050610283600083018461025f565b92915050565b6000604051905090565b600080fd5b600080fd5b600080fd5b600080fd5b6000601f19601f8301169050919050565b7f4e487b7100000000000000000000000000000000000000000000000000000000600052604160045260246000fd5b6102f0826102a7565b810181811067ffffffffffffffff8211171561030f5761030e6102b8565b5b80604052505050565b6000610322610289565b905061032e82826102e7565b919050565b600067ffffffffffffffff82111561034e5761034d6102b8565b5b610357826102a7565b9050602081019050919050565b82818337600083830152505050565b600061038661038184610333565b610318565b9050828152602081018484840111156103a2576103a16102a2565b5b6103ad848285610364565b509392505050565b600082601f8301126103ca576103c961029d565b5b81356103da848260208601610373565b91505092915050565b6000602082840312156103f9576103f8610293565b5b600082013567ffffffffffffffff81111561041757610416610298565b5b610423848285016103b5565b91505092915050565b61043581610255565b811461044057600080fd5b50565b6000813590506104528161042c565b92915050565b60006020828403121561046e5761046d610293565b5b600061047c84828501610443565b91505092915050565b600081519050919050565b600082825260208201905092915050565b60005b838110156104bf5780820151818401526020810190506104a4565b838111156104ce576000848401525b50505050565b60006104df82610485565b6104e98185610490565b93506104f98185602086016104a1565b610502816102a7565b840191505092915050565b6000602082019050818103600083015261052781846104d4565b905092915050565b600073ffffffffffffffffffffffffffffffffffffffff82169050919050565b600061055a8261052f565b9050919050565b61056a8161054f565b811461057557600080fd5b50565b60008135905061058781610561565b92915050565b600080604083850312156105a4576105a3610293565b5b60006105b285828601610578565b92505060206105c385828601610443565b9150509250929050565b6000602082840312156105e3576105e2610293565b5b60006105f184828501610578565b91505092915050565b7f4e487b7100000000000000000000000000000000000000000000000000000000600052602260045260246000fd5b6000600282049050600182168061064157607f821691505b602082108103610654576106536105fa565b5b50919050565b60008190508160005260206000209050919050565b60006020601f8301049050919050565b600082821b905092915050565b6000600883026106bc7fffffffffffffffffffffffffffffffffffffffffffffffffffffffffffffffff8261067f565b6106c6868361067f565b95508019841693508086168417925050509392505050565b6000819050919050565b60006107036106fe6106f984610255565b6106de565b610255565b9050919050565b6000819050919050565b61071d836106e8565b6107316107298261070a565b84845461068c565b825550505050565b600090565b610746610739565b610751818484610714565b505050565b5b818110156107755761076a60008261073e565b600181019050610757565b5050565b601f8211156107ba5761078b8161065a565b6107948461066f565b810160208510156107a3578190505b6107b76107af8561066f565b830182610756565b50505b505050565b600082821c905092915050565b60006107dd600019846008026107bf565b1980831691505092915050565b60006107f683836107cc565b9150826002028217905092915050565b61080f82610485565b67ffffffffffffffff811115610828576108276102b8565b5b6108328254610629565b61083d828285610779565b600060209050601f831160018114610870576000841561085e578287015190505b61086885826107ea565b8655506108d0565b601f19841661087e8661065a565b60005b828110156108a657848901518255600182019150602085019450602081019050610881565b868310156108c357848901516108bf601f8916826107cc565b8355505b6001600288020188555050505b505050505050565b7f4e487b7100000000000000000000000000000000000000000000000000000000600052601160045260246000fd5b600061091282610255565b91507fffffffffffffffffffffffffffffffffffffffffffffffffffffffffffffffff8203610944576109436108d8565b5b60018201905091905056fea2646970667358221220d4933bed98cadd71219a344f8536b7e12247933bc62983adc768b16c25ab876564736f6c634300080f0033",
			"opcodes": "PUSH1 0x80 PUSH1 0x40 MSTORE CALLVALUE DUP1 ISZERO PUSH2 0x10 JUMPI PUSH1 0x0 DUP1 REVERT JUMPDEST POP PUSH2 0x985 DUP1 PUSH2 0x20 PUSH1 0x0 CODECOPY PUSH1 0x0 RETURN INVALID PUSH1 0x80 PUSH1 0x40 MSTORE CALLVALUE DUP1 ISZERO PUSH2 0x10 JUMPI PUSH1 0x0 DUP1 REVERT JUMPDEST POP PUSH1 0x4 CALLDATASIZE LT PUSH2 0x57 JUMPI PUSH1 0x0 CALLDATALOAD PUSH1 0xE0 SHR DUP1 PUSH4 0x6661ABD EQ PUSH2 0x5C JUMPI DUP1 PUSH4 0xED047D4 EQ PUSH2 0x7A JUMPI DUP1 PUSH4 0x11D5AAA7 EQ PUSH2 0x96 JUMPI DUP1 PUSH4 0x21E5383A EQ PUSH2 0xC6 JUMPI DUP1 PUSH4 0x27E235E3 EQ PUSH2 0xE2 JUMPI JUMPDEST PUSH1 0x0 DUP1 REVERT JUMPDEST PUSH2 0x64 PUSH2 0x112 JUMP JUMPDEST PUSH1 0x40 MLOAD PUSH2 0x71 SWAP2 SWAP1 PUSH2 0x26E JUMP JUMPDEST PUSH1 0x40 MLOAD DUP1 SWAP2 SUB SWAP1 RETURN JUMPDEST PUSH2 0x94 PUSH1 0x4 DUP1 CALLDATASIZE SUB DUP2 ADD SWAP1 PUSH2 0x8F SWAP2 SWAP1 PUSH2 0x3E3 JUMP JUMPDEST PUSH2 0x118 JUMP JUMPDEST STOP JUMPDEST PUSH2 0xB0 PUSH1 0x4 DUP1 CALLDATASIZE SUB DUP2 ADD SWAP1 PUSH2 0xAB SWAP2 SWAP1 PUSH2 0x458 JUMP JUMPDEST PUSH2 0x155 JUMP JUMPDEST PUSH1 0x40 MLOAD PUSH2 0xBD SWAP2 SWAP1 PUSH2 0x50D JUMP JUMPDEST PUSH1 0x40 MLOAD DUP1 SWAP2 SUB SWAP1 RETURN JUMPDEST PUSH2 0xE0 PUSH1 0x4 DUP1 CALLDATASIZE SUB DUP2 ADD SWAP1 PUSH2 0xDB SWAP2 SWAP1 PUSH2 0x58D JUMP JUMPDEST PUSH2 0x1F5 JUMP JUMPDEST STOP JUMPDEST PUSH2 0xFC PUSH1 0x4 DUP1 CALLDATASIZE SUB DUP2 ADD SWAP1 PUSH2 0xF7 SWAP2 SWAP1 PUSH2 0x5CD JUMP JUMPDEST PUSH2 0x23D JUMP JUMPDEST PUSH1 0x40 MLOAD PUSH2 0x109 SWAP2 SWAP1 PUSH2 0x26E JUMP JUMPDEST PUSH1 0x40 MLOAD DUP1 SWAP2 SUB SWAP1 RETURN JUMPDEST PUSH1 0x1 SLOAD DUP2 JUMP JUMPDEST DUP1 PUSH1 0x0 DUP1 PUSH1 0x1 SLOAD DUP2 MSTORE PUSH1 0x20 ADD SWAP1 DUP2 MSTORE PUSH1 0x20 ADD PUSH1 0x0 KECCAK256 SWAP1 DUP2 PUSH2 0x139 SWAP2 SWAP1 PUSH2 0x806 JUMP JUMPDEST POP PUSH1 0x1 PUSH1 0x0 DUP2 SLOAD DUP1 SWAP3 SWAP2 SWAP1 PUSH2 0x14D SWAP1 PUSH2 0x907 JUMP JUMPDEST SWAP2 SWAP1 POP SSTORE POP POP JUMP JUMPDEST PUSH1 0x0 PUSH1 0x20 MSTORE DUP1 PUSH1 0x0 MSTORE PUSH1 0x40 PUSH1 0x0 KECCAK256 PUSH1 0x0 SWAP2 POP SWAP1 POP DUP1 SLOAD PUSH2 0x174 SWAP1 PUSH2 0x629 JUMP JUMPDEST DUP1 PUSH1 0x1F ADD PUSH1 0x20 DUP1 SWAP2 DIV MUL PUSH1 0x20 ADD PUSH1 0x40 MLOAD SWAP1 DUP2 ADD PUSH1 0x40 MSTORE DUP1 SWAP3 SWAP2 SWAP1 DUP2 DUP2 MSTORE PUSH1 0x20 ADD DUP3 DUP1 SLOAD PUSH2 0x1A0 SWAP1 PUSH2 0x629 JUMP JUMPDEST DUP1 ISZERO PUSH2 0x1ED JUMPI DUP1 PUSH1 0x1F LT PUSH2 0x1C2 JUMPI PUSH2 0x100 DUP1 DUP4 SLOAD DIV MUL DUP4 MSTORE SWAP2 PUSH1 0x20 ADD SWAP2 PUSH2 0x1ED JUMP JUMPDEST DUP3 ADD SWAP2 SWAP1 PUSH1 0x0 MSTORE PUSH1 0x20 PUSH1 0x0 KECCAK256 SWAP1 JUMPDEST DUP2 SLOAD DUP2 MSTORE SWAP1 PUSH1 0x1 ADD SWAP1 PUSH1 0x20 ADD DUP1 DUP4 GT PUSH2 0x1D0 JUMPI DUP3 SWAP1 SUB PUSH1 0x1F AND DUP3 ADD SWAP2 JUMPDEST POP POP POP POP POP DUP2 JUMP JUMPDEST DUP1 PUSH1 0x2 PUSH1 0x0 DUP5 PUSH20 0xFFFFFFFFFFFFFFFFFFFFFFFFFFFFFFFFFFFFFFFF AND PUSH20 0xFFFFFFFFFFFFFFFFFFFFFFFFFFFFFFFFFFFFFFFF AND DUP2 MSTORE PUSH1 0x20 ADD SWAP1 DUP2 MSTORE PUSH1 0x20 ADD PUSH1 0x0 KECCAK256 DUP2 SWAP1 SSTORE POP POP POP JUMP JUMPDEST PUSH1 0x2 PUSH1 0x20 MSTORE DUP1 PUSH1 0x0 MSTORE PUSH1 0x40 PUSH1 0x0 KECCAK256 PUSH1 0x0 SWAP2 POP SWAP1 POP SLOAD DUP2 JUMP JUMPDEST PUSH1 0x0 DUP2 SWAP1 POP SWAP2 SWAP1 POP JUMP JUMPDEST PUSH2 0x268 DUP2 PUSH2 0x255 JUMP JUMPDEST DUP3 MSTORE POP POP JUMP JUMPDEST PUSH1 0x0 PUSH1 0x20 DUP3 ADD SWAP1 POP PUSH2 0x283 PUSH1 0x0 DUP4 ADD DUP5 PUSH2 0x25F JUMP JUMPDEST SWAP3 SWAP2 POP POP JUMP JUMPDEST PUSH1 0x0 PUSH1 0x40 MLOAD SWAP1 POP SWAP1 JUMP JUMPDEST PUSH1 0x0 DUP1 REVERT JUMPDEST PUSH1 0x0 DUP1 REVERT JUMPDEST PUSH1 0x0 DUP1 REVERT JUMPDEST PUSH1 0x0 DUP1 REVERT JUMPDEST PUSH1 0x0 PUSH1 0x1F NOT PUSH1 0x1F DUP4 ADD AND SWAP1 POP SWAP2 SWAP1 POP JUMP JUMPDEST PUSH32 0x4E487B7100000000000000000000000000000000000000000000000000000000 PUSH1 0x0 MSTORE PUSH1 0x41 PUSH1 0x4 MSTORE PUSH1 0x24 PUSH1 0x0 REVERT JUMPDEST PUSH2 0x2F0 DUP3 PUSH2 0x2A7 JUMP JUMPDEST DUP2 ADD DUP2 DUP2 LT PUSH8 0xFFFFFFFFFFFFFFFF DUP3 GT OR ISZERO PUSH2 0x30F JUMPI PUSH2 0x30E PUSH2 0x2B8 JUMP JUMPDEST JUMPDEST DUP1 PUSH1 0x40 MSTORE POP POP POP JUMP JUMPDEST PUSH1 0x0 PUSH2 0x322 PUSH2 0x289 JUMP JUMPDEST SWAP1 POP PUSH2 0x32E DUP3 DUP3 PUSH2 0x2E7 JUMP JUMPDEST SWAP2 SWAP1 POP JUMP JUMPDEST PUSH1 0x0 PUSH8 0xFFFFFFFFFFFFFFFF DUP3 GT ISZERO PUSH2 0x34E JUMPI PUSH2 0x34D PUSH2 0x2B8 JUMP JUMPDEST JUMPDEST PUSH2 0x357 DUP3 PUSH2 0x2A7 JUMP JUMPDEST SWAP1 POP PUSH1 0x20 DUP2 ADD SWAP1 POP SWAP2 SWAP1 POP JUMP JUMPDEST DUP3 DUP2 DUP4 CALLDATACOPY PUSH1 0x0 DUP4 DUP4 ADD MSTORE POP POP POP JUMP JUMPDEST PUSH1 0x0 PUSH2 0x386 PUSH2 0x381 DUP5 PUSH2 0x333 JUMP JUMPDEST PUSH2 0x318 JUMP JUMPDEST SWAP1 POP DUP3 DUP2 MSTORE PUSH1 0x20 DUP2 ADD DUP5 DUP5 DUP5 ADD GT ISZERO PUSH2 0x3A2 JUMPI PUSH2 0x3A1 PUSH2 0x2A2 JUMP JUMPDEST JUMPDEST PUSH2 0x3AD DUP5 DUP3 DUP6 PUSH2 0x364 JUMP JUMPDEST POP SWAP4 SWAP3 POP POP POP JUMP JUMPDEST PUSH1 0x0 DUP3 PUSH1 0x1F DUP4 ADD SLT PUSH2 0x3CA JUMPI PUSH2 0x3C9 PUSH2 0x29D JUMP JUMPDEST JUMPDEST DUP2 CALLDATALOAD PUSH2 0x3DA DUP5 DUP3 PUSH1 0x20 DUP7 ADD PUSH2 0x373 JUMP JUMPDEST SWAP2 POP POP SWAP3 SWAP2 POP POP JUMP JUMPDEST PUSH1 0x0 PUSH1 0x20 DUP3 DUP5 SUB SLT ISZERO PUSH2 0x3F9 JUMPI PUSH2 0x3F8 PUSH2 0x293 JUMP JUMPDEST JUMPDEST PUSH1 0x0 DUP3 ADD CALLDATALOAD PUSH8 0xFFFFFFFFFFFFFFFF DUP2 GT ISZERO PUSH2 0x417 JUMPI PUSH2 0x416 PUSH2 0x298 JUMP JUMPDEST JUMPDEST PUSH2 0x423 DUP5 DUP3 DUP6 ADD PUSH2 0x3B5 JUMP JUMPDEST SWAP2 POP POP SWAP3 SWAP2 POP POP JUMP JUMPDEST PUSH2 0x435 DUP2 PUSH2 0x255 JUMP JUMPDEST DUP2 EQ PUSH2 0x440 JUMPI PUSH1 0x0 DUP1 REVERT JUMPDEST POP JUMP JUMPDEST PUSH1 0x0 DUP2 CALLDATALOAD SWAP1 POP PUSH2 0x452 DUP2 PUSH2 0x42C JUMP JUMPDEST SWAP3 SWAP2 POP POP JUMP JUMPDEST PUSH1 0x0 PUSH1 0x20 DUP3 DUP5 SUB SLT ISZERO PUSH2 0x46E JUMPI PUSH2 0x46D PUSH2 0x293 JUMP JUMPDEST JUMPDEST PUSH1 0x0 PUSH2 0x47C DUP5 DUP3 DUP6 ADD PUSH2 0x443 JUMP JUMPDEST SWAP2 POP POP SWAP3 SWAP2 POP POP JUMP JUMPDEST PUSH1 0x0 DUP2 MLOAD SWAP1 POP SWAP2 SWAP1 POP JUMP JUMPDEST PUSH1 0x0 DUP3 DUP3 MSTORE PUSH1 0x20 DUP3 ADD SWAP1 POP SWAP3 SWAP2 POP POP JUMP JUMPDEST PUSH1 0x0 JUMPDEST DUP4 DUP2 LT ISZERO PUSH2 0x4BF JUMPI DUP1 DUP3 ADD MLOAD DUP2 DUP5 ADD MSTORE PUSH1 0x20 DUP2 ADD SWAP1 POP PUSH2 0x4A4 JUMP JUMPDEST DUP4 DUP2 GT ISZERO PUSH2 0x4CE JUMPI PUSH1 0x0 DUP5 DUP5 ADD MSTORE JUMPDEST POP POP POP POP JUMP JUMPDEST PUSH1 0x0 PUSH2 0x4DF DUP3 PUSH2 0x485 JUMP JUMPDEST PUSH2 0x4E9 DUP2 DUP6 PUSH2 0x490 JUMP JUMPDEST SWAP4 POP PUSH2 0x4F9 DUP2 DUP6 PUSH1 0x20 DUP7 ADD PUSH2 0x4A1 JUMP JUMPDEST PUSH2 0x502 DUP2 PUSH2 0x2A7 JUMP JUMPDEST DUP5 ADD SWAP2 POP POP SWAP3 SWAP2 POP POP JUMP JUMPDEST PUSH1 0x0 PUSH1 0x20 DUP3 ADD SWAP1 POP DUP2 DUP2 SUB PUSH1 0x0 DUP4 ADD MSTORE PUSH2 0x527 DUP2 DUP5 PUSH2 0x4D4 JUMP JUMPDEST SWAP1 POP SWAP3 SWAP2 POP POP JUMP JUMPDEST PUSH1 0x0 PUSH20 0xFFFFFFFFFFFFFFFFFFFFFFFFFFFFFFFFFFFFFFFF DUP3 AND SWAP1 POP SWAP2 SWAP1 POP JUMP JUMPDEST PUSH1 0x0 PUSH2 0x55A DUP3 PUSH2 0x52F JUMP JUMPDEST SWAP1 POP SWAP2 SWAP1 POP JUMP JUMPDEST PUSH2 0x56A DUP2 PUSH2 0x54F JUMP JUMPDEST DUP2 EQ PUSH2 0x575 JUMPI PUSH1 0x0 DUP1 REVERT JUMPDEST POP JUMP JUMPDEST PUSH1 0x0 DUP2 CALLDATALOAD SWAP1 POP PUSH2 0x587 DUP2 PUSH2 0x561 JUMP JUMPDEST SWAP3 SWAP2 POP POP JUMP JUMPDEST PUSH1 0x0 DUP1 PUSH1 0x40 DUP4 DUP6 SUB SLT ISZERO PUSH2 0x5A4 JUMPI PUSH2 0x5A3 PUSH2 0x293 JUMP JUMPDEST JUMPDEST PUSH1 0x0 PUSH2 0x5B2 DUP6 DUP3 DUP7 ADD PUSH2 0x578 JUMP JUMPDEST SWAP3 POP POP PUSH1 0x20 PUSH2 0x5C3 DUP6 DUP3 DUP7 ADD PUSH2 0x443 JUMP JUMPDEST SWAP2 POP POP SWAP3 POP SWAP3 SWAP1 POP JUMP JUMPDEST PUSH1 0x0 PUSH1 0x20 DUP3 DUP5 SUB SLT ISZERO PUSH2 0x5E3 JUMPI PUSH2 0x5E2 PUSH2 0x293 JUMP JUMPDEST JUMPDEST PUSH1 0x0 PUSH2 0x5F1 DUP5 DUP3 DUP6 ADD PUSH2 0x578 JUMP JUMPDEST SWAP2 POP POP SWAP3 SWAP2 POP POP JUMP JUMPDEST PUSH32 0x4E487B7100000000000000000000000000000000000000000000000000000000 PUSH1 0x0 MSTORE PUSH1 0x22 PUSH1 0x4 MSTORE PUSH1 0x24 PUSH1 0x0 REVERT JUMPDEST PUSH1 0x0 PUSH1 0x2 DUP3 DIV SWAP1 POP PUSH1 0x1 DUP3 AND DUP1 PUSH2 0x641 JUMPI PUSH1 0x7F DUP3 AND SWAP2 POP JUMPDEST PUSH1 0x20 DUP3 LT DUP2 SUB PUSH2 0x654 JUMPI PUSH2 0x653 PUSH2 0x5FA JUMP JUMPDEST JUMPDEST POP SWAP2 SWAP1 POP JUMP JUMPDEST PUSH1 0x0 DUP2 SWAP1 POP DUP2 PUSH1 0x0 MSTORE PUSH1 0x20 PUSH1 0x0 KECCAK256 SWAP1 POP SWAP2 SWAP1 POP JUMP JUMPDEST PUSH1 0x0 PUSH1 0x20 PUSH1 0x1F DUP4 ADD DIV SWAP1 POP SWAP2 SWAP1 POP JUMP JUMPDEST PUSH1 0x0 DUP3 DUP3 SHL SWAP1 POP SWAP3 SWAP2 POP POP JUMP JUMPDEST PUSH1 0x0 PUSH1 0x8 DUP4 MUL PUSH2 0x6BC PUSH32 0xFFFFFFFFFFFFFFFFFFFFFFFFFFFFFFFFFFFFFFFFFFFFFFFFFFFFFFFFFFFFFFFF DUP3 PUSH2 0x67F JUMP JUMPDEST PUSH2 0x6C6 DUP7 DUP4 PUSH2 0x67F JUMP JUMPDEST SWAP6 POP DUP1 NOT DUP5 AND SWAP4 POP DUP1 DUP7 AND DUP5 OR SWAP3 POP POP POP SWAP4 SWAP3 POP POP POP JUMP JUMPDEST PUSH1 0x0 DUP2 SWAP1 POP SWAP2 SWAP1 POP JUMP JUMPDEST PUSH1 0x0 PUSH2 0x703 PUSH2 0x6FE PUSH2 0x6F9 DUP5 PUSH2 0x255 JUMP JUMPDEST PUSH2 0x6DE JUMP JUMPDEST PUSH2 0x255 JUMP JUMPDEST SWAP1 POP SWAP2 SWAP1 POP JUMP JUMPDEST PUSH1 0x0 DUP2 SWAP1 POP SWAP2 SWAP1 POP JUMP JUMPDEST PUSH2 0x71D DUP4 PUSH2 0x6E8 JUMP JUMPDEST PUSH2 0x731 PUSH2 0x729 DUP3 PUSH2 0x70A JUMP JUMPDEST DUP5 DUP5 SLOAD PUSH2 0x68C JUMP JUMPDEST DUP3 SSTORE POP POP POP POP JUMP JUMPDEST PUSH1 0x0 SWAP1 JUMP JUMPDEST PUSH2 0x746 PUSH2 0x739 JUMP JUMPDEST PUSH2 0x751 DUP2 DUP5 DUP5 PUSH2 0x714 JUMP JUMPDEST POP POP POP JUMP JUMPDEST JUMPDEST DUP2 DUP2 LT ISZERO PUSH2 0x775 JUMPI PUSH2 0x76A PUSH1 0x0 DUP3 PUSH2 0x73E JUMP JUMPDEST PUSH1 0x1 DUP2 ADD SWAP1 POP PUSH2 0x757 JUMP JUMPDEST POP POP JUMP JUMPDEST PUSH1 0x1F DUP3 GT ISZERO PUSH2 0x7BA JUMPI PUSH2 0x78B DUP2 PUSH2 0x65A JUMP JUMPDEST PUSH2 0x794 DUP5 PUSH2 0x66F JUMP JUMPDEST DUP2 ADD PUSH1 0x20 DUP6 LT ISZERO PUSH2 0x7A3 JUMPI DUP2 SWAP1 POP JUMPDEST PUSH2 0x7B7 PUSH2 0x7AF DUP6 PUSH2 0x66F JUMP JUMPDEST DUP4 ADD DUP3 PUSH2 0x756 JUMP JUMPDEST POP POP JUMPDEST POP POP POP JUMP JUMPDEST PUSH1 0x0 DUP3 DUP3 SHR SWAP1 POP SWAP3 SWAP2 POP POP JUMP JUMPDEST PUSH1 0x0 PUSH2 0x7DD PUSH1 0x0 NOT DUP5 PUSH1 0x8 MUL PUSH2 0x7BF JUMP JUMPDEST NOT DUP1 DUP4 AND SWAP2 POP POP SWAP3 SWAP2 POP POP JUMP JUMPDEST PUSH1 0x0 PUSH2 0x7F6 DUP4 DUP4 PUSH2 0x7CC JUMP JUMPDEST SWAP2 POP DUP3 PUSH1 0x2 MUL DUP3 OR SWAP1 POP SWAP3 SWAP2 POP POP JUMP JUMPDEST PUSH2 0x80F DUP3 PUSH2 0x485 JUMP JUMPDEST PUSH8 0xFFFFFFFFFFFFFFFF DUP2 GT ISZERO PUSH2 0x828 JUMPI PUSH2 0x827 PUSH2 0x2B8 JUMP JUMPDEST JUMPDEST PUSH2 0x832 DUP3 SLOAD PUSH2 0x629 JUMP JUMPDEST PUSH2 0x83D DUP3 DUP3 DUP6 PUSH2 0x779 JUMP JUMPDEST PUSH1 0x0 PUSH1 0x20 SWAP1 POP PUSH1 0x1F DUP4 GT PUSH1 0x1 DUP2 EQ PUSH2 0x870 JUMPI PUSH1 0x0 DUP5 ISZERO PUSH2 0x85E JUMPI DUP3 DUP8 ADD MLOAD SWAP1 POP JUMPDEST PUSH2 0x868 DUP6 DUP3 PUSH2 0x7EA JUMP JUMPDEST DUP7 SSTORE POP PUSH2 0x8D0 JUMP JUMPDEST PUSH1 0x1F NOT DUP5 AND PUSH2 0x87E DUP7 PUSH2 0x65A JUMP JUMPDEST PUSH1 0x0 JUMPDEST DUP3 DUP2 LT ISZERO PUSH2 0x8A6 JUMPI DUP5 DUP10 ADD MLOAD DUP3 SSTORE PUSH1 0x1 DUP3 ADD SWAP2 POP PUSH1 0x20 DUP6 ADD SWAP5 POP PUSH1 0x20 DUP2 ADD SWAP1 POP PUSH2 0x881 JUMP JUMPDEST DUP7 DUP4 LT ISZERO PUSH2 0x8C3 JUMPI DUP5 DUP10 ADD MLOAD PUSH2 0x8BF PUSH1 0x1F DUP10 AND DUP3 PUSH2 0x7CC JUMP JUMPDEST DUP4 SSTORE POP JUMPDEST PUSH1 0x1 PUSH1 0x2 DUP9 MUL ADD DUP9 SSTORE POP POP POP JUMPDEST POP POP POP POP POP POP JUMP JUMPDEST PUSH32 0x4E487B7100000000000000000000000000000000000000000000000000000000 PUSH1 0x0 MSTORE PUSH1 0x11 PUSH1 0x4 MSTORE PUSH1 0x24 PUSH1 0x0 REVERT JUMPDEST PUSH1 0x0 PUSH2 0x912 DUP3 PUSH2 0x255 JUMP JUMPDEST SWAP2 POP PUSH32 0xFFFFFFFFFFFFFFFFFFFFFFFFFFFFFFFFFFFFFFFFFFFFFFFFFFFFFFFFFFFFFFFF DUP3 SUB PUSH2 0x944 JUMPI PUSH2 0x943 PUSH2 0x8D8 JUMP JUMPDEST JUMPDEST PUSH1 0x1 DUP3 ADD SWAP1 POP SWAP2 SWAP1 POP JUMP INVALID LOG2 PUSH5 0x6970667358 0x22 SLT KECCAK256 0xD4 SWAP4 EXTCODESIZE 0xED SWAP9 0xCA 0xDD PUSH18 0x219A344F8536B7E12247933BC62983ADC768 0xB1 PUSH13 0x25AB876564736F6C634300080F STOP CALLER "
		},
		"gasEstimates": {
			"creation": {
				"codeDepositCost": "487400",
				"executionCost": "524",
				"totalCost": "487924"
			},
			"external": {
				"addBalance(address,uint256)": "22876",
				"addProject(string)": "infinite",
				"balances(address)": "2880",
				"count()": "2407",
				"project(uint256)": "infinite"
			}
		},
		"methodIdentifiers": {
			"addBalance(address,uint256)": "21e5383a",
			"addProject(string)": "0ed047d4",
			"balances(address)": "27e235e3",
			"count()": "06661abd",
			"project(uint256)": "11d5aaa7"
		}
	},
	"abi": [
		{
			"inputs": [
				{
					"internalType": "address",
					"name": "_addr",
					"type": "address"
				},
				{
					"internalType": "uint256",
					"name": "_i",
					"type": "uint256"
				}
			],
			"name": "addBalance",
			"outputs": [],
			"stateMutability": "nonpayable",
			"type": "function"
		},
		{
			"inputs": [
				{
					"internalType": "string",
					"name": "_name",
					"type": "string"
				}
			],
			"name": "addProject",
			"outputs": [],
			"stateMutability": "nonpayable",
			"type": "function"
		},
		{
			"inputs": [
				{
					"internalType": "address",
					"name": "",
					"type": "address"
				}
			],
			"name": "balances",
			"outputs": [
				{
					"internalType": "uint256",
					"name": "",
					"type": "uint256"
				}
			],
			"stateMutability": "view",
			"type": "function"
		},
		{
			"inputs": [],
			"name": "count",
			"outputs": [
				{
					"internalType": "uint256",
					"name": "",
					"type": "uint256"
				}
			],
			"stateMutability": "view",
			"type": "function"
		},
		{
			"inputs": [
				{
					"internalType": "uint256",
					"name": "",
					"type": "uint256"
				}
			],
			"name": "project",
			"outputs": [
				{
					"internalType": "string",
					"name": "",
					"type": "string"
				}
			],
			"stateMutability": "view",
			"type": "function"
		}
	]
}