{
	"data": {
		"bytecode": {
			"linkReferences": {},
			"object": "60806040523480156200001157600080fd5b50604051620014b3380380620014b3833981810160405281019062000037919062000286565b826002908162000048919062000561565b5081600390816200005a919062000561565b5080600481905550806000803373ffffffffffffffffffffffffffffffffffffffff1673ffffffffffffffffffffffffffffffffffffffff1681526020019081526020016000208190555050505062000648565b6000604051905090565b600080fd5b600080fd5b600080fd5b600080fd5b6000601f19601f8301169050919050565b7f4e487b7100000000000000000000000000000000000000000000000000000000600052604160045260246000fd5b6200011782620000cc565b810181811067ffffffffffffffff82111715620001395762000138620000dd565b5b80604052505050565b60006200014e620000ae565b90506200015c82826200010c565b919050565b600067ffffffffffffffff8211156200017f576200017e620000dd565b5b6200018a82620000cc565b9050602081019050919050565b60005b83811015620001b75780820151818401526020810190506200019a565b83811115620001c7576000848401525b50505050565b6000620001e4620001de8462000161565b62000142565b905082815260208101848484011115620002035762000202620000c7565b5b6200021084828562000197565b509392505050565b600082601f83011262000230576200022f620000c2565b5b815162000242848260208601620001cd565b91505092915050565b6000819050919050565b62000260816200024b565b81146200026c57600080fd5b50565b600081519050620002808162000255565b92915050565b600080600060608486031215620002a257620002a1620000b8565b5b600084015167ffffffffffffffff811115620002c357620002c2620000bd565b5b620002d18682870162000218565b935050602084015167ffffffffffffffff811115620002f557620002f4620000bd565b5b620003038682870162000218565b925050604062000316868287016200026f565b9150509250925092565b600081519050919050565b7f4e487b7100000000000000000000000000000000000000000000000000000000600052602260045260246000fd5b600060028204905060018216806200037357607f821691505b6020821081036200038957620003886200032b565b5b50919050565b60008190508160005260206000209050919050565b60006020601f8301049050919050565b600082821b905092915050565b600060088302620003f37fffffffffffffffffffffffffffffffffffffffffffffffffffffffffffffffff82620003b4565b620003ff8683620003b4565b95508019841693508086168417925050509392505050565b6000819050919050565b6000620004426200043c62000436846200024b565b62000417565b6200024b565b9050919050565b6000819050919050565b6200045e8362000421565b620004766200046d8262000449565b848454620003c1565b825550505050565b600090565b6200048d6200047e565b6200049a81848462000453565b505050565b5b81811015620004c257620004b660008262000483565b600181019050620004a0565b5050565b601f8211156200051157620004db816200038f565b620004e684620003a4565b81016020851015620004f6578190505b6200050e6200050585620003a4565b8301826200049f565b50505b505050565b600082821c905092915050565b6000620005366000198460080262000516565b1980831691505092915050565b600062000551838362000523565b9150826002028217905092915050565b6200056c8262000320565b67ffffffffffffffff811115620005885762000587620000dd565b5b6200059482546200035a565b620005a1828285620004c6565b600060209050601f831160018114620005d95760008415620005c4578287015190505b620005d0858262000543565b86555062000640565b601f198416620005e9866200038f565b60005b828110156200061357848901518255600182019150602085019450602081019050620005ec565b868310156200063357848901516200062f601f89168262000523565b8355505b6001600288020188555050505b505050505050565b610e5b80620006586000396000f3fe608060405234801561001057600080fd5b506004361061007d5760003560e01c806370a082311161005b57806370a08231146100da578063a9059cbb1461010a578063a967028a14610126578063c4e41b22146101565761007d565b80630bdfeca514610082578063150704011461009e57806317d7de7c146100bc575b600080fd5b61009c60048036038101906100979190610798565b610174565b005b6100a66101c4565b6040516100b39190610869565b60405180910390f35b6100c4610256565b6040516100d19190610869565b60405180910390f35b6100f460048036038101906100ef91906108e9565b6102e8565b604051610101919061092f565b60405180910390f35b610124600480360381019061011f9190610976565b610330565b005b610140600480360381019061013b91906108e9565b6104d2565b60405161014d9190610869565b60405180910390f35b61015e610634565b60405161016b919061092f565b60405180910390f35b80600160003373ffffffffffffffffffffffffffffffffffffffff1673ffffffffffffffffffffffffffffffffffffffff16815260200190815260200160002090816101c09190610bc2565b5050565b6060600380546101d3906109e5565b80601f01602080910402602001604051908101604052809291908181526020018280546101ff906109e5565b801561024c5780601f106102215761010080835404028352916020019161024c565b820191906000526020600020905b81548152906001019060200180831161022f57829003601f168201915b5050505050905090565b606060028054610265906109e5565b80601f0160208091040260200160405190810160405280929190818152602001828054610291906109e5565b80156102de5780601f106102b3576101008083540402835291602001916102de565b820191906000526020600020905b8154815290600101906020018083116102c157829003601f168201915b5050505050905090565b60008060008373ffffffffffffffffffffffffffffffffffffffff1673ffffffffffffffffffffffffffffffffffffffff168152602001908152602001600020549050919050565b600033905060008060008373ffffffffffffffffffffffffffffffffffffffff1673ffffffffffffffffffffffffffffffffffffffff168152602001908152602001600020549050828110156103bb576040517f08c379a00000000000000000000000000000000000000000000000000000000081526004016103b290610ce0565b60405180910390fd5b8173ffffffffffffffffffffffffffffffffffffffff168473ffffffffffffffffffffffffffffffffffffffff1603610429576040517f08c379a000000000000000000000000000000000000000000000000000000000815260040161042090610d4c565b60405180910390fd5b82816104359190610d9b565b6000808473ffffffffffffffffffffffffffffffffffffffff1673ffffffffffffffffffffffffffffffffffffffff16815260200190815260200160002081905550826000808673ffffffffffffffffffffffffffffffffffffffff1673ffffffffffffffffffffffffffffffffffffffff16815260200190815260200160002060008282546104c59190610dcf565b9250508190555050505050565b60606000600160008473ffffffffffffffffffffffffffffffffffffffff1673ffffffffffffffffffffffffffffffffffffffff1681526020019081526020016000208054610520906109e5565b9050146105f657600160008373ffffffffffffffffffffffffffffffffffffffff1673ffffffffffffffffffffffffffffffffffffffff1681526020019081526020016000208054610571906109e5565b80601f016020809104026020016040519081016040528092919081815260200182805461059d906109e5565b80156105ea5780601f106105bf576101008083540402835291602001916105ea565b820191906000526020600020905b8154815290600101906020018083116105cd57829003601f168201915b5050505050905061062f565b6040518060400160405280600b81526020017f4e6f20757365726e616d6500000000000000000000000000000000000000000081525090505b919050565b6000600454905090565b6000604051905090565b600080fd5b600080fd5b600080fd5b600080fd5b6000601f19601f8301169050919050565b7f4e487b7100000000000000000000000000000000000000000000000000000000600052604160045260246000fd5b6106a58261065c565b810181811067ffffffffffffffff821117156106c4576106c361066d565b5b80604052505050565b60006106d761063e565b90506106e3828261069c565b919050565b600067ffffffffffffffff8211156107035761070261066d565b5b61070c8261065c565b9050602081019050919050565b82818337600083830152505050565b600061073b610736846106e8565b6106cd565b90508281526020810184848401111561075757610756610657565b5b610762848285610719565b509392505050565b600082601f83011261077f5761077e610652565b5b813561078f848260208601610728565b91505092915050565b6000602082840312156107ae576107ad610648565b5b600082013567ffffffffffffffff8111156107cc576107cb61064d565b5b6107d88482850161076a565b91505092915050565b600081519050919050565b600082825260208201905092915050565b60005b8381101561081b578082015181840152602081019050610800565b8381111561082a576000848401525b50505050565b600061083b826107e1565b61084581856107ec565b93506108558185602086016107fd565b61085e8161065c565b840191505092915050565b600060208201905081810360008301526108838184610830565b905092915050565b600073ffffffffffffffffffffffffffffffffffffffff82169050919050565b60006108b68261088b565b9050919050565b6108c6816108ab565b81146108d157600080fd5b50565b6000813590506108e3816108bd565b92915050565b6000602082840312156108ff576108fe610648565b5b600061090d848285016108d4565b91505092915050565b6000819050919050565b61092981610916565b82525050565b60006020820190506109446000830184610920565b92915050565b61095381610916565b811461095e57600080fd5b50565b6000813590506109708161094a565b92915050565b6000806040838503121561098d5761098c610648565b5b600061099b858286016108d4565b92505060206109ac85828601610961565b9150509250929050565b7f4e487b7100000000000000000000000000000000000000000000000000000000600052602260045260246000fd5b600060028204905060018216806109fd57607f821691505b602082108103610a1057610a0f6109b6565b5b50919050565b60008190508160005260206000209050919050565b60006020601f8301049050919050565b600082821b905092915050565b600060088302610a787fffffffffffffffffffffffffffffffffffffffffffffffffffffffffffffffff82610a3b565b610a828683610a3b565b95508019841693508086168417925050509392505050565b6000819050919050565b6000610abf610aba610ab584610916565b610a9a565b610916565b9050919050565b6000819050919050565b610ad983610aa4565b610aed610ae582610ac6565b848454610a48565b825550505050565b600090565b610b02610af5565b610b0d818484610ad0565b505050565b5b81811015610b3157610b26600082610afa565b600181019050610b13565b5050565b601f821115610b7657610b4781610a16565b610b5084610a2b565b81016020851015610b5f578190505b610b73610b6b85610a2b565b830182610b12565b50505b505050565b600082821c905092915050565b6000610b9960001984600802610b7b565b1980831691505092915050565b6000610bb28383610b88565b9150826002028217905092915050565b610bcb826107e1565b67ffffffffffffffff811115610be457610be361066d565b5b610bee82546109e5565b610bf9828285610b35565b600060209050601f831160018114610c2c5760008415610c1a578287015190505b610c248582610ba6565b865550610c8c565b601f198416610c3a86610a16565b60005b82811015610c6257848901518255600182019150602085019450602081019050610c3d565b86831015610c7f5784890151610c7b601f891682610b88565b8355505b6001600288020188555050505b505050505050565b7f496e73756666696369656e742066756e6420746f207472616e73666572000000600082015250565b6000610cca601d836107ec565b9150610cd582610c94565b602082019050919050565b60006020820190508181036000830152610cf981610cbd565b9050919050565b7f596f752063616e6e6f742073656e6420746f20796f757273656c660000000000600082015250565b6000610d36601b836107ec565b9150610d4182610d00565b602082019050919050565b60006020820190508181036000830152610d6581610d29565b9050919050565b7f4e487b7100000000000000000000000000000000000000000000000000000000600052601160045260246000fd5b6000610da682610916565b9150610db183610916565b925082821015610dc457610dc3610d6c565b5b828203905092915050565b6000610dda82610916565b9150610de583610916565b9250827fffffffffffffffffffffffffffffffffffffffffffffffffffffffffffffffff03821115610e1a57610e19610d6c565b5b82820190509291505056fea264697066735822122078463abb413f561f82807165d7a86d90098870276c7ebe950c83a7a679baeb1c64736f6c634300080f0033",
			"opcodes": "PUSH1 0x80 PUSH1 0x40 MSTORE CALLVALUE DUP1 ISZERO PUSH3 0x11 JUMPI PUSH1 0x0 DUP1 REVERT JUMPDEST POP PUSH1 0x40 MLOAD PUSH3 0x14B3 CODESIZE SUB DUP1 PUSH3 0x14B3 DUP4 CODECOPY DUP2 DUP2 ADD PUSH1 0x40 MSTORE DUP2 ADD SWAP1 PUSH3 0x37 SWAP2 SWAP1 PUSH3 0x286 JUMP JUMPDEST DUP3 PUSH1 0x2 SWAP1 DUP2 PUSH3 0x48 SWAP2 SWAP1 PUSH3 0x561 JUMP JUMPDEST POP DUP2 PUSH1 0x3 SWAP1 DUP2 PUSH3 0x5A SWAP2 SWAP1 PUSH3 0x561 JUMP JUMPDEST POP DUP1 PUSH1 0x4 DUP2 SWAP1 SSTORE POP DUP1 PUSH1 0x0 DUP1 CALLER PUSH20 0xFFFFFFFFFFFFFFFFFFFFFFFFFFFFFFFFFFFFFFFF AND PUSH20 0xFFFFFFFFFFFFFFFFFFFFFFFFFFFFFFFFFFFFFFFF AND DUP2 MSTORE PUSH1 0x20 ADD SWAP1 DUP2 MSTORE PUSH1 0x20 ADD PUSH1 0x0 KECCAK256 DUP2 SWAP1 SSTORE POP POP POP POP PUSH3 0x648 JUMP JUMPDEST PUSH1 0x0 PUSH1 0x40 MLOAD SWAP1 POP SWAP1 JUMP JUMPDEST PUSH1 0x0 DUP1 REVERT JUMPDEST PUSH1 0x0 DUP1 REVERT JUMPDEST PUSH1 0x0 DUP1 REVERT JUMPDEST PUSH1 0x0 DUP1 REVERT JUMPDEST PUSH1 0x0 PUSH1 0x1F NOT PUSH1 0x1F DUP4 ADD AND SWAP1 POP SWAP2 SWAP1 POP JUMP JUMPDEST PUSH32 0x4E487B7100000000000000000000000000000000000000000000000000000000 PUSH1 0x0 MSTORE PUSH1 0x41 PUSH1 0x4 MSTORE PUSH1 0x24 PUSH1 0x0 REVERT JUMPDEST PUSH3 0x117 DUP3 PUSH3 0xCC JUMP JUMPDEST DUP2 ADD DUP2 DUP2 LT PUSH8 0xFFFFFFFFFFFFFFFF DUP3 GT OR ISZERO PUSH3 0x139 JUMPI PUSH3 0x138 PUSH3 0xDD JUMP JUMPDEST JUMPDEST DUP1 PUSH1 0x40 MSTORE POP POP POP JUMP JUMPDEST PUSH1 0x0 PUSH3 0x14E PUSH3 0xAE JUMP JUMPDEST SWAP1 POP PUSH3 0x15C DUP3 DUP3 PUSH3 0x10C JUMP JUMPDEST SWAP2 SWAP1 POP JUMP JUMPDEST PUSH1 0x0 PUSH8 0xFFFFFFFFFFFFFFFF DUP3 GT ISZERO PUSH3 0x17F JUMPI PUSH3 0x17E PUSH3 0xDD JUMP JUMPDEST JUMPDEST PUSH3 0x18A DUP3 PUSH3 0xCC JUMP JUMPDEST SWAP1 POP PUSH1 0x20 DUP2 ADD SWAP1 POP SWAP2 SWAP1 POP JUMP JUMPDEST PUSH1 0x0 JUMPDEST DUP4 DUP2 LT ISZERO PUSH3 0x1B7 JUMPI DUP1 DUP3 ADD MLOAD DUP2 DUP5 ADD MSTORE PUSH1 0x20 DUP2 ADD SWAP1 POP PUSH3 0x19A JUMP JUMPDEST DUP4 DUP2 GT ISZERO PUSH3 0x1C7 JUMPI PUSH1 0x0 DUP5 DUP5 ADD MSTORE JUMPDEST POP POP POP POP JUMP JUMPDEST PUSH1 0x0 PUSH3 0x1E4 PUSH3 0x1DE DUP5 PUSH3 0x161 JUMP JUMPDEST PUSH3 0x142 JUMP JUMPDEST SWAP1 POP DUP3 DUP2 MSTORE PUSH1 0x20 DUP2 ADD DUP5 DUP5 DUP5 ADD GT ISZERO PUSH3 0x203 JUMPI PUSH3 0x202 PUSH3 0xC7 JUMP JUMPDEST JUMPDEST PUSH3 0x210 DUP5 DUP3 DUP6 PUSH3 0x197 JUMP JUMPDEST POP SWAP4 SWAP3 POP POP POP JUMP JUMPDEST PUSH1 0x0 DUP3 PUSH1 0x1F DUP4 ADD SLT PUSH3 0x230 JUMPI PUSH3 0x22F PUSH3 0xC2 JUMP JUMPDEST JUMPDEST DUP2 MLOAD PUSH3 0x242 DUP5 DUP3 PUSH1 0x20 DUP7 ADD PUSH3 0x1CD JUMP JUMPDEST SWAP2 POP POP SWAP3 SWAP2 POP POP JUMP JUMPDEST PUSH1 0x0 DUP2 SWAP1 POP SWAP2 SWAP1 POP JUMP JUMPDEST PUSH3 0x260 DUP2 PUSH3 0x24B JUMP JUMPDEST DUP2 EQ PUSH3 0x26C JUMPI PUSH1 0x0 DUP1 REVERT JUMPDEST POP JUMP JUMPDEST PUSH1 0x0 DUP2 MLOAD SWAP1 POP PUSH3 0x280 DUP2 PUSH3 0x255 JUMP JUMPDEST SWAP3 SWAP2 POP POP JUMP JUMPDEST PUSH1 0x0 DUP1 PUSH1 0x0 PUSH1 0x60 DUP5 DUP7 SUB SLT ISZERO PUSH3 0x2A2 JUMPI PUSH3 0x2A1 PUSH3 0xB8 JUMP JUMPDEST JUMPDEST PUSH1 0x0 DUP5 ADD MLOAD PUSH8 0xFFFFFFFFFFFFFFFF DUP2 GT ISZERO PUSH3 0x2C3 JUMPI PUSH3 0x2C2 PUSH3 0xBD JUMP JUMPDEST JUMPDEST PUSH3 0x2D1 DUP7 DUP3 DUP8 ADD PUSH3 0x218 JUMP JUMPDEST SWAP4 POP POP PUSH1 0x20 DUP5 ADD MLOAD PUSH8 0xFFFFFFFFFFFFFFFF DUP2 GT ISZERO PUSH3 0x2F5 JUMPI PUSH3 0x2F4 PUSH3 0xBD JUMP JUMPDEST JUMPDEST PUSH3 0x303 DUP7 DUP3 DUP8 ADD PUSH3 0x218 JUMP JUMPDEST SWAP3 POP POP PUSH1 0x40 PUSH3 0x316 DUP7 DUP3 DUP8 ADD PUSH3 0x26F JUMP JUMPDEST SWAP2 POP POP SWAP3 POP SWAP3 POP SWAP3 JUMP JUMPDEST PUSH1 0x0 DUP2 MLOAD SWAP1 POP SWAP2 SWAP1 POP JUMP JUMPDEST PUSH32 0x4E487B7100000000000000000000000000000000000000000000000000000000 PUSH1 0x0 MSTORE PUSH1 0x22 PUSH1 0x4 MSTORE PUSH1 0x24 PUSH1 0x0 REVERT JUMPDEST PUSH1 0x0 PUSH1 0x2 DUP3 DIV SWAP1 POP PUSH1 0x1 DUP3 AND DUP1 PUSH3 0x373 JUMPI PUSH1 0x7F DUP3 AND SWAP2 POP JUMPDEST PUSH1 0x20 DUP3 LT DUP2 SUB PUSH3 0x389 JUMPI PUSH3 0x388 PUSH3 0x32B JUMP JUMPDEST JUMPDEST POP SWAP2 SWAP1 POP JUMP JUMPDEST PUSH1 0x0 DUP2 SWAP1 POP DUP2 PUSH1 0x0 MSTORE PUSH1 0x20 PUSH1 0x0 KECCAK256 SWAP1 POP SWAP2 SWAP1 POP JUMP JUMPDEST PUSH1 0x0 PUSH1 0x20 PUSH1 0x1F DUP4 ADD DIV SWAP1 POP SWAP2 SWAP1 POP JUMP JUMPDEST PUSH1 0x0 DUP3 DUP3 SHL SWAP1 POP SWAP3 SWAP2 POP POP JUMP JUMPDEST PUSH1 0x0 PUSH1 0x8 DUP4 MUL PUSH3 0x3F3 PUSH32 0xFFFFFFFFFFFFFFFFFFFFFFFFFFFFFFFFFFFFFFFFFFFFFFFFFFFFFFFFFFFFFFFF DUP3 PUSH3 0x3B4 JUMP JUMPDEST PUSH3 0x3FF DUP7 DUP4 PUSH3 0x3B4 JUMP JUMPDEST SWAP6 POP DUP1 NOT DUP5 AND SWAP4 POP DUP1 DUP7 AND DUP5 OR SWAP3 POP POP POP SWAP4 SWAP3 POP POP POP JUMP JUMPDEST PUSH1 0x0 DUP2 SWAP1 POP SWAP2 SWAP1 POP JUMP JUMPDEST PUSH1 0x0 PUSH3 0x442 PUSH3 0x43C PUSH3 0x436 DUP5 PUSH3 0x24B JUMP JUMPDEST PUSH3 0x417 JUMP JUMPDEST PUSH3 0x24B JUMP JUMPDEST SWAP1 POP SWAP2 SWAP1 POP JUMP JUMPDEST PUSH1 0x0 DUP2 SWAP1 POP SWAP2 SWAP1 POP JUMP JUMPDEST PUSH3 0x45E DUP4 PUSH3 0x421 JUMP JUMPDEST PUSH3 0x476 PUSH3 0x46D DUP3 PUSH3 0x449 JUMP JUMPDEST DUP5 DUP5 SLOAD PUSH3 0x3C1 JUMP JUMPDEST DUP3 SSTORE POP POP POP POP JUMP JUMPDEST PUSH1 0x0 SWAP1 JUMP JUMPDEST PUSH3 0x48D PUSH3 0x47E JUMP JUMPDEST PUSH3 0x49A DUP2 DUP5 DUP5 PUSH3 0x453 JUMP JUMPDEST POP POP POP JUMP JUMPDEST JUMPDEST DUP2 DUP2 LT ISZERO PUSH3 0x4C2 JUMPI PUSH3 0x4B6 PUSH1 0x0 DUP3 PUSH3 0x483 JUMP JUMPDEST PUSH1 0x1 DUP2 ADD SWAP1 POP PUSH3 0x4A0 JUMP JUMPDEST POP POP JUMP JUMPDEST PUSH1 0x1F DUP3 GT ISZERO PUSH3 0x511 JUMPI PUSH3 0x4DB DUP2 PUSH3 0x38F JUMP JUMPDEST PUSH3 0x4E6 DUP5 PUSH3 0x3A4 JUMP JUMPDEST DUP2 ADD PUSH1 0x20 DUP6 LT ISZERO PUSH3 0x4F6 JUMPI DUP2 SWAP1 POP JUMPDEST PUSH3 0x50E PUSH3 0x505 DUP6 PUSH3 0x3A4 JUMP JUMPDEST DUP4 ADD DUP3 PUSH3 0x49F JUMP JUMPDEST POP POP JUMPDEST POP POP POP JUMP JUMPDEST PUSH1 0x0 DUP3 DUP3 SHR SWAP1 POP SWAP3 SWAP2 POP POP JUMP JUMPDEST PUSH1 0x0 PUSH3 0x536 PUSH1 0x0 NOT DUP5 PUSH1 0x8 MUL PUSH3 0x516 JUMP JUMPDEST NOT DUP1 DUP4 AND SWAP2 POP POP SWAP3 SWAP2 POP POP JUMP JUMPDEST PUSH1 0x0 PUSH3 0x551 DUP4 DUP4 PUSH3 0x523 JUMP JUMPDEST SWAP2 POP DUP3 PUSH1 0x2 MUL DUP3 OR SWAP1 POP SWAP3 SWAP2 POP POP JUMP JUMPDEST PUSH3 0x56C DUP3 PUSH3 0x320 JUMP JUMPDEST PUSH8 0xFFFFFFFFFFFFFFFF DUP2 GT ISZERO PUSH3 0x588 JUMPI PUSH3 0x587 PUSH3 0xDD JUMP JUMPDEST JUMPDEST PUSH3 0x594 DUP3 SLOAD PUSH3 0x35A JUMP JUMPDEST PUSH3 0x5A1 DUP3 DUP3 DUP6 PUSH3 0x4C6 JUMP JUMPDEST PUSH1 0x0 PUSH1 0x20 SWAP1 POP PUSH1 0x1F DUP4 GT PUSH1 0x1 DUP2 EQ PUSH3 0x5D9 JUMPI PUSH1 0x0 DUP5 ISZERO PUSH3 0x5C4 JUMPI DUP3 DUP8 ADD MLOAD SWAP1 POP JUMPDEST PUSH3 0x5D0 DUP6 DUP3 PUSH3 0x543 JUMP JUMPDEST DUP7 SSTORE POP PUSH3 0x640 JUMP JUMPDEST PUSH1 0x1F NOT DUP5 AND PUSH3 0x5E9 DUP7 PUSH3 0x38F JUMP JUMPDEST PUSH1 0x0 JUMPDEST DUP3 DUP2 LT ISZERO PUSH3 0x613 JUMPI DUP5 DUP10 ADD MLOAD DUP3 SSTORE PUSH1 0x1 DUP3 ADD SWAP2 POP PUSH1 0x20 DUP6 ADD SWAP5 POP PUSH1 0x20 DUP2 ADD SWAP1 POP PUSH3 0x5EC JUMP JUMPDEST DUP7 DUP4 LT ISZERO PUSH3 0x633 JUMPI DUP5 DUP10 ADD MLOAD PUSH3 0x62F PUSH1 0x1F DUP10 AND DUP3 PUSH3 0x523 JUMP JUMPDEST DUP4 SSTORE POP JUMPDEST PUSH1 0x1 PUSH1 0x2 DUP9 MUL ADD DUP9 SSTORE POP POP POP JUMPDEST POP POP POP POP POP POP JUMP JUMPDEST PUSH2 0xE5B DUP1 PUSH3 0x658 PUSH1 0x0 CODECOPY PUSH1 0x0 RETURN INVALID PUSH1 0x80 PUSH1 0x40 MSTORE CALLVALUE DUP1 ISZERO PUSH2 0x10 JUMPI PUSH1 0x0 DUP1 REVERT JUMPDEST POP PUSH1 0x4 CALLDATASIZE LT PUSH2 0x7D JUMPI PUSH1 0x0 CALLDATALOAD PUSH1 0xE0 SHR DUP1 PUSH4 0x70A08231 GT PUSH2 0x5B JUMPI DUP1 PUSH4 0x70A08231 EQ PUSH2 0xDA JUMPI DUP1 PUSH4 0xA9059CBB EQ PUSH2 0x10A JUMPI DUP1 PUSH4 0xA967028A EQ PUSH2 0x126 JUMPI DUP1 PUSH4 0xC4E41B22 EQ PUSH2 0x156 JUMPI PUSH2 0x7D JUMP JUMPDEST DUP1 PUSH4 0xBDFECA5 EQ PUSH2 0x82 JUMPI DUP1 PUSH4 0x15070401 EQ PUSH2 0x9E JUMPI DUP1 PUSH4 0x17D7DE7C EQ PUSH2 0xBC JUMPI JUMPDEST PUSH1 0x0 DUP1 REVERT JUMPDEST PUSH2 0x9C PUSH1 0x4 DUP1 CALLDATASIZE SUB DUP2 ADD SWAP1 PUSH2 0x97 SWAP2 SWAP1 PUSH2 0x798 JUMP JUMPDEST PUSH2 0x174 JUMP JUMPDEST STOP JUMPDEST PUSH2 0xA6 PUSH2 0x1C4 JUMP JUMPDEST PUSH1 0x40 MLOAD PUSH2 0xB3 SWAP2 SWAP1 PUSH2 0x869 JUMP JUMPDEST PUSH1 0x40 MLOAD DUP1 SWAP2 SUB SWAP1 RETURN JUMPDEST PUSH2 0xC4 PUSH2 0x256 JUMP JUMPDEST PUSH1 0x40 MLOAD PUSH2 0xD1 SWAP2 SWAP1 PUSH2 0x869 JUMP JUMPDEST PUSH1 0x40 MLOAD DUP1 SWAP2 SUB SWAP1 RETURN JUMPDEST PUSH2 0xF4 PUSH1 0x4 DUP1 CALLDATASIZE SUB DUP2 ADD SWAP1 PUSH2 0xEF SWAP2 SWAP1 PUSH2 0x8E9 JUMP JUMPDEST PUSH2 0x2E8 JUMP JUMPDEST PUSH1 0x40 MLOAD PUSH2 0x101 SWAP2 SWAP1 PUSH2 0x92F JUMP JUMPDEST PUSH1 0x40 MLOAD DUP1 SWAP2 SUB SWAP1 RETURN JUMPDEST PUSH2 0x124 PUSH1 0x4 DUP1 CALLDATASIZE SUB DUP2 ADD SWAP1 PUSH2 0x11F SWAP2 SWAP1 PUSH2 0x976 JUMP JUMPDEST PUSH2 0x330 JUMP JUMPDEST STOP JUMPDEST PUSH2 0x140 PUSH1 0x4 DUP1 CALLDATASIZE SUB DUP2 ADD SWAP1 PUSH2 0x13B SWAP2 SWAP1 PUSH2 0x8E9 JUMP JUMPDEST PUSH2 0x4D2 JUMP JUMPDEST PUSH1 0x40 MLOAD PUSH2 0x14D SWAP2 SWAP1 PUSH2 0x869 JUMP JUMPDEST PUSH1 0x40 MLOAD DUP1 SWAP2 SUB SWAP1 RETURN JUMPDEST PUSH2 0x15E PUSH2 0x634 JUMP JUMPDEST PUSH1 0x40 MLOAD PUSH2 0x16B SWAP2 SWAP1 PUSH2 0x92F JUMP JUMPDEST PUSH1 0x40 MLOAD DUP1 SWAP2 SUB SWAP1 RETURN JUMPDEST DUP1 PUSH1 0x1 PUSH1 0x0 CALLER PUSH20 0xFFFFFFFFFFFFFFFFFFFFFFFFFFFFFFFFFFFFFFFF AND PUSH20 0xFFFFFFFFFFFFFFFFFFFFFFFFFFFFFFFFFFFFFFFF AND DUP2 MSTORE PUSH1 0x20 ADD SWAP1 DUP2 MSTORE PUSH1 0x20 ADD PUSH1 0x0 KECCAK256 SWAP1 DUP2 PUSH2 0x1C0 SWAP2 SWAP1 PUSH2 0xBC2 JUMP JUMPDEST POP POP JUMP JUMPDEST PUSH1 0x60 PUSH1 0x3 DUP1 SLOAD PUSH2 0x1D3 SWAP1 PUSH2 0x9E5 JUMP JUMPDEST DUP1 PUSH1 0x1F ADD PUSH1 0x20 DUP1 SWAP2 DIV MUL PUSH1 0x20 ADD PUSH1 0x40 MLOAD SWAP1 DUP2 ADD PUSH1 0x40 MSTORE DUP1 SWAP3 SWAP2 SWAP1 DUP2 DUP2 MSTORE PUSH1 0x20 ADD DUP3 DUP1 SLOAD PUSH2 0x1FF SWAP1 PUSH2 0x9E5 JUMP JUMPDEST DUP1 ISZERO PUSH2 0x24C JUMPI DUP1 PUSH1 0x1F LT PUSH2 0x221 JUMPI PUSH2 0x100 DUP1 DUP4 SLOAD DIV MUL DUP4 MSTORE SWAP2 PUSH1 0x20 ADD SWAP2 PUSH2 0x24C JUMP JUMPDEST DUP3 ADD SWAP2 SWAP1 PUSH1 0x0 MSTORE PUSH1 0x20 PUSH1 0x0 KECCAK256 SWAP1 JUMPDEST DUP2 SLOAD DUP2 MSTORE SWAP1 PUSH1 0x1 ADD SWAP1 PUSH1 0x20 ADD DUP1 DUP4 GT PUSH2 0x22F JUMPI DUP3 SWAP1 SUB PUSH1 0x1F AND DUP3 ADD SWAP2 JUMPDEST POP POP POP POP POP SWAP1 POP SWAP1 JUMP JUMPDEST PUSH1 0x60 PUSH1 0x2 DUP1 SLOAD PUSH2 0x265 SWAP1 PUSH2 0x9E5 JUMP JUMPDEST DUP1 PUSH1 0x1F ADD PUSH1 0x20 DUP1 SWAP2 DIV MUL PUSH1 0x20 ADD PUSH1 0x40 MLOAD SWAP1 DUP2 ADD PUSH1 0x40 MSTORE DUP1 SWAP3 SWAP2 SWAP1 DUP2 DUP2 MSTORE PUSH1 0x20 ADD DUP3 DUP1 SLOAD PUSH2 0x291 SWAP1 PUSH2 0x9E5 JUMP JUMPDEST DUP1 ISZERO PUSH2 0x2DE JUMPI DUP1 PUSH1 0x1F LT PUSH2 0x2B3 JUMPI PUSH2 0x100 DUP1 DUP4 SLOAD DIV MUL DUP4 MSTORE SWAP2 PUSH1 0x20 ADD SWAP2 PUSH2 0x2DE JUMP JUMPDEST DUP3 ADD SWAP2 SWAP1 PUSH1 0x0 MSTORE PUSH1 0x20 PUSH1 0x0 KECCAK256 SWAP1 JUMPDEST DUP2 SLOAD DUP2 MSTORE SWAP1 PUSH1 0x1 ADD SWAP1 PUSH1 0x20 ADD DUP1 DUP4 GT PUSH2 0x2C1 JUMPI DUP3 SWAP1 SUB PUSH1 0x1F AND DUP3 ADD SWAP2 JUMPDEST POP POP POP POP POP SWAP1 POP SWAP1 JUMP JUMPDEST PUSH1 0x0 DUP1 PUSH1 0x0 DUP4 PUSH20 0xFFFFFFFFFFFFFFFFFFFFFFFFFFFFFFFFFFFFFFFF AND PUSH20 0xFFFFFFFFFFFFFFFFFFFFFFFFFFFFFFFFFFFFFFFF AND DUP2 MSTORE PUSH1 0x20 ADD SWAP1 DUP2 MSTORE PUSH1 0x20 ADD PUSH1 0x0 KECCAK256 SLOAD SWAP1 POP SWAP2 SWAP1 POP JUMP JUMPDEST PUSH1 0x0 CALLER SWAP1 POP PUSH1 0x0 DUP1 PUSH1 0x0 DUP4 PUSH20 0xFFFFFFFFFFFFFFFFFFFFFFFFFFFFFFFFFFFFFFFF AND PUSH20 0xFFFFFFFFFFFFFFFFFFFFFFFFFFFFFFFFFFFFFFFF AND DUP2 MSTORE PUSH1 0x20 ADD SWAP1 DUP2 MSTORE PUSH1 0x20 ADD PUSH1 0x0 KECCAK256 SLOAD SWAP1 POP DUP3 DUP2 LT ISZERO PUSH2 0x3BB JUMPI PUSH1 0x40 MLOAD PUSH32 0x8C379A000000000000000000000000000000000000000000000000000000000 DUP2 MSTORE PUSH1 0x4 ADD PUSH2 0x3B2 SWAP1 PUSH2 0xCE0 JUMP JUMPDEST PUSH1 0x40 MLOAD DUP1 SWAP2 SUB SWAP1 REVERT JUMPDEST DUP2 PUSH20 0xFFFFFFFFFFFFFFFFFFFFFFFFFFFFFFFFFFFFFFFF AND DUP5 PUSH20 0xFFFFFFFFFFFFFFFFFFFFFFFFFFFFFFFFFFFFFFFF AND SUB PUSH2 0x429 JUMPI PUSH1 0x40 MLOAD PUSH32 0x8C379A000000000000000000000000000000000000000000000000000000000 DUP2 MSTORE PUSH1 0x4 ADD PUSH2 0x420 SWAP1 PUSH2 0xD4C JUMP JUMPDEST PUSH1 0x40 MLOAD DUP1 SWAP2 SUB SWAP1 REVERT JUMPDEST DUP3 DUP2 PUSH2 0x435 SWAP2 SWAP1 PUSH2 0xD9B JUMP JUMPDEST PUSH1 0x0 DUP1 DUP5 PUSH20 0xFFFFFFFFFFFFFFFFFFFFFFFFFFFFFFFFFFFFFFFF AND PUSH20 0xFFFFFFFFFFFFFFFFFFFFFFFFFFFFFFFFFFFFFFFF AND DUP2 MSTORE PUSH1 0x20 ADD SWAP1 DUP2 MSTORE PUSH1 0x20 ADD PUSH1 0x0 KECCAK256 DUP2 SWAP1 SSTORE POP DUP3 PUSH1 0x0 DUP1 DUP7 PUSH20 0xFFFFFFFFFFFFFFFFFFFFFFFFFFFFFFFFFFFFFFFF AND PUSH20 0xFFFFFFFFFFFFFFFFFFFFFFFFFFFFFFFFFFFFFFFF AND DUP2 MSTORE PUSH1 0x20 ADD SWAP1 DUP2 MSTORE PUSH1 0x20 ADD PUSH1 0x0 KECCAK256 PUSH1 0x0 DUP3 DUP3 SLOAD PUSH2 0x4C5 SWAP2 SWAP1 PUSH2 0xDCF JUMP JUMPDEST SWAP3 POP POP DUP2 SWAP1 SSTORE POP POP POP POP POP JUMP JUMPDEST PUSH1 0x60 PUSH1 0x0 PUSH1 0x1 PUSH1 0x0 DUP5 PUSH20 0xFFFFFFFFFFFFFFFFFFFFFFFFFFFFFFFFFFFFFFFF AND PUSH20 0xFFFFFFFFFFFFFFFFFFFFFFFFFFFFFFFFFFFFFFFF AND DUP2 MSTORE PUSH1 0x20 ADD SWAP1 DUP2 MSTORE PUSH1 0x20 ADD PUSH1 0x0 KECCAK256 DUP1 SLOAD PUSH2 0x520 SWAP1 PUSH2 0x9E5 JUMP JUMPDEST SWAP1 POP EQ PUSH2 0x5F6 JUMPI PUSH1 0x1 PUSH1 0x0 DUP4 PUSH20 0xFFFFFFFFFFFFFFFFFFFFFFFFFFFFFFFFFFFFFFFF AND PUSH20 0xFFFFFFFFFFFFFFFFFFFFFFFFFFFFFFFFFFFFFFFF AND DUP2 MSTORE PUSH1 0x20 ADD SWAP1 DUP2 MSTORE PUSH1 0x20 ADD PUSH1 0x0 KECCAK256 DUP1 SLOAD PUSH2 0x571 SWAP1 PUSH2 0x9E5 JUMP JUMPDEST DUP1 PUSH1 0x1F ADD PUSH1 0x20 DUP1 SWAP2 DIV MUL PUSH1 0x20 ADD PUSH1 0x40 MLOAD SWAP1 DUP2 ADD PUSH1 0x40 MSTORE DUP1 SWAP3 SWAP2 SWAP1 DUP2 DUP2 MSTORE PUSH1 0x20 ADD DUP3 DUP1 SLOAD PUSH2 0x59D SWAP1 PUSH2 0x9E5 JUMP JUMPDEST DUP1 ISZERO PUSH2 0x5EA JUMPI DUP1 PUSH1 0x1F LT PUSH2 0x5BF JUMPI PUSH2 0x100 DUP1 DUP4 SLOAD DIV MUL DUP4 MSTORE SWAP2 PUSH1 0x20 ADD SWAP2 PUSH2 0x5EA JUMP JUMPDEST DUP3 ADD SWAP2 SWAP1 PUSH1 0x0 MSTORE PUSH1 0x20 PUSH1 0x0 KECCAK256 SWAP1 JUMPDEST DUP2 SLOAD DUP2 MSTORE SWAP1 PUSH1 0x1 ADD SWAP1 PUSH1 0x20 ADD DUP1 DUP4 GT PUSH2 0x5CD JUMPI DUP3 SWAP1 SUB PUSH1 0x1F AND DUP3 ADD SWAP2 JUMPDEST POP POP POP POP POP SWAP1 POP PUSH2 0x62F JUMP JUMPDEST PUSH1 0x40 MLOAD DUP1 PUSH1 0x40 ADD PUSH1 0x40 MSTORE DUP1 PUSH1 0xB DUP2 MSTORE PUSH1 0x20 ADD PUSH32 0x4E6F20757365726E616D65000000000000000000000000000000000000000000 DUP2 MSTORE POP SWAP1 POP JUMPDEST SWAP2 SWAP1 POP JUMP JUMPDEST PUSH1 0x0 PUSH1 0x4 SLOAD SWAP1 POP SWAP1 JUMP JUMPDEST PUSH1 0x0 PUSH1 0x40 MLOAD SWAP1 POP SWAP1 JUMP JUMPDEST PUSH1 0x0 DUP1 REVERT JUMPDEST PUSH1 0x0 DUP1 REVERT JUMPDEST PUSH1 0x0 DUP1 REVERT JUMPDEST PUSH1 0x0 DUP1 REVERT JUMPDEST PUSH1 0x0 PUSH1 0x1F NOT PUSH1 0x1F DUP4 ADD AND SWAP1 POP SWAP2 SWAP1 POP JUMP JUMPDEST PUSH32 0x4E487B7100000000000000000000000000000000000000000000000000000000 PUSH1 0x0 MSTORE PUSH1 0x41 PUSH1 0x4 MSTORE PUSH1 0x24 PUSH1 0x0 REVERT JUMPDEST PUSH2 0x6A5 DUP3 PUSH2 0x65C JUMP JUMPDEST DUP2 ADD DUP2 DUP2 LT PUSH8 0xFFFFFFFFFFFFFFFF DUP3 GT OR ISZERO PUSH2 0x6C4 JUMPI PUSH2 0x6C3 PUSH2 0x66D JUMP JUMPDEST JUMPDEST DUP1 PUSH1 0x40 MSTORE POP POP POP JUMP JUMPDEST PUSH1 0x0 PUSH2 0x6D7 PUSH2 0x63E JUMP JUMPDEST SWAP1 POP PUSH2 0x6E3 DUP3 DUP3 PUSH2 0x69C JUMP JUMPDEST SWAP2 SWAP1 POP JUMP JUMPDEST PUSH1 0x0 PUSH8 0xFFFFFFFFFFFFFFFF DUP3 GT ISZERO PUSH2 0x703 JUMPI PUSH2 0x702 PUSH2 0x66D JUMP JUMPDEST JUMPDEST PUSH2 0x70C DUP3 PUSH2 0x65C JUMP JUMPDEST SWAP1 POP PUSH1 0x20 DUP2 ADD SWAP1 POP SWAP2 SWAP1 POP JUMP JUMPDEST DUP3 DUP2 DUP4 CALLDATACOPY PUSH1 0x0 DUP4 DUP4 ADD MSTORE POP POP POP JUMP JUMPDEST PUSH1 0x0 PUSH2 0x73B PUSH2 0x736 DUP5 PUSH2 0x6E8 JUMP JUMPDEST PUSH2 0x6CD JUMP JUMPDEST SWAP1 POP DUP3 DUP2 MSTORE PUSH1 0x20 DUP2 ADD DUP5 DUP5 DUP5 ADD GT ISZERO PUSH2 0x757 JUMPI PUSH2 0x756 PUSH2 0x657 JUMP JUMPDEST JUMPDEST PUSH2 0x762 DUP5 DUP3 DUP6 PUSH2 0x719 JUMP JUMPDEST POP SWAP4 SWAP3 POP POP POP JUMP JUMPDEST PUSH1 0x0 DUP3 PUSH1 0x1F DUP4 ADD SLT PUSH2 0x77F JUMPI PUSH2 0x77E PUSH2 0x652 JUMP JUMPDEST JUMPDEST DUP2 CALLDATALOAD PUSH2 0x78F DUP5 DUP3 PUSH1 0x20 DUP7 ADD PUSH2 0x728 JUMP JUMPDEST SWAP2 POP POP SWAP3 SWAP2 POP POP JUMP JUMPDEST PUSH1 0x0 PUSH1 0x20 DUP3 DUP5 SUB SLT ISZERO PUSH2 0x7AE JUMPI PUSH2 0x7AD PUSH2 0x648 JUMP JUMPDEST JUMPDEST PUSH1 0x0 DUP3 ADD CALLDATALOAD PUSH8 0xFFFFFFFFFFFFFFFF DUP2 GT ISZERO PUSH2 0x7CC JUMPI PUSH2 0x7CB PUSH2 0x64D JUMP JUMPDEST JUMPDEST PUSH2 0x7D8 DUP5 DUP3 DUP6 ADD PUSH2 0x76A JUMP JUMPDEST SWAP2 POP POP SWAP3 SWAP2 POP POP JUMP JUMPDEST PUSH1 0x0 DUP2 MLOAD SWAP1 POP SWAP2 SWAP1 POP JUMP JUMPDEST PUSH1 0x0 DUP3 DUP3 MSTORE PUSH1 0x20 DUP3 ADD SWAP1 POP SWAP3 SWAP2 POP POP JUMP JUMPDEST PUSH1 0x0 JUMPDEST DUP4 DUP2 LT ISZERO PUSH2 0x81B JUMPI DUP1 DUP3 ADD MLOAD DUP2 DUP5 ADD MSTORE PUSH1 0x20 DUP2 ADD SWAP1 POP PUSH2 0x800 JUMP JUMPDEST DUP4 DUP2 GT ISZERO PUSH2 0x82A JUMPI PUSH1 0x0 DUP5 DUP5 ADD MSTORE JUMPDEST POP POP POP POP JUMP JUMPDEST PUSH1 0x0 PUSH2 0x83B DUP3 PUSH2 0x7E1 JUMP JUMPDEST PUSH2 0x845 DUP2 DUP6 PUSH2 0x7EC JUMP JUMPDEST SWAP4 POP PUSH2 0x855 DUP2 DUP6 PUSH1 0x20 DUP7 ADD PUSH2 0x7FD JUMP JUMPDEST PUSH2 0x85E DUP2 PUSH2 0x65C JUMP JUMPDEST DUP5 ADD SWAP2 POP POP SWAP3 SWAP2 POP POP JUMP JUMPDEST PUSH1 0x0 PUSH1 0x20 DUP3 ADD SWAP1 POP DUP2 DUP2 SUB PUSH1 0x0 DUP4 ADD MSTORE PUSH2 0x883 DUP2 DUP5 PUSH2 0x830 JUMP JUMPDEST SWAP1 POP SWAP3 SWAP2 POP POP JUMP JUMPDEST PUSH1 0x0 PUSH20 0xFFFFFFFFFFFFFFFFFFFFFFFFFFFFFFFFFFFFFFFF DUP3 AND SWAP1 POP SWAP2 SWAP1 POP JUMP JUMPDEST PUSH1 0x0 PUSH2 0x8B6 DUP3 PUSH2 0x88B JUMP JUMPDEST SWAP1 POP SWAP2 SWAP1 POP JUMP JUMPDEST PUSH2 0x8C6 DUP2 PUSH2 0x8AB JUMP JUMPDEST DUP2 EQ PUSH2 0x8D1 JUMPI PUSH1 0x0 DUP1 REVERT JUMPDEST POP JUMP JUMPDEST PUSH1 0x0 DUP2 CALLDATALOAD SWAP1 POP PUSH2 0x8E3 DUP2 PUSH2 0x8BD JUMP JUMPDEST SWAP3 SWAP2 POP POP JUMP JUMPDEST PUSH1 0x0 PUSH1 0x20 DUP3 DUP5 SUB SLT ISZERO PUSH2 0x8FF JUMPI PUSH2 0x8FE PUSH2 0x648 JUMP JUMPDEST JUMPDEST PUSH1 0x0 PUSH2 0x90D DUP5 DUP3 DUP6 ADD PUSH2 0x8D4 JUMP JUMPDEST SWAP2 POP POP SWAP3 SWAP2 POP POP JUMP JUMPDEST PUSH1 0x0 DUP2 SWAP1 POP SWAP2 SWAP1 POP JUMP JUMPDEST PUSH2 0x929 DUP2 PUSH2 0x916 JUMP JUMPDEST DUP3 MSTORE POP POP JUMP JUMPDEST PUSH1 0x0 PUSH1 0x20 DUP3 ADD SWAP1 POP PUSH2 0x944 PUSH1 0x0 DUP4 ADD DUP5 PUSH2 0x920 JUMP JUMPDEST SWAP3 SWAP2 POP POP JUMP JUMPDEST PUSH2 0x953 DUP2 PUSH2 0x916 JUMP JUMPDEST DUP2 EQ PUSH2 0x95E JUMPI PUSH1 0x0 DUP1 REVERT JUMPDEST POP JUMP JUMPDEST PUSH1 0x0 DUP2 CALLDATALOAD SWAP1 POP PUSH2 0x970 DUP2 PUSH2 0x94A JUMP JUMPDEST SWAP3 SWAP2 POP POP JUMP JUMPDEST PUSH1 0x0 DUP1 PUSH1 0x40 DUP4 DUP6 SUB SLT ISZERO PUSH2 0x98D JUMPI PUSH2 0x98C PUSH2 0x648 JUMP JUMPDEST JUMPDEST PUSH1 0x0 PUSH2 0x99B DUP6 DUP3 DUP7 ADD PUSH2 0x8D4 JUMP JUMPDEST SWAP3 POP POP PUSH1 0x20 PUSH2 0x9AC DUP6 DUP3 DUP7 ADD PUSH2 0x961 JUMP JUMPDEST SWAP2 POP POP SWAP3 POP SWAP3 SWAP1 POP JUMP JUMPDEST PUSH32 0x4E487B7100000000000000000000000000000000000000000000000000000000 PUSH1 0x0 MSTORE PUSH1 0x22 PUSH1 0x4 MSTORE PUSH1 0x24 PUSH1 0x0 REVERT JUMPDEST PUSH1 0x0 PUSH1 0x2 DUP3 DIV SWAP1 POP PUSH1 0x1 DUP3 AND DUP1 PUSH2 0x9FD JUMPI PUSH1 0x7F DUP3 AND SWAP2 POP JUMPDEST PUSH1 0x20 DUP3 LT DUP2 SUB PUSH2 0xA10 JUMPI PUSH2 0xA0F PUSH2 0x9B6 JUMP JUMPDEST JUMPDEST POP SWAP2 SWAP1 POP JUMP JUMPDEST PUSH1 0x0 DUP2 SWAP1 POP DUP2 PUSH1 0x0 MSTORE PUSH1 0x20 PUSH1 0x0 KECCAK256 SWAP1 POP SWAP2 SWAP1 POP JUMP JUMPDEST PUSH1 0x0 PUSH1 0x20 PUSH1 0x1F DUP4 ADD DIV SWAP1 POP SWAP2 SWAP1 POP JUMP JUMPDEST PUSH1 0x0 DUP3 DUP3 SHL SWAP1 POP SWAP3 SWAP2 POP POP JUMP JUMPDEST PUSH1 0x0 PUSH1 0x8 DUP4 MUL PUSH2 0xA78 PUSH32 0xFFFFFFFFFFFFFFFFFFFFFFFFFFFFFFFFFFFFFFFFFFFFFFFFFFFFFFFFFFFFFFFF DUP3 PUSH2 0xA3B JUMP JUMPDEST PUSH2 0xA82 DUP7 DUP4 PUSH2 0xA3B JUMP JUMPDEST SWAP6 POP DUP1 NOT DUP5 AND SWAP4 POP DUP1 DUP7 AND DUP5 OR SWAP3 POP POP POP SWAP4 SWAP3 POP POP POP JUMP JUMPDEST PUSH1 0x0 DUP2 SWAP1 POP SWAP2 SWAP1 POP JUMP JUMPDEST PUSH1 0x0 PUSH2 0xABF PUSH2 0xABA PUSH2 0xAB5 DUP5 PUSH2 0x916 JUMP JUMPDEST PUSH2 0xA9A JUMP JUMPDEST PUSH2 0x916 JUMP JUMPDEST SWAP1 POP SWAP2 SWAP1 POP JUMP JUMPDEST PUSH1 0x0 DUP2 SWAP1 POP SWAP2 SWAP1 POP JUMP JUMPDEST PUSH2 0xAD9 DUP4 PUSH2 0xAA4 JUMP JUMPDEST PUSH2 0xAED PUSH2 0xAE5 DUP3 PUSH2 0xAC6 JUMP JUMPDEST DUP5 DUP5 SLOAD PUSH2 0xA48 JUMP JUMPDEST DUP3 SSTORE POP POP POP POP JUMP JUMPDEST PUSH1 0x0 SWAP1 JUMP JUMPDEST PUSH2 0xB02 PUSH2 0xAF5 JUMP JUMPDEST PUSH2 0xB0D DUP2 DUP5 DUP5 PUSH2 0xAD0 JUMP JUMPDEST POP POP POP JUMP JUMPDEST JUMPDEST DUP2 DUP2 LT ISZERO PUSH2 0xB31 JUMPI PUSH2 0xB26 PUSH1 0x0 DUP3 PUSH2 0xAFA JUMP JUMPDEST PUSH1 0x1 DUP2 ADD SWAP1 POP PUSH2 0xB13 JUMP JUMPDEST POP POP JUMP JUMPDEST PUSH1 0x1F DUP3 GT ISZERO PUSH2 0xB76 JUMPI PUSH2 0xB47 DUP2 PUSH2 0xA16 JUMP JUMPDEST PUSH2 0xB50 DUP5 PUSH2 0xA2B JUMP JUMPDEST DUP2 ADD PUSH1 0x20 DUP6 LT ISZERO PUSH2 0xB5F JUMPI DUP2 SWAP1 POP JUMPDEST PUSH2 0xB73 PUSH2 0xB6B DUP6 PUSH2 0xA2B JUMP JUMPDEST DUP4 ADD DUP3 PUSH2 0xB12 JUMP JUMPDEST POP POP JUMPDEST POP POP POP JUMP JUMPDEST PUSH1 0x0 DUP3 DUP3 SHR SWAP1 POP SWAP3 SWAP2 POP POP JUMP JUMPDEST PUSH1 0x0 PUSH2 0xB99 PUSH1 0x0 NOT DUP5 PUSH1 0x8 MUL PUSH2 0xB7B JUMP JUMPDEST NOT DUP1 DUP4 AND SWAP2 POP POP SWAP3 SWAP2 POP POP JUMP JUMPDEST PUSH1 0x0 PUSH2 0xBB2 DUP4 DUP4 PUSH2 0xB88 JUMP JUMPDEST SWAP2 POP DUP3 PUSH1 0x2 MUL DUP3 OR SWAP1 POP SWAP3 SWAP2 POP POP JUMP JUMPDEST PUSH2 0xBCB DUP3 PUSH2 0x7E1 JUMP JUMPDEST PUSH8 0xFFFFFFFFFFFFFFFF DUP2 GT ISZERO PUSH2 0xBE4 JUMPI PUSH2 0xBE3 PUSH2 0x66D JUMP JUMPDEST JUMPDEST PUSH2 0xBEE DUP3 SLOAD PUSH2 0x9E5 JUMP JUMPDEST PUSH2 0xBF9 DUP3 DUP3 DUP6 PUSH2 0xB35 JUMP JUMPDEST PUSH1 0x0 PUSH1 0x20 SWAP1 POP PUSH1 0x1F DUP4 GT PUSH1 0x1 DUP2 EQ PUSH2 0xC2C JUMPI PUSH1 0x0 DUP5 ISZERO PUSH2 0xC1A JUMPI DUP3 DUP8 ADD MLOAD SWAP1 POP JUMPDEST PUSH2 0xC24 DUP6 DUP3 PUSH2 0xBA6 JUMP JUMPDEST DUP7 SSTORE POP PUSH2 0xC8C JUMP JUMPDEST PUSH1 0x1F NOT DUP5 AND PUSH2 0xC3A DUP7 PUSH2 0xA16 JUMP JUMPDEST PUSH1 0x0 JUMPDEST DUP3 DUP2 LT ISZERO PUSH2 0xC62 JUMPI DUP5 DUP10 ADD MLOAD DUP3 SSTORE PUSH1 0x1 DUP3 ADD SWAP2 POP PUSH1 0x20 DUP6 ADD SWAP5 POP PUSH1 0x20 DUP2 ADD SWAP1 POP PUSH2 0xC3D JUMP JUMPDEST DUP7 DUP4 LT ISZERO PUSH2 0xC7F JUMPI DUP5 DUP10 ADD MLOAD PUSH2 0xC7B PUSH1 0x1F DUP10 AND DUP3 PUSH2 0xB88 JUMP JUMPDEST DUP4 SSTORE POP JUMPDEST PUSH1 0x1 PUSH1 0x2 DUP9 MUL ADD DUP9 SSTORE POP POP POP JUMPDEST POP POP POP POP POP POP JUMP JUMPDEST PUSH32 0x496E73756666696369656E742066756E6420746F207472616E73666572000000 PUSH1 0x0 DUP3 ADD MSTORE POP JUMP JUMPDEST PUSH1 0x0 PUSH2 0xCCA PUSH1 0x1D DUP4 PUSH2 0x7EC JUMP JUMPDEST SWAP2 POP PUSH2 0xCD5 DUP3 PUSH2 0xC94 JUMP JUMPDEST PUSH1 0x20 DUP3 ADD SWAP1 POP SWAP2 SWAP1 POP JUMP JUMPDEST PUSH1 0x0 PUSH1 0x20 DUP3 ADD SWAP1 POP DUP2 DUP2 SUB PUSH1 0x0 DUP4 ADD MSTORE PUSH2 0xCF9 DUP2 PUSH2 0xCBD JUMP JUMPDEST SWAP1 POP SWAP2 SWAP1 POP JUMP JUMPDEST PUSH32 0x596F752063616E6E6F742073656E6420746F20796F757273656C660000000000 PUSH1 0x0 DUP3 ADD MSTORE POP JUMP JUMPDEST PUSH1 0x0 PUSH2 0xD36 PUSH1 0x1B DUP4 PUSH2 0x7EC JUMP JUMPDEST SWAP2 POP PUSH2 0xD41 DUP3 PUSH2 0xD00 JUMP JUMPDEST PUSH1 0x20 DUP3 ADD SWAP1 POP SWAP2 SWAP1 POP JUMP JUMPDEST PUSH1 0x0 PUSH1 0x20 DUP3 ADD SWAP1 POP DUP2 DUP2 SUB PUSH1 0x0 DUP4 ADD MSTORE PUSH2 0xD65 DUP2 PUSH2 0xD29 JUMP JUMPDEST SWAP1 POP SWAP2 SWAP1 POP JUMP JUMPDEST PUSH32 0x4E487B7100000000000000000000000000000000000000000000000000000000 PUSH1 0x0 MSTORE PUSH1 0x11 PUSH1 0x4 MSTORE PUSH1 0x24 PUSH1 0x0 REVERT JUMPDEST PUSH1 0x0 PUSH2 0xDA6 DUP3 PUSH2 0x916 JUMP JUMPDEST SWAP2 POP PUSH2 0xDB1 DUP4 PUSH2 0x916 JUMP JUMPDEST SWAP3 POP DUP3 DUP3 LT ISZERO PUSH2 0xDC4 JUMPI PUSH2 0xDC3 PUSH2 0xD6C JUMP JUMPDEST JUMPDEST DUP3 DUP3 SUB SWAP1 POP SWAP3 SWAP2 POP POP JUMP JUMPDEST PUSH1 0x0 PUSH2 0xDDA DUP3 PUSH2 0x916 JUMP JUMPDEST SWAP2 POP PUSH2 0xDE5 DUP4 PUSH2 0x916 JUMP JUMPDEST SWAP3 POP DUP3 PUSH32 0xFFFFFFFFFFFFFFFFFFFFFFFFFFFFFFFFFFFFFFFFFFFFFFFFFFFFFFFFFFFFFFFF SUB DUP3 GT ISZERO PUSH2 0xE1A JUMPI PUSH2 0xE19 PUSH2 0xD6C JUMP JUMPDEST JUMPDEST DUP3 DUP3 ADD SWAP1 POP SWAP3 SWAP2 POP POP JUMP INVALID LOG2 PUSH5 0x6970667358 0x22 SLT KECCAK256 PUSH25 0x463ABB413F561F82807165D7A86D90098870276C7EBE950C83 0xA7 0xA6 PUSH26 0xBAEB1C64736F6C634300080F0033000000000000000000000000 "
		},
		"gasEstimates": {
			"creation": {
				"codeDepositCost": "735000",
				"executionCost": "infinite",
				"totalCost": "infinite"
			},
			"external": {
				"balanceOf(address)": "2841",
				"getName()": "infinite",
				"getSymbol()": "infinite",
				"getTotalSupply()": "2503",
				"getWalletName(address)": "infinite",
				"setMyWalletName(string)": "infinite",
				"transfer(address,uint256)": "infinite"
			}
		},
		"methodIdentifiers": {
			"balanceOf(address)": "70a08231",
			"getName()": "17d7de7c",
			"getSymbol()": "15070401",
			"getTotalSupply()": "c4e41b22",
			"getWalletName(address)": "a967028a",
			"setMyWalletName(string)": "0bdfeca5",
			"transfer(address,uint256)": "a9059cbb"
		}
	},
	"abi": [
		{
			"inputs": [
				{
					"internalType": "string",
					"name": "_name",
					"type": "string"
				},
				{
					"internalType": "string",
					"name": "_symbol",
					"type": "string"
				},
				{
					"internalType": "uint256",
					"name": "_totalSupply",
					"type": "uint256"
				}
			],
			"stateMutability": "nonpayable",
			"type": "constructor"
		},
		{
			"inputs": [
				{
					"internalType": "address",
					"name": "_account",
					"type": "address"
				}
			],
			"name": "balanceOf",
			"outputs": [
				{
					"internalType": "uint256",
					"name": "",
					"type": "uint256"
				}
			],
			"stateMutability": "view",
			"type": "function"
		},
		{
			"inputs": [],
			"name": "getName",
			"outputs": [
				{
					"internalType": "string",
					"name": "",
					"type": "string"
				}
			],
			"stateMutability": "view",
			"type": "function"
		},
		{
			"inputs": [],
			"name": "getSymbol",
			"outputs": [
				{
					"internalType": "string",
					"name": "",
					"type": "string"
				}
			],
			"stateMutability": "view",
			"type": "function"
		},
		{
			"inputs": [],
			"name": "getTotalSupply",
			"outputs": [
				{
					"internalType": "uint256",
					"name": "",
					"type": "uint256"
				}
			],
			"stateMutability": "view",
			"type": "function"
		},
		{
			"inputs": [
				{
					"internalType": "address",
					"name": "_addr",
					"type": "address"
				}
			],
			"name": "getWalletName",
			"outputs": [
				{
					"internalType": "string",
					"name": "",
					"type": "string"
				}
			],
			"stateMutability": "view",
			"type": "function"
		},
		{
			"inputs": [
				{
					"internalType": "string",
					"name": "_name",
					"type": "string"
				}
			],
			"name": "setMyWalletName",
			"outputs": [],
			"stateMutability": "nonpayable",
			"type": "function"
		},
		{
			"inputs": [
				{
					"internalType": "address",
					"name": "_to",
					"type": "address"
				},
				{
					"internalType": "uint256",
					"name": "amount",
					"type": "uint256"
				}
			],
			"name": "transfer",
			"outputs": [],
			"stateMutability": "nonpayable",
			"type": "function"
		}
	]
}