{
	"contracts/artifacts/enum.sol": {
		"Enum": {
			"abi": [
				{
					"inputs": [],
					"name": "day",
					"outputs": [
						{
							"internalType": "enum Enum.Days",
							"name": "",
							"type": "uint8"
						}
					],
					"stateMutability": "view",
					"type": "function"
				},
				{
					"inputs": [],
					"name": "getStatus",
					"outputs": [
						{
							"internalType": "enum Enum.Status",
							"name": "",
							"type": "uint8"
						}
					],
					"stateMutability": "view",
					"type": "function"
				},
				{
					"inputs": [
						{
							"internalType": "enum Enum.Status",
							"name": "_status",
							"type": "uint8"
						}
					],
					"name": "setStatus",
					"outputs": [
						{
							"internalType": "enum Enum.Status",
							"name": "",
							"type": "uint8"
						}
					],
					"stateMutability": "view",
					"type": "function"
				}
			],
			"devdoc": {
				"kind": "dev",
				"methods": {},
				"version": 1
			},
			"evm": {
				"assembly": "    /* \"contracts/artifacts/enum.sol\":26:494  contract Enum {... */\n  mstore(0x40, 0x80)\n    /* \"contracts/artifacts/enum.sol\":271:279  Days.Mon */\n  0x01\n    /* \"contracts/artifacts/enum.sol\":253:279  Days public day = Days.Mon */\n  0x00\n  dup1\n  0x0100\n  exp\n  dup2\n  sload\n  dup2\n  0xff\n  mul\n  not\n  and\n  swap1\n  dup4\n  0x06\n  dup2\n  gt\n  iszero\n  tag_1\n  jumpi\n  tag_2\n  tag_3\n  jump\t// in\ntag_2:\ntag_1:\n  mul\n  or\n  swap1\n  sstore\n  pop\n    /* \"contracts/artifacts/enum.sol\":26:494  contract Enum {... */\n  callvalue\n  dup1\n  iszero\n  tag_4\n  jumpi\n  0x00\n  dup1\n  revert\ntag_4:\n  pop\n  jump(tag_5)\n    /* \"#utility.yul\":7:187   */\ntag_3:\n    /* \"#utility.yul\":55:132   */\n  0x4e487b7100000000000000000000000000000000000000000000000000000000\n    /* \"#utility.yul\":52:53   */\n  0x00\n    /* \"#utility.yul\":45:133   */\n  mstore\n    /* \"#utility.yul\":152:156   */\n  0x21\n    /* \"#utility.yul\":149:150   */\n  0x04\n    /* \"#utility.yul\":142:157   */\n  mstore\n    /* \"#utility.yul\":176:180   */\n  0x24\n    /* \"#utility.yul\":173:174   */\n  0x00\n    /* \"#utility.yul\":166:181   */\n  revert\n    /* \"contracts/artifacts/enum.sol\":26:494  contract Enum {... */\ntag_5:\n  dataSize(sub_0)\n  dup1\n  dataOffset(sub_0)\n  0x00\n  codecopy\n  0x00\n  return\nstop\n\nsub_0: assembly {\n        /* \"contracts/artifacts/enum.sol\":26:494  contract Enum {... */\n      mstore(0x40, 0x80)\n      callvalue\n      dup1\n      iszero\n      tag_1\n      jumpi\n      0x00\n      dup1\n      revert\n    tag_1:\n      pop\n      jumpi(tag_2, lt(calldatasize, 0x04))\n      shr(0xe0, calldataload(0x00))\n      dup1\n      0x2e49d78b\n      eq\n      tag_3\n      jumpi\n      dup1\n      0x4e69d560\n      eq\n      tag_4\n      jumpi\n      dup1\n      0x7b76ac91\n      eq\n      tag_5\n      jumpi\n    tag_2:\n      0x00\n      dup1\n      revert\n        /* \"contracts/artifacts/enum.sol\":399:492  function setStatus(Status _status) public view returns(Status) {... */\n    tag_3:\n      tag_6\n      0x04\n      dup1\n      calldatasize\n      sub\n      dup2\n      add\n      swap1\n      tag_7\n      swap2\n      swap1\n      tag_8\n      jump\t// in\n    tag_7:\n      tag_9\n      jump\t// in\n    tag_6:\n      mload(0x40)\n      tag_10\n      swap2\n      swap1\n      tag_11\n      jump\t// in\n    tag_10:\n      mload(0x40)\n      dup1\n      swap2\n      sub\n      swap1\n      return\n        /* \"contracts/artifacts/enum.sol\":314:393  function getStatus() public view returns(Status) {... */\n    tag_4:\n      tag_12\n      tag_13\n      jump\t// in\n    tag_12:\n      mload(0x40)\n      tag_14\n      swap2\n      swap1\n      tag_11\n      jump\t// in\n    tag_14:\n      mload(0x40)\n      dup1\n      swap2\n      sub\n      swap1\n      return\n        /* \"contracts/artifacts/enum.sol\":253:279  Days public day = Days.Mon */\n    tag_5:\n      tag_15\n      tag_16\n      jump\t// in\n    tag_15:\n      mload(0x40)\n      tag_17\n      swap2\n      swap1\n      tag_18\n      jump\t// in\n    tag_17:\n      mload(0x40)\n      dup1\n      swap2\n      sub\n      swap1\n      return\n        /* \"contracts/artifacts/enum.sol\":399:492  function setStatus(Status _status) public view returns(Status) {... */\n    tag_9:\n        /* \"contracts/artifacts/enum.sol\":454:460  Status */\n      0x00\n        /* \"contracts/artifacts/enum.sol\":479:485  status */\n      dup1\n      0x01\n      swap1\n      sload\n      swap1\n      0x0100\n      exp\n      swap1\n      div\n      0xff\n      and\n        /* \"contracts/artifacts/enum.sol\":472:485  return status */\n      swap1\n      pop\n        /* \"contracts/artifacts/enum.sol\":399:492  function setStatus(Status _status) public view returns(Status) {... */\n      swap2\n      swap1\n      pop\n      jump\t// out\n        /* \"contracts/artifacts/enum.sol\":314:393  function getStatus() public view returns(Status) {... */\n    tag_13:\n        /* \"contracts/artifacts/enum.sol\":355:361  Status */\n      0x00\n        /* \"contracts/artifacts/enum.sol\":380:386  status */\n      dup1\n      0x01\n      swap1\n      sload\n      swap1\n      0x0100\n      exp\n      swap1\n      div\n      0xff\n      and\n        /* \"contracts/artifacts/enum.sol\":373:386  return status */\n      swap1\n      pop\n        /* \"contracts/artifacts/enum.sol\":314:393  function getStatus() public view returns(Status) {... */\n      swap1\n      jump\t// out\n        /* \"contracts/artifacts/enum.sol\":253:279  Days public day = Days.Mon */\n    tag_16:\n      0x00\n      dup1\n      sload\n      swap1\n      0x0100\n      exp\n      swap1\n      div\n      0xff\n      and\n      dup2\n      jump\t// out\n        /* \"#utility.yul\":88:205   */\n    tag_22:\n        /* \"#utility.yul\":197:198   */\n      0x00\n        /* \"#utility.yul\":194:195   */\n      dup1\n        /* \"#utility.yul\":187:199   */\n      revert\n        /* \"#utility.yul\":334:442   */\n    tag_24:\n        /* \"#utility.yul\":416:417   */\n      0x04\n        /* \"#utility.yul\":409:414   */\n      dup2\n        /* \"#utility.yul\":406:418   */\n      lt\n        /* \"#utility.yul\":396:436   */\n      tag_40\n      jumpi\n        /* \"#utility.yul\":432:433   */\n      0x00\n        /* \"#utility.yul\":429:430   */\n      dup1\n        /* \"#utility.yul\":422:434   */\n      revert\n        /* \"#utility.yul\":396:436   */\n    tag_40:\n        /* \"#utility.yul\":334:442   */\n      pop\n      jump\t// out\n        /* \"#utility.yul\":448:605   */\n    tag_25:\n        /* \"#utility.yul\":503:508   */\n      0x00\n        /* \"#utility.yul\":541:547   */\n      dup2\n        /* \"#utility.yul\":528:548   */\n      calldataload\n        /* \"#utility.yul\":519:548   */\n      swap1\n      pop\n        /* \"#utility.yul\":557:599   */\n      tag_42\n        /* \"#utility.yul\":593:598   */\n      dup2\n        /* \"#utility.yul\":557:599   */\n      tag_24\n      jump\t// in\n    tag_42:\n        /* \"#utility.yul\":448:605   */\n      swap3\n      swap2\n      pop\n      pop\n      jump\t// out\n        /* \"#utility.yul\":611:958   */\n    tag_8:\n        /* \"#utility.yul\":679:685   */\n      0x00\n        /* \"#utility.yul\":728:730   */\n      0x20\n        /* \"#utility.yul\":716:725   */\n      dup3\n        /* \"#utility.yul\":707:714   */\n      dup5\n        /* \"#utility.yul\":703:726   */\n      sub\n        /* \"#utility.yul\":699:731   */\n      slt\n        /* \"#utility.yul\":696:815   */\n      iszero\n      tag_44\n      jumpi\n        /* \"#utility.yul\":734:813   */\n      tag_45\n      tag_22\n      jump\t// in\n    tag_45:\n        /* \"#utility.yul\":696:815   */\n    tag_44:\n        /* \"#utility.yul\":854:855   */\n      0x00\n        /* \"#utility.yul\":879:941   */\n      tag_46\n        /* \"#utility.yul\":933:940   */\n      dup5\n        /* \"#utility.yul\":924:930   */\n      dup3\n        /* \"#utility.yul\":913:922   */\n      dup6\n        /* \"#utility.yul\":909:931   */\n      add\n        /* \"#utility.yul\":879:941   */\n      tag_25\n      jump\t// in\n    tag_46:\n        /* \"#utility.yul\":869:941   */\n      swap2\n      pop\n        /* \"#utility.yul\":825:951   */\n      pop\n        /* \"#utility.yul\":611:958   */\n      swap3\n      swap2\n      pop\n      pop\n      jump\t// out\n        /* \"#utility.yul\":964:1144   */\n    tag_26:\n        /* \"#utility.yul\":1012:1089   */\n      0x4e487b7100000000000000000000000000000000000000000000000000000000\n        /* \"#utility.yul\":1009:1010   */\n      0x00\n        /* \"#utility.yul\":1002:1090   */\n      mstore\n        /* \"#utility.yul\":1109:1113   */\n      0x21\n        /* \"#utility.yul\":1106:1107   */\n      0x04\n        /* \"#utility.yul\":1099:1114   */\n      mstore\n        /* \"#utility.yul\":1133:1137   */\n      0x24\n        /* \"#utility.yul\":1130:1131   */\n      0x00\n        /* \"#utility.yul\":1123:1138   */\n      revert\n        /* \"#utility.yul\":1150:1264   */\n    tag_27:\n        /* \"#utility.yul\":1232:1233   */\n      0x04\n        /* \"#utility.yul\":1225:1230   */\n      dup2\n        /* \"#utility.yul\":1222:1234   */\n      lt\n        /* \"#utility.yul\":1212:1258   */\n      tag_49\n      jumpi\n        /* \"#utility.yul\":1238:1256   */\n      tag_50\n      tag_26\n      jump\t// in\n    tag_50:\n        /* \"#utility.yul\":1212:1258   */\n    tag_49:\n        /* \"#utility.yul\":1150:1264   */\n      pop\n      jump\t// out\n        /* \"#utility.yul\":1270:1399   */\n    tag_28:\n        /* \"#utility.yul\":1316:1323   */\n      0x00\n        /* \"#utility.yul\":1345:1350   */\n      dup2\n        /* \"#utility.yul\":1334:1350   */\n      swap1\n      pop\n        /* \"#utility.yul\":1351:1393   */\n      tag_52\n        /* \"#utility.yul\":1387:1392   */\n      dup3\n        /* \"#utility.yul\":1351:1393   */\n      tag_27\n      jump\t// in\n    tag_52:\n        /* \"#utility.yul\":1270:1399   */\n      swap2\n      swap1\n      pop\n      jump\t// out\n        /* \"#utility.yul\":1405:1534   */\n    tag_29:\n        /* \"#utility.yul\":1462:1471   */\n      0x00\n        /* \"#utility.yul\":1495:1528   */\n      tag_54\n        /* \"#utility.yul\":1522:1527   */\n      dup3\n        /* \"#utility.yul\":1495:1528   */\n      tag_28\n      jump\t// in\n    tag_54:\n        /* \"#utility.yul\":1482:1528   */\n      swap1\n      pop\n        /* \"#utility.yul\":1405:1534   */\n      swap2\n      swap1\n      pop\n      jump\t// out\n        /* \"#utility.yul\":1540:1685   */\n    tag_30:\n        /* \"#utility.yul\":1634:1678   */\n      tag_56\n        /* \"#utility.yul\":1672:1677   */\n      dup2\n        /* \"#utility.yul\":1634:1678   */\n      tag_29\n      jump\t// in\n    tag_56:\n        /* \"#utility.yul\":1629:1632   */\n      dup3\n        /* \"#utility.yul\":1622:1679   */\n      mstore\n        /* \"#utility.yul\":1540:1685   */\n      pop\n      pop\n      jump\t// out\n        /* \"#utility.yul\":1691:1927   */\n    tag_11:\n        /* \"#utility.yul\":1791:1795   */\n      0x00\n        /* \"#utility.yul\":1829:1831   */\n      0x20\n        /* \"#utility.yul\":1818:1827   */\n      dup3\n        /* \"#utility.yul\":1814:1832   */\n      add\n        /* \"#utility.yul\":1806:1832   */\n      swap1\n      pop\n        /* \"#utility.yul\":1842:1920   */\n      tag_58\n        /* \"#utility.yul\":1917:1918   */\n      0x00\n        /* \"#utility.yul\":1906:1915   */\n      dup4\n        /* \"#utility.yul\":1902:1919   */\n      add\n        /* \"#utility.yul\":1893:1899   */\n      dup5\n        /* \"#utility.yul\":1842:1920   */\n      tag_30\n      jump\t// in\n    tag_58:\n        /* \"#utility.yul\":1691:1927   */\n      swap3\n      swap2\n      pop\n      pop\n      jump\t// out\n        /* \"#utility.yul\":1933:2044   */\n    tag_31:\n        /* \"#utility.yul\":2012:2013   */\n      0x07\n        /* \"#utility.yul\":2005:2010   */\n      dup2\n        /* \"#utility.yul\":2002:2014   */\n      lt\n        /* \"#utility.yul\":1992:2038   */\n      tag_60\n      jumpi\n        /* \"#utility.yul\":2018:2036   */\n      tag_61\n      tag_26\n      jump\t// in\n    tag_61:\n        /* \"#utility.yul\":1992:2038   */\n    tag_60:\n        /* \"#utility.yul\":1933:2044   */\n      pop\n      jump\t// out\n        /* \"#utility.yul\":2050:2173   */\n    tag_32:\n        /* \"#utility.yul\":2093:2100   */\n      0x00\n        /* \"#utility.yul\":2122:2127   */\n      dup2\n        /* \"#utility.yul\":2111:2127   */\n      swap1\n      pop\n        /* \"#utility.yul\":2128:2167   */\n      tag_63\n        /* \"#utility.yul\":2161:2166   */\n      dup3\n        /* \"#utility.yul\":2128:2167   */\n      tag_31\n      jump\t// in\n    tag_63:\n        /* \"#utility.yul\":2050:2173   */\n      swap2\n      swap1\n      pop\n      jump\t// out\n        /* \"#utility.yul\":2179:2302   */\n    tag_33:\n        /* \"#utility.yul\":2233:2242   */\n      0x00\n        /* \"#utility.yul\":2266:2296   */\n      tag_65\n        /* \"#utility.yul\":2290:2295   */\n      dup3\n        /* \"#utility.yul\":2266:2296   */\n      tag_32\n      jump\t// in\n    tag_65:\n        /* \"#utility.yul\":2253:2296   */\n      swap1\n      pop\n        /* \"#utility.yul\":2179:2302   */\n      swap2\n      swap1\n      pop\n      jump\t// out\n        /* \"#utility.yul\":2308:2447   */\n    tag_34:\n        /* \"#utility.yul\":2399:2440   */\n      tag_67\n        /* \"#utility.yul\":2434:2439   */\n      dup2\n        /* \"#utility.yul\":2399:2440   */\n      tag_33\n      jump\t// in\n    tag_67:\n        /* \"#utility.yul\":2394:2397   */\n      dup3\n        /* \"#utility.yul\":2387:2441   */\n      mstore\n        /* \"#utility.yul\":2308:2447   */\n      pop\n      pop\n      jump\t// out\n        /* \"#utility.yul\":2453:2683   */\n    tag_18:\n        /* \"#utility.yul\":2550:2554   */\n      0x00\n        /* \"#utility.yul\":2588:2590   */\n      0x20\n        /* \"#utility.yul\":2577:2586   */\n      dup3\n        /* \"#utility.yul\":2573:2591   */\n      add\n        /* \"#utility.yul\":2565:2591   */\n      swap1\n      pop\n        /* \"#utility.yul\":2601:2676   */\n      tag_69\n        /* \"#utility.yul\":2673:2674   */\n      0x00\n        /* \"#utility.yul\":2662:2671   */\n      dup4\n        /* \"#utility.yul\":2658:2675   */\n      add\n        /* \"#utility.yul\":2649:2655   */\n      dup5\n        /* \"#utility.yul\":2601:2676   */\n      tag_34\n      jump\t// in\n    tag_69:\n        /* \"#utility.yul\":2453:2683   */\n      swap3\n      swap2\n      pop\n      pop\n      jump\t// out\n\n    auxdata: 0xa26469706673582212205cd90a2974099cc6dd8908a99cc814286149f0cacb018c2dadf2dd90e27be5d964736f6c634300080f0033\n}\n",
				"bytecode": {
					"linkReferences": {},
					"object": "608060405260016000806101000a81548160ff0219169083600681111561002957610028610040565b5b021790555034801561003a57600080fd5b5061006f565b7f4e487b7100000000000000000000000000000000000000000000000000000000600052602160045260246000fd5b6102738061007e6000396000f3fe608060405234801561001057600080fd5b50600436106100415760003560e01c80632e49d78b146100465780634e69d560146100765780637b76ac9114610094575b600080fd5b610060600480360381019061005b919061011b565b6100b2565b60405161006d91906101bf565b60405180910390f35b61007e6100ca565b60405161008b91906101bf565b60405180910390f35b61009c6100e0565b6040516100a99190610222565b60405180910390f35b60008060019054906101000a900460ff169050919050565b60008060019054906101000a900460ff16905090565b60008054906101000a900460ff1681565b600080fd5b6004811061010357600080fd5b50565b600081359050610115816100f6565b92915050565b600060208284031215610131576101306100f1565b5b600061013f84828501610106565b91505092915050565b7f4e487b7100000000000000000000000000000000000000000000000000000000600052602160045260246000fd5b6004811061018857610187610148565b5b50565b600081905061019982610177565b919050565b60006101a98261018b565b9050919050565b6101b98161019e565b82525050565b60006020820190506101d460008301846101b0565b92915050565b600781106101eb576101ea610148565b5b50565b60008190506101fc826101da565b919050565b600061020c826101ee565b9050919050565b61021c81610201565b82525050565b60006020820190506102376000830184610213565b9291505056fea26469706673582212205cd90a2974099cc6dd8908a99cc814286149f0cacb018c2dadf2dd90e27be5d964736f6c634300080f0033",
					"opcodes": "PUSH1 0x80 PUSH1 0x40 MSTORE PUSH1 0x1 PUSH1 0x0 DUP1 PUSH2 0x100 EXP DUP2 SLOAD DUP2 PUSH1 0xFF MUL NOT AND SWAP1 DUP4 PUSH1 0x6 DUP2 GT ISZERO PUSH2 0x29 JUMPI PUSH2 0x28 PUSH2 0x40 JUMP JUMPDEST JUMPDEST MUL OR SWAP1 SSTORE POP CALLVALUE DUP1 ISZERO PUSH2 0x3A JUMPI PUSH1 0x0 DUP1 REVERT JUMPDEST POP PUSH2 0x6F JUMP JUMPDEST PUSH32 0x4E487B7100000000000000000000000000000000000000000000000000000000 PUSH1 0x0 MSTORE PUSH1 0x21 PUSH1 0x4 MSTORE PUSH1 0x24 PUSH1 0x0 REVERT JUMPDEST PUSH2 0x273 DUP1 PUSH2 0x7E PUSH1 0x0 CODECOPY PUSH1 0x0 RETURN INVALID PUSH1 0x80 PUSH1 0x40 MSTORE CALLVALUE DUP1 ISZERO PUSH2 0x10 JUMPI PUSH1 0x0 DUP1 REVERT JUMPDEST POP PUSH1 0x4 CALLDATASIZE LT PUSH2 0x41 JUMPI PUSH1 0x0 CALLDATALOAD PUSH1 0xE0 SHR DUP1 PUSH4 0x2E49D78B EQ PUSH2 0x46 JUMPI DUP1 PUSH4 0x4E69D560 EQ PUSH2 0x76 JUMPI DUP1 PUSH4 0x7B76AC91 EQ PUSH2 0x94 JUMPI JUMPDEST PUSH1 0x0 DUP1 REVERT JUMPDEST PUSH2 0x60 PUSH1 0x4 DUP1 CALLDATASIZE SUB DUP2 ADD SWAP1 PUSH2 0x5B SWAP2 SWAP1 PUSH2 0x11B JUMP JUMPDEST PUSH2 0xB2 JUMP JUMPDEST PUSH1 0x40 MLOAD PUSH2 0x6D SWAP2 SWAP1 PUSH2 0x1BF JUMP JUMPDEST PUSH1 0x40 MLOAD DUP1 SWAP2 SUB SWAP1 RETURN JUMPDEST PUSH2 0x7E PUSH2 0xCA JUMP JUMPDEST PUSH1 0x40 MLOAD PUSH2 0x8B SWAP2 SWAP1 PUSH2 0x1BF JUMP JUMPDEST PUSH1 0x40 MLOAD DUP1 SWAP2 SUB SWAP1 RETURN JUMPDEST PUSH2 0x9C PUSH2 0xE0 JUMP JUMPDEST PUSH1 0x40 MLOAD PUSH2 0xA9 SWAP2 SWAP1 PUSH2 0x222 JUMP JUMPDEST PUSH1 0x40 MLOAD DUP1 SWAP2 SUB SWAP1 RETURN JUMPDEST PUSH1 0x0 DUP1 PUSH1 0x1 SWAP1 SLOAD SWAP1 PUSH2 0x100 EXP SWAP1 DIV PUSH1 0xFF AND SWAP1 POP SWAP2 SWAP1 POP JUMP JUMPDEST PUSH1 0x0 DUP1 PUSH1 0x1 SWAP1 SLOAD SWAP1 PUSH2 0x100 EXP SWAP1 DIV PUSH1 0xFF AND SWAP1 POP SWAP1 JUMP JUMPDEST PUSH1 0x0 DUP1 SLOAD SWAP1 PUSH2 0x100 EXP SWAP1 DIV PUSH1 0xFF AND DUP2 JUMP JUMPDEST PUSH1 0x0 DUP1 REVERT JUMPDEST PUSH1 0x4 DUP2 LT PUSH2 0x103 JUMPI PUSH1 0x0 DUP1 REVERT JUMPDEST POP JUMP JUMPDEST PUSH1 0x0 DUP2 CALLDATALOAD SWAP1 POP PUSH2 0x115 DUP2 PUSH2 0xF6 JUMP JUMPDEST SWAP3 SWAP2 POP POP JUMP JUMPDEST PUSH1 0x0 PUSH1 0x20 DUP3 DUP5 SUB SLT ISZERO PUSH2 0x131 JUMPI PUSH2 0x130 PUSH2 0xF1 JUMP JUMPDEST JUMPDEST PUSH1 0x0 PUSH2 0x13F DUP5 DUP3 DUP6 ADD PUSH2 0x106 JUMP JUMPDEST SWAP2 POP POP SWAP3 SWAP2 POP POP JUMP JUMPDEST PUSH32 0x4E487B7100000000000000000000000000000000000000000000000000000000 PUSH1 0x0 MSTORE PUSH1 0x21 PUSH1 0x4 MSTORE PUSH1 0x24 PUSH1 0x0 REVERT JUMPDEST PUSH1 0x4 DUP2 LT PUSH2 0x188 JUMPI PUSH2 0x187 PUSH2 0x148 JUMP JUMPDEST JUMPDEST POP JUMP JUMPDEST PUSH1 0x0 DUP2 SWAP1 POP PUSH2 0x199 DUP3 PUSH2 0x177 JUMP JUMPDEST SWAP2 SWAP1 POP JUMP JUMPDEST PUSH1 0x0 PUSH2 0x1A9 DUP3 PUSH2 0x18B JUMP JUMPDEST SWAP1 POP SWAP2 SWAP1 POP JUMP JUMPDEST PUSH2 0x1B9 DUP2 PUSH2 0x19E JUMP JUMPDEST DUP3 MSTORE POP POP JUMP JUMPDEST PUSH1 0x0 PUSH1 0x20 DUP3 ADD SWAP1 POP PUSH2 0x1D4 PUSH1 0x0 DUP4 ADD DUP5 PUSH2 0x1B0 JUMP JUMPDEST SWAP3 SWAP2 POP POP JUMP JUMPDEST PUSH1 0x7 DUP2 LT PUSH2 0x1EB JUMPI PUSH2 0x1EA PUSH2 0x148 JUMP JUMPDEST JUMPDEST POP JUMP JUMPDEST PUSH1 0x0 DUP2 SWAP1 POP PUSH2 0x1FC DUP3 PUSH2 0x1DA JUMP JUMPDEST SWAP2 SWAP1 POP JUMP JUMPDEST PUSH1 0x0 PUSH2 0x20C DUP3 PUSH2 0x1EE JUMP JUMPDEST SWAP1 POP SWAP2 SWAP1 POP JUMP JUMPDEST PUSH2 0x21C DUP2 PUSH2 0x201 JUMP JUMPDEST DUP3 MSTORE POP POP JUMP JUMPDEST PUSH1 0x0 PUSH1 0x20 DUP3 ADD SWAP1 POP PUSH2 0x237 PUSH1 0x0 DUP4 ADD DUP5 PUSH2 0x213 JUMP JUMPDEST SWAP3 SWAP2 POP POP JUMP INVALID LOG2 PUSH5 0x6970667358 0x22 SLT KECCAK256 0x5C 0xD9 EXP 0x29 PUSH21 0x99CC6DD8908A99CC814286149F0CACB018C2DADF2 0xDD SWAP1 0xE2 PUSH28 0xE5D964736F6C634300080F0033000000000000000000000000000000 "
				},
				"gasEstimates": {
					"creation": {
						"codeDepositCost": "125400",
						"executionCost": "24470",
						"totalCost": "149870"
					},
					"external": {
						"day()": "2579",
						"getStatus()": "2618",
						"setStatus(uint8)": "2818"
					}
				},
				"methodIdentifiers": {
					"day()": "7b76ac91",
					"getStatus()": "4e69d560",
					"setStatus(uint8)": "2e49d78b"
				}
			},
			"storageLayout": {
				"storage": [
					{
						"astId": 19,
						"contract": "contracts/artifacts/enum.sol:Enum",
						"label": "day",
						"offset": 0,
						"slot": "0",
						"type": "t_enum(Days)9"
					},
					{
						"astId": 22,
						"contract": "contracts/artifacts/enum.sol:Enum",
						"label": "status",
						"offset": 1,
						"slot": "0",
						"type": "t_enum(Status)14"
					}
				],
				"types": {
					"t_enum(Days)9": {
						"encoding": "inplace",
						"label": "enum Enum.Days",
						"numberOfBytes": "1"
					},
					"t_enum(Status)14": {
						"encoding": "inplace",
						"label": "enum Enum.Status",
						"numberOfBytes": "1"
					}
				}
			},
			"userdoc": {
				"kind": "user",
				"methods": {},
				"version": 1
			}
		}
	}
}