{
	"contracts/artifacts/enum.sol": {
		"Enum": {
			"abi": [
				{
					"inputs": [],
					"name": "accept",
					"outputs": [],
					"stateMutability": "nonpayable",
					"type": "function"
				},
				{
					"inputs": [],
					"name": "day",
					"outputs": [
						{
							"internalType": "enum Enum.Days",
							"name": "",
							"type": "uint8"
						}
					],
					"stateMutability": "view",
					"type": "function"
				},
				{
					"inputs": [],
					"name": "getStatus",
					"outputs": [
						{
							"internalType": "enum Enum.Status",
							"name": "",
							"type": "uint8"
						}
					],
					"stateMutability": "view",
					"type": "function"
				},
				{
					"inputs": [],
					"name": "reject",
					"outputs": [],
					"stateMutability": "nonpayable",
					"type": "function"
				},
				{
					"inputs": [],
					"name": "ship",
					"outputs": [],
					"stateMutability": "nonpayable",
					"type": "function"
				}
			],
			"devdoc": {
				"kind": "dev",
				"methods": {},
				"version": 1
			},
			"evm": {
				"assembly": "    /* \"contracts/artifacts/enum.sol\":26:862  contract Enum {... */\n  mstore(0x40, 0x80)\n    /* \"contracts/artifacts/enum.sol\":271:279  Days.Mon */\n  0x01\n    /* \"contracts/artifacts/enum.sol\":253:279  Days public day = Days.Mon */\n  0x00\n  dup1\n  0x0100\n  exp\n  dup2\n  sload\n  dup2\n  0xff\n  mul\n  not\n  and\n  swap1\n  dup4\n  0x06\n  dup2\n  gt\n  iszero\n  tag_1\n  jumpi\n  tag_2\n  tag_3\n  jump\t// in\ntag_2:\ntag_1:\n  mul\n  or\n  swap1\n  sstore\n  pop\n    /* \"contracts/artifacts/enum.sol\":26:862  contract Enum {... */\n  callvalue\n  dup1\n  iszero\n  tag_4\n  jumpi\n  0x00\n  dup1\n  revert\ntag_4:\n  pop\n  jump(tag_5)\n    /* \"#utility.yul\":7:187   */\ntag_3:\n    /* \"#utility.yul\":55:132   */\n  0x4e487b7100000000000000000000000000000000000000000000000000000000\n    /* \"#utility.yul\":52:53   */\n  0x00\n    /* \"#utility.yul\":45:133   */\n  mstore\n    /* \"#utility.yul\":152:156   */\n  0x21\n    /* \"#utility.yul\":149:150   */\n  0x04\n    /* \"#utility.yul\":142:157   */\n  mstore\n    /* \"#utility.yul\":176:180   */\n  0x24\n    /* \"#utility.yul\":173:174   */\n  0x00\n    /* \"#utility.yul\":166:181   */\n  revert\n    /* \"contracts/artifacts/enum.sol\":26:862  contract Enum {... */\ntag_5:\n  dataSize(sub_0)\n  dup1\n  dataOffset(sub_0)\n  0x00\n  codecopy\n  0x00\n  return\nstop\n\nsub_0: assembly {\n        /* \"contracts/artifacts/enum.sol\":26:862  contract Enum {... */\n      mstore(0x40, 0x80)\n      callvalue\n      dup1\n      iszero\n      tag_1\n      jumpi\n      0x00\n      dup1\n      revert\n    tag_1:\n      pop\n      jumpi(tag_2, lt(calldatasize, 0x04))\n      shr(0xe0, calldataload(0x00))\n      dup1\n      0x2852b71c\n      eq\n      tag_3\n      jumpi\n      dup1\n      0x4dc415de\n      eq\n      tag_4\n      jumpi\n      dup1\n      0x4e69d560\n      eq\n      tag_5\n      jumpi\n      dup1\n      0x7b76ac91\n      eq\n      tag_6\n      jumpi\n      dup1\n      0xb6bef7b3\n      eq\n      tag_7\n      jumpi\n    tag_2:\n      0x00\n      dup1\n      revert\n        /* \"contracts/artifacts/enum.sol\":552:703  function accept() public {... */\n    tag_3:\n      tag_8\n      tag_9\n      jump\t// in\n    tag_8:\n      stop\n        /* \"contracts/artifacts/enum.sol\":709:860  function reject() public {... */\n    tag_4:\n      tag_10\n      tag_11\n      jump\t// in\n    tag_10:\n      stop\n        /* \"contracts/artifacts/enum.sol\":314:393  function getStatus() public view returns(Status) {... */\n    tag_5:\n      tag_12\n      tag_13\n      jump\t// in\n    tag_12:\n      mload(0x40)\n      tag_14\n      swap2\n      swap1\n      tag_15\n      jump\t// in\n    tag_14:\n      mload(0x40)\n      dup1\n      swap2\n      sub\n      swap1\n      return\n        /* \"contracts/artifacts/enum.sol\":253:279  Days public day = Days.Mon */\n    tag_6:\n      tag_16\n      tag_17\n      jump\t// in\n    tag_16:\n      mload(0x40)\n      tag_18\n      swap2\n      swap1\n      tag_19\n      jump\t// in\n    tag_18:\n      mload(0x40)\n      dup1\n      swap2\n      sub\n      swap1\n      return\n        /* \"contracts/artifacts/enum.sol\":399:546  function ship() public {... */\n    tag_7:\n      tag_20\n      tag_21\n      jump\t// in\n    tag_20:\n      stop\n        /* \"contracts/artifacts/enum.sol\":552:703  function accept() public {... */\n    tag_9:\n        /* \"contracts/artifacts/enum.sol\":605:619  Status.Shipped */\n      0x01\n        /* \"contracts/artifacts/enum.sol\":595:619  status == Status.Shipped */\n      0x03\n      dup2\n      gt\n      iszero\n      tag_23\n      jumpi\n      tag_24\n      tag_25\n      jump\t// in\n    tag_24:\n    tag_23:\n        /* \"contracts/artifacts/enum.sol\":595:601  status */\n      0x00\n      0x01\n      swap1\n      sload\n      swap1\n      0x0100\n      exp\n      swap1\n      div\n      0xff\n      and\n        /* \"contracts/artifacts/enum.sol\":595:619  status == Status.Shipped */\n      0x03\n      dup2\n      gt\n      iszero\n      tag_26\n      jumpi\n      tag_27\n      tag_25\n      jump\t// in\n    tag_27:\n    tag_26:\n      eq\n        /* \"contracts/artifacts/enum.sol\":587:662  require(status == Status.Shipped, \"Status must be Shipped before Accepted\") */\n      tag_28\n      jumpi\n      mload(0x40)\n      0x08c379a000000000000000000000000000000000000000000000000000000000\n      dup2\n      mstore\n      0x04\n      add\n      tag_29\n      swap1\n      tag_30\n      jump\t// in\n    tag_29:\n      mload(0x40)\n      dup1\n      swap2\n      sub\n      swap1\n      revert\n    tag_28:\n        /* \"contracts/artifacts/enum.sol\":681:696  Status.Accepted */\n      0x02\n        /* \"contracts/artifacts/enum.sol\":672:678  status */\n      0x00\n      0x01\n        /* \"contracts/artifacts/enum.sol\":672:696  status = Status.Accepted */\n      0x0100\n      exp\n      dup2\n      sload\n      dup2\n      0xff\n      mul\n      not\n      and\n      swap1\n      dup4\n      0x03\n      dup2\n      gt\n      iszero\n      tag_31\n      jumpi\n      tag_32\n      tag_25\n      jump\t// in\n    tag_32:\n    tag_31:\n      mul\n      or\n      swap1\n      sstore\n      pop\n        /* \"contracts/artifacts/enum.sol\":552:703  function accept() public {... */\n      jump\t// out\n        /* \"contracts/artifacts/enum.sol\":709:860  function reject() public {... */\n    tag_11:\n        /* \"contracts/artifacts/enum.sol\":762:776  Status.Shipped */\n      0x01\n        /* \"contracts/artifacts/enum.sol\":752:776  status == Status.Shipped */\n      0x03\n      dup2\n      gt\n      iszero\n      tag_34\n      jumpi\n      tag_35\n      tag_25\n      jump\t// in\n    tag_35:\n    tag_34:\n        /* \"contracts/artifacts/enum.sol\":752:758  status */\n      0x00\n      0x01\n      swap1\n      sload\n      swap1\n      0x0100\n      exp\n      swap1\n      div\n      0xff\n      and\n        /* \"contracts/artifacts/enum.sol\":752:776  status == Status.Shipped */\n      0x03\n      dup2\n      gt\n      iszero\n      tag_36\n      jumpi\n      tag_37\n      tag_25\n      jump\t// in\n    tag_37:\n    tag_36:\n      eq\n        /* \"contracts/artifacts/enum.sol\":744:819  require(status == Status.Shipped, \"Status must be Shipped before Accepted\") */\n      tag_38\n      jumpi\n      mload(0x40)\n      0x08c379a000000000000000000000000000000000000000000000000000000000\n      dup2\n      mstore\n      0x04\n      add\n      tag_39\n      swap1\n      tag_30\n      jump\t// in\n    tag_39:\n      mload(0x40)\n      dup1\n      swap2\n      sub\n      swap1\n      revert\n    tag_38:\n        /* \"contracts/artifacts/enum.sol\":838:853  Status.Accepted */\n      0x02\n        /* \"contracts/artifacts/enum.sol\":829:835  status */\n      0x00\n      0x01\n        /* \"contracts/artifacts/enum.sol\":829:853  status = Status.Accepted */\n      0x0100\n      exp\n      dup2\n      sload\n      dup2\n      0xff\n      mul\n      not\n      and\n      swap1\n      dup4\n      0x03\n      dup2\n      gt\n      iszero\n      tag_40\n      jumpi\n      tag_41\n      tag_25\n      jump\t// in\n    tag_41:\n    tag_40:\n      mul\n      or\n      swap1\n      sstore\n      pop\n        /* \"contracts/artifacts/enum.sol\":709:860  function reject() public {... */\n      jump\t// out\n        /* \"contracts/artifacts/enum.sol\":314:393  function getStatus() public view returns(Status) {... */\n    tag_13:\n        /* \"contracts/artifacts/enum.sol\":355:361  Status */\n      0x00\n        /* \"contracts/artifacts/enum.sol\":380:386  status */\n      dup1\n      0x01\n      swap1\n      sload\n      swap1\n      0x0100\n      exp\n      swap1\n      div\n      0xff\n      and\n        /* \"contracts/artifacts/enum.sol\":373:386  return status */\n      swap1\n      pop\n        /* \"contracts/artifacts/enum.sol\":314:393  function getStatus() public view returns(Status) {... */\n      swap1\n      jump\t// out\n        /* \"contracts/artifacts/enum.sol\":253:279  Days public day = Days.Mon */\n    tag_17:\n      0x00\n      dup1\n      sload\n      swap1\n      0x0100\n      exp\n      swap1\n      div\n      0xff\n      and\n      dup2\n      jump\t// out\n        /* \"contracts/artifacts/enum.sol\":399:546  function ship() public {... */\n    tag_21:\n        /* \"contracts/artifacts/enum.sol\":450:464  Status.Pending */\n      0x00\n        /* \"contracts/artifacts/enum.sol\":440:464  status == Status.Pending */\n      0x03\n      dup2\n      gt\n      iszero\n      tag_44\n      jumpi\n      tag_45\n      tag_25\n      jump\t// in\n    tag_45:\n    tag_44:\n        /* \"contracts/artifacts/enum.sol\":440:446  status */\n      0x00\n      0x01\n      swap1\n      sload\n      swap1\n      0x0100\n      exp\n      swap1\n      div\n      0xff\n      and\n        /* \"contracts/artifacts/enum.sol\":440:464  status == Status.Pending */\n      0x03\n      dup2\n      gt\n      iszero\n      tag_46\n      jumpi\n      tag_47\n      tag_25\n      jump\t// in\n    tag_47:\n    tag_46:\n      eq\n        /* \"contracts/artifacts/enum.sol\":432:506  require(status == Status.Pending, \"Status must be Pending before Shipped\") */\n      tag_48\n      jumpi\n      mload(0x40)\n      0x08c379a000000000000000000000000000000000000000000000000000000000\n      dup2\n      mstore\n      0x04\n      add\n      tag_49\n      swap1\n      tag_50\n      jump\t// in\n    tag_49:\n      mload(0x40)\n      dup1\n      swap2\n      sub\n      swap1\n      revert\n    tag_48:\n        /* \"contracts/artifacts/enum.sol\":525:539  Status.Shipped */\n      0x01\n        /* \"contracts/artifacts/enum.sol\":516:522  status */\n      0x00\n      0x01\n        /* \"contracts/artifacts/enum.sol\":516:539  status = Status.Shipped */\n      0x0100\n      exp\n      dup2\n      sload\n      dup2\n      0xff\n      mul\n      not\n      and\n      swap1\n      dup4\n      0x03\n      dup2\n      gt\n      iszero\n      tag_51\n      jumpi\n      tag_52\n      tag_25\n      jump\t// in\n    tag_52:\n    tag_51:\n      mul\n      or\n      swap1\n      sstore\n      pop\n        /* \"contracts/artifacts/enum.sol\":399:546  function ship() public {... */\n      jump\t// out\n        /* \"#utility.yul\":7:187   */\n    tag_25:\n        /* \"#utility.yul\":55:132   */\n      0x4e487b7100000000000000000000000000000000000000000000000000000000\n        /* \"#utility.yul\":52:53   */\n      0x00\n        /* \"#utility.yul\":45:133   */\n      mstore\n        /* \"#utility.yul\":152:156   */\n      0x21\n        /* \"#utility.yul\":149:150   */\n      0x04\n        /* \"#utility.yul\":142:157   */\n      mstore\n        /* \"#utility.yul\":176:180   */\n      0x24\n        /* \"#utility.yul\":173:174   */\n      0x00\n        /* \"#utility.yul\":166:181   */\n      revert\n        /* \"#utility.yul\":193:307   */\n    tag_53:\n        /* \"#utility.yul\":275:276   */\n      0x04\n        /* \"#utility.yul\":268:273   */\n      dup2\n        /* \"#utility.yul\":265:277   */\n      lt\n        /* \"#utility.yul\":255:301   */\n      tag_69\n      jumpi\n        /* \"#utility.yul\":281:299   */\n      tag_70\n      tag_25\n      jump\t// in\n    tag_70:\n        /* \"#utility.yul\":255:301   */\n    tag_69:\n        /* \"#utility.yul\":193:307   */\n      pop\n      jump\t// out\n        /* \"#utility.yul\":313:442   */\n    tag_54:\n        /* \"#utility.yul\":359:366   */\n      0x00\n        /* \"#utility.yul\":388:393   */\n      dup2\n        /* \"#utility.yul\":377:393   */\n      swap1\n      pop\n        /* \"#utility.yul\":394:436   */\n      tag_72\n        /* \"#utility.yul\":430:435   */\n      dup3\n        /* \"#utility.yul\":394:436   */\n      tag_53\n      jump\t// in\n    tag_72:\n        /* \"#utility.yul\":313:442   */\n      swap2\n      swap1\n      pop\n      jump\t// out\n        /* \"#utility.yul\":448:577   */\n    tag_55:\n        /* \"#utility.yul\":505:514   */\n      0x00\n        /* \"#utility.yul\":538:571   */\n      tag_74\n        /* \"#utility.yul\":565:570   */\n      dup3\n        /* \"#utility.yul\":538:571   */\n      tag_54\n      jump\t// in\n    tag_74:\n        /* \"#utility.yul\":525:571   */\n      swap1\n      pop\n        /* \"#utility.yul\":448:577   */\n      swap2\n      swap1\n      pop\n      jump\t// out\n        /* \"#utility.yul\":583:728   */\n    tag_56:\n        /* \"#utility.yul\":677:721   */\n      tag_76\n        /* \"#utility.yul\":715:720   */\n      dup2\n        /* \"#utility.yul\":677:721   */\n      tag_55\n      jump\t// in\n    tag_76:\n        /* \"#utility.yul\":672:675   */\n      dup3\n        /* \"#utility.yul\":665:722   */\n      mstore\n        /* \"#utility.yul\":583:728   */\n      pop\n      pop\n      jump\t// out\n        /* \"#utility.yul\":734:970   */\n    tag_15:\n        /* \"#utility.yul\":834:838   */\n      0x00\n        /* \"#utility.yul\":872:874   */\n      0x20\n        /* \"#utility.yul\":861:870   */\n      dup3\n        /* \"#utility.yul\":857:875   */\n      add\n        /* \"#utility.yul\":849:875   */\n      swap1\n      pop\n        /* \"#utility.yul\":885:963   */\n      tag_78\n        /* \"#utility.yul\":960:961   */\n      0x00\n        /* \"#utility.yul\":949:958   */\n      dup4\n        /* \"#utility.yul\":945:962   */\n      add\n        /* \"#utility.yul\":936:942   */\n      dup5\n        /* \"#utility.yul\":885:963   */\n      tag_56\n      jump\t// in\n    tag_78:\n        /* \"#utility.yul\":734:970   */\n      swap3\n      swap2\n      pop\n      pop\n      jump\t// out\n        /* \"#utility.yul\":976:1087   */\n    tag_57:\n        /* \"#utility.yul\":1055:1056   */\n      0x07\n        /* \"#utility.yul\":1048:1053   */\n      dup2\n        /* \"#utility.yul\":1045:1057   */\n      lt\n        /* \"#utility.yul\":1035:1081   */\n      tag_80\n      jumpi\n        /* \"#utility.yul\":1061:1079   */\n      tag_81\n      tag_25\n      jump\t// in\n    tag_81:\n        /* \"#utility.yul\":1035:1081   */\n    tag_80:\n        /* \"#utility.yul\":976:1087   */\n      pop\n      jump\t// out\n        /* \"#utility.yul\":1093:1216   */\n    tag_58:\n        /* \"#utility.yul\":1136:1143   */\n      0x00\n        /* \"#utility.yul\":1165:1170   */\n      dup2\n        /* \"#utility.yul\":1154:1170   */\n      swap1\n      pop\n        /* \"#utility.yul\":1171:1210   */\n      tag_83\n        /* \"#utility.yul\":1204:1209   */\n      dup3\n        /* \"#utility.yul\":1171:1210   */\n      tag_57\n      jump\t// in\n    tag_83:\n        /* \"#utility.yul\":1093:1216   */\n      swap2\n      swap1\n      pop\n      jump\t// out\n        /* \"#utility.yul\":1222:1345   */\n    tag_59:\n        /* \"#utility.yul\":1276:1285   */\n      0x00\n        /* \"#utility.yul\":1309:1339   */\n      tag_85\n        /* \"#utility.yul\":1333:1338   */\n      dup3\n        /* \"#utility.yul\":1309:1339   */\n      tag_58\n      jump\t// in\n    tag_85:\n        /* \"#utility.yul\":1296:1339   */\n      swap1\n      pop\n        /* \"#utility.yul\":1222:1345   */\n      swap2\n      swap1\n      pop\n      jump\t// out\n        /* \"#utility.yul\":1351:1490   */\n    tag_60:\n        /* \"#utility.yul\":1442:1483   */\n      tag_87\n        /* \"#utility.yul\":1477:1482   */\n      dup2\n        /* \"#utility.yul\":1442:1483   */\n      tag_59\n      jump\t// in\n    tag_87:\n        /* \"#utility.yul\":1437:1440   */\n      dup3\n        /* \"#utility.yul\":1430:1484   */\n      mstore\n        /* \"#utility.yul\":1351:1490   */\n      pop\n      pop\n      jump\t// out\n        /* \"#utility.yul\":1496:1726   */\n    tag_19:\n        /* \"#utility.yul\":1593:1597   */\n      0x00\n        /* \"#utility.yul\":1631:1633   */\n      0x20\n        /* \"#utility.yul\":1620:1629   */\n      dup3\n        /* \"#utility.yul\":1616:1634   */\n      add\n        /* \"#utility.yul\":1608:1634   */\n      swap1\n      pop\n        /* \"#utility.yul\":1644:1719   */\n      tag_89\n        /* \"#utility.yul\":1716:1717   */\n      0x00\n        /* \"#utility.yul\":1705:1714   */\n      dup4\n        /* \"#utility.yul\":1701:1718   */\n      add\n        /* \"#utility.yul\":1692:1698   */\n      dup5\n        /* \"#utility.yul\":1644:1719   */\n      tag_60\n      jump\t// in\n    tag_89:\n        /* \"#utility.yul\":1496:1726   */\n      swap3\n      swap2\n      pop\n      pop\n      jump\t// out\n        /* \"#utility.yul\":1732:1901   */\n    tag_61:\n        /* \"#utility.yul\":1816:1827   */\n      0x00\n        /* \"#utility.yul\":1850:1856   */\n      dup3\n        /* \"#utility.yul\":1845:1848   */\n      dup3\n        /* \"#utility.yul\":1838:1857   */\n      mstore\n        /* \"#utility.yul\":1890:1894   */\n      0x20\n        /* \"#utility.yul\":1885:1888   */\n      dup3\n        /* \"#utility.yul\":1881:1895   */\n      add\n        /* \"#utility.yul\":1866:1895   */\n      swap1\n      pop\n        /* \"#utility.yul\":1732:1901   */\n      swap3\n      swap2\n      pop\n      pop\n      jump\t// out\n        /* \"#utility.yul\":1907:2132   */\n    tag_62:\n        /* \"#utility.yul\":2047:2081   */\n      0x537461747573206d7573742062652053686970706564206265666f7265204163\n        /* \"#utility.yul\":2043:2044   */\n      0x00\n        /* \"#utility.yul\":2035:2041   */\n      dup3\n        /* \"#utility.yul\":2031:2045   */\n      add\n        /* \"#utility.yul\":2024:2082   */\n      mstore\n        /* \"#utility.yul\":2116:2124   */\n      0x6365707465640000000000000000000000000000000000000000000000000000\n        /* \"#utility.yul\":2111:2113   */\n      0x20\n        /* \"#utility.yul\":2103:2109   */\n      dup3\n        /* \"#utility.yul\":2099:2114   */\n      add\n        /* \"#utility.yul\":2092:2125   */\n      mstore\n        /* \"#utility.yul\":1907:2132   */\n      pop\n      jump\t// out\n        /* \"#utility.yul\":2138:2504   */\n    tag_63:\n        /* \"#utility.yul\":2280:2283   */\n      0x00\n        /* \"#utility.yul\":2301:2368   */\n      tag_93\n        /* \"#utility.yul\":2365:2367   */\n      0x26\n        /* \"#utility.yul\":2360:2363   */\n      dup4\n        /* \"#utility.yul\":2301:2368   */\n      tag_61\n      jump\t// in\n    tag_93:\n        /* \"#utility.yul\":2294:2368   */\n      swap2\n      pop\n        /* \"#utility.yul\":2377:2470   */\n      tag_94\n        /* \"#utility.yul\":2466:2469   */\n      dup3\n        /* \"#utility.yul\":2377:2470   */\n      tag_62\n      jump\t// in\n    tag_94:\n        /* \"#utility.yul\":2495:2497   */\n      0x40\n        /* \"#utility.yul\":2490:2493   */\n      dup3\n        /* \"#utility.yul\":2486:2498   */\n      add\n        /* \"#utility.yul\":2479:2498   */\n      swap1\n      pop\n        /* \"#utility.yul\":2138:2504   */\n      swap2\n      swap1\n      pop\n      jump\t// out\n        /* \"#utility.yul\":2510:2929   */\n    tag_30:\n        /* \"#utility.yul\":2676:2680   */\n      0x00\n        /* \"#utility.yul\":2714:2716   */\n      0x20\n        /* \"#utility.yul\":2703:2712   */\n      dup3\n        /* \"#utility.yul\":2699:2717   */\n      add\n        /* \"#utility.yul\":2691:2717   */\n      swap1\n      pop\n        /* \"#utility.yul\":2763:2772   */\n      dup2\n        /* \"#utility.yul\":2757:2761   */\n      dup2\n        /* \"#utility.yul\":2753:2773   */\n      sub\n        /* \"#utility.yul\":2749:2750   */\n      0x00\n        /* \"#utility.yul\":2738:2747   */\n      dup4\n        /* \"#utility.yul\":2734:2751   */\n      add\n        /* \"#utility.yul\":2727:2774   */\n      mstore\n        /* \"#utility.yul\":2791:2922   */\n      tag_96\n        /* \"#utility.yul\":2917:2921   */\n      dup2\n        /* \"#utility.yul\":2791:2922   */\n      tag_63\n      jump\t// in\n    tag_96:\n        /* \"#utility.yul\":2783:2922   */\n      swap1\n      pop\n        /* \"#utility.yul\":2510:2929   */\n      swap2\n      swap1\n      pop\n      jump\t// out\n        /* \"#utility.yul\":2935:3159   */\n    tag_64:\n        /* \"#utility.yul\":3075:3109   */\n      0x537461747573206d7573742062652050656e64696e67206265666f7265205368\n        /* \"#utility.yul\":3071:3072   */\n      0x00\n        /* \"#utility.yul\":3063:3069   */\n      dup3\n        /* \"#utility.yul\":3059:3073   */\n      add\n        /* \"#utility.yul\":3052:3110   */\n      mstore\n        /* \"#utility.yul\":3144:3151   */\n      0x6970706564000000000000000000000000000000000000000000000000000000\n        /* \"#utility.yul\":3139:3141   */\n      0x20\n        /* \"#utility.yul\":3131:3137   */\n      dup3\n        /* \"#utility.yul\":3127:3142   */\n      add\n        /* \"#utility.yul\":3120:3152   */\n      mstore\n        /* \"#utility.yul\":2935:3159   */\n      pop\n      jump\t// out\n        /* \"#utility.yul\":3165:3531   */\n    tag_65:\n        /* \"#utility.yul\":3307:3310   */\n      0x00\n        /* \"#utility.yul\":3328:3395   */\n      tag_99\n        /* \"#utility.yul\":3392:3394   */\n      0x25\n        /* \"#utility.yul\":3387:3390   */\n      dup4\n        /* \"#utility.yul\":3328:3395   */\n      tag_61\n      jump\t// in\n    tag_99:\n        /* \"#utility.yul\":3321:3395   */\n      swap2\n      pop\n        /* \"#utility.yul\":3404:3497   */\n      tag_100\n        /* \"#utility.yul\":3493:3496   */\n      dup3\n        /* \"#utility.yul\":3404:3497   */\n      tag_64\n      jump\t// in\n    tag_100:\n        /* \"#utility.yul\":3522:3524   */\n      0x40\n        /* \"#utility.yul\":3517:3520   */\n      dup3\n        /* \"#utility.yul\":3513:3525   */\n      add\n        /* \"#utility.yul\":3506:3525   */\n      swap1\n      pop\n        /* \"#utility.yul\":3165:3531   */\n      swap2\n      swap1\n      pop\n      jump\t// out\n        /* \"#utility.yul\":3537:3956   */\n    tag_50:\n        /* \"#utility.yul\":3703:3707   */\n      0x00\n        /* \"#utility.yul\":3741:3743   */\n      0x20\n        /* \"#utility.yul\":3730:3739   */\n      dup3\n        /* \"#utility.yul\":3726:3744   */\n      add\n        /* \"#utility.yul\":3718:3744   */\n      swap1\n      pop\n        /* \"#utility.yul\":3790:3799   */\n      dup2\n        /* \"#utility.yul\":3784:3788   */\n      dup2\n        /* \"#utility.yul\":3780:3800   */\n      sub\n        /* \"#utility.yul\":3776:3777   */\n      0x00\n        /* \"#utility.yul\":3765:3774   */\n      dup4\n        /* \"#utility.yul\":3761:3778   */\n      add\n        /* \"#utility.yul\":3754:3801   */\n      mstore\n        /* \"#utility.yul\":3818:3949   */\n      tag_102\n        /* \"#utility.yul\":3944:3948   */\n      dup2\n        /* \"#utility.yul\":3818:3949   */\n      tag_65\n      jump\t// in\n    tag_102:\n        /* \"#utility.yul\":3810:3949   */\n      swap1\n      pop\n        /* \"#utility.yul\":3537:3956   */\n      swap2\n      swap1\n      pop\n      jump\t// out\n\n    auxdata: 0xa264697066735822122004f6687d620556cf45656e9750da0113a3496ac94d24af5ce59ff360ed0c345364736f6c634300080f0033\n}\n",
				"bytecode": {
					"linkReferences": {},
					"object": "608060405260016000806101000a81548160ff0219169083600681111561002957610028610040565b5b021790555034801561003a57600080fd5b5061006f565b7f4e487b7100000000000000000000000000000000000000000000000000000000600052602160045260246000fd5b6105268061007e6000396000f3fe608060405234801561001057600080fd5b50600436106100575760003560e01c80632852b71c1461005c5780634dc415de146100665780634e69d560146100705780637b76ac911461008e578063b6bef7b3146100ac575b600080fd5b6100646100b6565b005b61006e610159565b005b6100786101fc565b604051610085919061033d565b60405180910390f35b610096610212565b6040516100a391906103a0565b60405180910390f35b6100b4610223565b005b600160038111156100ca576100c96102c6565b5b600060019054906101000a900460ff1660038111156100ec576100eb6102c6565b5b1461012c576040517f08c379a00000000000000000000000000000000000000000000000000000000081526004016101239061043e565b60405180910390fd5b6002600060016101000a81548160ff02191690836003811115610152576101516102c6565b5b0217905550565b6001600381111561016d5761016c6102c6565b5b600060019054906101000a900460ff16600381111561018f5761018e6102c6565b5b146101cf576040517f08c379a00000000000000000000000000000000000000000000000000000000081526004016101c69061043e565b60405180910390fd5b6002600060016101000a81548160ff021916908360038111156101f5576101f46102c6565b5b0217905550565b60008060019054906101000a900460ff16905090565b60008054906101000a900460ff1681565b60006003811115610237576102366102c6565b5b600060019054906101000a900460ff166003811115610259576102586102c6565b5b14610299576040517f08c379a0000000000000000000000000000000000000000000000000000000008152600401610290906104d0565b60405180910390fd5b6001600060016101000a81548160ff021916908360038111156102bf576102be6102c6565b5b0217905550565b7f4e487b7100000000000000000000000000000000000000000000000000000000600052602160045260246000fd5b60048110610306576103056102c6565b5b50565b6000819050610317826102f5565b919050565b600061032782610309565b9050919050565b6103378161031c565b82525050565b6000602082019050610352600083018461032e565b92915050565b60078110610369576103686102c6565b5b50565b600081905061037a82610358565b919050565b600061038a8261036c565b9050919050565b61039a8161037f565b82525050565b60006020820190506103b56000830184610391565b92915050565b600082825260208201905092915050565b7f537461747573206d7573742062652053686970706564206265666f726520416360008201527f6365707465640000000000000000000000000000000000000000000000000000602082015250565b60006104286026836103bb565b9150610433826103cc565b604082019050919050565b600060208201905081810360008301526104578161041b565b9050919050565b7f537461747573206d7573742062652050656e64696e67206265666f726520536860008201527f6970706564000000000000000000000000000000000000000000000000000000602082015250565b60006104ba6025836103bb565b91506104c58261045e565b604082019050919050565b600060208201905081810360008301526104e9816104ad565b905091905056fea264697066735822122004f6687d620556cf45656e9750da0113a3496ac94d24af5ce59ff360ed0c345364736f6c634300080f0033",
					"opcodes": "PUSH1 0x80 PUSH1 0x40 MSTORE PUSH1 0x1 PUSH1 0x0 DUP1 PUSH2 0x100 EXP DUP2 SLOAD DUP2 PUSH1 0xFF MUL NOT AND SWAP1 DUP4 PUSH1 0x6 DUP2 GT ISZERO PUSH2 0x29 JUMPI PUSH2 0x28 PUSH2 0x40 JUMP JUMPDEST JUMPDEST MUL OR SWAP1 SSTORE POP CALLVALUE DUP1 ISZERO PUSH2 0x3A JUMPI PUSH1 0x0 DUP1 REVERT JUMPDEST POP PUSH2 0x6F JUMP JUMPDEST PUSH32 0x4E487B7100000000000000000000000000000000000000000000000000000000 PUSH1 0x0 MSTORE PUSH1 0x21 PUSH1 0x4 MSTORE PUSH1 0x24 PUSH1 0x0 REVERT JUMPDEST PUSH2 0x526 DUP1 PUSH2 0x7E PUSH1 0x0 CODECOPY PUSH1 0x0 RETURN INVALID PUSH1 0x80 PUSH1 0x40 MSTORE CALLVALUE DUP1 ISZERO PUSH2 0x10 JUMPI PUSH1 0x0 DUP1 REVERT JUMPDEST POP PUSH1 0x4 CALLDATASIZE LT PUSH2 0x57 JUMPI PUSH1 0x0 CALLDATALOAD PUSH1 0xE0 SHR DUP1 PUSH4 0x2852B71C EQ PUSH2 0x5C JUMPI DUP1 PUSH4 0x4DC415DE EQ PUSH2 0x66 JUMPI DUP1 PUSH4 0x4E69D560 EQ PUSH2 0x70 JUMPI DUP1 PUSH4 0x7B76AC91 EQ PUSH2 0x8E JUMPI DUP1 PUSH4 0xB6BEF7B3 EQ PUSH2 0xAC JUMPI JUMPDEST PUSH1 0x0 DUP1 REVERT JUMPDEST PUSH2 0x64 PUSH2 0xB6 JUMP JUMPDEST STOP JUMPDEST PUSH2 0x6E PUSH2 0x159 JUMP JUMPDEST STOP JUMPDEST PUSH2 0x78 PUSH2 0x1FC JUMP JUMPDEST PUSH1 0x40 MLOAD PUSH2 0x85 SWAP2 SWAP1 PUSH2 0x33D JUMP JUMPDEST PUSH1 0x40 MLOAD DUP1 SWAP2 SUB SWAP1 RETURN JUMPDEST PUSH2 0x96 PUSH2 0x212 JUMP JUMPDEST PUSH1 0x40 MLOAD PUSH2 0xA3 SWAP2 SWAP1 PUSH2 0x3A0 JUMP JUMPDEST PUSH1 0x40 MLOAD DUP1 SWAP2 SUB SWAP1 RETURN JUMPDEST PUSH2 0xB4 PUSH2 0x223 JUMP JUMPDEST STOP JUMPDEST PUSH1 0x1 PUSH1 0x3 DUP2 GT ISZERO PUSH2 0xCA JUMPI PUSH2 0xC9 PUSH2 0x2C6 JUMP JUMPDEST JUMPDEST PUSH1 0x0 PUSH1 0x1 SWAP1 SLOAD SWAP1 PUSH2 0x100 EXP SWAP1 DIV PUSH1 0xFF AND PUSH1 0x3 DUP2 GT ISZERO PUSH2 0xEC JUMPI PUSH2 0xEB PUSH2 0x2C6 JUMP JUMPDEST JUMPDEST EQ PUSH2 0x12C JUMPI PUSH1 0x40 MLOAD PUSH32 0x8C379A000000000000000000000000000000000000000000000000000000000 DUP2 MSTORE PUSH1 0x4 ADD PUSH2 0x123 SWAP1 PUSH2 0x43E JUMP JUMPDEST PUSH1 0x40 MLOAD DUP1 SWAP2 SUB SWAP1 REVERT JUMPDEST PUSH1 0x2 PUSH1 0x0 PUSH1 0x1 PUSH2 0x100 EXP DUP2 SLOAD DUP2 PUSH1 0xFF MUL NOT AND SWAP1 DUP4 PUSH1 0x3 DUP2 GT ISZERO PUSH2 0x152 JUMPI PUSH2 0x151 PUSH2 0x2C6 JUMP JUMPDEST JUMPDEST MUL OR SWAP1 SSTORE POP JUMP JUMPDEST PUSH1 0x1 PUSH1 0x3 DUP2 GT ISZERO PUSH2 0x16D JUMPI PUSH2 0x16C PUSH2 0x2C6 JUMP JUMPDEST JUMPDEST PUSH1 0x0 PUSH1 0x1 SWAP1 SLOAD SWAP1 PUSH2 0x100 EXP SWAP1 DIV PUSH1 0xFF AND PUSH1 0x3 DUP2 GT ISZERO PUSH2 0x18F JUMPI PUSH2 0x18E PUSH2 0x2C6 JUMP JUMPDEST JUMPDEST EQ PUSH2 0x1CF JUMPI PUSH1 0x40 MLOAD PUSH32 0x8C379A000000000000000000000000000000000000000000000000000000000 DUP2 MSTORE PUSH1 0x4 ADD PUSH2 0x1C6 SWAP1 PUSH2 0x43E JUMP JUMPDEST PUSH1 0x40 MLOAD DUP1 SWAP2 SUB SWAP1 REVERT JUMPDEST PUSH1 0x2 PUSH1 0x0 PUSH1 0x1 PUSH2 0x100 EXP DUP2 SLOAD DUP2 PUSH1 0xFF MUL NOT AND SWAP1 DUP4 PUSH1 0x3 DUP2 GT ISZERO PUSH2 0x1F5 JUMPI PUSH2 0x1F4 PUSH2 0x2C6 JUMP JUMPDEST JUMPDEST MUL OR SWAP1 SSTORE POP JUMP JUMPDEST PUSH1 0x0 DUP1 PUSH1 0x1 SWAP1 SLOAD SWAP1 PUSH2 0x100 EXP SWAP1 DIV PUSH1 0xFF AND SWAP1 POP SWAP1 JUMP JUMPDEST PUSH1 0x0 DUP1 SLOAD SWAP1 PUSH2 0x100 EXP SWAP1 DIV PUSH1 0xFF AND DUP2 JUMP JUMPDEST PUSH1 0x0 PUSH1 0x3 DUP2 GT ISZERO PUSH2 0x237 JUMPI PUSH2 0x236 PUSH2 0x2C6 JUMP JUMPDEST JUMPDEST PUSH1 0x0 PUSH1 0x1 SWAP1 SLOAD SWAP1 PUSH2 0x100 EXP SWAP1 DIV PUSH1 0xFF AND PUSH1 0x3 DUP2 GT ISZERO PUSH2 0x259 JUMPI PUSH2 0x258 PUSH2 0x2C6 JUMP JUMPDEST JUMPDEST EQ PUSH2 0x299 JUMPI PUSH1 0x40 MLOAD PUSH32 0x8C379A000000000000000000000000000000000000000000000000000000000 DUP2 MSTORE PUSH1 0x4 ADD PUSH2 0x290 SWAP1 PUSH2 0x4D0 JUMP JUMPDEST PUSH1 0x40 MLOAD DUP1 SWAP2 SUB SWAP1 REVERT JUMPDEST PUSH1 0x1 PUSH1 0x0 PUSH1 0x1 PUSH2 0x100 EXP DUP2 SLOAD DUP2 PUSH1 0xFF MUL NOT AND SWAP1 DUP4 PUSH1 0x3 DUP2 GT ISZERO PUSH2 0x2BF JUMPI PUSH2 0x2BE PUSH2 0x2C6 JUMP JUMPDEST JUMPDEST MUL OR SWAP1 SSTORE POP JUMP JUMPDEST PUSH32 0x4E487B7100000000000000000000000000000000000000000000000000000000 PUSH1 0x0 MSTORE PUSH1 0x21 PUSH1 0x4 MSTORE PUSH1 0x24 PUSH1 0x0 REVERT JUMPDEST PUSH1 0x4 DUP2 LT PUSH2 0x306 JUMPI PUSH2 0x305 PUSH2 0x2C6 JUMP JUMPDEST JUMPDEST POP JUMP JUMPDEST PUSH1 0x0 DUP2 SWAP1 POP PUSH2 0x317 DUP3 PUSH2 0x2F5 JUMP JUMPDEST SWAP2 SWAP1 POP JUMP JUMPDEST PUSH1 0x0 PUSH2 0x327 DUP3 PUSH2 0x309 JUMP JUMPDEST SWAP1 POP SWAP2 SWAP1 POP JUMP JUMPDEST PUSH2 0x337 DUP2 PUSH2 0x31C JUMP JUMPDEST DUP3 MSTORE POP POP JUMP JUMPDEST PUSH1 0x0 PUSH1 0x20 DUP3 ADD SWAP1 POP PUSH2 0x352 PUSH1 0x0 DUP4 ADD DUP5 PUSH2 0x32E JUMP JUMPDEST SWAP3 SWAP2 POP POP JUMP JUMPDEST PUSH1 0x7 DUP2 LT PUSH2 0x369 JUMPI PUSH2 0x368 PUSH2 0x2C6 JUMP JUMPDEST JUMPDEST POP JUMP JUMPDEST PUSH1 0x0 DUP2 SWAP1 POP PUSH2 0x37A DUP3 PUSH2 0x358 JUMP JUMPDEST SWAP2 SWAP1 POP JUMP JUMPDEST PUSH1 0x0 PUSH2 0x38A DUP3 PUSH2 0x36C JUMP JUMPDEST SWAP1 POP SWAP2 SWAP1 POP JUMP JUMPDEST PUSH2 0x39A DUP2 PUSH2 0x37F JUMP JUMPDEST DUP3 MSTORE POP POP JUMP JUMPDEST PUSH1 0x0 PUSH1 0x20 DUP3 ADD SWAP1 POP PUSH2 0x3B5 PUSH1 0x0 DUP4 ADD DUP5 PUSH2 0x391 JUMP JUMPDEST SWAP3 SWAP2 POP POP JUMP JUMPDEST PUSH1 0x0 DUP3 DUP3 MSTORE PUSH1 0x20 DUP3 ADD SWAP1 POP SWAP3 SWAP2 POP POP JUMP JUMPDEST PUSH32 0x537461747573206D7573742062652053686970706564206265666F7265204163 PUSH1 0x0 DUP3 ADD MSTORE PUSH32 0x6365707465640000000000000000000000000000000000000000000000000000 PUSH1 0x20 DUP3 ADD MSTORE POP JUMP JUMPDEST PUSH1 0x0 PUSH2 0x428 PUSH1 0x26 DUP4 PUSH2 0x3BB JUMP JUMPDEST SWAP2 POP PUSH2 0x433 DUP3 PUSH2 0x3CC JUMP JUMPDEST PUSH1 0x40 DUP3 ADD SWAP1 POP SWAP2 SWAP1 POP JUMP JUMPDEST PUSH1 0x0 PUSH1 0x20 DUP3 ADD SWAP1 POP DUP2 DUP2 SUB PUSH1 0x0 DUP4 ADD MSTORE PUSH2 0x457 DUP2 PUSH2 0x41B JUMP JUMPDEST SWAP1 POP SWAP2 SWAP1 POP JUMP JUMPDEST PUSH32 0x537461747573206D7573742062652050656E64696E67206265666F7265205368 PUSH1 0x0 DUP3 ADD MSTORE PUSH32 0x6970706564000000000000000000000000000000000000000000000000000000 PUSH1 0x20 DUP3 ADD MSTORE POP JUMP JUMPDEST PUSH1 0x0 PUSH2 0x4BA PUSH1 0x25 DUP4 PUSH2 0x3BB JUMP JUMPDEST SWAP2 POP PUSH2 0x4C5 DUP3 PUSH2 0x45E JUMP JUMPDEST PUSH1 0x40 DUP3 ADD SWAP1 POP SWAP2 SWAP1 POP JUMP JUMPDEST PUSH1 0x0 PUSH1 0x20 DUP3 ADD SWAP1 POP DUP2 DUP2 SUB PUSH1 0x0 DUP4 ADD MSTORE PUSH2 0x4E9 DUP2 PUSH2 0x4AD JUMP JUMPDEST SWAP1 POP SWAP2 SWAP1 POP JUMP INVALID LOG2 PUSH5 0x6970667358 0x22 SLT KECCAK256 DIV 0xF6 PUSH9 0x7D620556CF45656E97 POP 0xDA ADD SGT LOG3 0x49 PUSH11 0xC94D24AF5CE59FF360ED0C CALLVALUE MSTORE8 PUSH5 0x736F6C6343 STOP ADDMOD 0xF STOP CALLER "
				},
				"gasEstimates": {
					"creation": {
						"codeDepositCost": "263600",
						"executionCost": "24605",
						"totalCost": "288205"
					},
					"external": {
						"accept()": "26720",
						"day()": "2601",
						"getStatus()": "2640",
						"reject()": "26742",
						"ship()": "26808"
					}
				},
				"methodIdentifiers": {
					"accept()": "2852b71c",
					"day()": "7b76ac91",
					"getStatus()": "4e69d560",
					"reject()": "4dc415de",
					"ship()": "b6bef7b3"
				}
			},
			"storageLayout": {
				"storage": [
					{
						"astId": 19,
						"contract": "contracts/artifacts/enum.sol:Enum",
						"label": "day",
						"offset": 0,
						"slot": "0",
						"type": "t_enum(Days)9"
					},
					{
						"astId": 22,
						"contract": "contracts/artifacts/enum.sol:Enum",
						"label": "status",
						"offset": 1,
						"slot": "0",
						"type": "t_enum(Status)14"
					}
				],
				"types": {
					"t_enum(Days)9": {
						"encoding": "inplace",
						"label": "enum Enum.Days",
						"numberOfBytes": "1"
					},
					"t_enum(Status)14": {
						"encoding": "inplace",
						"label": "enum Enum.Status",
						"numberOfBytes": "1"
					}
				}
			},
			"userdoc": {
				"kind": "user",
				"methods": {},
				"version": 1
			}
		}
	}
}